S3250800000000400020753000084D030008510300080000000000000000000000000000000011
S32508000020000000000000000000000000000000000000000000000000000000005503000852
S32508000040000000000000000000000000000000000000000000000000000000000000000092
S32508000060000000000000000000000000000000000000000000000000000000000000000072
S32508000080000000000000000000000000000000000000000000000000000000000000000052
S325080000A000000000000000000000000000000000000000000000000000000000351A0008DB
S325080000C00448054B10B5834203D0044B002B00D0984710BDA4000020A4000020000000009B
S325080000E006480749091A8B10C90FC91810B5491003D0044B002B00D0984710BDA400002032
S32508000100A40000200000000010B5074C2378002B09D1FFF7D5FF054B002B02D0044800E012
S3250800012000BF0123237010BDA40000200000000070430008054B10B5002B03D00449054842
S3250800014000E000BFFFF7CCFF10BDC04600000000A800002070430008402292029A1A924659
S325080001607047C046154B002B00D1114B9D46FFF7F3FF00218B460F461148124A121A03F016
S325080001808FFE0C4B002B00D098470B4B002B00D098470020002104000D000B4803F0DAFDF4
S325080001A003F00AFE2000290002F0F4FF03F0DAFD00000800000000000000000000400020D6
S325080001C0A400002000100020913D00088023DB055A6AAE239B00C3580020DA677047C0465B
S325080001E0AE2300229B00C35800201A647047C046030040684A0070B599608418815C01223E
S325080002009E7E58691D8B0A40002E02D101267240D2B2002A18D085612A2502225D5D0A4034
S32508000220188D596A002D0BD1002A0BD08862627890008018054A400012688218DA6070BD44
S32508000240002AF3D08861F2E78562E5E7C0000020C379002B0ED1C3688288C91A036880798C
S32508000260002803D1002903DB9A6270470029FBDB9A61FAE70023C3718368CB1AEBD4C368CE
S32508000280CB1A0BD40B002D31816081791E33C360828803680029E7D19A61E6E78179036851
S325080002A082880029E0D19A61DFE7C046264A70B5536815680400EB1A0AD42B000A335360B6
S325080002C00378012B2CD0042B11D0002B01D000BE70BD817E4369028B00292DD09A622A21D1
S325080002E0615C636A228D002924D19A61F0E74368002BEDD01568C368EB1AE9D48368591C6A
S325080003008160FFF775FF002818D12369002B18D001DD013B236100212000FFF769FFD7E7D9
S3250800032029001430FFF794FF200029002430FFF78FFFCDE79A62CBE79A61D0E74019E060EB
S32508000340C6E76360C4E7C046C000002000BEFEE700BEFEE7024A1368013313607047C0461D
S32508000360C00000208022431E5204012093420DD2C021074A07485360036A09061B021B0A6F
S325080003800B43036200200723906013607047C04610E000E000ED00E0F0B54E46DE4657469B
S325080003A04546E0B50E6887B0002E00D186E00124A3466A4C00220419651EAC4100238C4695
S325080003C0043403945C4631009C4021408A4626426ED061464D6810272900B94389460139F9
S325080003E0012900D871E00D3F9740F94301916146C468BC4327008C6894403C43C4600468DB
S3250800040001990C4003212940914021430160E9004ED55F4652498C693C438C6189699C0882
S325080004203940059105994F49A4008846210041440327019189681F4088460F21BF00B9408F
S3250800044044468C439021A046C905884200D183E045498946594648450AD0444989460221F0
S32508000460484505D0424989460321484500D00399B94044462143019CA16054463D49E743C6
S325080004800968EC0365D439403A4C21606468A9035CD43C4037494C608C68E90253D43C4063
S325080004A034498C60C968AC0249D43940314CE16031000133D9400232002983D107B0F0BC00
S325080004C0BB46B246A946A046F0BD032191408846C9430191414687688F436146C968914041
S325080004E00F43594687604768A7432C090C409C4041463C434460C7688F4361468C6849464B
S3250800050094403C43C460022900D078E7DC08A400011902910727096A1F4088460F21BF000A
S32508000520B940894641464C46A143884661460969B9400F0041460F4302990F625FE7544634
S325080005400C432100B2E751460C43A9E751460C43A0E75446214397E7002189E700F0FFB7EE
S3250800056000100240000001400004004800080048000C00480004014070B5BC24AE22104D73
S32508000580A4002B5992009A58002A0AD101210D4A1172A7229200985C0B495854042199543F
S325080005A070BD0126906E016831430160506F0028ECD000230370FFF779FE2B59E6E7C046A0
S325080005C004010020C00000209D020000037830B5002B21D0012503002D1A5A195C78013302
S325080005E0D2B2002CF9D101325200D3B20C4C0A8023700323637001780025013B00290AD01E
S325080006005A1CD2B2A218E1540130157001780233DBB20029F4D130BD02230222E6E7C046FB
S32508000620400F002010B50248FFF7D0FF014810BD78400008400F002010B50248FFF7C6FF5A
S32508000640014810BD90400008400F002010B50248FFF7BCFF014810BDB0400008400F0020F2
S32508000660244BF0B50B271C68002389B06A4601A86F4403720F263B008C46D11C3200224002
S3250800068015003735092A01D8303215001D70013B24098B42F2D1184B13261C6800236E44CD
S325080006A003740F2133000A00224015003735092A01D8303215001D70013B2409BB42F2D12C
S325080006C00E4B0F271C68002303761B336B443A00224015003735092A01D8303215001D7033
S325080006E0013B2409B342F2D16146FFF76FFF044809B0F0BDACF7FF1FB0F7FF1FB4F7FF1FBF
S32508000700400F002010B50248FFF760FF014810BDBC400008400F00200722436810B50A408C
S325080007209A422BD84BB2002B29DB8B005918C9000B000024411869336A31FF33FF31C318DF
S325080007400C701A700121AA2299709200845C012C14D08154197802685B7889005218002B4A
S3250800076015D013880F490B40102159400E4B0B439BB21380AA2300229B00C25410BD541C1A
S32508000780A3001B190124DB00C3185C70D9E713880649194080235B014B4005490B43138011
S325080007A0E8E7C046BF8FFFFF8080FFFF8FBFFFFF8080000080235B0030B50385030001252C
S325080007C0AA2428339D70A400035D012B1ED00168124A0B88134010225340114A13439BB249
S325080007E00B80B42300215B00C15203006933FF339D7001680B4D0B881D4080235B016B40C1
S325080008001A43002392B20A80035530BDB42200215200815280188370F7E7C046BF8FFFFF60
S325080008208080FFFF8FBFFFFFFA21084B10B51868890003F089FBFFF795FD002804D1044ADA
S32508000840136A1B021B0A136210BDC0460000002000ED00E0F0B5DE4657464E464546E0B57C
S325080008604B7885B0012B5FD00A7B002A2CD0CA78022A00D14FE1012A4FD18A690C69002525
S32508000880A24201D9151B22008D61002B1AD15026C74B875B0D78C418ED00E4196419002ADA
S325080008A000D1B5E13E2A00D963E2012753083A409A18920292B22280BE4B845BC3181B191D
S325080008C05B191A800B781DE08A690B6900249A4201D9D41A1A0050238C61C55AB54B0C7830
S325080008E0C318E4005B19E318002A00D190E03E2A00D944E1012554082A40A418A402A4B247
S325080009001C800B789B00C0180388AB4A1A40C0239B015340A94A1343038005B0F0BCBB461D
S32508000920B246A946A046F0BD0F698B69BB4245D80A7B002A46D0CA78022A74D00A7895001B
S32508000940AC46844464462488640600D424E15024065B984CD2000419A419A2189CB2148035
S325080009604E891C048023240CDB000134C3184A6964089E19002C0CD0130064001419B51A63
S325080009805A781F7812025E193A4302333280A342F6D163468A4A1B8813408A4A1343624600
S325080009A013800B78884A9B00C0180388134030225A40864B13439BB20380AEE70A7B3B00B8
S325080009C0002AB8D180259CB2A4461C04240CCB88ED00013446194A6964089E19002C0CD077
S325080009E0130064001419B51A5A781F7812025E193A43023332809C42F6D150236C4AC45A32
S32508000A000B7882181219DB009B1862461A80C8E71A886F4C224080241A801A8824022243D7
S32508000A201A800B786EE70E6AB74200D36BE10A78634D9046920082181488F61A2C40654DA8
S32508000A402C43148012880E62520600D4F7E05022845A4246D500AC46564A029582181219DD
S32508000A6062449CB2148001941C044A69240C01349046620894468022D200914681444A4659
S32508000A80039262464D894D44002A15D054004444A34644462A1B99468A465B4611008346D7
S32508000AA06278207812026518024302342A80A342F6D14B46584651464246D2184A61F31A64
S32508000AC0B74207D3B3B23604360C0136019373089C4600230B625023C45A354BC3181B197C
S32508000AE0029CA046019C43441C80039B0E89984663464644002B00D153E763465F00D71930
S32508000B00B61A537815781B0294192B4302322380BA42F6D145E7002B1AD15025244B445B08
S32508000B200A78C3181B190C69D2009B18002C59D03E2C00D913E1012766083C403419A4028B
S32508000B40A4B21C801B4B455BC3185B199B181C80CB69002B00D1B5E60B781F4D9A00821803
S32508000B6014882C40AC4202D0002C00D0CAE61388134C2340194C234313800B78C2E61F25C9
S32508000B8054092A4055426A41A41A154AA402224392B21A800B78B5E65024065B044CD20023
S32508000BA00419A419A2189CB214800E89D9E6C04602040000060400008FBFFFFF80800000F9
S32508000BC08F8FFFFF80C00000BF8FFFFF8080FFFFFF83FFFF8081000040400000C080000020
S32508000BE00080FFFF1C88684F3C401C801E88674C2643B6B21E80664B455BC3185B199B18DB
S32508000C001A883A401A801A881443A4B21C809FE723885D4F5D4A3B402380238813439BB235
S32508000C2023805B4B845BC3181B195B191C883C401C801C88224392B21A800B7862E650221B
S32508000C40845A4246D500AC46524A02958218121962449CB2148001941C044A69240C01340C
S32508000C609046620894468022D200914681444A46039262460D894D44002A15D0540044445D
S32508000C80A34644462A1B99468A465B46110083466278207812026518024302342A80A34257
S32508000CA0F6D14B46584651464246D2184A61F31AB74207D3B3B23604360C01360193730875
S32508000CC09C4600230B625023C45A314BC3181B19029CA046019C43441C80039B4E899846E1
S32508000CE063464644002B00D15BE663465F00D719B61A537815781B0294192B430232238047
S32508000D00BA42F6D14DE60C78234DA300C3181A88E4002A40214D2A431A8050238025C25AC4
S32508000D201C4BED00C3189B181B19B2B21A8034040A89240C013447194B696408BF18002CDE
S32508000D4000D12EE664001C19FF1A5A781E781202DD19324302332A80A342F6D121E61F2630
S32508000D6067093440664274413C1BA602074C3443E6E61F2357091A4053425A41BA1A9302FA
S32508000D80024A1A4396E5C046FF83FFFF0080FFFF06040000020400008F8EFFFF80800000F2
S32508000DA089004018002B0CD10388002A56D05B0600D562E00388344A1340344A1343038036
S32508000DC070470388002A24D15B0405D50388304A1340304A1343038003885B0605D503886F
S32508000DE02B4A13402C4A134303800388284A26491340294A134303800388284A1340284A01
S32508000E0013439BB2038003880B401A4392B20280D6E75B0405D503881D4A13401D4A1343AD
S32508000E20038003885B0605D50388194A13401A4A134303800388164A18491340154A134389
S32508000E4003800388104A1340154A13439BB2038003880B401A4392B20280B1E75B0405D57A
S32508000E6003880B4A13400B4A1343038003880B4A1340064A13430380A2E70388044A1340F2
S32508000E80054A1343038095E7BF8FFFFF808000008F8FFFFF80C00000C08000008FBFFFFF6C
S32508000EA08080FFFFB02302229B0070B5C458AA265023FF32E252B600A35D0500012B0BD0E9
S32508000EC00123013AA3555B33E35C01212068FF3AFFF766FF0023A355B0239B00EC580222B1
S32508000EE0AA25093BFF3BE252AD00635D012B0BD001236355C433FF33E35C002202212068DE
S32508000F00FFF74EFF00236355002070BDF0B50E787F4CB300C3181A88CD782240012D00D18C
S32508000F20D1E0032D00D1CAE0002D00D1C3E0794C794F224392B21A801A883A4032431443EE
S32508000F40A4B21C800A7B002A25D14A78002A00D181E080245022E400A446825A60448018D2
S32508000F60CA88F60052085200861932801A88520604D51A881740694A17431F801A88684953
S32508000F800A40012D00D162E020215140614A0A4392B21A803BE01A88624C3A4022431A802C
S32508000FA05022845A94468022D200821812190C89F60064089219640014805B4C6246A446ED
S32508000FC0825A6044801980184A895208520002804A78002A1CD11A88520404D51A881740AE
S32508000FE0524A17431F801A88520600D579E01A884F494B481140C02292014A4045490A432E
S3250800100092B21A801A880240114389B21980F0BD1A88520404D51A881740444A17431F80DA
S325080010201A88520605D51A883B490A403B490A431A801A883A490A40012D59D0202151405B
S32508001040344A0A4392B21A801A8839490A4039490A431A80DBE75025334A445B82181219EA
S32508001060CC88F6006408921964001480324C425BA4466044801980180A69002A27D03E2A33
S325080010803AD80124510822408918890289B201801A88520405D51A881F490A4023490A4389
S325080010A01A801A8822491140C02292014A4021490A431A80ABE78024A400224337E7C02499
S325080010C0E400224333E78024E40022432FE702881A490A4080210280028809020A430280DE
S325080010E0D6E71A880C490A400C490A431A807EE710490A431A80A7E71F24510922405442E0
S325080011006241891A0E4A89020A4392B20280BFE78F89FFFF8080FFFF8F8FFFFFC08000006F
S32508001120BF8FFFFF808100000404000080C000008FBFFFFF8080000006040000FF83FFFF36
S325080011400080FFFF122310B5044C0B8012222000034902F053FE200010BDC046400F0020E9
S32508001160D0410008042310B5044C0B80044904222000143102F042FE200010BD400F00201B
S32508001180D0410008AE23F0B5D6464F4646469B00C558C0B52C004434637882B0022B0ED08C
S325080011A0072B00D1CAE0012B00D1A0E0FF230020637002B0E0BCBA46B146A846F0BD628818
S325080011C0002AF3D12A68002A00D1DEE0012AEDD179206F681026390911402954F9091140D6
S325080011E00730295445218C4629003807C01768310640B2468E79E244B04601267642B446E3
S32508001200E0444646087A36040138000630438E88C979B046E0448C46012149424646884657
S32508001220C44461463A40D2B23043090591460843AA6E3B4202D08023DB0518434B46002B4F
S3250800124002D080231B0618438021136809020B43136013680B42FCD1022153681942FCD00D
S32508001260544B9A4200D19AE0012113680B43136053681942FCD053461360D06113688B43D4
S32508001280012113600800536818401942FAD180239B00D658484F0E43D650D6583E40D6501E
S325080012A08726B6009759B0468F4397518327BF00BC466646D7590F439751083E97598F4394
S325080012C097519027BF00D0510437D051303FD05946468843D0514046105808439051D058D3
S325080012E08843D050686F0170FEF7E0FF5EE76388002B00D05AE780212A8AC900531E9BB291
S325080013008B4200D352E769682B688C466344DBB2591E0F2900D949E7297A481E072800D9B3
S3250800132044E7287B461E032E00D93FE792056835920DAA80AB71E971287237E704222900C3
S3250800134001A802F05BFD019B002B10D004236D6F00212B70194B280018336B6001235B42C3
S325080013602B61FEF745FF2800FEF7A0FF1EE76288686F53009B189B00ED18AB6E1A680123B3
S3250800138093430370FEF792FF10E70120A96E0B680343686F0B600270FEF788FF06E78021CA
S325080013A0074B89041F69394319611969054F3940196159E700640040FFC0FFFFD04100083F
S325080013C000100240FFFFFFFD322310B50449054C038032222000203102F010FD200010BDC7
S325080013E0D0410008400F00200B0010B51100E02B0AD0EE2B0DD000231380B0239B00C0585F
S32508001400FFF7D8F9002010BD0748FFF7DFF80748F9E71223054C064913802000122254317E
S3250800142002F0ECFC2000EEE7D0400008400F0020D0410008F8B5AE239B00C3580400002BCC
S3250800144053D0B0239B00E5580222502329000027AA26FF32EA52303B2B6650311E3BCB707B
S32508001460013BCB810F71B600AB5D012B05D00123AB552868FFF74AFDAF55B0239B00E558F7
S3250800148002222900093BFF3BEA52B931993BFF31FF3B0B6100270223AA26CB700F71B60016
S325080014A0AB5D012B05D00123AB552868FFF72EFDAF55AE22B023E6219200A2589B00526EAB
S325080014C0E358083249005A50E822B5395200FF3999500021043299501C3A023199521868F7
S325080014E09918FFF7B7F90020F8BD00BEA9E7C046F8B560230D780E002B401C00203CC022D6
S32508001500210007001140144203D0002B13D00020F8BD6B069B0F012B03D11E331D40012D41
S3250800152026D0AE239B00FC587378072B3ED84E4A9B00D3589F4672780A2AE8D1A5220221B0
S325080015409200815001392C328258C1610162474811640930D0634C20115491645364802393
S3250800156011005B00106813852831FFF773F9CEE7B388012BD5D1AE20727880003858002A72
S325080015806ED0032A12D13A4A02248280A52292000160BC502C32BA580434FC613C62D063A7
S325080015A04C201464135494645164D8E7B0239B00F858FFF7FFF8AAE720003100082244303B
S325080015C002F01CFCA52303219B00F288F950393BFF3BFA500433FA506133FF33FB587A316C
S325080015E0FF315C5004315A50002204315A501C395A52190069311868FF31FFF72BF986E736
S3250800160028221C497431200002F0F8FBA52302219B00F288F9504C2101202C33FB58FA617F
S325080016203A621A64DC6358549A64002219005A640132FF3218681A852831FFF70BF966E77D
S325080016400C490C226831DEE72100042220007C3102F0D4FBA52302229B00FA500232DAE700
S325080016607822835453E7C04620410008C000002000FFFFFFD0410008AE239B00C25808338B
S3250800168070B5C458072319408B005B18DB00E3188533FF331B68132B44D9EFF31083012145
S325080016A0994372B6BFF36F8F1500536E946D543593655C601D6023601400D36C4C34A3429C
S325080016C028D05366002B27D05A681B685A60136000291BD1AE22B023E621920082589B00F1
S325080016E0526EC358083249005A50E822B5395200FF3999500021043299501C3A02319952B5
S3250800170018689918FFF7A6F8002070BD62B6BFF36F8FDFE7002353660029F5D062B6BFF387
S325080017206F8FF1E7536EE62208335200A350E823B53A5B00FF3AE25000220433E2501C3BDA
S325080017400232E2522068E118FFF784F8DCE7C04670B58B8805000C00042B07D00020052BB8
S3250800176003D14B880020002B28D070BD19491A4E402230001C3102F041FBE3881A1C402B61
S325080017801AD8A523022101209B00E9502C33EB5892B24A31EA612A621A64DE6358549A64C8
S325080017A0002219005A640132FF3218681A852831FFF750F80120D8E74022E2E7064E9222F5
S325080017C03000064902F01AFBE3881A1C922BD8D99222D6E750420008400F0020D8420008CA
S325080017E0BC22374B920070B5011E9C5807D1A52080002258032A10D0052A31D070BDAD23E0
S325080018009B00E3589B69002BF8D0A7229200A25C032AF3D120009847F0E720005530FF30F9
S32508001820C26801698A4223D9BE25521A6D005D59C26091423ED88AB2B023BE219B00E358FD
S3250800184049005D5004315A50002204315A501C395A52190069311868FF31FEF7FBFFCDE79D
S32508001860B0239B0021500021E058FEF755FFC5E7AD239B00E3581B69002B04D0A7229200A9
S32508001880A25C032A18D0A52304229B00E2504C21002201202C33E358DA631A6458541900A2
S325080018A09A645A640132FF3218681A852831FEF7D1FFA3E792B2BFE720009847E3E7C0467A
S325080018C004010020F8B5A5239B00C3580400022B11D00422934307D0A8239B00E25C012AF6
S325080018E001D10022E254F8BDB0239B008021C058FEF712FFF0E7036A456AAB4234D8C769B2
S325080019002900380002F0A6FB0E1E06D1BD4204D8A625AD0063599F424FD3AD239B00E3580A
S32508001920DB68002B04D0A7229200A25C032A41D0B025AD0060598021FEF7EEFEA523052214
S325080019409B00BE21E2500022635949005A5004315A5004315A501C395A521900693118680A
S32508001960FF31FEF777FFB7E7B026B60082595B1B0362D16301204C211B041B0C13645054BB
S3250800198093648023002511005B001068556413852831FEF75FFFBE22A35952009D50043248
S325080019A09D5004329D501C3A9D5218689918FEF751FF91E720009847BAE7B027BF00E35964
S325080019C04C22D9631964012199541900B43218689E645E641A852831FEF73CFFBE22E3593C
S325080019E0520066519E5004329E5004329E501C3A9E5218689918FEF72DFF6DE7BC220C4B79
S32508001A009200010010B59858002903D1D96BFFF759FF10BDAD239B00C3585B69002BF8D0D7
S32508001A20A7229200825C032AF3D19847F1E7C04604010020F0B5DE4657464E4645464421A2
S32508001A40E0B5AD4C85B023685A5A12B2002A00DA79E04422995A490500D5FBE14422995AA4
S32508001A60490403D5995AA548014099524422995A890403D5995AA2480140995244229A5A06
S32508001A80D20426D540220420995A81439952995A043081439952B8229200A15C012901D104
S32508001AA000F056FCBC22A7219200A2588900505C042802D19348105C5054AE218900515884
S32508001AC000220A64904991480A7244215A5A02405A524422995A090500D528E244228021E6
S32508001AE0985A01421BD0985A88439852B8229200A15C002900D051E304254031585A2843C4
S32508001B005852585A0435284358523F39A1545422995A183A89080A40B9218900625044228F
S32508001B20995A890500D57FE14422995AC90503D5995A77480140995205B0F0BCBB46B246AA
S32508001B40A946A046F0BD5A5A12B2002A00DB80E7442293460F215A460D009A5A90B215406A
S32508001B60114200D07EE0C20600D42EE119888AB2090500D5F2E112B2002A06DB23685A469E
S32508001B809A5A12B2002AE5DB63E71A8861490A4080210A431A8050225F49985A8C46C2216C
S32508001BA01932FF32A25C4900D2001218D21862441788BA05920D625034D008396658002EE8
S32508001BC030D052089446B7225200A05A8022D200904640448046624698444346002A11D0F2
S32508001BE0604631009B1BCA181288013892B20A70120A4A7002310028F5D163465A00434654
S32508001C00B6189B18FA0701D51B883370BE22C2235200A1585B008C46E35800206344A350E6
S32508001C20FFF7DEFD502223683B499A5A59188A18BC2149006158002900D1FBE23E2900D947
S32508001C408DE30125480829404018800280B210801A8832491140C02292014A4030490A4358
S32508001C601A808CE7AE0099190A8890B212B20090002A5BDB009B1B0600D47FE7236829486F
S32508001C8099190A8802408020000202430A806A1C904690004044C0002218D278022A00D18E
S32508001CA080E250229F5A424675191F4E9100B4464144C900605CED00C2009A18D21962443F
S32508001CC012886519296C9205920D914200D83FE1891A296400D13DE1E96B18008918E963D0
S32508001CE0696C8C4662446A64424691004144C9006118FEF7AFFD41E704010020FFBFFFFF31
S32508001D00FFDFFFFF9D020000C0000020FFEFFFFFFFFEFFFF8F0F0000060400008FBFFFFF7F
S32508001D20808000000F8FFFFF020400000A88DF480240802002430A807219D200A218110061
S32508001D407531FF310978002900D0CBE15031595AD7488C4611006931FF310978C90061448A
S32508001D608446C9186144098888058846810D002800D0B4E20021C220400084467219D20093
S32508001D80A3189C4460466746006840183860BE20400084469C44604667460068401838607C
S32508001DA018008130FF300068002805D07933FF331B688B4200D8C4E27319DB00E31869330E
S32508001DC0FF331878FFF70CFD54E71A88B9490A40802109020A431A805022985A283AA25CB4
S32508001DE0D2009A18B44B12189C46E36B62449C46BC2311889B008905890D61646144E05897
S32508001E00E163FFF75FFD2422A35C002B00D1B5E6216C002900D0B1E68025A05C236828438E
S32508001E20343D5853A154AAE6995AA44801409952BC229200A058543A825C032A00D073E6BE
S32508001E40AD2292008258D269002A00D16CE69047236869E6995A9A48AA2601409952BC2350
S32508001E609B00E558B022012392002B74AF5800229046B422390000205200B8526931293ACE
S32508001E80FF31FF3A0A614246B600CA70BA5D012A05D0BB553868FFF739F84346BB55AC2392
S32508001EA00122B2215B00EA50193BFF3B49006B505D31FF316E5880203100B363AA27002398
S32508001EC0283140003085BF00CB70F386F35D012B05D0F2553068FFF719F80023F35540222F
S32508001EE06A62A72201239200AB61AB540023083AAB5010326B60AB50AE239B00EB58002B3C
S32508001F0006D0AD239B00EB58002128005B689847AA229200A35C012B00D11DE20021242383
S32508001F204C208025E15423681D52A15496E540210825585A28435852985A624D284098529B
S32508001F4004205A5A02435A52FEF716FB2368C5E500232B64FFF752FD236810E650225449E8
S32508001F60985A8C461932FF32A25CD2001218D21862441788C222BE05B60D5200A650163AE8
S32508001F80A05A8022D200944660447608C318002E00D1F6E235001800513AFF3AA1180288C3
S32508001FA0013D92B20A70120A4A7002300231002DF5D1454A76009B19B618FA0701D51B88E8
S32508001FC033702268394913880B4080210B431380BC23AA229B00E658483BF5180833E35C4E
S32508001FE09200B3549046394A2F00A05C384A6870A15C384A0902A25C52186A80364AA15C03
S32508002000013AA25C09025218AA80344AA15C344A0902A25C5218EA801F22914649461A4003
S32508002020194200D143E1012A00D1A0E2AC239B00E15C083BF154254BE35C7B709C46244BAA
S32508002040E25C244B1202E35C9B18AD229BB27B809846214B9200E35CA05C1B02C01883B267
S32508002060BB8000931D4BA520E25C1D4B1202E35C80009B1801229BB2FB803250A622920064
S32508002080B3501F220A40012A00D174E3022A00D11EE3002A00D104E37F239943B0239B0085
S325080020A0F058FEF739FB236869E5C0468F0F0000060400000F8FFFFF02040000FFFDFFFF7E
S325080020C0FFFBFFFFFFF7FFFFB4030020B1020000B3020000B2020000B5020000B7020000A3
S325080020E0B602000011006C31FF310978022900D141E1B42149008C46944461460878D54F8A
S325080021008000181801883940D34F3943018061460978880018180088400400D494E050207C
S32508002120185AC9000918CD48C91884466144088881058F0DB946002900D11BE611007D3165
S32508002140FF3109687132884679088C468021FF32C90059181388CB1861461A000193002904
S3250800216015D042469B1A82461800009F13181B8801399BB213701B0A537002320029F5D1CD
S3250800218063465046019A5B000097D2189844C30702D51388424613704946ECE5FEF7ECF91E
S325080021A02368BCE4009AD20500D47AE540221100009F39408A463A4200D05DE1215C50226E
S325080021C0CF008C46A6499A5A894671199944C9004A44D25B6118086C92050197920D904226
S325080021E000D3D2E153460B646046FFF707FC009B5B0400D55EE1424692004244D200A25C26
S32508002200236892009A18118892480140954801431180424692004244D200A25C924892009F
S325080022209A1811880140302048409049014389B21180A4E411888E48014080201180118841
S3250800224000020143118003E55020185AC90009188348C91884466144088881058F0DB94619
S32508002260002900D186E511007D31FF3109687332884679088C468021FF32C900591813881E
S32508002280CB1861461A000193002900D17FE742469B1A82461800009F13181B8801399BB287
S325080022A013701B0A537002320029F5D168E7202800D0BBE629003000FFF74AFA43464A46CE
S325080022C0F35C1A40012A00D150E1002800D055E4BC239B00E658483BF7183D00A6E61000C6
S325080022E07D30FF3000686F32FF3282464808814610888022D20094466344C31848461A00CB
S325080023000193002815D052469B1A8C461900009F53181B8801389BB213701B0A5370023204
S325080023200028F5D14B466146019A5B000097D2189A444346DB0700D41DE51388524613701D
S3250800234019E56932FF322068A118FEF783FA91E40021A154FFF7A6FB2368FFF77FFB1F2591
S32508002360480929404D426941401A42498002014389B211806CE4009880210700C9010F403C
S32508002380BC46084200D197E05021595A334F8C4611006931FF310878C1006144BC465918EF
S325080023A06144098888468905890D8C46C0214900894691444A4612686146624500D23EE2FD
S325080023C04F46521A3A6000D13CE2009A520607D58000181802881F4F3A401F4F3A43028008
S325080023E06246002A00D1C5E47219D200A21810007D30FF30006871328146604640088446F6
S325080024008020C0008246FF3212885344D31862460193002A16D04A469B1A8A466046190019
S32508002420009F53181B8801389BB213701B0A537002320028F5D1634651465800019B009703
S325080024401B1881444246D20700D494E44A461B88137090E48F8FFFFFC0800000020400003D
S325080024600604000080C00000BF8FFFFF8080FFFFFF83FFFF0080FFFF1032995A225C924631
S32508002480D2009146D74A494494469C4467467219D200C95BA218106C8905890D884200D9F2
S325080024A0BAE0002313645046FFF7A8FA009B5B0400D5A0E62368ACE65021595ACA4F88462F
S325080024C011006931FF310878C1004144B84659184144098888468905890D8A46C0214900DC
S325080024E0894691444A4612685146524500D294E14F46521A3A6000D192E1009A520607D4FF
S32508002500800018180288B94F3A40B94F3A4302805246002A01D1FFF72DFC7219D200A21820
S3250800252010007D30FF300068733281465046400884468020C0008246FF32128853449B18E8
S3250800254062460193002A00D17CE74A469B1A8A4660461900009F53181B8801389BB2137049
S325080025601B0A537002320028F5D164E76878202800D143E1BC239B00E658483BF5182F0064
S3250800258054E5AC229200A61817E5801A086400D12AE60099490408D4614688001818018849
S325080025A0924F3940934F394301804C218C467719FF00E719BC4461460978012900D028E6D6
S325080025C0786CF96B80187864B86C89188246B86B0091F963824500D297E25246121ABA64A0
S325080025E0424692004244D200A2185278002A00D063E2019950328C469A5A4A44624400285A
S3250800260000D09DE211887C480140802011801188000201431180FCE5401A106400D142E775
S32508002620009A520408D552469000181802886F4F3A40704F3A4302804C2292467719FF0012
S32508002640E719BA4452461278012A00D0E1E5FA6B52180192FA637A6C50187864B86C02007C
S325080026600090B86B824200D220E2111AB964424691004144C90061184978002900D0EFE14F
S325080026805031595A61444944002800D073E20A885948024080200A800A88000202430A8077
S325080026A0B7E5080060321040803A92468146CA44C0225146114200D1A5E0002800D1D0E054
S325080026C0B0239B00F058FEF775F82368FFF757FA602211400F006032203F174200D192E093
S325080026E00029EDD16A4611786246012A00D180E2032A00D162E2002AE2D1A7239B00F35CD3
S32508002700022B00D1FBE2032BDAD1009B1B0600D526E30F2314220B405343F3185933FF334B
S325080027201B68002BCCD07F201300084043435533FF33F318002801D000F02DFC00221A604E
S32508002740A52202219200B1502C32B258F16131620120D3634C231164D05491640023536473
S325080027600133FF331100138510682831FEF772F82368FFF704FA60230B40402B01D04B0632
S325080027809ED4A7239B00F35C013B022B98D86B461878012894D8AD239B00F35829009B6874
S325080027A030009847FB88002B01D0FFF7E7F9002801D0FFF7E3F9A523042201219B00F250EF
S325080027C02C33F3584832D8631864995498645864B432190018681A852831FEF73BF8236841
S325080027E0FFF7CDF902040000060400008F8FFFFFC080000080C00000FF83FFFF290030008A
S32508002800FEF7A6FF61E5AD239B00F35829009B68300098472368FFF7B2F94A4667461760F9
S32508002820820094469C446246DE4F12881740802292017A40DC4F3A4367463A805DE6002225
S325080028404F463A608200914699444A46D54F12881740802292017A40D34F3A434F463A8083
S32508002860B3E56246092A00D92AE7D04992008A5897464346CE4FDDB2BD72012D00D91FE712
S32508002880A7239B00F25C022A00D1FDE2032A00D1E0E2B0239B00F058FDF78CFFAD239B003B
S325080028A0F35829005B68300098472368FFF767F9012B00D004E7A7229200B25C022A00D98E
S325080028C03CE2002A00D1FBE6A522002102209200B160B0502C32B258F36133624A3008363A
S325080028E01364D66313549364802351645B0039E7002302AAD38043461B0A072B00D90AE321
S32508002900AC4A9B00D3589F464346012B01D0FFF735F9A92342469B00F2500422103BF2507A
S3250800292000224C2140462C33F358DA631A6458549A645A640132FF324BE7A7239B00F35C5D
S32508002940013B022B00D9BBE64346012B01D0FFF715F9A923002204219B00F250103BF15080
S325080029602C33F3584046DA631A644831DFE7A7229200B25C013A022A00D9A1E6022B00D0F2
S325080029809EE60022F260A9229200B258002A00D0F360A52302224C2101209B00F2502C33C7
S325080029A0F358F26132620C361A64DE6358549A6400225A640132FF320BE7009A134300D036
S325080029C07EE643467F2B00D97AE6A7239B00F35C032B00D174E64346AA21DAB2764B8900E2
S325080029E0F2542233F358595C01290CD024215A544246002A03D118684C325C318152AA2285
S32508002A00002192009954A52204219200B150012500224831DA631A645D5419009A645A6487
S32508002A200132FF3218681A852831FDF713FF4346002B00D1B9E2A72302229B00F25423682C
S32508002A40FFF79DF80021524611704246B96491004144C90061184978002900D186E00098ED
S32508002A60012905D14F31595A87B2614449440F8080227519E900611800040D8E000CD2000C
S32508002A800130991840086D18002801D1FFF7C1FB4700019AEF195178167809023143298064
S32508002AA002350232AF42F6D1FFF7B3FB009A002AC8D1504602700800D9E5012A07D1019979
S32508002AC04F328C469A5A87B24A44624417807519EA00A218558E80220004000CD2000130D3
S32508002AE09A184008AD18002801D1FFF792FB47000099EF194A780E78120232432A800235F2
S32508002B000231AF42F6D1FFF784FB5146002904D1504661460870100062E500226146BA64BF
S32508002B200A70424692004244D200A21852785046002AC2D1502201999A5A8C464A446244BE
S32508002B403E2800D9BDE0012101408C4647086744BF02BFB217807219D200A218558E8022F7
S32508002B60D20001309A184008AD18C0E75021595A0098614449443E2800D9B1E001220240BB
S32508002B809446802247086744BF02BFB20F807119C9006118098ED20001309D1840086D1808
S32508002BA076E7C0468FBFFFFF8080000040410008C0000020684100089E020000A722920043
S32508002BC0B25C022A6DD0032A00D079E57F22114203D042461A4300D12BE2A52304229B0002
S32508002BE0F25000222C33F3584C210120DA631A649DE6A7239B00F35C022B52D0032B00D0EC
S32508002C005EE54346002B01D0FEF7B8FF7F331942E3D0B0239B00F2580F2355680B40AB4293
S32508002C20DBD8009B1B0600D5D7E1072028230840434318000025D31869306A33FF30FF338B
S32508002C4010181D700023837007331940AA2301709B00D55C012DC0D00125D554037B002B48
S32508002C601AD11368890045785B181988002D00D1A1E1490605D51988DD4D2940DD4D294313
S32508002C801980C178012907D01988DB48084020214140DA4801431980AA2300219B00D154D8
S32508002CA09BE77F23194200D10AE5B025AD007059FDF732FD80217059FDF72EFD2368FEF750
S32508002CC05EFF41098A461F2101400F00794279415746791ACA4F89020F43BFB21780F6E660
S32508002CE0420992461F22024017007A427A415746BA1AC34F92021743BFB20F80B8E67F23E1
S32508002D00194200D0DCE43100009B5531FF311B0601D54139FF39A523022200209B00086080
S32508002D20F2502C33F358F26132620125D9634C211A645D549A645864FE324AE5032A00D09E
S32508002D40BEE4A52202219200B1502C32B258F36133624A310436D663136453549364FDE411
S32508002D600F2214230A405A43B2189269002A00D1A6E47F2211404A1C5343C8B2F318002910
S32508002D8000D1DBE42821B022013041439200B25852189278002A00D1FAE001221A60CFE490
S32508002DA04346D9B2052900D957E1964B89005B589F46337C002B00D0ADE0AD239B00F358C3
S32508002DC002AA1B6B901D98470723437002ABD988002939D0FA88002A17D1A52304229B00ED
S32508002DE0F2504C21002201202C33F358DA631A64585419009A645A640132FF3218681A856A
S32508002E002831FDF727FDFEF7B9FE0B1C914200D9131C02A99AB2CB80A52302219B00F1507C
S32508002E202C33F358F2613262D86301204A311A6458549A64002219005A640132FF32186817
S32508002E401A852831FDF706FDFB88002B01D0FEF795FEC2E7002D65D07168012900D1D7E0D8
S32508002E60AD25AD007359C9B25B6830009847B97A73597160002B00D122E430001B68984748
S32508002E80002800D197E41BE4002D55D0012503227560F254AD239B00F358002B01D1FFF750
S32508002EA00FFC290030001B689847002801D0FFF707FCA52304229B00F2502C33F35848325D
S32508002EC0D86318649D5481E4AC239B00F35802AA307C1B68911D984778E7337C002B1AD196
S32508002EE0AD239B00F35802AA5B6B901D98476DE7337C002B2ED1AD239B00F3589B6A02AA7C
S32508002F00901D98470223437060E7AC239B00F3585B68002B29D1B0239B00F058FDF74AFC6B
S32508002F20FEF72CFE0222F254AD239B00F358290030005B6875609847A523042201219B00C9
S32508002F40F2502C33F3584832DD631D6499549D645D643DE4AD239B00F358DB6ACFE7AC23EC
S32508002F609B00F3581B69002BD5D002AA307C911D98472BE7AC239B00F358DB68002BF4D12A
S32508002F80C9E7AC239B00F3585B69002BEDD1C2E71A60FFF7D5FB2820B02241439200B258EE
S32508002FA052186B32FF321278F4E6A7239B00F5542368FEF7E4FD490405D519880C480140FB
S32508002FC0114801431980198810480840C021890141400A48014319805EE62823072518007E
S32508002FE00D40013568430125101845702AE6C0468F8FFFFFC0800000BF8FFFFF80800000D4
S325080030000080FFFF8841000880C000008FBFFFFFA52304229B00F2504C2000222C33F358C4
S32508003020DA631A6419549A645A640132FF32FFF7D0FBB0239B00F058FDF76EFBCDE5AC23E5
S325080030409B00F3589B68002B8FD164E7AC239B00F3589B69002B88D15DE7AD239B00F3586C
S325080030609B6B002B00D156E702AA300006329847ACE6C04630B5344A344BD26887B09A4249
S325080030802FD00121324B33481A68334C0A431A605A68324D02405A601A68314802401A604D
S325080030A01A68304802401A605A682F4802400F205A60DA6A8243DA621A6B2C4802401A63EB
S325080030C05A6B8A435A6300229A60AC4207D2A268216860680C3400F091FEAC42F7D3FDF7EA
S325080030E041F8234B234A1B681B051B0D93420AD003329342C5D1204B1B6883F308881F4B36
S325080031001B689847FEE78020114AC003516980250143516153691A4C03400093009B012390
S325080031200293039300232D01200001A904930195FDF732F9134BA5611B6883F30888124BA5
S325080031401B689847FEE7C046C0000020EFBEADDE001002400CB8FF087C4300088843000845
S32508003160FFFFF6FEFFFFFBFFFFFFC0FF2CFEFCFF005801404504000000C8FF1F04C8FF1FC3
S325080031800014004800C4FF1F04C4FF1F7047C04600BEFEE7F0B5DE4657464E4645461021E7
S325080031A0174AE0B5136899B00B431360FDF73CFB0123144A91691943916191690B401249F1
S325080031C00993099B0B6A1B021B0A0B620C2153680B400C2B22D053681940082918D0802153
S325080031E0084A4902536B094C0B435363206803E023681B1A022B14D8536B0B42F8D010E006
S32508003200002002400010024000ED00E0C00000205368C022520213409342E0D1EC4BED4C05
S325080032205B6B0123EC4A11680B4201D000F006FC116899431943116012681A4201D000F01E
S32508003240FDFB10AB9A46E54B0193E54B03938022DF4D80272B6BE34993432B638023EA69B2
S325080032601B051A43EA61EA69BF011A400892089A2A69802613432B612B69DB4AB6021340F0
S325080032802B61DA4ADA4B536013680B4060213B43136013680B43FA211360019B89001B6861
S325080032A01800029300F050FEFDF75CF80421D14AD14813680B4380211360D04AC902136A35
S325080032C01B021B0A13626B6933436B616B6933400793079B6A690A436A616B690B408021E5
S325080032E00693069B6A6909030A436A616B6990250B400593059B0123984687615346109759
S32508003300424600275A609F60DF605146FDF744F84346ED05AB61109310339B4653465A46AA
S325080033209F605A60DF6051462800FDF735F802235A46AB6199461093534651465A609F606B
S32508003340DF602800FDF728F8200000213422103000F0A6FD434623852933E7544B46238777
S325080033603833E75480235B029C46022301219846656265630A3760466A69130403400800E7
S3250800338090430343AB61226823689B1A322BFBD940466A69013F1304334090430343FFB212
S325080033A0AB61002FE7D12000012510302774FCF77DFF874A2F21D36980202B43D361D369A1
S325080033C080042B400A930A9B8023DB051F605F609F60DF609F61DF611F6299623039D9624F
S325080033E01968294319605D61D1690143D161D369424603400B930B9BC0239B0010935346E6
S325080034005A609F6052460323D3600133136151467B48FCF7C1FF7B4B7B489B465A46594696
S325080034207A4B584493667A4ACA6670228D541A6815431D605B4654338B654B655B465D465A
S325080034405C334C350B66CB655B46CD64290084330A001D605A601900136020338342F7D14E
S325080034606C4BEB186B606C4B9846AD2342469B00D258002A02D000224146CA50AC224146F3
S32508003480039B92006C338B50A72301229B00CA5400230B70BC214046604A89005050303991
S325080034A042505F49D3601160052193615160D36103395C4B91601161D35CD9B2002B00D125
S325080034C066E30321574B5648D1543D31435A564E33404352130000210126002028331970F6
S325080034E0D981013189B25E70D87018615861986128330529F3D1002000234C4908700130E8
S32508003500C0B24B70CB700B614B618B6128310528F4D1012040268446012041495027885398
S3250800352000208B5304368B536646CB532C3FD0553C4FD6551826363FFF3FD055063FD653D3
S325080035403B3FFF3FD0555C262437D78598279055063E9753364E2937FF37D651664604374D
S32508003560D655C13FFF3FBC46AD27019EBF006644B446B946604647464E46B8511020844633
S32508003580A444674658464767AE20800084465E4640466746C651AA2080008446105C01288D
S325080035A00DD044268B53234B5827043E8B538026CB5B36023343CB5300206346D0548022A4
S325080035C00D4B92019A6200230127019334E0C04600100240C0000020002002400000002049
S325080035E050420008FFC0FFFFFFFFFFF7006C00407FBB222010E000E00008004800ED00E05D
S3250800360000040048BC060020840800000064004006000D0218080000F803002004010020C9
S32508003620005C0040A90200007F4000006C0200205801D80080BFFFFFEFF310833A009A43EE
S3250800364072B6BFF36F8F5B4659465B6D54318B4200D100E1002B00D1FDE0596818684160BD
S325080036600860002A02D062B6BFF36F8F5A46926E9168480100D55DE2080100D5A3E2C900EE
S3250800368000D432E2A132FF32116839401160D968002900DA55E248051060490003D5022151
S325080036A01068014311600F215068884350601E7C5068314001435160596991609969D160CE
S325080036C011683943116000225A828022D205526ADA61EFF3108172B6BFF36F8F5A4658467F
S325080036E0126E5C30436018605A6013603B008B4302D062B6BFF36F8F3B23E754AE224346D3
S3250800370092009E58EFF3108339009943894672B6BFF36F8F736E002B00D109E14A46336CEC
S32508003720002A02D062B6BFF36F8F002B00D19FE05B469B6EDA68920700D123E1EFF310836D
S325080037403A009A4372B6BFF36F8F5B465946DB6C4C318B4200D185E0002B00D182E0596846
S32508003760186841600860002A02D062B6BFF36F8F5A46926ED168890700D1CAE1D8214900C7
S325080037805058400700D44FE250588021C00809060143D82040001058D960800703D58020EB
S325080037A0C0050143D96011000F26B131FF31486830401874886818758868000A5875886881
S325080037C0000C98758868000ED875C8681876C868000A5876C868000C98762020C968090EDF
S325080037E0D976D1680143D1608022D205526ADA61012252429A6000225A745A82EFF310815E
S3250800380072B6BFF36F8F58465A46126E0366CF485A60186013603B008B4302D062B6BFF33A
S325080038206F8F2B23E75420001030FCF73FFDAE2342469B00D2587823D35C002B00D1FBE69F
S32508003840C34BE360BFF34F8FC24BC34ADA60BFF34F8FC046FDE7002A00D14FE762B6BFF3B0
S325080038606F8F4BE7002ADED062B6BFF36F8FDAE7EFF310833A009A4372B6BFF36F8F5B46A4
S32508003880DE6D5C339E4200D1A0E1002E00D19DE1736831684B601960002A02D062B6BFF333
S325080038A06F8FAE2342469B00D3587922310018209A5C81460831002A01D114329146802228
S325080038C09B5C002B00D0B2E1EFF310833A009A43029272B6BFF36F8FAE2342469B00D3583E
S325080038E01A6C002A05D1227AD0B20390002A00D1D3E1029B002B00D16CE13B0062B6BFF3E9
S325080039006F8F002B00D065E1EFF3108272B6BFF36F8F5B4659461B6D0E65736035601E60ED
S325080039203B00934300D103E762B6BFF36F8FFFE63000F16C4C30814200D1EFE6716600298E
S3250800394000D1EBE64868096848600160B02140468900405841468A58E621526E4900083262
S325080039604250E822B5395200FF39815004328350B933D33AFF33FF3AC252C1180068FCF79F
S3250800398069FFCBE670219A699961EFF310833900994372B6BFF36F8F5B465846DB6C4C300E
S325080039A0834200D1C9E0002B00D1C6E058681E6870600660002902D062B6BFF36F8F802138
S325080039C0C905496A1000D96101214942996080218905D96008211974002159619961043140
S325080039E008400A4200D007E10621019E0E4206D00A4204D159493800D96040215975110C01
S32508003A009976110ED97602210A4200D11FE1019E0E4200D020E10420D9685E7D01432C303B
S32508003A203043D96058755006400F0138C0B2052800D9E6E04A4E800030588746E023494AE0
S32508003A40DB0051680B43F021536053688B435360536BDB0301D4FFF7F4FB032153684248B7
S32508003A600B4353602568093105E023685B1B834201D9FFF7E6FB53680B400C2BF5D13B498D
S32508003A803B48096851689C4601400CA8050051603849C8C9C8C50968296010A98A46554621
S32508003AA03549C8C9C8C563460968296056683340082B00D1DBE00C3B1800421E90412F4BBF
S32508003AC0404218402E4B9C466044264B2D4A5B6803921B065C321B0FD35C2B49D840019199
S32508003AE00860FCF7A1FEFFF7B2FBEFF3108172B6BFF36F8F5A46526D53601A60234A5A601D
S32508003B005A4653653B008B4300D1F7E5A6E6002877D1EFF3108172B6BFF36F8F5A46584604
S32508003B20126D03651D605A6013603B008B4300D179E699E68132FF32A6E5002900D172E66D
S32508003B4092E60420CE0030431060A6E518070020EFBEADDE00ED00E00400FA050400002014
S32508003B60A0410008001002408813000000200240FFF8FFFFF84000080C41000800A69DFD35
S32508003B80006CDC02504200080000002010070020AA2380269B00D15467493604C86930431B
S32508003BA0C861C720CB696549334080260C9380000C9B0B58F6051B021B0A33430B50802312
S32508003BC01B060B607DE49132FF325DE5002A00D1AEE5A9E6EFF3108272B6BFF36F8F5B46AA
S32508003BE0DB6D5E603360564B73605B46DE653B00934300D19CE597E60198084289D151490F
S32508003C00D960EFF3108072B6BFF36F8F5E465946096E33664A4E59601E600B603B000192B8
S32508003C20834300D1FFE51FE65158490DB1E54A46504600F0E3F820234A46484600219A1A3A
S32508003C40504400F02DF92023514699463CE63A4202D0019939423BD05106490F0139C9B2FF
S32508003C60052900D953E73848890041588F460F27D36A5246B10C39403B40455CD15CC02311
S32508003C8080225B021E405202964201D09E424ED02E4800F059F9684317E71F64B02342467F
S32508003CA09B00D3584A469A66742259669F544A4602211A675022FF31D86699521868991828
S32508003CC0FCF7C8FD0299039B002900D11CE615E60420D9685E7D014308303043D9605875B9
S32508003CE0A1E6D96808200143D960987589E7D96808200143D9601021997582E7D9682020BD
S32508003D000143D9607DE7D96808200143D9600221997576E7D96808200143D9600421997527
S32508003D206FE7D96808200143D960D87569E7084800F00AF96843C8E60010024000E100E0ED
S32508003D401807002040000020B841000800127A00006CDC0210B50100002300220020FFF7BE
S32508003D6015FA10BD084B10B50400002B02D0002100E000BF054B1868836A002B00D09847E9
S32508003D802000FFF705FAC046000000006C43000870B5074D074C641BA41005D0013CA3008F
S32508003DA0EB589847002CF9D100F060F970BDC0468C4300089043000870B50C4D0C4E761B46
S32508003DC0B61005D0002408CD01349847A642FAD100F046F9074D084E761BB61005D0002451
S32508003DE008CD01349847A642FAD170BD8843000888430008884300088C430008F0B5C646EB
S32508003E0000B50F2A41D903270D003E0005430C0003002E402F423DD11500103D2D09A8464D
S32508003E202D01AC46844427681D001F6067685F60A7689F60E7681034DF6010336545F2D143
S32508003E4045460F230C2401352D01491913404519144222D08C59AC5104369C1B032CF9D8D5
S32508003E60043B9B0801339B00ED18C91803231A40561E002A06D00023CC5C1A00EC540133D0
S32508003E809642F9D180BCB846F0BD0500561E002AF1D1F7E70500561EEDE71A00F6E7C046FE
S32508003EA0F0B50500830749D0541E002A45D003000326CAB202E00135013C3ED301332A701A
S32508003EC03342F8D1032C30D9FF220A40150215432A0415430F2C34D92700103F3F093E01B9
S32508003EE0B4461E001A0010366644156055609560D5601032B242F8D101373F01DB190F279D
S32508003F000C22274022403C00002A0ED03E1FB608B400A4461A001C1D644420C2A242FCD111
S32508003F2003240136B6009B193C40002C05D0C9B21C19197001339C42FBD1F0BD0300140053
S32508003F40C0E72700E2E7C046002243088B4274D303098B425FD3030A8B4244D3030B8B425E
S32508003F6028D3030C8B420DD3FF22090212BA030C8B4202D31212090265D0030B8B4219D3A8
S32508003F8000E0090AC30B8B4201D3CB03C01A5241830B8B4201D38B03C01A5241430B8B4231
S32508003FA001D34B03C01A5241030B8B4201D30B03C01A5241C30A8B4201D3CB02C01A524192
S32508003FC0830A8B4201D38B02C01A5241430A8B4201D34B02C01A5241030A8B4201D30B0248
S32508003FE0C01A5241CDD2C3098B4201D3CB01C01A524183098B4201D38B01C01A524143098F
S325080040008B4201D34B01C01A524103098B4201D30B01C01A5241C3088B4201D3CB00C01A01
S32508004020524183088B4201D38B00C01A524143088B4201D34B00C01A5241411A00D20146A3
S32508004040524110467047FFE701B5002000F006F802BDC0460029F7D076E770477047C04682
S32508004060F8B5C046F8BC08BC9E467047F8B5C046F8BC08BC9E46704766775F646666616376
S3250800408064655F323032332D30312D313700000063616E646C654C69676874205553422077
S325080040A0746F2043414E20616461707465720000627974657765726B0000000067735F7501
S325080040C0736220696E746572666163650000000063616E646C654C69676874206669726DFF
S325080040E077617265207570677261646520696E7465726661636500000203040506070809FE
S325080041000A0B0C0D0E0F1010000000000102030405060708090A0B0C0D0E0F10000000009E
S32508004120B8150008B8150008B8150008AC150008001600084016000848160008B815000872
S325080041406E2900083A290008C026000808290008C0260008BA290008F0280008C026000839
S32508004160B028000872280008162F0008C82E0008F02E0008A02D0008162F0008162F0008CF
S32508004180DA2E0008B22D00080A2F00083E300008742F00085E2F0008822F00084C300008E6
S325080041A0163D0008083D0008FE3C0008F03C0008E43C0008243D0008143D0008063D00089E
S325080041C0FC3C0008EE3C0008E23C0008223D00081201000200000040501D6F60000001023E
S325080041E00301000004030904010A020A0000000009023200020104804B0904000002FFFF66
S32508004200FF0007058102200000070502022000000904010000FE0101E009210BFF00000888
S325080042201A01000012034D0053004600540031003000300020000000000000000200000053
S3250800424001000000B3000000006CDC02010000001000000001000000080000000400000034
S32508004260010000000004000001000000400000000001040002000000000000000001574942
S325080042804E55534200000000000000000000000000000000010157494E55534200000000FE
S325080042A000000000000000000000000000000000000000000102030406070809451100086A
S325080042C0651100084D06000839060008610600082506000805070008920000000001050062
S325080042E0010088000000070000002A0044006500760069006300650049006E007400650016
S3250800430072006600610063006500470055004900440073000000500000007B006300310093
S325080043203500620034003300300038002D0030003400640033002D003100310065003600B7
S325080043402D0062003300650061002D00360030003500370031003800390065003600340057
S32508004360340033007D000000000000004400002000000000E4BDFF7F0100000090430008EC
S3250800438000000020A4000000350100080901000800127A0035140008A50E0008F114000856
S325080043A00000000085110008E101000879160008CD0100080000000000000000C913000816
S325080043C0C9130008C913000800000000E9130008440000200000000000000000000000009F
S325080043E00000000000000000000000000000000000000000000000000000000000000000AF
S3250800440000000000000000000000000000000000000000000000000000000000000000008E
S3190800442000000000000000000000000000000000000000007A
S9030000FC
