:020000040800F2
:1000000098EB0024AD02000831260008A92400085E
:100010002926000861040008293B000800000000B0
:10002000000000000000000000000000C1280008DF
:10003000690400080000000079260008F92800087B
:10004000C7020008C7020008C7020008C70200086C
:10005000C7020008C7020008C7020008C70200085C
:10006000C7020008C7020008C7020008C70200084C
:10007000C7020008C7020008C7020008C70200083C
:10008000C7020008C7020008C7020008C70200082C
:10009000C7020008C7020008C7020008C70200081C
:1000A000C7020008C7020008C7020008C70200080C
:1000B000C7020008C7020008C7020008C7020008FC
:1000C000C7020008C7020008C7020008C7020008EC
:1000D000C7020008C7020008C7020008C7020008DC
:1000E000C7020008C702000800000000C70200089D
:1000F000C7020008C7020008C7020008C7020008BC
:10010000C7020008C7020008C7020008C7020008AB
:10011000C7020008C7020008C7020008C70200089B
:10012000C7020008C7020008C7020008C70200088B
:10013000C7020008C7020008C7020008C70200087B
:1001400000000000000000000000000000000000AF
:10015000C7020008C7020008C7020008C70200085B
:10016000C7020008C7020008C7020008C70200084B
:10017000C7020008C7020008C7020008C70200083B
:10018000C7020008C7020008C7020008C70200082B
:10019000C7020008C7020008C7020008C70200081B
:1001A000C7020008C7020008C7020008C70200080B
:1001B000C7020008C7020008C7020008C7020008FB
:1001C000C7020008C7020008C7020008C7020008EB
:1001D000C702000869260008C7020008C702000815
:1001E000C7020008C7020008C7020008C7020008CB
:1001F000C7020008C7020008C7020008C7020008BB
:10020000C7020008C7020008C7020008C7020008AA
:10021000C7020008C7020008C7020008C70200089A
:10022000C7020008C7020008C7020008000000005B
:10023000C7020008C702000800000000C70200084B
:10024000C7020008C7020008C7020008C70200086A
:10025000C7020008C7020008C7020008C70200085A
:10026000C7020008C7020008C7020008C70200084A
:10027000C7020008C7020008C7020008000000000B
:10028000C7020008C7020008C702000800000000FB
:1002900000000000C7020008DFF80CD000F0AEF844
:1002A00000480047E964000898EB002406488047AE
:1002B00006480047FEE7FEE7FEE7FEE7FEE7FEE74B
:1002C000FEE7FEE7FEE7FEE7112A000899020008B4
:1002D0002DE9F05F0546002092469B46884606467B
:1002E000814640241BE0284641464746224600F00E
:1002F00075F853465A46C01A914110D31146184614
:10030000224600F05CF82D1A67EB01084F462246A2
:100310000120002100F053F817EB00094E41201E88
:10032000A4F10104DFDC484631462A464346BDE8D5
:10033000F09F10B5431A934209D28318881803E03E
:1003400010F8011D03F8011D521EF9D210BD40EA3C
:1003500001039B0703D009E008C9121F08C0042A43
:10036000FAD203E011F8013B00F8013B521EF9D22A
:1003700010BDD2B201E000F8012B491EFBD270473C
:100380000022F6E710B513460A4604461946FFF761
:10039000F0FF204610BD421C10F8011B0029FBD1C4
:1003A000801A704730B504460020034600E05B1C0D
:1003B000934203D2E05CCD5C401BF8D030BD202AD4
:1003C00004DB203A00FA02F1002070479140C2F1AC
:1003D000200320FA03F3194390407047202A04DBDE
:1003E000203A21FA02F00021704721FA02F3D040AE
:1003F000C2F120029140084319467047064C074D50
:1004000006E0E06840F0010394E8070098471034E4
:10041000AC42F6D3FFF744FFF8F8000818F90008DB
:1004200030B58C1810F8012B12F00F0301D110F821
:10043000013B120906D110F8012B03E010F8015B13
:1004400001F8015B5B1EF9D101E001F8013B521E8E
:10045000FBD1A142E6D3002030BD00000000000027
:10046000FEE70000000000007047000000000000F0
:10047000EFF3108072B600BFFEE70000000000003E
:10048000B0B5044600F0F0F840F272010546C2F241
:100490000041621C097818BF0C4400BF00F0E4F86A
:1004A000401BA042FAD3B0BD2DE9F04F83B00C68D9
:1004B000002C00F0C68000F1264242F2004702F113
:1004C000FF72C5F602074FEAB22201920A22B84231
:1004D00008BF0922002500274FF0010A009209E019
:1004E0000C68043734FA0AF20AF1010A05F1020530
:1004F00000F0A780AAF10109012202FA09FE14EA1C
:100500000E08EDD0D1F804B00BF00304A4F1010CF7
:10051000BCF1010F11D803228668AA40CB6826EAF5
:100520000202AB401A438260CBF30013426822EA16
:100530000E0203FA09F31A434260032C1ED0032370
:10054000C268AB40022C22EA03028B6803FA05F36F
:1005500042EA0302C26011D16FF0030207F01C06E9
:1005600002EA59020F23024403FA06F4D2F820C02B
:100570000B692CEA0404B34023431362032302688B
:10058000AB404E689A4306F00303AB4016F4403F7D
:1005900042EA03020260A3D044F2F44340F2084E60
:1005A000C5F60203C5F6000E1A6842F002021A6090
:1005B0001A6807F00C0302F002020292029A29F074
:1005C0000302019C009E092C38BF26460F2452F8D6
:1005D0000EC09C402CEA040406FA03F34FF0B04C22
:1005E000234342F80E30DCF800204B6842EA08064C
:1005F000DC0258BF22EA08069C02CCF8006040F2F8
:10060000040CC5F6000CDCF8002042EA080658BFCE
:1006100022EA08069C03CCF80060DCF8802042EA5D
:10062000080658BF22EA0806DB03CCF88060DCF835
:100630007C2042EA080658BF22EA0806CCF87C6013
:100640004EE703B0BDE8F08F002A08BF09048161BE
:10065000704700000000000041F20000C5F60040B5
:100660000068000C704700004AF69030C2F200406B
:10067000006870470000000040F272004AF69031B6
:10068000C2F20040C2F2004100780A6810440860DB
:10069000704700000000000080B5032000F0D0F893
:1006A00001F0CEF944F218414EF67263C5F602012C
:1006B000C0F600030A68096801F00F01C2F30322C3
:1006C000595C9A5C01F01F0102F01F02D04040F219
:1006D0000802C2F2004220FA01F1116040F2040166
:1006E000C2F2004108600F2000F00AF800281CBF89
:1006F000012080BD00F080F8002080BD00000000D7
:10070000B0B540F27201C2F20041097801B304466B
:1007100040F20400C2F200404FF47A72B2FBF1F1F1
:100720000068B0FBF1F001F053FD0F2C4FF0010514
:100730000CD858B94FF0FF3000222146002500F0B8
:100740006FF840F27400C2F2004004602846B0BD69
:100750000120B0BD00000000B0B502784EF69C5CF0
:10076000CEF2000C43784CF8043CF2B14368CCF86C
:100770000030037BC17A90F80AE0457B447A42EA74
:100780000372837B42EA0161C27B41EACE41007A77
:1007900041EA854141EA434141EA024141EA0421FB
:1007A00041EA4000CCF80400B0BD0020CCF80000C5
:1007B000CCF80400B0BD00004EF62450CEF200008C
:1007C000BFF35F8F016821F4803101600021016770
:1007D00070470000000000004EF6245140F0010078
:1007E000CEF200010867086840F480300860BFF36B
:1007F0004F8FBFF36F8F704781B044F2F440C5F65E
:100800000200016841F002010160006800F002008E
:100810000090009801B0704780B503F089F980BD61
:1008200070B514460D46064603F092F92946224655
:1008300001F002FF0146304603F092F970BD00005E
:1008400080B503F0A1F980BD01680122C0F8002540
:10085000002280F8F424886940F000608861486DC7
:1008600040F08052002042F003024A6570470000C9
:100870002DE9F04F8BB0002800F087800446056812
:1008800090F8BD0428B9002084F8BC04204600F08C
:1008900093F8032084F8BD04E86BC00501D4002060
:1008A000E060206803F0A8F820680A9004F1040EC4
:1008B00004F11C0AD4E90C509EE80E589AE8C007CF
:1008C000CDE9085003A88DE8005880E8C0070A98D1
:1008D00002F062FF002855D120680021002503F0B6
:1008E000E7F86168C1B1616801200023002200BF00
:1008F00003EBC30304EB8307D3B287F83C20013238
:10090000A7F85630D3B287F83D00994287F8405097
:100910007D64BD64FD64EBD8B1B1002000230022EA
:1009200003EBC30304EB830787F87C220132D3B2C5
:1009300087F87D02994287F88002C7F88402C7F8D9
:100940008802C7F88C02EBD804F1140E04F1240AD3
:100950002268A0680A90D4E903379EE840589AE8D4
:100960000007D4E90C50CDE9085002A8CDE9007683
:1009700080E8005805A880E8000710460A9A02F0AF
:100980008BFF30B1022084F8BD0401200BB0BDE81C
:10099000F08F002084F83800012084F8BD04606ADC
:1009A000012802D12046FFF74FFF206802F064FFC4
:1009B00000200BB0BDE8F08FB0B5B8B0044602A877
:1009C000C0210025CDE93655CDE934553395FFF7E3
:1009D000D7FC00212068C4F20801884201D038B059
:1009E000B0BD4FF4802002904FF44010249002A834
:1009F000039500F0A1F908B1FFF73AFD00F054F8B3
:100A000044F2D84433A9C5F60204A06840F00100BE
:100A1000A060A06800F00100019001984FF4C05060
:100A20003390022034900020CDE935000A20379021
:100A30000020C5F60200FFF737FD2068002140F0D6
:100A4000006020602068002200F0006001900198A2
:100A50006520FFF7E5FE6520FFF7DEFE38B0B0BD8C
:100A6000B0B544F60C05C5F60205296849072968A2
:100A700005D401F00701081A18BF0120B0BD21F00C
:100A8000070108432860FFF7EFFD044655F8080CFE
:100A9000800407D4FFF7E8FD001BB0F57A7FF5D995
:100AA0000120B0BD0020B0BD44F60C00C5F6020028
:100AB000016841F080710160704700000000000093
:100AC00080B500F06DFF44F220414EF67262C5F62B
:100AD0000201C0F600020968C1F30211515C01F085
:100AE0001F01C84080BD000080B544F2384EC5F6F5
:100AF000020E5EF8103C5EF8101CC1F3053C5EF877
:100B00000C1CBCF1000FDEF8042014D0C1F300115E
:100B1000C2F3CC02514300EE101A03F00301022984
:100B2000B8EE400A0CD071B95EF8381C89060DD4B5
:100B30009FED341A18E000218160C0E9001180BDEA
:100B40009FED2F1A10E09FED2D1A0DE05EF8381C76
:100B500049F20002C0F2D032C1F3C10122FA01F120
:100B600001EE101AB8EE411ADEF800109FED263A99
:100B70006FF35F2102EE101ADEF80010C1F3462178
:100B8000B8EE422A00EE032A00EE10CAB7EE003A91
:100B9000B8EE400A81EE000A32EE031A02EE101A95
:100BA000B8EE422A20EE010A32EE031A80EE011A54
:100BB000BCEEC11A80ED001ADEF80010C1F3064148
:100BC00001EE101AB8EE411A31EE031A80EE011A46
:100BD000BCEEC11A80ED011ADEF80010C1F3066107
:100BE00001EE101AB8EE411A31EE031A80EE010A36
:100BF000BCEEC00A10EE101A816080BD0024744A59
:100C000020BCBE4B0024744C0000003900000000E2
:100C100080B544F2404EC5F6020E5EF8183C5EF810
:100C2000181CC1F3055C5EF8141CBCF1000FDEF863
:100C3000042014D0C1F30021C2F3CC02514300EED2
:100C4000101A03F003010229B8EE400A0CD071B962
:100C50005EF8401C89060DD49FED341A18E000217F
:100C60008160C0E9001180BD9FED2F1A10E09FED5B
:100C70002D1A0DE05EF8401C49F20002C0F2D0329D
:100C8000C1F3C10122FA01F101EE101AB8EE411AC6
:100C9000DEF800109FED263A6FF35F2102EE101A86
:100CA000DEF80010C1F34621B8EE422A00EE032A16
:100CB00000EE10CAB7EE003AB8EE400A81EE000A24
:100CC00032EE031A02EE101AB8EE422A20EE010AA2
:100CD00032EE031A80EE011ABCEEC11A80ED001A42
:100CE000DEF80010C1F3064101EE101AB8EE411A09
:100CF00031EE031A80EE011ABCEEC11A80ED011A22
:100D0000DEF80010C1F3066101EE101AB8EE411AC8
:100D100031EE031A80EE010ABCEEC00A10EE101A82
:100D2000816080BD0024744A20BCBE4B0024744CFA
:100D300000000039000000002DE9F04381B00446B6
:100D4000C07844F22C490007C5F6020901D40025F9
:100D50002EE0A06E4FEA305003280DD80025DFE8C2
:100D600000F0020E1714D9F80000002540F40030FE
:100D7000C9F8000055B913E001253DB910E004F1B0
:100D80000800022101F07CFC05464DB1A84611E0A7
:100D900004F12800022101F003FD0546002DF5D1E4
:100DA000D9F82400A16E20F440100843C9F82400AB
:100DB0004FF000086078C00730D0A06D042807D835
:100DC000DFE800F00A131C030300FDB1A84625E08C
:100DD0000125002DFAD119E0D9F8000040F40030C7
:100DE000C9F80000002DF1D110E004F10800002145
:100DF00001F046FC0546002DE8D107E004F128008B
:100E0000002101F0CDFC0546002DDFD1D9F82400EA
:100E1000A16D20F007000843C9F82400607880071E
:100E200032D5E06D4FEAB010042807D8DFE800F0B3
:100E30000A131C030300FDB1A84625E00125002D7F
:100E4000FAD119E0D9F8000040F40030C9F80000E8
:100E5000002DF1D110E004F10800002101F010FC98
:100E60000546002DE8D107E004F12800002101F03B
:100E700097FC0546002DDFD1D9F82400E16D20F460
:100E8000E0700843C9F824006078400734D5D4F8EE
:100E9000A8004FEA7050042807D8DFE800F00A13D2
:100EA0001C030300FDB1A84626E00125002DFAD160
:100EB00019E0D9F8000040F40030C9F80000002D16
:100EC000F1D110E004F10800002101F0D9FB054642
:100ED000002DE8D107E004F12800002101F060FCBA
:100EE0000546002DDFD1D9F82C00D4F8A81020F445
:100EF00060000843C9F82C006078000734D5D4F8A6
:100F0000AC004FEA3060042807D8DFE800F00A138D
:100F10001C030300FDB1A84626E00125002DFAD1EF
:100F200019E0D9F8000040F40030C9F80000002DA5
:100F3000F1D110E004F10800002101F0A1FB054609
:100F4000002DE8D107E004F12800002101F028FC81
:100F50000546002DDFD1D9F82C00D4F8AC1020F0D4
:100F6000E0600843C9F82C00E078800728D5E06CE1
:100F70004FEA3010032806D8DFE800F00209120219
:100F8000B5B1A8461CE00125002DFAD110E0D9F832
:100F9000000040F40030C9F80000002DF1D107E056
:100FA00004F10800022101F06BFB0546002DE8D199
:100FB000D9F82000E16C20F030000843C9F8200087
:100FC0006078C00632D5206E4FEA3030042807D84A
:100FD000DFE800F00A131C030300FDB1A84625E07A
:100FE0000125002DFAD119E0D9F8000040F40030B5
:100FF000C9F80000002DF1D110E004F10800002133
:1010000001F03EFB0546002DE8D107E004F1280081
:10101000002101F0C5FB0546002DDFD1D9F82400E1
:10102000216E20F4E0400843C9F82400607880066F
:1010300026D5606E4FEA3040052807D8DFE800F07B
:10104000030A100303039DB1A84619E00125002DF2
:10105000FAD10DE004F10800012101F011FB04E0D8
:1010600004F12800012101F09BFB0546002DEBD186
:10107000D9F82400616E20F4E0200843C9F8240068
:101080006078400628D5D4F8B0004FEA30700528C3
:1010900007D8DFE800F0030A100303039DB1A84658
:1010A0001AE00125002DFAD10DE004F1080001211C
:1010B00001F0E6FA04E004F12800012101F070FBE0
:1010C0000546002DEBD1D9F82C00D4F8B01020F053
:1010D000E0400843C9F82C006078000620D5206F56
:1010E000D8B1B0F1005F12D0B0F1805F25D1D9F84E
:1010F000000040F40030C9F8000085B9D9F8240098
:10110000216F20F040500843C9F8240008E004F1A2
:101110000800012101F0B4FA0546002DEED0A846E2
:10112000E078C0072AD0A06C03280AD8DFE800F0D6
:10113000020D1602D5B1A84620E00125002DEED102
:10114000DCE70125002DF6D110E0D9F8000040F4CD
:101150000030C9F80000002DEDD107E004F10800CF
:10116000022101F08DFA0546002DE4D1D9F82000C6
:10117000A16C20F003000843C9F82000A0784006C5
:1011800042D5D9F8D40340F48070C9F8D403FFF7EE
:101190006BFA0646D9F8D403C00505D4FFF764FA04
:1011A000801B6528F6D303256DBBD9F84410D4F80D
:1011B000B400414011F4407F11D0D9F84410D9F85F
:1011C000442042F48032C9F84420D9F8442021F464
:1011D000407122F48032C9F84420C9F84410B0F5B7
:1011E000807F0FD1FFF740FA064641F2893700BFF2
:1011F000D9F84400800705D4FFF736FA801BB842BF
:10120000F6D3032585B1A8462078C00742D0E06F09
:101210004FEAF000052823D8DFE800F003262C036E
:1012200003037DB3A84635E04FF6CF73D4F8B4007E
:1012300059F81C2CC0F2FF0300F4407122F47C52D8
:1012400003EA1013B1F5407F08BF1A436FF31F3054
:1012500049F81C2CD9F844100843C9F84400D3E7D6
:101260000125002DDED10DE004F10800012101F07F
:1012700007FA04E004F12800012101F091FA054683
:10128000002DCFD1D9F82800E16F20F038000843B5
:10129000C9F828002078800724D5A06F052807D832
:1012A000DFE800F0030A100303039DB1A84619E02C
:1012B0000125002DFAD10DE004F10800012101F013
:1012C000DFF904E004F12800012101F069FA054684
:1012D000002DEBD1D9F82800A16F20F007000843BA
:1012E000C9F828002078400726D5D4F894000528AE
:1012F00007D8DFE800F0030A100303039DB1A846F6
:101300001AE00125002DFAD10DE004F108000121B9
:1013100001F0B6F904E004F12800012101F040FADF
:101320000546002DEBD1D9F82C00D4F8941020F00C
:1013300007000843C9F82C002078800628D5D4F887
:1013400090004FEA3070052807D8DFE800F0030A64
:10135000100303039DB1A8461AE00125002DFAD120
:101360000DE004F10800002101F08AF904E004F125
:101370002800022101F014FA0546002DEBD1D9F81E
:101380002800D4F8901020F0E0400843C9F8280065
:101390002078400628D5D4F89C004FEAB0200528D4
:1013A00007D8DFE800F0030A100303039DB1A84645
:1013B0001AE00125002DFAD10DE004F1080000210A
:1013C00001F05EF904E004F12800022101F0E8F9DF
:1013D0000546002DEBD1D9F82C00D4F89C1020F450
:1013E000E0500843C9F82C002078000628D5D4F82E
:1013F000A0004FEA7030052807D8DFE800F0030AA4
:10140000100303039DB1A8461AE00125002DFAD16F
:101410000DE004F10800002101F032F904E004F1CC
:101420002800022101F0BCF90546002DEBD1D9F8C6
:101430002C00D4F8A01020F460400843C9F82C0018
:101440002078000716D5D4F88400B0F5805F08D165
:1014500004F12800022101F0A3F9002818BF4FF081
:101460000108D9F82800D4F8841020F4405008432B
:10147000C9F828002078C00616D5D4F89800B0F531
:10148000807F08D104F12800022101F089F90028A9
:1014900018BF4FF00108D9F82C00D4F8981020F4A8
:1014A00040700843C9F82C00A078000722D5D4F872
:1014B000A400B0F5003F1AD0B0F5803F11D0C8BBF2
:1014C00004F10800002101F0DBF805468DB9D9F8D8
:1014D0002C00D4F8A41020F440300843C9F82C00A4
:1014E00008E004F12800022101F05AF90546002D18
:1014F000EDD0A846A078400729D5D4F88800B0F5EB
:10150000401F21D0B0F5001F18D0B0F5801F40F06B
:10151000BF80D9F8000040F40030C9F80000ADB930
:10152000D9F82800D4F8881020F440100843C9F8EE
:1015300028000CE00125002DDBD1C8E704F12800CC
:10154000012101F02DF90546002DE9D0A846A0782B
:10155000C00720D0206DB0F5803F10D0B8B9D9F8C1
:10156000000040F40030C9F800009DB9D9F820000F
:10157000216D20F480300843C9F820000BE004F10D
:101580000800022101F07CF805461DB9EEE70125AF
:10159000002DEBD0A846E078800608D504F128009D
:1015A000022101F0FDF8002818BF4FF00108D4E92E
:1015B00000108A037BD5D4F880206FF0010303EB81
:1015C0003223022B0AD34FEA32233BB1012B64D1E1
:1015D000D9F8003043F40033C9F80030002D5FD053
:1015E000CA0267D4CA006FD48A0279D44A0000F1D3
:1015F0008280B1F1FF3F40F38F80090200F19780B4
:10160000C00707D004F10800002101F039F80028D4
:1016100018BF05462079800707D504F1080001218D
:1016200001F02EF8002818BF05462079400707D59D
:1016300004F10800022101F023F8002818BF054634
:101640002079000707D504F12800002101F0A8F84F
:10165000002818BF05462079C00607D504F12800E8
:10166000012101F09DF8002818BF05462079800669
:1016700007D504F12800022101F092F8002818BFD4
:101680000125002D18BF0125284601B0BDE8F083D3
:101690000125002D7FF45AAF42E70125002D9FD18F
:1016A000D9F8283023F440731A43C9F82820454656
:1016B000CA0297D5D9F82420636F22F000421A435A
:1016C000C9F82420CA008FD559F81C2CD4F8B8309A
:1016D00022F480421A4349F81C2C8A027FF586AF17
:1016E000D9F82420E36E22F080721A43C9F824202E
:1016F0004A007FF57EAF59F81C2C22F4004249F8CD
:101700001C2CD4F8BC2059F81C3C1A4349F81C2C5A
:10171000B1F1FF3F3FF771AFD9F82020636D22F0A0
:1017200040521A43C9F8202009027FF569AFD9F861
:101730002810D4F88C2021F440011143C9F8281056
:10174000C0077FF45FAF65E72DE9F04381B0002863
:1017500000F0F48042F200080446C5F200288946F1
:10176000D8F8000000F00F0088420ED2D8F8000030
:1017700020F00F0040EA0900C8F80000D8F8000087
:1017800000F00F00484540F0D980206844F2184727
:101790004107C5F602070AD521693A6802F07002CE
:1017A000914204D93A6822F070021143396001076E
:1017B0000AD561697A6802F07002914204D97A68A8
:1017C00022F0700211437960C1060AD5A1697A68D6
:1017D00002F4E062914204D97A6822F4E062114393
:1017E000796081060AD5E169BA6802F07002914217
:1017F00004D9BA6822F070021143B96081070AD592
:10180000E1683A6802F00F02914204D93A6822F086
:101810000F0211433960C0077ED1206881070AD5C5
:10182000E1683A6802F00F02914204D23A6822F06D
:101830000F0211433960D8F8001001F00F0149453B
:101840000DD9D8F8001021F00F0141EA0901C8F8BC
:101850000010D8F8001001F00F0149456ED1410782
:101860000AD521693A6802F07002914204D23A68BE
:1018700022F070021143396001070AD561697A6864
:1018800002F07002914204D27A6822F07002114391
:101890007960C1060AD5A1697A6802F4E0629142D2
:1018A00004D27A6822F4E0621143796080060AD596
:1018B000E069B96801F07001884204D2B96821F08A
:1018C00070010843B86000F0BBF839684EF67262E8
:1018D000C0F600023B68C1F3032103F00F03515C23
:1018E000D25C01F01F01C84002F01F0140F2080263
:1018F00020FA01F1C2F20042116040F2040140F20C
:101900007402C2F20041C2F2004208601068FEF7A1
:10191000F7FE01B0BDE8F083386820F47061D4E9C7
:101920000102012841EA020139600BD003282BD0C3
:1019300002282ED157F8181C890307D4012001B0C2
:10194000BDE8F08357F8181CC905F7D557F8081CEF
:1019500021F00701084347F8080CFEF785FE06460C
:1019600041F2883557F8080C616800F03800B0EB98
:10197000C10F3FF452AFFEF777FE801BA842F1D9AA
:10198000032001B0BDE8F08357F8181C8901D5D5B4
:10199000DCE757F8181C4907D0D5D7E7000000004E
:1019A00080B500F04DF844F218414EF67263C5F66A
:1019B0000201C0F600030A68096801F00F01C2F3D2
:1019C0000322595C9A5C02F01F0220FA02F201F035
:1019D0001F0040F2080122FA00F0C2F20041086044
:1019E00040F20401C2F200410A6080BD0000000024
:1019F00080B5FFF7D5FF44F21C414EF67262C5F682
:101A00000201C0F600020968C1F30211515C01F045
:101A10001F01C84080BD000080B5FFF7C1FF44F240
:101A20001C414EF67262C5F60201C0F6000209685A
:101A3000C1F30221515C01F01F01C84080BD0000CC
:101A400044F20041C5F602010869C0F3C200032850
:101A50000FD002282AD070BB0868800649F2000027
:101A6000C0F2D03058BF70470968C1F3C101C84007
:101A700070478A6A886AC0F3051CC86ABCF1000F07
:101A80004B6B1DD0C3F3CC0300F00100584302F0B0
:101A90000302022A00EE100AB8EE400A12D0A2B9E0
:101AA0000868800614D49FED261A1EE047F6400011
:101AB000C0F27D10704740F60010C0F23D00704744
:101AC000002070479FED1D1A0FE09FED1B1A0CE0E0
:101AD000086849F20002C0F2D032C0F3C10022FA15
:101AE00000F001EE100AB8EE411A086B9FED153AAE
:101AF0006FF35F2002EE100A086BC0F34620B8EEC9
:101B0000422A013000EE032A00EE10CAB7EE003A76
:101B1000B8EE400A81EE000A32EE031A20EE010A06
:101B200001EE100AB8EE411A80EE010ABCEEC00ABE
:101B300010EE100A704700BF0024744A20BCBE4B50
:101B40000024744C000000392DE9F04381B0F8B155
:101B50008046007844F20049C007C5F602095AD011
:101B6000D9F8100000F03801D9F82800102905D064
:101B700018290FD100F0030002280BD1D9F800007A
:101B8000800344D5D8F80400002840D101272FE075
:101B9000012718E3D8F804402CB1B4F5A02F0DD0DC
:101BA000B4F5803F10D0D9F8000020F48030C9F897
:101BB0000000D9F8000020F4802009E0D9F80000E6
:101BC00040F48020C9F80000D9F8000040F48030CB
:101BD000C9F80000FEF748FD0546A4B1D9F8000099
:101BE000800314D4FEF740FD401B6428F6D9032778
:101BF0000020002800F0E7820DE000BFFEF734FD72
:101C0000401B6428F3D8D9F800008003F6D40120E3
:101C1000002800F0D88298F80000800740F1848006
:101C2000D9F8100010F03801D9F828001CD0182974
:101C300008BF5FEA807017D0D8F80C00D9F8001000
:101C4000002847D021F019010843C9F80000FEF729
:101C50000BFD0546D9F8000040072AD4FEF704FD25
:101C6000401B0228F6D91EE0D9F80000400704D531
:101C7000D8F80C00002800F09681D9F80000D8F8B8
:101C80000C1020F019000843C9F80000FEF7ECFC26
:101C9000054600BFD9F8000040070AD4FEF7E4FC6F
:101CA000401B0228F6D903270024002C00F08B8269
:101CB0003AE0FEF7D1FC41F20301884223D8D8F87C
:101CC0001000D9F80410402821F47C3124D141F4CB
:101CD000003023E021F00100C9F80000FEF7C4FC49
:101CE00005460126D9F8000010F0040086EA9004A9
:101CF00017D0FEF7B9FC401B0328F3D30327002CB1
:101D000000F0618210E0D9F80400D8F8101020F03B
:101D1000FE4040EA016001E041EA0030C9F80400F9
:101D20000124002C00F04F8298F80000C00674D502
:101D3000D9F8100000F03801D9F82800082905D09A
:101D400018291CD100F00300012818D1D9F800008F
:101D5000C00503D5D8F81C00802859D1FEF77CFCBB
:101D600041F20301884222D8D8F82000D9F80410A3
:101D7000202821F0F84142D141F0804041E0D8F8DC
:101D80001C000028D9F8000020D040F08000C9F8DD
:101D90000000FEF769FC0546D9F80000C005DDD457
:101DA000FEF762FC401B0228F6D9032731E0D9F880
:101DB0000C00D8F8201020F07C50012440EA01608B
:101DC000C9F80C00002C00F0FE8126E020F0800015
:101DD000C9F80000FEF748FC05460126D9F80000C6
:101DE00010F4807086EA10240ED0FEF73DFC401BF4
:101DF0000328F3D30327002C00F0E5810DE041EA2E
:101E00008060C9F804000124002C00F0DC8104E0AB
:101E100001270024002C00F0D68198F8000000076C
:101E20001CD498F80000800631D498F800004007D0
:101E300045D4D8F82440002C00F09180D9F8100047
:101E400000F03800182840F08C80012CD9F82810B8
:101E5000D9F8300040F0A9800127B4E1D8F8140087
:101E60000028D9F874003ED040F00100C9F8740091
:101E7000FEF7FAFB054600BFD9F874008007D0D4FE
:101E8000FEF7F2FB401B0228F6D903279BE1D8F8A6
:101E900018000028D9F800004DD040F48050C9F84F
:101EA0000000FEF7E1FB0546D9F800008004BCD431
:101EB000FEF7DAFB401B0228F6D9032783E1D9F8A5
:101EC000000440F48070C9F80004FEF7CDFB05461D
:101ED000D9F80004C0051AD4FEF7C6FB401B6428DD
:101EE000F6D903276FE120F00100C9F87400FEF76E
:101EF000BBFB0546032700BFD9F8740080077FF5B8
:101F000090AFFEF7B1FB401B0228F5D95BE1D8F892
:101F100008402CB1052C00F08280012C00F0858057
:101F2000D9F8700020F00100C9F87000D9F87000ED
:101F300020F004007DE020F48050C9F80000FEF796
:101F400093FB0546032700BFD9F8000080047FF506
:101F50006CAFFEF789FB401B0228F5D933E100275F
:101F600031E1D9F8000020F08070C9F80000FEF7D8
:101F70007BFB022C05464FF0030709D1D9F800007E
:101F8000800178D5FEF770FB401B0228F6D91AE1D4
:101F9000D9F80000800140F1E780FEF765FB401BA7
:101FA0000228F5D90FE101277EE601F00302D8F8F7
:101FB00028309A4240F0DA80C1F30511D8F82C207D
:101FC000914240F0D7800146D8F830206FF35F216E
:101FD000013A914240F0D080C0F34622D8F8341044
:101FE00001398A4240F0CA80C0F30642D8F838105E
:101FF00001398A4240F0C480C0F30660D8F83C1032
:102000000139884240F0BE80D9F83400D8F8481031
:10201000C0F3CC00814240F0B7800027D3E0D9F86C
:10202000700040F00400C9F87000D9F8700040F06A
:102030000100C9F87000FEF717FB002C054641F2BD
:1020400088344FF0030711D0D9F8700080073FF5AE
:10205000F0AEFEF709FB401BA042F5D9B3E000BF8C
:10206000FEF702FB401BA04200F2AD80D9F87000E1
:102070008007F5D4DDE608F12807D9F8280040F2FA
:10208000F33188438ECF0843591E40EA02104FF4C3
:102090007E426FF35F21C9F8280002EB47204FF41E
:1020A000FE0280B2D8F83C300844D8F8381002EB71
:1020B00001414FF0FE4201F4FE0102EB03620844CD
:1020C00002F0FE410844C9F83000D9F82C004FF660
:1020D000F87120F00100C9F82C00D9F83400D8F8C4
:1020E0004820884340EAC200C9F83400D9F82C00DF
:1020F000D8F8401020F00C000843C9F82C00D9F89B
:102100002C00D8F8441020F002000843C9F82C0035
:10211000D9F82C0040F48030C9F82C00D9F82C00F4
:1021200040F40030C9F82C00D9F82C0040F480208D
:10213000C9F82C00D9F82C0040F00100C9F82C0097
:10214000D9F8000040F08070C9F80000FEF78CFA62
:1021500004460327D9F80000800109D4FEF784FA69
:10216000001B0228F6D92EE000272CE001272AE0E8
:10217000002728E0012726E0012724E0012722E0AC
:10218000012720E001271EE0D9F82C0020F00100F3
:10219000C9F82C00FEF768FA0546FEF765FAA84272
:1021A000FBD0D9F834004FF6F871D8F848208843AE
:1021B000002740EAC200C9F83400D9F82C0040F0EA
:1021C0000100C9F82C00F8B201B0BDE8F0830000AE
:1021D00080B500F079FB80BD90F88410012901D111
:1021E000022070472421C0F8881002681368116823
:1021F00023F0005321F001011160002141661360BA
:102200002022C0F8882080F884100846704700001B
:10221000B0B5044690F88400012801D10220B0BD79
:10222000012084F884002420C4F888002068056810
:10223000026822F001020260826822F060621143AB
:102240008160204600F04CFC206805602020C4F826
:102250008800002084F88400B0BD00000000000069
:10226000B0B5044690F88400012801D10220B0BD29
:10227000012084F884002420C4F8880020680568C0
:10228000026822F001020260826822F0604211437B
:102290008160204600F024FC206805602020C4F8FE
:1022A0008800002084F88400B0BD00000000000019
:1022B00010B5B0B10446D0F8880028B9002084F8E1
:1022C0008400204600F028F82420C4F88800206804
:1022D000016821F001010160204600F029FD01287C
:1022E00001D1012010BDA06A10B1204600F024FCED
:1022F0002068416821F490414160816821F02A0101
:102300008160016841F001010160204600F084FC19
:1023100010BD0000000000002DE9F041B8B00446F7
:1023200002A8C0210025CDE93655CDE934553395B5
:10233000FEF726F841F200012068C4F2010188424C
:1023400002D038B0BDE8F0810120029002A80395C8
:102350002195FEF7F1FC08B1FEF78AF844F2E0405F
:102360000024C5F60200C5F6020433AD4FF00208A2
:102370000169002741F0100101610169072601F0A0
:10238000100101910199016841F0020101600168A9
:1023900001F0020101910199016841F00101016020
:1023A0000068294600F001000190019880203390D8
:1023B00004F58060CDF8D080CDE935773796FEF70B
:1023C00073F84FF400702946CDE93308204637965C
:1023D000CDE93577FEF768F838B0BDE8F081000048
:1023E0002DE9F04182B00446D0F8880020283FD182
:1023F0000E4600294FF001004BD01746002A48D066
:102400001D464FF00008C4F890802120C4F88800D1
:10241000FEF72AF9A4F85470A4F856700746A1688C
:10242000B1F5805F0FD12069002814BF3046B04657
:10243000064608E0206816F8011B8162B4F85600D1
:102440000138A4F85600B4F85600A8B18021002243
:1024500020463B46009500F02FFFE8B9002EE9D159
:1024600038F8020B216800266FF35F208862E5E7E9
:10247000022002B0BDE8F0814021002220463B4608
:10248000009500F019FF20210028C4F8881018BF1B
:10249000032002B0BDE8F0812020C4F888000320AA
:1024A00002B0BDE8F0810000FEE70000000000007F
:1024B00010B584B00024CDE90244CDE90044FEF714
:1024C0007BF90120ADF8000048F21F70029040F245
:1024D0000110039068460194FEF73EF90420FEF7D0
:1024E0007BF904B010BD000070B586B044F2E04046
:1024F0000025C5F602000595CDE90355CDE9015546
:10250000016840F6000441F0010101600168C5F670
:10251000020401F0010100910099016841F00201FB
:1025200001600168002201F0020100910099016838
:1025300041F00401016001684FF4005601F004010C
:1025400000910099016841F08001016000684FF43A
:10255000005100F08000009000982046FEF774F8CB
:10256000012001A9CDE90205204601960495FDF759
:102570009BFF06B070BD000080B54AF6700041F2C6
:102580000001C2F20040C4F20101082201604FF4D0
:10259000E13141600021C0E902110161C0E905217A
:1025A000C0E90711C0E90911FFF782FEC0B94AF678
:1025B00070000021C2F20040FFF752FE80B94AF6D7
:1025C00070000021C2F20040FFF722FE40B94AF637
:1025D0007000C2F20040FFF7FFFD002808BF80BD79
:1025E000FDF746FF0000000080B54AF2643000218C
:1025F000C2F20040C4F208010222016009214160D8
:102600000021C1600261C0E90621C0E90811C0E9EA
:102610000A110163FEF72CF9002808BF80BDFDF701
:1026200027FF000000000000FEE70000000000009F
:10263000FEE700000000000000F007004FF0FF3C44
:1026400080F00703042B28BF0423033838BF002081
:102650000CFA03F399430CFA00F301FA00F022EAB2
:10266000030108437047000080B5002000F084FE9D
:1026700080BD000000000000704700000000000066
:10268000F0B581B044F22C47C5F6020757F8042C88
:1026900002F00302032A02D1012001B0F0BD054679
:1026A00057F82C0C0C4620F0806047F82C0CFDF7F6
:1026B000DBFF064657F82C0C000105D5FDF7D4FFCB
:1026C000801B0228F6D964E057F8040CEE6895E800
:1026D0000E0020F47C30012C40EA0130A2F101010F
:1026E0006FF35F214FF47E4202EB432247F8040C64
:1026F00092B24FF0FE4302EB01004FF4FE012A6953
:1027000001EB064101F4FE0103EB0262084402F012
:10271000FE410844F8603868696920F0C00040EA6A
:10272000010038603868A96920F0200040EA010003
:10273000386038684FF6F87120F01000386038695A
:10274000EA6920EA01004FF4001140EAC200386152
:10275000386808BF4FF4801140F01000002C38603A
:1027600008BF4FF4002138680843386057F82C0C34
:1027700040F0806047F82C0CFDF776FF044600BF60
:1027800057F82C0C000107D4FDF76EFF001B03283F
:10279000F6D3032001B0F0BD002001B0F0BD000071
:1027A000F0B581B044F22C47C5F6020757F8042C67
:1027B00002F00302032A02D1012001B0F0BD054658
:1027C00057F82C0C0C4620F0805047F82C0CFDF7E5
:1027D0004BFF064657F82C0C800005D5FDF744FF4B
:1027E000801B0228F6D964E057F8040CEE6895E8DF
:1027F0000E0020F07C70012C40EA0150A2F1010192
:102800006FF35F214FF47E4202EB432247F8040C42
:1028100092B24FF0FE4302EB01004FF4FE012A6931
:1028200001EB064101F4FE0103EB0262084402F0F1
:10283000FE41084478613868696920F4406040EAE4
:10284000010038603868A96920F4007040EA01008E
:10285000386038684FF6F87120F480703860B869D5
:10286000EA6920EA01004FF0807140EAC200B861D5
:10287000386808BF4FF4000140F48070002C3860C5
:1028800008BF4FF4800138680843386057F82C0CB3
:1028900040F0805047F82C0CFDF7E6FE044600BFE0
:1028A00057F82C0C800007D4FDF7DEFE001B032830
:1028B000F6D3032001B0F0BD002001B0F0BD000050
:1028C0007047000000000000B0B501380024B4EBF0
:1028D000106F01D00120B0BD4EF210050F21CEF2D5
:1028E000000568604FF0FF3001F03AF9AC60072056
:1028F00028602046B0BD000080B5FDF7BDFE80BD5C
:1029000070B59CB044F6180440F22C4509A84C213F
:10291000C5F60204C5F60005FDF732FD02200026CB
:10292000CDE90766CDE90566CDE90366CDE9016627
:10293000FEF796F80096286820F0010028602868C5
:1029400000F001000090206840F4404020602068C2
:1029500000F440400090009820688004FCD54FF6B9
:10296000DC40CFF6FF70215841F002012150205881
:1029700000F002000090009800200090206840F4D1
:1029800040402060206800F440400090286840F0FB
:1029900001002860286800F001000090009800BF46
:1029A00020688004FCD5212009904FF480300A90E3
:1029B00001200F9002200521CDE912001491C021C1
:1029C000CDE9151004210824CDE9171009A81994A0
:1029D0000025CDE91A55FFF7B7F8A0B93F200190BF
:1029E00003204FF48061CDE9020540200494CDE935
:1029F0000500CDE9071001A80421FEF7A5FE002877
:102A000004BF1CB070BDFDF733FD000000000000E6
:102A10004EF6885042F2000CCEF20000C5F2002CB7
:102A2000016841F470010160DCF8000000F00F0063
:102A3000062806D8DCF80000072161F30300CCF873
:102A4000000044F200404EF67F52C5F60200CEF67A
:102A5000F622016841F00101016000210161036873
:102A60001A400260DCF80020120706D5DCF80020CE
:102A7000072363F30302CCF8002040F200228161B7
:102A8000C161C0F20222016282620022C0F2FF1222
:102A9000C26240F28022C0F201120263416382638B
:102AA000C16302644164026822F48022026001660C
:102AB00041F20000C5F600400068B1EB507F05D13F
:102AC00048F208100121C5F20010016044F2000034
:102AD00043F2D201C5F200200160704700000000FF
:102AE00010B5416E01B301684EF6507CC0F6000C83
:102AF0004EF6587E8A68C0F6000E8968C2F34262BC
:102B00004C0F1CF802301EF802101A011EF8043097
:102B1000B2FBF1F11CF80420A0F868101201B2FB1E
:102B2000F3F2A0F86A2010BD0121A0F86A10A0F805
:102B3000681010BD00000000816ACA070CD18A0726
:102B400015D44A071ED40A0727D4CA0630D48A06E9
:102B500039D44A0655D541E00268D0F82CC05368F4
:102B600023F4003343EA0C0353608A07E9D5026873
:102B7000D0F830C0536823F4803343EA0C03536029
:102B80004A07E0D50268D0F834C0536823F48023A4
:102B900043EA0C0353600A07D7D50268D0F838C05F
:102BA000536823F4004343EA0C035360CA06CED5AE
:102BB0000268D0F83CC0936823F4805343EA0C03C6
:102BC00093608A06C5D50268D0F840C0936823F4A4
:102BD000005343EA0C0393604A0612D50268D0F80A
:102BE00044C0BCF5801F536823F4801343EA0C03F0
:102BF000536006D1536823F4C00C836C43EA0C0382
:102C00005360090658BF70470168C06C4A6822F4D7
:102C10000022104348607047B0B582B004460020DF
:102C2000C4F89000FDF720FD2168054609680907F2
:102C300019D54FF4001100226FF07E40009020461D
:102C40002B4600F039FB70B1206850E8000F216876
:102C500020F0800041E80002002AF5D12020C4F8CD
:102C6000880003202FE020680068400723D54FF438
:102C7000800100226FF07E40009020462B4600F03D
:102C80001BFBC0B1206850E8000F216820F4907051
:102C900041E80002002AF5D1206850E8020F2168BF
:102CA00020F0010041E80202002AF5D12020C4F8FA
:102CB0008C00032007E02020C4F88800C4F88C00B2
:102CC0000020E0662067002184F8841002B0B0BDC7
:102CD000016851E8001F026821F4907142E8001376
:102CE000002BF5D14FF6FE7CCEF6FF7C026852E851
:102CF000022F036802EA0C0243E802210029F5D101
:102D0000C16E01290AD100BF016851E8001F0268A5
:102D100021F0100142E80013002BF5D12021C0F86A
:102D20008C100021C1664167704700000000000060
:102D3000F0B583B004460368806846F6F316D4E91C
:102D40000312104362691043E2691F68CCF6FF76F4
:102D5000104307EA06021043186058684FF2FF4715
:102D600020F4405240F6004011435960C5F600007F
:102D7000A1698342C1F2FF171CBF226A11439A68FE
:102D800047F2FF763A40C4F2000611439960DA6ACE
:102D900044F2544122F00F02676AC5F602013A4339
:102DA000B342DA624FF0800225DD40F6FF77C4F2CD
:102DB0000107BB423FDD834200F0718041F20047D2
:102DC000C4F20107BB4200F0758041F20007C4F273
:102DD0000107BB4240F0A5800A68C2F3C203052B7D
:102DE00000F296800122DFE813F09C00910095002C
:102DF000970099009B0044F6FF37C4F20007BB42DE
:102E000033DC44F20047C4F20007BB4200F05D80AF
:102E100044F60007C4F20007BB4240F082800A6813
:102E200002F00703052B00F273800022DFE803F0B5
:102E3000796E7274767847F60007C4F20007BB42D9
:102E400000F04E8047F60047C4F20007BB4240F056
:102E500068800A6802F00703052B00F259800022FF
:102E6000DFE803F05F54585A5C5E44F60047C4F252
:102E70000007BB4200F03F8045F20007C4F20007A4
:102E8000BB4240F04E800A6802F00703052B00F2B7
:102E90003F800022DFE803F0453A3E4042444A6862
:102EA00002F00703052B33D80222DFE803F03A2FA4
:102EB000333537390A68C2F3C203052B28D80122FB
:102EC000DFE803F02F24282A2C2E0A6802F00703DB
:102ED000052B1DD80022DFE803F024191D1F212334
:102EE0000A6802F00703052B12D80022DFE803F07E
:102EF000190E121416180A6802F00703052B07D8DA
:102F00000022DFE803F00E0307090B0D042208E09E
:102F1000802206E0082204E0102202E0202200E0E5
:102F200040222368834240F60010C0F23D0000F0CA
:102F30005380E369B3F5004F40F07880402A00F2F7
:102F40001A810025DFE812F0410012011701170174
:102F50001B011701170117011F01170117011701A5
:102F60001701170117011701260117011701170192
:102F70001701170117011701170117011701170191
:102F80001701170117011701340117011701170164
:102F90001701170117011701170117011701170171
:102FA0001701170117011701170117011701170161
:102FB0001701170117011701170117011701170151
:102FC000170117011701170131010025FEF710FD48
:102FD000002840F0EF8049E1931E1E2B00F2748020
:102FE0000027DFE813F01F0077007A0077007700F2
:102FF00077007E0077007700770077007700770012
:103000007700B800770077007700770077007700C7
:1030100077007700770077007700770077007700F8
:10302000770083000027FDF74BFD5FE0402A00F2A8
:10303000E6800025DFE812F04100DE00E300E30057
:10304000E700E300E300E300EB00E300E300E3005C
:10305000E300E300E300E300F200E300E300E30049
:10306000E300E300E300E300E300E300E300E30048
:10307000E300E300E300E3000001E300E300E3001A
:10308000E300E300E300E300E300E300E300E30028
:10309000E300E300E300E300E300E300E300E30018
:1030A000E300E300E300E300E300E300E300E30008
:1030B000E300E300E300E300FD000025FEF798FCD9
:1030C000002840F0BA80D1E0402A03D14FF40040FC
:1030D00000270BE00020012708E06846FDF704FD0B
:1030E00002E06846FDF794FD0027019878B3616A15
:1030F0004EF68262C0F600026668012532F81120A1
:1031000006EB4603B0FBF2F19942C0F0AF80330307
:10311000994200F2AB8000210023FDF7D9F80902A3
:10312000002341EA10613246000210EB560041F1E3
:103130000001FDF7CDF84FF6FF42A0F54071C0F257
:103140000F02914205D821683D46C8608EE03D4699
:103150008CE001258AE051F8540C800649F2000009
:10316000C0F2D03000F18B800027BFE70025FEF7CA
:1031700053FCF8B97AE000200125D8B976E068461A
:10318000FDF7B2FC02E06846FDF742FD002501981C
:1031900080B96BE051F8540C800649F20000C0F28F
:1031A000D03073D4002528B960E04FF400400025EA
:1031B00000285BD0616A4EF68262C0F6000232F8E7
:1031C00011106268B0FBF1F0510801EB4000B0FB58
:1031D000F2F0A0F110014FF6EF72914208D84FF6CD
:1031E000F07122680140C0F342000844D0603DE025
:1031F00001253BE00025FEF70FFCF0B936E000208A
:103200000125D0B932E06846FDF76EFC02E0684661
:10321000FDF7FEFC0025019878B927E051F8540C21
:10322000800649F20000C0F2D03039D4002520B920
:103230001CE04FF400400025C0B1616A4EF6826286
:10324000C0F6000232F811106268B0FBF1F000EB3A
:103250005200B0FBF2F0A0F110014FF6EF72914274
:1032600003D880B22168C86000E001254FF001104A
:10327000A0660020C4E91D00284603B0F0BD51F847
:10328000541C0027C1F3C101C8402FE751F8541C5A
:103290000025C1F3C101C84000287FF48BAFE5E7EA
:1032A00051F8541C0025C1F3C101C8400028C4D105
:1032B000DCE70000000000002DE9F04381B0044687
:1032C0000068C0690840401AB0FA80F04009904296
:1032D00039D1DDF820800D461646994608F10107E0
:1032E00009E000BF2068C0692840401BB0FA80F0A8
:1032F0004009B0422BD1002FF4D0FDF7B5F9B8F159
:10330000000F01464FF0030022D0A1EB0901414517
:103310001ED8206801684907E4D5C16909071AD495
:10332000C1690905DED54FF4006101622046FFF74F
:10333000CFFC2020C4F89000002084F884000320F3
:1033400001B0BDE8F083002001B0BDE8F0830020AB
:1033500001B0BDE8F083082505622046FFF7B8FC00
:10336000C4F89050002084F88400012001B0BDE82A
:10337000F0830000000000002DE9F04F87B0044604
:1033800000F032FE4AF258310746C2F200410028EE
:1033900001EBC40656F8041F486900F04D8110F097
:1033A000010040F04981F80637D5886920F0100007
:1033B0008861086AC0F3434106291CD0022927D13D
:1033C000C0F30A1525B304EB840149F2802200F012
:1033D0000F00C2F2004202EB41112A4601EB001835
:1033E0002046D8F84C1000F057FDD8F84C0028447F
:1033F000C8F84C000CE004EB840149F28022C2F2D0
:10340000004202EB4111C0F30A12204600F044FDD5
:103410003068816941F0100181613803CDE905769A
:1034200068D5204600F02CFE002863D0064604EB49
:10343000840049F280214FF4306BC2F200414FF01A
:10344000000801EB4010049000F1500A5430D146BE
:1034500003900BE0002008F10108B0EB560F0BF1D0
:10346000200B4FEA560609F1100943D0F007F1D0BE
:103470005FFA88F72046394600F0EEFD0546C007A2
:103480002BD0B8F1000F11D006984FF6FF72D9F883
:103490000010C0F2070200685844006910400A1A80
:1034A0000020C9E900022046394614E0DAF800009D
:1034B000D0B106994FF6FF72C0F207025346096871
:1034C000D1F8101B1140421A03980021026000201D
:1034D000CAF8000020460AF06BFB2807BAD5204640
:1034E00004990AF039FBB5E7204600F0B5FC28073F
:1034F000B0D5F4E70598A246400377D5504600F0D2
:103500009BFD002872D006460AEB8A0049F2802112
:103510004FF41069C2F200414FF0000B01EB401074
:10352000019000F1100800F114010391063002909F
:10353000CDF810800CE000BF00200BF1010BB0EBC8
:10354000560F09F120094FEA560608F110084DD030
:10355000F007F1D05FFA8BF75046394600F050FD86
:103560000546C00738D0BBF1000F15D006984FF6BE
:10357000FF72D8F80010C0F20702006848440069E2
:1035800010400A1A0020C8E900024BF08000C1B2C6
:1035900050460AF0F5FA1FE006984FF6FF72049BBA
:1035A000C0F2070200681968D0F8100910400A1A22
:1035B0000398802102600020186050460AF0E0FA6B
:1035C0000298008820B1019991F9001000290AD4CD
:1035D000504600F041FC00BF2806ADD550463946A4
:1035E00000F07EFEA8E70028F6D1F1E7DDF81480B0
:1035F000069F5FEAC84022D45FEA884000F18180DC
:103600005FEA882000F199805FEAC82000F19D8080
:103610005FEA087000F1A1805FEA085000F1A48021
:10362000B8F1FF3F40F3AB805FEA487004D53868DB
:10363000416842681143416007B0BDE8F08F3868C7
:103640004FF480514161D0F8041821F00101C0F815
:1036500004181021504600F08BFC504600F05CFC32
:10366000386800214FF0006C4FF6FF334FF0904266
:1036700000260FE0C5F800C9C5F800CB8519203633
:10368000802EC5F81019C5F80839C5F8101BC5F803
:10369000083B14D0002E3D68ECD03544D5F80049E5
:1036A00002EAE474C5F80049D5F8004BB4F1FF3FD5
:1036B00002DDC5F8001BE1E7C5F8002BDEE738683E
:1036C00049F28023C2F200430122D0F81C1841F0D5
:1036D0000111C0F81C180921C0F814180AEB8A015E
:1036E000C0F8102803EB4110A021FCF749FE50461A
:1036F0000AF07AFA504600F0AFFB5FEA88407FF5A7
:103700007FAF38684FF40051416140F20400C2F2CB
:1037100000400568504600F053FC024650462946DA
:1037200000F0FEFC3868D0F8041841F48071C0F84D
:1037300004185FEA88207FF567AF38684FF40011FE
:1037400041615FEAC8207FF563AF38684FF48011AC
:1037500041615FEA08707FF55FAF38680821416119
:103760005FEA08507FF55CAF38684FF40061416153
:1037700050460AF081FAB8F1FF3F3FF755AF38687D
:103780004FF00041416150460AF062FA5FEA48702A
:103790007FF552AF4BE7000070B506991D46012931
:1037A000044619D1A16B4FF6BF7221F48031A16399
:1037B000E168CFF6BD720D981140E1600128E16823
:1037C00021F44010E06003D1E06840F48010E06034
:1037D000204600F029F80FE0E0680A9E40F0400023
:1037E000E060204600F020F8A16B16B121F4803192
:1037F00001E041F48031A163012D18BF70BDE16D7E
:1038000089B2E165E16D41F0007141F0F771E16568
:10381000A16841F00601A160A16841F02001A1600A
:1038200070BD00000000000081B040F64051002251
:10383000C0F20301009200BF009A01320092009A88
:103840008A4215D80269B2F1FF3FF5DC00220092EE
:10385000026942F001020261009A01320092009A6C
:103860008A4205D80269D207F6D1002001B070471C
:10387000032001B0704700000146D0F8000E20F090
:103880000300C1F8000E0020D1F8042842F0020223
:10389000C1F80428704700002DE9F04F81B09A4626
:1038A0000E460446DDF844800C9841220A99002314
:1038B00044F822300132502AFAD1B8F1000F04D076
:1038C00004F138024FF400130FE0D4F804288023E9
:1038D00042F00202C4F80428A26B22F40012A26390
:1038E000226842F040022260224617684FF0000929
:1038F0003B431360C4F8009E0029D4F8002818BF89
:10390000012101282046C4F8002818BF032100F037
:1039100003F91021204600F09FF88346204600F06E
:1039200073F8C4F81098C4F81498C4F81C988EB3AF
:1039300004F510614FF67F32002300BF4FF090472F
:10394000002B08BF4FF000670D68013307EAE577E9
:103950000F60C1F810909E428A6001F12001EDD104
:1039600004F530614FF0000C4FF67F33002700BFA5
:103970004FF09045002F08BF4FF000650A680137EF
:1039800005EAE2720A60C1F810C0BE428B6001F124
:103990002001EDD1D4F81018BAF1000F21F4807194
:1039A000C4F81018C4F818906FF08041616103D119
:1039B000A16941F01001A16143F600020D9BA169CC
:1039C000C8F23C0241EA0201A1611BB1A16941F0C8
:1039D0000801A161B8F1010F05D1A16941F0804151
:1039E00041F00401A16150EA0B0018BF012001B0B1
:1039F000BDE8F08F0000000001468268002022F040
:103A000001028A607047000081B040F640510022F8
:103A1000C0F20301009200BF009A01320092009AA6
:103A20008A4213D80269B2F1FF3FF5DC002200920E
:103A300010220261009A01320092009A8A4205D84F
:103A40000269D206F6D4002001B07047032001B00D
:103A5000704700000000000081B040F64052002393
:103A6000C0F20302009300BF009B01330093009B50
:103A7000934215D80369B3F1FF3FF5DC89010023B8
:103A800000932031016100BF00990131009100993C
:103A9000914205D801698906F6D4002001B070472B
:103AA000032001B070470000406900F0010070473A
:103AB00070B50446C06820F0C040E06099B10129AB
:103AC00028D1E068002540F00050E06001202E463B
:103AD000FCF7D6FC20460135FFF7E6FF302E13D861
:103AE0000128F3D110E0E068002540F08040E0605C
:103AF00001202E46FCF7C4FC20460135FFF7D4FF19
:103B0000302E01D80028F3D1A5F13200B0FA80F0B0
:103B1000400970BD012070BD0246D0F80038002079
:103B20001943C2F800187047FEE7000000000000CB
:103B3000002848BF704700F01F01012202FA01F17E
:103B40004EF200124009CEF2000242F820107047F7
:103B50004EF60C50CEF200000068C0F30220704711
:103B60004EF6145300F00F02CEF20003B0F1FF3F07
:103B70001A4400F16043C8BF03F5644208011070A5
:103B800070470000000000004EF60C514FF6FF0396
:103B9000CEF200010A681A4060F30A2242F0806007
:103BA00040F0FD70086070472DE9F04381B0CB888C
:103BB0000D468046B3F5807F03D995F900000028B3
:103BC00033D549F290004FF4F671C2F2004018FB71
:103BD00001064FF0000006F12C02009246F8082F73
:103BE00037463446B14647F8043F44F8083F09F8E1
:103BF0000C0F53B195F90000002806D4002140466F
:103C000009F0FEFD01B0BDE8F0836A464046294652
:103C100023460AF05DFBB8B1EA882068904238BFBD
:103C20000246B2F5807F3A6015D94FF24C10C0F6CB
:103C300000000AF0B7FE14A00BF006F94FF2601076
:103C4000C0F600000AF0AEFE8021404609F0A8FD53
:103C500001B0BDE8F08300993068814201D009F0DD
:103C6000ABF932683B688021404609F05DFEE98887
:103C70002068884205D210F03F0004BF012089F877
:103C8000000001B0BDE8F083526571756573742062
:103C900062756666657220746F6F20736D616C6CFF
:103CA0000D0000000000000070B582B00C464EF61A
:103CB0009A61C0F60001054609F0A6FB4AF6141009
:103CC0004EF68C76C2F20040022181228323C0F698
:103CD000000600960AF0B4F90146284609F0C4FA35
:103CE0004AF630100221C2F200408122832300965E
:103CF0000AF0A6F90146284609F0B6FA4DF6E13277
:103D00002846C0F6000221460AF0A6F802B070BDAF
:103D100010B54AF61834C2F200442068002808BFE3
:103D200010BD08F0A1FD0020206010BD00000000C3
:103D300070B5044608F014FAFFF7EAFF08F0E8FB54
:103D40004AF61836C2F20046306060B1A2884EF6DC
:103D50006C71C0F6000108F093F938B10546FFF721
:103D6000D7FF68B270BDFF2568B270BD4CF2B1617B
:103D70003068C0F600010022002508F011FC4AF26C
:103D80001410C2F20040046068B270BD0000000070
:103D9000B0B50C468907054602D006A00AF002FE1F
:103DA0002868EA6881880139818010682060146081
:103DB000B0BD00BF6D656D705F667265653A206D60
:103DC000656D2070726F7065726C7920616C6967C7
:103DD0006E65640000000000B0B50546C068046868
:103DE0008CB1A1072168016002D00AA00AF0DAFDB7
:103DF00028688188C288013181808BB2934207D9BB
:103E0000C1802046B0BD28680024018801310180AE
:103E10002046B0BD6D656D705F6D616C6C6F633A0F
:103E2000206D656D702070726F7065726C792061A5
:103E30006C69676E6564000080B54AF25831C2F261
:103E4000004101EBC0014968CA6842F04002CA6003
:103E500000F026F980BD00004AF25831C2F200415C
:103E600001EBC00000214068C0F8101BD0F8101B07
:103E700041F40021C0F8101BD0F8101B41F01801CC
:103E8000C0F8101BD0F8101B41F0C041C0F8101B47
:103E9000704700000000000003320023B3EB920FD4
:103EA00008BF70474AF258330439C2F200434FF456
:103EB000805C03EBC00390085A6800BF013852F8D9
:103EC0000C3041F8043FF9D17047000000000000B9
:103ED00080B503F1030C0023B3EB9C0F08BF80BD3A
:103EE0004AF258334FEA9C0CC2F20043043A03EB07
:103EF000C0004FF4805300F1040E03EB013100BF0A
:103F0000DEF80030BCF1010C52F8040FC850F7D1B4
:103F100080BD00000000000081B04AF2583240F637
:103F20004051C2F20042C0F2030102EBC000002384
:103F3000021D0093009801300090884213D8106849
:103F40000369B3F1FF3FF5DC002200921022026109
:103F5000009A013200928A4205D80269D206F7D44B
:103F6000002001B070474FF0FF3001B070470000F3
:103F700081B04AF2583340F6405CC2F20043C0F2CE
:103F8000030C03EBC00000230093031D00980130D5
:103F90000090604512D818680269B2F1FF3FF5DC65
:103FA0008901002200922031016100BF0099013196
:103FB0000091614502D801698906F7D401B07047C4
:103FC0004AF25831C2F2004101EBC0004068D0F81B
:103FD000080810F0060F05D080074FF0030058BF07
:103FE0000F207047002070474AF25831C2F200415A
:103FF00001EBC000406841698069084070470000DB
:104000004AF25832C2F2004202EBC00001F00F0245
:104010004068D0F810C8D0F8343823FA02F2D20140
:1040200000EB4111D0B240EA0C00D1F80829104051
:10403000C1F80829704700004AF25831C2F2004125
:1040400001EBC0004068D0F81818D0F81C080840F0
:1040500080B27047000000004AF25832C2F20042BB
:1040600002EBC000406800EB4111D1F8082BC1F809
:10407000082BD0F814081040704700000000000022
:104080004AF25831C2F2004101EBC0004068D0F85A
:104090001818D0F81C080840000C704700000000F9
:1040A00081B04AF2583240F64051C2F20042C0F2AA
:1040B000030102EBC0000023021D009300980130B1
:1040C0000090884216D810680369B3F1FF3FF5DC11
:1040D00000220092026942F001020261009A01325C
:1040E00000928A4202D80269D207F7D1016921F011
:1040F0000101016101B0704780B54AF25831C2F246
:10410000004101EBC0004068C16821F0C041C160BE
:10411000C16841F08041C160322009F09DF980BD45
:10412000032A0DD145F2403243F20053CFF62772F5
:10413000C0F20C030A449A4217D24FF4705101E0C6
:104140004FF410514AF25832C2F2004202EBC00062
:104150004068C26842F00702C260C26822F470522E
:10416000C260C2681143C160704741F6406244F2C8
:104170004023CFF61B72C0F20F030A449A4202D2C8
:104180004FF46051DEE7A1F5740244F68073A2F5A6
:104190001052C0F212039A4202D24FF45051D1E7AA
:1041A000A1F183724DF22063A2F5E742C0F213033E
:1041B0009A4202D24FF44051C4E74BF260624EF291
:1041C0006033CFF6E562C0F216030A449A4202D287
:1041D0004FF43051B6E74DF2003247F24073CFF65C
:1041E000CE62C0F21B030A449A4202D24FF420511D
:1041F000A8E745F6C03249F2C013CFF6B362C0F269
:1042000021030A449A4202D24FF410519AE7A1F1D5
:10421000B77247F22053A2F55852C0F238039A42BF
:1042200002D24FF400518DE745F2E04249F6E043F7
:10423000CFF65962C0F241030A444FF4C0519A428A
:1042400038BF4FF4E0517DE7F0B581B04AF2583302
:104250000C46C2F2004303EBC00017464068456AB3
:10426000B9B1826A611E05EB12450BD00023002212
:1042700000EB83030132D3F80461D3B2994205EB1A
:104280001645F5D800EB810045EA0741C0F8041156
:1042900002E045EA074181624FF2A520C0F6000026
:1042A0000AF080FB06A021463A462B460AF07AFB2C
:1042B0004FF26010C0F600000AF074FB01B0F0BDD0
:1042C0006669666F25642073697A653A25303478AB
:1042D0002C206F66667365743A253034780D0A00B9
:1042E0002DE9F04F85B0044600EB800049F28022B2
:1042F0004AF25835C2F20042C2F2004502EB4010C9
:104300004FF4106C00EB011E0391764605EBC40AD6
:104310000CEB411836F8082F3346374653F8080F90
:10432000049357F80C3FC31A5AF8040F934208EB52
:10433000000188BF13468A6992B20333B2EB930F30
:1043400013D204993A68096891420BD80399012263
:1043500001F00F0102FA01F1D0F8342822EA01013C
:10436000C0F8341805B0BDE8F08F0EF10C0B9A08B8
:1043700002920EF10A0201921AE000BF1FFA89F3BD
:10438000DBF80020284603992C46FFF7A1FDDBF857
:1043900000003A684844CBF80000DAF800004A44CC
:1043A00008EB00013A608A69029B92B29A42C8D334
:1043B000049B3A681B689342C3D9A3EB0209019A94
:1043C000254634881278A14588BFA146012AD5D157
:1043D000D0F808084FF0805210F480706FF0005051
:1043E00008BF6FF080500B6808BF4FF000521840B4
:1043F0000860086810430860086920F0C040086140
:10440000086940F000500861B8E7000000000000B3
:10441000016070470000000001607047000000006C
:1044200080B54AF21412C2F2004211680B69012BE6
:1044300017DBD2F800C00023002200BF496901EB5E
:10444000030EDEF80610814209D00132DCF81010AC
:104450008A4203F114036146F0DB4FF0000E704610
:1044600080BD002080BD00002DE9F0414AF214110A
:10447000C2F2004108680269012A1CDB0E684AF298
:104480001C11C2F20041002701F11C08002400BFEA
:1044900040690622C51941462846FBF783FF38B11B
:1044A00001343069844207F114073046F0DB0025FF
:1044B0002846BDE8F0810020BDE8F0810000000042
:1044C0002DE9F04F85B04AF224070392019180460E
:1044D0004FF00A0E0023C2F2004700264FF0000CF6
:1044E0004FF0000B4FF0000A0A240A2004900A2023
:1044F000029000BFA0B2FA180A28117D08BF002957
:1045000018D089B3B8F1000F0AD0D8F80000556868
:10451000A84205D1039DE5B19068A84219D000BF1B
:1045200001290BD1F858518AB8B1514524BFB6467C
:104530008A4619E04FF00109344617E0042913D8E0
:10454000508A0499604528BF3146049128BF8446AB
:104550000AE04FF00009009608E00298594528BF8C
:104560003046029028BF8B464FF00109B9F1000F89
:104570001DD018330136F02BBCD1019A4FF6FF71D4
:10458000900715D4D00702D1A0B20A2810D020B2CB
:104590000A2827DB049D28B209280DDC00EB400027
:1045A00057F8300088B11EA00AF0FCF90DE0009920
:1045B00008B205B0BDE8F08F029D28B20A2804DBDE
:1045C0000FFA8EF075460928F2DC2CB20A2C05DBB6
:1045D0004FF68200C0F600000AF0E4F9204600F031
:1045E00043F82C4626B20A2E05DB4FF68200C0F6B1
:1045F00000000AF0D7F906EB460007EBC006307D55
:1046000010B10DA00AF0CEF9B8F1000F03991CBF4C
:10461000D8F800007060B160214600207082C7E7C2
:104620006172705F7461626C655B695D2E71203DC3
:104630003D204E554C4C00006172705F7461626C9D
:10464000655B695D2E7374617465203D3D20455442
:10465000484152505F53544154455F454D50545961
:10466000000000000000000010B54AF2240200EB38
:104670004001C2F2004202EBC10452F8310018B10D
:1046800002F0E6FF002020600020207510BD000031
:104690002DE9F04F85B0A9B3476804463888B0F5D6
:1046A000807F1FD1387906281CD17879042819D148
:1046B0007888082816D14AF66C1A8B46C2F2004A4E
:1046C0000D460123BAF81A000130AAF81A005BF867
:1046D000040FD7F80E100491E8B1B9690E1A18BF8B
:1046E000012619E04AF66C10C2F20040018DC28B1F
:1046F00001310185511CC183204602F0A9FF05B09C
:10470000BDE8F08F4FF69500C0F600000AF04AF9B8
:1047100005B0BDE8F08F012607F108090DF110087A
:10472000284641464A46002E18BF022300F0E0FA10
:10473000F888B0F5007FDFD0B0F5807F0FD1002E74
:10474000DAD105F122010220039028464A460B46A1
:10475000CDE900B9CDF8088000F0EAF9CCE7BAF865
:104760002C000130AAF82C00C6E700000000000071
:1047700070B584B0054616460C4658B194B1CEB11A
:104780003068294600F074FED8B14EF66073C0F66A
:1047900000032AE04FF69500C0F600000AF002F987
:1047A000002CECD14FF6A300C0F600000AF0FAF896
:1047B000002EE5D14FF6AD00C0F600000AF0F2F889
:1047C000DEE7306800F0F001E0291AD171780120AD
:1047D000ADF808005E208DF80A0001F07F008DF82A
:1047E0000B00708802ABADF80C0005F122024FF40B
:1047F000006000902846214600F04EFB40B204B015
:1048000070BD81B24FF6A96291421EBFD5E9011277
:10481000484010EA020045D14AF2203C4AF2240105
:10482000C2F2004CC2F200419CF8002002EB4203AD
:1048300001EBC303187D022812D39868A8420FD158
:1048400030685B6898420BD14AF66C10C2F20040A7
:10485000C18D0131C1852846214600F02DF8CDE7F4
:1048600001F11402002103E0013118320A2913D0AA
:1048700010780228F8D352F80C0CA842F4D1306812
:1048800052F8103C9842EFD1CAB28CF8001028467A
:10489000214600F011F8B1E728463146224600F0E3
:1048A0005FF8ABE72E4656F80C0F0028B4D1FC2079
:1048B000A4E7000000000000F0B581B002EB420266
:1048C0004AF22403C2F200430C4603EBC20605463B
:1048D000374617F8142F012A02D815A00AF062F8FB
:1048E0003878022817D1708AB0F58E7F07D9311D2C
:1048F000284600F0A5F970B9032038700BE0B0F538
:10490000877F08D3311D06F10C02284600F0A0F97C
:1049100008B90320387005F1220206F10C034FF4A8
:10492000006000902846214600F0B6FA01B0F0BDC4
:104930006172705F7461626C655B6172705F696403
:10494000785D2E7374617465203E3D204554484166
:1049500052505F53544154455F535441424C4500BB
:104960002DE9F04F81B005460F460868294690466C
:1049700000F07EFD08B1F02608E03868F02628B186
:10498000002F1CBF00F0F000E02803D170B201B08E
:10499000BDE8F08F012138462A46FFF791FD834696
:1049A000B0F1FF3F2FDD1FFA8BF07F2802D34BA021
:1049B00009F0F8FF5FFA8BFA4AF224094FEA4A003D
:1049C000C2F2004950FA8BF009EBC00414F8146FDE
:1049D00036B90AEB4A000121217009EBC00085605D
:1049E000207810B941A009F0DDFFB8F1000F18BF21
:1049F000002E14D12846394600F022F9B8F1000FF4
:104A000006460DD1C2E7B8F1000F06D04AF66C1089
:104A1000C2F20040818C013181845E46B6E7FF26F8
:104A2000B8F1000F05D14FF6A300C0F6000009F061
:104A3000B9FF2078022816D30AEB4A004AF2203147
:104A4000C2F2004105F1220209EBC00081F800B07A
:104A500000F10C034FF4006000902846414600F03E
:104A60001BFA064692E7012890D1B8F1000F10D04A
:104A700028A4454668892989884204D1286810B14C
:104A8000204609F08FFF287B400606D42D68002DB4
:104A9000F0D1404602F0E8FE06E00E204FF420710F
:104AA000424602F0BDFC8046B8F1000F0CD00AEB84
:104AB0004A0159F8310009EBC10408B102F0C8FD00
:104AC000C4F80080002661E74AF66C10FF26C2F2A7
:104AD0000040818C0131818458E700BF7479706592
:104AE000206F766572666C6F770000006172705F90
:104AF0007461626C655B695D2E7374617465203DE1
:104B00003D2050454E44494E47206F72205354413A
:104B1000424C45006E6F207061636B657420717547
:104B20006575657320616C6C6F77656421000000AA
:104B30002DE9F04F81B005461C469046894628B9BC
:104B40004FF69500C0F6000009F02CFF0E201C2146
:104B50004FF4207202F0B8FA002848D00746408986
:104B6000DDF834A01B2802D827A009F01BFF50460F
:104B7000DDF82CB07E6801F05BFC95F82810F08021
:104B8000062905D04FF64100C0F6000009F00AFFE3
:104B9000A0883946B0814A462068B060DBF8000042
:104BA000C6F81200BBF804004346F0820A98006879
:104BB000C6F80E000C980068B06140F20010C0F218
:104BC0000800306040F20640B08040F606000090D9
:104BD000284600F061F94AF66C10C2F20040018BE1
:104BE00001310183384602F033FD002007E04AF628
:104BF0006C10C2F20040818C01318184FF2040B2F0
:104C000001B0BDE8F08F00BF636865636B20746816
:104C100061742066697273742070627566206361C6
:104C20006E20686F6C642073747275637420657491
:104C3000686172705F68647200000000000000002C
:104C400080B54EF66072C0F6000200F001F880BD3B
:104C500080B584B000F122034EF6667E02910121F8
:104C60000391194600F1040CC0F6000ECDE900CE08
:104C7000FFF75EFF04B080BDF0B581B04AF22400BA
:104C80000024C2F20040022600F11405042707E0C8
:104C90002046FFF7E9FC00BF013418350A2C22D06A
:104CA0002878002818BF0528F6D035F8021C4A1CC1
:104CB00025F8022C91B28B084A2BE9D8012801D1A2
:104CC0000529E5D2012805D004280AD00328E3D11C
:104CD0002F70E1E755F80C0CA5F11001FFF7B0FFBC
:104CE000DAE72E70D8E701B0F0BD00000000000048
:104CF000F0B581B0044690F828001F4615460628F6
:104D00000E4602D028A009F04DFE3EB1306838B101
:104D1000214600F0ADFB28B1F02641E0F0263FE04F
:104D2000F0263DE0306800F0F000E02801D1F026E8
:104D300036E0304639462246FFF7C2FB0646B0F160
:104D4000FF3F2DDD06EB46014AF22402C2F200428B
:104D50007B0702EBC10000F1140304D41F78052F78
:104D600003D1FA261CE0052700E002271F7052F845
:104D7000317084602B68C360AB884FF000060382FB
:104D800046826FB1066004F122024FF40060009089
:104D9000204639462B4600F07FF8384602F058FC92
:104DA00070B201B0F0BD00BF6E657469662D3E68DB
:104DB00077616464725F6C656E203D3D20455448A8
:104DC0005F4857414444525F4C454E00000000008C
:104DD00070B5044640890E2836D9E07B0D4618B9D7
:104DE00095F82C000130E073606801788689CA0765
:104DF00016D0012908D1417891B980785E280FD169
:104E0000607B40F010000AE04EF660710622C0F6AA
:104E10000001FBF7C7FA18B9607B40F00800607327
:104E2000B6F5C16F1FD0082E0ED195F829000007E6
:104E300014D50E21204602F02FFD78B920462946D0
:104E400000F04EFC002070BD4AF66C10C2F200402B
:104E5000018DC28B01310185511CC183204602F0B6
:104E6000F7FB002070BD95F829000007F6D50E214C
:104E7000204602F011FD40B14AF66C10C2F200402B
:104E8000418CC28B01314184E6E720462946FFF779
:104E9000FFFB002070BD00002DE9F0418046069820
:104EA0001F4616460C4601F0C3FA05460E21204661
:104EB00002F0CAF850B14AF66C10C2F200404189C3
:104EC00001314181FE2040B2BDE8F08160688581FA
:104ED000B988818039680160B18841813168C0F842
:104EE000061098F82800062802D005A009F05AFDFF
:104EF000D8F8182040462146904740B2BDE8F081DE
:104F00006E657469662D3E6877616464725F6C6576
:104F10006E206D757374206265203620666F722076
:104F200065746865726E65745F6F757470757421F1
:104F300000000000000000002DE9F04381B00446AD
:104F40000A989846914640F235122280089AA1703C
:104F500040F23641A4F803100999C4F8051040F254
:104F60003341A4F809104FEA1261E1724FEA12418D
:104F700021734FEA1221617340F20141A273A4F838
:104F80000F100B99C4F8111040B304F11B0640F246
:104F90000341A4F81510C4F81700B9F1000F0DD0A3
:104FA0004846FBF7F8F90746B51C0F203070284635
:104FB00049463A467770FBF7BCF9EE19B8F1000F95
:104FC00005D040F206403080C6F802800636301B1D
:104FD000FF210130317001B0BDE8F08304F1150606
:104FE000B9F1000FDCD1E9E710B54FF0000E03E096
:104FF0004FF0000C00239BB10EF101038B4211DA3C
:10500000C35C73449C1C8C42F2DC10F80E3093425B
:1050100002D100EB0E0CEDE70123A646002BEBD1ED
:10502000604610BD002010BD80B582B001904AF6E8
:105030007000C2F2004001A90122FF23FDF7D0F960
:10504000019802B080BD000000218180016070479E
:1050500080B50A46032100F01BF980BD0000000066
:105060002DE9F04F83B04AF64C1A4AF66C15C2F29D
:10507000004AC2F200453C230446DAF80860327860
:1050800003EA8207B5F86220142F02F10100A5F8A7
:10509000620002D3608904280AD2204602F0D8FABE
:1050A000B5F86A000130A5F86A0003B0BDE8F08FDA
:1050B0006068007810B3082816D1DAF81400884622
:1050C00000F0F001E02904D0DAF8001000F0D0F987
:1050D000D0B1204602F0BCFAB5F874000130A5F852
:1050E000740003B0BDE8F08FB5F87000B5F8661035
:1050F0000130A5F87000481CA5F86600204602F0B3
:10510000A7FA03B0BDE8F08F20890828C5D3204650
:1051100000F02EF950B1204602F09AFAB5F8680076
:105120000130A5F8680003B0BDE8F08F07F10E0963
:105130002046494601F088FFF8B12089384481B201
:1051400081422CD10E204FF4207201F0BDFF30B30C
:105150008146408907F1080181421DD8D9F8040031
:1051600031463A46FBF7E5F84846394602F094FBEB
:1051700060B12DA009F068FE0EE02046494602F01D
:105180008BFB78B135A009F05FFEA2E748462146C7
:1051900002F066F900283ED0484602F059FA002095
:1051A000002896D020463946D4F8049001F04CFFF0
:1051B0000028A3D166685AF8140F4FF6F772082337
:1051C000F060B9F802005AF8041C31619042394687
:1051D00088BF09234FF0000B89F800B01844A9F8E4
:1051E0000200FF2030723046A6F80AB000F0B8F88E
:1051F000B5F8601070810022FF23481CA5F86000FC
:105200000120019020465146CDF800B0CDF808802D
:1052100000F0B6FB72E7204602F01AFA01204C4675
:1052200000283FF456AFBDE769636D705F696E702B
:1052300075743A206D6F76696E6720722D3E7061CD
:10524000796C6F616420746F2069636D702068658C
:1052500061646572206661696C65640069636D7084
:105260005F696E7075743A20726573746F72696EDF
:1052700067206F726967696E616C20702D3E706186
:10528000796C6F6164206661696C65640000000080
:105290002DE9F04184B090460F4606462220242195
:1052A0004FF4207201F010FFB0B304464089232868
:1052B00002D81BA009F076FB6568766805F1080046
:1052C0001C2231462F7085F8018000276F60FBF7A4
:1052D00030F8F068039003A800F05EFDC8B1618962
:1052E000064628466F8000F03BF84AF66C1168804D
:1052F000C2F20041FF230296B1F86020501CA1F8D1
:105300006000012003AACDE900700021204600F0D2
:1053100037FB204602F09CF904B0BDE8F08100BFE5
:10532000636865636B207468617420666972737466
:1053300020706275662063616E20686F6C642069FE
:10534000636D70206D657373616765000000000018
:1053500080B50A460B21FFF79BFF80BD00000000CF
:1053600080B501F08DF84FF6FF71484080BD000018
:10537000F0B581B0D8B10446002700266589606881
:10538000294601F07DF83044010C11FA80F615F041
:105390000100B7FA87F031BA18BF0E0C246818BFA5
:1053A0004709002CEAD1B7FA87F0400901E0012053
:1053B000002631BA002808BF0E0CF04380B201B0BD
:1053C000F0BD00000000000010B5DDF808C01C684A
:1053D0004FEA144E1EFA84F4DCF8003014FA83F419
:1053E00004EB13431C0C14FA83F31C0C14FA83F320
:1053F00000F002F810BD00002DE9F04381B01D4619
:1054000090468946D8B10746002600BF7C89786857
:10541000214601F035F82844010C11FA80F514F00A
:105420000100B6FA86F029BA18BF0D0C3F6818BF04
:105430004609002FEAD1B6FA86F0400900E00120C3
:1054400029BA0028484608BF0D0C00F0F1FF2C18BF
:10545000404600F0EDFF2044010C11FA80F000EB13
:105460001040C04380B201B0BDE8F08300000000EE
:10547000421C022A01D20120704791F8292092078C
:105480000AD54A68824207D089684240114203D156
:10549000CA4388439042EED00020704700000000CD
:1054A0002DE9F04F8DB046680446307800F00F00CB
:1054B000052824D16089132823D9F0880D8C9046C3
:1054C0000F4600F0B5FF2189A1F11402110400F08C
:1054D000DA80A5F11401069600F40053142501EBBF
:1054E00051710026C91002976FF35F300B90C8000E
:1054F000039380B204910790CDF814804BE0FA2713
:10550000C2E064A009F04EFAFA27BDE0DDF808A079
:10551000089BBAF82000DDF82C903544A0F1140166
:1055200048466FF35F30994200F50052B8BF10460D
:105530000399002918BF104600F07AFFDDF8248097
:10554000A8F806000C98143080B200F071FFA8F89B
:105550000200142140460027A8F80A70FFF700FF58
:10556000A8F80A00DAF8143050465946059A9847C8
:105570004AF66C11C2F20041088E01300886584686
:1055800002F066F80A9A0C98121A100404988144E2
:10559000CDF82C9078D097B207980A92B84288BF7D
:1055A000384614214FF420720C900E2001F08CFD2F
:1055B00000286DD0834640890897132802D83CA064
:1055C00009F0F0F9DBF8040014220699FAF7B1FEAD
:1055D000DDF830A0DBF80400BAF1000F099006D125
:1055E000089BDDF808A094E75FEA0A408ED0AFB2CE
:1055F0006689BE4202D236A009F0D4F91FFA8AF1B8
:10560000761BB0B2814238BF5646300428D000F035
:105610000FFC70B3B1B280466068412238440090FC
:1056200000204346019101F06BFEF8B1814620460F
:1056300002F01AF946F271304946C0F60000C8E996
:105640000404584601F078FEAAEB060A5FEA0A4015
:105650004FF000001CBF2468002509280FD1C3E7C4
:10566000246809200025092809D1BDE7404600F03B
:10567000E7FB584601F0ECFF06200928B4D00028CB
:10568000B2D0FF2700E0002778B20DB0BDE8F08F60
:10569000FF27F9E76970345F6672616728293A204D
:1056A0007062756620746F6F2073686F727400008B
:1056B00074686973206E656564732061207062751B
:1056C0006620696E206F6E652070696563652100D4
:1056D000702D3E6C656E203E3D20706F666600004A
:1056E0002DE9F04F81B047684AF66C15C2F20045CB
:1056F00004463A78B5F84A0002F0F003402B00F176
:105700000100A5F84A002AD1788889463C2101EA9F
:10571000820A00F08DFE21890646884203D2204687
:10572000314602F035F86089504526D3BAF1140F9E
:1057300023D32089864220D838465146FFF710FEF1
:1057400060B3204601F084FFB5F85000B5F84E1064
:105750000130A5F85000481CA5F84E001AE020467C
:1057600001F076FFB5F85C00B5F84E100130A5F8F1
:105770005C00481CA5F84E000CE0204601F068FFD4
:10578000B5F85200B5F84E100130A5F85200481C8B
:10579000A5F84E00002001B0BDE8F08F39694AF647
:1057A0004C1BC2F2004B01F0F002E02AF868CBF883
:1057B0001000CBF8141006D199F82900C00720D1A9
:1057C0004FF0000824E0484600F0C2F8C846F8B997
:1057D0009BF814004FF000087F2819D04AF60830D3
:1057E000C2F2004006681EB912E03668002EE7D00B
:1057F0004E45FAD0304600F0ABF80028F5D0B04660
:1058000006E0D9F80400C846002808BF4FF0000899
:10581000B8F1000F10D1787A4FF0000811280BD1A1
:1058200007EB0A004088B0F58640B0FA80F04FEAF6
:10583000501008BFC84600E00020A8B9DBF81000EF
:1058400090B14946FFF714FE28B9DBF8100000F0CC
:10585000F000E02808D1204601F0FAFEB5F84E002D
:105860000130A5F84E0095E7B8F1000F26D0F88872
:105870006FF0C001084207D0204600F059F9002817
:105880003FF488AF0446476838783C21CBE900896B
:1058900001EA8000ABF80C0020464946CBF80870BE
:1058A00002F0DEF8012812D10020CBF80800CBE985
:1058B0000400CBE90000ABF80C006BE7B5F84E0034
:1058C0000130A5F84E00204601F0C2FE62E7064610
:1058D0002046514601F0E0FF787A012808D00628DA
:1058E0000BD011280ED12046494606F03DFCDBE7DF
:1058F00020464946FFF7B4FBD6E72046494603F069
:1059000017FAD1E7022E1DD0DBF814004146FFF74D
:10591000AFFD68B9DBF8140000F0F000E02807D014
:105920002046514601F008FF02212046FFF790FB78
:10593000B5F85800B5F84E100130A5F85800481CCD
:10594000A5F84E00204601F083FEADE70000000000
:1059500080B5014690F82900C0070DD04A685AB1B9
:105960004AF64C10C2F200404069904202D0FFF764
:105970007FFD08B1012080BD002080BD0000000037
:10598000B0B584B0DDF828C0DDE9084E42B129B1D8
:105990000D68002D08BF0CF1040101E00CF10401B9
:1059A000CDE9004ECDF808C000F002F804B0B0BD5B
:1059B0002DE9F04F81B00446807B984615460128BA
:1059C0008A4605D04FF6BC00C0F6000008F0EAFF9A
:1059D0008DB11421204601F037FB0646C8B14AF6C6
:1059E0006C10C2F20040B0F85C100131A0F85C10FD
:1059F000002E60D165E0608913285ED84AF66C10ED
:105A0000C2F20040B0F85C100131A0F85C10FE203A
:105A100071E06089DDF82C906768132802D838A0FF
:105A200008F0C0FF45203870208987F8088087F883
:105A30000990D5F800B0C7F810B00A99797000F055
:105A4000F7FC81464AF66410C2F20040A7F80290C3
:105A50000021F980008800F0EBFC0A9A0B9B4EF6BF
:105A60006C71BAF1000F48EA0222C0F6000102EBA5
:105A700003224AF6641C18BF514612FA8BF2B88012
:105A800002EB1B4209684A44C2F2004C0244F9602E
:105A900012FA81F202EB114202F14500BCF800203B
:105AA000030C13FA80F00132ACF8002000EB104038
:105AB000C04378812EB1FE201DE060686D4600690C
:105AC00000900C994AF66C12C2F20042088CB2F8AF
:105AD000483003F10103A2F8483038B122898242EC
