:020000040800F2
:10000000804400209D01000869250008C101000806
:1000100065250008650F0008592A00080000000047
:100020000000000000000000000000009D25000806
:10003000251000080000000099250008D1250008BF
:10004000B7010008B7010008B7010008B7010008B0
:10005000B7010008B7010008B7010008B7010008A0
:10006000B7010008B7010008B7010008B701000890
:10007000B7010008B7010008B7010008B701000880
:10008000690F0008750F0008B7010008B7010008E4
:10009000B7010008B7010008B7010008B701000860
:1000A000B7010008B701000891260008B701000851
:1000B000B7010008B7010008B7010008B701000840
:1000C000B7010008B7010008B7010008B701000830
:1000D000B7010008412A00084D2A0008B7010008AE
:1000E000B7010008B7010008B7010008B701000810
:1000F000B7010008B7010008B7010008B701000800
:10010000B7010008B7010008B7010008B7010008EF
:10011000B7010008B7010008B7010008B7010008DF
:10012000B7010008B7010008810F0008B7010008F7
:10013000B7010008B7010008B7010008B7010008BF
:10014000B7010008B7010008B7010008B7010008AF
:10015000B7010008B70100088D0F0008B7010008BB
:10016000B7010008B7010008B7010008B70100088F
:10017000B7010008B7010008B7010008000000003F
:10018000B7010008B7010008DFF80CD000F038FC18
:1001900000480047718E01088044002006488047CF
:1001A00006480047FEE7FEE7FEE7FEE7FEE7FEE75C
:1001B000FEE7FEE7FEE7FEE77D260008890100086E
:1001C0007046694603F03CFCFFF7FEFF0C490878D7
:1001D00020B1401E0870491C085C704700210720B0
:1001E000ABBE7047064A1178022902D34FF0FF30A8
:1001F0007047034B5B1C5854491C1170704700003A
:10020000000000202DE9F05F0546002092469B4645
:1002100088460646814640241BE02846414647461C
:10022000224600F0B2F953465A46C01A914110D303
:1002300011461846224600F099F92D1A67EB01087D
:100240004F4622460120002100F090F917EB0009EB
:100250004E41201EA4F10104DFDC484631462A4607
:100260004346BDE8F09F00000048704708E00108E1
:1002700010B50446FFF7F8FF0068005D00F00100CC
:1002800010BDA0F16101192900D820387047000085
:10029000004870470CE0010840EA01039B0703D0C7
:1002A00009E008C9121F08C0042AFAD203E011F8B5
:1002B000013B00F8013B521EF9D27047D2B201E077
:1002C00000F8012B491EFBD270470022F6E710B55B
:1002D00013460A4604461946FFF7F0FF204610BDB4
:1002E00010B5044604E00B7800F8013B03B1491C4B
:1002F000521EF8D2204610BDCAB2401E10F8011F8F
:100300008A4202D00029F9D100207047421C10F81F
:10031000011B0029FBD1801A704710B5002200E0B4
:10032000521C835C8C5CA34201D1002BF8D1D8B263
:10033000E1B2401A10BD30B504460020034600E08B
:100340005B1C934203D2E05CCD5C401BF8D030BD17
:10035000FFF7E3BF034611F8012B00F8012B002A39
:10036000F9D11846704730B505460020034600E035
:100370005B1C934205D2EC5CC85C201A01D1002CB6
:10038000F6D130BD30B503461D783DB10A4612F8AE
:10039000014B1CB1AC42FAD15B1CF5E7181A30BD19
:1003A00010B508E00A4602E0A34208D0521C1378B8
:1003B000002BF9D1401C0478002CF3D1002010BD93
:1003C00007280FD2DFE800F00406080E0E0C0A0022
:1003D00005A070470AA0704713A070471DA0704782
:1003E00022A070472BA070474E6F206572726F720B
:1003F00020286572726E6F203D20302900000000B9
:1004000045444F4D202D2066756E6374696F6E20D4
:10041000617267756D656E74206F7574206F6620EC
:1004200072616E67650000004552414E4745202DC0
:100430002066756E6374696F6E20726573756C7477
:10044000206E6F7420726570726573656E74616280
:100450006C650000454E4F4D454D202D206F757445
:10046000206F66206D656D6F7279000045494E56AC
:10047000414C202D20696E76616C69642061726741
:10048000756D656E7420746F2066756E6374696F28
:100490006E000000556E6B6E6F776E206572726F26
:1004A0007200000000F0004230F000400AD0C10DA0
:1004B00001F56071C0F3160042EA0151C20840071D
:1004C0001143704700200146704701F0004330B4EB
:1004D00021F0004150EA010206D00A0DA2F5607237
:1004E000C1F31301002A02DC30BC00207047440F26
:1004F00044EAC104C100E01830BC00EBC25000F077
:1005000058B8A0E8004FF0C040F804DB01B5AFF3E5
:100510000080BDE8024001C10020704700F12C08B6
:100520000C4658F8040DAFF3008058F8040D8546CA
:10053000200008BF012038E9F00018E9004F70479B
:1005400030B50B46014600202022012409E021FAA3
:1005500002F59D4205D303FA02F5491B04FA02F5A0
:100560002844151EA2F10102F1DC30BD202A04DB73
:10057000203A00FA02F1002070479140C2F12003B6
:1005800020FA03F3194390407047202A04DB203AF5
:1005900021FA02F00021704721FA02F3D040C2F1A3
:1005A000200291400843194670470023036000F081
:1005B0006ABA0029A8BF7047401C490008BF20F054
:1005C0000100704710B4B0FA80FC00FA0CF050EA59
:1005D000010404BF10BC704749B1CCF1200421FADA
:1005E00004F411FA0CF118BF012121430843A3EBD5
:1005F0000C01CB1D4FEA00614FEA102042BF0020E2
:1006000010BC704700EBC35010440029A4BF10BCBD
:100610007047401C490008BF20F0010010BC704723
:10062000420005D0C0F3C7525242914201DC002083
:10063000704700EBC1507047F0B400F0004221F069
:10064000004120F00040CE0DC30DC1F3160141F46E
:100650000001C0F316004C42154640F40000761E1F
:1006600009E010EB440002D582F00042404288428B
:10067000F7D840005B1EB342F9DA18B1F0BC002194
:10068000FFF7A0BF2846F0BC70472DE9FE4F80461B
:1006900081EA0300C00F0C46009021F0004123F0D6
:1006A0000045B8EB0200A94105D2404621469046DC
:1006B0001C460B46024623F00040104347D0270D4E
:1006C000C7F30A00C3F30A510290401A0190402870
:1006D0006BDAC3F3130040F4801B0098924620B1FC
:1006E0000023D2EB030A63EB0B0B01985946C0F1D0
:1006F00040025046FFF73AFF06460D46504659461F
:10070000019A00F08FF910EB08006141002487EA9C
:10071000115284EAE7731A4340D0009A62B3019AF7
:10072000012A4FEA075215DC001B61EB02014FF072
:10073000004202EA0752CDE90042001C41F5801157
:1007400032462B4600F0E3F903B0BDE8F08F404697
:100750002146F9E7001B61EB0201001C41F5801303
:1007600000185B412018A2F5001747EB030140EA8F
:10077000D570B6196D4111E06D084FEA360645EAAD
:10078000C0754FEA0752001B61EB0201001C41F5E6
:10079000801149084FEA30000019514132462B467A
:1007A00003B0BDE8F04F00F0A3B90098012240006B
:1007B0000023D0EB020263EBE073009821464FEA7E
:1007C000E074B8EB000061EB0401E9E783F000435B
:1007D0005BE781F0004158E72DE9FE4F81EA030411
:1007E00004F0004421F0004100944FF0000B23F08E
:1007F000004350EA01045ED052EA03045BD0C3F325
:100800000A54C1F30A552C44A4F2F3340194A0FB1A
:100810000254C1F3130141F48011C3F3130343F4F1
:10082000801301FB024400FB034E840A970A44EA4A
:10083000815447EA8357A4FB076802958D0A05FB9C
:1008400007854FEA932C04FB0C542705029D4FEAC1
:10085000065847EA1637B5EB08056EEB070C870E0E
:10086000920E47EA811742EA8312A7FB0201B6EB18
:100870000B0164EB00042B0D43EA0C335E1844EBD0
:100880001C50DA465146E7FB0201C5F313044FEA58
:100890000B3343EA14534FEA0432019C43EA060344
:1008A000A4F10C040294009CCDE900B400F02FF9EF
:1008B00003B0BDE8F08F00200146F9E72DE9F04DC7
:1008C00081EA030404F0004B21F0004514464FF088
:1008D000000A23F0004150EA050220D054EA010248
:1008E0001DD0C5F30A570246C5F31303C1F3130025
:1008F000C1F30A5640F4801543F48013A7EB0608B1
:10090000101BD64608F2FD3873EB050002D308F140
:10091000010801E092185B41B8F1000F03DA0020F2
:100920000146BDE8F08D00204FF480110646844654
:100930000EE0171B73EB050705D3121B63EB0503D2
:1009400006434CEA010C49084FEA300092185B411B
:1009500050EA0107EDD152EA030012D082EA040006
:1009600083EA0501084305D0101BAB4106D20122E2
:10097000002306E000224FF0004302E06FF0010286
:1009800053101AEB06004CEB085110EB0A0041EB38
:100990000B01BDE8F04D00F0ABB8C1F30A52C1F352
:1009A000130140F2FF3341F480119A4202DA002031
:1009B0000146704740F233439A42A2F2334202DCCE
:1009C0005242FFF7E2BDFFF7D1BD000030B5041E73
:1009D00071F1000404DB4FF00044404264EB01017C
:1009E000141E73F1000405DB1C464FF00043524215
:1009F00063EB0403994208BF904230BD002070476A
:100A0000064C074D06E0E06840F0010394E807005B
:100A100098471034AC42F6D3FFF7BAFB20F4010834
:100A200040F40108202A06DBCB17203A41FA02F0F5
:100A300043EAE07306E041FA02F3D040C2F120023B
:100A400091400843194670470FB40B0010B58AB0A7
:100A50000FA900910E994FF00004234ACC60214C5D
:100A6000CDE9064200D004236FF00042CDE9013207
:100A70001E4A089202466B46002000F02BF90AB08D
:100A800010BC5DF814FBF0B585B007464FF0FF30A1
:100A90000091CDE901011E46002015460C46049048
:100AA0003B466A46314604A8FFF7CEFF0499034649
:100AB000601825B109B1024600E022462A600029EB
:100AC0000ED0002B02DD0099814209D00094001B5A
:100AD000CDE901043B466A46314604A8FFF7B4FF5E
:100AE00005B0F0BD0D0F00082B0F000871020008C3
:100AF00010B5141E73F1000408DA401C41F1000126
:100B000092185B411A4301D120F0010010BD2DE97C
:100B1000F04D92469B4611B1B1FA81F202E0B0FA73
:100B200080F220329046FFF721FD04460F4640EA4E
:100B30000A0041EA0B0153465A46084313D01146B6
:100B400053EA010019D0C8F140025046FFF71DFDDD
:100B500005460E46504659464246FFF707FD0843F4
:100B600005D0012004E020463946BDE8F08D002084
:100B7000054346EAE0762C4337430A986305E40AC6
:100B8000A0EB08000022FD0A44EA47540A3002D5CF
:100B900000200146E9E7010510196941DDE9084532
:100BA00000196941BDE8F04DA2E700002DE9FF4FB3
:100BB000087883B09946FF2805D0491C2D2804D019
:100BC0000024002008E000200BE00124F9E700EBFE
:100BD000800003EB4000491C0B78FF2BF7D104B1D8
:100BE000404200230293147819461D462D2C01D053
:100BF0002B2C04D1521C2D2C13D000240294AA4675
:100C00001478FF2C0FD00A25A3FB057801FB058182
:100C10004FF0000C03FB0C11521CE3194AEB0101CD
:100C2000EEE70124EAE7814453EA010002D019F516
:100C3000C87F06DA03980021C0E9001107B0BDE8BB
:100C4000F08F0025AE4E2F46DFF8B882184600F030
:100C50007DF9CDE90001B9F1000002DAC9F1000423
:100C600000E004460023A74A1AEB030B42EB045AA8
:100C700012E0E00707D02A46334638464146FFF7E0
:100C8000ABFD074688462A46334610461946FFF70D
:100C9000A3FD05460E466410002CEAD1DDE90001F3
:100CA000B9F1000F5A46534606DAFFF707FE3A46F7
:100CB0004346FFF703FE05E0FFF78EFD3A46434645
:100CC000FFF78AFD029A0AB181F00041039AC2E956
:100CD0000001B3E72DE9FF4F1F468DB0D7E901466C
:100CE0004FF0FF382E2045464FF000090B90B969B0
:100CF0006D1C0E988847396A824688470028F6D1CD
:100D0000BAF1FF3F0AD024F4D064002E11DDBAF10D
:100D10002B0F08D0BAF12D0F0BD102E0404611B0D5
:100D20008DE744F48064B9696D1C0E98884782464B
:100D3000761E6946600501D52D2000E02B208DF838
:100D4000000001F1010B0DF1200809E0B9696D1CEB
:100D50000E98884782460F9844F40074761E05600A
:100D6000002E02DDBAF1300FF0D00B998A453ED14A
:100D700044F0800406E00F99681CA9F1010944F4CD
:100D800000740860B9696D1C761E0E98884782460B
:100D90003028F0D02BE00B998A4505D1200603D4EA
:100DA00044F08004761E18E050461CF0E9FB08B3BE
:100DB0000DF11302761EAAF1300044F4007493453D
:100DC00006D20BF8010B200607D5A9F1010003E0BC
:100DD000200602D409F101008146A00502D50F9931
:100DE000681C0860B9696D1C0E9888478246002E01
:100DF000D1DC53E0002E51DDBAF1650F02D0BAF11B
:100E0000450F4BD1A00549D5B9696D1C24F4407438
:100E1000761E0E9888478246002E0CDD2B2804D0C3
:100E2000BAF12D0F07D144F48074B9696D1C0E9886
:100E300088478246761EE00501D52D2100E02B2152
:100E400008F8011BCDF82C8021E00DF12901761E58
:100E500044F4007488450CD2AAF1300010F0FF0071
:100E600088F8000002D10B99884509D908F10108DA
:100E700006E0E00501D5244801E042F20F7081460A
:100E8000B9696D1C0E98884782460F980560002E40
:100E900004DD50461CF074FB0028D6D1F9690E9889
:100EA0008847FF208BF8000088F80000002006909B
:100EB00007904B466A4608A906A8FFF777FEA005EB
:100EC00002D46FF001002AE714F0240F0AD0E007E3
:100ED00014D1DDE906123868031D3B600068C0E9E3
:100EE00000120BE0DDE90601FFF7EFFA0146E0072B
:100EF00004D13868021D3A600068016028460EE798
:100F0000000014400000F03FF1D8FFFF426842B1FA
:100F1000016811F8013B23B1521EC0E900121846C6
:100F200070470121C160881E704742685AB1C3688A
:100F3000016843B983688B4205D0491E521CC0E941
:100F40000012002070474FF0FF3070470EB540F29E
:100F5000334202920022CDE900221346FFF7D7FD6B
:100F600003B000BDFEE7000040F25020C2F20000D6
:100F700000F028B940F2B020C2F2000000F022B91F
:100F800040F29010C2F2000000F01CB940F2F010E4
:100F9000C2F2000000F016B9D0F800C06FF00F02E6
:100FA0004AF6AB2352FA8CF2CAF6AA230146A2FBF8
:100FB0000330000905A31B5C40F2FF302CEA00005F
:100FC0005F2A88BF0430C1E9160370470006101677
:100FD000000610168269816AB2F5005F06D06AB910
:100FE000022912D0012914D0D1B90EE0032917D853
:100FF000DFE801F0020B020F0120704703293CBF1C
:10100000012070471CBF00207047C06AC0F3006019
:101010007047C06AA0F1C070B0FA80F04009704714
:10102000002070477047000072B600BFFEE7000066
:10103000F0B583B005690446686E6A6C01680260A9
:1010400095F8392069664179033A032A01F0BF0215
:101050006864427108D895F8382001F0870102F0E1
:1010600018021144417104E001F00701032908BF8F
:10107000A8670179019041F040008DF8080001A9AE
:101080002046022210F08EFE0179090738D095F82B
:101090003E604FF0000C46F0020185F83E10E1681A
:1010A000E77901F1080284F807C0E26002680A608B
:1010B0000079E2680871019902F10800E0601160AE
:1010C0009DF80800E16810716069E369428C42F0A4
:1010D00080024284C81A44F68141A0F11003C0F690
:1010E000000120460022CDF800C009F04DFA6169E8
:1010F0004A8CE77122F080024A8485F83E6008B984
:1011000003B0F0BD04A120460AF088FAE068083870
:10111000E06003B0F0BD00BF5F5F676300000000E8
:1011200070B5866D044600F063FA94F83510022914
:1011300025D105462068216C026822F01602026063
:10114000426922F08002426109B9A16C19B10168BB
:1011500021F008010160016821F00101016000BF78
:1011600020680068C0070ED000F042FA401B062835
:10117000F6D320206065032084F835000CE0802041
:101180006065012008E0E06D3F2101FA00F0B060E9
:10119000012084F835000020002184F8341070BD4F
:1011A00090F83510022909D1052180F83510006822
:1011B000016821F001010160002070478021416534
:1011C00001207047F0B581B004460020009040F245
:1011D0001C00C2F200000268D4E9166048F2B513A0
:1011E00037680821C1F64E3381403942A2FB0325FE
:1011F0000CD0226813685B0708D5136823F004033A
:101200001360B160616D41F00101616501218140B0
:10121000394208D022685269120604D5B160616D66
:1012200041F00201616504218140394208D0226801
:101230001268920704D5B160616D41F004016165E7
:1012400010218140394215D020680268120711D55B
:10125000B16002680168520306D4C90506D401686A
:1012600021F00801016001E0080342D4216C09B1BA
:1012700020468847E16D202000FA01F23A4244D02E
:1012800020680368DB0640D5B26094F83530026808
:10129000052B1ED122F016020260426922F0800264
:1012A0004261226C0AB9A26C1AB1026822F00802EB
:1012B00002603F208840B060012084F83500216D35
:1012C0000020002984F8340040D02046884701B02F
:1012D000F0BD0168520310D4C90512D4016821F091
:1012E00010010160012084F83500002084F83400EA
:1012F00007E0A16C0029BBD1BCE7080301D4616CF5
:1013000000E0E16B09B120468847606DF0B1606D87
:10131000C00717D0052084F835002068A90A0268A4
:1013200022F00102026000BF009A01328A4200925C
:1013300002D80268D207F7D1012084F835000020D6
:1013400084F83400E16C09B12046884701B0F0BD53
:101350002DE9F041044600F04BF9C4B105460220E6
:1013600084F835000020216884F83400086820F0F3
:101370000100086026683068C0070BD000F038F91B
:10138000401B0528F6D903212022032042E001203A
:10139000BDE8F081306848F23F01CFF21001251D11
:1013A00000EA010C2ECDD4E9050E41EA0C011143EF
:1013B00019432943D4E90778084340EA0E01606ADB
:1013C0003943042841EA080103D1D4E90B2311432E
:1013D000194331607169042821F0070141EA0005D1
:1013E0000CD1D4E90A1045EA010538B12046FFF7CF
:1013F000F1FD18B10121402201200BE0204675616A
:10140000FFF7CAFDE16D3F2202FA01F1816000227F
:1014100001210020626584F83510BDE8F0810000EC
:10142000B0B5044600F0E4F8054640F24000C2F2D0
:1014300000000078611C18BF044400BF00F0D8F819
:10144000401BA042FAD3B0BD2DE9F04F83B000F1AC
:101450003E4202F1FF724FEAB22241F6004701928A
:10146000C4F2020708224FF0010E00254FF0000AD7
:101470004FF00008B84208BF072200920AE000BF00
:1014800008F101080AF1040AB8F1100F05F102058C
:1014900000F0A4800C680EFA08FB14EA0B09EFD0E8
:1014A0004C6804F0030CACF1010EBEF1010F11D831
:1014B0000322876802FA05F6CA68B743AA403A438E
:1014C00082604268C4F3001722EA0B0207FA08F7A9
:1014D0003A434260BCF1030F1CD0C26803238E68FC
:1014E00003FA05F7BA4306FA05F73A43BCF1020FCF
:1014F000C2600FD16FF0030202EA580202440AF000
:101500001C060F23176A03FA06F40B69A743B340BE
:101510003B431362026803234F68AB409A4307F0D2
:101520000303AB401A4317F4403F4FF0010E026033
:10153000A6D0002243F644030292C4F202031A68C2
:1015400043F6004442F480421A601A68C4F201046F
:1015500002F480420292029A28F003024FF6084BEE
:101560002244CFF6FF7B52F80B300AF00C070F260F
:10157000BE4023EA060C019B009E072B38BF1E4687
:1015800006FA07F747EA0C0342F80B30A2684B68EB
:1015900042EA090743F60C4CDE0258BF22EA09076B
:1015A000A760C4F2010CDCF800209E0242EA0907A1
:1015B00058BF22EA0907CCF8007062689E0342EA2D
:1015C000090758BF22EA090767602268DB0342EA7D
:1015D000090358BF22EA0903236051E703B0BDE8BD
:1015E000F08F0000002A08BF0904816170470000E5
:1015F00040F27C40C2F200000068704740F24000B8
:1016000040F27C41C2F20000C2F2000100780A6898
:10161000104408607047000080B543F60040C4F2F3
:101620000200016841F400710160016841F48061C9
:101630000160016841F480710160032000F060F8EE
:101640000F2000F005F800F02BF8002080BD00000E
:10165000B0B540F24002C2F2000240F21C01127822
:10166000C2F200014FF47A730968B3FBF2F2044648
:10167000B1FBF2F1084600F0F9FA0F2C4FF001052A
:101680000CD858B94FF0FF3021460022002500F059
:1016900027F840F24400C2F2000004602846B0BDC2
:1016A00082B0002043F640010190C4F202014A6872
:1016B00042F480424A604A6802F480420192019AF0
:1016C0000090086840F080500860086800F0805082
:1016D0000090009802B0704780B501F0BFF980BD5E
:1016E00070B514460D46064601F0C8F92946224653
:1016F00000F03CFF0146304601F0C8F970BD000023
:1017000080B501F0D5F980BD2DE9F041002800F049
:101710008B8043F60808C4F202080446D8F8F803A0
:101720000D4600F00700884207D288F8F853D8F831
:10173000F80300F00700A84276D12068810717D58A
:10174000410705D5D8F8001041F4E051C8F8001061
:10175000010705D5D8F8001041F46041C8F8001021
:10176000D8F80010A26821F0F0011143C8F8001069
:10177000C0073FD1D8F8F80300F00700A84207D906
:1017800088F8F853D8F8F80300F00700A8424BD1C6
:101790002068410707D5D8F80010E26821F4E0512D
:1017A0001143C8F80010000708D5D8F800002169D7
:1017B00020F4604040EAC100C8F8000000F07EF864
:1017C000D8F800104EF24902C1F30311C0F601022D
:1017D000515C40F21C0220FA01F140F24400C2F2D6
:1017E00000000068C2F200021160FFF731FF002024
:1017F000BDE8F0816068811E022907D258F8081CF4
:1018000089015CBF0120BDE8F08110E0012807D10B
:1018100058F8081C89035CBF0120BDE8F08106E090
:1018200058F8081C890702D40120BDE8F081D8F8D7
:10183000001021F003010843C8F80000FFF7D8FEAC
:10184000064641F2883700BFD8F80000616800F012
:101850000C00B0EB810F8DD0FFF7CAFE801BB842A1
:10186000F2D90320BDE8F08140F21C00C2F2000072
:101870000068704780B5FFF7F7FF43F60801C4F230
:10188000020109684EF25902C1F38221C0F6010239
:10189000515CC84080BD000080B5FFF7E5FF43F60E
:1018A0000801C4F2020109684EF25902C1F3423143
:1018B000C0F60102515CC84080BD000010B543F67F
:1018C0000404C4F20204606800F00C0008280AD086
:1018D000042819BF42F20040C0F2F40047F640006D
:1018E000C0F27D1010BD206821682368490247F6C8
:1018F0004001C0F27D1100F03F02C3F388105CBFCD
:1019000042F20041C0F2F401A1FB00010023FEF706
:1019100079FC21680222C1F3014102EB4101B0FBD5
:10192000F1F010BD2DE9F04182B0002800F0A28056
:101930000446007843F60006C007C4F2020643D00E
:10194000B06800F00C00042805D1306880033BD556
:101950006068C8BB8EE0B06800F00C00082802D1B7
:1019600070684002F1D46568B5F5A02F0AD0B5F5CE
:10197000803F0BD0306820F480303060306820F435
:10198000802006E0306840F480203060306840F409
:1019900080303060FFF72CFE002D054611D000BFCF
:1019A0003068800310D4FFF723FE401B6428F7D96A
:1019B00022E100BFFFF71CFE401B64284FF003002C
:1019C00055D830688003F5D4207880071AD5B068E0
:1019D00010F00C0F09D0B06800F00C00082840F09F
:1019E0008A807068400200F186803068800702D5E6
:1019F000E06801283ED13068216920F0F80040EA13
:101A0000C10030602078000738D4207840074CD4DB
:101A1000A5695DB3B06800F00C00082840F09E8016
:101A2000012D27D07068E16900F480028A4221D13B
:101A3000216A00F03F028A421CD147F6C071626AF7
:101A40000140B1EB821F15D1A26A0023CFF6FF73CC
:101A500003EBC23200F440316FF30F02914209D11F
:101A6000E16A00F07060B0EB016F03D1002002B0BA
:101A7000BDE8F081012002B0BDE8F0816069002876
:101A800040F20000C4F2472057D00121C0F8801E68
:101A9000FFF7AEFD054600BF706F8007B5D4FFF7B6
:101AA000A7FD401B0228F7D9A6E0306C10F0805843
:101AB0000AD100200190306C40F080503064306CCE
:101AC00000F080500190019847F20007C4F200072F
:101AD0003868C00524D4386840F480703860FFF757
:101AE00087FD05463868C0051AD4FFF781FD401B05
:101AF0000228F7D980E0E068002851D00020C4F225
:101B0000472001210160FFF773FD0546306880071B
:101B10003FF571AFFFF76CFD401B0228F6D96BE073
:101B2000A568052D50D0012D52D0306F20F0010056
:101B30003067306F20F004004DE00021C0F8801EB7
:101B4000FFF756FD054600BF706F80077FF55DAF5C
:101B5000FFF74EFD401B0228F6D94DE00027C4F2E6
:101B6000472700203866FFF743FD022D05460BD1BD
:101B70003068800158D5FFF73BFD401B02284FF02D
:101B80000300F5D973E700BF306880017FF56EAFC1
:101B9000FFF72EFD401B02284FF00300F4D966E743
:101BA0000020C4F2472000210160FFF721FD054617
:101BB000306880077FF526AFFFF71AFD401B02282B
:101BC0004FF00300F4D952E7306F40F00400306763
:101BD000306F40F001003067FFF70AFD002D054629
:101BE00041F2883714D000BF306F800713D4FFF75D
:101BF000FFFC401BB842F7D9032002B0BDE8F081DA
:101C0000FFF7F6FC401BB8424FF003003FF62FAF42
:101C1000306F8007F4D4B8F1000F7FF4F9AE306C68
:101C200020F080503064F3E604F11C052FCD08430A
:101C30000021CFF6FF7140EA821001EBC3316FF350
:101C40000F0140EA05600843706001203866FFF725
:101C5000CFFC0446306880013FF508AFFFF7C8FCB1
:101C6000001B02284FF00300F4D900E780B500F014
:101C700097FC80BD7047000070470000002804BF3B
:101C80000120704710B5044690F83D0028B90020A7
:101C900084F83C00204600F01FF8022084F83D0044
:101CA0002068211D00F0FAFC012084F8460084F829
:101CB0003E0084F83F0084F8400084F8410084F836
:101CC000420084F8430084F8440084F8450084F816
:101CD0003D00002010BD000080B582B0006844F6D1
:101CE0000001C4F2010188421CBF02B080BD002087
:101CF000019043F64400C4F202000168002241F45E
:101D0000802101600068002100F48020019001988A
:101D10001A20FFF7E5FC1A2002B0BDE88040FFF76B
:101D2000DBBC000070470000B0B504460068C16825
:101D3000026902EA0105A9071DD4680731D4280702
:101D400047D4E8065CD4E80773D128067BD468063C
:101D500006D520686FF040010161204600F084F84C
:101D6000A80658BFB0BD20686FF020010161204671
:101D7000FFF782FFB0BD6FF0020101610121217701
:101D80008069800703D02046FFF7CCFF05E020469E
:101D900000F064F8204600F063F800202077680720
:101DA000CDD520686FF0040101610221217780699F
:101DB00010F4407F03D02046FFF7B4FF05E0204633
:101DC00000F04CF8204600F04BF800202077280760
:101DD000B7D520686FF00801016104212177C0693F
:101DE000800703D02046FFF79DFF05E0204600F066
:101DF00035F8204600F034F800202077E806A2D518
:101E000020686FF01001016108212177C06910F48A
:101E1000407F03D02046FFF785FF05E0204600F015
:101E20001DF8204600F01CF800202077E8073FF45A
:101E30008CAF20686FF001010161204600F012F8BC
:101E400028067FF584AF20686FF08001016120468D
:101E5000FFF710FF68067FF583AF7AE77047000051
:101E60007047000070470000704700007047000096
:101E700070470000B0B582B0036804461868D9689E
:101E80005A6900F02F05202D01F0200505D125B15C
:101E9000204600F0D9FC02B0B0BD5FEA007C1EBF56
:101EA00002F0010E01F4907212EB0E024AD1226B85
:101EB0000840C1063DD5012A3BD100200190186899
:101EC00001905868019001985869400642D4A08D4D
:101ED000E18DE28D002A1CBF401A5FEA004101D16A
:101EE00002B0B0BD216851E8031F226821F490714F
:101EF00042E80313002BF5D1216851E8051F226841
:101F000021F0010142E80513002BF5D1202184F8CE
:101F100042100021216300BF216851E8031F22689D
:101F200021F0100142E80313002BF5D10221616377
:101F300054E0010658D44006D2D5204600F078FC83
:101F400002B0B0BDC20718BF11F4807251D1420770
:101F500055D45BE0E06B016849688AB2002ABFD0C3
:101F6000A38D9A42BCD2E185C069B0F5807F30D0A4
:101F7000206850E8030F216820F4807041E80302D4
:101F8000002AF5D1206850E8050F216820F00100F3
:101F900041E80502002AF5D1206850E8050F2168C4
:101FA00020F0400041E80502002AF5D1202084F805
:101FB00042000020206300BF206850E8030F216822
:101FC00020F0100041E80302002AF5D1E06BFFF792
:101FD000A7F802206063A08DE18D401A81B22046EF
:101FE000FFF744FF02B0B0BD204600F0FFFC02B096
:101FF000B0BD626C42F001026264420706D5BEF1D8
:10200000000F03D0626C42F002026264820706D5C0
:10201000BEF1000F03D0626C42F004026264BCF1B6
:10202000000F06D55EEA050203D0626C42F008029A
:102030006264626C002A3FF453AF0840800602D508
:10204000204600F001FC20684069616C00F040000F
:1020500001F00801401827D0204600F0C1FB20689D
:10206000406940061BD500BF206850E8050F216875
:1020700020F0400041E80502002AF5D1E06B70B184
:1020800042F2D171C0F600010165FFF789F800281E
:102090003FF426AFE06B016D884702B0B0BD20462B
:1020A000FFF7E6FE02B0B0BD2046FFF7E1FE0020DC
:1020B000606402B0B0BD0000002804BF012070477A
:1020C00010B5044690F8410028B9002084F840007B
:1020D000204600F021F8242084F841002068C168DF
:1020E00021F40051C160204600F012FC2068016913
:1020F00021F490410161416921F02A014161C168E7
:1021000041F40051C16000202021606484F8411036
:1021100084F84210606310BD2DE9F04387B0044697
:10212000006844F20041C4F2000100268842CDE973
:102130000566CDE90366029671D041F20001C4F252
:102140000101884240F0E180002643F6300001960C
:10215000C4F20200416946F2880841F01001416171
:102160004169C4F2020801F0100101910199019640
:10217000016841F001010160006802A900F001005E
:10218000019001984FF4C06002900220CDE903064F
:1021900003200590072006900020C4F20200FFF7FC
:1021A00053F940F2901508F56E70C2F200054FF039
:1021B00000674FF480694FF48071C5E90007284635
:1021C000C5E90266C5E90496C5E90661C5E9086680
:1021D000FFF7BEF8002818BFFEF726FFE563AC63E3
:1021E00040F2F01508F58660C2F200054021C5E90D
:1021F000000705F1080080E842022846C5E90566A7
:10220000C5E907666E62FFF7A3F8002870D0FEF7F5
:102210000BFF40F2F0152526C2F200056BE043F6F5
:1022200030000196C4F20200016946F2880841F4C8
:10223000003101610169C4F2020801F40031019129
:1022400001990196016841F008010160006802A946
:1022500000F0080001900198602002900220CDE972
:10226000030603200590072006900020C4F2020018
:1022700000F54060FFF7E8F840F25025C2F2000593
:102280004FF480704FF000674FF48069C5E9066035
:102290002846C5E90087C5E90266C5E90496C5E98F
:1022A0000866FFF755F8002818BFFEF7BDFEE56386
:1022B000AC6340F2B02508F11800C2F200054021DD
:1022C000C5E9000705F10800002280E8060228465B
:1022D000C5E90522C5E907226A62FFF739F848B166
:1022E000FEF7A2FE40F2B0252626C2F2000502E06B
:1022F000252600E02626304600210022A563AC6397
:10230000FFF7EEF93046FFF7E7F907B0BDE8F083D5
:102310007047000070470000B0B582B00DF022FC9D
:1023200010B3044616F072FD40F22001C2F2000123
:102330002046002200250DF087FC4EF25451C0F6D5
:10234000010120460DF0F6FB40B9204600214FF078
:10235000FF3200230095019515F056FE204602B08D
:10236000BDE8B04014F062BEFEE7000080B582B068
:10237000002043F630010190C4F202010A6842F4E1
:1023800000120A600A6802F400120192019A009099
:102390000868002240F4800008600868002100F40A
:1023A0008000009000981020FFF79AF91020FFF7A6
:1023B00093F9112000210022FFF792F91120FFF775
:1023C0008BF93A2000210022FFF78AF93A20FFF723
:1023D00083F9462000210022FFF782F9462002B04F
:1023E000BDE88040FFF778B92DE9F04387B00027BA
:1023F00043F6300006970197C4F20200016841F2EB
:10240000000541F0100101600168C4F2020501F00D
:1024100010010191019901970168002241F08001AA
:10242000016001684EF2040601F0800101910199FA
:102430000197016841F001010160016801F00101AB
:10244000019101990197016841F00801016000685C
:102450004EF2040100F00800019001982846FFF7B1
:10246000C1F8A5F580642046802101224FF0800844
:102470004FF00109FFF7B6F8CDE9026902AE284630
:102480003146CDE90477FEF7DFFF4FF4E050CDE9A8
:102490000207284631460497FEF7D6FF0220059032
:1024A00020463146CDE902890497FEF7CDFF07B0FB
:1024B000BDE8F08380B540F2103044F60001C2F26E
:1024C0000000C4F20101A722002340F2E73C80E8AB
:1024D0000E10802103618161FFF7D0FB002808BF47
:1024E00080BDBDE88040FEF79FBD000080B540F292
:1024F000583041F20001C2F20000C4F20101002391
:102500004FF00C0C4FF4E13280E80E00C0E90333C9
:10251000C0E905C3C361FFF7CFFD002808BF80BD38
:10252000BDE88040FEF780BD80B540F2A03044F2A7
:102530000041C2F20000C4F2000100234FF00C0C75
:102540004FF4E13280E80E00C0E90333C0E905C36F
:10255000C361FFF7B1FD002808BF80BDBDE8804022
:10256000FEF762BDFEE70000FEE7000000F0070096
:1025700080F00703042B28BF04234FF0FF3C0338EF
:102580000CFA03F338BF0020994381400CFA00F0A5
:1025900022EA0000084370477047000070470000BF
:1025A000B0B501380024B4EB106F1CBF0120B0BDE2
:1025B0004EF21005CEF2000568604FF0FF300F219B
:1025C00000F064FA0720AC6028602046B0BD00002F
:1025D000FFF714B8B0B592B0002443F640000B9456
:1025E000CDE90944CDE907440594CDE90344CDE99B
:1025F00001440094C4F202000168022541F08051B8
:102600000160006800F080500090009847F20000E0
:102610000094C4F20000016841F480410160006848
:1026200000F48040009000980120099010200A904A
:1026300008200E90A820CDE90F050420119006A8CF
:102640000695CDE90C54FFF76DF910B172B600BFD5
:10265000FEE70F20CDE901054FF4A05004904FF4A0
:102660008050059001A805210394FFF74DF810B1A3
:1026700072B600BFFEE712B0B0BD00004EF6885043
:10268000CEF20000016841F4700101607047000063
:1026900040F21030C2F20000FFF746BB10B540F622
:1026A000FF3E0368C4F2000E40F2004C7045C4F2D5
:1026B000010C0FDCB0F1804F19D040F20042C4F29F
:1026C0000002904213D040F60002C4F20002904291
:1026D0000DD010E040F60042C4F20002904206D055
:1026E000604504D00022C4F20102904203D14A683E
:1026F00023F07003134341F6FF72C4F200029042CC
:102700000DDC70451FDCB0F1804F41D040F200423B
:10271000C4F2000290423BD040F6000221E043F6B2
:10272000FF72C4F20102904220DC42F20002C4F2C5
:10273000000290422CD00022C4F20102904227D025
:10274000604525D028E040F60042C4F200029042E5
:102750001ED041F60002C4F20002904218D041F6A9
:102760000042C4F20002904212D015E044F200028E
:10277000C4F2010290420BD044F60002C4F20102FE
:10278000904205D044F20042C4F20102904203D1CB
:10279000CA6823F44073134323F080024B69D1F8D5
:1027A00000E08C681A430260C46240F48062C0F8A2
:1027B00028E0624504BF09690163012141610169A3
:1027C000C90708BF10BD016921F00101016110BDF9
:1027D00080B5806B0021C185C184FFF749FB80BDB6
:1027E000016851E8031F026821F4907142E8031365
:1027F000002BF5D1016851E8051F026821F00101A5
:1028000042E80513002BF5D1016B01290AD100BF65
:10281000016851E8031F026821F0100142E8031328
:10282000002BF5D1202180F8421000210163704770
:1028300080B50168CA6822F04002CA60202180F891
:102840004110FFF767FD80BD80B582B090F842105F
:1028500022291ED18268B2F5805F02D10169002968
:102860004AD0816AB2F5805F07D00AB9026922B105
:102870000268526802F07F0201E0026852680A7042
:102880000121826A11448162C18D01390A04C18526
:1028900001D002B080BD0168CA6822F02002CA607F
:1028A000CA6822F48072CA604A6922F001024A6151
:1028B000202180F8421000214163026B012A23D1BC
:1028C000016300BF016851E8031F026821F0100195
:1028D00042E80313002BF5D101680A68D20606D539
:1028E000002201920A680192496801910199818D43
:1028F000FFF7BCFA02B080BD0168826A49686FF3D5
:102900005F2111800221BCE7FFF702FD02B080BD0C
:1029100010B504460068D4E902C22369016921F4B4
:10292000405111430161626943EA0C01E3691143BB
:10293000C268194349F20C639A431143C16041696B
:10294000A26921F4407141F20043114340F48062D6
:10295000C4F201039A42416102D1FEF79DFF01E0FA
:10296000FEF788FFE16963681922B1F5004FA0FB0B
:1029700002011CD15A00DB0FFDF744FC48F21F5145
:10298000C5F2EB11A0FB01235A096FF0630302FBB0
:102990000300322303EBC000A0FB01014FF4F870E9
:1029A00000EA111000EB0210C1F342111AE09A0084
:1029B0009B0FFDF727FC48F21F51C5F2EB11A0FB5E
:1029C00001235A096FF0630302FB0300322303EB78
:1029D0000010A0FB0101F02000EA511000EB0210F2
:1029E000C1F3431122680843906010BD90F8411074
:1029F000212923D18168B1F5805F01D1016931B10D
:102A0000016A02684B1C03620978516007E0016AA1
:102A1000036831F8022B6FF35F225A600162C18CA8
:102A200001390A04C18418BF70470068C16821F0E9
:102A30008001C160C16841F04001C1607047000081
:102A400040F25830C2F20000FFF714BA40F2A03052
:102A5000C2F20000FFF70EBAFEE70000002848BFF0
:102A6000704700F01F01012202FA01F14EF200123C
:102A70004009CEF2000242F8201070474EF60C508A
:102A8000CEF200000068C0F3022070474EF61453E7
:102A900000F00F02CEF2000309011A4400F1604376
:102AA000B0F1FF3FC8BF03F56442117070470000EA
:102AB0004EF60C51CEF200010A684FF6FF031A40A1
:102AC00060F30A2242F0806040F0FD7008607047B9
:102AD0002DE9F04F87B0044680682768D0F8209031
:102AE000C06A92460D4609F01DFD0646007903288E
:102AF0000DD1D6F800B0E069834508DA386B9AF852
:102B0000042000EBCB0108795040800677D0A06804
:102B1000D4F81CB00322C16A049757F8108F8DF8BF
:102B200018200DF1140C48462A463346CDF814B04F
:102B3000CDF800C009F0A2FC396A6FF07E4008228F
:102B400034A6CDE9002048465A463B4602960DF091
:102B500047FA39683862414533DDA1EB08026FEA74
:102B6000080312F003070B4416D008F1010200EB32
:102B7000C8060025012F35710FD008F1020600EBC1
:102B8000C2021571022F324607D000EBC60700269D
:102B900008F103023E7100E04246032B11D36FF0AF
:102BA0000B0303EBC203002700EBC2060432C51877
:102BB0008A4203F1200337712F7685F8207037772A
:102BC000F2DBDAF8001040F83B109AF8041000EB42
:102BD000CB000171E0699AF8041001304906E06108
:102BE00014D504994879800610D5DAF80020507978
:102BF00010F0180F0AD0484606F0D8FB06E0002077
:102C000052460FF0C9FD00283FF481AF584607B087
:102C1000BDE8F08F636F6E7374616E7473000000B3
:102C200070B51C788D1AA4F11206022EC6690AD25C
:102C30006A1C30461946002D48BF00220CF07AFB72
:102C4000012D0DDA12E01CB1304619460AF0A8FF3A
:102C5000012D0BDB96F8341030462A460BF0CAFBE8
:102C600030462946BDE870400CF0F4B996F83400BF
:102C7000284486F8340070BD2DE9F04F87B0C46950
:102C8000049094F832000391014600BF012912DB41
:102C9000A268A36A126BCF18126802EB071717F825
:102CA0000B6C4F1E032E3946F0D0D91902EB0111DF
:102CB00089794F1C00E0002703990129C0F28E801A
:102CC0004FF27F2500264FF00008C0F6010500BF37
:102CD000A268411C84F83210116BA26A096852FA8A
:102CE00080F001EB001989F80670D4F800B0D9F82B
:102CF0000C00059706905F46049857F820AF0C2308
:102D0000006ADBF84810B4F93020009347F6FF73EF
:102D100001933B4602950DF063F93968CBF8480002
:102D2000514530DDA1EB0A0212F00303524617D0E1
:102D30000AF101020AEB4A07012B40F827600FD085
:102D40000AF1020702EB420240F82260022B3A46E7
:102D500006D007EB47030AF1030240F8236000BFE7
:102D60006FEA0A030B44032B0DD3891A02EB4202CC
:102D700000EB8202303A00BF42F8306F0439D6606F
:102D800096615662F8D1B4F9302091B202EB420755
:102D9000069A00EB870340F827209BF80500276977
:102DA00080065F6002D4059F0BE000BF5079059F4D
:102DB00010F0180F05D004985946006A06F0F6FA8C
:102DC000218E481C2086039808F101088045A9F847
:102DD000081003D094F83200013779E707B0BDE856
:102DE000F08F00002DE9F04F87B0014604694A7961
:102DF000666D0020606512F0180F4FF0020084F835
:102E0000390002D0204616F0DDFF94F82800400675
:102E100007D5616A487910F0180F02D0204616F0E5
:102E2000D1FF204616F01AF9206D002538B100BFF9
:102E3000204616F033FA216D05440029F8D12746C3
:102E400057F8880F4FF00008069538B9002532E092
:102E5000016A49B100F12C07386808B3417908F1DB
:102E6000010811F0180FF3D0C16A3960056AC06219
:102E70002DB9F1E7ED6808F10108002DECD0687973
:102E800010F0180FF6D1A86801794906F2D501684B
:102E9000487910F0180FEDD0204616F093FFE9E7BF
:102EA000206D002538B100BF204616F0F7F9216DDE
:102EB00005440029F8D14FF000094FF0000A2665BB
:102EC000059536B1204616F0E9F9216D82440029B6
:102ED000F8D1002503E000BF85F00105EEB1E76DF4
:102EE000C4F85C90CFB1002603E000BF0126002F9C
:102EF000F2D07879394640F02000FF6948712046C9
:102F00002A4619F0A7FA0028F1D000BF206D00284A
:102F1000ECD0204616F0C2F9F8E7A16D2046002259
:102F200000F080FB216E2046002200F07BFBD4F8ED
:102F30005890256E04F16400014600BF0A683AB15A
:102F4000116821B10A681AB111680029F6D1114639
:102F5000224652F84C3F576BBB4205D117E000BFE9
:102F60001A461B68BB4212D05E7916F0180FF7D0D4
:102F7000E66F1F68B34208BFE76717600F681F60FE
:102F80000B60D4F8807019461368BB42ECD1076817
:102F90000026BFB9206DCDE901694FF0000B4FF05D
:102FA0000009CDE9035A30B1204616F077F9216DBA
:102FB00083440029F8D1002711E000BF3F680136A3
:102FC000002FE7D0787910F0180FF7D02046394657
:102FD00016F0F8FEF2E700BF87F00107EEB1E56DED
:102FE000C4F85C90002D56D0002602E00126002D8A
:102FF000F2D06879294640F02000ED6948712046FA
:103000003A4619F027FA0028F1D000BF206D0028B9
:10301000ECD0204616F042F9F8E7E76DDFB34FF049
:1030200001090B2602E000BFFF69A7B3F8791F284A
:10303000FAD0D7F810A009FA00F00AEB00150DE05D
:1030400000281CBF10208AF8040000BF9AF8040072
:10305000000719D00AF1100AAA45E5D29AF805002E
:103060004006F3D5DAF80C100029EFD008794A7938
:1030700000F00F00042802F01800E1D10028E5D08C
:10308000204616F09FFEE1E79AF80500400648BF8B
:103090008AF80560DEE7276EDFB301264FF00B0AE2
:1030A00002E000BFFF69A7B3F8791F28FAD0D7F86C
:1030B000109006FA00F009EB00150DE000281CBF87
:1030C000102089F8040000BF99F80400000719D007
:1030D00009F11009A945E5D299F805004006F3D594
:1030E000D9F80C100029EFD008794A7900F00F00C8
:1030F000042802F01800E1D10028E5D0204616F09F
:1031000061FEE1E799F80500400648BF89F805A08F
:10311000DEE706980599404408440499029A084459
:1031200001990844A16D00EB0B07204600F07AFAE4
:10313000216E039A204600F075FA20460DF06CFFD0
:1031400094F8380080F01801384684F8381007B039
:10315000BDE8F08F2DE9F04182B00D461146804662
:103160000EF0C6F829790746452926D12868394640
:1031700009F04AFC0446007900071FD0464656F87D
:103180000C0F50F8081C216010F8041C30682171E5
:1031900010F8041C49060ED529684A7992060AD50A
:1031A00050F8082C527912F0180F04D0404606F05F
:1031B00021F9D8F80C00083815E00024464656F8E6
:1031C0000C0F07603979326841F04001017102F15A
:1031D00008003060A2F1080340462946009413F02D
:1031E000DFF930681038306002B0BDE8F0810000CF
:1031F0002DE9F04F99B0C6699946376892463B462B
:10320000326A53F81C5FD0F820B00446AA428846C0
:1032100052DB4FF6FF7EB96BC0F2010E04200FF2B5
:10322000583CCDE9000E5846CDF808C00CF0D8FE49
:10323000F969B8638D423FDA6A1C00238A4240F87C
:10324000253039DAE84308444B1B10F00300A3F1A2
:10325000020C1BD0BB6BCDF8149005F102090128BC
:103260004FF0000E43F822E001D14A460CE0BB6B60
:10327000EA1C02284FF0000043F8290004D0B86B84
:10328000002340F822302A1DDDF81490BCF1030F12
:1032900012D30020BB6B43F82200BB6B03EB82030D
:1032A0005860BB6B03EB82039860BB6B03EB82033C
:1032B00004329142D860EDD1584608F0B7FB05467C
:1032C000306AB96B421C326241F82050787980062E
:1032D00008D5687910F0180F04D0584639462A46A8
:1032E00006F064F8C5F82890E169206BCDE90C146C
:1032F0000BA90026E161CDE90F66CDE91196CDE974
:103300001366CDF85F6017964168C3690E96CDE9E4
:1033100015136979626B89060B95EA640ED55179AC
:1033200011F0180F0AD0206A294606F03FF80D98D0
:103330009DF85E20006B0E99C36901E00021002218
:1033400002272F7200698DF82820CDE90830ADF8EA
:10335000296019B1CE7B002E18BF0126E0680791C5
:1033600007A928288DF82B600E9140F0F4802046A4
:1033700013F0DAFBBAF1000F2BD082A12046042211
:1033800013F0A4FB266BE16972688B6A0132D31AD1
:10339000C92B80F2E8804FF6FF7C10270546206A93
:1033A0003168CDE9007C4FF27F2706F10803C0F6B3
:1033B000010702970CF014FE716830604A1C00EBA4
:1033C0000110002172604171C56020460121FFF7A4
:1033D00053FCE769E068396829284FF0000A069134
:1033E00003D14FF0010A00254BE003A981E88003D7
:1033F00040F223194FF010080025484532D100BF94
:10340000D4F810B0204613F08FFB276BE069796881
:10341000836A4A1CD11AC92980F292804FF6FF763E
:10342000206A396801964FF27F2607F10803C0F63B
:103430000106CDF8008002960CF0D2FD7968386064
:103440004A1C00EB01107A6080F805A0C0F80CB0AF
:10345000E06801352C280ED1204613F065FBE068AA
:103460004845CDD0B0F58C7F71D1204613F05CFB80
:103470004FF0000A01E04FF0010A0DF10C0999E844
:103480008003069E20462946FFF7F6FB97F8322078
:10349000BAF1000FB2710CD138680121C171002658
:1034A000384651210023009601960AF0C5F897F896
:1034B0003220384611460BF0CDFDE06829284ED168
:1034C000204613F031FB07260125C2F2020602E076
:1034D000204617F069FAE068A0F203101D28F7D81B
:1034E00005FA00F1314204D10E28F1D1204617F03F
:1034F0005BFA60680B994FF48472C862204640F210
:1035000005114B4600F050F8E0694F214568002254
:10351000286A431E28460AF0C1F84FF0FF311122F5
:10352000C8E90101C8F80C102846414688F8002077
:103530000AF036FB204600F0E3F819B0BDE8F08F42
:103540004FF27F22C0F60102C82101F055FC0FA105
:10355000204613F029FB2046282101F039FC2046A3
:10356000292101F035FC4FF27F22C0F60102084606
:10357000C82101F041FC00BF66756E6374696F6E0F
:103580007300000073656C66000000003C6E616DA6
:10359000653E206F7220272E2E2E272065787065BD
:1035A00063746564000000002DE9F04182B00446B8
:1035B000C068884205D1204602B0BDE8F04113F052
:1035C000B3BA60681D46984202D1204601F000FC63
:1035D000D4F820802046164613F0EAFA0746204623
:1035E000314613F0E5FA034604A140463A460095F9
:1035F0000CF0D6FE0146204613F0D6FA257320655E
:10360000787065637465642028746F20636C6F73D1
:1036100065202573206174206C696E6520256429FE
:10362000000000002DE9F04F81B09142009263D07C
:103630000D4606464FF00B0A4FF0100B04E000BF9A
:10364000ED690098854257D02C6995F80780284687
:1036500009F0BEFD20B307464FF0000908E0002A3C
:1036600018BF80F804B000BF09F101094F4517D019
:10367000E96801EBC90002795206F5D551F8391015
:103680000029F1D00A794B7902F00F02042A03F0E5
:103690001802E4D1002AE7D0304616F093FBE3E7A6
:1036A000012000FA08F02F6904EB001403E000BFCA
:1036B00000071BD01037A742C2D238794106F7D590
:1036C00039680029F4D00A794B7902F00F02042AF4
:1036D00003F0180206D1002AEAD0304616F072FB39
:1036E0003879E5E7002AE3D087F804B07879400616
:1036F00048BF87F805A0DDE701B0BDE8F08F000006
:103700002DE9F04782B0D0E907648146376896F822
:10371000320000BF012812DBB168B26A096B83185E
:10372000096801EB031313F80B5C431E032D1846C5
:10373000F0D0D01801EB00108079411C00E000218E
:10374000304600220BF09EFC304603F0F1F8304684
:103750000AF082FA796B336907F114024FF004081A
:103760002046CDF800800CF037FD396C3369786362
:1037700007F118020125204600950CF02DFD796C0B
:10378000736A386407F124024FF0080A2046CDF826
:1037900000A00CF021FD396BF369786407F1100289
:1037A0002046CDF800A00CF017FDB96B336A3863E2
:1037B00007F11C022046CDF800800CF00DFDB96C1D
:1037C000B6F93030B86307F120020C252046009589
:1037D0000CF002FDF96B96F83330B86407F10C0277
:1037E0002046CDF800A00CF0F7FC2169F863C8680A
:1037F00071680128C9F81C1005DB204602B0BDE83D
:10380000F04706F06DB902B0BDE8F08770B5056904
:10381000044695F83000000707D104F134006061D8
:1038200020460121002206F05BFD204606F002F84A
:103830002069026A8169920020460CF0C5FBE169AB
:10384000E1B1226C04F134006061002020646AB1AF
:10385000D6682046114624220CF0B6FB2089002EA3
:10386000A0F1010032462081F2D1E169A069401A3D
:10387000283020F0070220460CF0A6FBD5E900C056
:10388000211F4FF452720023BDE8704060470000D2
:10389000D1E900321946002307F026BF2DE9F04395
:1038A00040F21043C2F200031B7840F20C4642F291
:1038B0008047C2F20006C2F20007002B18BF3B4649
:1038C000347844F28046C2F20006002C18BFF41B84
:1038D00040F21147C2F200073E7840F25847C2F268
:1038E00000073F783EB1002F6DD04FF0010C4FF034
:1038F000000E1A4606E0002F18BF1A464FF0010CC2
:103900004FF0000E23449A425AD240F26C14C2F295
:10391000000494F8008040F2681640F20004C2F2FD
:103920000006C0F60004B8F1000F18BFA0463678B4
:103930004FF2404708F10409C0F601073C1B002E76
:1039400018BFA04407E040F82E600EF1010E00BF42
:1039500004329A4234D21768FC07F9D07E1E4E45D5
:10396000F6D3BEF11F0F98BF4645F1D837F8034C88
:1039700004F47845B5F5784F0AD137F8055C05F4BD
:103980007845B5F5704F03D101278E4509D3DFE7A0
:1039900024F0FF04A4F58E44B4FA84F467098E453C
:1039A000D6D2002FD4D0BEF1020418BF012454EAAD
:1039B0000C04C8D14468A642C5D14FF0020EC7E737
:1039C0007046BDE8F08340F21447C2F20007BE69BA
:1039D00040F2000C06607F69C0F6000C7E1E40F2CB
:1039E0006C17C2F200073F78002F18BF6746BE422F
:1039F00004D24FF0010E4FF0010C83E740F268153E
:103A0000C2F2000595F800E04FF24045C0F601050E
:103A1000BEF1000FA5EB0C0518BF2F4402294FF093
:103A2000010E09D3BE428FBF4FF0010C46604FF02C
:103A3000000C4FF0020E65E74FF0010C62E700004A
:103A40002DE9F04385B00D4640F21041C2F200016D
:103A50000E7840F20C4242F28041C2F2000240F283
:103A60000943C2F20001002E18BF0E461778C2F2B9
:103A700000031B7844F28042002FC2F2000218BFFC
:103A8000571AD3B1044640F21140C2F20000017847
:103A9000012928D14EF2B2704EF69B52C0F60100B9
:103AA0000FF23861C0F6010218F07CFF4EF2E260BE
:103AB000C0F601001AF07EF9FEE74EF2B2704EF643
:103AC0000A214EF69B52C0F60100C0F60101C0F675
:103AD000010218F067FF4EF2E260C0F601001AF032
:103AE00069F900BFFEE74EF2E2684FF00109C0F647
:103AF000010880F8009040461AF05CF94EF65D50DF
:103B000040F26D1140F2E83240F25943C0F6010034
:103B1000C2F20001C2F20002C2F2000318F042FF3A
:103B200040461AF047F90FF2405018F03BFF40466C
:103B30001AF040F9E0064FF0200058BF682000EB73
:103B40000508B04507EB060301D3984513D94EF697
:103B50003360C0F601004146324618F023FF4EF2B2
:103B6000E260C0F601001AF025F940F25840C2F2B6
:103B7000000080F8009030463946424601F086F851
:103B80004EF2D470C0F6010018F00CFF4EF2E2665F
:103B9000C0F6010630461AF00DF940F214492B69BF
:103BA000C2F20009D5E90020D5E90214C9F81030A5
:103BB0006B69C9E90020C9F81430D5E90635C9F8A0
:103BC0000810C9E906354EF2EC654EF2F063C0F616
:103BD0000105C9F80C40C0F60103CDE900054EF619
:103BE000AE55CDE90213C0F601054EF2E4614EF286
:103BF000E863C0F60101C0F601032846049418F0FA
:103C0000D1FE30461AF0D6F8D9E906144EF668030C
:103C1000D9E90420C0F601034EF2F467C0F60107AB
:103C2000CDE902134EF2D0714EF2F863CDE90007F0
:103C3000C0F60101C0F601032846049418F0B2FE54
:103C400030461AF0B7F80FF2544018F0ABFE304689
:103C50001AF0B0F84EF62451CEF200010868C9F807
:103C60002000087989F824000869C9F828004879F3
:103C700089F82C004869C9F83000C888A9F83400D0
:103C80008868C9F838008A89C9F83C20098B8207FE
:103C9000C9F840100DD54EF67C10C0F6010018F0A2
:103CA00081FE4EF2E260C0F601001AF083F8D9F806
:103CB0003800400040F1A28099F8240080B3C10789
:103CC00040F00281810700F11081010700F11E819F
:103CD000C10600F12C8181060DD54EF66D30C0F67F
:103CE000010018F05FFE4EF2E260C0F601001AF02B
:103CF00061F899F8240041B2B1F1FF3F10DC10F0F7
:103D000003000DD0D9F828104EF6FE50C0F6010081
:103D100018F048FE4EF2E260C0F601001AF04AF8D0
:103D200099F82C0080B3C10740F01381810700F19E
:103D30002181410700F12F81010700F13D81C1067A
:103D400000F14B8181060DD54EF62F30C0F60100F3
:103D500018F028FE4EF2E260C0F601001AF02AF8D0
:103D600099F82C0000F0820082280DD1D9F830108B
:103D70004EF6D750C0F6010018F014FE4EF2E26085
:103D8000C0F601001AF016F8B9F83400B0B3C10754
:103D900040F03581810700F14381410700F15181F5
:103DA00000070BD54EF6FF30C0F6010018F0FAFD03
:103DB0004EF2E260C0F6010019F0FCFF99F8350000
:103DC000C1070DD04EF62A10C0F6010018F0EAFD2A
:103DD0004EF2E260C0F6010019F0ECFF99F83500F0
:103DE00080070BD54EF24870C0F6010018F0DAFDDE
:103DF0004EF2E260C0F6010019F0DCFFD9F838009D
:103E0000B0F1FF3F19DCD9F83C00B0B1C0B2C10736
:103E100019D1810727D4410735D4010743D4C006FF
:103E20000BD54EF6C700C0F6010018F0BBFD4EF2F0
:103E3000E260C0F6010019F0BDFF404605B0BDE8E4
:103E4000F04315F0B1B94EF63800C0F6010018F095
:103E5000A9FD4EF2E260C0F6010019F0ABFF99F83F
:103E60003C008107D7D54EF6F700C0F6010018F0E8
:103E700099FD4EF2E260C0F6010019F09BFF99F83F
:103E80003C004107C9D54EF66C00C0F6010018F0A1
:103E900089FD4EF2E260C0F6010019F08BFF99F83F
:103EA0003C000107BBD54EF69800C0F6010018F0A3
:103EB00079FD4EF2E260C0F6010019F07BFF99F83F
:103EC0003C00C006B9D5ACE74EF6ED20C0F60100C7
:103ED00018F068FD4EF2E260C0F6010019F06AFFCA
:103EE00099F8240081077FF5F0AE4EF67E20C0F6EB
:103EF000010018F057FD4EF2E260C0F6010019F023
:103F000059FF99F8240001077FF5E2AE4EF62750DD
:103F1000C0F6010018F046FD4EF2E260C0F6010066
:103F200019F048FF99F82400C1067FF5D4AE4EF68B
:103F3000CB40C0F6010018F035FD4EF2E260C0F64D
:103F4000010019F037FF99F8240081063FF5C5AE4E
:103F5000D1E64EF6B920C0F6010018F023FD4EF26E
:103F6000E260C0F6010019F025FF99F82C008107E6
:103F70007FF5DFAE4EF61220C0F6010018F012FDFC
:103F80004EF2E260C0F6010019F014FF99F82C001F
:103F900041077FF5D1AE4EF64720C0F6010018F07C
:103FA00001FD4EF2E260C0F6010019F003FF99F83E
:103FB0002C0001077FF5C3AE4EF6FF40C0F60100AE
:103FC00018F0F0FC4EF2E260C0F6010019F0F2FECB
:103FD00099F82C00C1067FF5B5AE4EF6A540C0F6A7
:103FE000010018F0DFFC4EF2E260C0F6010019F0AB
:103FF000E1FE99F82C0081063FF5A6AEB2E64EF63A
:10400000B930C0F6010018F0CDFC4EF2E260C0F607
:10401000010019F0CFFE99F8340081077FF5BDAE9D
:104020004EF2FC60C0F6010018F0BCFC4EF2E260FB
:10403000C0F6010019F0BEFE99F8340041077FF583
:10404000AFAE4EF64640C0F6010018F0ABFC4EF2A3
:10405000E260C0F6010019F0ADFE99F834000007E7
:104060003FF5A0AEAAE600BF4661756C74206F6E86
:1040700020696E74657272757074206F722062614F
:104080007265206D6574616C286E6F204F53292016
:10409000656E7669726F6E6D656E74003D3D3D3D77
:1040A0003D3D3D3D3D3D3D3D3D3D3D3D3D3D3D3D40
:1040B0003D3D3D3D3D3D3D3D3D3D3D3D3D3D3D3D30
:1040C0003D3D3D3D3D3D3D3D3D3D3D3D3D3D3D3D20
:1040D0003D3D3D3D3D3D3D3D3D3D0000216F6E5F21
:1040E0006661756C74000000B0B50D46014640F283
:1040F0006D101446C2F200002022FCF7F1F840F2E5
:10410000E830C2F2000029462022FCF7E9F840F22C
:104110005940C2F2000021462022FCF7E1F840F2AB
:104120001041C2F200010120087040F20C41C2F2BD
:104130000001087040F26C11C2F20001087042F2F6
:10414000804144F28042C2F20001C2F20002511AE0
:1041500040F26811C2F2000108700DD14EF6A810AD
:10416000C0F6010018F01EFC4EF2E260C0F601003D
:10417000BDE8B04019F01EBE40F20941C2F2000194
:104180000870B0BD2DE9F04385B00D46DDF83080F4
:1041900019461C461646074609F002FB20780828F7
:1041A0000AD1D4E9020188420AD0D4F804903846F2
:1041B00012F02CFD814518DA3846214609F0F0FC52
:1041C0006068A5F11C01C9B22E220023CDE90003CD
:1041D000CDE903213846314622462B46CDF80880EA
:1041E00001F0D2F905B0BDE8F08362683846214697
:1041F00000F042FEE4E700002DE9F04F85B0934661
:104200001A781E468846052A054606D0062A38D161
:1042100070684FF0000903900AE096ED010A03A8C8
:1042200000214FF0000912F061FA60B34FF001096C
:10423000D6E90201884226D1039800F17F0ABAF13B
:10424000FF0F20D82846594609F0AAFA9BF800002B
:1042500008280CD1DBE902010BF1040488420CD0E0
:104260002768284612F0D2FC874280F2E280284676
:10427000594609F095FC0BF10404276808F1040481
:1042800057E04FF000099BF80000052805D00628EC
:1042900017D1DBF80400049008E09BED010A04A8A4
:1042A000002112F023FA60B14FF00109DBE90201AD
:1042B000884206D1049800F17F0ABAF1FF0F40F25C
:1042C0008D802846594609F06BFA9BF800000828B3
:1042D0000CD1DBE902010BF1040488420CD0276801
:1042E000284612F093FC874280F296802846594671
:1042F00009F056FC0BF1040427682846314609F002
:104300004FFA307808280CD1D6E90201341D8842D2
:104310000CD0D4F800A0284612F078FC824580F238
:1043200082802846314609F03BFC341DD4F800A0B9
:10433000444628465946324601F00EFBE0B240EAB8
:10434000096040EAC71040EA0A4040F400472E687E
:10435000A8682A69006A716B4FF2270806F11403F6
:10436000C0F601086FF040490424CDE90049CDF8BA
:1043700008800BF035FE2969AA684B1C2B6140F8B8
:104380002170926870632846314615F005FF2E684B
:10439000A8682A69006A716B06F11403CDE9004927
:1043A000CDF808800BF01CFE2969AA684B1C2B6114
:1043B0004FF63873C7F6FF7340F821309268706388
:1043C0002846314615F0E8FE28690138CBF804008C
:1043D00010208BF8000005B0BDE8F08F284631466C
:1043E00009F0DEF9307808280AD1D6E90201341D37
:1043F00088420AD02768284612F008FC87421FDA54
:104400002846314609F0CCFB341D27684124B8F119
:104410003A0F08BF40248CE7DBF8042028465946B1
:1044200000F02AFD68E772682846314600F024FD56
:104430007CE7DBF804202846594600F01DFD1CE708
:1044400072682846314600F017FDDEE7F0B587B008
:1044500014469268E768BA420AD1064620780D46AB
:10446000052807D006281AD160680590032004E0CB
:10447000002770E0606805901320D3E902128DF8E0
:10448000180091420DD1187805280CD0062829D1A2
:104490005868032103908DF8101001210DE00027CA
:1044A00059E0002757E093ED010A13208DF8100022
:1044B00010EE100A00218DED030A0D2D26D80122E1
:1044C000AA4012F43E5F0FD005A801A9002212F005
:1044D00055FAB8B303A801A90022002712F04EFA3A
:1044E000A0B938E0002736E012F0680F0ED000EED9
:1044F000100A01EE100AB8EEC00A002918BFB0EE8B
:10450000401AB5EE401AF1EE10FA1DD0B06801AFB6
:10451000006A05AA03AB294600970CF0C7FA9DF87C
:104520000800032805D10199062020706160012749
:1045300011E09DED010AB5EE400AF1EE10FA05D149
:10454000002708E0002706E0002704E005200127F7
:10455000207084ED010A384607B0F0BD2DE9F04F18
:104560008BB0C4690746D0F804908A4600252046DF
:104570001321002200230095019509F05DF8804683
:104580002046002109F030F894F834004FF0FF364F
:1045900008218AF80010CAE9010620460121CDE968
:1045A0000955CDE907A5CAF80C600AF053FDF86873
:1045B000CDE905667B288DF80C50049540F0858088
:1045C000384612F0B1FAF8687D281FD138467D21AF
:1045D0007B224B46FEF7E8FF0A9B002B58D09DF844
:1045E0000C00A0F11201022954D203A920464FF079
:1045F000FF320AF09FFE0798099A416820464FF063
:10460000FF330AF003FE0998013850E0002503AE9D
:1046100040F2231B0021A9B12046314609F0C0FA1F
:104620000A988DF80C5032280BD10798099A4168E6
:10463000204632230AF0EAFDDDE909010844CDE90C
:104640000905F8685B2806D0584509D1384612F0AC
:1046500035FA3D2804D13846314615F00BFC07E009
:1046600038463146002217F06BFB0A9801300A9059
:10467000F8683B2801D02C28A8D1384612F054FA0B
:10468000F8687D28A2D09DF80C100029C4D1D9E784
:10469000099B0FE020B103A9204609F081FA0A9B8B
:1046A0000798099A416820460AF0B0FD09980A99CE
:1046B0000B180993DAF80420089F2046414600971A
:1046C0000AF070FE0BB0BDE8F08F38467B2100F099
:1046D0007FFB000010B501680AE0BEF1060F04BFC1
:1046E00083F002034B7143F020024A71216801609C
:1046F000002908BF10BD91F804C00024ACF10503E7
:10470000212B21D8DFE803F01411171A201D2020D7
:104710002020202020202020202020202020202099
:104720002020202020202020201101F108040BE06F
:1047300001F11C0408E001F1100405E001F1280476
:1047400002E001F1500400BF4B7913F0180FCDD1F6
:1047500003F0070EBEF1050F05D143F0200080F0F5
:104760000300487103E0BCF1080F7FF4B6AF216885
:104770002046BDE72DE9F04F87B0D0F81CA00746D2
:10478000056B5046CDE905320E4609F011FBD5E91F
:1047900006198046386A4FF2982C47F6FF7205F1E9
:1047A0002003C0F6010C102401924A4600943C46B6
:1047B000CDF808C00BF014FC4FEA0911A86100EB1A
:1047C000091B4650F86906995F46CBF8081090F827
:1047D0003210059A07F80C1F00218BF80D1059466E
:1047E00041F8048F069109F10101E9611AB1DAF883
:1047F0000C10097B3970C068D4F83080CDF810A057
:10480000D0F808A0D8F81000824580F294800025E6
:10481000D8F80C204FEA0A115158B14204D00AF1DD
:10482000010A82456ADB6CE0266B3B78F06800EB9E
:104830000A11087B9842C0F08D8002EB0A10069A9C
:1048400090F80D90E0694968126809F03BFE306904
:10485000421E52454BDD4020BE46A44600EB0A10E6
:1048600051460595F2680244A2F1300798CF52F8FC
:10487000245C42F8403C42F83C4C42F8387C42F818
:10488000345C32694B1C013A93422DDAF2680244DF
:1048900052E9083752E9065442E90C3742E90A5412
:1048A00032698B1C013A93421EDAF268024452E9E3
:1048B000043752E9025442E9083742E906543269A2
:1048C000CB1C013A93420FDAF268043113181258E4
:1048D000D3E90175DC6843E9042743E902543269EE
:1048E0004030013A9142BDDB059D64467746326116
:1048F000D8F8100045EA0905824502DADBF80060C5
:1049000086E7C5B10498002790F83250012D16DBD8
:104910008168826A096BAB18096801EB031313F80D
:104920000B6C6B1E032E1D46F0D01A4401EB0211D6
:1049300089794A1C04E0002007B0BDE8F08F00220E
:10494000362100230097019708F076FE012007B07A
:10495000BDE8F08F204601F0A9FF00002DE9F04FDF
:1049600081B02DED028B8AB091460C46064608F0C8
:1049700017FF20780138102800F27581DFE810F069
:10498000110017001C00210023005A00600096004F
:104990007301730173017301730173017301730177
:1049A000B00030464946012209F024FD57E14FEAA4
:1049B000C91000F107085CE04FEAC91000F10508D2
:1049C00057E067684CE094ED018A04A8B0EE480A0D
:1049D0000021002511F08AFE38B104984FF6FF71CE
:1049E0000144B5EB514F00F0C680132507A8B0EE87
:1049F000480A00218DED088A8DF8245011F076FECA
:104A0000002800F0C380B7EE000A6FF0160018F01F
:104A100007F9079828EE001A38EE011A002805A9B0
:104A200008AA304608BFB0EE401A8DED051A8DF881
:104A30001850AEE062683046494609F001FC0EE1CC
:104A400060680179089041F0400008A98DF82400C1
:104A500030460A46FEF73CF80746606004202070A6
:104A6000B7F5003F4FEAC91044DA40EAC73040F0DA
:104A700003083768B0683269006A796B4FF2270C17
:104A800007F11403C0F6010C6FF0404E0425CDE988
:104A9000005ECDF808C00BF0A3FA78633169B26804
:104AA0004B1C336140F821809268D4E0606848452F
:104AB00000F0D580000440EAC9183568B068326952
:104AC000006A696B4FF2270C05F11403C0F6010C64
:104AD0006FF0404E0427CDE9007ECDF808C03DE0E0
:104AE00030686168406B50F8212069F3CE1240F8BD
:104AF0002120B4E040F004083568B0683269006AEB
:104B0000696B4FF2270C05F11403C0F6010C6FF02E
:104B1000404A4FF0040BCDE900BACDF808C00BF0C5
:104B20005FFA68633169B2684B1C336140F82180D9
:104B300092683046294615F02FFB3568B068F901B8
:104B40004FF22707326901F15208006A696BC0F61B
:104B5000010705F11403CDE900BA02970BF040FA02
:104B600068633169B2684B1C336140F821809268F8
:104B70003046294671E048F20001C7F6FF7101EBAB
:104B8000C03040EAC91000F102080EE008A9304622
:104B90000A46FDF79DFF8046B0F5003F4FEAC91079
:104BA00016DA40EAC83040F003083768B0684FF2C0
:104BB000270C3269006A796BC0F6010C6FF0404E29
:104BC000042507F11403CDE9005ECDF808C036E0F6
:104BD00040F0040B3568B0683269006A696B4FF2C7
:104BE000270705F11403C0F601076FF0404C4FF0A2
:104BF000040ACDE900AC02970BF0F2F96863316961
:104C0000B2684B1C336140F821B0926830462946A7
:104C100015F0C2FA3768B0684FEAC8116FF0404526
:104C2000326901F15208006A796B01954FF227054C
:104C300007F11403C0F60105CDF800A002950BF0B2
:104C4000CFF9786331694A1C00EB81003261C0F80A
:104C50000080B06882683046394615F09DFA082019
:104C6000C4F8049020700AB0BDEC028B01B0BDE81E
:104C7000F08F000080B512F0EBFF013880BD00001E
:104C8000C1680022103905F009BB00002DE9F0438E
:104C900081B0144640F25842C2F2000212780D462A
:104CA000012A064611D122A0214617F07BFE4EF2C2
:104CB000E260C0F6010019F07DF8B44201D234463A
:104CC00003E0A819A04238BF044623A017F06AFEEB
:104CD0004EF2E260C0F6010019F06CF8AF19A7427D
:104CE00017D94EF2E269251D00260FF29408C0F68E
:104CF000010900BFA259A119404617F053FE4846CA
:104D000019F058F8A819874203D93C2E06F1040679
:104D1000F0D14EF61300C0F6010017F043FE4EF23C
:104D2000E260C0F6010001B0BDE8F04319F042B8FE
:104D30004572726F723A204D61696E2073746163BF
:104D40006B28253038782920776173206F7665725B
:104D5000666C6F77000000003D3D3D3D3D2054688E
:104D60007265616420737461636B20696E666F7233
:104D70006D6174696F6E203D3D3D3D3D000000005A
:104D80002020616464723A20253038782020202069
:104D9000646174613A202530387800000446006868
:104DA000A2680B4603A10BF0FBFA2068032106F072
:104DB000BFFA00BF25733A206261642062696E61A8
:104DC000727920666F726D61742028257329000046
:104DD000056A044611F0ECFE024604A128460BF0D9
:104DE000DFFA0146204611F0DFFE00BF2573206583
:104DF000787065637465640082B004460068A368D7
:104E00009046826A1F6A0E460AB90AA504E00DA1FF
:104E100038460BF0C5FA05460FA1384642463346E0
:104E200000950BF0BDFAA16802460846114611F044
:104E3000BBFE00BF6D61696E2066756E6374696F3D
:104E40006E00000066756E6374696F6E2061742079
:104E50006C696E6520256400746F6F206D616E79DA
:104E600020257320286C696D69742069732025647E
:104E70002920696E202573002DE9F04F87B09146F7
:104E800088468246FFF76AFD98F800E0BEF1100FF1
:104E90004FD1D8F804C01CF101004AD0D8F80860FE
:104EA000701C44D0DAF800000123426BCFF6007387
:104EB00052F8267003EBD7143019611C18BF441C3C
:104EC000601C314620D052F8247003EBD710211813
:104ED000451C18BF481C411C214615D052F82070B3
:104EE00003EBD71541196C1C18BF4D1C691C0146FA
:104EF0000AD052F8257003EBD716A819711C18BFF9
:104F0000461C701C2946D3D1C84360446FF07F43D0
:104F10000344B3F1007F80F0D38107F07F0343EABD
:104F2000C010A0F10040803842F8210001E0C8F82C
:104F300008C0D8F80810D8F80CC0CDF814A0614506
:104F4000CDF8108000F0A98140F2010A059E481CAE
:104F5000CFF6007A23D037684EF28C257A6BC0F6F4
:104F6000010500BF012902EB810309DB53F8040CA2
:104F700000F07F042C5DE40658BF186801E000BF14
:104F8000186800F07F00432837D118680AEBD0106A
:104F90000144431C18BF481C411C0146E2D11CF1CE
:104FA000010000F0138137684EF28C25796B624660
:104FB000C0F60105012A01EB820309DB53F8040C5A
:104FC00000F07F042C5DE40658BF186801E000BFC4
:104FD000186800F07F0043280FD118680AEBD01042
:104FE0000244431C18BF501C421C0246E2D14FF041
:104FF000FF3006904FF0FF3880E04FF22708BEF1F7
:10500000100FC0F6010803D132694FF0FF3022E0E3
:10501000B0683269006A796B07F114036FF040449D
:105020000425CDE90054CDF808800AF0D9FF316994
:10503000B2684B1C33614FF68073C7F6FF73483B71
:1050400040F82130926878633046394615F0A4F86C
:1050500032693768501E0390B068796B006A7261DC
:105060004FEAC91407F114036FF040464FF0040BE8
:10507000A51DCDE900B6CDF808800AF0B1FF05996D
:10508000059A0969059E92684B1C336140F82150CE
:10509000926878630598394615F07EF80598059969
:1050A000076805986FF04046026905984A61806874
:1050B000796B006A454607F114030196059EA2F13B
:1050C00001080734CDF800B002950AF089FF316974
:1050D000B2684B1C336140F82140926878633046D7
:1050E000394615F059F832690399501E069030463A
:1050F000726109F0E7F90498D0F80CC0D6F810B046
:105100001CF10100C6F814B067D030686FF07F431F
:10511000426B4FF4FF4000EAC910039016E000BF55
:105120006FEA0C004044C718B7F1007F80F0C080E0
:105130004FF68076C7F6FF7605F07F0706EBC010C6
:105140003843CEF80000481C8C4646D052F82C500C
:1051500002EB8C0E0AEBD5114F1C0CEB010018BFB3
:10516000411CBCF1010F0BDB744654F8046D4EF288
:105170008C2706F07F00C0F60107385CC00601D41A
:105180002E46744606F07F004328C9D1B9F1FF0FBF
:1051900003D0C6F30740484509D14FF4FF4000EA69
:1051A000562006F40045284400F1420503E0039D23
:1051B00026F4FF4005436FEA0C005844C718B7F1C6
:1051C000007F256074D2DEF80050B1E7D6F810B049
:1051D0004FF0FF30C6F814B0069004988268501C57
:1051E0005BD005984FF4FF4E00684EF28C2C416B5B
:1051F0000EEAC9106FF07F48C0F6010C039014E06E
:10520000069BD2431A4402EB0803B3F1007F4FD24E
:105210004FF68073C7F6FF7300F07F0003EBC212F6
:1052200010433060781C3A4637D051F8220001EB29
:1052300082060AEBD0177D1C02EB070418BF671C1F
:10524000012A08DB354655F8044D04F07F031CF8AD
:105250000330DB0601D40446354604F07F03432BBC
:10526000CED1B9F1FF0F03D0C4F30740484506D1B2
:105270000EEA542004F400431844423003E0039B38
:1052800024F4FF401843D2435A4402EB0803B3F11D
:10529000007F28600CD23068BAE704994FF0FF30E5
:1052A000C1E90190C8600820087007B0BDE8F08F20
:1052B000059880684FF20C01C0F6010111F074FCF2
:1052C000DAF80800F6E70000D1E90032194604F0E8
:1052D000E5BF00002DE9F041D0F810804FF4B47123
:1052E0000022044600250AF0E5FE214641F81C0F85
:1052F00088600571B42000BF0A68024402F8A85C07
:105300000A68024402F8A05C0A68024402F8985C49
:105310000A68024402F8905C0A68024402F8885C59
:105320000A68024402F8805C0A68024402F8785C69
:105330000A68024402F8705C0A68024402F8685C79
:105340000A68024402F8605C0A68024402F8585C89
:105350000A68024402F8505C0A68024402F8485C99
:105360000A68024402F8405C0A68024402F8385CA9
:105370000A68024402F8305C0A68024402F8285CB9
:105380000A68024402F8205C0A68024402F8185CC9
:105390000A68024402F8105C0A68024402F8085CD9
:1053A0000A681554B030B0F5057FA5D1E069002733
:1053B00000F5A071A16121464FF40032E06041F890
:1053C000340FC4E90F77676462650771E068616153
:1053D00000F10802A830A0632046E26007F062FBFB
:1053E0000546C8F824004526204629460222002307
:1053F00088F8286007F016FFE86848210460ED6827
:105400000171204607F04EFBA86020462E730BF07A
:1054100035FF20460CF0CAFD204611F02BFB88F822
:105420003E7088F83070BDE8F0810000F0B583B0C0
:105430000D46096804460A68501E086022B1486893
:10544000421C4A60077803E0084611F035FD074624
:105450006E6B1B2F0CD126B130466221FAF74CFF40
:10546000E8B12968AA6B20460CF046FF014610E01F
:1054700026B130467421FAF73FFFB0B1A86B296816
:105480002A1D05F1100300902046019711F0DCFB66
:105490000146204603B0BDE8F04006F07BBA4FF26B
:1054A000D101C0F6010109A204E04FF2D101C0F61A
:1054B000010104A2204633460AF072FF2046032170
:1054C00005F036FF746578740000000062696E6153
:1054D0007279000070B5002A4AD00D464FF0FF31B6
:1054E0001646044613F04CFC052841D1204612F024
:1054F00095FE20466FF0010112F046FDC0B3013E5B
:105500000BE000BF20466FF0010113F0A3F9204625
:105510006FF0010112F038FD50B320466FF0010129
:1055200013F02EFC0428EDD1204629464FF0FF321F
:1055300012F0EEFEF0B9204629463246FFF7CAFFC8
:105540000028DFD00FA1204612F07AFE20464FF04F
:10555000FF316FF0020211F093FD20466FF0010160
:1055600013F078F92046032111F066FD012070BD8B
:10557000002070BD20466FF0010113F06BF901208F
:1055800070BD00BF2E0000002DE9F04F87B00392E0
:10559000044614980E46069013981D460590DDE9C2
:1055A000110B0490DDF84080204608F0F9F83078BF
:1055B00008280BD1D6E9020188420BD0D6F804A006
:1055C000204611F023FB824580F29580204631462B
:1055D00008F0E6FAD6F804A045EA086040EA0A496D
:1055E0002568A0682269006A696B05F114034FF20F
:1055F000270E0427C0F6010E6FF0404C8DE8805056
:105600000AF0EEFC2169A2684B1C236140F821904E
:10561000926868632046294614F0BEFD2069039A0B
:10562000451E2046314600F097F9756021682269D1
:105630000B6C11203070D01810F9010C10F18002A1
:1056400004D1606A01386062812005E0A269101A05
:1056500094F83520A061501E84F8350020465A4643
:1056600014F09AFD04980599C00340EA08400844E4
:105670000699256840EA016040EACA16A0686FF002
:10568000404C04272269006A696BCDE9007C4FF227
:10569000270705F11403C0F6010702970AF0A0FCE2
:1056A0002169A2684B1C236140F8216092686863FD
:1056B0002046294614F070FD216820690A6C1044C8
:1056C00010F9010C10F1800206D1606A01386062A5
:1056D000812084F8350007E0A269101A94F835207B
:1056E000A061501E84F8350020465A4607B0BDE838
:1056F000F04F14F051BD726820463146FFF7BCFBF5
:1057000068E7000070B5044601F154000D46FEF74D
:10571000E1FFA96D00260160AE65FEF7DBFF296E93
:1057200001602E66FEF7D6FFE96D0160EE65FEF7BB
:10573000D1FF95F83F0000281CBF85F8396070BD87
:10574000D5E90710C21700EB9272B1EBA20F12DA83
:1057500000EBD070EE68411020460BF017FFD5E942
:105760000301801B0844286195F83F00002185F85B
:10577000391078B902E0002085F839002569686E93
:10578000002808BF70BD00BF2046FBF751FC686EC3
:105790000028F9D170BD0000B0B50229044605D239
:1057A0002046154612F054FA401BB0BD2046002199
:1057B00012F080FC20466FF0010112F05FFD022024
:1057C000B0BD00002DE9F04F8BB00646C068B0F5C3
:1057D000817F40F0B880149CF56930469A46914626
:1057E0000F4611F0A1F95AA0015D28463A46002360
:1057F0004FF0000B07F052FF95F8321080468DF8FD
:105800001810A968E868096BCA690969ADF819B088
:10581000CDE9042120B1C17B002918BF012100E09E
:105820000021039003A88DF81B10E8603046514614
:105830000297FDF721FA2846514609F00BFCF7695B
:10584000ADF829B097F832008DF82800B868016BE0
:10585000C86909690890F868099130B190F80FB0EB
:10586000BBF1000F18BF4FF0010B07248DF82BB0D0
:10587000079007A84FF0010BC2F20204F86002E0A3
:10588000304615F091F8F068A0F203101D28F7D803
:105890000BFA00F1214204D10E28F1D1304615F067
:1058A00083F8384601F044F8284601F041F82846CC
:1058B00008F07EFA6FEA08010844B0F5003F3BDAD1
:1058C00029684FF6FF7B496B029E51F82820C0F2F1
:1058D000010B6FF3DF3242EAC030149A41F828001E
:1058E0006AB1002728464C2132460023CDF800A09B
:1058F000019707F0A1FE2846494608F037FA1499A7
:1059000014A0415C28463246002307F0C7FEA0EBF6
:105910000801594510DC2A68526B52F820306FF3A9
:10592000DF3343EAC13142F820102846494608F0E7
:105930001DFA0BB0BDE8F08FA8684FF20C01C0F65D
:10594000010111F031F930464FF48171FFF740FA4F
:105950004A4B0000494D000070B50B780446082BF7
:105960000CBF4D684FF0FF35107808280CBF566803
:105970004FF0FF36204611F049F9B54211DDA8423B
:1059800004DC94F83400013884F83400204611F027
:105990003DF9B04217DC94F83400013884F8340043
:1059A00070BDB04204DC94F83400013884F834004F
:1059B000204611F02BF9A842C8BF70BD94F83400FE
:1059C000013884F8340070BD4A69002A08BF704766
:1059D0000B69C97910228A4019460AF0F5BA00000D
:1059E000B0B50C4609790439222988BFB0BD0546F7
:1059F000DFE801F012181E232D3342565656565634
:105A00005656565648565656565656565656565644
:105A10005656565656564C00284621460BF088FDE1
:105A2000E07930E028462146BDE8B04006F03ABDB6
:105A3000A079102101EB80022CE0E088182101EB15
:105A4000C0010028A06808BF10210A1822E02846DB
:105A50002146BDE8B04005F043BDA06804F10C014B
:105A6000884202D0204606F067F8284621461422D4
:105A7000BDE8B0400AF0A8BA28462146BDE8B040CB
:105A800005F032BFE06800F1110203E0A0791021B7
:105A900001EBC00228462146BDE8B0400AF094BAA6
:105AA000B0BD00002DE9F04F83B08946884659F813
:105AB000441F054619F80C0C00F01800E9B100BFAE
:105AC0004A7902F0C0030A6803444B71AAB15179C4
:105AD00001F0C00311680344537171B14A7902F0B7
