S31508008000D0400024AD82000821A3000899A10008E9
S3150800801019A30008B9830008E1B1000800000000B0
S3150800802000000000000000000000000049A600084B
S31508008030C18300080000000059A3000881A60008B3
S31508008040C7820008C7820008C7820008C7820008DE
S31508008050C7820008C7820008C7820008C7820008CE
S31508008060C7820008C7820008C7820008C7820008BE
S31508008070C7820008C7820008C7820008C7820008AE
S31508008080C7820008C7820008C7820008C78200089E
S31508008090C7820008C7820008C7820008C78200088E
S315080080A0C7820008C7820008C7820008C78200087E
S315080080B0C7820008C7820008C7820008C78200086E
S315080080C0C7820008C7820008C7820008C78200085E
S315080080D0C7820008C7820008C7820008C78200084E
S315080080E0C7820008C782000800000000C78200088F
S315080080F0C7820008C7820008C7820008C78200082E
S31508008100C7820008C7820008C7820008C78200081D
S31508008110C7820008C7820008C7820008C78200080D
S31508008120C7820008C7820008C7820008C7820008FD
S31508008130C7820008C7820008C7820008C7820008ED
S315080081400000000000000000000000000000000021
S31508008150C7820008C7820008C7820008C7820008CD
S31508008160C7820008C7820008C7820008C7820008BD
S31508008170C7820008C7820008C7820008C7820008AD
S31508008180C7820008C7820008C7820008C78200089D
S31508008190C7820008C7820008C7820008C78200088D
S315080081A0C7820008C7820008C7820008C78200087D
S315080081B0C7820008C7820008C7820008C78200086D
S315080081C0C7820008C7820008C7820008C78200085D
S315080081D0C7820008C7820008C7820008C78200084D
S315080081E0C7820008C7820008C7820008C78200083D
S315080081F0C7820008C7820008C7820008C78200082D
S31508008200C7820008C7820008C7820008C78200081C
S31508008210C7820008C7820008C7820008C78200080C
S31508008220C7820008C7820008C7820008000000004D
S31508008230C7820008C782000800000000C78200083D
S31508008240C7820008C7820008C7820008C7820008DC
S31508008250C7820008C7820008C7820008C7820008CC
S31508008260C7820008C7820008C7820008C7820008BC
S31508008270C7820008C7820008C782000800000000FD
S31508008280C7820008C7820008C782000800000000ED
S3150800829000000000C7820008DFF80CD000F07AF86A
S315080082A00048004741B20008D040002406488047ED
S315080082B006480047FEE7FEE7FEE7FEE7FEE7FEE7BD
S315080082C0FEE7FEE7FEE7FEE7E9A700089982000851
S315080082D02DE9F05F0546002092469B4688460646ED
S315080082E0814640241BE0284641464746224600F080
S315080082F041F853465A46C01A914110D311461846BA
S31508008300224600F028F82D1A67EB01084F46224648
S315080083100120002100F01FF817EB00094E41201E2E
S31508008320A4F10104DFDC484631462A464346BDE847
S31508008330F09FD2B201E000F8012B491EFBD270472C
S315080083400022F6E710B513460A4604461946FFF713
S31508008350F0FF204610BD202A04DB203A00FA02F17D
S31508008360002070479140C2F1200320FA03F3194315
S3150800837090407047202A04DB203A21FA02F00021B7
S31508008380704721FA02F3D040C2F120029140084317
S3150800839019467047064C074D06E0E06840F00103B1
S315080083A094E8070098471034AC42F6D3FFF778FFF5
S315080083B0A8B30008C8B30008FFE7FEE700000000FE
S315080083C0704700000000000081B0EFF3108072B61D
S315080083D00090FFE7FEE70000B0B5044600F0F8F8A5
S315080083E040F208010546C2F20041621C097818BF2E
S315080083F00C4400BF00F0ECF8401BA042FAD3B0BD15
S315080084002DE9F04F83B00C68002C00F0C68000F10F
S31508008410264242F2004702F1FF72C5F602074FEA0A
S31508008420B22201920A22B84208BF09220025002773
S315080084304FF0010A009209E00C68043734FA0AF290
S315080084400AF1010A05F1020500F0A780AAF101095F
S31508008450012202FA09FE14EA0E08EDD0D1F804B09A
S315080084600BF00304A4F1010CBCF1010F11D803228F
S315080084708668AA40CB6826EA0202AB401A438260A5
S31508008480CBF30013426822EA0E0203FA09F31A43F1
S315080084904260032C1ED00323C268AB40022C22EA9A
S315080084A003028B6803FA05F342EA0302C26011D19C
S315080084B06FF0030207F01C0602EA59020F23024472
S315080084C003FA06F4D2F820C00B692CEA0404B34078
S315080084D02343136203230268AB404E689A4306F0AF
S315080084E00303AB4016F4403F42EA03020260A3D0FE
S315080084F044F2F44340F2084EC5F60203C5F6000EF0
S315080085001A6842F002021A601A6807F00C0302F0B1
S3150800851002020292029A29F00302019C009E092C8B
S3150800852038BF26460F2452F80EC09C402CEA040495
S3150800853006FA03F34FF0B04C234342F80E30DCF84A
S3150800854000204B6842EA0806DC0258BF22EA080601
S315080085509C02CCF8006040F2040CC5F6000CDCF86E
S31508008560002042EA080658BF22EA08069C03CCF80F
S315080085700060DCF8802042EA080658BF22EA0806AE
S31508008580DB03CCF88060DCF87C2042EA080658BF9A
S3150800859022EA0806CCF87C604EE703B0BDE8F08F07
S315080085A0426902EA0103914341EA03418161704746
S315080085B0002A08BF09048161704700000000000016
S315080085C041F20000C5F600400068000C7047000044
S315080085D040F2C800C2F20040006870470000000080
S315080085E040F2080040F2C801C2F20040C2F200415F
S315080085F000780A6810440860704700000000000010
S3150800860080B5032000F080F801F066F844F21841BE
S315080086104BF26E33C5F60201C0F600030A68096814
S3150800862001F00F01C2F30322595C9A5C01F01F01A5
S3150800863002F01F02D04040F20402C2F2004220FAC1
S3150800864001F1116040F20001C2F2004108600F20FA
S3150800865000F00AF800281CBF012080BD00F030F8A1
S31508008660002080BD00000000B0B540F20801C2F24B
S315080086700041097801B3044640F20000C2F2004006
S315080086804FF47A72B2FBF1F10068B0FBF1F001F039
S3150800869083FC0F2C4FF001050CD858B94FF0FF306A
S315080086A000222146002500F01FF840F20C00C2F215
S315080086B0004004602846B0BD0120B0BD000000009F
S315080086C081B0FFE744F2F440C5F60200016841F0C4
S315080086D002010160006800F0020000900098FFE7C0
S315080086E001B070470000000070B514460D460646F6
S315080086F002F07AFD2946224601F016FE014630466A
S3150800870002F07AFD70BD000080B502F089FD80BDDB
S31508008710B0B544F60C05C5F6020529684907296867
S3150800872005D401F00701081A18BF0120B0BD21F0D1
S31508008730070108432860FFF74BFF044655F8080C65
S31508008740800407D4FFF744FF001BB0F57A7FF5D9FC
S315080087500120B0BD0020B0BD80B500F06DFF44F229
S3150800876020414BF26E32C5F60201C0F600020968D6
S31508008770C1F30211515C01F01F01C84080BD000021
S3150800878080B544F2384EC5F6020E5EF8103C5EF827
S31508008790101CC1F3053C5EF80C1CBCF1000FDEF89A
S315080087A0042014D0C1F30011C2F3CC02514300EEE9
S315080087B0101A03F003010229B8EE400A0CD071B969
S315080087C05EF8381C89060DD49FED341A18E000218E
S315080087D08160C0E9001180BD9FED2F1A10E09FED62
S315080087E02D1A0DE05EF8381C49F20002C0F2D032AC
S315080087F0C1F3C10122FA01F101EE101AB8EE411ACD
S31508008800DEF800109FED263A6FF35F2102EE101A8C
S31508008810DEF80010C1F34621B8EE422A00EE032A1C
S3150800882000EE10CAB7EE003AB8EE400A81EE000A2A
S3150800883032EE031A02EE101AB8EE422A20EE010AA8
S3150800884032EE031A80EE011ABCEEC11A80ED001A48
S31508008850DEF80010C1F3064101EE101AB8EE411A0F
S3150800886031EE031A80EE011ABCEEC11A80ED011A28
S31508008870DEF80010C1F3066101EE101AB8EE411ACF
S3150800888031EE031A80EE010ABCEEC00A10EE101A89
S31508008890816080BD0024744A20BCBE4B0024744C01
S315080088A0000000390000000080B544F2404EC5F6CD
S315080088B0020E5EF8183C5EF8181CC1F3055C5EF8FB
S315080088C0141CBCF1000FDEF8042014D0C1F30021FB
S315080088D0C2F3CC02514300EE101A03F00301022939
S315080088E0B8EE400A0CD071B95EF8401C89060DD462
S315080088F09FED341A18E000218160C0E9001180BD9F
S315080089009FED2F1A10E09FED2D1A0DE05EF8401C22
S3150800891049F20002C0F2D032C1F3C10122FA01F1D4
S3150800892001EE101AB8EE411ADEF800109FED263A4D
S315080089306FF35F2102EE101ADEF80010C1F346212C
S31508008940B8EE422A00EE032A00EE10CAB7EE003A45
S31508008950B8EE400A81EE000A32EE031A02EE101A49
S31508008960B8EE422A20EE010A32EE031A80EE011A08
S31508008970BCEEC11A80ED001ADEF80010C1F30641FC
S3150800898001EE101AB8EE411A31EE031A80EE011AFA
S31508008990BCEEC11A80ED011ADEF80010C1F30661BB
S315080089A001EE101AB8EE411A31EE031A80EE010AEA
S315080089B0BCEEC00A10EE101A816080BD0024744A0D
S315080089C020BCBE4B0024744C000000390000000097
S315080089D02DE9F04381B00446C07844F22C490007DB
S315080089E0C5F6020901D400252EE0A06E4FEA3050E4
S315080089F003280DD80025DFE800F0020E1714D9F871
S31508008A000000002540F40030C9F8000055B913E00D
S31508008A1001253DB910E004F10800022101F0A0FC8F
S31508008A2005464DB1A84611E004F12800022101F0DF
S31508008A3027FD0546002DF5D1D9F82400A16E20F4AE
S31508008A4040100843C9F824004FF000086078C007B2
S31508008A5030D0A06D042807D8DFE800F00A131C03FD
S31508008A600300FDB1A84625E00125002DFAD119E03D
S31508008A70D9F8000040F40030C9F80000002DF1D103
S31508008A8010E004F10800002101F06AFC0546002DFB
S31508008A90E8D107E004F12800002101F0F1FC0546C1
S31508008AA0002DDFD1D9F82400A16D20F00700084376
S31508008AB0C9F824006078800732D5E06D4FEAB01017
S31508008AC0042807D8DFE800F00A131C030300FDB1E9
S31508008AD0A84625E00125002DFAD119E0D9F80000AD
S31508008AE040F40030C9F80000002DF1D110E004F17F
S31508008AF00800002101F034FC0546002DE8D107E006
S31508008B0004F12800002101F0BBFC0546002DDFD149
S31508008B10D9F82400E16D20F4E0700843C9F8240070
S31508008B206078400734D5D4F8A8004FEA7050042876
S31508008B3007D8DFE800F00A131C030300FDB1A846B6
S31508008B4026E00125002DFAD119E0D9F8000040F4F5
S31508008B500030C9F80000002DF1D110E004F108003A
S31508008B60002101F0FDFB0546002DE8D107E004F1E0
S31508008B702800002101F084FC0546002DDFD1D9F834
S31508008B802C00D4F8A81020F460000843C9F82C007B
S31508008B906078000734D5D4F8AC004FEA3060042872
S31508008BA007D8DFE800F00A131C030300FDB1A84646
S31508008BB026E00125002DFAD119E0D9F8000040F485
S31508008BC00030C9F80000002DF1D110E004F10800CA
S31508008BD0002101F0C5FB0546002DE8D107E004F1A8
S31508008BE02800002101F04CFC0546002DDFD1D9F8FC
S31508008BF02C00D4F8AC1020F0E0600843C9F82C002B
S31508008C00E078800728D5E06C4FEA3010032806D8AC
S31508008C10DFE800F002091202B5B1A8461CE00125FA
S31508008C20002DFAD110E0D9F8000040F40030C9F858
S31508008C300000002DF1D107E004F10800022101F03F
S31508008C408FFB0546002DE8D1D9F82000E16C20F00D
S31508008C5030000843C9F820006078C00632D5206E77
S31508008C604FEA3030042807D8DFE800F00A131C035F
S31508008C700300FDB1A84625E00125002DFAD119E02B
S31508008C80D9F8000040F40030C9F80000002DF1D1F1
S31508008C9010E004F10800002101F062FB0546002DF2
S31508008CA0E8D107E004F12800002101F0E9FB0546B8
S31508008CB0002DDFD1D9F82400216E20F4E0400843C6
S31508008CC0C9F824006078800626D5606E4FEA3040E1
S31508008CD0052807D8DFE800F0030A100303039DB14F
S31508008CE0A84619E00125002DFAD10DE004F1080087
S31508008CF0012101F035FB04E004F12800012101F00F
S31508008D00BFFB0546002DEBD1D9F82400616E20F48F
S31508008D10E0200843C9F824006078400628D5D4F82E
S31508008D20B0004FEA3070052807D8DFE800F0030ADC
S31508008D30100303039DB1A8461AE00125002DFAD1B8
S31508008D400DE004F10800012101F00AFB04E004F13A
S31508008D502800012101F094FB0546002DEBD1D9F836
S31508008D602C00D4F8B01020F0E0400843C9F82C00D5
S31508008D706078000620D5206FD8B1B0F1005F12D018
S31508008D80B0F1805F25D1D9F8000040F40030C9F869
S31508008D90000085B9D9F82400216F20F04050084317
S31508008DA0C9F8240008E004F10800012101F0D8FA06
S31508008DB00546002DEED0A846E078C0072AD0A06C5C
S31508008DC003280AD8DFE800F0020D1602D5B1A84636
S31508008DD020E00125002DEED1DCE70125002DF6D196
S31508008DE010E0D9F8000040F40030C9F80000002D62
S31508008DF0EDD107E004F10800022101F0B1FA0546B9
S31508008E00002DE4D1D9F82000A16C20F00300084316
S31508008E10C9F82000A078400642D5D9F8D40340F412
S31508008E208070C9F8D403FFF7D3FB0646D9F8D403F4
S31508008E30C00505D4FFF7CCFB801B6528F6D30325B0
S31508008E406DBBD9F84410D4F8B400414011F4407F02
S31508008E5011D0D9F84410D9F8442042F48032C9F820
S31508008E604420D9F8442021F4407122F48032C9F80C
S31508008E704420C9F84410B0F5807F0FD1FFF7A8FB4E
S31508008E80064641F2893700BFD9F84400800705D461
S31508008E90FFF79EFB801BB842F6D3032585B1A8468B
S31508008EA02078C00742D0E06F4FEAF000052823D8A3
S31508008EB0DFE800F003262C0303037DB3A84635E05C
S31508008EC04FF6CF73D4F8B40059F81C2CC0F2FF0340
S31508008ED000F4407122F47C5203EA1013B1F5407F86
S31508008EE008BF1A436FF31F3049F81C2CD9F84410F1
S31508008EF00843C9F84400D3E70125002DDED10DE06B
S31508008F0004F10800012101F02BFA04E004F128001D
S31508008F10012101F0B5FA0546002DCFD1D9F8280070
S31508008F20E16F20F038000843C9F828002078800748
S31508008F3024D5A06F052807D8DFE800F0030A100338
S31508008F4003039DB1A84619E00125002DFAD10DE0CD
S31508008F5004F10800012101F003FA04E004F12800F5
S31508008F60012101F08DFA0546002DEBD1D9F828002C
S31508008F70A16F20F007000843C9F8280020784007A9
S31508008F8026D5D4F89400052807D8DFE800F0030AA8
S31508008F90100303039DB1A8461AE00125002DFAD156
S31508008FA00DE004F10800012101F0DAF904E004F10A
S31508008FB02800012101F064FA0546002DEBD1D9F805
S31508008FC02C00D4F8941020F007000843C9F82C00A8
S31508008FD02078800628D5D4F890004FEA3070052806
S31508008FE007D8DFE800F0030A100303039DB1A8467B
S31508008FF01AE00125002DFAD10DE004F10800002140
S3150800900001F0AEF904E004F12800022101F038FA73
S315080090100546002DEBD1D9F82800D4F8901020F099
S31508009020E0400843C9F828002078400628D5D4F837
S315080090309C004FEAB020052807D8DFE800F0030AAD
S31508009040100303039DB1A8461AE00125002DFAD1A5
S315080090500DE004F10800002101F082F904E004F1B2
S315080090602800022101F00CFA0546002DEBD1D9F8AB
S315080090702C00D4F89C1020F4E0500843C9F82C00C2
S315080090802078000628D5D4F8A0004FEA70300528C5
S3150800909007D8DFE800F0030A100303039DB1A846CA
S315080090A01AE00125002DFAD10DE004F1080000218F
S315080090B001F056F904E004F12800022101F0E0F974
S315080090C00546002DEBD1D9F82C00D4F8A01020F4D1
S315080090D060400843C9F82C002078000716D5D4F854
S315080090E08400B0F5805F08D104F12800022101F060
S315080090F0C7F9002818BF4FF00108D9F82800D4F896
S31508009100841020F440500843C9F828002078C00687
S3150800911016D5D4F89800B0F5807F08D104F1280058
S31508009120022101F0ADF9002818BF4FF00108D9F85F
S315080091302C00D4F8981020F440700843C9F82C0085
S31508009140A078000722D5D4F8A400B0F5003F1AD0BD
S31508009150B0F5803F11D0C8BB04F10800002101F02A
S31508009160FFF805468DB9D9F82C00D4F8A41020F4D8
S3150800917040300843C9F82C0008E004F12800022111
S3150800918001F07EF90546002DEDD0A846A0784007E7
S3150800919029D5D4F88800B0F5401F21D0B0F5001FB6
S315080091A018D0B0F5801F40F0BF80D9F8000040F411
S315080091B00030C9F80000ADB9D9F82800D4F88810ED
S315080091C020F440100843C9F828000CE00125002DBA
S315080091D0DBD1C8E704F12800012101F051F9054661
S315080091E0002DE9D0A846A078C00720D0206DB0F59C
S315080091F0803F10D0B8B9D9F8000040F40030C9F85B
S3150800920000009DB9D9F82000216D20F4803008436C
S31508009210C9F820000BE004F10800022101F0A0F8CB
S3150800922005461DB9EEE70125002DEBD0A846E078E6
S31508009230800608D504F12800022101F021F900284A
S3150800924018BF4FF00108D4E900108A037BD5D4F87B
S3150800925080206FF0010303EB3223022B0AD34FEA77
S3150800926032233BB1012B64D1D9F8003043F40033E3
S31508009270C9F80030002D5FD0CA0267D4CA006FD47F
S315080092808A0279D44A0000F18280B1F1FF3F40F3A7
S315080092908F80090200F19780C00707D004F1080003
S315080092A0002101F05DF8002818BF054620798007DF
S315080092B007D504F10800012101F052F8002818BF6B
S315080092C005462079400707D504F10800022101F078
S315080092D047F8002818BF05462079000707D504F186
S315080092E02800002101F0CCF8002818BF054620798F
S315080092F0C00607D504F12800012101F0C1F80028AD
S3150800930018BF05462079800607D504F128000221F2
S3150800931001F0B6F8002818BF0125002D18BF012551
S31508009320284601B0BDE8F0830125002D7FF45AAF29
S3150800933042E70125002D9FD1D9F8283023F4407340
S315080093401A43C9F828204546CA0297D5D9F82420D1
S31508009350636F22F000421A43C9F82420CA008FD549
S3150800936059F81C2CD4F8B83022F480421A4349F82C
S315080093701C2C8A027FF586AFD9F82420E36E22F0EA
S3150800938080721A43C9F824204A007FF57EAF59F83F
S315080093901C2C22F4004249F81C2CD4F8BC2059F89D
S315080093A01C3C1A4349F81C2CB1F1FF3F3FF771AF3B
S315080093B0D9F82020636D22F040521A43C9F82020BC
S315080093C009027FF569AFD9F82810D4F88C2021F462
S315080093D040011143C9F82810C0077FF45FAF65E75D
S315080093E02DE9F04381B0002800F0F48042F200082D
S315080093F00446C5F200288946D8F8000000F00F0098
S3150800940088420ED2D8F8000020F00F0040EA090082
S31508009410C8F80000D8F8000000F00F00484540F0F2
S31508009420D980206844F218474107C5F602070AD5CD
S3150800943021693A6802F07002914204D93A6822F02A
S3150800944070021143396001070AD561697A6802F02A
S315080094507002914204D97A6822F070021143796049
S31508009460C1060AD5A1697A6802F4E062914204D974
S315080094707A6822F4E0621143796081060AD5E169C7
S31508009480BA6802F07002914204D9BA6822F07002F2
S315080094901143B96081070AD5E1683A6802F00F02FC
S315080094A0914204D93A6822F00F0211433960C00785
S315080094B07ED1206881070AD5E1683A6802F00F0272
S315080094C0914204D23A6822F00F0211433960D8F863
S315080094D0001001F00F0149450DD9D8F8001021F008
S315080094E00F0141EA0901C8F80010D8F8001001F088
S315080094F00F0149456ED141070AD521693A6802F03C
S315080095007002914204D23A6822F07002114339601F
S3150800951001070AD561697A6802F07002914204D29D
S315080095207A6822F0700211437960C1060AD5A169EA
S315080095307A6802F4E062914204D27A6822F4E06220
S315080095401143796080060AD5E069B96801F07001AF
S31508009550884204D2B96821F070010843B86000F067
S31508009560BBF839684BF26E32C0F600023B68C1F3AD
S31508009570032103F00F03515CD25C01F01F01C840C0
S3150800958002F01F0140F2040220FA01F1C2F2004281
S31508009590116040F2000140F20C02C2F20041C2F230
S315080095A0004208601068FFF75FF801B0BDE8F08375
S315080095B0386820F47061D4E90102012841EA020101
S315080095C039600BD003282BD002282ED157F8181C47
S315080095D0890307D4012001B0BDE8F08357F8181CA9
S315080095E0C905F7D557F8081C21F00701084347F8BD
S315080095F0080CFEF7EDFF064641F2883557F8080CC9
S31508009600616800F03800B0EBC10F3FF452AFFEF7C7
S31508009610DFFF801BA842F1D9032001B0BDE8F08323
S3150800962057F8181C8901D5D5DCE757F8181C4907DF
S31508009630D0D5D7E70000000080B500F04DF844F219
S3150800964018414BF26E33C5F60201C0F600030A68EC
S31508009650096801F00F01C2F30322595C9A5C02F013
S315080096601F0220FA02F201F01F0040F2040122FA5A
S3150800967000F0C2F20041086040F20001C2F2004167
S315080096800A6080BD0000000080B5FFF7D5FF44F2F0
S315080096901C414BF26E32C5F60201C0F6000209689B
S315080096A0C1F30211515C01F01F01C84080BD0000E2
S315080096B080B5FFF7C1FF44F21C414BF26E32C5F686
S315080096C00201C0F600020968C1F30221515C01F0EB
S315080096D01F01C84080BD000044F20041C5F60201E2
S315080096E00869C0F3C20003280FD002282AD070BB2D
S315080096F00868800649F20000C0F2D03058BF7047AB
S315080097000968C1F3C101C84070478A6A886AC0F30C
S31508009710051CC86ABCF1000F4B6B1DD0C3F3CC0304
S3150800972000F00100584302F00302022A00EE100A74
S31508009730B8EE400A12D0A2B90868800614D49FED84
S31508009740261A1EE047F64000C0F27D10704740F624
S315080097500010C0F23D007047002070479FED1D1AAB
S315080097600FE09FED1B1A0CE0086849F20002C0F2F0
S31508009770D032C0F3C10022FA00F001EE100AB8EEAA
S31508009780411A086B9FED153A6FF35F2002EE100A37
S31508009790086BC0F34620B8EE422A013000EE032AD1
S315080097A000EE10CAB7EE003AB8EE400A81EE000A9B
S315080097B032EE031A20EE010A01EE100AB8EE411A3B
S315080097C080EE010ABCEEC00A10EE100A704700BF10
S315080097D00024744A20BCBE4B0024744C0000003997
S315080097E02DE9F04381B0F8B18046007844F200498B
S315080097F0C007C5F602095AD0D9F8100000F038019A
S31508009800D9F82800102905D018290FD100F003002F
S3150800981002280BD1D9F80000800344D5D8F80400F3
S31508009820002840D101272FE0012718E3D8F8044083
S315080098302CB1B4F5A02F0DD0B4F5803F10D0D9F8CF
S31508009840000020F48030C9F80000D9F8000020F4A0
S31508009850802009E0D9F8000040F48020C9F800000B
S31508009860D9F8000040F48030C9F80000FEF7B0FED1
S315080098700546A4B1D9F80000800314D4FEF7A8FE63
S31508009880401B6428F6D903270020002800F0E78249
S315080098900DE000BFFEF79CFE401B6428F3D8D9F8FC
S315080098A000008003F6D40120002800F0D88298F83A
S315080098B00000800740F18480D9F8100010F03801C4
S315080098C0D9F828001CD0182908BF5FEA807017D07D
S315080098D0D8F80C00D9F80010002847D021F0190153
S315080098E00843C9F80000FEF773FE0546D9F80000DC
S315080098F040072AD4FEF76CFE401B0228F6D91EE064
S31508009900D9F80000400704D5D8F80C00002800F064
S315080099109681D9F80000D8F80C1020F019000843F1
S31508009920C9F80000FEF754FE054600BFD9F8000046
S3150800993040070AD4FEF74CFE401B0228F6D9032737
S315080099400024002C00F08B823AE0FEF739FE41F243
S315080099500301884223D8D8F81000D9F80410402803
S3150800996021F47C3124D141F4003023E021F00100B8
S31508009970C9F80000FEF72CFE05460126D9F80000B6
S3150800998010F0040086EA900417D0FEF721FE401B6B
S315080099900328F3D30327002C00F0618210E0D9F8DE
S315080099A00400D8F8101020F0FE4040EA016001E0FB
S315080099B041EA0030C9F804000124002C00F04F8267
S315080099C098F80000C00674D5D9F8100000F03801E0
S315080099D0D9F82800082905D018291CD100F0030059
S315080099E0012818D1D9F80000C00503D5D8F81C00FD
S315080099F0802859D1FEF7E4FD41F20301884222D8B6
S31508009A00D8F82000D9F80410202821F0F84142D1CE
S31508009A1041F0804041E0D8F81C000028D9F8000041
S31508009A2020D040F08000C9F80000FEF7D1FD0546B9
S31508009A30D9F80000C005DDD4FEF7CAFD401B022890
S31508009A40F6D9032731E0D9F80C00D8F8201020F011
S31508009A507C50012440EA0160C9F80C00002C00F093
S31508009A60FE8126E020F08000C9F80000FEF7B0FD70
S31508009A7005460126D9F8000010F4807086EA1024FD
S31508009A800ED0FEF7A5FD401B0328F3D30327002CB1
S31508009A9000F0E5810DE041EA8060C9F80400012480
S31508009AA0002C00F0DC8104E001270024002C00F0E3
S31508009AB0D68198F8000000071CD498F800008006A4
S31508009AC031D498F80000400745D4D8F82440002C33
S31508009AD000F09180D9F8100000F03800182840F0FE
S31508009AE08C80012CD9F82810D9F8300040F0A980CC
S31508009AF00127B4E1D8F814000028D9F874003ED03C
S31508009B0040F00100C9F87400FEF762FD054600BF83
S31508009B10D9F874008007D0D4FEF75AFD401B0228F6
S31508009B20F6D903279BE1D8F818000028D9F80000D1
S31508009B304DD040F48050C9F80000FEF749FD0546AF
S31508009B40D9F800008004BCD4FEF742FD401B022869
S31508009B50F6D9032783E1D9F8000440F48070C9F8E0
S31508009B600004FEF735FD0546D9F80004C0051AD4E9
S31508009B70FEF72EFD401B6428F6D903276FE120F077
S31508009B800100C9F87400FEF723FD0546032700BF48
S31508009B90D9F8740080077FF590AFFEF719FD401BD2
S31508009BA00228F5D95BE1D8F808402CB1052C00F05D
S31508009BB08280012C00F08580D9F8700020F0010021
S31508009BC0C9F87000D9F8700020F004007DE020F490
S31508009BD08050C9F80000FEF7FBFC0546032700BFC6
S31508009BE0D9F8000080047FF56CAFFEF7F1FC401B46
S31508009BF00228F5D933E1002731E1D9F8000020F031
S31508009C008070C9F80000FEF7E3FC022C05464FF009
S31508009C10030709D1D9F80000800178D5FEF7D8FCEA
S31508009C20401B0228F6D91AE1D9F80000800140F154
S31508009C30E780FEF7CDFC401B0228F5D90FE1012786
S31508009C407EE601F00302D8F828309A4240F0DA801E
S31508009C50C1F30511D8F82C20914240F0D78001466F
S31508009C60D8F830206FF35F21013A914240F0D08056
S31508009C70C0F34622D8F8341001398A4240F0CA8027
S31508009C80C0F30642D8F8381001398A4240F0C48039
S31508009C90C0F30660D8F83C100139884240F0BE800F
S31508009CA0D9F83400D8F84810C0F3CC00814240F007
S31508009CB0B7800027D3E0D9F8700040F00400C9F84F
S31508009CC07000D9F8700040F00100C9F87000FEF77E
S31508009CD07FFC002C054641F288344FF0030711D06B
S31508009CE0D9F8700080073FF5F0AEFEF771FC401B0F
S31508009CF0A042F5D9B3E000BFFEF76AFC401BA042BC
S31508009D0000F2AD80D9F870008007F5D4DDE608F1D9
S31508009D102807D9F8280040F2F33188438ECF084344
S31508009D20591E40EA02104FF47E426FF35F21C9F8CC
S31508009D30280002EB47204FF4FE0280B2D8F83C30E8
S31508009D400844D8F8381002EB01414FF0FE4201F4FE
S31508009D50FE0102EB0362084402F0FE410844C9F81A
S31508009D603000D9F82C004FF6F87120F00100C9F838
S31508009D702C00D9F83400D8F84820884340EAC200B5
S31508009D80C9F83400D9F82C00D8F8401020F00C0097
S31508009D900843C9F82C00D9F82C00D8F8441020F04C
S31508009DA002000843C9F82C00D9F82C0040F480308A
S31508009DB0C9F82C00D9F82C0040F40030C9F82C005A
S31508009DC0D9F82C0040F48020C9F82C00D9F82C00CA
S31508009DD040F00100C9F82C00D9F8000040F0807066
S31508009DE0C9F80000FEF7F4FB04460327D9F800007B
S31508009DF0800109D4FEF7ECFB001B0228F6D92EE0F9
S31508009E0000272CE001272AE0002728E0012726E082
S31508009E10012724E0012722E0012720E001271EE090
S31508009E20D9F82C0020F00100C9F82C00FEF7D0FB69
S31508009E300546FEF7CDFBA842FBD0D9F834004FF60D
S31508009E40F871D8F848208843002740EAC200C9F8C4
S31508009E503400D9F82C0040F00100C9F82C00F8B2FB
S31508009E6001B0BDE8F083000010B5E8B1044690F8EB
S31508009E70210028B9002084F82000204600F044F884
S31508009E80022084F821002068C168C9060ED4CA21B8
S31508009E90416253214162204600F082FB70B128B32B
S31508009EA02168FF224A6202E0012010BD0020002836
S31508009EB018BF10BD012184F8211010BD94E8035085
S31508009EC04FF6BF738268CFF68F731A408260226995
S31508009ED01143A26911438268114381604EEA0C411D
S31508009EE00161204600F084FB0028D9D12168D4F806
S31508009EF014C0E369CA6C22F00302CA644CEA03027E
S31508009F00CB6C1A43CA64CBE780B5B2B031906846C9
S31508009F10C021FEF715FA3198006844F20001C5F62B
S31508009F200001884219D1FFE7002001904FF4800014
S31508009F3000904FF400702D906846FEF749FD18B161
S31508009F40FFE7FEF741FAFFE744F27041C5F6020162
S31508009F50086840F400400860FFE732B080BD0000A2
S31508009F60B0B5044600684FF65F71C0F20301C160E0
S31508009F70FEF72EFB054600BF2068C068800607D49A
S31508009F80FEF726FB401BB0F57A7FF5D90320B0BD56
S31508009F900020B0BD0000000080B500F059FB80BD70
S31508009FA010B5044690F88400012801D1022010BD9E
S31508009FB0012084F884002420C4F8880020680168F9
S31508009FC0026841F0005122F0010202604FF000528F
S31508009FD062660160204600F0B7FC2020C4F88800BD
S31508009FE0002084F8840010BDB0B5044690F88400BB
S31508009FF0012801D10220B0BD012084F88400242064
S3150800A000C4F8880020680568026822F00102026028
S3150800A010826822F0606211438160204600F094FC59
S3150800A020206805602020C4F88800002084F8840091
S3150800A030B0BD000000000000B0B5044690F88400EA
S3150800A040012801D10220B0BD012084F88400242013
S3150800A050C4F8880020680568026822F001020260D8
S3150800A060826822F0604211438160204600F06CFC51
S3150800A070206805602020C4F88800002084F8840041
S3150800A080B0BD00000000000010B5B0B10446D0F81D
S3150800A090880028B9002084F88400204600F028F8B3
S3150800A0A02420C4F888002068016821F001010160B5
S3150800A0B0204600F071FD012801D1012010BDA06ADB
S3150800A0C010B1204600F06CFC2068416821F49041EC
S3150800A0D04160816821F02A018160016841F001012F
S3150800A0E00160204600F0CCFC10BD00000000000016
S3150800A0F080B5B8B0379000203690359034903390BC
S3150800A100329002A8C021FEF71BF93798006841F281
S3150800A1100001C4F2010188423CD1FFE70020039008
S3150800A12001210291219002A8FEF752FC18B1FFE71F
S3150800A130FEF74AF9FFE7FFE744F2F040C5F60200EA
S3150800A140016841F010010160006800F010000190FC
S3150800A1500198FFE7FFE744F2E040C5F60200016810
S3150800A16041F001010160006800F0010000900098CC
S3150800A170FFE74FF4C06032900220339000203490FD
S3150800A1803590072036900020C5F6020032A9FEF762
S3150800A19037F9FFE738B080BDFFE7FEE700000000AB
S3150800A1A080B58CB000200B900A9009900890079013
S3150800A1B0FFE744F2E040C5F60200016841F00101FC
S3150800A1C00160006800F0010006900698FFE7FFE7C7
S3150800A1D044F2E040C5F60200016841F0040101605E
S3150800A1E0006800F0040005900598FFE7FFE744F2D1
S3150800A1F0E040C5F60200016841F080010160006890
S3150800A20000F0800004900498FFE740F60000C5F6C9
S3150800A210020003904FF40051019101220292FEF7C9
S3150800A220C7F9019A029903980792089100210991A2
S3150800A2300A9107A9FEF7E4F80CB080BD00000000FB
S3150800A24080B582B040F21000C2F20040019044F29C
S3150800A2500001C5F600010160002141607F2282608D
S3150800A260FF22C26001618161C1614161FFF7FCFDA6
S3150800A27018B1FFE7FEF7A8F8FFE702B080BD0000B7
S3150800A28080B582B040F23400C2F20040009041F23C
S3150800A2900001C4F2010101604FF4614141600021EF
S3150800A2A001918160C16001610C2242618161C161D5
S3150800A2B0016241628162FFF7E7FE18B1FFE7FEF728
S3150800A2C083F8FFE740F23400C2F200404FF0204125
S3150800A2D0FFF7B2FE18B1FFE7FEF776F8FFE740F2A0
S3150800A2E03400C2F200404FF00061FFF77DFE18B15E
S3150800A2F0FFE7FEF769F8FFE740F23400C2F20040D4
S3150800A300FFF74EFE18B1FFE7FEF75EF8FFE702B06B
S3150800A31080BD000000000000FFE7FEE70000000027
S3150800A320FFE7FEE70000000000F007004FF0FF3CE3
S3150800A33080F00703042B28BF0423033838BF002006
S3150800A3400CFA03F399430CFA00F301FA00F022EA37
S3150800A3500301084370470000704700000000000032
S3150800A360F0B581B044F22C47C5F6020757F8042C1D
S3150800A37002F00302032A02D1012001B0F0BD05460E
S3150800A38057F82C0C0C4620F0806047F82C0CFEF78A
S3150800A3901FF9064657F82C0C000105D5FEF718F9E3
S3150800A3A0801B0228F6D964E057F8040CEE6895E895
S3150800A3B00E0020F47C30012C40EA0130A2F10101A4
S3150800A3C06FF35F214FF47E4202EB432247F8040CF9
S3150800A3D092B24FF0FE4302EB01004FF4FE012A69E8
S3150800A3E001EB064101F4FE0103EB0262084402F0A8
S3150800A3F0FE410844F8603868696920F0C00040EA00
S3150800A400010038603868A96920F0200040EA010098
S3150800A410386038684FF6F87120F0100038603869EF
S3150800A420EA6920EA01004FF4001140EAC2003861E7
S3150800A430386808BF4FF4801140F01000002C3860CF
S3150800A44008BF4FF4002138680843386057F82C0CC9
S3150800A45040F0806047F82C0CFEF7BAF8044600BFB7
S3150800A46057F82C0C000107D4FEF7B2F8001B032896
S3150800A470F6D3032001B0F0BD002001B0F0BD000006
S3150800A480F0B581B044F22C47C5F6020757F8042CFC
S3150800A49002F00302032A02D1012001B0F0BD0546ED
S3150800A4A057F82C0C0C4620F0805047F82C0CFEF779
S3150800A4B08FF8064657F82C0C800005D5FEF788F865
S3150800A4C0801B0228F6D964E057F8040CEE6895E874
S3150800A4D00E0020F07C70012C40EA0150A2F1010127
S3150800A4E06FF35F214FF47E4202EB432247F8040CD8
S3150800A4F092B24FF0FE4302EB01004FF4FE012A69C7
S3150800A50001EB064101F4FE0103EB0262084402F086
S3150800A510FE41084478613868696920F4406040EA79
S3150800A520010038603868A96920F4007040EA010023
S3150800A530386038684FF6F87120F480703860B8696A
S3150800A540EA6920EA01004FF0807140EAC200B8616A
S3150800A550386808BF4FF4000140F48070002C38605A
S3150800A56008BF4FF4800138680843386057F82C0C48
S3150800A57040F0805047F82C0CFEF72AF8044600BF36
S3150800A58057F82C0C800007D4FEF722F8001B032886
S3150800A590F6D3032001B0F0BD002001B0F0BD0000E5
S3150800A5A070B504460068C16849061DD44FF0FF31EE
S3150800A5B0C160FEF70DF82168C968490614D4054636
S3150800A5C0002600BFFEF704F8401BB0F57A7F02D9D3
S3150800A5D0032684F821602068032EC06802D010F094
S3150800A5E04000EFD0F0B270BD0026F0B270BD00009A
S3150800A5F0B0B544F208050446C5F60005696821F0B9
S3150800A600400169602968890607D42046FFF7A8FC37
S3150800A61078B1032084F82100B0BD286820F0200016
S3150800A62028602046FFF79CFC28B1032084F8210007
S3150800A63002E00020B0BD0020296841F02001296011
S3150800A640B0BD0000000000007047000000000000D8
S3150800A650B0B501380024B4EB106F01D00120B0BDAD
S3150800A6604EF210050F21CEF2000568604FF0FF305C
S3150800A67000F0C2FDAC60072028602046B0BD00008F
S3150800A68080B5FDF7ADFF80BD80B5A0B00DA84C2103
S3150800A690FDF756FE002001900C900B900A90099049
S3150800A6A008900790069005900220FEF731F8FFE71C
S3150800A6B00020049040F22C40C5F60000016821F005
S3150800A6C001010160006800F00100049044F61800DA
S3150800A6D0C5F60200016841F440410160006800F4D3
S3150800A6E0404004900498FFE7FFE744F61800C5F6D3
S3150800A6F00200006800F40050B0F5005F01D0FFE7E3
S3150800A700F3E7FFE744F2F440C5F60200016841F0BA
S3150800A71002010160006800F0020003900398FFE759
S3150800A720FFE70020029044F61800C5F6020001680B
S3150800A73041F440410160006800F44040029040F254
S3150800A7402C40C5F60000016841F00101016000686F
S3150800A75000F0010002900298FFE7FFE744F61800B0
S3150800A760C5F60200006800F40050B0F5005F01D09D
S3150800A770FFE7F3E709200D904FF480300E90012093
S3150800A780129002211691179105201890C020199051
S3150800A7901A9108201B901C911D9000201E901F9056
S3150800A7A00DA8FFF71DF818B1FFE7FDF70DFEFFE747
S3150800A7B03F20059003200690002007900820089067
S3150800A7C0402009900A904FF480610B910C9005A8DF
S3150800A7D00421FEF705FE18B1FFE7FDF7F5FDFFE7D3
S3150800A7E020B080BD0000000081B04EF68851CEF240
S3150800A7F00001086840F47000086042F20000C5F2E3
S3150800A8000020006800F00F0006280AD8FFE742F289
S3150800A8100001C5F200210868072262F303000860F8
S3150800A820FFE744F20041C5F60201086840F001005E
S3150800A830086044F21042C5F602020020106008685B
S3150800A8404EF67F52CEF6F6221040086042F200001D
S3150800A850C5F20020006800F00F0008280AD3FFE7B9
S3150800A86042F20001C5F200210868072262F30300DC
S3150800A8700860FFE744F21841C5F60201002000907F
S3150800A880086044F21C41C5F60201086044F2204102
S3150800A890C5F60201086044F22842C5F6020240F2F3
S3150800A8A00021C0F20221116044F22C42C5F60202D0
S3150800A8B00021C0F2FF11116044F23042C5F60202CF
S3150800A8C040F28021C0F20111116044F23442C5F60B
S3150800A8D00202106044F23842C5F60202116044F2E0
S3150800A8E03C42C5F60202106044F24042C5F6020236
S3150800A8F0116044F24441C5F60201086044F2004280
S3150800A900C5F60202116821F48021116044F2604103
S3150800A910C5F60201086041F20001C5F60041096862
S3150800A920B0EB517F07D1FFE748F20811C5F20011D5
S3150800A93001200860FFE744F20001C5F2002143F256
S3150800A940D200086001B0704710B5416E01B30168C6
S3150800A9504BF2963CC0F6000C4BF29E3E8A68C0F657
S3150800A960000E8968C2F342624C0F1CF802301EF8CA
S3150800A97002101A011EF80430B2FBF1F11CF804208B
S3150800A980A0F868101201B2FBF3F2A0F86A2010BD15
S3150800A9900121A0F86A10A0F8681010BD0000000098
S3150800A9A0816ACA070CD18A0715D44A071ED40A0732
S3150800A9B027D4CA0630D48A0639D44A0655D541E082
S3150800A9C00268D0F82CC0536823F4003343EA0C031A
S3150800A9D053608A07E9D50268D0F830C0536823F473
S3150800A9E0803343EA0C0353604A07E0D50268D0F87F
S3150800A9F034C0536823F4802343EA0C0353600A07E0
S3150800AA00D7D50268D0F838C0536823F4004343EA20
S3150800AA100C035360CA06CED50268D0F83CC09368CA
S3150800AA2023F4805343EA0C0393608A06C5D502686B
S3150800AA30D0F840C0936823F4005343EA0C039360AC
S3150800AA404A0612D50268D0F844C0BCF5801F536880
S3150800AA5023F4801343EA0C03536006D1536823F4A6
S3150800AA60C00C836C43EA0C035360090658BF704751
S3150800AA700168C06C4A6822F4002210434860704797
S3150800AA80B0B582B004460020C4F89000FDF7A0FDDA
S3150800AA90216805460968090719D54FF400110022EF
S3150800AAA06FF07E40009020462B4600F039FB70B1CF
S3150800AAB0206850E8000F216820F0800041E8000275
S3150800AAC0002AF5D12020C4F8880003202FE020684A
S3150800AAD00068400723D54FF4800100226FF07E40BE
S3150800AAE0009020462B4600F01BFBC0B1206850E8BA
S3150800AAF0000F216820F4907041E80002002AF5D181
S3150800AB00206850E8020F216820F0010041E802029F
S3150800AB10002AF5D12020C4F88C00032007E0202065
S3150800AB20C4F88800C4F88C000020E066206700217D
S3150800AB3084F8841002B0B0BD016851E8001F0268AD
S3150800AB4021F4907142E80013002BF5D14FF6FE7CF4
S3150800AB50CEF6FF7C026852E8022F036802EA0C026E
S3150800AB6043E802210029F5D1C16E01290AD100BFA7
S3150800AB70016851E8001F026821F0100142E800133D
S3150800AB80002BF5D12021C0F88C100021C166416741
S3150800AB907047000000000000F0B583B00446036863
S3150800ABA0806846F6F316D4E9031210436269104327
S3150800ABB0E2691F68CCF6FF76104307EA06021043DF
S3150800ABC0186058684FF2FF4720F4405240F600409C
S3150800ABD011435960C5F60000A1698342C1F2FF1707
S3150800ABE01CBF226A11439A6847F2FF763A40C4F2BC
S3150800ABF0000611439960DA6A44F2544122F00F02C2
S3150800AC00676AC5F602013A43B342DA624FF0800238
S3150800AC1025DD40F6FF77C4F20107BB423FDD8342DC
S3150800AC2000F0718041F20047C4F20107BB4200F010
S3150800AC30758041F20007C4F20107BB4240F0A580C7
S3150800AC400A68C2F3C203052B00F296800122DFE8E8
S3150800AC5013F09C0091009500970099009B0044F61C
S3150800AC60FF37C4F20007BB4233DC44F20047C4F2A4
S3150800AC700007BB4200F05D8044F60007C4F20007F7
S3150800AC80BB4240F082800A6802F00703052B00F2F7
S3150800AC9073800022DFE803F0796E7274767847F6DF
S3150800ACA00007C4F20007BB4200F04E8047F6004793
S3150800ACB0C4F20007BB4240F068800A6802F0070346
S3150800ACC0052B00F259800022DFE803F05F54585A3A
S3150800ACD05C5E44F60047C4F20007BB4200F03F80C2
S3150800ACE045F20007C4F20007BB4240F04E800A68EE
S3150800ACF002F00703052B00F23F800022DFE803F08D
S3150800AD00453A3E4042444A6802F00703052B33D8C9
S3150800AD100222DFE803F03A2F333537390A68C2F3DF
S3150800AD20C203052B28D80122DFE803F02F24282A9E
S3150800AD302C2E0A6802F00703052B1DD80022DFE82F
S3150800AD4003F024191D1F21230A6802F00703052BA7
S3150800AD5012D80022DFE803F0190E121416180A6832
S3150800AD6002F00703052B07D80022DFE803F00E03DD
S3150800AD7007090B0D042208E0802206E0082204E0F9
S3150800AD80102202E0202200E040222368834240F697
S3150800AD900010C0F23D0000F05380E369B3F5004FA0
S3150800ADA040F07880402A00F21A810025DFE812F088
S3150800ADB041001201170117011B011701170117019D
S3150800ADC01F011701170117011701170117011701AD
S3150800ADD02601170117011701170117011701170196
S3150800ADE01701170117011701170117011701170195
S3150800ADF03401170117011701170117011701170168
S3150800AE001701170117011701170117011701170174
S3150800AE101701170117011701170117011701170164
S3150800AE201701170117011701170117011701170154
S3150800AE3031010025FEF728FC002840F0EF8049E1A3
S3150800AE40931E1E2B00F274800027DFE813F01F0004
S3150800AE5077007A007700770077007E007700770022
S3150800AE6077007700770077007700B80077007700DB
S3150800AE70770077007700770077007700770077000C
S3150800AE807700770077007700770083000027FDF7C3
S3150800AE9063FC5FE0402A00F2E6800025DFE812F056
S3150800AEA04100DE00E300E300E700E300E300E3001F
S3150800AEB0EB00E300E300E300E300E300E300E30064
S3150800AEC0F200E300E300E300E300E300E300E3004D
S3150800AED0E300E300E300E300E300E300E300E3004C
S3150800AEE00001E300E300E300E300E300E300E3001E
S3150800AEF0E300E300E300E300E300E300E300E3002C
S3150800AF00E300E300E300E300E300E300E300E3001B
S3150800AF10E300E300E300E300E300E300E300E3000B
S3150800AF20FD000025FEF7B0FB002840F0BA80D1E00E
S3150800AF30402A03D14FF4004000270BE000200127E8
S3150800AF4008E06846FDF71CFC02E06846FDF7ACFC25
S3150800AF500027019878B3616A4BF27E32C0F6000288
S3150800AF606668012532F8112006EB4603B0FBF2F1BC
S3150800AF709942C0F0AF803303994200F2AB800021BA
S3150800AF800023FDF7A5F90902002341EA10613246BC
S3150800AF90000210EB560041F10001FDF799F94FF652
S3150800AFA0FF42A0F54071C0F20F02914205D8216810
S3150800AFB03D46C8608EE03D468CE001258AE051F8A2
S3150800AFC0540C800649F20000C0F2D03000F18B80A4
S3150800AFD00027BFE70025FEF76BFBF8B97AE00020EB
S3150800AFE00125D8B976E06846FDF7CAFB02E068464F
S3150800AFF0FDF75AFC0025019880B96BE051F8540C0E
S3150800B000800649F20000C0F2D03073D4002528B972
S3150800B01060E04FF40040002500285BD0616A4BF2DF
S3150800B0207E32C0F6000232F811106268B0FBF1F009
S3150800B030510801EB4000B0FBF2F0A0F110014FF609
S3150800B040EF72914208D84FF6F07122680140C0F3BA
S3150800B05042000844D0603DE001253BE00025FEF7AC
S3150800B06027FBF0B936E000200125D0B932E0684662
S3150800B070FDF786FB02E06846FDF716FC00250198F9
S3150800B08078B927E051F8540C800649F20000C0F25E
S3150800B090D03039D4002520B91CE04FF400400025F3
S3150800B0A0C0B1616A4BF27E32C0F6000232F8111066
S3150800B0B06268B0FBF1F000EB5200B0FBF2F0A0F1D1
S3150800B0C010014FF6EF72914203D880B22168C8602A
S3150800B0D000E001254FF00110A0660020C4E91D001C
S3150800B0E0284603B0F0BD51F8541C0027C1F3C1012E
S3150800B0F0C8402FE751F8541C0025C1F3C101C840C8
S3150800B10000287FF48BAFE5E751F8541C0025C1F3FE
S3150800B110C101C8400028C4D1DCE7000000000000D7
S3150800B1202DE9F04381B004460068C0690840401A1A
S3150800B130B0FA80F04009904239D1DDF820800D46FA
S3150800B1401646994608F1010709E000BF2068C0695C
S3150800B1502840401BB0FA80F04009B0422BD1002F9E
S3150800B160F4D0FDF735FAB8F1000F01464FF00300A9
S3150800B17022D0A1EB090141451ED82068016849077C
S3150800B180E4D5C16909071AD4C1690905DED54FF4A2
S3150800B190006101622046FFF7CFFC2020C4F890002A
S3150800B1A0002084F88400032001B0BDE8F083002065
S3150800B1B001B0BDE8F083002001B0BDE8F0830825A2
S3150800B1C005622046FFF7B8FCC4F89050002084F8C2
S3150800B1D08400012001B0BDE8F083000000000000F3
S3150800B1E0FFE7FEE7000000004EF60C50CEF2000026
S3150800B1F00068C0F3022070474EF6145300F00F02A1
S3150800B200CEF20003B0F1FF3F1A4400F16043C8BF15
S3150800B21003F5644208011070704700000000000042
S3150800B2204EF60C514FF6FF03CEF200010A681A409B
S3150800B23060F30A2242F0806040F0FD7008607047B3
S3150800B24080B584B0002000904EF61450CEF200006F
S3150800B25000688003002801D5FFE71AE0BFF34F8F87
S3150800B260BFF36F8F4EF65071CEF2000100200860D2
S3150800B270BFF34F8FBFF36F8F4EF61451CEF2000116
S3150800B280086840F400300860BFF34F8FBFF36F8F34
S3150800B290FFE74EF61450CEF200000068C0030028FF
S3150800B2A001D5FFE73CE04EF68451CEF200010020BE
S3150800B2B00860BFF34F8F4EF68050CEF2000000684C
S3150800B2C003900398C0F34E300290FFE70398C0F34B
S3150800B2D0C9000190FFE702990198800761F34D10B4
S3150800B2E04EF66071CEF2000108600198411E019188
S3150800B2F00028F0D1FFE70298411E02910028E5D107
S3150800B300FFE7BFF34F8F4EF61451CEF200010868DF
S3150800B31040F480300860BFF34F8FBFF36F8FFFE7AD
S3150800B320FDF76EF9FFF7B0F9FEF73AFFFEF7A8FF4B
S3150800B330FEF786FFFFE740F60000C5F602004FF469
S3150800B3400051FDF72DF94FF47A70FDF745F8F2E74D
S3150800B35002E008C8121F08C1002AFAD170477047D0
S3150800B360002001E001C1121F002AFBD1704700002E
S3150800B370000001020304010203040607080901008C
S3150800B38002000400060008000A000C001000200055
S3150800B39040008000000101010103070100000804C4
S3150800B3A00204080101010000C8B3000800000024D7
S3150800B3B01000000050B30008D8B30008100000249D
S3150800B3C0C040000060B300080090D0030090D0038E
S30D0800B3D0010000001000000056
S70508008299D7
