:020000040800F2
:1000000010210024AD020008992F0008292E0008B5
:10001000912F000839080008E9520008000000008C
:10002000000000000000000000000000193400087B
:10003000E108000800000000D13100085934000830
:10004000C7020008C7020008C7020008C70200086C
:10005000C7020008C7020008C7020008C70200085C
:10006000C7020008C7020008C7020008C70200084C
:10007000C7020008C7020008C7020008C70200083C
:10008000C7020008C7020008C7020008C70200082C
:10009000C7020008C7020008C7020008C70200081C
:1000A000C7020008C7020008C7020008C70200080C
:1000B000C7020008C7020008C7020008C7020008FC
:1000C000C7020008C7020008C7020008C7020008EC
:1000D000C7020008C7020008C7020008C7020008DC
:1000E000C7020008C702000800000000C70200089D
:1000F000C7020008C7020008C7020008C7020008BC
:10010000C7020008C7020008C7020008C7020008AB
:10011000C7020008C7020008C7020008C70200089B
:10012000C7020008C7020008C7020008C70200088B
:10013000C7020008C7020008C7020008C70200087B
:1001400000000000000000000000000000000000AF
:10015000C7020008C7020008C7020008C70200085B
:10016000C7020008C7020008C7020008C70200084B
:10017000C7020008C7020008C7020008C70200083B
:10018000C7020008C7020008C7020008C70200082B
:10019000C7020008C7020008C7020008C70200081B
:1001A000C7020008C7020008C7020008C70200080B
:1001B000C7020008C7020008C7020008C7020008FB
:1001C000C7020008C7020008C7020008C7020008EB
:1001D000C7020008D12F0008C7020008C7020008A4
:1001E000C7020008C7020008C7020008C7020008CB
:1001F000C7020008C7020008C7020008C7020008BB
:10020000C7020008C7020008C7020008C7020008AA
:10021000C7020008C7020008C7020008C70200089A
:10022000C7020008C7020008C7020008000000005B
:10023000C7020008C702000800000000C70200084B
:10024000C7020008C7020008C7020008C70200086A
:10025000C7020008C7020008C7020008C70200085A
:10026000C7020008C7020008C7020008C70200084A
:10027000C7020008C7020008C7020008000000000B
:10028000C7020008C7020008C702000800000000FB
:1002900000000000C7020008DFF80CD000F02AFAC6
:1002A0000048004769530008102100240648804791
:1002B00006480047FEE7FEE7FEE7FEE7FEE7FEE74B
:1002C000FEE7FEE7FEE7FEE7713500089902000849
:1002D000D2B201E000F8012B491EFBD27047002288
:1002E000F6E710B513460A4604461946FFF7F0FF35
:1002F000204610BD30B50B460146002020220124C7
:1003000009E021FA02F59D4205D303FA02F5491BE3
:1003100004FA02F52844151EA2F10102F1DC30BDF9
:100320002DE9F05F0546002092469B46884606462A
:10033000814640241BE0284641464746224600F0BD
:10034000FAF953465A46C01A914110D3114618463D
:10035000224600F0E1F92D1A67EB01084F462246CC
:100360000120002100F0D8F917EB00094E41201EB2
:10037000A4F10104DFDC484631462A464346BDE885
:10038000F09F2DE9FE4F804681EA0300C00F0C4626
:10039000009021F0004123F00045B8EB0200A94194
:1003A00005D24046214690461C460B46024623F0A5
:1003B0000040104347D0270DC7F30A00C3F30A518A
:1003C0000290401A019040286BDAC3F3130040F406
:1003D000801B0098924620B10023D2EB030A63EB06
:1003E0000B0B01985946C0F14002504600F094F9B9
:1003F00006460D4650465946019A00F0ACF910EBFE
:1004000008006141002487EA115284EAE7731A4325
:1004100040D0009A62B3019A012A4FEA075215DCD4
:10042000001B61EB02014FF0004202EA0752CDE9E6
:100430000042001C41F5801132462B4600F0ACF919
:1004400003B0BDE8F08F40462146F9E7001B61EBA1
:100450000201001C41F5801300185B412018A2F531
:10046000001747EB030140EAD570B6196D4111E062
:100470006D084FEA360645EAC0754FEA0752001B81
:1004800061EB0201001C41F5801149084FEA300080
:100490000019514132462B4603B0BDE8F04F00F041
:1004A0006CB90098012240000023D0EB020263EBFC
:1004B000E073009821464FEAE074B8EB000061EB6E
:1004C0000401E9E783F000435BE781F0004158E76E
:1004D0002DE9FE4F81EA030404F0004421F00041BD
:1004E00000944FF0000B23F0004350EA01045ED06B
:1004F00052EA03045BD0C3F30A54C1F30A552C44F7
:10050000A4F2F3340194A0FB0254C1F3130141F4AB
:100510008011C3F3130343F4801301FB024400FB77
:10052000034E840A970A44EA815447EA8357A4FB9E
:10053000076802958D0A05FB07854FEA932C04FB9B
:100540000C542705029D4FEA065847EA1637B5EBCB
:1005500008056EEB070C870E920E47EA811742EAF8
:100560008312A7FB0201B6EB0B0164EB00042B0D19
:1005700043EA0C335E1844EB1C50DA465146E7FB65
:100580000201C5F313044FEA0B3343EA14534FEA55
:100590000432019C43EA0603A4F10C040294009C7B
:1005A000CDE900B400F0F8F803B0BDE8F08F00200A
:1005B0000146F9E72DE9F04D81EA030404F0004B10
:1005C00021F0004514464FF0000A23F0004150EAA4
:1005D000050220D054EA01021DD0C5F30A57024695
:1005E000C5F31303C1F31300C1F30A5640F4801599
:1005F00043F48013A7EB0608101BD64608F2FD381B
:1006000073EB050002D308F1010801E092185B4189
:10061000B8F1000F03DA00200146BDE8F08D00209C
:100620004FF48011064684460EE0171B73EB050756
:1006300005D3121B63EB050306434CEA010C490882
:100640004FEA300092185B4150EA0107EDD152EABF
:10065000030012D082EA040083EA0501084305D0B2
:10066000101BAB4106D20122002306E000224FF00E
:10067000004302E06FF0010253101AEB06004CEB4E
:10068000085110EB0A0041EB0B01BDE8F04D00F002
:1006900074B8C1F30A52C1F3130140F2FF3341F4BD
:1006A00080119A4202DA00200146704740F233433B
:1006B0009A42A2F2334202DC524200F03CB800F00F
:1006C0002BB8000030B5041E71F1000404DB4FF0BC
:1006D0000044404264EB0101141E73F1000405DB89
:1006E0001C464FF00043524263EB0403994208BF9B
:1006F000904230BD064C074D06E0E06840F0010333
:1007000094E8070098471034AC42F6D3FFF7C8FDD1
:10071000345D0008545D0008202A04DB203A00FA0A
:1007200002F1002070479140C2F1200320FA03F348
:10073000194390407047202A04DB203A21FA02F046
:100740000021704721FA02F3D040C2F1200291400B
:10075000084319467047202A06DBCB17203A41FA96
:1007600002F043EAE07306E041FA02F3D040C2F13E
:100770002002914008431946704710B5141E73F1CA
:10078000000408DA401C41F1000192185B411A4351
:1007900001D120F0010010BD2DE9F04D92469B469D
:1007A00011B1B1FA81F202E0B0FA80F22032904643
:1007B000FFF7B2FF04460F4640EA0A0041EA0B0188
:1007C00053465A46084313D0114653EA010019D044
:1007D000C8F140025046FFF7AEFF05460E465046B0
:1007E00059464246FFF798FF084305D0012004E030
:1007F00020463946BDE8F08D0020054346EAE07604
:100800002C4337430A986305E40AA0EB0800002252
:10081000FD0A44EA47540A3002D500200146E9E7C0
:10082000010510196941DDE9084500196941BDE874
:10083000F04DA2E700000000FEE70000000000000D
:1008400000207047000000000020704700000000FA
:1008500010B541F2245440F62451C2F20044C2F2D1
:1008600000410022204603F0C3F840F22451204604
:10087000C2F2004103F0ACF8002010BD00000000FF
:1008800010B541F224540146C2F20044204603F060
:100890009FF8204603F078F8002010BD000000000B
:1008A000002070470000000010B541F22452C2F24F
:1008B0000042D2F8BC22D2F81422002A1CBF012028
:1008C00010BD41F224540A46C2F2004401462046BB
:1008D00003F08EF8204603F02BF910BD0000000055
:1008E0007047000000000000EFF3108072B600BFF8
:1008F000FEE7000000000000B0B54EF60001C1F6B2
:10090000F17108688A68801808BFB0BD40F2DC0544
:100910004C68C2F200450822A91C02F089FA05F1D0
:1009200012010422204602F083FAB0BD000000004C
:10093000B0B5044600F0F0F840F2F6010546C2F208
:100940000041621C097818BF0C4400BF00F0E4F8B5
:10095000401BA042FAD3B0BD2DE9F04F83B00C6824
:10096000002C00F0C68000F1264242F2004702F15E
:10097000FF72C5F602074FEAB22201920A22B8427C
:1009800008BF0922002500274FF0010A009209E064
:100990000C68043734FA0AF20AF1010A05F102057B
:1009A00000F0A780AAF10109012202FA09FE14EA67
:1009B0000E08EDD0D1F804B00BF00304A4F1010C43
:1009C000BCF1010F11D803228668AA40CB6826EA41
:1009D0000202AB401A438260CBF30013426822EA62
:1009E0000E0203FA09F31A434260032C1ED00323BC
:1009F000C268AB40022C22EA03028B6803FA05F3BB
:100A000042EA0302C26011D16FF0030207F01C0634
:100A100002EA59020F23024403FA06F4D2F820C076
:100A20000B692CEA0404B3402343136203230268D6
:100A3000AB404E689A4306F00303AB4016F4403FC8
:100A400042EA03020260A3D044F2F44340F2084EAB
:100A5000C5F60203C5F6000E1A6842F002021A60DB
:100A60001A6807F00C0302F002020292029A29F0BF
:100A70000302019C009E092C38BF26460F2452F821
:100A80000EC09C402CEA040406FA03F34FF0B04C6D
:100A9000234342F80E30DCF800204B6842EA080697
:100AA000DC0258BF22EA08069C02CCF8006040F243
:100AB000040CC5F6000CDCF8002042EA080658BF1A
:100AC00022EA08069C03CCF80060DCF8802042EAA9
:100AD000080658BF22EA0806DB03CCF88060DCF881
:100AE0007C2042EA080658BF22EA0806CCF87C605F
:100AF0004EE703B0BDE8F08F002A08BF090481610A
:100B0000704700000000000041F20000C5F6004000
:100B10000068000C7047000041F60C50C2F2004023
:100B2000006870470000000040F2F60041F60C51EA
:100B3000C2F20040C2F2004100780A681044086026
:100B4000704700000000000080B5032000F0D0F8DE
:100B500001F09EFD44F2184145F62453C5F602010A
:100B6000C0F600030A68096801F00F01C2F303220E
:100B7000595C9A5C01F01F0102F01F02D04040F264
:100B80002402C2F2004220FA01F1116040F2200179
:100B9000C2F2004108600F2000F00AF800281CBFD4
:100BA000012080BD00F080F8002080BD0000000022
:100BB000B0B540F2F601C2F20041097801B3044633
:100BC00040F22000C2F200404FF47A72B2FBF1F121
:100BD0000068B0FBF1F002F023F90F2C4FF0010593
:100BE0000CD858B94FF0FF3000222146002500F004
:100BF0006FF840F2F800C2F2004004602846B0BD31
:100C00000120B0BD00000000B0B502784EF69C5C3B
:100C1000CEF2000C43784CF8043CF2B14368CCF8B7
:100C20000030037BC17A90F80AE0457B447A42EABF
:100C30000372837B42EA0161C27B41EACE41007AC2
:100C400041EA854141EA434141EA024141EA042146
:100C500041EA4000CCF80400B0BD0020CCF8000010
:100C6000CCF80400B0BD00004EF62450CEF20000D7
:100C7000BFF35F8F016821F48031016000210167BB
:100C800070470000000000004EF6245140F00100C3
:100C9000CEF200010867086840F480300860BFF3B6
:100CA0004F8FBFF36F8F704781B044F2F440C5F6A9
:100CB0000200016841F002010160006800F00200DA
:100CC0000090009801B0704780B504F011FB80BD22
:100CD00070B514460D46064604F01AFB2946224616
:100CE00002F05EF90146304604F01AFB70BD0000C8
:100CF00080B504F029FB80BD01680122C0F8002501
:100D0000002280F8F424886940F000608861486D12
:100D100040F08052002042F003024A657047000014
:100D20007047000000000000026800205162704718
:100D300010B5D0F800C0DCF82400D9B1DCF82830B8
:100D4000B1F1010E00EB13430CD00021002000BFD5
:100D50000CEB81010130D1F80441C1B28E4503EBA7
:100D60001443F5D80CEB8E0043EA0241C0F804119D
:100D7000002010BD40EA0240CCF82800002010BD41
:100D800080B5D0F8080503F0D3F980BD000000005D
:100D900080B501EBC10200EB8202D0F80805926C2D
:100DA00003F032F980BD000080B501EBC10200EB19
:100DB0008202D0F80805D2F8882203F07DF980BDC0
:100DC00080B5D0F8080503F0B7F980BD0000000039
:100DD00080B501F00F02090602EBC20200EB8203AC
:100DE00003F13C0258BF03F51F720068114604F07E
:100DF0007BF880BD0000000010B5044601F00F0034
:100E00000A0600EBC00104EB810205D402F51F7154
:100E1000002382F87D3204E002F13C01012382F8D4
:100E20003D3094F8BC240870012A01D1022010BD85
:100E3000012084F8BC04206803F0C2FD002084F87F
:100E4000BC0410BD00000000B0B5044601F00F0066
:100E50006268904201D90120B0BD090609D400EBB7
:100E6000C001002304EB810202F51F7182F87D327C
:100E700008E000EBC001012304EB810202F13C0118
:100E800082F83D3094F8BC2400258D70012A08704A
:100E900001D10220B0BD012084F8BC04206803F019
:100EA000DFFE284684F8BC54B0BD000000000000FE
:100EB00001F00F0101EBC10100EB8100D0F89002BD
:100EC0007047000000000000B0B5054601F00F00BB
:100ED0000C0600EBC00105EB810C05D40CF51F716D
:100EE00000248CF87D4204E00CF13C0101248CF8D4
:100EF0003D404C7808708A60002C0B7118BF488305
:100F0000022B01D10020487195F8BC04012801D1C1
:100F10000220B0BD012085F8BC04286803F084FCE1
:100F2000002085F8BC04B0BD80B501F00F0E0EEBBB
:100F3000CE0100EB810C0021CCE9A331C368CCF8D1
:100F400088228CF87D12012B8CF87CE20CF51F7145
:100F500008BFCCF89822DAB2006803F0D1FE002076
:100F600080BD000000000000B0B5044601F00F0590
:100F70004068854201D90120B0BD080609D401EBC3
:100F8000C100002204EB800000F51F7180F87D2273
:100F900008E005EBC500012204EB800000F13C01F4
:100FA00080F83D2094F8BC2401208870012A0D703F
:100FB00001D10220B0BD84F8BC04206803F078FEA3
:100FC0002DB9217B206804F2C44203F019FE0020F1
:100FD00084F8BC04B0BD000080B501F00F0E0EEB2C
:100FE000CE0100EB810C614601F83CEF4FF0000EA2
:100FF000C1F814E04FF0010E81F801E0D0F80CE0E8
:10100000CA60BEF1010F0B6108BFCCF858205FFA2F
:101010008EF2006803F074FE002080BD0000000026
:101020002DE9F04F83B006688246304604F008F898
:1010300010B103B0BDE8F08FDAF8000004F030F82A
:101040000028F6D0D6F80808C0F30D20CAF8FC0432
:10105000DAF8000004F024F8800705D5DAF800007B
:10106000416901F002014161DAF8000006F500670C
:1010700004F016F8C00640D5DAF80000816921F0C6
:1010800010018161346A04F00F05C4F3434006285F
:101090001CD002282BD147F6F070044027D005EB76
:1010A000C50022090AEB80053046D5F8881203F006
:1010B000FBFFD5F88802D5F8901200EB1410C5F8A4
:1010C000880201EB1410C5F8900210E00AF2C44146
:1010D0000822304603F0E8FF05EBC500C4F30A110F
:1010E0000AEB8000D0F890221144C0F89012DAF890
:1010F0000000816941F010018161DAF80000CDE95A
:10110000017603F0CDFF000370D5DAF8000003F09C
:10111000A3FF00286AD00646029800F530654FF01C
:10112000000940F27F2400270BE000BFB9EB560F07
:1011300007F101074FEA560605F1200504F12404E2
:1011400054D0F007F2D05FFA87F8DAF80000414691
:1011500003F09EFF8346C00710D15FEA0B7016D4E0
:101160005FEACB601CD45FEA8B701ED45FEA8B60B1
:1011700033D45FEA8B40D9D534E000BF0120A860AA
:101180005046394601F054FF5FEA0B70E8D508205D
:10119000A8605046394601F023FF5FEACB60E2D5F4
:1011A0001020A8605FEA8B70E0D5029840690006C5
:1011B00004D50199486840F4806048601AF804003A
:1011C000012805D1504641460AF8049000F050FA33
:1011D0000220A8605FEA8B60CBD52020A8605FEA80
:1011E0008B40A3D54FF40050A8609FE7DAF80000C9
:1011F00003F056FF400340F18780DAF8000003F067
:1012000023FF002800F0808006460AF2C4400090C8
:10121000029800F510680AF13F0B4FF00009002713
:101220000BE000BFB9EB560F07F101074FEA560676
:1012300008F120080BF1240B66D0F007F2D0FCB2C5
:10124000DAF80000214603F00FFF0546C0070BD176
:10125000280731D4E80634D4680637D4A8073AD42E
:101260002806DFD54BE000BF019A07F00F000123ED
:1012700003FA00F0516B21EA00005063C8F808300F
:10128000DAF80C00012811D1DBF80500DBF80910B1
:101290000844CBF809004FB9DBF80D0030B9DAF893
:1012A00000000121009A03F0ABFC00BF504621462C
:1012B000FFF76EFD2807CDD50820C8F80800E8061E
:1012C000CAD51020C8F808006806C7D54020C8F85D
:1012D0000800A807C4D50298394603F079FE9BF8A8
:1012E0000000012805D1504621468BF8009000F0FF
:1012F000B7F90220C8F8080028067FF593AF5046DA
:10130000394601F001FF8DE7DAF8000003F0C8FE6E
:10131000B0F1FF3FDDE901981ADCD9F8040020F0B4
:101320000100C9F804009AF8F404012807D100204C
:101330008AF8F40400215046FFF7F2FC02E0504620
:1013400000F0AEFADAF80000416901F000414161B5
:10135000DAF8000003F0A4FE00050CD5D9F8080067
:10136000C00702D0504600F0EBFADAF800004169FD
:1013700001F400614161DAF8000003F091FE000120
:1013800018D5DAF80000416901F0006141619AF86E
:10139000F41419B1504600F0D3FA0BE001218AF899
:1013A000F414406D0121C0F38300CAF8F8045046DC
:1013B000FFF7B6FCDAF8000003F072FEC00460D557
:1013C000D9F80400102120F00100C9F80400DAF86F
:1013D000000003F0FDFDDAF80400F8B108F5106034
:1013E000DAF8041000224FF67F3300BF8360013229
:1013F00007688A4227F400170760C0F80832D0F85F
:10140000007227F40017C0F80072D0F8007247F09D
:101410000067C0F8007200F12000E7D3D9F81C0083
:1014200040F00110C9F81C00DAF8300040B1D9F8DA
:10143000840040F00B00C9F8840009F1440008E082
:10144000D9F8140042F22B010843C9F8140009F13D
:10145000100001680AF2C44241F00B010160D9F8A2
:10146000000020F4FE60C9F800009AF80C10DAF8C9
:10147000000003F0C5FBDAF80000416901F4805177
:101480004161DAF8000003F00BFE80041CD5DAF8A5
:10149000000003F015FADAF8000003F0C1FDCAF805
:1014A0001000DAF8004001F0CBF89AF8102001465D
:1014B000204603F071FE504600F0DAF9DAF8000039
:1014C000416901F400514161DAF8000003F0E8FDE0
:1014D000000708D5504600F0EBF9DAF80000416942
:1014E00001F008014161DAF8000003F0D9FD0006BF
:1014F0001ED5D8F8180020F08000C8F81800DAF8D7
:101500000400022814D3012440F2A32507E000BF01
:101510000134DAF80400844205F1240508D21AF8EF
:1015200005000128F4D1E1B25046FFF751FCEFE786
:10153000DAF8000003F0B4FDC0022AD5DAF804009E
:10154000022820D308F512640AF164050126012758
:1015500009E000BF0137DAF80400874204F12004F3
:1015600005F124050FD22068B0F1FF3FF2DC2878A6
:101570000128EFD147F0800005F8016CC1B2504658
:10158000FFF726FCE6E7DAF80000416901F4801174
:101590004161DAF8000003F083FD80023AD5DAF801
:1015A0000400022830D308F532600AF529710122BF
:1015B000012308E00133DAF80470BB4200F1200097
:1015C00001F1240120D20768B7F1FF3FF2DC0E7869
:1015D000012EEFD1DAF8FC6407F4803706F001063B
:1015E000B742E7D101F8012CD8F8187047F080070E
:1015F000C8F81870D8F814703F06DBD4D9F8040086
:1016000040F40070C9F80400DAF80000416901F400
:1016100000114161DAF8000003F042FD400008D5F6
:101620005046FFF7ADFBDAF80000416901F0804158
:101630004161DAF8000003F033FD40077FF5F9ACB3
:10164000DAF800004468600702D55046FFF7B8FB9F
:10165000DAF8000041682143416003B0BDE8F08F33
:1016600080B5D0F8080502F0C7FD80BD000000007D
:1016700080B5D0F8080502F0D3FD80BD0000000061
:101680002DE9F04F8BB0002800F0878004460568F4
:1016900090F8BD0428B9002084F8BC04204600F06E
:1016A00093F8032084F8BD04E86BC00501D4002042
:1016B000E060206803F09CFA20680A9004F1040EB0
:1016C00004F11C0AD4E90C509EE80E589AE8C007B1
:1016D000CDE9085003A88DE8005880E8C0070A98B3
:1016E00003F0FEF8002855D120680021002503F002
:1016F00003FD6168C1B1616801200023002200BFC1
:1017000003EBC30304EB8307D3B287F83C20013219
:10171000A7F85630D3B287F83D00994287F8405079
:101720007D64BD64FD64EBD8B1B1002000230022CC
:1017300003EBC30304EB830787F87C220132D3B2A7
:1017400087F87D02994287F88002C7F88402C7F8BB
:101750008802C7F88C02EBD804F1140E04F1240AB5
:101760002268A0680A90D4E903379EE840589AE8B6
:101770000007D4E90C50CDE9085002A8CDE9007665
:1017800080E8005805A880E8000710460A9A03F090
:101790007FF930B1022084F8BD0401200BB0BDE810
:1017A000F08F002084F83800012084F8BD04606ABE
:1017B000012802D12046FFF79FFA206803F058F96C
:1017C00000200BB0BDE8F08FB0B5B8B0044602A859
:1017D000C0210025CDE93655CDE934553395FEF7C6
:1017E0007EFD00212068C4F20801884201D038B093
:1017F000B0BD4FF4802002904FF44010249002A816
:10180000039500F0E9F808B1FFF76EF800F0D8F89A
:1018100044F2D84433A9C5F60204A06840F00100A0
:10182000A060A06800F00100019001984FF4C05042
:101830003390022034900020CDE935000A20379003
:101840000020C5F60200FFF787F82068002140F06D
:10185000006020602068002200F000600190019884
:101860006520FFF735FA6520FFF72EFA38B0B0BDD6
:1018700010B50446006918B1022803D1012104E023
:10188000002102E0FFF730F80121D4F8080502F04A
:101890003FFDD4F8080502F0EBFC10BD000000008D
:1018A00080B5D0F8080502F017FD80BD00000000EB
:1018B00080B5D0F8080502F01BFD80BD00000000D7
:1018C00010B5044690F8BC04012801D1022010BDD7
:1018D000012084F8BC0484F83810206803F040FC30
:1018E000002084F8BC0410BD80B5D0F8082500F2B3
:1018F000C441104602F018FD80BD00000000000049
:1019000010B5044690F8BC04012801D1022010BD96
:101910002068012184F8BC14C16BC90506D4A16AF2
:10192000012903D1816B41F48031816303F020FBF5
:10193000206803F08DF8002084F8BC0410BD00007E
:1019400010B50446D0F8080502F02AFD2068D0F84A
:10195000001E41F00101C0F8001E206A002808BFE7
:1019600010BD4EF61050CEF20000016841F00601A5
:10197000016010BD00000000B0B544F60C05C5F6CE
:10198000020529684907296805D401F00701081AEA
:1019900018BF0120B0BD21F0070108432860FFF700
:1019A000BBF8044655F8080C800407D4FFF7B4F8D8
:1019B000001BB0F57A7FF5D90120B0BD0020B0BD85
:1019C00044F60C00C5F60200016841F08071016028
:1019D00070470000000000002DE9F04381B004468C
:1019E000C07844F22C490007C5F6020901D400254D
:1019F0002EE0A06E4FEA305003280DD80025DFE816
:101A000000F0020E1714D9F80000002540F4003051
:101A1000C9F8000055B913E001253DB910E004F103
:101A20000800022101F0D8FB05464DB1A84611E09F
:101A300004F12800022101F05FFC0546002DF5D1DC
:101A4000D9F82400A16E20F440100843C9F82400FE
:101A50004FF000086078C00730D0A06D042807D888
:101A6000DFE800F00A131C030300FDB1A84625E0DF
:101A70000125002DFAD119E0D9F8000040F400301A
:101A8000C9F80000002DF1D110E004F10800002198
:101A900001F0A2FB0546002DE8D107E004F1280083
:101AA000002101F029FC0546002DDFD1D9F82400E2
:101AB000A16D20F007000843C9F824006078800772
:101AC00032D5E06D4FEAB010042807D8DFE800F007
:101AD0000A131C030300FDB1A84625E00125002DD3
:101AE000FAD119E0D9F8000040F40030C9F800003C
:101AF000002DF1D110E004F10800002101F06CFB91
:101B00000546002DE8D107E004F12800002101F08E
:101B1000F3FB0546002DDFD1D9F82400E16D20F458
:101B2000E0700843C9F824006078400734D5D4F841
:101B3000A8004FEA7050042807D8DFE800F00A1325
:101B40001C030300FDB1A84626E00125002DFAD1B3
:101B500019E0D9F8000040F40030C9F80000002D69
:101B6000F1D110E004F10800002101F035FB054639
:101B7000002DE8D107E004F12800002101F0BCFBB2
:101B80000546002DDFD1D9F82C00D4F8A81020F498
:101B900060000843C9F82C006078000734D5D4F8F9
:101BA000AC004FEA3060042807D8DFE800F00A13E1
:101BB0001C030300FDB1A84626E00125002DFAD143
:101BC00019E0D9F8000040F40030C9F80000002DF9
:101BD000F1D110E004F10800002101F0FDFA054602
:101BE000002DE8D107E004F12800002101F084FB7A
:101BF0000546002DDFD1D9F82C00D4F8AC1020F028
:101C0000E0600843C9F82C00E078800728D5E06C34
:101C10004FEA3010032806D8DFE800F0020912026C
:101C2000B5B1A8461CE00125002DFAD110E0D9F885
:101C3000000040F40030C9F80000002DF1D107E0A9
:101C400004F10800022101F0C7FA0546002DE8D191
:101C5000D9F82000E16C20F030000843C9F82000DA
:101C60006078C00632D5206E4FEA3030042807D89D
:101C7000DFE800F00A131C030300FDB1A84625E0CD
:101C80000125002DFAD119E0D9F8000040F4003008
:101C9000C9F80000002DF1D110E004F10800002186
:101CA00001F09AFA0546002DE8D107E004F128007A
:101CB000002101F021FB0546002DDFD1D9F82400D9
:101CC000216E20F4E0400843C9F8240060788006C3
:101CD00026D5606E4FEA3040052807D8DFE800F0CF
:101CE000030A100303039DB1A84619E00125002D46
:101CF000FAD10DE004F10800012101F06DFA04E0D1
:101D000004F12800012101F0F7FA0546002DEBD17E
:101D1000D9F82400616E20F4E0200843C9F82400BB
:101D20006078400628D5D4F8B0004FEA3070052816
:101D300007D8DFE800F0030A100303039DB1A846AB
:101D40001AE00125002DFAD10DE004F1080001216F
:101D500001F042FA04E004F12800012101F0CCFA7C
:101D60000546002DEBD1D9F82C00D4F8B01020F0A6
:101D7000E0400843C9F82C006078000620D5206FA9
:101D8000D8B1B0F1005F12D0B0F1805F25D1D9F8A1
:101D9000000040F40030C9F8000085B9D9F82400EB
:101DA000216F20F040500843C9F8240008E004F1F6
:101DB0000800012101F010FA0546002DEED0A846DA
:101DC000E078C0072AD0A06C03280AD8DFE800F02A
:101DD000020D1602D5B1A84620E00125002DEED156
:101DE000DCE70125002DF6D110E0D9F8000040F421
:101DF0000030C9F80000002DEDD107E004F1080023
:101E0000022101F0E9F90546002DE4D1D9F82000BE
:101E1000A16C20F003000843C9F82000A078400618
:101E200042D5D9F8D40340F48070C9F8D403FEF742
:101E300073FE0646D9F8D403C00505D4FEF76CFE40
:101E4000801B6528F6D303256DBBD9F84410D4F860
:101E5000B400414011F4407F11D0D9F84410D9F8B2
:101E6000442042F48032C9F84420D9F8442021F4B7
:101E7000407122F48032C9F84420C9F84410B0F50A
:101E8000807F0FD1FEF748FE064641F2893700BF3A
:101E9000D9F84400800705D4FEF73EFE801BB84207
:101EA000F6D3032585B1A8462078C00742D0E06F5D
:101EB0004FEAF000052823D8DFE800F003262C03C2
:101EC00003037DB3A84635E04FF6CF73D4F8B400D2
:101ED00059F81C2CC0F2FF0300F4407122F47C522C
:101EE00003EA1013B1F5407F08BF1A436FF31F30A8
:101EF00049F81C2CD9F844100843C9F84400D3E72A
:101F00000125002DDED10DE004F10800012101F0D2
:101F100063F904E004F12800012101F0EDF9054620
:101F2000002DCFD1D9F82800E16F20F03800084308
:101F3000C9F828002078800724D5A06F052807D885
:101F4000DFE800F0030A100303039DB1A84619E07F
:101F50000125002DFAD10DE004F10800012101F066
:101F60003BF904E004F12800012101F0C5F9054620
:101F7000002DEBD1D9F82800A16F20F0070008430D
:101F8000C9F828002078400726D5D4F89400052801
:101F900007D8DFE800F0030A100303039DB1A84649
:101FA0001AE00125002DFAD10DE004F1080001210D
:101FB00001F012F904E004F12800012101F09CF97C
:101FC0000546002DEBD1D9F82C00D4F8941020F060
:101FD00007000843C9F82C002078800628D5D4F8DB
:101FE00090004FEA3070052807D8DFE800F0030AB8
:101FF000100303039DB1A8461AE00125002DFAD174
:102000000DE004F10800002101F0E6F804E004F11D
:102010002800022101F070F90546002DEBD1D9F816
:102020002800D4F8901020F0E0400843C9F82800B8
:102030002078400628D5D4F89C004FEAB020052827
:1020400007D8DFE800F0030A100303039DB1A84698
:102050001AE00125002DFAD10DE004F1080000215D
:1020600001F0BAF804E004F12800022101F044F97B
:102070000546002DEBD1D9F82C00D4F89C1020F4A3
:10208000E0500843C9F82C002078000628D5D4F881
:10209000A0004FEA7030052807D8DFE800F0030AF7
:1020A000100303039DB1A8461AE00125002DFAD1C3
:1020B0000DE004F10800002101F08EF804E004F1C5
:1020C0002800022101F018F90546002DEBD1D9F8BE
:1020D0002C00D4F8A01020F460400843C9F82C006C
:1020E0002078000716D5D4F88400B0F5805F08D1B9
:1020F00004F12800022101F0FFF8002818BF4FF07A
:102100000108D9F82800D4F8841020F4405008437E
:10211000C9F828002078C00616D5D4F89800B0F584
:10212000807F08D104F12800022101F0E5F80028A1
:1021300018BF4FF00108D9F82C00D4F8981020F4FB
:1021400040700843C9F82C00A078000722D5D4F8C5
:10215000A400B0F5003F1AD0B0F5803F11D0C8BB45
:1021600004F10800002101F037F805468DB9D9F8CF
:102170002C00D4F8A41020F440300843C9F82C00F7
:1021800008E004F12800022101F0B6F80546002D10
:10219000EDD0A846A078400729D5D4F88800B0F53E
:1021A000401F21D0B0F5001F18D0B0F5801F40F0BF
:1021B000BF80D9F8000040F40030C9F80000ADB984
:1021C000D9F82800D4F8881020F440100843C9F842
:1021D00028000CE00125002DDBD1C8E704F1280020
:1021E000012101F089F80546002DE9D0A846A07824
:1021F000C00720D0206DB0F5803F10D0B8B9D9F815
:10220000000040F40030C9F800009DB9D9F8200062
:10221000216D20F480300843C9F820000BE004F160
:102220000800022100F0D8FF05461DB9EEE70125A0
:10223000002DEBD0A846E078800608D504F12800F0
:10224000022101F059F8002818BF4FF00108D4E925
:1022500000108A037BD5D4F880206FF0010303EBD4
:102260003223022B0AD34FEA32233BB1012B64D134
:10227000D9F8003043F40033C9F80030002D5FD0A6
:10228000CA0267D4CA006FD48A0279D44A0000F126
:102290008280B1F1FF3F40F38F80090200F1978007
:1022A000C00707D004F10800002100F095FF0028C6
:1022B00018BF05462079800707D504F108000121E1
:1022C00000F08AFF002818BF05462079400707D58F
:1022D00004F10800022100F07FFF002818BF054626
:1022E0002079000707D504F12800002101F004F847
:1022F000002818BF05462079C00607D504F128003C
:10230000012100F0F9FF002818BF0546207980065A
:1023100007D504F12800022100F0EEFF002818BFC5
:102320000125002D18BF0125284601B0BDE8F08326
:102330000125002D7FF45AAF42E70125002D9FD1E2
:10234000D9F8283023F440731A43C9F828204546A9
:10235000CA0297D5D9F82420636F22F000421A43AD
:10236000C9F82420CA008FD559F81C2CD4F8B830ED
:1023700022F480421A4349F81C2C8A027FF586AF6A
:10238000D9F82420E36E22F080721A43C9F8242081
:102390004A007FF57EAF59F81C2C22F4004249F820
:1023A0001C2CD4F8BC2059F81C3C1A4349F81C2CAE
:1023B000B1F1FF3F3FF771AFD9F82020636D22F0F4
:1023C00040521A43C9F8202009027FF569AFD9F8B5
:1023D0002810D4F88C2021F440011143C9F82810AA
:1023E000C0077FF45FAF65E72DE9F04381B00028B7
:1023F00000F0F48042F200080446C5F20028894645
:10240000D8F8000000F00F0088420ED2D8F8000083
:1024100020F00F0040EA0900C8F80000D8F80000DA
:1024200000F00F00484540F0D980206844F218477A
:102430004107C5F602070AD521693A6802F0700221
:10244000914204D93A6822F07002114339600107C1
:102450000AD561697A6802F07002914204D97A68FB
:1024600022F0700211437960C1060AD5A1697A6829
:1024700002F4E062914204D97A6822F4E0621143E6
:10248000796081060AD5E169BA6802F0700291426A
:1024900004D9BA6822F070021143B96081070AD5E5
:1024A000E1683A6802F00F02914204D93A6822F0DA
:1024B0000F0211433960C0077ED1206881070AD519
:1024C000E1683A6802F00F02914204D23A6822F0C1
:1024D0000F0211433960D8F8001001F00F0149458F
:1024E0000DD9D8F8001021F00F0141EA0901C8F810
:1024F0000010D8F8001001F00F0149456ED14107D6
:102500000AD521693A6802F07002914204D23A6811
:1025100022F070021143396001070AD561697A68B7
:1025200002F07002914204D27A6822F070021143E4
:102530007960C1060AD5A1697A6802F4E062914225
:1025400004D27A6822F4E0621143796080060AD5E9
:10255000E069B96801F07001884204D2B96821F0DD
:1025600070010843B86000F093F8396845F62452CA
:10257000C0F600023B68C1F3032103F00F03515C76
:10258000D25C01F01F01C84002F01F0140F224029A
:1025900020FA01F1C2F20042116040F2200140F243
:1025A000F802C2F20041C2F2004208601068FEF771
:1025B000FFFA01B0BDE8F083386820F47061D4E917
:1025C0000102012841EA020139600BD003282BD017
:1025D00002282ED157F8181C890307D4012001B016
:1025E000BDE8F08357F8181CC905F7D557F8081C43
:1025F00021F00701084347F8080CFEF78DFA06465C
:1026000041F2883557F8080C616800F03800B0EBEB
:10261000C10F3FF452AFFEF77FFA801BA842F1D9F9
:10262000032001B0BDE8F08357F8181C8901D5D507
:10263000DCE757F8181C4907D0D5D7E700000000A1
:1026400080B500F025F844F2184145F62453C5F64C
:102650000201C0F600030A68096801F00F01C2F325
:102660000322595C9A5C02F01F0220FA02F201F088
:102670001F0040F2240122FA00F0C2F2004108607B
:1026800040F22001C2F200410A6080BD000000005B
:1026900044F20041C5F602010869C0F3C2000328F4
:1026A0000FD002282AD070BB0868800649F20000CB
:1026B000C0F2D03058BF70470968C1F3C101C840AB
:1026C00070478A6A886AC0F3051CC86ABCF1000FAB
:1026D0004B6B1DD0C3F3CC0300F00100584302F054
:1026E0000302022A00EE100AB8EE400A12D0A2B984
:1026F0000868800614D49FED261A1EE047F64000B5
:10270000C0F27D10704740F60010C0F23D007047E7
:10271000002070479FED1D1A0FE09FED1B1A0CE083
:10272000086849F20002C0F2D032C0F3C10022FAB8
:1027300000F001EE100AB8EE411A086B9FED153A51
:102740006FF35F2002EE100A086BC0F34620B8EE6C
:10275000422A013000EE032A00EE10CAB7EE003A1A
:10276000B8EE400A81EE000A32EE031A20EE010AAA
:1027700001EE100AB8EE411A80EE010ABCEEC00A62
:1027800010EE100A704700BF0024744A20BCBE4BF4
:102790000024744C000000392DE9F04381B0F8B1F9
:1027A0008046007844F20049C007C5F602095AD0B5
:1027B000D9F8100000F03801D9F82800102905D008
:1027C00018290FD100F0030002280BD1D9F800001E
:1027D000800344D5D8F80400002840D101272FE019
:1027E000012718E3D8F804402CB1B4F5A02F0DD080
:1027F000B4F5803F10D0D9F8000020F48030C9F83B
:102800000000D9F8000020F4802009E0D9F8000089
:1028100040F48020C9F80000D9F8000040F480306E
:10282000C9F80000FEF778F90546A4B1D9F8000010
:10283000800314D4FEF770F9401B6428F6D90327EF
:102840000020002800F0E7820DE000BFFEF764F9E9
:10285000401B6428F3D8D9F800008003F6D4012087
:10286000002800F0D88298F80000800740F18480AA
:10287000D9F8100010F03801D9F828001CD0182918
:1028800008BF5FEA807017D0D8F80C00D9F80010A4
:10289000002847D021F019010843C9F80000FEF7CD
:1028A0003BF90546D9F8000040072AD4FEF734F971
:1028B000401B0228F6D91EE0D9F80000400704D5D5
:1028C000D8F80C00002800F09681D9F80000D8F85C
:1028D0000C1020F019000843C9F80000FEF71CF99D
:1028E000054600BFD9F8000040070AD4FEF714F9E6
:1028F000401B0228F6D903270024002C00F08B820D
:102900003AE0FEF701F941F20301884223D8D8F8F2
:102910001000D9F80410402821F47C3124D141F46E
:10292000003023E021F00100C9F80000FEF7F4F8C0
:1029300005460126D9F8000010F0040086EA90044C
:1029400017D0FEF7E9F8401B0328F3D30327002C28
:1029500000F0618210E0D9F80400D8F8101020F0DF
:10296000FE4040EA016001E041EA0030C9F804009D
:102970000124002C00F04F8298F80000C00674D5A6
:10298000D9F8100000F03801D9F82800082905D03E
:1029900018291CD100F00300012818D1D9F8000033
:1029A000C00503D5D8F81C00802859D1FEF7ACF833
:1029B00041F20301884222D8D8F82000D9F8041047
:1029C000202821F0F84142D141F0804041E0D8F880
:1029D0001C000028D9F8000020D040F08000C9F881
:1029E0000000FEF799F80546D9F80000C005DDD4CF
:1029F000FEF792F8401B0228F6D9032731E0D9F8F8
:102A00000C00D8F8201020F07C50012440EA01602E
:102A1000C9F80C00002C00F0FE8126E020F08000B8
:102A2000C9F80000FEF778F805460126D9F800003D
:102A300010F4807086EA10240ED0FEF76DF8401B6B
:102A40000328F3D30327002C00F0E5810DE041EAD1
:102A50008060C9F804000124002C00F0DC8104E04F
:102A600001270024002C00F0D68198F80000000710
:102A70001CD498F80000800631D498F80000400774
:102A800045D4D8F82440002C00F09180D9F81000EB
:102A900000F03800182840F08C80012CD9F828105C
:102AA000D9F8300040F0A9800127B4E1D8F814002B
:102AB0000028D9F874003ED040F00100C9F8740035
:102AC000FEF72AF8054600BFD9F874008007D0D475
:102AD000FEF722F8401B0228F6D903279BE1D8F81D
:102AE00018000028D9F800004DD040F48050C9F8F3
:102AF0000000FEF711F80546D9F800008004BCD4A8
:102B0000FEF70AF8401B0228F6D9032783E1D9F81B
:102B1000000440F48070C9F80004FDF7FDFF05468D
:102B2000D9F80004C0051AD4FDF7F6FF401B64284D
:102B3000F6D903276FE120F00100C9F87400FDF712
:102B4000EBFF0546032700BFD9F8740080077FF527
:102B500090AFFDF7E1FF401B0228F5D95BE1D8F803
:102B600008402CB1052C00F08280012C00F08580FB
:102B7000D9F8700020F00100C9F87000D9F8700091
:102B800020F004007DE020F48050C9F80000FDF73B
:102B9000C3FF0546032700BFD9F8000080047FF576
:102BA0006CAFFDF7B9FF401B0228F5D933E10027D0
:102BB00031E1D9F8000020F08070C9F80000FDF77D
:102BC000ABFF022C05464FF0030709D1D9F80000EE
:102BD000800178D5FDF7A0FF401B0228F6D91AE145
:102BE000D9F80000800140F1E780FDF795FF401B18
:102BF0000228F5D90FE101277EE601F00302D8F89B
:102C000028309A4240F0DA80C1F30511D8F82C2020
:102C1000914240F0D7800146D8F830206FF35F2111
:102C2000013A914240F0D080C0F34622D8F83410E7
:102C300001398A4240F0CA80C0F30642D8F8381001
:102C400001398A4240F0C480C0F30660D8F83C10D5
:102C50000139884240F0BE80D9F83400D8F84810D5
:102C6000C0F3CC00814240F0B7800027D3E0D9F810
:102C7000700040F00400C9F87000D9F8700040F00E
:102C80000100C9F87000FDF747FF002C054641F22E
:102C900088344FF0030711D0D9F8700080073FF552
:102CA000F0AEFDF739FF401BA042F5D9B3E000BFFD
:102CB000FDF732FF401BA04200F2AD80D9F8700052
:102CC0008007F5D4DDE608F12807D9F8280040F29E
:102CD000F33188438ECF0843591E40EA02104FF467
:102CE0007E426FF35F21C9F8280002EB47204FF4C2
:102CF000FE0280B2D8F83C300844D8F8381002EB15
:102D000001414FF0FE4201F4FE0102EB0362084470
:102D100002F0FE410844C9F83000D9F82C004FF603
:102D2000F87120F00100C9F82C00D9F83400D8F867
:102D30004820884340EAC200C9F83400D9F82C0082
:102D4000D8F8401020F00C000843C9F82C00D9F83E
:102D50002C00D8F8441020F002000843C9F82C00D9
:102D6000D9F82C0040F48030C9F82C00D9F82C0098
:102D700040F40030C9F82C00D9F82C0040F4802031
:102D8000C9F82C00D9F82C0040F00100C9F82C003B
:102D9000D9F8000040F08070C9F80000FDF7BCFED3
:102DA00004460327D9F80000800109D4FDF7B4FEDA
:102DB000001B0228F6D92EE000272CE001272AE08C
:102DC000002728E0012726E0012724E0012722E050
:102DD000012720E001271EE0D9F82C0020F0010097
:102DE000C9F82C00FDF798FE0546FDF795FEA842B0
:102DF000FBD0D9F834004FF6F871D8F84820884352
:102E0000002740EAC200C9F83400D9F82C0040F08D
:102E10000100C9F82C00F8B201B0BDE8F083000051
:102E200080B500F001FB80BDFEE70000000000005F
:102E300010B5002A08BF10BD02394FF0370C4FF013
:102E4000000E00BF030FB0F1204F0CEB107438BF21
:102E500003F13004013A4FEA001001F8024F81F803
:102E600001E0EFD110BD000010B584B00024CDE921
:102E70000244CDE90044FDF7F7FE0120ADF8000063
:102E800048F21F70029040F20110039068460194CE
:102E9000FDF7BAFE0420FDF7F7FE04B010BD0000F8
:102EA00070B586B044F2E0400025C5F602000595F5
:102EB000CDE90355CDE90155016840F6000441F024
:102EC000010101600168C5F6020401F001010091F1
:102ED0000099016841F0040101600168002201F0DD
:102EE000040100910099016841F0800101600068CF
:102EF0004FF4005100F080000090009820464FF4FD
:102F00000056FDF7F9FD012001A9CDE90205204693
:102F100001960495FDF720FD06B070BD000000008D
:102F200080B541F2245040F20001C2F20040C2F2EA
:102F30000041002201F040F808B1FDF7D5FC41F254
:102F4000245040F22801C2F20040C2F2004101F0D8
:102F500053FA08B1FDF7C8FC41F2245040F2C40115
:102F6000C2F20040C2F2004100F026FD08B1FDF7B8
:102F7000BBFC41F22450C2F2004001F005FB08B155
:102F8000FDF7B2FCFEF71CFD80BD00000000000054
:102F9000FEE7000000000000FEE700000000000067
:102FA00000F007004FF0FF3C80F00703042B28BF20
:102FB0000423033838BF00200CFA03F399430CFABA
:102FC00000F301FA00F022EA030108437047000011
:102FD00080B541F60000C2F20040FEF721F880BD46
:102FE00070B50446006843F20B06056C00EB411017
:102FF000C4F65476B542D0F8081B07D311F400414B
:103000001EBF00F530604FF4004181602046FEF79E
:103010006BFCB54209D3E068012818BF70BD206879
:1030200004F2C442012101F0EBFD70BD000000007C
:1030300070B5044600680E4600EB4111036CD1F8F0
:10304000082BE568012D01F5306127D1150737D42C
:10305000950650D412F0280F18BF70BD43F20B052F
:10306000C4F65475AB4202D312F4004231D106EBE0
:10307000C60204EB8202D2F89C3209696FF3DF4189
:10308000A3EB0101C2F89012AEB9D2F88C32ABB307
:10309000D2F888020844C2F888020CE043F20B051B
:1030A000C4F65475FF35AB4217D1100411D4900605
:1030B00001D520208860F1B22046FDF775FE70BD75
:1030C00043F20B00C4F65470834213D312F4004051
:1030D00010D04FF40040886070BD3EB9D4F88C1217
:1030E00021B904F2C442002101F08AFDF1B2204668
:1030F000FDF75AFE70BD2020886070BD04F2C44206
:10310000012101F07DFDD6E72DE9F04F83B001EB01
:10311000C102064600EB8200054655F84C3F2C469E
:1031200054F8042F934250D30746D6F800C09A1A99
:1031300057F8443F9A4288BF1A46CDE9011C0CEB70
:1031400041110332D1F818399BB2B3EB920F2BD354
:1031500000F1480801985FFA80FA01F5106B00BF92
:103160002068296881421FD9A1EB00093868814590
:10317000327B88BF8146D8F8001000921FFA89F38D
:103180000298524602F094F8D8F800004844C8F873
:10319000000020684844206009F10300DBF81810A3
:1031A00089B2B1EB900FDBD2286821688842019880
:1031B0000BD8029A00F00F00012101FA00F0D2F8BA
:1031C000341821EA0000C2F8340803B0BDE8F08FDB
:1031D0007047000000000000F0B581B044F22C47B9
:1031E000C5F6020757F8042C02F00302032A02D1A5
:1031F000012001B0F0BD054657F82C0C0C4620F01C
:10320000806047F82C0CFDF787FC064657F82C0C1D
:10321000000105D5FDF780FC801B0228F6D964E08B
:1032200057F8040CEE6895E80E0020F47C30012C71
:1032300040EA0130A2F101016FF35F214FF47E42B9
:1032400002EB432247F8040C92B24FF0FE4302EB2C
:1032500001004FF4FE012A6901EB064101F4FE0171
:1032600003EB0262084402F0FE410844F86038684B
:10327000696920F0C00040EA010038603868A96937
:1032800020F0200040EA0100386038684FF6F871FD
:1032900020F0100038603869EA6920EA01004FF434
:1032A000001140EAC2003861386808BF4FF480114D
:1032B00040F01000002C386008BF4FF4002138683F
:1032C0000843386057F82C0C40F0806047F82C0C0D
:1032D000FDF722FC044600BF57F82C0C000107D470
:1032E000FDF71AFC001B0328F6D3032001B0F0BD44
:1032F000002001B0F0BD0000F0B581B044F22C47D1
:10330000C5F6020757F8042C02F00302032A02D183
:10331000012001B0F0BD054657F82C0C0C4620F0FA
:10332000805047F82C0CFDF7F7FB064657F82C0C9D
:10333000800005D5FDF7F0FB801B0228F6D964E07C
:1033400057F8040CEE6895E80E0020F07C70012C14
:1033500040EA0150A2F101016FF35F214FF47E4278
:1033600002EB432247F8040C92B24FF0FE4302EB0B
:1033700001004FF4FE012A6901EB064101F4FE0150
:1033800003EB0262084402F0FE41084478613868A9
:10339000696920F4406040EA010038603868A96932
:1033A00020F4007040EA0100386038684FF6F87188
:1033B00020F480703860B869EA6920EA01004FF0B3
:1033C000807140EAC200B861386808BF4FF400015C
:1033D00040F48070002C386008BF4FF480013868DA
:1033E0000843386057F82C0C40F0805047F82C0CFC
:1033F000FDF792FB044600BF57F82C0C800007D461
:10340000FDF78AFB001B0328F6D3032001B0F0BDB3
:10341000002001B0F0BD0000704700000000000077
:103420000088704700000000B0B501380024B4EBFC
:10343000106F01D00120B0BD4EF210050F21CEF269
:10344000000568604FF0FF3001F06AFFAC600720B4
:1034500028602046B0BD000080B5FDF765FB80BD4B
:1034600070B59CB044F6180440F22C4509A84C21D4
:10347000C5F60204C5F60005FCF731FF0220002660
:10348000CDE90766CDE90566CDE90366CDE90166BC
:10349000FEF772FA0096286820F00100286028687C
:1034A00000F001000090206840F440402060206857
:1034B00000F440400090009820688004FCD54FF64E
:1034C000DC40CFF6FF70215841F002012150205816
:1034D00000F002000090009800200090206840F466
:1034E00040402060206800F440400090286840F090
:1034F00001002860286800F001000090009800BFDB
:1035000020688004FCD5212009904FF480300A9077
:1035100001200F9002200521CDE912001491C02155
:10352000CDE9151004210824CDE9171009A8199434
:103530000025CDE91A55FFF72FF9A0B93F200190DA
:1035400003204FF48061CDE9020540200494CDE9C9
:103550000500CDE9071001A80421FEF745FF00286A
:1035600004BF1CB070BDFDF7BFF9000000000000F3
:103570004EF6885042F2000CCEF20000C5F2002C4C
:10358000016841F470010160DCF8000000F00F00F8
:10359000062806D8DCF80000072161F30300CCF808
:1035A000000044F200404EF67F52C5F60200CEF60F
:1035B000F622016841F00101016000210161036808
:1035C0001A400260DCF80020120706D5DCF8002063
:1035D000072363F30302CCF8002040F2002281614C
:1035E000C161C0F20222016282620022C0F2FF12B7
:1035F000C26240F28022C0F2011202634163826320
:10360000C16302644164026822F4802202600166A0
:1036100041F20000C5F600400068B1EB507F05D1D3
:1036200048F208100121C5F20010016044F20000C8
:1036300043F2D201C5F20020016070470000000093
:1036400070B5D0F8D42200EB8203D3F8C0222AB39D
:1036500001F00F0E8C460EEB8E0100EB810151F84C
:10366000184F5CB1D0F8C8620EEBCE0506EB8506AC
:10367000766CB4FBF6F505FB16468EB10024C2F855
:103680001442D3F8C402036933B1D2F8080202F538
:103690000471624698470024204670BD032070BD27
:1036A00000240C6000220023614600F089FE2046C1
:1036B00070BD000000000000B0B50446D0F8D40290
:1036C00004EB8000D0F8C05295B1204600F044FDD4
:1036D000D4F8D412C5F80C02D5F8040204EB810129
:1036E000D1F8C42205F50371D26890470020B0BD1F
:1036F0000320B0BD0000000070B58121044600F039
:103700007BFC012120460025258700F075FC8221E5
:103710002046A4F8785100F06FFCD4F8D402E56498
:1037200004EB8000D0F8C01289B1D0F8C402406820
:103730008047D4F8D40204F5307656F8200001F022
:1037400067F8D4F8D40246F82050C4F8BC520020E0
:1037500070BD00000000000010B5D0F8D41200EBDE
:103760008100D0F8C04284B1D0F8C41279B194F885
:103770000002FF280BD094F801228B68214698475D
:10378000FF2084F80002002010BD032010BD00209F
:1037900010BD00000000000040F2A4010A22C2F2A5
:1037A0000041028008467047F0B581B040F26007E2
:1037B0000446C2F200478221384600F06DFB0646FF
:1037C0000121384600F068FB05468121384600F0AB
:1037D00063FB002E1CBF1021B171002D1CBF4021C6
:1037E000A98000281CBF4021818040F26000432155
:1037F000C2F20040218001B0F0BD000000000000D6
:10380000F0B581B040F260070446C2F20047822161
:10381000384600F041FB06460121384600F03CFBEB
:1038200005468121384600F037FB002E1CBF1021D1
:10383000B171002D1CBF4FF40071A98000281CBF7E
:103840004FF40071818040F260004321C2F20040D9
:10385000218001B0F0BD0000F0B581B040F26007FA
:103860000446C2F200478221384600F015FB0646A6
:103870000121384600F010FB05468121384600F052
:103880000BFB002E1CBF1021B171002D1CBF40216D
:10389000A98000281CBF4021818040F260004321A4
:1038A000C2F20040218001B0F0BD00000000000025
:1038B0002DE9F04104464FF4077000F0ADFF0028F9
:1038C0004FD04FF407710546FCF709FDD4F8D40238
:1038D000217C4027022204EB800000294FF0810167
:1038E0004FF00206C0F8C0522046C4F8BC5208BFD0
:1038F0004FF400773B4600F0A7FC0121022220464E
:103900003B464FF00108A4F8388000F09DFC1020E1
:10391000A4F84E008221032208232046A4F87881CF
:1039200000F092FCD4F8D4020027C5F8047204EB2E
:103930008000A4F84C80D0F8C40200688047C5F825
:103940001472C5F81872D5F804223AB1207C01210E
:1039500088B14023204600F083FC00263046BDE8B5
:10396000F081D4F8D402002104EB8000C0F8C0122A
:103970000220BDE8F0814FF40073204600F070FC97
:103980000020BDE8F081000080B5D0F8D41200EB33
:103990008101D1F8C01269B1027C4023002AD1F81C
:1039A00004224FF0010108BF4FF4007300F058FCEF
:1039B000002080BD032080BD39B1D0F8D42200EBB7
:1039C0008200C0F8C4120020704703207047000036
:1039D000D0F8D42200EB8200D0F8C00218B1C0F8B1
:1039E0000412002070470320704700000000000010
:1039F000D0F8D43200EB8300D0F8C00228B1C0F870
:103A00000812C0F810220020704703207047000001
:103A100070B582B00446D0F8D40200228DF8072099
:103A200004EB8000ADF80420D0F8C062CEB10D46A2
:103A3000097811F0600216D0202A2BD1EA88002ADA
:103A40002ED0090635D46878402A86F80002204630
:103A500028BF4022314686F8012200F0CDF800262A
:103A600060E003265EE068780B2844D80026DFE893
:103A700000F006594242424242424242303C94F8EF
:103A80009C0203283DD101A90222204600F0D0F873
:103A9000002647E02046294600F0A2F8032641E030
:103AA000D0F8C4126878002200268B68294698470F
:103AB00038E0D0F8C41268788B6831469847EA88B5
:103AC00020463146072A28BF072200F0B1F8002619
:103AD00028E094F89C02032819D10DF10701012276
:103AE000204600F0A5F800261CE094F89C0203286C
:103AF00013D1002616E02046294600F071F803266F
:103B000010E02046294600F06BF803260AE0204624
:103B1000294600F065F8032604E02046294600F017
:103B20005FF80326304602B070BD000000000000C0
:103B300080B5D0F8D41200EB8101D1F8C0323BB18E
:103B4000D3F8141200294FF0010103D0084680BDBC
:103B5000032080BDC3F814128121D3F80822D3F8C2
:103B60001032C36200F02CFC0021084680BD00002A
:103B700080B5D0F8B82252689047002818BF0320BB
:103B800080BD00000000000080B590F89C22013A42
:103B9000022A09D84988012918BF80BD0021C0F830
:103BA000A41200F055F880BD00F01AF880BD0000A6
:103BB0000020704700000000002070470000000057
:103BC00080B513460A46002100F04AFB002080BD64
:103BD00080B513460A46002100F0F2FB002080BDAC
:103BE00010B58021044600F0CBFB0021204600F0F8
:103BF000C7FB10BD0000000080B50323C0F894325D
:103C00001346C0F858210A460021C0F85C3100F084
:103C100027FB002080BD000080B50521C0F894126C
:103C200000210022002300F01BFB002080BD0000CB
:103C300080B50223C0F89432134682610A460021FF
:103C4000C36100F0BDFB002080BD0000000000004B
:103C500080B50421C0F8941200210022002300F056
:103C6000AFFB002080BD000010B540F204140A46EE
:103C7000C2F2004402A0214600F06AF9204610BDBD
:103C800043444320436F6E666967000000000000F4
:103C900040F2B0001222C2F200400A8070470000D9
:103CA00010B540F204140A46C2F2004402A02146B4
:103CB00000F04EF9204610BD43444320496E746520
:103CC000726661636500000040F2D8000422C2F20F
:103CD00000400A807047000010B540F204140A4604
:103CE000C2F2004402A0214600F032F9204610BD85
:103CF00053544D6963726F656C656374726F6E695E
:103D0000637300000000000010B540F204140A467E
:103D1000C2F2004402A0214600F01AF9204610BD6C
:103D200053544D3332205669727475616C20436F61
:103D30006D506F727400000080B51A200880FCF787
:103D4000DBFD40F2DC00C2F2004080BD000000005C
:103D500080B5C988012910D190F89C124A1E022A08
:103D600004D20146002241F8082F02E0032904D1C1
:103D7000011D0122FFF75CFF80BDFFF731FF80BD11
:103D8000B0B582B00D4649884FF0FF32044600209E
:103D9000ADF8060002EB11220E2A3CD8DFE802F053
:103DA00008230D3B3B30393B3B3B3B3B3B3B190046
:103DB000D4F8B412207C0A6810E0C8B205282AD8CA
:103DC000DFE800F003565A5E6266D4F8B402426837
:103DD00002E0D4F8B402C269EAB1207C0DF1060118
:103DE0009047014628E0207C0028D4F8B8020CBF98
:103DF000816AC16A0DF106008847014602201AE077
:103E0000207C40B9D4F8B802416B0DF10600884718
:103E1000E7E7207C38B12046FFF7E2FE00210020D2
:103E200068B902B0B0BDD4F8B802016B0DF106005C
:103E3000884701460720487001200028F1D0EA8811
:103E400062B1BDF8060070B1904238BF024620460C
:103E5000ADF80620FFF7ECFE02B0B0BD2046FFF73C
:103E6000F7FE02B0B0BD2046FFF7BAFE02B0B0BD0B
:103E7000D4F8B4028268AFE7D4F8B402C268ABE702
:103E8000D4F8B4020269A7E7D4F8B4024269A3E700
:103E9000D4F8B40282699FE770B582B004464288C4
:103EA000007882421AD90D466188ADF80600814239
:103EB00014D90DF10606204605E000BFBDF8061036
:103EC000628891420AD2314600F01EF841780529F5
:103ED000F4D18178A942F1D102B070BD002002B0C6
:103EE00070BD000000000000017841B1411E0020BB
:103EF0008A7801300131002AFAD1C0B2704700201F
:103F0000C0B270470000000002780B8810441A44C9
:103F10000A8070470000000080B590F89C22013AAA
:103F2000022A0FD8C98802290CD1D0F8A412032282
:103F30000029014608BF012241F80C2F0222FFF799
:103F400077FE80BDFFF74CFE80BD00000000000042
:103F500070B5E8B1054616460C46FFF7C5FF0221CD
:103F600001EB40003080207003206070287800282A
:103F700008BF70BD691E0222002300BFD6B2023204
:103F800046F00105A0556355887801310028F5D128
:103F900070BD000000000000032808D840F2003186
:103FA000C000C0F2013121FA00F0C0B27047032016
:103FB000704700000000000090B180B50023C0F8F9
:103FC000B832C0F8C4320029C0F8D03218BFC0F8E7
:103FD000B412012180F89C12027000F0C5F880BD77
:103FE000032070470000000080B5D0F8C802FCF73D
:103FF0002BFFFFF7D1FF80BD80B5D0F8C802FCF7DA
:10400000FBFEFFF7C9FF80BDB0B5044689B194F847
:104010009C0203284ED1D4F8B8024269002A49D044
:104020000020C4F8D40220469047002808BF002092
:10403000B0BDD4F89402022836D1D4E907108142E9
:104040000DD90B1A204611461A46E361FFF7C0FD51
:10405000002100220023204600F002F924E00FD1C5
:10406000A16981420CD3D4F89802814208D2002180
:10407000002220460025FFF7ABFDC4F89852E7E781
:1040800094F89C02032808D1D4F8B802C16821B181
:104090000020C4F8D402204688478021204600F042
:1040A0006FF92046FFF7B8FD94F8A00210B1002088
:1040B00084F8A0020020B0BD10B5044669B194F8A0
:1040C0009C0203281DD1D4F8B80282690020CAB12D
:1040D000C4F8D4022046904714E0D4F89402032890
:1040E00024D1D4E95703984210D9C01AC4F85C010E
:1040F0009842114638BF034620461A46FFF760FD36
:1041000014E00020002808BF002010BD94F89C0295
:10411000032808D1D4F8B802016921B10020C4F8FD
:10412000D402204688472046FFF792FD002010BDAC
:10413000002070470000000080B5012180F89C122B
:10414000D0F8B82232B1017952689047002818BFE0
:10415000032080BD002080BD80B5D0F8C802FCF7E8
:10416000A7FE80BD0000000010B5017809B1002055
:1041700010BD41F600010222C2F20041C0F8C8128F
:10418000C1F808050020C4F2080008600920486052
:104190000020C860C1E90620C1E90800C1E90A00A1
:1041A000086308460A61FDF76BFA08B1FCF79CFB4F
:1041B00041F600048021C2F200442046FCF7B4FD21
:1041C000002140222046FCF7B3FD01218022204639
:1041D000FCF7AEFD002010BD01F07F02D0F8C80250
:1041E000090602EBC20200EB820000F13E0258BF5A
:1041F00000F27E221078704780B5D0F8D42200EB10
:104200008202D2F8B82242B190F89C32032B02D13C
:10421000126A02B19047002080BD032080BD0000DB
:1042200080B5D0F8D42200EB8202D2F8B82242B195
:1042300090F89C32032B02D1526A02B190470020C1
:1042400080BD032080BD000080B59446D0F8C80230
:104250001A466346FCF738FEFFF79EFE80BD00005D
:1042600080B5D0F8C802FCF75FFEFFF795FE80BD71
:10427000F0B581B0012680F89C620025C0F8945208
:1042800004464560D0F8B802C4F8A45284F8A0529D
:1042900050B142683AB100212046904705460028B7
:1042A00018BF032500E000250021002240232046FE
:1042B0004027FFF7C9FF8021002240232046A4F8B1
:1042C0006461C4F86071FFF7BFFFA68428462762C7
:1042D00001B0F0BD0000000090F89C12042903D149
:1042E00090F89D1280F89C1200207047000000009A
:1042F00080B590F89C12032905D1D0F8B81211B1FD
:10430000C96901B18847002080BD0000000000009D
:10431000024600201174704780B5D0F8C802FDF73E
:10432000CFFAFFF739FE80BDB0B500F2AA250446EA
:10433000284600F04DF80120C4F8940294F8AA022F
:10434000B4F8B02200F01F01C4F89822022907D067
:1043500001290AD071B92046294600F019F9B0BDEB
:104360002046294600F050F9B0BD2046294600F00D
:104370000FFAB0BD00F08001204600F001F8B0BD9A
:1043800080B5D0F8C802FCF7EFFDFFF705FE80BD51
:1043900080B5D0F8C802FDF7B3FAFFF7FDFD80BD88
:1043A000014690F89C02042803D091F89C0281F801
:1043B0009D020020042281F89C227047000000002A
:1043C00080B5D0F8C802FCF707FEFFF7E5FD80BD19
:1043D000B0B50C4609780546017060786870A01C7D
:1043E000FFF71EF86880201DFFF71AF8A880A01DAF
:1043F000FFF716F8E880B0BD10B582B004464FF064
:104400000000ADF80600B1B1D4F8D40204F52E7264
:10441000C4F8B81252F82000C16A21B10DF10600AB
:104420008847C4F8D002D4F8D8020130C4F8D802C2
:10443000002002B010BD032002B010BD000000003B
:10444000B0B58A88044642B9C88830B948887F2800
:1044500003D894F89C12032903D12046FFF7C0FB30
:10446000B0BD00F07F052046294684F89E52FFF734
:1044700053FF2046FFF7ECFB002D14BF0220012064
:1044800084F89C02B0BD000080B5D0F8B82212B10B
:104490001268904780BD002080BD00000000000031
:1044A000B0B5498840F20015C2F20045044611F04B
:1044B000FE0F297004D02046FFF792FB0320B0BD09
:1044C000C9B294F89C0203280CD0022822D189B3E7
:1044D00020466160FFF7D8FF054680B32046FFF70E
:1044E0007FFB15E0F9B16068884223D0C1B2204655
:1044F000FFF73EFB297820466160FFF7C5FF0546C0
:1045000028B32046FFF76CFB21792046FFF730FBEC
:10451000022018E02046FFF763FB29782046FFF7CA
:1045200027FB0320B0BD022084F89C022046616076
:10453000FFF71EFB2046FFF78BFB0020B0BD204697
:10454000FFF786FB032084F89C022846B0BD204676
:10455000FFF77EFB2846B0BD80B54A88022A07D007
:10456000012A0BD10121C0F8A412FFF771FB80BD15
:10457000497980F8A012FFF76BFB80BDFFF730FB95
:1045800080BD00000000000080B5FFF701FF80BD86
:1045900080B50A7812F060020CD0402A18BF202A99
:1045A00016D1D0F8D42200EB8202D2F8B822926859
:1045B000904780BD4A78092A0AD8DFE802F0050D45
:1045C000091109152009191DFFF7A6FC002080BD5F
:1045D000FFF706FB002080BDFFF7D6FA002080BD64
:1045E000FFF7BAFF002080BDFFF72AFF002080BD43
:1045F000FFF7AEFB002080BDFFF752FF80BDFFF745
:10460000BFFB002080BD000070B50E46097804464F
:10461000357911F060010CD0402918BF202923D131
:1046200020462946FFF7C4FA4FF0000500B328469C
:1046300070BD707838B3012845D0032840F09280CF
:1046400094F89C02032842D1708848B945F0800054
:10465000802805D0F08818B920462946FFF790FE3B
:104660002046FFF7F5FA80E02046FFF7B9FA7CE034
:10467000D4F8B802C4F8D4528268002AD7D02046B1
:104680003146904770BD94F89C0203282ED0022832
:1046900068D145F08000802864D105F07F002A06AB
:1046A0004FF002024FF0000500EB800004EB8000A9
:1046B00000F1140158BF00F5AA7120460D60FFF704
:1046C000B7FA284670BD94F89C0203281AD0022835
:1046D00048D145F08000802844D020462946FFF785
:1046E0004FFE80212046FFF74BFE3EE005F00F0114
:1046F00015F0800001EB810104EB81011ED1B1F8BE
:1047000064111CE0708880BB680603D020462946EF
:10471000FFF76AFC2046FFF79BFA20462946FFF781
:1047200047FA00284FF000057FF481AFD4F8B802B3
:10473000C4F8D4528268002AA1D178E7898C89B163
:1047400005F07F01002845F0800001EB810104EBBA
:10475000810101F1140608BF01F5AA76802807D16E
:1047600000200CE02046FFF73BFA0025284670BDEC
:1047700020462946FFF730FD0028F1D001203060A7
:10478000022220463146FFF753FAEEE70000000010
:1047900070B50D460978044611F0600118BF402934
:1047A0000ED194F89C020138022803D8A88810F092
:1047B000FE0F0DD02046FFF713FA0026304670BDDD
:1047C0002029EED02046FFF70BFA0026304670BDB8
:1047D000C1B22046FFF7F0F910B1032676B1F5E734
:1047E000D4F8B8028268002AF7D00020C4F8D402B6
:1047F0002046294690470646002EE7D1E888002843
:10480000E4D12046FFF724FA304670BD00000000D6
:10481000704700000000000040F20430C2F2004087
:10482000704700000000000010B54B7891F800E0E0
:10483000012B0EF00F0321D10122D0F81C489A4021
:1048400000F5106C4FEA4E132243C0F81C285CF8A8
:104850000300000430D4886809796FF3DF2053F82F
:104860000C2040EA8E50104340EA814040F08050D6
:1048700040F4004043F80C00002010BD4FF480329B
:10488000D0F81C4802FA03FC00F530634FEA4E12E0
:1048900044EA0C04C0F81C48985800040CD48868FA
:1048A00009796FF3DF20D458204340EA814040F07B
:1048B000805040F40040D050002010BD00000000A7
:1048C0000146D0F8000940F2FF729043C1F8000998
:1048D000D1F80428002042F48072C1F804287047FF
:1048E00070B506991D460129044619D1A16B4FF6F2
:1048F000BF7221F48031A163E168CFF6BD720D98DB
:104900001140E1600128E16821F44010E06003D12A
:10491000E06840F48010E060204600F029F80FE0E5
:10492000E0680A9E40F04000E060204600F020F879
:10493000A16B16B121F4803101E041F48031A16313
:10494000012D18BF70BDE16D89B2E165E16D41F0E7
:10495000007141F0F771E165A16841F00601A160C5
:10496000A16841F02001A16070BD000000000000BE
:1049700081B040F640510022C0F20301009200BF16
:10498000009A01320092009A8A4215D80269B2F167
:10499000FF3FF5DC00220092026942F00102026151
:1049A000009A01320092009A8A4205D80269D20721
:1049B000F6D1002001B07047032001B0704700001D
:1049C0000A7847F6000C4B78CEF6334C012B00EBFF
:1049D000421108D1D1F80039B3F1FF3F01F510635E
:1049E0000DDD01211FE0D1F8003B0CF1707CB3F12B
:1049F000FF3F01F530630CDD4FF4803113E019689F
:104A000041F000611960196841F08041196001218D
:104A100009E0196841F000611960196841F08041AE
:104A200019604FF4803102F00F029140D0F83C2819
:104A30008A43C0F83C28D0F81C2822EA0101C0F8BB
:104A40001C181968002001EA0C0119607047000069
:104A50000146D0F8000E20F00300C1F8000E00203F
:104A6000D1F8042822F00202C1F80428704700009F
:104A70000146D0F8000E20F00300C1F8000E00201F
:104A8000D1F8042842F00202C1F80428704700005F
:104A90002DE9F04F81B09A460E460446DDF8448079
:104AA0000C9841220A99002344F822300132502AFE
:104AB000FAD1B8F1000F04D004F138024FF400131A
:104AC0000FE0D4F80428802342F00202C4F804283E
:104AD000A26B22F40012A263226842F0400222601C
:104AE000224617684FF000093B431360C4F8009E4C
:104AF0000029D4F8002818BF012101282046C4F855
:104B0000002818BF032100F03FFB1021204600F0D1
:104B10005FFA8346204600F033FAC4F81098C4F8D0
:104B20001498C4F81C988EB304F510614FF67F32C8
:104B3000002300BF4FF09047002B08BF4FF00067E5
:104B40000D68013307EAE5770F60C1F810909E42C7
:104B50008A6001F12001EDD104F530614FF0000CC5
:104B60004FF67F33002700BF4FF09045002F08BF5E
:104B70004FF000650A68013705EAE2720A60C1F881
:104B800010C0BE428B6001F12001EDD1D4F81018A5
:104B9000BAF1000F21F48071C4F81018C4F818900D
:104BA0006FF08041616103D1A16941F01001A16101
:104BB00043F600020D9BA169C8F23C0241EA0201E2
:104BC000A1611BB1A16941F00801A161B8F1010F18
:104BD00005D1A16941F0804141F00401A16150EA91
:104BE0000B0018BF012001B0BDE8F08F00000000ED
:104BF00001468268002022F001028A6070470000AE
:104C000043F20B03D0F840C0C4F654739C4503D361
:104C1000D0F8003B002B1ED40023C0F8103BD0F886
:104C2000103B012943F40023C0F8103BD0F8103B9F
:104C300043F01803C0F8103BD0F8103B43F0C041DC
:104C4000C0F8101B07D1C0F8142BD0F8001B41F09E
:104C50008021C0F8001B0020704700000000000009
:104C60004B780A78012B11D100F51060520183585E
:104C700023F400138350097901F0FE01022915D1B4
:104C8000115841F0805111500020704700F53060FC
:104C90005201835823F400138350097901F0FE0177
:104CA000022903D1115841F0805111500020704762
:104CB0004A780978012A00EB41100CD1002900F54F
:104CC0001061D0F8000912D0002810D4086820F034
:104CD000804008600BE0002900F53061D0F8000B3F
:104CE00005D000285EBF086820F0804008600A6890
:104CF000002042F400120A6070470000000000002B
:104D0000B0B582B04B7891F800C0012B1ED100EBFA
:104D10004C1E0C69002C0EF51063DEF8105942D0C1
:104D20006FF312051D611D69BCF1000F6FF3DC45C7
:104D30001D618D684DD02C44013CB4FBF5F4002579
:104D4000C1F6F87505EAC4441D6948E000EB4C1350
:104D5000BCF1000FD3F8105B6FF31205C3F8105BC2
:104D6000D3F8105B6FF3DC45C3F8105B03F53063D9
:104D70000D6923D0002D8C6800F08D802544013D05
:104D8000B5FBF4FE1FFA8EF505FB04FC0024C1F808
:104D900020C0C1F6F87404EACE451C696FF3DF4CFD
:104DA00025431D617EE06FF3DC451D611C6944F401
:104DB00000241C611C696FF3120422E0002D1CBF4B
:104DC0008D680D618D680D626FF3DF451C692543A9
:104DD00065E0AC4288BF0D611C694FF400252C438F
:104DE0001C610C691D696FF3DF442C431C610C7955
:104DF000012C07D11C6924F0C0441C611C6944F0DB
:104E000000541C61012A1BD1CA69002A18BFCEF8C0
:104E10001429097901290CD1D0F80808C0054FF0F0
:104E2000805058BF4FF00050DEF800190843CEF80C
:104E30000009DEF8000940F00440CEF800094DE01A
:104E400000F510634FEA4C141D5945F004451D51FF
:104E50000D79012D12D1D0F808584FF0805EED0584
:104E600058BF4FF0005EE55845EA0E05E5500B8A45
:104E7000C9680092624600F01BFA2FE0096969B325
:104E80000CF00F01012202FA01F1D0F8342811438D
:104E9000C0F8341822E06FF3DF441D6925431D611B
:104EA0004FF4002C1D69012A45EA0C021A6103D156
:104EB000CA68002A18BF5A61097901290AD1D0F8B5
:104EC0000808C0054FF0805058BF4FF000501968D7
:104ED00008431860186840F004401860002002B0D1
:104EE000B0BD00000000000081B0002200924A78AE
:104EF000012A1BD1097800F5106049014258B2F12E
:104F0000FF3F2EDC0A5842F000620A500A5842F075
:104F100080420A5042F21072009B01330093009BC2
:104F2000934221D80B58002BF6D41AE0097800F5EB
:104F3000306049014258B2F1FF3F12DC0A5842F09A
:104F400000620A500A5842F080420A5042F210723F
:104F5000009B01330093009B934205D80B58002B14
:104F6000F6D4002001B07047012001B07047000066
:104F700001468268002042F001028A60704700000A
:104F800081B040F640510022C0F20301009200BF00
:104F9000009A01320092009A8A4213D80269B2F153
:104FA000FF3FF5DC0022009210220261009A0132DC
:104FB0000092009A8A4205D80269D206F6D40020EF
:104FC00001B07047032001B07047000000000000EE
:104FD00081B040F640520023C0F20302009300BFAC
:104FE000009B01330093009B934215D80369B3F1F2
:104FF000FF3FF5DC8901002300932031016100BFF0
:105000000099013100910099914205D80169890602
:10501000F6D4002001B07047032001B070470000B3
:10502000D0F8080810F0060F05D080074FF00200F6
:1050300058BF0F207047002070470000000000009C
:10504000406900F001007047D0F81818D0F81C082B
:10505000084080B270470000D0F81818D0F81C083B
:105060000840000C70470000D0F810C8D0F8343861
:1050700001F00F0200EB411023FA02F2D201D0F846
:105080000809D1B241EA0C01084070470000000055
:1050900000EB4111D1F8081BD0F814080840704704
:1050A000416980690840704780B5002302F0030E13
:1050B000B3EB920F0BD0920804394FF4805C00BF21
:1050C000013A50F80C3041F8043FF9D10431BEF1F7
:1050D000000F0ED04FF4805280580022AEF1010E26
:1050E00020FA02F301F8013B5FEA0E4302F10802E5
:1050F000F4D1084680BD000070B50446C06820F0B9
:10510000C040E06099B1012928D1E068002540F055
:105110000050E06001202E46FBF70AFC20460135D6
:10512000FFF78EFF302E13D80128F3D110E0E0688E
:10513000002540F08040E06001202E46FBF7F8FBA0
:1051400020460135FFF77CFF302E01D80028F3D12F
:10515000A5F13200B0FA80F0400970BD012070BDA9
:105160000246D0F8000820F4FE6001F07F01C2F88A
:1051700000080020D2F8003843EA0111C2F80018F4
:1051800070470000000000000246D0F80038002000
:105190001943C2F800187047022A02460DD145F2A1
:1051A000403043F20053CFF62770C0F20C0308449E
:1051B00098420DD24FF4705101E04FF41051D06875
:1051C00020F47050D060D36800201943D16070473C
:1051D00041F6406044F24023CFF61B70C0F20F034B
:1051E0000844984202D24FF46051E8E7A1F57400F8
:1051F00044F68073A0F51050C0F21203984202D218
:105200004FF45051DBE7A1F183704DF22063A0F51C
:10521000E740C0F21303984202D24FF44051CEE768
:105220004BF260604EF26033CFF6E560C0F21603D9
:105230000844984202D24FF43051C0E74DF200309A
:1052400047F24073CFF6CE60C0F21B030844984289
:1052500002D24FF42051B2E745F6C03049F2C013F4
:10526000CFF6B360C0F221030844984202D24FF453
:105270001051A4E7A1F1B77047F22053A0F55850A0
:10528000C0F23803984202D24FF4005197E745F23A
:10529000E04049F6E043CFF65960C0F241030844CC
:1052A0004FF4C051984238BF4FF4E05187E70000F7
:1052B000DDF800C0BCF1000F12D103F1030C002394
:1052C000B3EB9C0F0CD04FEA9C0300F5805C1203FB
:1052D000043900BF013B51F8040F42F80C00F9D12A
:1052E0000020704700000000FEE700000000000002
:1052F000002848BF704700F01F01012202FA01F1A7
:105300004EF200124009CEF2000242F8201070471F
:105310004EF60C50CEF200000068C0F30220704739
:105320004EF6145300F00F02CEF20003B0F1FF3F2F
:105330001A4400F16043C8BF03F5644208011070CD
:1053400070470000000000004EF60C514FF6FF03BE
:10535000CEF200010A681A4060F30A2242F080602F
:1053600040F0FD7008607047FDF77EFDFBF7ECFB39
:10537000FEF776F8FDF794FDFDF7D2FD04A400BF1B
:105380004FF47A70FBF7D4FA204600F009F8F7E7FB
:1053900068656C6C6F2077726F6C640D0A0000009A
:1053A00083B070B581B0CDE90512024640F62450B5
:1053B000079305ABC2F200404FF40061009300F088
:1053C00023F841F224510446C2F2004191F89C2294
:1053D000032A0CD1D1F8BC52FBF79EFBC61C00BFC0
:1053E000D5F8140218B1FBF797FBB042F8D9A1B277
:1053F00040F62450C2F20040FBF756FA01B0BDE877
:10540000704003B0704700007CB50C001D46164686
:10541000014601D0601E00E00020CDE90010064BDF
:105420006A462946304600F0DBF8002C02D0009A8C
:10543000002111707CBD00000F5D000802E008C86B
:10544000121F08C1002AFAD170477047002001E0FE
:1054500001C1121F002AFBD1704700002DE9FF5F38
:1054600082B00021DDE90430020DDDF840B00343D5
:1054700018D044F61050A2F2FF324243151411988E
:1054800001281FD0A5EB0B00401C5FEA000A4FF07B
:1054900000064E4FDFF83891B046504615D5CAF198
:1054A000000413E0119801244AA3012801D16FEAF6
:1054B0000B010298119AC0E90031C0E9024206B01E
:1054C000BDE8F09FCBF10000DFE704460021404A31
:1054D000491842EB0450CDE9001012E0E00707D074
:1054E00032463B4640464946FAF7F2FF8046894637
:1054F00032463B4610461946FAF7EAFF06460F4683
:105500006410002CEAD1DDE90401DDE90023BAF1E1
:10551000000F06DAFAF7DCFF42464B46FAF7D8FFEF
:1055200005E0FBF747F842464B46FBF743F80446D5
:105530000E460022284BFBF7C5F803D84FF0FF308A
:10554000014607E00022254B20463146FAF719FFB5
:10555000FBF79FF8102409E0002C0ADB0A22002345
:10556000FAF7DEFE039B30321A55641E50EA010240
:10557000F2D1641C039AC4F111031444119A012A54
:1055800003D0012208430DD10AE0084304D00020D3
:105590004FF0110B119072E7A3EB0B056D1E0DE0A0
:1055A0005B4504DD4FF0000205F1010504E003DA7C
:1055B0004FF00002A5F10105002AECD002981199E4
:1055C000C0E90231C0E9004579E70000000014405D
:1055D0000000F03F300000000000F0430000E03F1A
:1055E0002DE9FF4F95B09B468946064600250FE200
:1055F000252877D100242746F84A0121059400E0A8
:10560000044316F8013F203B01FA03F01042F7D1A2
:1056100030782A2811D06FF02F033078A0F13002B3
:10562000092A16D8059A44F0020402EB820203EB21
:1056300042021044761C0590EFE759F8042B0592BE
:10564000002A03DA504244F40054059044F0020466
:10565000761C30782E2816D116F8010F44F0040479
:105660002A280DD06FF02F023078A0F13003092BDB
:1056700009D807EB870302EB4303C718761CF3E74F
:1056800059F8047B761C30786C280FD006DC4C2847
:1056900017D068280DD06A2814D104E0742810D0DF
:1056A0007A280FD10DE044F400140AE044F4801489
:1056B00001E044F440147278824202D104F580146F
:1056C000761C761C307866280BD013DC582877D0EF
:1056D00009DC002875D04528F6D04628F4D04728A4
:1056E0001AD19DE118E0632835D0642879D0652867
:1056F00012D195E1702873D008DC6728F1D06928B1
:105700006FD06E280DD06F2806D1B5E073282CD04D
:10571000752875D0782874D05A46179990476D1C13
:1057200075E1C4F30250022809D003280DD0D9F83E
:10573000001004280DD00D6009F1040967E1D9F8C3
:105740000010EA17C1E90052F6E7D9F800100D8001
:10575000F2E70D70F0E719F8041B8DF80010002037
:105760008DF80100EA46012003E059F804AB4FF040
:10577000FF3061074FF0000102D40DE008F1010194
:105780008846B9420FDA8045F8DB1AF8081000297C
:10579000F4D108E008F1010188468142FADB1AF8E9
:1057A00008100029F6D105985B46A0EB08072146B2
:1057B0003846179A00F094FA284400EB080507E0F1
:1057C0004DE029E10DE01AF8010B5A461799904770
:1057D000B8F10108F7D25B4621463846179A13E123
:1057E00042E00A220092C4F302524FF0000A022A59
:1057F00008D059F804CB032A4FEAEC710AD00DE027
:1058000029E02AE009F1070121F00702F2E802C1CC
:10581000914609E00FFA8CFC4FEAEC71042A03D19F
:105820004FFA8CFC4FEAEC71002907DA0A46002196
:10583000DCF1000C61EB02012D2202E0220504D50F
:105840002B228DF80420012203E0E20701D0202260
:10585000F7E7904659E00A2102E010220DE01021FE
:105860004FF0000A00910BE010224FF0000A44F0C4
:1058700004040827009203E008224FF0000A009277
:10588000C4F30252022A05D059F804CB0021032A9E
:1058900008D009E009F1070121F00702F2E802C18E
:1058A000914605E01FFA8CFC042A01D10CF0FF0C94
:1058B0004FF00008220728D5702806D0009B83F0FF
:1058C000100353EA0A0305D00EE040228DF80420AD
:1058D000012208E05CEA010206D030228DF80420A3
:1058E0008DF8050002229046009B83F0080353EADE
:1058F0000A030AD15CEA010201D1620705D5302210
:105900008DF804204FF001087F1E582804D034A0E1
:1059100003900EA802900DE036A0F9E753466046CA
:10592000009AFAF7FDFC84460398825C0298401EB8
:10593000029002705CEA0100F0D1029806A9081AF0
:1059400000F1200A600702D524F4803400E001272A
:10595000574502DDA7EB0A0000E0002000EB0A013A
:10596000009005984144401A0590E00306D45B4638
:105970002146179A059800F0B3F90544002706E080
:1059800001A85A46C05D179990476D1C7F1C47457A
:10599000F6DBE0030CD55B462146179A059800F02C
:1059A0009FF9054404E030205A46179990476D1C32
:1059B0000099481E00900029F5DC08E00298029941
:1059C0005A460078491C0291179990476D1CBAF10C
:1059D0000001AAF1010AF1DC65E1000009280100DB
:1059E0003031323334353637383961626364656655
:1059F0000000000030313233343536373839414217
:105A0000434445460000000000F058F90544761C68
:105A1000307800287FF4ECAD19B02846BDE8F08F4F
:105A2000620700D4062709F1070222F0070CFCE800
:105A30000223E14603F000485FEA080C02D00FF2AF
:105A4000702C0DE05FEA045C02D50FF2682C07E0D1
:105A50005FEAC47C02D00FF2602C01E0AFF2700C60
:105A60004FF0FF3823F00043CDF850C065280CD02C
:105A700006DC452809D046281DD047283DD13DE009
:105A8000662818D067287ED138E00021112F01DB6D
:105A9000112000E0781CCDE9000106A90EA8FFF74F
:105AA000DDFCDDE90F010E9A03910021009207F160
:105AB000010A04914DE04FF000400097CDE901103C
:105AC00006A90EA8FFF7CAFCDDE90F0203920E9BA0
:105AD00011990022DDF80CA00093049211B9791CF1
