:020000040800F2
:10000000F004002045010008051D0008ED17000858
:10001000011D0008790200085D20000800000000B2
:10002000000000000000000000000000651D000846
:100030007D02000800000000351D0008991D000821
:100040005F0100085F0100085F0100085F01000810
:100050005F0100085F0100085F0100085F01000800
:100060005F0100085F0100085F0100085F010008F0
:100070005F0100085F0100085F0100085F010008E0
:100080005F0100085F0100085F0100085F010008D0
:100090005F0100085F0100085F0100085F010008C0
:1000A0005F0100085F0100085F0100085F010008B0
:1000B0005F0100085F0100085F0100085F010008A0
:1000C0005F0100085F0100085F0100085F01000890
:1000D0005F0100084D2000085F0100085F01000873
:1000E0005F0100085F0100085F0100085F01000870
:1000F0005F0100085F0100085F0100085F01000860
:100100005F0100085F0100085F0100085F0100084F
:100110005F0100085F0100085F0100085F0100083F
:100120005F0100085F0100085F0100085F0100082F
:10013000DFF80CD000F08EF8004800476526000874
:10014000F00400200648804706480047FEE7FEE727
:10015000FEE7FEE7FEE7FEE7FEE7FEE7FEE7FEE777
:10016000F91D00083101000840EA01039B0703D094
:1001700009E008C9121F08C0042AFAD203E011F8E6
:10018000013B00F8013B521EF9D27047D2B201E0A8
:1001900000F8012B491EFBD270470022F6E710B58C
:1001A00013460A4604461946FFF7F0FF204610BDE5
:1001B00096230022114600F01FB830B50B460146C9
:1001C00000202022012409E021FA02F59D4205D3F6
:1001D00003FA02F5491B04FA02F52844151EA2F1A0
:1001E0000102F1DC30BD0029A8BF7047401C490066
:1001F00008BF20F00100704710B4B0FA80FC00FA8C
:100200000CF050EA010404BF10BC704749B1CCF1B6
:10021000200421FA04F411FA0CF118BF0121214342
:100220000843A3EB0C01CB1D4FEA00614FEA1020FD
:1002300042BF002010BC704700EBC350104400299F
:10024000A4BF10BC7047401C490008BF20F001004B
:1002500010BC7047064C074D06E0E06840F0010313
:1002600094E8070098471034AC42F6D3FFF764FFD8
:10027000542D0008742D0008FEE7000070470000B0
:1002800070470000014690F82100022813D1086849
:10029000D1E90FC3026822F00E020260026822F068
:1002A00001020260012000FA03F2CCF8042081F878
:1002B0002100002002E0042088630120002281F850
:1002C0002020704780B590F82110022927D10268BC
:1002D00040F2040C1368C4F2020C23F00E03136006
:1002E00013680CF17C018A4223F0010111601AD9D4
:1002F00040F20841C4F202018A4247D040F21C4158
:10030000C4F202018A4245D040F23041C4F20201F7
:100310008A4243D14FF48073CCF8003457E0042173
:100320008163012080BD4321C4F202018A420EDDB7
:100330006B21C4F202018A421BDC4421C4F2020197
:100340008A4239D05821C4F202018A4231E00821A0
:10035000C4F202018A4232D01C21C4F202018A4254
:1003600032D03021C4F202018A4222D14FF480728D
:100370002BE06C21C4F202018A4222D08021C4F217
:1003800002018A4215D14FF080721EE00123CCF8A1
:1003900000341CE01023CCF8003418E00CF5886120
:1003A0004FF480338A4208BF4FF48053CCF80034B6
:1003B0000DE04FF4803208E04FF4805205E0012256
:1003C00003E04FF4801200E01022CCF80020416BD3
:1003D0004FF48072028401B18847002080BD000084
:1003E000B0B5044600F004F9054640F20800C2F238
:1003F00000000078611C18BF044400BF00F0F8F84A
:10040000401BA042FAD3B0BD2DE9F04F83B00C6879
:10041000002C00F0EA80A0F18042A2F5843240F284
:10042000004E4FEAB22241F60047C4F2010E00929C
:10043000C4F20107062200254FF001094FF0000B1E
:100440004FF0000AB84208BF0522019209E000BF40
:100450000C680BF1010B34FA0BF205F1040500F006
:10046000C48009FA0BF814EA080CF1D04C684FF676
:10047000FF72C1F21002944210DC122C50D8DFE857
:1004800004F0330A41454F4F4F4F4F4F4F4F4F4F9F
:100490004F4F4F484C00D1F80CA041E04FF6FF728F
:1004A000C1F2210294420FDC0022C1F211029442F7
:1004B0001AD00022C1F21202944215D00022C1F2D9
:1004C0002102944210D02BE00022C1F22202944279
:1004D0000AD00022C1F23102944205D00022C1F2BA
:1004E000320294421CD100BF8C6844B1012C14BF6D
:1004F000C0F81480C0F810804FF0080A10E04FF0E8
:10050000040A0DE0CC6804F1080A09E04FF0000A83
:1005100006E0CC6804F1040A02E0CC6804F10C0A9D
:100520002C460746BCF5807F24BF203C04373A6840
:100530000F2303FA04F6B2430AFA04F422433A60A2
:10054000CA79D2067FF584AF41F21804C4F20204DE
:1005500022684FF6084842F0010222602268CFF676
:10056000FF7802F001020292029A2BF00302724419
:1005700052F8084005F00C0603FA06F7009BBC434E
:10058000019F052B38BF1F4607FA06F6344342F891
:1005900008404C68E203DEF8002054BF22EA0C0752
:1005A00042EA0C07A203CEF80070DEF8042054BF24
:1005B00022EA0C0742EA0C07E202CEF80470DEF8E9
:1005C000082054BF22EA0C0742EA0C07A20240F2BC
:1005D0000C44CEF80870C4F20104226854BF22EA29
:1005E0000C0242EA0C02226032E703B0BDE8F08F51
:1005F00040F2EC00C2F2000000687047F0B581B034
:10060000B0B3044690F83D0028B9002084F83C00BF
:10061000204600F08FFB242084F83D00206801680C
:1006200021F001010160016841F4004101600168AD
:1006300021F40041016000F0F7FC48F28041C0F273
:100640001E0140F60012656888424FF00001C0F2BA
:100650003D0248F2A16C4FF0000338BF01219042E7
:10066000C0F2010C38BF0123654538BF0B4613B1FA
:10067000012001B0F0BD4DF68361C4F21B31A0FB37
:10068000011221684FEA924E4B684FF4967623F0A0
:100690003F0343EA92434B6044F6D3530F6A0EFB89
:1006A00006F6C1F26203A6FB033627F03F03B70943
:1006B000654538BF970C7A1C1A430A62CA6948F22A
:1006C000A0674CF6FF73C0F20107BD4222EA030C9B
:1006D0000AD801386A00B0FBF2F001306FF31F3026
:1006E000042898BF04202BE0A368A0F1010E9BB161
:1006F00019206843BEFBF0F00422013062F31F3082
:10070000000512D09BB119206843BEFBF0F0042213
:10071000013062F31F3011E005EB4500BEFBF0F045
:1007200001306FF31F300005ECD1012008E005EB2C
:100730004500BEFBF0F001306FF31F3040F4004085
:1007400040EA0C00C8610868D4E9072320F0C00023
:10075000104318430860886848F2FF3204F10C0720
:1007600090438CCF18431043A6698860C86820F076
:10077000FF0038433043C860086840F0010008605B
:1007800000202021206484F83D10206384F83E007E
:1007900001B0F0BD2DE9F04F83B01E4691460F46E3
:1007A0000446FFF725FF94F83D1020290CD10221C3
:1007B0000546C0F21001204601221923009501F0E0
:1007C00045F930B1022700E00227384603B0BDE802
:1007D000F08F94F83C00012801D10227F5E70121B0
:1007E000206884F83C100168C90703D1016841F012
:1007F00001010160016807F0FE0A21F40061016057
:10080000242084F83D00002020640020CFF6FF70F3
:100810004FF0010B4FF0A008E062B9F1020F98BF52
:100820004FF00209206800220168334641F48071CC
:10083000016020464FF00111009501F007F9216891
:10084000002854D1C1F810A0FFF7D2FE21680A4653
:1008500052F8143F176894F83D50A02D054620D05B
:1008600003F0020007F48063C0181AD1FFF7C0FE3E
:1008700036B1401BB04288BF84F83D8002E000BF23
:1008800084F83D80216848694A6994F83D30A02B7E
:1008900005D000F0020002F480628018E6D001F179
:1008A0001402202084F83D0048690B68800743F457
:1008B00000730B6023D46FF4806002211060204627
:1008C000C0F21001012219230095012701F0BEF8A2
:1008D00000287FF47AAF0BF1010BCB45A2D1202089
:1008E00084F83D000020012784F83C006DE708688B
:1008F0000327C00544BF4FF40070206465E700265D
:1009000002961068012202908869022102900298E2
:100910002046C0F2100119230095012701F096F836
:1009200000287FF452AF202084F83D0084F83C601A
:1009300000274AE72DE9F04784B0044600201F460F
:1009400016460D460390FFF753FE94F83D102029FC
:100950000FD102218146C0F2100120460122192345
:10096000CDF8009001F072F818B994F83C00012815
:1009700003D1022004B0BDE8F0870121226884F889
:100980003C101368DDE90D080C99DB0703D11368EF
:1009900043F001031360136823F400631360222201
:1009A00084F83D20402284F83E20002222646162C7
:1009B0006085608D294620850020CFF6FF70E062BB
:1009C000204632463B46CDF80080CDF8049000F03A
:1009D00027FF18B1012004B0BDE8F087208D022860
:1009E00010D0012824D0002838D10020029020689F
:1009F00041690291816902910299016841F4007193
:100A0000016037E02068016841F400610160EFF3A4
:100A1000108072B6002002902068416902918169BD
:100A200002910299016821F48061016062B621E0BF
:100A30002068016821F480610160EFF3108072B6D4
:100A40000020029020684169029181690291029917
:100A5000016841F40071016062B60BE02068016832
:100A600041F4806101600021029141690291806935
:100A700002900298208D002800F0AC80042740F2FC
:100A8000040A4BF28956C0F20107C2F2000AC1F211
:100A9000F846232517E0204641464A4601F056F81D
:100AA000002897D12068616A00690870606A218D0A
:100AB00001306062481E2085608D01386085208D80
:100AC000002800F08780032847D8022861D0012839
:100AD000E1D02046394600224346CDF8009000F090
:100AE000B5FF00287FF476AF2068016821F48061AB
:100AF0000160EFF3108072B62068616A00690870C7
:100B0000606A218D0130013960622185618D013972
:100B10006185DAF80010C908A1FB0612110A6943C1
:100B2000039100BF039901390391039900295CD017
:100B300021684A695207F5D50A6842F400720A60D2
:100B400009690170606A218D01306062481E20854C
:100B5000608D0138608562B6A4E7204641464A466A
:100B600000F0F4FF00287FF435AF2068616A006967
:100B70000870606A228D0130013A60622285216826
:100B8000628D013A62854A69520798D509690170F8
:100B90008CE72046394600224346CDF8009000F00D
:100BA00055FF00287FF416AFEFF3108072B620686F
:100BB000616A026842F40072026000690870606A4B
:100BC000218D01306062481E2085608D013860856E
:100BD00062B667E7202084F83D00002084F83E00DC
:100BE00084F83C0004B0BDE8F08700202021206399
:100BF00084F83D1084F83E00216C41F0200121640E
:100C000062B684F83C00E5E62DE9F04383B09946EE
:100C100016460F460446FFF7EBFC94F83D102029DA
:100C20000ED102210546C0F21001204601221923EF
:100C3000009500F00BFF18B994F83C00012803D18F
:100C4000022003B0BDE8F0830121226884F83C1043
:100C50001368DDE90B080A99DB0703D1136843F039
:100C600001031360136823F400631360212284F8E6
:100C70003D20402284F83E2000222264616260858B
:100C8000608D394620850020CFF6FF70E062204657
:100C900032464B46CDF80080019500F047FE30B358
:100CA000012003B0BDE8F083204641462A4600F00B
:100CB0007DFF28BB606A2168034613F8012B0A6197
:100CC000228D6362571E2785638D3F04A3F10103C4
:100CD00063854B6918BF13F0040308D043780230D2
:100CE0000B616062901E2085608D01386085208DCB
:100CF0000028D9D1204641462A4600F077FE40B16F
:100D0000206C0428CCD12068016841F40071016096
:100D1000C6E72068016841F400710160202084F872
:100D20003D00002084F83E0084F83C0003B0BDE89C
:100D3000F083000010B586B0016845F60000C4F2EB
:100D4000000081424FF00001CDE90411CDE902110C
:100D500001D006B010BD41F21804C4F202042168AB
:100D600000F5344041F008012160216801F00801DC
:100D7000019101994FF440610291122103910321E5
:100D8000059102A9FFF740FB606840F480006060B5
:100D9000606800F480000190019806B010BD00006A
:100DA00040F2080040F2EC01C2F20000C2F2000181
:100DB00000780A68104408607047000080B542F26D
:100DC0000000C4F20200016841F01001016003203C
:100DD00000F066F8002000F005F800F02BF8002085
:100DE00080BD0000B0B540F20802C2F2000240F23D
:100DF00004011278C2F200014FF47A730968B3FB60
:100E0000F2F20446B1FBF2F1084600F0E7FA0F2CCB
:100E10004FF001050CD858B94FF0FF3021460022A1
:100E2000002500F02DF840F20C00C2F20000046032
:100E30002846B0BD82B041F21800C4F20200016839
:100E4000022241F001010160016801F001010191FC
:100E50000199416841F080514160406800F0805044
:100E6000009000980420C4F20100016862F31A6146
:100E7000016002B07047000080B501F0F1F880BD5C
:100E800070B514460D46064601F0FAF8294622468A
:100E900000F03AFF0146304601F0FAF870BD00005C
:100EA00080B501F007F980BD2DE9F04381B000283D
:100EB00000F0898042F20008C4F202080446D8F823
:100EC00000000D4600F0070088420CD2D8F8000060
:100ED00020F007002843C8F80000D8F8000000F010
:100EE0000700A8426FD1206841F204098107C4F2CB
:100EF000020917D5410705D5D9F8001041F4E06182
:100F0000C9F80010010705D5D9F8001041F4605167
:100F1000C9F80010D9F80010A26821F0F0011143BF
:100F2000C9F80010C00745D1D8F8000000F007004C
:100F3000A8420CD9D8F8000020F007002843C8F8D0
:100F40000000D8F8000000F00700A8423BD120685C
:100F5000410707D5D9F80010E26821F4E061114398
:100F6000C9F80010000708D5D9F80000216920F45D
:100F7000605040EAC100C9F8000000F079F8D9F8E3
:100F8000001042F6A832C1F30311C0F60002515C12
:100F900040F2040220FA01F140F20C00C2F200001B
:100FA0000068C2F200021160FFF71CFF002001B0D0
:100FB000BDE8F0836068022809D0012829D159F8DA
:100FC000041C890307D4012001B0BDE8F08359F85F
:100FD000041C8901F7D5D9F8001021F0030108435A
:100FE000C9F80000FFF704FB064641F2883700BF4E
:100FF000D9F80000616800F00C00B0EB810F93D0CD
:10100000FFF7F6FA801BB842F2D9032001B0BDE821
:10101000F08359F8041C8907D5D5DCE740F20400B9
:10102000C2F200000068704780B5FFF7F7FF41F299
:101030000401C4F20201096842F6B832C1F3022188
:10104000C0F60002515CC84080BD000080B5FFF7CB
:10105000E5FF41F20401C4F20201096842F6B83228
:10106000C1F3C221C0F60002515CC84080BD00003F
:1010700041F2040CC4F2020CDCF8003003F00C0066
:10108000082841F20020C0F27A0018BF7047C3F36D
:1010900083420AA18A5CD90305D440F60010C0F24D
:1010A0003D0050437047DCF8001008A3C1F34041F5
:1010B000595C5043B0FBF1F0704700BF02030405D8
:1010C000060708090A0B0C0D0E0F10100102000094
:1010D0002DE9F04182B0002800F0C4800446007879
:1010E00041F20006C007C4F2020643D0706800F067
:1010F0000C00042817D0706800F00C00082802D1FA
:101100007068C0030FD465682DB1B5F5A02F10D05D
:10111000B5F5803F11D0306820F480303060306801
:1011200020F480200CE03068800323D5606808BB81
:1011300098E0306840F480203060306840F48030BF
:101140003060FFF755FA002D054610D03068800357
:1011500010D4FFF74DFA401B6428F7D904E100BF13
:10116000FFF746FA401B64284FF0030077D8306839
:101170008003F5D42078800718D5706810F00C0F24
:1011800007D0706800F00C00082826D17068C003F2
:1011900023D43068800702D52069012862D13068E5
:1011A000616920F0F80040EAC10030602078000753
:1011B0003DD5A06938B30020C4F242200121C0F817
:1011C0008014FFF715FA0546706A80072DD4FFF7E3
:1011D0000FFA401B0228F7D9C6E02069002840F228
:1011E0000000C4F2422000F0968001210160FFF768
:1011F000FFF9054630688007D1D4FFF7F9F9401BA5
:101200000228F7D9B0E00020C4F242200021C0F843
:101210008014FFF7EDF90546706A800707D5FFF7E0
:10122000E7F9401B0228F7D99EE000F085FD207801
:1012300040071BD4E5698DB1706800F00C000828E8
:1012400047D1012D0ED07068216A00F480328A42A5
:1012500008D1616A00F47010884203D1002002B006
:10126000BDE8F081012002B0BDE8F081F06910F026
:10127000805808D1F06940F08050F061F06900F0CA
:1012800080500190019847F20007C4F200073868C7
:10129000C00510D4386840F480703860FFF7A8F9B2
:1012A000054600BF3868C00505D4FFF7A1F9401B0B
:1012B0006428F7D958E0E5681DB1052D3CD0012D13
:1012C0003ED0306A20F001003062306A20F0040025
:1012D00039E00027C4F2422700203866FFF788F97A
:1012E000022D05460CD100BF3068800154D5FFF7B0
:1012F0007FF9401B02284FF00300F5D9AFE700BF8C
:1013000030688001AAD5FFF773F9401B02284FF01F
:101310000300F5D9A3E700210160FFF769F905464D
:10132000306880077FF542AFFFF762F9401B022863
:101330004FF00300F4D992E7306A40F004003062C5
:10134000306A40F001003062FFF752F9002D054687
:1013500041F2883714D000BF306A800713D4FFF7FA
:1013600047F9401BB842F7D9032002B0BDE8F0812D
:10137000FFF73EF9401BB8424FF003003FF66FAF56
:10138000306A8007F4D4B8F1000F7FF453AFF069EE
:1013900020F08050F0614DE7206AB0F5803F05D124
:1013A0007168A26821F40031114371607168626A4A
:1013B00021F4741110430843706001203866FFF770
:1013C00017F90446306880013FF548AFFFF710F980
:1013D000001B02284FF00300F4D940E780B500F06D
:1013E000C3FC80BD7047000070470000B0B582B0FC
:1013F000016805460868CA684C6900F02F03202B75
:1014000002F0200305D123B1284600F021FD02B0EF
:10141000B0BD5FEA007C1EBF04F0010E02F49074C0
:1014200014EB0E0424D12B6B1040C20617D5012BF0
:1014300015D100200190086801904868019001983A
:10144000486940061CD4A88DEA8DEB8D002B1CBF8B
:10145000801A5FEA004240F09A8002B0B0BD0106F7
:1014600036D44006F9D5284600F0E6FC02B0B0BDFF
:10147000C10718BF12F480712FD1410733D439E06E
:10148000A86B0268526893B2002BE6D0AC8DA342E1
:10149000E3D2EA858269202A16D0CA6822F48072D3
:1014A000CA604A6922F001024A614A6922F0400298
:1014B0004A61202285F83E2000222A63CA6822F071
:1014C0001002CA60FEF7DEFEA88DE98D401A6FE0BB
:1014D000284600F05FFD02B0B0BD296C41F001016B
:1014E0002964410706D5BEF1000F03D0296C41F0F5
:1014F00002012964810706D5BEF1000F03D0296CD3
:1015000041F004012964BCF1000F06D55EEA030135
:1015100003D0296C41F008012964296C00299CD072
:101520001040800602D5284600F092FC28684069E9
:10153000296C00F0400001F00801401820D0284636
:1015400000F064FC28684169490614D5416921F01E
:1015500040014161A86B70B141F6FD51C0F6000138
:101560004163FEF7AFFE00283FF477AFA86B416BF5
:10157000884702B0B0BD2846FFF736FF02B0B0BDC5
:101580002846FFF731FF0020286402B0B0BDCA68CA
:1015900022F49072CA604A6922F001024A61202254
:1015A00085F83E2000222A63CA6822F01002CA6031
:1015B00081B22846FFF716FF02B0B0BD002804BF75
:1015C0000120704710B5044690F83D0028B900206E
:1015D00084F83C00204600F021F8242084F83D00E7
:1015E0002068C16821F40051C160204600F08AFCE7
:1015F0002068016921F490410161416921F02A01CB
:101600004161C16841F40051C16000202021206483
:1016100084F83D1084F83E1010BD000070B586B00F
:10162000006844F20041C4F2000100268842059699
:10163000CDE9036602963FD043F60001C4F20101F2
:10164000884266D141F21800C4F20200016840F6F7
:10165000000441F4804101600168C4F2010401F416
:10166000804101910199016802AD41F004010160DE
:101670000068294600F00400019001984FF40070C2
:10168000029002200390032005902046FEF7BCFE46
:101690004FF4806002900020CDE9030020462946E7
:1016A000FEF7B2FE252000210022FFF7E9FB2520EE
:1016B000FFF7E2FB06B070BD41F21800C4F2020071
:1016C000416840F6000441F4003141604168C4F2D1
:1016D000010401F4003101910199016802AD41F06A
:1016E000040101600068294600F00400019001989F
:1016F0000420029002200390032005902046FEF76C
:1017000083FE0820CDE90206204629460496FEF70E
:101710007BFE06B070BD0000704700002DE9F0436D
:1017200081B0044690F83D0020280BD10E460029D8
:101730004FF0010055D01746002A52D094F83C00D3
:10174000012803D1022001B0BDE8F083012084F814
:101750003C004FF0000921201D46C4F8409084F859
:101760003D00FEF745FFA784E784A1680746B1F571
:10177000805F07D1206900281CBF30464E46B04626
:10178000064601E04FF0000884F83C9007E000BFF7
:1017900016F8010B21684860E08C0138E084E08C89
:1017A00080B1204680213A462B4600F01DFC80B9CE
:1017B000002EEDD138F8020B21686FF35F204860EE
:1017C0000026E9E7204640213A462B4600F00CFC73
:1017D00018B1032001B0BDE8F083202084F83D005B
:1017E000002001B0BDE8F08370470000FEE7000074
:1017F0000268516949054FF000010FD56FF480630D
:1018000053612022016380F83D2080F83E10026C75
:1018100042F00402026480F83C100121084670473F
:101820002DE9F04782B0044600680E460168DDF8F5
:1018300028A041F4806101600168DDF82C9041F43A
:1018400080711D461746016020464FF001110022AD
:101850005346CDF8009000F0F9F850B120680068C8
:10186000C00544BF4FF400702064032002B0BDE8FF
:10187000F08740F202082068C0F2010806F0FE0678
:1018800006612046414652464B4600F019F948BBD6
:101890000020019020684A464169019180695146C3
:1018A00001900198204600F081F998B9012D08D0E7
:1018B0002068390A0161204651464A4600F076F90F
:1018C00040B92068F9B20161204651464A4600F00D
:1018D0006DF958B1206C042804D12068016841F4E6
:1018E00000710160012002B0BDE8F087206800228D
:1018F0000168534641F48071016020464FF00111A8
:10190000CDF8009000F0A2F80028A7D1206846F09A
:10191000010101612046414652464B4600F0D0F895
:10192000002818BF012002B0BDE8F0872DE9F04380
:1019300083B0044600680D4601680A9F0B9E41F47F
:10194000807199469046016020464FF001110022B7
:101950003B46009600F07AF850B120680068C00558
:1019600044BF4FF400702064032003B0BDE8F0834F
:10197000206805F0FE0101610221C0F2010120464C
:101980003A46334600F09CF818B1012003B0BDE898
:10199000F0830020029020683246416902918069FC
:1019A000394602900298204600F000F940B1206CC0
:1019B0000428EAD12068016841F400710160E4E77D
:1019C000B9F1010F0AD020684FEA182101612046C1
:1019D0003946324600F0EAF80028E8D120685FFA7C
:1019E00088F10161002003B0BDE8F083F0B581B05B
:1019F000044600684069400724D415460E464F1C33
:101A000004E000BF2068406940071BD42046FFF770
:101A1000EFFEA0B9002FF5D0FEF7EAFD16B1401B8E
:101A2000B042EFD900202021206384F83D1084F8D3
:101A30003E00216C41F02001216484F83C0001202B
:101A400001B0F0BD002001B0F0BD00002DE9F0476D
:101A5000DDF820801D469146824601F47F078EB254
:101A60005C1C00BFDAF80000B7F5803F14BF1830E7
:101A7000143000683040801BB0FA80F040094845BF
:101A80001BD1002CEED0FEF7B3FD1DB1A0EB08007A
:101A9000A842E7D900202021CAF830008AF83D107A
:101AA0008AF83E00DAF8401041F02001CAF84010F0
:101AB0008AF83C000120BDE8F0870020BDE8F087EF
:101AC0002DE9F04104460068984643698FB203EA65
:101AD0000701B94202D10020BDE8F0814169490502
:101AE00012D41646551C00BF35B1FEF781FD16B362
:101AF000A0EB0800B0421ED8206841693940B942C5
:101B0000E9D041694905EFD5016841F400710160F0
:101B10006FF48061416100202021206384F83D1032
:101B200084F83E00216C41F00401216484F83C00FB
:101B30000120BDE8F08100202021206384F83D10C1
:101B400084F83E00216C41F02001EEE770B51546A7
:101B50000E46044620684169490613D44169C90606
:101B600012D4FEF745FD16B1401BB042F2D9002059
:101B70002021206384F83D1084F83E00206C40F062
:101B800020000CE0002070BD6FF0100141610020CA
:101B90002021206384F83D1084F83E00206C2064EE
:101BA000002084F83C00012070BD0000F0B581B039
:101BB000044600684069000624D415460E464F1CB2
:101BC00004E000BF2068406900061BD42046FFF7F0
:101BD0000FFEA0B9002FF5D0FEF70AFD16B1401B8D
:101BE000B042EFD900202021206384F83D1084F812
:101BF0003E00216C41F02001216484F83C0001206A
:101C000001B0F0BD002001B0F0BD000083B041F292
:101C10001800C4F20200016841F02001016001686F
:101C200001F0200102910299016841F00401016074
:101C3000016801F0040101910199016841F0080176
:101C40000160006800F008000090009803B0704741
:101C500080B540F2100045F60001C2F20000C4F267
:101C6000000148F2A06200234FF4804CC0F2010250
:101C700080E80E00C0E9033CC0E90533C0E9073342
:101C8000FEF7BCFC002818BFFEF7FAFA80BD000082
:101C900080B540F2640043F60001C2F20000C4F2D5
:101CA000010100234FF0080C4FF4E13280E80E00F0
:101CB000C0E90333C0E905C3C361FFF77FFC002817
:101CC00018BFFEF7DDFA80BD80B540F2A80044F2EF
:101CD0000041C2F20000C4F2000100234FF0080CE2
:101CE0004FF4E13280E80E00C0E90333C0E905C3D8
:101CF000C361FFF763FC002818BFFEF7C1FA80BD7F
:101D0000FEE700007047000000F0070080F00703C6
:101D1000042B28BF04234FF0FF3C03380CFA03F3D5
:101D200038BF0020994381400CFA00F022EA0000FD
:101D3000084370477047000081B040F20400C2F2CF
:101D40000000006844F6D351C1F26201A0FB01011A
:101D5000480A009000BF0098411E00280091F9D168
:101D600001B0704770470000B0B501380024B4EBF3
:101D7000106F1CBF0120B0BD4EF21005CEF2000561
:101D800068604FF0FF300F2100F082F90720AC604F
:101D900028602046B0BD000080B5FFF701F880BD87
:101DA00070B590B006AC20462821FEF7F6F9012068
:101DB00006900A904FF4E01000254FF4803102267F
:101DC0000F9020460595CDE90355CDE90155CDE9A4
:101DD0000715CDE90D61FFF77BF90F20CDE901066D
:101DE0004FF48060CDE9040501A802210395FFF7B7
:101DF0005BF810B070BD00007047000080B5406A0D
:101E00000021C185C184FFF7EFFA80BD0168CA686F
:101E100022F49072CA604A6922F001024A61026BA0
:101E2000012A03D1CA6822F01002CA60202180F87A
:101E30003E1000210163704780B50168CA6822F036
:101E40004002CA60202180F83D10FFF7CDFC80BD24
:101E500080B582B090F83E1022291ED18268B2F57A
:101E6000805F02D10169002940D0816AB2F5805FAC
:101E700007D00AB9026922B10268526802F07F02F3
:101E800001E0026852680A700121826A114481628D
:101E9000C18D01390A04C18501D002B080BD01683D
:101EA000CA6822F02002CA60CA6822F48072CA603E
:101EB0004A6922F001024A61202280F83E20026B2A
:101EC000012A1BD100220263CB6823F01003CB60F0
:101ED0000B68DB0605D501920A68019249680191F9
:101EE0000199818DFFF77EFA02B080BD0168826A98
:101EF00049686FF35F2111800221C6E7FFF70CFCF0
:101F000002B080BD10B504460068D4E902C223695E
:101F1000016921F4405111430161616943EA0C02F6
:101F20001143C26841F20C639A431143C160416995
:101F3000A26921F44071114343F60002C4F2010288
:101F40009042416102D0FFF76FF801E0FFF77EF8A1
:101F50006268192148439100B0FBF1F048F21F512B
:101F6000C5F2EB11A0FB01235A096FF0630302FBDA
:101F70000300322303EB0010A0FB0101F02303EA6E
:101F80005113206803EB0212C1F343111144816025
:101F900010BD000090F83D10212923D18168B1F5D2
:101FA000805F01D1016931B1016A02684B1C036293
:101FB0000978516007E0016A036831F8022B6FF37A
:101FC0005F225A600162C18C01390A04C18418BFC2
:101FD00070470068C16821F08001C160C16841F0AC
:101FE0004001C160704700002DE9F04104460068DF
:101FF00000680840884202D10020BDE8F0811D46FB
:102000000E4690465F1C04E0206800683040B042F5
:10201000F2D0002FF8D02DB1FEF7EAFAA0EB0800BD
:10202000A842F1D92068C16821F4D071C16041692A
:1020300021F001014161202084F83D0084F83E0038
:10204000002084F83C000320BDE8F08180B540F218
:102050006400C2F20000FFF7C9F980BDFEE700008E
:10206000002848BF704700F01F01012202FA01F169
:102070004EF200124009CEF2000242F820107047E2
:102080004EF60C50CEF200000068C0F302207047FC
:102090004EF6145300F00F02CEF2000309011A4469
:1020A00000F16043B0F1FF3FC8BF03F56442117017
:1020B000704700004EF60C51CEF200010A684FF650
:1020C000FF031A4060F30A2242F0806040F0FD7086
:1020D0000860704710B5047A0078DDE902EC08402A
:1020E000012C0CBFD2B210241870AEF80020ACF84E
:1020F000004010BD70B586B01C4615460A460178F2
:1021000005AB064604300DF1120C00930DF11703D8
:10211000CDF804C0FFF7DEFF30699DF81710BDF859
:102120001420BDF812304FF0FF360296CDE900546E
:10213000FEF700FCB0FA80F0400906B070BD000068
:1021400070B586B01C4615460A46017805AB0646B2
:1021500004300DF1120C00930DF11703CDF804C0FB
:10216000FFF7B8FF30699DF81710BDF81420BDF8CF
:1021700012304FF0FF360296CDE90054FEF744FDD1
:10218000B0FA80F0400906B070BD00002DE9F04FB4
:10219000A3B0044600F0A8F9002800F0B9800A2096
:1021A000FEF71EF94FF00009F020ACA60DF1080A69
:1021B0000DF18B0B4FF67F7700254FF00008A4F848
:1021C0000E90C4F8089084F80C902071207B715D0B
:1021D0008DF8081070B10198524681B22046012353
:1021E000FFF7AEFF30BB42F6B940C0F60000D02189
:1021F00074E000BF0220207320464FF6FF71524664
:1022000001234FF6FF7701974FF67F77FFF798FF8F
:1022100080B9012020733220FEF7E2F82046FF212A
:1022200052460123FF2701974FF67F77FFF788FF7C
:10223000002860D0204600F057F9E8B34FF07F0A3D
:1022400093A600BF204651465A4601238DF88B9035
:10225000FFF750FFA0B19DF88B009DF80810884251
:102260001AD1002D18BFC2451ED13046EF2152466B
:1022700000F08CFA05200021D04681B923E000BF90
:1022800042F69D40C0F60000E12100F07FFA0120F7
:10229000002121B917E000BF0020012199B1BA4502
:1022A0000AF1800ACED90DE06DA0EA2142465346DC
:1022B00000F06CFAEBE700BF42F63D50C0F60000BC
:1022C000D7210BE00520052811D1B8F17F0F0DF1C2
:1022D000080A62A61AD871A0F72100BF00F056FACA
:1022E0000120F8B90135032D7FF470AF19E00DF12D
:1022F000080A5AA6F5E742F6B940C0F60000C72121
:1023000000F044FAFF2101200191EAE70020E8E70C
:1023100042F61A50C0F600009E2100F037FA002560
:1023200097E0022002284FF0000540F0928008F16B
:10233000010042F61031A060C0F600015046822232
:10234000FDF712FF42F69D4842F63D5A0DF18B090A
:10235000C0F60008C0F6000A0FF25C1B002700BFA1
:1023600002A8C2192046394609238DF88B50FFF781
:10237000E7FE98B1204600F0B7F898B1204600215A
:102380004A460123FFF7B6FE80B19DF88B009DF809
:102390000810884219D1002001210FE0584640F270
:1023A000091107E0504640F20F1103E0404640F2A9
:1023B000151100BF00F0EAF90120002149B107F131
:1023C000080087B27F2FCBD902E0E0810820F4E734
:1023D00008200838B0FA80F04FEA501539D142F69B
:1023E0005440C0F6000040F2231100F0CFF9A2687B
:1023F00042F6F540C2F3D513C0F600004FF49271D7
:1024000000F0C4F9A06800F023F9024642F6D64075
:10241000C0F6000040F2251100F0B8F9227B42F628
:102420007E40C0F600004FF4937100F0AFF9E289EE
:1024300042F66240C0F6000040F2271100F0A6F913
:10244000A068E189B0FBF1F221A04FF4947100F093
:102450009DF9284623B0BDE8F08F00BFA8AFF1007A
:102460005B2535645D206572726F723A206469661F
:10247000666572656E74206D656D6F72792061643A
:102480006472657373202D2564202D25640A000075
:102490005B2535645D205B25645D0A005B25356442
:1024A0005D206572726F723A206661696C20746F8C
:1024B000207363616E0A00005B2535645D206572E0
:1024C000726F723A206932632077726974650A000C
:1024D0005B2535645D202D2050616765436F756E07
:1024E00074203D2025640A00B0B504460178457883
:1024F000006905224FF0FF33FEF74CF90146B0FAB0
:1025000080F0002D12E000BF002908BFB0BD0120FF
:10251000013DFDF765FF2069217805224FF0FF336B
:10252000FEF738F90146B0FA80F02A064FEA50105B
:10253000EAD1B0BD80B5FFF7DDFD80BD0B290ED817
:1025400042F6C03C01EB4102C0F6000C5CF82230C0
:102550000CEB8202436093685268C0E902230020BA
:102560000C2938BF012070472DE9F04705468068E7
:1025700088461944814203D920A04FF49F7132E06C
:10258000B5F80E9028461C461746FFF7ADFF20B35E
:102590005FFA89FAB8FBFAF0264600FB0AF0A0EBD6
:1025A00008005044C1B2A14238BF0646F6B22846E0
:1025B00041463A463346FFF7C3FDB0B1A0B2B04240
:1025C00016D0A41BA0B2374450452646284628BF43
:1025D0004E46FFF789FF0028E8D142F61A50C0F6B0
:1025E00000004FF4AB7100F0D1F80020BDE8F08797
:1025F0002846FFF779FF0120BDE8F0875B253564A9
:102600005D206572726F723A206F7574206F66205C
:102610006D656D65726F790A0000000010B582B0BB
:10262000019040F2640001ACC2F200002146012298
:10263000FF23FFF773F840F2A800C2F20000214622
:102640000122FF23FFF76AF8019802B010BD0000D5
:1026500080B5FDF7ADFD6FF07E0101EBD050C0B24B
:1026600080BD000088B0FEF7A9FBFFF799FBFFF7DC
:10267000CDFAFFF70DFBFFF727FBFFF7E9FA42F66C
:102680009430C0F6000090E84E00006903AC0DF1F4
:102690000C0C079020468CE84E00FFF777FD204693
:1026A0000621FFF74BFFA5200DF10B058DF80B0060
:1026B0002046FB212A460123FFF756FF002720462C
:1026C000FB212A4601238DF80B70FFF733FF42F6FA
:1026D00050459DF80B10C0F60005284600F056F84E
:1026E00040F65A2001AE01902046FB2132460423D9
:1026F000FFF73AFF2046FB21324604230197FFF7FC
:1027000019FF0199284600F041F86320582100F094
:1027100025F8632000F006F80146284600F036F858
:10272000FEE7000080B584B0024600208DF80F005F
:1027300001200DF10F01CDE9001040F210004FF023
:10274000FF3CC2F20000A8211023CDF808C0FEF71C
:10275000F1F89DF80F0004B080BD000080B584B092
:1027600002468DF80F1001200DF10F01CDE9001088
:1027700040F210004FF0FF3CC2F20000A8211023ED
:10278000CDF808C0FEF740FA04B080BD0FB4054B89
:1027900010B503A9044A029800F018F810BC5DF8BF
:1027A00014FB00001D2600080000002002E008C8FD
:1027B000121F08C1002AFAD170477047002001E0BB
:1027C00001C1121F002AFBD1704700002DE9FF4F05
:1027D0008BB088460546002606E025280BD0DDE9AB
:1027E0000D1290476D1C761C28780028F5D10FB08B
:1027F0003046BDE8F08F0024A146A2460122AE4932
:1028000000E0044315F8013F203B02FA03F00842C0
:10281000F7D128782A2810D06FF02F022878A0F15D
:102820003001092915D809EB890102EB410144F077
:10283000020400EB01096D1CF0E758F8041B5FEA85
:10284000010903D544F40054C9F1000944F002041D
:102850006D1C28782E2817D115F8010F44F00404B8
:102860002A280ED06FF02F022878A0F13001092914
:102870000AD80AEB8A0102EB410100EB010A6D1C48
:10288000F2E758F804AB6D1C28786C280FD006DCF2
:102890004C2817D068280DD06A2814D104E0742879
:1028A00010D07A280FD10DE044F400140AE044F46B
:1028B000801401E044F440146978814202D104F5A7
:1028C00080146D1C6D1C2878692865D006DC0028F2
:1028D0008DD0632827D0642806D15DE06E2808D00B
:1028E00073282AD0752877D0DDE90D129047761C21
:1028F000E0E0C4F30250022809D003280DD0D8F834
:10290000001004280DD00E6008F10408D2E0D8F8B9
:102910000010F217C1E90062F6E7D8F800100E8047
:10292000F2E70E70F0E718F8041B8DF80010002095
:102930008DF80100EB46012003E058F804BB4FF08E
:10294000FF3061074FF0000701D40AE07F1C5745B4
:102950000DDA8742FADB1BF807100029F6D106E0F2
:102960007F1C8742FCDB1BF807100029F8D1DDE94A
:102970000D23A9EB07008146214600F0B1F8304451
:10298000C61904E0DDE90D121BF8010B90477F1E0C
:10299000F8D22146484688E058F8040BC4F30251A7
:1029A0004FF00A0B032900D100B2042900D140B234
:1029B000002802DA40422D2102E0210505D52B2115
:1029C0008DF82410012104E006E0E10710D0202159
:1029D000F6E708AF089113E058F8040BC4F302516E
:1029E0004FF00A0B032900D180B2042900D1C0B2F4
:1029F0000021EEE75946FDF7E0FB303107F8011DF5
:102A00000028F7D1ADEB070000F1200B600702D5DD
:102A100024F4803401E04FF0010ADA4502DDAAEB2C
:102A20000B0000E00020824600EB0B0108980144F7
:102A3000A9EB01000A90E00306D4DDE90D2321464D
:102A40000A9800F04DF806444FF0000908E009A983
:102A500011F80900DDE90D12904709F10109761C12
:102A600008998945F3DBE0030CD5DDE90D23214608
:102A70000A9800F035F8064404E0DDE90D12302034
:102A80009047761CBAF10001AAF1010AF5DC05E0D5
:102A9000DDE90D1217F8010B9047761CBBF1000120
:102AA000ABF1010BF4DC0A982146DDE90D2300F0BF
:102AB00005F806446D1C97E6092801002DE9F04150
:102AC000044600251E461746880404D405E039460E
:102AD0002020B0476D1C641EF9D52846BDE8F08162
:102AE0002DE9F041044600251E469046C80301D555
:102AF000302700E02027880404D505E04146384609
:102B0000B0476D1C641EF9D52846BDE8F081000071
:102B1000000102030405060708090A0B0C0D0E0F3D
:102B2000101112131415161718191A1B1C1D1E1F2D
:102B3000202122232425262728292A2B2C2D2E2F1D
:102B4000303132333435363738393A3B3C3D3E3F0D
:102B5000404142434445464748494A4B4C4D4E4FFD
:102B6000505152535455565758595A5B5C5D5E5FED
:102B7000606162636465666768696A6B6C6D6E6FDD
:102B8000707172737475767778797A7B7C7D7E7FCD
:102B900080810000A0320000000000000000000062
:102BA00000000000100000200000000000000000F5
:102BB00001020304060708090000000001020304E3
:102BC000FE0000008000000001000000FE00000088
:102BD0000001000001000800FC00000000020000ED
:102BE00001001000F80000000004000001001000C7
:102BF000F00000000008000001001000FE000000CE
:102C00000010000002002000FE0000000020000074
:102C100002002000FE000000004000000200400012
:102C2000FE0000000080000002004000FE000000E6
:102C30000000010002008000FC0000000000020013
:102C400002000000F8000000000004000200000084
:102C500025640A005B2535645D20454550524F4D83
:102C60000A005B2535645D202D205061676553693E
:102C70007A65203D20256420627974650A005B2511
:102C800035645D202D204D656D4164647253697A11
:102C900065203D20256420627974650A005B253536
:102CA000645D206572726F723A20693263207265CA
:102CB0006164206661696C0A005B2535645D20658E
:102CC00072726F723A20693263207772697465207C
:102CD0006661696C0A005B2535645D202D204D65B9
:102CE0006D416464725769647468203D20256420D6
:102CF0006269740A005B2535645D202D204D656D89
:102D000053697A65203D2025642062797465202FFF
:102D1000202564206B6269740A005B2535645D20A0
:102D20006572726F723A2064657669636520646FBC
:102D300065736E27742065786973740A005B2535A6
:102D4000645D206572726F723A2074696D656F758B
:102D5000740A0000782D0008000000201000000018
:102D6000AC270008882D000810000020E0040000B7
:102D7000BC27000800000000000000000024F40050
:082D800001000000100000003A
:0400000508000131BD
:00000001FF
