:020000040800F2
:10000000F8390124AD0200087122000861210008BE
:1000100069220008F90300081131000800000000FF
:100020000000000000000000000000007125000832
:100030000104000800000000C1220008C9250008D2
:10004000C7020008C7020008C7020008C70200086C
:10005000C7020008C7020008C7020008C70200085C
:10006000C7020008C7020008C7020008C70200084C
:10007000C7020008C7020008C7020008C70200083C
:10008000C7020008C7020008C7020008C70200082C
:10009000C7020008C7020008C7020008C70200081C
:1000A000C7020008C7020008C7020008C70200080C
:1000B000C7020008C7020008C7020008C7020008FC
:1000C000C7020008C7020008C7020008C7020008EC
:1000D000C7020008C7020008C7020008C7020008DC
:1000E000C7020008C702000800000000C70200089D
:1000F000C7020008C7020008C7020008C7020008BC
:10010000C7020008C7020008C7020008C7020008AB
:10011000C7020008C7020008C7020008C70200089B
:10012000C7020008C7020008C7020008C70200088B
:10013000C7020008C7020008C7020008C70200087B
:1001400000000000000000000000000000000000AF
:10015000C7020008C7020008C7020008C70200085B
:10016000C7020008C7020008C7020008C70200084B
:10017000C7020008A9220008C7020008C702000839
:10018000C7020008C7020008C7020008C70200082B
:10019000C7020008C7020008C7020008C70200081B
:1001A000C7020008C7020008C7020008C70200080B
:1001B000C7020008C7020008C7020008C7020008FB
:1001C000C7020008C7020008C7020008C7020008EB
:1001D000C7020008C7020008C7020008C7020008DB
:1001E000C7020008C7020008C7020008C7020008CB
:1001F000C7020008C7020008C7020008C7020008BB
:10020000C7020008C7020008C7020008C7020008AA
:10021000C7020008C7020008C7020008C70200089A
:10022000C7020008C7020008C7020008000000005B
:10023000C7020008C702000800000000C70200084B
:10024000C7020008C7020008C7020008C70200086A
:10025000C7020008C7020008C7020008C70200085A
:10026000C7020008C7020008C7020008C70200084A
:10027000C7020008C7020008C7020008000000000B
:10028000C7020008C7020008C702000800000000FB
:1002900000000000C7020008DFF80CD000F09AF858
:1002A00000480047113E0008F839012406488047FD
:1002B00006480047FEE7FEE7FEE7FEE7FEE7FEE74B
:1002C000FEE7FEE7FEE7FEE7E126000899020008E8
:1002D0002DE9F05F0546002092469B46884606467B
:1002E000814640241BE0284641464746224600F00E
:1002F00061F853465A46C01A914110D31146184628
:10030000224600F048F82D1A67EB01084F462246B6
:100310000120002100F03FF817EB00094E41201E9C
:10032000A4F10104DFDC484631462A464346BDE8D5
:10033000F09F40EA01039B0703D009E008C9121FA0
:1003400008C0042AFAD203E011F8013B00F8013B8F
:10035000521EF9D27047D2B201E000F8012B491EBB
:10036000FBD270470022F6E710B513460A46044652
:100370001946FFF7F0FF204610BD10B5002200E03F
:10038000521C835C8C5CA34201D1002BF8D1D8B203
:10039000E1B2401A10BD202A04DB203A00FA02F133
:1003A000002070479140C2F1200320FA03F3194363
:1003B00090407047202A04DB203A21FA02F0002105
:1003C000704721FA02F3D040C2F120029140084365
:1003D00019467047064C074D06E0E06840F00103FF
:1003E00094E8070098471034AC42F6D3FFF758FF63
:1003F00098B30008B8B30008FEE700000000000052
:100400007047000000000000EFF3108072B600BFDC
:10041000FEE70000000000002DE9F04F83B00C68FB
:10042000002C00F0C68000F1264242F2004702F1A3
:10043000FF72C5F602074FEAB22201920A22B842C1
:1004400008BF0922002500274FF0010A009209E0A9
:100450000C68043734FA0AF20AF1010A05F10205C0
:1004600000F0A780AAF10109012202FA09FE14EAAC
:100470000E08EDD0D1F804B00BF00304A4F1010C88
:10048000BCF1010F11D803228668AA40CB6826EA86
:100490000202AB401A438260CBF30013426822EAA7
:1004A0000E0203FA09F31A434260032C1ED0032301
:1004B000C268AB40022C22EA03028B6803FA05F300
:1004C00042EA0302C26011D16FF0030207F01C067A
:1004D00002EA59020F23024403FA06F4D2F820C0BC
:1004E0000B692CEA0404B34023431362032302681C
:1004F000AB404E689A4306F00303AB4016F4403F0E
:1005000042EA03020260A3D044F2F44340F2084EF0
:10051000C5F60203C5F6000E1A6842F002021A6020
:100520001A6807F00C0302F002020292029A29F004
:100530000302019C009E092C38BF26460F2452F866
:100540000EC09C402CEA040406FA03F34FF0B04CB2
:10055000234342F80E30DCF800204B6842EA0806DC
:10056000DC0258BF22EA08069C02CCF8006040F288
:10057000040CC5F6000CDCF8002042EA080658BF5F
:1005800022EA08069C03CCF80060DCF8802042EAEE
:10059000080658BF22EA0806DB03CCF88060DCF8C6
:1005A0007C2042EA080658BF22EA0806CCF87C60A4
:1005B0004EE703B0BDE8F08F002A08BF090481614F
:1005C000704700000000000041F20000C5F6004046
:1005D0000068000C704700004FF6C400C2F20040F3
:1005E000006870470000000040F20C004FF6C401A4
:1005F000C2F20040C2F2004100780A68104408606C
:10060000704700000000000080B5032000F080F873
:1006100001F072F844F218414AF60803C5F60201E7
:10062000C0F600030A68096801F00F01C2F3032253
:10063000595C9A5C01F01F0102F01F02D04040F2A9
:100640000802C2F2004220FA01F1116040F20401F6
:10065000C2F2004108600F2000F00AF800281CBF19
:10066000012080BD00F030F8002080BD00000000B7
:10067000B0B540F20C01C2F20041097801B3044662
:1006800040F20400C2F200404FF47A72B2FBF1F182
:100690000068B0FBF1F001F0F7FB0F2C4FF0010503
:1006A0000CD858B94FF0FF3000222146002500F049
:1006B0001FF840F21000C2F2004004602846B0BDAE
:1006C0000120B0BD0000000081B044F2F440C5F646
:1006D0000200016841F002010160006800F00200C0
:1006E0000090009801B0704780B502F015FD80BD04
:1006F00070B514460D46064602F01EFD29462246F8
:1007000001F0BAFD0146304602F01EFD70BD00004A
:1007100080B502F02DFD80BDB0B544F60C05C5F6E0
:10072000020529684907296805D401F00701081A5C
:1007300018BF0120B0BD21F0070108432860FFF772
:100740004BFF044655F8080C800407D4FFF744FF1C
:10075000001BB0F57A7FF5D90120B0BD0020B0BDF7
:1007600044F60C00C5F60200016841F0807101609A
:10077000704700000000000080B500F06DFF44F2FB
:1007800020414AF60802C5F60201C0F600020968D7
:10079000C1F30211515C01F01F01C84080BD00008F
:1007A00080B544F2384EC5F6020E5EF8103C5EF895
:1007B000101CC1F3053C5EF80C1CBCF1000FDEF808
:1007C000042014D0C1F30011C2F3CC02514300EE57
:1007D000101A03F003010229B8EE400A0CD071B9D7
:1007E0005EF8381C89060DD49FED341A18E00021FC
:1007F0008160C0E9001180BD9FED2F1A10E09FEDD0
:100800002D1A0DE05EF8381C49F20002C0F2D03219
:10081000C1F3C10122FA01F101EE101AB8EE411A3A
:10082000DEF800109FED263A6FF35F2102EE101AFA
:10083000DEF80010C1F34621B8EE422A00EE032A8A
:1008400000EE10CAB7EE003AB8EE400A81EE000A98
:1008500032EE031A02EE101AB8EE422A20EE010A16
:1008600032EE031A80EE011ABCEEC11A80ED001AB6
:10087000DEF80010C1F3064101EE101AB8EE411A7D
:1008800031EE031A80EE011ABCEEC11A80ED011A96
:10089000DEF80010C1F3066101EE101AB8EE411A3D
:1008A00031EE031A80EE010ABCEEC00A10EE101AF7
:1008B000816080BD0024744A20BCBE4B0024744C6F
:1008C000000000390000000080B544F2404EC5F63B
:1008D000020E5EF8183C5EF8181CC1F3055C5EF869
:1008E000141CBCF1000FDEF8042014D0C1F3002169
:1008F000C2F3CC02514300EE101A03F003010229A7
:10090000B8EE400A0CD071B95EF8401C89060DD4CF
:100910009FED341A18E000218160C0E9001180BD0C
:100920009FED2F1A10E09FED2D1A0DE05EF8401C90
:1009300049F20002C0F2D032C1F3C10122FA01F142
:1009400001EE101AB8EE411ADEF800109FED263ABB
:100950006FF35F2102EE101ADEF80010C1F346219A
:10096000B8EE422A00EE032A00EE10CAB7EE003AB3
:10097000B8EE400A81EE000A32EE031A02EE101AB7
:10098000B8EE422A20EE010A32EE031A80EE011A76
:10099000BCEEC11A80ED001ADEF80010C1F306416A
:1009A00001EE101AB8EE411A31EE031A80EE011A68
:1009B000BCEEC11A80ED011ADEF80010C1F3066129
:1009C00001EE101AB8EE411A31EE031A80EE010A58
:1009D000BCEEC00A10EE101A816080BD0024744A7B
:1009E00020BCBE4B0024744C000000390000000005
:1009F0002DE9F04381B00446C07844F22C49000749
:100A0000C5F6020901D400252EE0A06E4FEA305051
:100A100003280DD80025DFE800F0020E1714D9F8DE
:100A20000000002540F40030C9F8000055B913E07B
:100A300001253DB910E004F10800022101F074FC29
:100A400005464DB1A84611E004F12800022101F04D
:100A5000FBFC0546002DF5D1D9F82400A16E20F449
:100A600040100843C9F824004FF000086078C00720
:100A700030D0A06D042807D8DFE800F00A131C036B
:100A80000300FDB1A84625E00125002DFAD119E0AB
:100A9000D9F8000040F40030C9F80000002DF1D171
:100AA00010E004F10800002101F03EFC0546002D95
:100AB000E8D107E004F12800002101F0C5FC05465B
:100AC000002DDFD1D9F82400A16D20F007000843E4
:100AD000C9F824006078800732D5E06D4FEAB01085
:100AE000042807D8DFE800F00A131C030300FDB157
:100AF000A84625E00125002DFAD119E0D9F800001B
:100B000040F40030C9F80000002DF1D110E004F1EC
:100B10000800002101F008FC0546002DE8D107E09F
:100B200004F12800002101F08FFC0546002DDFD1E3
:100B3000D9F82400E16D20F4E0700843C9F82400DE
:100B40006078400734D5D4F8A8004FEA70500428E4
:100B500007D8DFE800F00A131C030300FDB1A84624
:100B600026E00125002DFAD119E0D9F8000040F463
:100B70000030C9F80000002DF1D110E004F10800A8
:100B8000002101F0D1FB0546002DE8D107E004F17A
:100B90002800002101F058FC0546002DDFD1D9F8CE
:100BA0002C00D4F8A81020F460000843C9F82C00E9
:100BB0006078000734D5D4F8AC004FEA30600428E0
:100BC00007D8DFE800F00A131C030300FDB1A846B4
:100BD00026E00125002DFAD119E0D9F8000040F4F3
:100BE0000030C9F80000002DF1D110E004F1080038
:100BF000002101F099FB0546002DE8D107E004F142
:100C00002800002101F020FC0546002DDFD1D9F895
:100C10002C00D4F8AC1020F0E0600843C9F82C0098
:100C2000E078800728D5E06C4FEA3010032806D81A
:100C3000DFE800F002091202B5B1A8461CE0012568
:100C4000002DFAD110E0D9F8000040F40030C9F8C6
:100C50000000002DF1D107E004F10800022101F0AD
:100C600063FB0546002DE8D1D9F82000E16C20F0A7
:100C700030000843C9F820006078C00632D5206EE5
:100C80004FEA3030042807D8DFE800F00A131C03CD
:100C90000300FDB1A84625E00125002DFAD119E099
:100CA000D9F8000040F40030C9F80000002DF1D15F
:100CB00010E004F10800002101F036FB0546002D8C
:100CC000E8D107E004F12800002101F0BDFB054652
:100CD000002DDFD1D9F82400216E20F4E040084334
:100CE000C9F824006078800626D5606E4FEA30404F
:100CF000052807D8DFE800F0030A100303039DB1BD
:100D0000A84619E00125002DFAD10DE004F10800F4
:100D1000012101F009FB04E004F12800012101F0A8
:100D200093FB0546002DEBD1D9F82400616E20F429
:100D3000E0200843C9F824006078400628D5D4F89C
:100D4000B0004FEA3070052807D8DFE800F0030A4A
:100D5000100303039DB1A8461AE00125002DFAD126
:100D60000DE004F10800012101F0DEFA04E004F1D5
:100D70002800012101F068FB0546002DEBD1D9F8D0
:100D80002C00D4F8B01020F0E0400843C9F82C0043
:100D90006078000620D5206FD8B1B0F1005F12D086
:100DA000B0F1805F25D1D9F8000040F40030C9F8D7
:100DB000000085B9D9F82400216F20F04050084385
:100DC000C9F8240008E004F10800012101F0ACFAA0
:100DD0000546002DEED0A846E078C0072AD0A06CCA
:100DE00003280AD8DFE800F0020D1602D5B1A846A4
:100DF00020E00125002DEED1DCE70125002DF6D104
:100E000010E0D9F8000040F40030C9F80000002DCF
:100E1000EDD107E004F10800022101F085FA054652
:100E2000002DE4D1D9F82000A16C20F00300084384
:100E3000C9F82000A078400642D5D9F8D40340F480
:100E40008070C9F8D403FFF7C7FB0646D9F8D4036E
:100E5000C00505D4FFF7C0FB801B6528F6D303252A
:100E60006DBBD9F84410D4F8B400414011F4407F70
:100E700011D0D9F84410D9F8442042F48032C9F88E
:100E80004420D9F8442021F4407122F48032C9F87A
:100E90004420C9F84410B0F5807F0FD1FFF79CFBC8
:100EA000064641F2893700BFD9F84400800705D4CF
:100EB000FFF792FB801BB842F6D3032585B1A84605
:100EC0002078C00742D0E06F4FEAF000052823D811
:100ED000DFE800F003262C0303037DB3A84635E0CA
:100EE0004FF6CF73D4F8B40059F81C2CC0F2FF03AE
:100EF00000F4407122F47C5203EA1013B1F5407FF4
:100F000008BF1A436FF31F3049F81C2CD9F844105E
:100F10000843C9F84400D3E70125002DDED10DE0D8
:100F200004F10800012101F0FFF904E004F12800B8
:100F3000012101F089FA0546002DCFD1D9F828000A
:100F4000E16F20F038000843C9F8280020788007B6
:100F500024D5A06F052807D8DFE800F0030A1003A6
:100F600003039DB1A84619E00125002DFAD10DE03B
:100F700004F10800012101F0D7F904E004F1280090
:100F8000012101F061FA0546002DEBD1D9F82800C6
:100F9000A16F20F007000843C9F828002078400717
:100FA00026D5D4F89400052807D8DFE800F0030A16
:100FB000100303039DB1A8461AE00125002DFAD1C4
:100FC0000DE004F10800012101F0AEF904E004F1A4
:100FD0002800012101F038FA0546002DEBD1D9F89F
:100FE0002C00D4F8941020F007000843C9F82C0016
:100FF0002078800628D5D4F890004FEA3070052874
:1010000007D8DFE800F0030A100303039DB1A846E8
:101010001AE00125002DFAD10DE004F108000021AD
:1010200001F082F904E004F12800022101F00CFA39
:101030000546002DEBD1D9F82800D4F8901020F007
:10104000E0400843C9F828002078400628D5D4F8A5
:101050009C004FEAB020052807D8DFE800F0030A1B
:10106000100303039DB1A8461AE00125002DFAD113
:101070000DE004F10800002101F056F904E004F14C
:101080002800022101F0E0F90546002DEBD1D9F846
:101090002C00D4F89C1020F4E0500843C9F82C0030
:1010A0002078000628D5D4F8A0004FEA7030052833
:1010B00007D8DFE800F0030A100303039DB1A84638
:1010C0001AE00125002DFAD10DE004F108000021FD
:1010D00001F02AF904E004F12800022101F0B4F93A
:1010E0000546002DEBD1D9F82C00D4F8A01020F43F
:1010F00060400843C9F82C002078000716D5D4F8C2
:101100008400B0F5805F08D104F12800022101F0CD
:101110009BF9002818BF4FF00108D9F82800D4F82F
:10112000841020F440500843C9F828002078C006F5
:1011300016D5D4F89800B0F5807F08D104F12800C6
:10114000022101F081F9002818BF4FF00108D9F8F9
:101150002C00D4F8981020F440700843C9F82C00F3
:10116000A078000722D5D4F8A400B0F5003F1AD02B
:10117000B0F5803F11D0C8BB04F10800002101F098
:10118000D3F805468DB9D9F82C00D4F8A41020F472
:1011900040300843C9F82C0008E004F1280002217F
:1011A00001F052F90546002DEDD0A846A078400781
:1011B00029D5D4F88800B0F5401F21D0B0F5001F24
:1011C00018D0B0F5801F40F0BF80D9F8000040F47F
:1011D0000030C9F80000ADB9D9F82800D4F888105B
:1011E00020F440100843C9F828000CE00125002D28
:1011F000DBD1C8E704F12800012101F025F90546FB
:10120000002DE9D0A846A078C00720D0206DB0F509
:10121000803F10D0B8B9D9F8000040F40030C9F8C8
:1012200000009DB9D9F82000216D20F480300843DA
:10123000C9F820000BE004F10800022101F074F865
:1012400005461DB9EEE70125002DEBD0A846E07854
:10125000800608D504F12800022101F0F5F80028E5
:1012600018BF4FF00108D4E900108A037BD5D4F8E9
:1012700080206FF0010303EB3223022B0AD34FEAE5
:1012800032233BB1012B64D1D9F8003043F4003351
:10129000C9F80030002D5FD0CA0267D4CA006FD4ED
:1012A0008A0279D44A0000F18280B1F1FF3F40F315
:1012B0008F80090200F19780C00707D004F1080071
:1012C000002101F031F8002818BF05462079800779
:1012D00007D504F10800012101F026F8002818BF05
:1012E00005462079400707D504F10800022101F0E6
:1012F0001BF8002818BF05462079000707D504F120
:101300002800002101F0A0F8002818BF0546207928
:10131000C00607D504F12800012101F095F8002846
:1013200018BF05462079800607D504F12800022160
:1013300001F08AF8002818BF0125002D18BF0125EB
:10134000284601B0BDE8F0830125002D7FF45AAF97
:1013500042E70125002D9FD1D9F8283023F44073AE
:101360001A43C9F828204546CA0297D5D9F824203F
:10137000636F22F000421A43C9F82420CA008FD5B7
:1013800059F81C2CD4F8B83022F480421A4349F89A
:101390001C2C8A027FF586AFD9F82420E36E22F058
:1013A00080721A43C9F824204A007FF57EAF59F8AD
:1013B0001C2C22F4004249F81C2CD4F8BC2059F80B
:1013C0001C3C1A4349F81C2CB1F1FF3F3FF771AFA9
:1013D000D9F82020636D22F040521A43C9F820202A
:1013E00009027FF569AFD9F82810D4F88C2021F4D0
:1013F00040011143C9F82810C0077FF45FAF65E7CB
:101400002DE9F04381B0002800F0F48042F200089A
:101410000446C5F200288946D8F8000000F00F0005
:1014200088420ED2D8F8000020F00F0040EA0900F0
:10143000C8F80000D8F8000000F00F00484540F060
:10144000D980206844F218474107C5F602070AD53B
:1014500021693A6802F07002914204D93A6822F098
:1014600070021143396001070AD561697A6802F098
:101470007002914204D97A6822F0700211437960B7
:10148000C1060AD5A1697A6802F4E062914204D9E2
:101490007A6822F4E0621143796081060AD5E16935
:1014A000BA6802F07002914204D9BA6822F0700260
:1014B0001143B96081070AD5E1683A6802F00F026A
:1014C000914204D93A6822F00F0211433960C007F3
:1014D0007ED1206881070AD5E1683A6802F00F02E0
:1014E000914204D23A6822F00F0211433960D8F8D1
:1014F000001001F00F0149450DD9D8F8001021F076
:101500000F0141EA0901C8F80010D8F8001001F0F5
:101510000F0149456ED141070AD521693A6802F0A9
:101520007002914204D23A6822F07002114339608D
:1015300001070AD561697A6802F07002914204D20B
:101540007A6822F0700211437960C1060AD5A16958
:101550007A6802F4E062914204D27A6822F4E0628E
:101560001143796080060AD5E069B96801F070011D
:10157000884204D2B96821F070010843B86000F0D5
:10158000BBF839684AF60802C0F600023B68C1F3AE
:10159000032103F00F03515CD25C01F01F01C8402E
:1015A00002F01F0140F2080220FA01F1C2F20042EB
:1015B000116040F2040140F21002C2F20041C2F296
:1015C000004208601068FFF753F801B0BDE8F083EF
:1015D000386820F47061D4E90102012841EA02016F
:1015E00039600BD003282BD002282ED157F8181CB5
:1015F000890307D4012001B0BDE8F08357F8181C17
:10160000C905F7D557F8081C21F00701084347F82A
:10161000080CFEF7E1FF064641F2883557F8080C42
:10162000616800F03800B0EBC10F3FF452AFFEF735
:10163000D3FF801BA842F1D9032001B0BDE8F0839D
:1016400057F8181C8901D5D5DCE757F8181C49074D
:10165000D0D5D7E70000000080B500F04DF844F287
:1016600018414AF60803C5F60201C0F600030A68ED
:10167000096801F00F01C2F30322595C9A5C02F081
:101680001F0220FA02F201F01F0040F2080122FAC4
:1016900000F0C2F20041086040F20401C2F20041D1
:1016A0000A6080BD0000000080B5FFF7D5FF44F25E
:1016B0001C414AF60802C5F60201C0F6000209689C
:1016C000C1F30211515C01F01F01C84080BD000050
:1016D00080B5FFF7C1FF44F21C414AF60802C5F687
:1016E0000201C0F600020968C1F30221515C01F059
:1016F0001F01C84080BD000044F20041C5F6020150
:101700000869C0F3C20003280FD002282AD070BB9A
:101710000868800649F20000C0F2D03058BF704718
:101720000968C1F3C101C84070478A6A886AC0F37A
:10173000051CC86ABCF1000F4B6B1DD0C3F3CC0372
:1017400000F00100584302F00302022A00EE100AE2
:10175000B8EE400A12D0A2B90868800614D49FEDF2
:10176000261A1EE047F64000C0F27D10704740F692
:101770000010C0F23D007047002070479FED1D1A19
:101780000FE09FED1B1A0CE0086849F20002C0F25E
:10179000D032C0F3C10022FA00F001EE100AB8EE18
:1017A000411A086B9FED153A6FF35F2002EE100AA5
:1017B000086BC0F34620B8EE422A013000EE032A3F
:1017C00000EE10CAB7EE003AB8EE400A81EE000A09
:1017D00032EE031A20EE010A01EE100AB8EE411AA9
:1017E00080EE010ABCEEC00A10EE100A704700BF7E
:1017F0000024744A20BCBE4B0024744C0000003905
:101800002DE9F04381B0F8B18046007844F20049F8
:10181000C007C5F602095AD0D9F8100000F0380107
:10182000D9F82800102905D018290FD100F003009D
:1018300002280BD1D9F80000800344D5D8F8040061
:10184000002840D101272FE0012718E3D8F80440F1
:101850002CB1B4F5A02F0DD0B4F5803F10D0D9F83D
:10186000000020F48030C9F80000D9F8000020F40E
:10187000802009E0D9F8000040F48020C9F8000079
:10188000D9F8000040F48030C9F80000FEF7A4FE4B
:101890000546A4B1D9F80000800314D4FEF79CFEDD
:1018A000401B6428F6D903270020002800F0E782B7
:1018B0000DE000BFFEF790FE401B6428F3D8D9F876
:1018C00000008003F6D40120002800F0D88298F8A8
:1018D0000000800740F18480D9F8100010F0380132
:1018E000D9F828001CD0182908BF5FEA807017D0EB
:1018F000D8F80C00D9F80010002847D021F01901C1
:101900000843C9F80000FEF767FE0546D9F8000055
:1019100040072AD4FEF760FE401B0228F6D91EE0DD
:10192000D9F80000400704D5D8F80C00002800F0D2
:101930009681D9F80000D8F80C1020F0190008435F
:10194000C9F80000FEF748FE054600BFD9F80000C0
:1019500040070AD4FEF740FE401B0228F6D90327B1
:101960000024002C00F08B823AE0FEF72DFE41F2BD
:101970000301884223D8D8F81000D9F80410402871
:1019800021F47C3124D141F4003023E021F0010026
:10199000C9F80000FEF720FE05460126D9F8000030
:1019A00010F0040086EA900417D0FEF715FE401BE5
:1019B0000328F3D30327002C00F0618210E0D9F84C
:1019C0000400D8F8101020F0FE4040EA016001E069
:1019D00041EA0030C9F804000124002C00F04F82D5
:1019E00098F80000C00674D5D9F8100000F038014E
:1019F000D9F82800082905D018291CD100F00300C7
:101A0000012818D1D9F80000C00503D5D8F81C006A
:101A1000802859D1FEF7D8FD41F20301884222D82F
:101A2000D8F82000D9F80410202821F0F84142D13C
:101A300041F0804041E0D8F81C000028D9F80000AF
:101A400020D040F08000C9F80000FEF7C5FD054633
:101A5000D9F80000C005DDD4FEF7BEFD401B02280A
:101A6000F6D9032731E0D9F80C00D8F8201020F07F
:101A70007C50012440EA0160C9F80C00002C00F001
:101A8000FE8126E020F08000C9F80000FEF7A4FDEA
:101A900005460126D9F8000010F4807086EA10246B
:101AA0000ED0FEF799FD401B0328F3D30327002C2B
:101AB00000F0E5810DE041EA8060C9F804000124EE
:101AC000002C00F0DC8104E001270024002C00F051
:101AD000D68198F8000000071CD498F80000800612
:101AE00031D498F80000400745D4D8F82440002CA1
:101AF00000F09180D9F8100000F03800182840F06C
:101B00008C80012CD9F82810D9F8300040F0A98039
:101B10000127B4E1D8F814000028D9F874003ED0A9
:101B200040F00100C9F87400FEF756FD054600BFFD
:101B3000D9F874008007D0D4FEF74EFD401B022870
:101B4000F6D903279BE1D8F818000028D9F800003F
:101B50004DD040F48050C9F80000FEF73DFD054629
:101B6000D9F800008004BCD4FEF736FD401B0228E3
:101B7000F6D9032783E1D9F8000440F48070C9F84E
:101B80000004FEF729FD0546D9F80004C0051AD463
:101B9000FEF722FD401B6428F6D903276FE120F0F1
:101BA0000100C9F87400FEF717FD0546032700BFC2
:101BB000D9F8740080077FF590AFFEF70DFD401B4C
:101BC0000228F5D95BE1D8F808402CB1052C00F0CB
:101BD0008280012C00F08580D9F8700020F001008F
:101BE000C9F87000D9F8700020F004007DE020F4FE
:101BF0008050C9F80000FEF7EFFC0546032700BF40
:101C0000D9F8000080047FF56CAFFEF7E5FC401BBF
:101C10000228F5D933E1002731E1D9F8000020F09E
:101C20008070C9F80000FEF7D7FC022C05464FF083
:101C3000030709D1D9F80000800178D5FEF7CCFC64
:101C4000401B0228F6D91AE1D9F80000800140F1C2
:101C5000E780FEF7C1FC401B0228F5D90FE1012700
:101C60007EE601F00302D8F828309A4240F0DA808C
:101C7000C1F30511D8F82C20914240F0D7800146DD
:101C8000D8F830206FF35F21013A914240F0D080C4
:101C9000C0F34622D8F8341001398A4240F0CA8095
:101CA000C0F30642D8F8381001398A4240F0C480A7
:101CB000C0F30660D8F83C100139884240F0BE807D
:101CC000D9F83400D8F84810C0F3CC00814240F075
:101CD000B7800027D3E0D9F8700040F00400C9F8BD
:101CE0007000D9F8700040F00100C9F87000FEF7EC
:101CF00073FC002C054641F288344FF0030711D0E5
:101D0000D9F8700080073FF5F0AEFEF765FC401B88
:101D1000A042F5D9B3E000BFFEF75EFC401BA04235
:101D200000F2AD80D9F870008007F5D4DDE608F147
:101D30002807D9F8280040F2F33188438ECF0843B2
:101D4000591E40EA02104FF47E426FF35F21C9F83A
:101D5000280002EB47204FF4FE0280B2D8F83C3056
:101D60000844D8F8381002EB01414FF0FE4201F46C
:101D7000FE0102EB0362084402F0FE410844C9F888
:101D80003000D9F82C004FF6F87120F00100C9F8A6
:101D90002C00D9F83400D8F84820884340EAC20023
:101DA000C9F83400D9F82C00D8F8401020F00C0005
:101DB0000843C9F82C00D9F82C00D8F8441020F0BA
:101DC00002000843C9F82C00D9F82C0040F48030F8
:101DD000C9F82C00D9F82C0040F40030C9F82C00C8
:101DE000D9F82C0040F48020C9F82C00D9F82C0038
:101DF00040F00100C9F82C00D9F8000040F08070D4
:101E0000C9F80000FEF7E8FB04460327D9F80000F4
:101E1000800109D4FEF7E0FB001B0228F6D92EE072
:101E200000272CE001272AE0002728E0012726E0F0
:101E3000012724E0012722E0012720E001271EE0FE
:101E4000D9F82C0020F00100C9F82C00FEF7C4FBE3
:101E50000546FEF7C1FBA842FBD0D9F834004FF687
:101E6000F871D8F848208843002740EAC200C9F832
:101E70003400D9F82C0040F00100C9F82C00F8B269
:101E800001B0BDE8F083000080B500F085FB80BDA7
:101E900090F88410012901D1022070472421C0F854
:101EA000881002681368116823F0005321F00101C3
:101EB00011600021416613602022C0F8882080F85C
:101EC0008410084670470000B0B5044690F88400BE
:101ED000012801D10220B0BD012084F88400242013
:101EE000C4F8880020680568026822F001020260D8
:101EF000826822F0606211438160204600F058FC45
:101F0000206805602020C4F88800002084F8840040
:101F1000B0BD000000000000B0B5044690F8840099
:101F2000012801D10220B0BD012084F884002420C2
:101F3000C4F8880020680568026822F00102026087
:101F4000826822F0604211438160204600F030FC3C
:101F5000206805602020C4F88800002084F88400F0
:101F6000B0BD00000000000010B5B0B10446D0F8CC
:101F7000880028B9002084F88400204600F028F862
:101F80002420C4F888002068016821F00101016064
:101F9000204600F035FD012801D1012010BDA06AC6
:101FA00010B1204600F030FC2068416821F49041D7
:101FB0004160816821F02A018160016841F00101DE
:101FC0000160204600F090FC10BD00000000000001
:101FD0002DE9F041B8B0044602A8C0210025CDE9A2
:101FE0003655CDE934553395FEF7BCF941F2000181
:101FF0002068C4F20101884202D038B0BDE8F08107
:102000000120029002A803952195FEF7F1FC08B18A
:10201000FEF7FAF944F2E0400024C5F60200C5F6E6
:10202000020433AD4FF002080169002741F01001AE
:1020300001610169072601F0100101910199016810
:1020400041F002010160016801F002010191019972
:10205000016841F0010101600068294600F00100BB
:10206000019001988020339004F58060CDF8D080F5
:10207000CDE935773796FEF7CFF94FF40070294652
:10208000CDE9330820463796CDE93577FEF7C4F918
:1020900038B0BDE8F08100002DE9F04182B004467F
:1020A000D0F8880020283FD10E4600294FF00100CB
:1020B0004BD01746002A48D01D464FF00008C4F800
:1020C00090802120C4F88800FEF786FAA4F85470A6
:1020D000A4F856700746A168B1F5805F0FD120695A
:1020E000002814BF3046B046064608E0206816F8BF
:1020F000011B8162B4F856000138A4F85600B4F808
:102100005600A8B18021002220463B46009500F0F1
:102110003BFFE8B9002EE9D138F8020B2168002610
:102120006FF35F208862E5E7022002B0BDE8F0812E
:102130004021002220463B46009500F025FF20214B
:102140000028C4F8881018BF032002B0BDE8F08151
:102150002020C4F88800032002B0BDE8F081000010
:10216000FEE700000000000070B586B044F2E040D9
:102170000025C5F602000595CDE90355CDE90155C9
:10218000016840F6000441F0010101600168C5F6F4
:10219000020401F0010100910099016841F002017F
:1021A00001600168002201F00201009100990168BC
:1021B00041F00401016001684FF4005601F0040190
:1021C00000910099016841F08001016000684FF4BE
:1021D000005100F08000009000982046FEF7ECF9D6
:1021E000012001A9CDE90205204601960495FEF7DC
:1021F00013F906B070BD000080B546F2785041F288
:102200000001C2F20040C4F20101082201604FF453
:10221000E13141600021C0E902110161C0E90521FD
:10222000C0E90711C0E90911FFF79EFEC0B946F2E7
:1022300078500021C2F20040FFF76EFE80B946F2EE
:1022400078500021C2F20040FFF73EFE40B946F24E
:102250007850C2F20040FFF71BFE002808BF80BD87
:10226000FEF7D2F800000000FEE7000000000000CA
:10227000FEE700000000000000F007004FF0FF3C08
:1022800080F00703042B28BF0423033838BF002045
:102290000CFA03F399430CFA00F301FA00F022EA76
:1022A000030108437047000080B5002000F0CCFE19
:1022B00080BD0000000000000000000000000000E1
:1022C000EFF30980BFF36F8F154B1A681EF0100FE4
:1022D00008BF20ED108A20E9F04F10602DE90900B9
:1022E0004FF0500072B680F31188BFF34F8FBFF3E9
:1022F0006F8F62B607F078F84FF0000080F3118816
:10230000BDE8090019680868B0E8F04F1EF0100F2A
:1023100008BFB0EC108A80F30988BFF36F8F704755
:102320001866002400000000F0B581B044F22C478C
:10233000C5F6020757F8042C02F00302032A02D163
:10234000012001B0F0BD054657F82C0C0C4620F0DA
:10235000806047F82C0CFEF73FF9064657F82C0C26
:10236000000105D5FEF738F9801B0228F6D964E094
:1023700057F8040CEE6895E80E0020F47C30012C30
:1023800040EA0130A2F101016FF35F214FF47E4278
:1023900002EB432247F8040C92B24FF0FE4302EBEB
:1023A00001004FF4FE012A6901EB064101F4FE0130
:1023B00003EB0262084402F0FE410844F86038680A
:1023C000696920F0C00040EA010038603868A969F6
:1023D00020F0200040EA0100386038684FF6F871BC
:1023E00020F0100038603869EA6920EA01004FF4F3
:1023F000001140EAC2003861386808BF4FF480110C
:1024000040F01000002C386008BF4FF400213868FD
:102410000843386057F82C0C40F0806047F82C0CCB
:10242000FEF7DAF8044600BF57F82C0C000107D479
:10243000FEF7D2F8001B0328F6D3032001B0F0BD4D
:10244000002001B0F0BD0000F0B581B044F22C478F
:10245000C5F6020757F8042C02F00302032A02D142
:10246000012001B0F0BD054657F82C0C0C4620F0B9
:10247000805047F82C0CFEF7AFF8064657F82C0CA6
:10248000800005D5FEF7A8F8801B0228F6D964E085
:1024900057F8040CEE6895E80E0020F07C70012CD3
:1024A00040EA0150A2F101016FF35F214FF47E4237
:1024B00002EB432247F8040C92B24FF0FE4302EBCA
:1024C00001004FF4FE012A6901EB064101F4FE010F
:1024D00003EB0262084402F0FE4108447861386868
:1024E000696920F4406040EA010038603868A969F1
:1024F00020F4007040EA0100386038684FF6F87147
:1025000020F480703860B869EA6920EA01004FF071
:10251000807140EAC200B861386808BF4FF400011A
:1025200040F48070002C386008BF4FF48001386898
:102530000843386057F82C0C40F0805047F82C0CBA
:10254000FEF74AF8044600BF57F82C0C800007D469
:10255000FEF742F8001B0328F6D3032001B0F0BDBC
:10256000002001B0F0BD00000000000000000000ED
:10257000074B19680868B0E8F04F80F30988BFF38B
:102580006F8F4FF0000080F31188704700BF00BFCD
:102590001866002400000000B0B501380024B4EB38
:1025A000106F01D00120B0BD4EF210050F21CEF208
:1025B000000568604FF0FF3000F0C6FDAC600720FA
:1025C00028602046B0BD000080B5FEF70DF880BD44
:1025D00070B59CB044F6180440F22C4509A84C2173
:1025E000C5F60204C5F60005FDF7BCFE0220002674
:1025F000CDE90766CDE90566CDE90366CDE901665B
:10260000FEF78AF80096286820F001002860286804
:1026100000F001000090206840F4404020602068F5
:1026200000F440400090009820688004FCD54FF6EC
:10263000DC40CFF6FF70215841F0020121502058B4
:1026400000F002000090009800200090206840F404
:1026500040402060206800F440400090286840F02E
:1026600001002860286800F001000090009800BF79
:1026700020688004FCD5212009904FF480300A9016
:1026800001200F9002200521CDE912001491C021F4
:10269000CDE9151004210824CDE9171009A81994D3
:1026A0000025CDE91A55FFF7ABF8A0B93F200190FE
:1026B00003204FF48061CDE9020540200494CDE968
:1026C0000500CDE9071001A80421FEF799FE0028B6
:1026D00004BF1CB070BDFDF797FE000000000000B5
:1026E0004EF6885042F2000CCEF20000C5F2002CEB
:1026F000016841F470010160DCF8000000F00F0097
:10270000062806D8DCF80000072161F30300CCF8A6
:10271000000044F200404EF67F52C5F60200CEF6AD
:10272000F622016841F001010160002101610368A6
:102730001A400260DCF80020120706D5DCF8002001
:10274000072363F30302CCF8002040F200228161EA
:10275000C161C0F20222016282620022C0F2FF1255
:10276000C26240F28022C0F20112026341638263BE
:10277000C16302644164026822F48022026001663F
:1027800041F20000C5F600400068B1EB507F05D172
:1027900048F208100121C5F20010016044F2000067
:1027A00043F2D201C5F20020016070470000000032
:1027B00010B5416E01B301684AF6600CC0F6000C1A
:1027C0004AF6680E8A68C0F6000E8968C2F3426253
:1027D0004C0F1CF802301EF802101A011EF80430CB
:1027E000B2FBF1F11CF80420A0F868101201B2FB52
:1027F000F3F2A0F86A2010BD0121A0F86A10A0F839
:10280000681010BD00000000816ACA070CD18A0759
:1028100015D44A071ED40A0727D4CA0630D48A061C
:1028200039D44A0655D541E00268D0F82CC0536827
:1028300023F4003343EA0C0353608A07E9D50268A6
:10284000D0F830C0536823F4803343EA0C0353605C
:102850004A07E0D50268D0F834C0536823F48023D7
:1028600043EA0C0353600A07D7D50268D0F838C092
:10287000536823F4004343EA0C035360CA06CED5E1
:102880000268D0F83CC0936823F4805343EA0C03F9
:1028900093608A06C5D50268D0F840C0936823F4D7
:1028A000005343EA0C0393604A0612D50268D0F83D
:1028B00044C0BCF5801F536823F4801343EA0C0323
:1028C000536006D1536823F4C00C836C43EA0C03B5
:1028D0005360090658BF70470168C06C4A6822F40B
:1028E0000022104348607047B0B582B00446002013
:1028F000C4F89000FDF770FE2168054609680907D5
:1029000019D54FF4001100226FF07E400090204650
:102910002B4600F039FB70B1206850E8000F2168A9
:1029200020F0800041E80002002AF5D12020C4F800
:10293000880003202FE020680068400723D54FF46B
:10294000800100226FF07E40009020462B4600F070
:102950001BFBC0B1206850E8000F216820F4907084
:1029600041E80002002AF5D1206850E8020F2168F2
:1029700020F0010041E80202002AF5D12020C4F82D
:102980008C00032007E02020C4F88800C4F88C00E5
:102990000020E0662067002184F8841002B0B0BDFA
:1029A000016851E8001F026821F4907142E80013A9
:1029B000002BF5D14FF6FE7CCEF6FF7C026852E884
:1029C000022F036802EA0C0243E802210029F5D134
:1029D000C16E01290AD100BF016851E8001F0268D9
:1029E00021F0100142E80013002BF5D12021C0F89E
:1029F0008C100021C1664167704700000000000094
:102A0000F0B583B004460368806846F6F316D4E94F
:102A10000312104362691043E2691F68CCF6FF7627
:102A2000104307EA06021043186058684FF2FF4748
:102A300020F4405240F6004011435960C5F60000B2
:102A4000A1698342C1F2FF171CBF226A11439A6831
:102A500047F2FF763A40C4F2000611439960DA6A01
:102A600044F2544122F00F02676AC5F602013A436C
:102A7000B342DA624FF0800225DD40F6FF77C4F200
:102A80000107BB423FDD834200F0718041F2004705
:102A9000C4F20107BB4200F0758041F20007C4F2A6
:102AA0000107BB4240F0A5800A68C2F3C203052BB0
:102AB00000F296800122DFE813F09C00910095005F
:102AC000970099009B0044F6FF37C4F20007BB4211
:102AD00033DC44F20047C4F20007BB4200F05D80E3
:102AE00044F60007C4F20007BB4240F082800A6847
:102AF00002F00703052B00F273800022DFE803F0E9
:102B0000796E7274767847F60007C4F20007BB420C
:102B100000F04E8047F60047C4F20007BB4240F089
:102B200068800A6802F00703052B00F25980002232
:102B3000DFE803F05F54585A5C5E44F60047C4F285
:102B40000007BB4200F03F8045F20007C4F20007D7
:102B5000BB4240F04E800A6802F00703052B00F2EA
:102B60003F800022DFE803F0453A3E4042444A6895
:102B700002F00703052B33D80222DFE803F03A2FD7
:102B8000333537390A68C2F3C203052B28D801222E
:102B9000DFE803F02F24282A2C2E0A6802F007030E
:102BA000052B1DD80022DFE803F024191D1F212367
:102BB0000A6802F00703052B12D80022DFE803F0B1
:102BC000190E121416180A6802F00703052B07D80D
:102BD0000022DFE803F00E0307090B0D042208E0D2
:102BE000802206E0082204E0102202E0202200E019
:102BF00040222368834240F60010C0F23D0000F0FE
:102C00005380E369B3F5004F40F07880402A00F22A
:102C10001A810025DFE812F04100120117011701A7
:102C20001B011701170117011F01170117011701D8
:102C300017011701170117012601170117011701C5
:102C400017011701170117011701170117011701C4
:102C50001701170117011701340117011701170197
:102C600017011701170117011701170117011701A4
:102C70001701170117011701170117011701170194
:102C80001701170117011701170117011701170184
:102C9000170117011701170131010025FEF704FD87
:102CA000002840F0EF8049E1931E1E2B00F2748053
:102CB0000027DFE813F01F0077007A007700770025
:102CC00077007E0077007700770077007700770045
:102CD0007700B800770077007700770077007700FB
:102CE000770077007700770077007700770077002C
:102CF000770083000027FDF73FFD5FE0402A00F2E8
:102D0000E6800025DFE812F04100DE00E300E3008A
:102D1000E700E300E300E300EB00E300E300E3008F
:102D2000E300E300E300E300F200E300E300E3007C
:102D3000E300E300E300E300E300E300E300E3007B
:102D4000E300E300E300E3000001E300E300E3004D
:102D5000E300E300E300E300E300E300E300E3005B
:102D6000E300E300E300E300E300E300E300E3004B
:102D7000E300E300E300E300E300E300E300E3003B
:102D8000E300E300E300E300FD000025FEF78CFC18
:102D9000002840F0BA80D1E0402A03D14FF400402F
:102DA00000270BE00020012708E06846FDF7F8FC4B
:102DB00002E06846FDF788FD0027019878B3616A54
:102DC0004AF61802C0F600026668012532F81120A2
:102DD00006EB4603B0FBF2F19942C0F0AF8033033B
:102DE000994200F2AB8000210023FDF771FA09023D
:102DF000002341EA10613246000210EB560041F117
:102E00000001FDF765FA4FF6FF42A0F54071C0F2F0
:102E10000F02914205D821683D46C8608EE03D46CC
:102E20008CE001258AE051F8540C800649F200003C
:102E3000C0F2D03000F18B800027BFE70025FEF7FD
:102E400047FCF8B97AE000200125D8B976E0684659
:102E5000FDF7A6FC02E06846FDF736FD0025019867
:102E600080B96BE051F8540C800649F20000C0F2C2
:102E7000D03073D4002528B960E04FF4004000251D
:102E800000285BD0616A4AF61802C0F6000232F8E8
:102E900011106268B0FBF1F0510801EB4000B0FB8B
:102EA000F2F0A0F110014FF6EF72914208D84FF600
:102EB000F07122680140C0F342000844D0603DE058
:102EC00001253BE00025FEF703FCF0B936E00020C9
:102ED0000125D0B932E06846FDF762FC02E06846A1
:102EE000FDF7F2FC0025019878B927E051F8540C61
:102EF000800649F20000C0F2D03039D4002520B954
:102F00001CE04FF400400025C0B1616A4AF6180287
:102F1000C0F6000232F811106268B0FBF1F000EB6D
:102F20005200B0FBF2F0A0F110014FF6EF729142A7
:102F300003D880B22168C86000E001254FF001107D
:102F4000A0660020C4E91D00284603B0F0BD51F87A
:102F5000541C0027C1F3C101C8402FE751F8541C8D
:102F60000025C1F3C101C84000287FF48BAFE5E71D
:102F700051F8541C0025C1F3C101C8400028C4D138
:102F8000DCE70000000000002DE9F04381B00446BA
:102F90000068C0690840401AB0FA80F040099042C9
:102FA00039D1DDF820800D461646994608F1010713
:102FB00009E000BF2068C0692840401BB0FA80F0DB
:102FC0004009B0422BD1002FF4D0FDF705FBB8F13A
:102FD000000F01464FF0030022D0A1EB090141454B
:102FE0001ED8206801684907E4D5C16909071AD4C9
:102FF000C1690905DED54FF4006101622046FFF783
:10300000CFFC2020C4F89000002084F88400032026
:1030100001B0BDE8F083002001B0BDE8F0830020DE
:1030200001B0BDE8F083082505622046FFF7B8FC33
:10303000C4F89050002084F88400012001B0BDE85D
:10304000F0830000000000002DE9F04143F6880401
:1030500042F67031C2F2004410FB01480646404679
:1030600000F05EFC47460546002857F8081F4869EF
:1030700018BF10F0010001D1BDE8F081E80102D5D0
:10308000404600F0BDFDA80019D542F670304FF45F
:10309000927216FB004042F64C330126017B5143ED
:1030A00040F21C62C2F2004256540222C158103053
:1030B0000A7004F03DFF38684FF000514161A801EB
:1030C00058BFBDE8F081386800264FF4A064D0F8FE
:1030D0001414D0F8180400EA010506E0404600F098
:1030E000E3FC013620340C2E0CD025FA06F0C00784
:1030F000F7D0F1B2386820580004EFD5404600F010
:103100004BFCEEE738684FF000714161BDE8F0819B
:10311000FEE7000000000000002848BF704700F0F4
:103120001F01012202FA01F14EF200124009CEF213
:10313000000242F8201070474EF60C50CEF200000C
:103140000068C0F3022070474EF6145300F00F02DF
:10315000CEF20003B0F1FF3F1A4400F16043C8BF54
:1031600003F5644208011070704700000000000081
:103170004EF60C514FF6FF03CEF200010A681A40DA
:1031800060F30A2242F0806040F0FD7008607047F2
:1031900080B501F049FED0E90010884780BD0000ED
:1031A00080B54A1E7D2A88BF80BDC1F342120378D4
:1031B00001F01F0E4FF0010C00EB82028B420CFA63
:1031C0000EFC536823EA0C03536088BF017080BD76
:1031D00080B542F6F023C05840F22313D0F858CA05
:1031E000ACF802200022ACF804100021ACF8061064
:1031F0006146ACF8003003F0FFF980BD000000002C
:10320000F0B581B042F6F02240F6A0278618C2F24F
:10321000004784584FF4D4600D460921D4F8583A39
:1032200018804FF42450C3F802007068D980194602
:10323000007907EB4012204603F0DEF900280AD49B
:103240007168097907EB41124901137A2B725268B0
:103250006A607958296001B0F0BD000000000000EC
:10326000F0B581B042F6F02240F6A0278618C2F2EF
:10327000004784584FF4D4600D460B21D4F8583AD7
:1032800018804FF42850C3F802007068D98019469E
:10329000007907EB4012204603F0AEF900280CD469
:1032A0007168097907EB411249015368D2F8072088
:1032B000C5F807206B607958296001B0F0BD0000A7
:1032C000F0B581B042F6F0271546C619C359A320C0
:1032D00040F6A027D3F8584AC2F200472060706831
:1032E000A1800421E1800079214607EB40121846B5
:1032F00003F082F9002804D47168097949017958EA
:10330000296001B0F0BD000080B542F6F02280587F
:103310004FF44262D0F8583A1A80002259800021B6
:103320005960194603F068F980BD000000000000F4
:1033300080B542F6F023C05840F22333D0F858CA83
:10334000ACF802200022ACF804100021ACF8061002
:103350006146ACF8003003F04FF980BD000000007A
:103360002DE9F04784B089468246007B1746D26833
:1033700040F21C614FF49276C2F2004110FB06103D
:1033800009EB49069178928800EBC60698460C989E
:1033900006F108036FF3DF2200F02AF8D7E90241B3
:1033A000F0808B78A278CD788988E4786FF3DF217C
:1033B00005F0030000905046CDE90114494600F0A5
:1033C000C3F8F868397CB3688278B079002918BFEF
:1033D0000121CDE90030480002905046494643465D
:1033E00000F0DAF804B0BDE8F0870000000000004B
:1033F00080B549B200EB020CACF1010CBCFBF2FC55
:103400001FFA8CFEBEF5807F88BF4FF4807C0028B9
:1034100008BF4FF0010CB1F1FF3F1FFA8CF1D8BF8C
:1034200001FB02F05FFA8CF11860084680BD0000D5
:1034300010B5044601F094FF217B40F21C624FF46A
:103440009273C2F2004211FB032100240D3100BF30
:103450000A7832B1013418310C2CF9D14FF0FF3415
:1034600001E001220A7001F097FF204610BD000024
:103470002DE9F04381B01E461746894605460A9C51
:1034800003F01AFC032C12D0032810D14AF6E100F5
:10349000C0F6000006F030FF1BA007F0A3F94AF6C3
:1034A0001010C0F6000006F027FF00BFFEE7F00294
:1034B00047F6000340EA875006F08002C1F6C07369
:1034C000DDF82080099918406FF3DF2108F003032D
:1034D00040EA0220012C084440EA834406D12846F1
:1034E00003F0EAFB012818BF44F40034A868B8F1DF
:1034F000030F08BF04F1005400EB4910C0F8004569
:1035000001B0BDE8F08300BF446F206E6F7420737C
:103510007570706F7274204C532F4653206465761B
:10352000696365206F6E204853206875620D000046
:1035300010B5044601F014FF0021617201F02CFF68
:1035400010BD0000000000002DE9F04184B0D0F86B
:1035500008C00A9C4FF0FF35032C0CEB411E4FF0C6
:103560000106DDF82C800C9FCEF808554FF00205BF
:1035700008BF1225CEF80C5501F00F05AE40DCF85F
:1035800018542E43CCF81864CDE900480297FFF791
:103590006FFF04B0BDE8F08170B581B0DDE905ECE6
:1035A0006FF3DF4E047B4EEACC4C40F21C6E4FF4BE
:1035B0009275C2F2004E806814FB05E601EB4104EF
:1035C000DDF81CE00EF0030500EB411106EBC4062C
:1035D0004CEA4575C1F81055D209B273C1F81435DB
:1035E000D0F80804D1F8002522F00052C1F80025D7
:1035F0004FF0005222EA4070D1F800251043C1F884
:103600000005D1F800050090009820F0804000905F
:10361000009840F0004000900098C1F8000501B00B
:1036200070BD0000000000002DE9F04784B089461D
:103630008246007B40F21C644FF49271C2F2004457
:1036400010FB014709EB490107EBC1073D79042D48
:1036500000F2E58016461F46DDF83080DFE805F011
:10366000032F5682B2004FF49272F36810FB0240AF
:1036700000259A8800EBC10408206FF3DF2204F1D3
:1036800008030021FFF7B4FED6E90231E08050467E
:1036900089889A78DE7800236FF3DF210296CDE9DE
:1036A00000514946FFF750FFA079A168CDE900100D
:1036B000002203200290504649463B467DE04FF4ED
:1036C0009272F36810FB0245F8889A8805EBC104F2
:1036D00080216FF3DF2204F10803FFF789FED6E9AA
:1036E0000231E080002089889A78DF7880236FF3A8
:1036F000DF210297CDE9000150464946FFF724FF3C
:10370000A0798022A168CDE9001025E04FF49272E3
:10371000F36810FB0245F8889A8805EBC104002184
:103720006FF3DF2204F108030025FFF761FED6E9FD
:103730000231E080504689889A78DF7800236FF361
:10374000DF210297CDE900514946FFF7FDFEA07940
:10375000A168CDE90010002202200290504649469F
:1037600043462AE04FF49272F36810FB02400025B2
:103770009A8800EBC10400206FF3DF2204F10803F4
:103780008021FFF735FED6E90231E0805046898876
:103790009A78DF7880236FF3DF210297CDE900511B
:1037A0004946FFF7D1FEA079A168CDE9001080223B
:1037B00000230220029050464946FFF7EDFE04B078
:1037C000BDE8F0874FF49272F36810FB02400025C9
:1037D0009A8800EBC10400206FF3DF2204F1080394
:1037E0000021FFF705FED6E90231E08050468988C6
:1037F0009A78DF7800236FF3DF210297CDE900513B
:103800004946FFF7A1FEA079A168CDE9001000228A
:1038100000230220029050464946FFF7BDFE04B047
:10382000BDE8F0870000000080B58168CA6842F0FA
:103830004002CA6000F068FA80BD0000000000008D
:1038400081B00022009282680129D2F840340093AE
:10385000009B23F02E030093009B01BF13F48053C1
:10386000009B43F48053C2F840340029009908D1EA
:1038700011F4805105D00099806821F48051C0F87E
:10388000401401B07047000081B040F64051002262
:10389000C0F20301009200BF009A013200928A42F6
:1038A00013D882681369B3F1FF3FF5DC0020009064
:1038B00010201061009801300090884205D81069EE
:1038C000C006F7D4002001B070474FF0FF3001B0C0
:1038D000704700000000000081B040F64051002217
:1038E000C0F20301009200BF009A013200928A42A6
:1038F00012D882681369B3F1FF3FF5DC0020009015
:103900004FF48460106100BF00980130009088423D
:1039100002D810698006F7D401B07047000000009B
:10392000806841698069084070470000000000001D
:1039300083B0826802EB4110D0F80015C90F0291E4
:10394000002101919268920601D5029A02B300F516
:10395000A060C16001680091009941F08041009130
:10396000009921F000410091009921F4004100915B
:103970000099016040F64051C0F20301019A013202
:1039800001928A4202D80268002AF7D481688160D5
:1039900003B0704700000000F0B581B0826802EB10
:1039A0004115D5F808359A0701D401B0F0BD077B61
:1039B00040F21C6E4FF49274C2F2004E17FB04E208
:1039C00001EB410405F5A065DE0702EBC402D2F865
:1039D00014C0AB600BD1580754D418073FD4D80695
:1039E00058BF5FEA436040D56FF009004CE04FF4E8
:1039F0009272002317FB02E2CCF82C3002EBC402D7
:103A000092682B696FF3DF43DCF82460D21ADCF88C
:103A10000C303244CCF824202A69DB7812F0C04202
:103A200003F0030318BF0122012B8CF81020BCD037
:103A300063BB4FF4927217FB02E202EBC40212F86E
:103A4000043F032B0ED0012BAFD104231370DCE90C
:103A5000053200926246FFF7E7FD01B0F0BD6FF05E
:103A6000070011E00020107010E018060AD4D805F5
:103A700011D4580512D4980597D56FF00B00CCF8E7
:103A80002C0003E06FF00B00CCF82C00604600F037
:103A90006FF901B0F0BD6FF00800F5E76FF00A00B4
:103AA000F2E70000000000002DE9F04782B08268D4
:103AB00002EB4115D5F80825930702D402B0BDE802
:103AC000F08790F80CA040F21C6C4FF49274C2F294
:103AD000004C1AFB04C301EB410405F5A065D607B1
:103AE00003EBC403D3F814E0AA600BD150076CD4E5
:103AF000100751D4D00658BF5FEA426057D56FF027
:103B0000090064E04FF4927200231AFB02C2CEF85F
:103B10002C302B694FF6004602EBC402CFF6FF763D
:103B20006FF3DF43B2F80680D5F81090DEF80C2072
:103B300066EAD9469788B044DEF824606FF3DF2741
:103B4000334408FB0733CEF824302B69D27813F0C6
:103B5000C04302F0030218BF0123012A8EF810307F
:103B6000ACD0B2BB4FF492721AFB02C202EBC40299
:103B700012F8043F042B12D0022B13D0002B9DD13E
:103B8000DEF81430DF8857B393F900700125B7F1E0
:103B9000FF3FC8BF022523E06FF0070017E00020B9
:103BA000107016E003231370DEE905321BE01006E7
:103BB0000BD4D0051ED450051FD490057FF57EAFE1
:103BC0006FF00B00CEF82C0003E06FF00B00CEF886
:103BD0002C00704600F0CCF802B0BDE8F087032559
:103BE0001570DEF8182000927246FFF71DFD02B036
:103BF000BDE8F0876FF00800E9E76FF00A00E6E73C
:103C0000B0B584B00446806840F21C65D0F840141A
:103C10000391D0F8400402900298C2F2004520F0CF
:103C20002E0002900398800715D50398C00708D08E
:103C300042F64C300222215804F110000A7004F0C0
:103C400077F902984FF4927140F002000290207BC5
:103C50004843012129540398000741D502984FF4A5
:103C6000927140F008000290207B10FB015001216E
:103C700041700398400733D5039800F4C020B0F595
:103C8000802FA06814D141F27071C0F80414D0F8EC
:103C9000001401F00301022922D0D0F80014019190
:103CA000019921F003010191019941F0020113E012
:103CB0004BF68031C0F80414D0F8001401F0030171
:103CC00001290DD0D0F800140191019921F00301D0
:103CD0000191019941F0010101910199C0F800148D
:103CE000039880060AD502984FF4927140F02000A4
:103CF0000290207B10FB0150012181700298A16885
:103D0000C1F8400404B0B0BD81B040F6405100227B
:103D1000C0F20301009200BF009A013200928A4271
:103D200012D882681369B3F1FF3FF5DC00200090E0
:103D3000106940F001001061009801300090884245
:103D400002D81069C007F7D101B070470000000029
:103D500080B58068C16821F0C041C160C16841F090
:103D60000051C160322001F097FB80BD00000000CF
:103D700010B5044640680022A16A0261626019B170
:103D8000C06801F005FC01E0FFF7D2FBA26B002A3E
:103D900008BF10BDE16AE06B002958BF616A904717
:103DA00010BD00000000000080B582B0019046F216
:103DB0007850C2F2004001A90122FF23FEF76CF9FE
:103DC000019802B080BD000080B5012902DB04F03B
:103DD000AFF880BD0A3118BF80BD4FF42D51405857
:103DE00001F0D2FC80BD000010B582B042F6F02197
:103DF00042F6FC224318841841589A68DB6C009004
:103E0000204604F031F9204604F0BAFC02B010BD9F
:103E1000FCF7FAFBFEF7DCFBFEF7A6F9FEF7ECF980
:103E200006A006F0DFFC00210020C4F2040104F02B
:103E3000BBF805F08DFA00BFFEE700BF5374617256
:103E4000742075736220686F7374207461736B2EB5
:103E50002E2E0D00000000002DE9F04381B00C462D
:103E60000978092964D181466078022869D1904691
:103E70000A2A7BD389F81D006088A9F81E002079E2
:103E800089F81C104FF4226189F82000D4F805004D
:103E9000C9F82100A07989F8220009F12800FCF76F
:103EA00061FA14F8090F002860D0FF2709214FF4A8
:103EB000A27C4FF0250EFF22FF2300BF607805286B
:103EC0001AD0042828D1A278082A53D2E378082BE4
:103ED00063D22079052870D212FB0C90267A13FB4E
:103EE0000E0585F84860266867686F642E645D1C5F
:103EF00080F8685100270FE0D8B202FB0C96FDB2A3
:103F000010FB0E600137D4F80360C5EBC5052844EB
:103F10002568C664C0F8495025780020665D3144A4
:103F2000414502D8002E2C44C8D101B0BDE8F08331
:103F30004AF6FC30C0F6000006F0DEF9217827A032
:103F400007E04AF6FC30C0F6000006F0D5F96178CB
:103F50002AA006F0D1F94AF61010C0F6000006F0CB
:103F6000CBF96FF0010001B0BDE8F083002001B093
:103F7000BDE8F0834AF6FC30C0F6000006F0BCF95C
:103F80004AF6E430C0F6000006F02CFC4AF61010A9
:103F9000C0F6000006F0B0F9FEE74AF6FC30C0F6C5
:103FA000000006F0A9F925A006F01CFC4AF6101046
:103FB000C0F6000006F0A0F9FEE74AF6FC30C0F6B5
:103FC000000006F099F917A006F00CFC4AF6101054
:103FD000C0F6000006F090F9FEE700BF696E76615A
:103FE0006C696420636F6E66696720624C656E67FA
:103FF0007468203078253032780D0A00756E657847
:1040000070656374656420636F6E666967206465BC
:104010007363726970746F72203078253032780D56
:104020000A000000456E64706F696E74206E756DD5
:10403000206F766572666C6F770D0000496E74654F
:10404000726661636520616C7473657474696E6710
:10405000206E756D206F766572666C6F770D00004F
:1040600010B50C46097812291BD16378012B21D198
:10407000092A38BF10BDC1710372D4F80210D4F8F8
:104080000620D4F80A30C0F80910C0F80D20C0F896
:104090001130A17B4175B4F80F10C182617C0176AB
:1040A00010BD4AF6FC30C0F6000006F025F9217874
:1040B00009A007E04AF6FC30C0F6000006F01CF943
:1040C00061780DA006F018F94AF61010C0F600004D
:1040D00006F012F910BD00BF696E76616C6964204C
:1040E00064657669636520624C656E67746820302C
:1040F00078253032780D0A00756E657870656374C6
:1041000065642064657669636520646573637269BC
:1041100070746F72203078253032780D0A000000FC
:1041200010B50446007809283CD16078292845D18B
:104130002CA006F057FB21784AF63560C0F6000047
:1041400006F0DAF861784AF6B160C0F6000006F0D1
:10415000D3F8A1784AF65460C0F6000006F0CCF817
:10416000B4F803104AF6EF60C0F6000006F0C4F899
:1041700061794AF67360C0F6000006F0BDF8A179D7
:104180004AF6D060C0F6000006F0B6F8E1794AF6CB
:104190009260C0F6000006F0AFF8217A16A006F093
:1041A000ABF810BD4BF20C10C0F6000006F0A4F8FE
:1041B00021784BF27200C0F600000AE04BF20C10BE
:1041C000C0F6000006F098F861784BF29200C0F655
:1041D000000006F091F84AF61010C0F6000006F054
:1041E0008BF810BD48756220446573637269707402
:1041F0006F723A0D00000000506F72745077724376
:1042000074726C4D61736B3A2030782530327820AF
:10421000202020200D0A000010B5044600780A284E
:104220000BD84BF20C10C0F6000006F065F82178B0
:104230004BF27200C0F6000043E060782A2835D1C6
:1042400024A006F0CFFA21784AF63560C0F60000C7
:1042500006F052F861784AF6B160C0F6000006F048
:104260004BF8A1784AF65460C0F6000006F044F816
:10427000B4F803104AF6EF60C0F6000006F03CF810
:1042800061794AF67360C0F6000006F035F8A1794E
:104290004AF6D060C0F6000006F02EF8A17A4AF681
:1042A0009260C0F6000006F027F810BD4BF20C102B
:1042B000C0F6000006F020F861784BF29200C0F6DC
:1042C000000006F019F84AF61010C0F6000006F0DB
:1042D00013F810BD5375706572537065656420489E
:1042E00075622044657363726970746F723A0D0071
:1042F000F0B581B04FF6E81246F21866C2F20042FD
:10430000C2F2004604460D4617683268101D04F0DC
:10431000A3FD10B1601C0FD027E030684FF6D80223
:10432000C2F200420121C06A01FA00F0116821EADC
:1043300000001060601C18D1BDB14FF6C010C2F271
:1043400000404168326891608A683368DA60326898
:104350008B6804325A60326804328A60316848617E
:1043600001680131016001B0F0BD3068E4194460BA
:104370000AD346F22860C2F2004000683168043176
:1043800004F092FD01B0F0BD46F22060C2F20040A0
:1043900000683168043104F087FD4FF63C10C2F22A
:1043A000004001688C4238BF046001B0F0BD0000DD
:1043B0002DE9F041044604F0B3FD4FF6C80046F283
:1043C0001865C2F20040C2F200454FF6B418016809
:1043D000C2F2004801310160296849B1D8F80000F3
:1043E00060B92868E16AC06A884298BF2C6005E01D
:1043F0002C600068012801D100F0FEF94FF6D400CE
:10440000E26AC2F200400123934001680131016079
:104410004FF6D80102EB8200C2F2004146F2306250
:10442000C2F200420E6802EB800733430B607968EA
:10443000A160261D67618B68E3608B688E605E609B
:1044400052F82010013142F8201004F07DFDD8F818
:10445000000088B12868E16AC06A884228BFBDE8C8
:10446000F0814EF604504FF08051CEF20000016012
:10447000BFF34F8FBFF36F8FBDE8F08100000000E6
:1044800070B504F04DFD4FF6EC16C2F200463068F0
:1044900010B104F059FD70BD4FF6DC04C2F20044C7
:1044A000204604F0F1FC4FF6F005C2F20045284624
:1044B00004F0EAFC46F21C601021C2F20040002227
:1044C000046046F22C60C2F2004005600A2005F04C
:1044D0003BF800283060DCD002A104F0A1FD04F01C
:1044E00033FD70BD546D72510000000000000000EB
:1044F000F0B581B04FF6CC05C2F200452868E0B1B6
:104500004FF6D4164FF6C807C2F20046C2F2004773
:1045100004F006FDF068C468201D04F09DFC3868B6
:104520000138386028680138286004F00DFD204605
:1045300000F05AF828680028EAD101B0F0BD000068
:1045400080B5026C002A08BF80BDD0E902C31344C5
:10455000C360634501D30368C360C3680846194656
:10456000FBF7E7FE80BD000070B5866B0446036C68
:10457000E3B115461AB3E0681A46FBF7DAFEE168C4
:10458000206C2268091A9142E16003D24042A1687E
:104590000844E060A81E3146B0FA80F0002E18BF33
:1045A0000121400900250840361A18E0206800253E
:1045B000A8B9A06805F06CFCA56005460FE060682E
:1045C0001A46FBF7B6FE216CD4E90102084460608C
:1045D000904201D2002502E0206860600025701C36
:1045E000A063284670BD000010B50446006B04F0BF
:1045F000BBFC204604F0B8FC10BD00000000000029
:10460000416A21B1006B0068C0F1200070470020B2
:10461000704700000000000046F21C61C2F2004139
:1046200009680A68B2FA82F3002A4FEA531202605C
:104630000EBF0020C868006870470000000000003E
:1046400046F6B80046F2246CC2F20040C2F2004CBA
:10465000C11D10F0070221F00701A0EB010318BFF4
:1046600008464FF41041002A18BF03F510414FF6D9
:10467000B81200230144C2F20042083921F00701B8
:10468000CCF8001010605360C1E90033091A416092
:10469000DCF8002002604FF63810C2F200400160E2
:1046A0004FF63010C2F2004001604FF60410C2F223
:1046B000004001210170704746F230644EF6045507
:1046C000C2F20044CEF200054FF08056FFF710FF13
:1046D00020680228FAD32E60BFF34F8FBFF36F8F8D
:1046E000F4E7000000000000002808BF704780B514
:1046F00000210160C0E9021100210022002304F022
:1047000083FFBDE88040704710B51C4609B12260A8
:1047100000E02460C4E90F010121204604F034FFC9
:104720000020A06410BD00002DE9F0470A9F8246DA
:104730009946DDF824803E6B089C06EB8200A0F1D0
:10474000040020F0070679B107F13400002200BF11
:104750008B5C83548B5C1BB10F2A02F10102F7D3EF
:10476000002087F8430002E0002087F834001F2C67
:1047700007F1040028BF1F240025FC62C7E911458A
:1047800004F08EFB07F1180004F08AFBC4F120004E
:10479000B861304651464A463F617F62FD6487F802
:1047A000505000F04DFBB8F1000F386018BFC8F84A
:1047B0000070BDE8F08700002DE9F04381B01C4691
:1047C00090460E460746DDE90895FFF759FE281D7D
:1047D0002F60C5E90664C5F8209004F061FBB8F1CC
:1047E000000F05D095F8240040F0040085F824005F
:1047F00001B0BDE8F0830000B0B546F2306500249A
:10480000C2F20045281904F03FFB1434B4F5207FB0
:10481000F8D14FF60814C2F20044204604F034FBED
:104820004FF61C15C2F20045284604F02DFB4FF64A
:104830005010C2F2004004F027FB4FF6D410C2F231
:10484000004004F021FB4FF6C010C2F2004004F01B
:104850001BFB46F22060C2F20040046046F2286072
:10486000C2F200400560B0BD4FF6B812C2F200427D
:10487000114612688242FBD3D1F804C001EB0C034D
:10488000834203D14068604448600846D0F804C0C1
:1048900000EB0C03934201D013460AE046F2246376
:1048A000C2F200431B689A4203D0D2E9003262444C
:1048B00042608142036018BF08607047000000003A
:1048C00080B58C4601469445006141F804CF08D973
:1048D0009A4201D29C4511D246F21C60C2F20040BD
:1048E00007E0D21A8069824208D246F22C60C2F2F6
:1048F0000040006804F0D8FA002080BD012080BD8F
:1049000010B5044604F00CFBA06BB0FA80F044092B
:1049100004F01AFB204610BD10B5044604F000FB5D
:10492000A06BE16B401AB0FA80F0440904F00CFB74
:10493000204610BD0000000070B582B0846C01906C
:10494000A06BE16B88420DD294F8456001A900226A
:104950002046FFF709FEFF2E054605D0701C84F89F
:1049600045000AE0002508E054F8240F28B120464D
:1049700005F03AFB002818BF0125284602B070BD9B
:1049800008480068006880F308884FF0000080F352
:10499000148862B661B6BFF34F8FBFF36F8F00DF2D
:1049A00000BF00BF08ED00E070B546F21C6206468D
:1049B000C2F200420D461268D268D468201D04F08D
:1049C0004BFA94F82400410704D400F0FE0084F868
:1049D000240004E0204631462A4600F0C5F8216A4A
:1049E0002046884770BD00002DE9F04186B04FF6A3
:1049F000EC1402A9C2F200440022206804F06CFF0B
:104A000000286BD00DF1040802AD06E020680022FA
:104A1000294604F061FF002860D00298B0F1FF3F02
:104A200003DCDDE903200599904702980028EDD4C6
:104A3000049E706910B1301D04F00EFA404600F07B
:104A4000C7F8029901390829E0D80746DFE801F0E4
:104A500014142C053E14142C050096F824003A4634
:104A60003B4640F0010086F824000398B061C1196C
:104A70003046FFF725FFC9E796F82400039BB1698C
:104A80003A4640F0010086F8240019443046FFF70A
:104A900017FF0028BAD096F8240041070BD400F085
:104AA000FE0086F824000DE096F8240000F0FE00D9
:104AB00086F82400AAE70398B169014430463A46D3
:104AC00000F052F8316A304688479FE796F8240094
:104AD0008107EBD4304604F047FA97E706B0BDE80B
:104AE000F08100000000000070B582B00E46044660
:104AF00004F072FC01A800F06BF8019919B105F0FF
:104B0000E3FA02B070BD05464EB9A54207D305F0E1
:104B1000DBFA20462946FFF747FF02B070BD4EB1D1
:104B200046F22C60C2F2004000680068B0FA80F0E3
:104B3000420900E000224FF6EC10611BC2F2004077
:104B4000006804F0B1FA05F0BFFA0028D9D14EF69A
:104B500004504FF08051CEF200000160BFF34F8F40
:104B6000BFF36F8F02B070BD70B5044680690E460A
:104B70000144204633461546FFF7A2FE002808BF31
:104B800070BD00BFA069216A064420468847A0691D
:104B90002A46811920463346FFF792FE0028F1D1BC
:104BA00070BD00000000000046F22060C2F200402C
:104BB0000168096819B10068C068006801E04FF039
:104BC000FF304FF63C11C2F2004108607047000010
:104BD00070B5044605F07CF846F214660546C2F24C
:104BE00000463168884203D200F00AF8012000E054
:104BF000002020602846356070BD000000000000E5
:104C000010B546F21C64C2F200442068016849B144
:104C1000C0684FF0FF310068FFF7C6FE20680168EA
:104C20000029F5D146F22C61C2F200410A682260E7
:104C3000086010BD0000000081B0002000904FF01F
:104C4000500072B680F31188BFF36F8FBFF34F8FA0
:104C500062B600BF00980028FCD001B07047000089
:104C600082B001AC2046FFF7D7FC0199FFF73CFF6B
:104C7000FFF7BAFEF6E70000F0B581B0044604F095
:104C80004FF994F94560012E18DB04F1240503E087
:104C900070B2013E012811DDA06C28B12046FFF75B
:104CA0004BFE40B9F4E700BF286838B1284605F04C
:104CB0009BF90028ECD004F0B3FAE9E7FF2684F86A
:104CC000456004F041F904F02BF994F94470012F88
:104CD00010DB04F1100503E078B2013F012809DD83
:104CE000286838B1284605F07FF90028F4D004F090
:104CF00097FAF1E784F8446004F026F901B0F0BDBA
:104D00002DE9F04381B0044604F066FB46F22466C8
:104D1000C2F20046306808B9FFF792FC4FF604195A
:104D2000C2F2004999F80000002818BF4FF0004077
:104D3000204201D0002465E004F10801092901D2D4
:104D4000002108E014F0070005D0081A0830884256
:104D500098BF002001464FF630184A1EC2F20048A4
:104D6000D8F80000824216D24FF6B810C2F20040C6
:104D700005682F4657F8042F8A4212D22B6863B178
:104D80001F4628461D4657F8042F8A4209D22B6831
:104D9000002BF5D105E0002434E04FF6B810C2F244
:104DA000004033689D422CD0521A0468112A2B68A7
:104DB000036004D3681842603960FFF755FD4FF671
:104DC00038103968C2F20040D8F80020511AC8F8EB
:104DD000001002680834914238BF016099F8000061
:104DE000396800284FF0000018BF41F000412860EA
:104DF00039604FF64411C2F2004108680130086082
:104E000000E0002405F060F9204601B0BDE8F08321
:104E100046F21860C2F20040016819B101688A6C5C
:104E200001328A640068704710B5044604F078F8CF
:104E3000E46904F089F8204610BD0000000000007D
:104E400044F6394321F00101C0F6000340F80C3C60
:104E50004FF0807340F8202C40E902136FF00201FC
:104E600040F8241CA0F144010846704700000000EF
:104E700046F6B00846F20C694AF69C0646F2F04A3D
:104E80004AF6EF0700F10C04C2F2004823A5C2F273
:104E90000049C0F60006C2F2004AC0F6000709E069
:104EA000D9F80010304605F027FA204603F068FCD8
:104EB00005F00AF9D8F800004FF0FF3100F090FB40
:104EC000A8B14AF6E100C0F6000005F015FA4AF66E
:104ED000A8004AF6F701C0F60000C0F6000105F090
:104EE0000BFA4AF61010C0F6000005F005FA04F0BF
:104EF00073FA284605F000FAD9F800000028CFD050
:104F00004FF0000B1AF80B10384605F0F5F90BF1CD
:104F1000010BD9F800008345F4D3C1E74B657962F2
:104F20006F61726420446174613A00000000000007
:104F300046F6B40846F210694AF69C0646F2345A20
:104F40004AF6EF0700F10C04C2F2004823A5C2F2B2
:104F50000049C0F60006C2F2004AC0F6000709E0A8
:104F6000D9F80010304605F0C7F9204603F008FCD8
:104F700005F0AAF8D8F800004FF0FF3100F030FB40
:104F8000A8B14AF6E100C0F6000005F0B5F94AF60E
:104F9000A8004AF60511C0F60000C0F6000105F0B1
:104FA000ABF94AF61010C0F6000005F0A5F904F0C0
:104FB00013FA284605F0A0F9D9F800000028CFD050
:104FC0004FF0000B1AF80B10384605F095F90BF16D
:104FD000010BD9F800008345F4D3C1E74D6F757319
:104FE0006520446174613A00F0B581B00446007BED
:104FF00040F21C654FF49276C2F2004510FB065059
:105000004FF49271FBF7AEF96FF01707002000F034
:1050100093FA217B11FB06711837B7F5847F294479
:105020008862F3D1204600F043F94AF6A616C0F68E
:105030000006304605F060F94AF61510C0F600008B
:1050400005F0D0FB4AF61015C0F60005284605F01D
:1050500053F9304605F050F9A068C16B6EA005F019
:105060004BF9284605F048F9304605F045F9A068A7
:10507000016C6CA005F040F9284605F03DF930467A
:1050800005F03AF9A068416C6AA005F035F92846A8
:1050900005F032F9304605F02FF9A068816C69A05F
:1050A00005F02AF9284605F027F9304605F024F9DD
:1050B000A068C16C67A005F01FF9284605F01CF92F
:1050C000304605F019F9A068016D66A005F014F9E5
:1050D000284605F011F9304605F00EF9A068816CFC
:1050E000C06C020C63A0C1F38331013105F004F9F7
:1050F000284605F001F9A068816C01F0180110291B
:1051000019D14FF6FF72C16CC0F23C12914226D801
:105110004AF6E100C0F6000005F0EEF84AF67A1013
:10512000C0F6000005F05EFB4AF61010C0F6000065
:1051300005F0E2F8FEE74AF6E100C0F6000005F0EF
:10514000DBF84AF63C10C0F6000005F04BFB4AF6CF
:105150001010C0F6000005F0CFF800BFFEE7816830
:1051600021F00101816001F09BFDA1688863204668
:10517000FEF75AFB2046FEF7EBFD322000F08CF9DB
:10518000A06800214FF0FF33C0F8001EA068D0F8DF
:10519000002422F00402C0F800244FF4A06200BFF3
:1051A00087182032B2F5D06FBB60F960F8D10021CA
:1051B00081614FF0FF3141613D2141623D21C0F2EB
:1051C000800181628031C0F800112046FEF784FB27
:1051D0002046FEF759FBA16805468A6822F01E02A8
:1051E0008A608A6842F00E028A608A6842F0200271
:1051F0008A60886940F00C50886101212046FEF7E2
:105200001FFBC82000F048F9A068816841F0010147
:105210008160284601B0F0BD4349443A25303878D2
:105220000D0A000047534E505349443A2530387810
:105230000D0A0000474857434647313A2530387831
:105240000D0A0000474857434647323A2530387820
:105250000D0A0000474857434647333A253038780F
:105260000D0A0000474857434647343A25303878FE
:105270000D0A000064776332206861732025642082
:105280006368616E6E656C7320616E64206466692C
:10529000666F2064657074682833322D62697420EB
:1052A000776F726473292069732025640D0A0000EA
:1052B00070B5B8B002ACC021204600253795CDE9C5
:1052C0003555CDE93355FBF74DF84FF4802002906A
:1052D00019200C90F0200D9002260520CDE90F0634
:1052E0004FF400102490204603950E96CDE91155F9
:1052F0001395FBF77DFB88BBFBF732FA44F2D844E9
:1053000033A9C5F60204A06840F00200A060A068BE
:1053100000F00200019001984FF44040CDE93306BF
:10532000032036900C20379040F200403595C5F6AA
:105330000200FBF771F82068002140F00070206047
:105340002068002200F00070019001984D20FBF7CA
:10535000CFF94D20FBF7C8F938B070BDFBF754F812
:1053600080B5EFF3058060B1EFF311804FF050018D
:1053700072B681F31188BFF36F8FBFF34F8F62B6A0
:1053800080BD03F0CDFD012080BD000000000000C5
:1053900080B503F0E9FD80BD80B5EFF3058111B163
:1053A00080F3118880BD03F0CFFD80BD00000000B8
:1053B00080B5FFF7A5FC80BD80B50421002204F074
:1053C000C3F880BD0000000080B582B000230193C7
:1053D000EFF30583B3B101AA04F016FB0138B0FA6C
:1053E00080F04FEA501122D1019800B34EF60450DC
:1053F0004FF08052CEF200000260BFF34F8FBFF338
:105400006F8F14E0531C0FBF4FF0FF324FF47A73CD
:105410005A4344F6D3531EBFC1F26203A2FB0323D7
:105420009A0904F059FA0138B0FA80F041096FF096
:105430000D00002918BF002002B080BD0000000050
:1054400080B582B0019100210091EFF30581A9B1EF
:1054500001A96A46002304F08BF9012814D10099B0
:1054600091B14EF604504FF08051CEF20000016031
:105470000120BFF34F8FBFF36F8F05E001A94FF0FD
:10548000FF32002304F0C0F8013818BF6FF00D00A0
:1054900002B080BD0000000080B54FF47A7148432F
:1054A00044F6D351C1F26201A0FB0101880903F067
:1054B0001FFE80BD0000000080B5012004F038F818
:1054C000002818BF80BD4AF6E100C0F6000004F0D5
:1054D00013FF05A005F086F94AF61010C0F600008B
:1054E00004F00AFFFEE700BF437265617465206D3A
:1054F00075746578206661696C65640D0000000054
:1055000080B503F0B5FD80BD80B5002100220023E9
:1055100004F07AF8013818BF6FF00D0080BD00006C
:1055200080B54FF0FF3104F0AFFA013818BF6FF0CB
:105530000D0080BD0000000080B50146012003F091
:10554000E3FF002818BF80BD4AF6E100C0F6000066
:1055500004F0D2FE05A005F045F94AF61010C0F699
:10556000000004F0C9FE00BFFEE700BF43726561A2
:1055700074652073656D6170686F7265206661691E
:105580006C65640D0000000080B503F071FD80BD06
:1055900080B582B000210191EFF3058199B101A995
:1055A00004F04EF9012813D1019989B14EF6045047
:1055B0004FF08051CEF2000001600120BFF34F8F09
:1055C000BFF36F8F04E000210022002304F01CF8D9
:1055D000013818BF6FF00D0002B080BD0000000060
:1055E00080B54FF47A7244F6D3534A43C1F2620352
:1055F000A2FB03234A1C18BF990904F045FA01389D
:1056000018BF6FF00D0080BDB0B584B01C460546D4
:10561000089B00200390C2F11F00C1F38F0200908D
:1056200003A801902046294604F00EFB03980028A9
:105630001CBF04B0B0BD4AF6E100C0F6000004F0A3
:105640005BFE06A0294604F057FE4AF61010C0F68D
:10565000000004F051FE00BFFEE700BF4372656129
:1056600074652074687265616420257320666169C1
:105670006C65640D0A00000080B503F055FD80BD27
:10568000F0B581B014201D4616460F46FFF738FBD3
:10569000F8B104464FF47A70784344F6D351C1F21E
:1056A000620143F29113A0FB0101266065600020B6
:1056B000A060069AC4E903008909C0F6000315A09A
:1056C0000093234604F0A8FD206190B1204601B06C
:1056D000F0BD4AF6E100C0F6000004F00DFE15A092
:1056E00005F080F84AF61010C0F6000004F004FE41
:1056F000FEE74AF6E100C0F6000004F0FDFD07A059
:1057000005F070F84AF61010C0F6000004F0F4FD41
:10571000FEE700BF7573625F74696D004372656177
:1057200074652074696D6572206661696C65640DCD
:1057300000000000437265617465207573625F6FDD
:1057400073616C5F74696D6572206661696C656414
:105750000D00000000000000B0B582B004460069F2
:105760000321002200230025009504F099FD206903
:10577000052100220023009504F092FD204603F04D
:10578000F3FB02B0B0BD0000B0B582B000250195BA
:10579000EFF305810469C9B104F0A2FA024601AB36
:1057A00006212046009504F07BFD012817D10198C1
:1057B000A8B14EF604504FF08051CEF200000160C7
:1057C000BFF34F8FBFF36F8F02B0B0BD04F080FA0C
:1057D0000246012100232046009504F061FD02B03D
:1057E000B0BD00000000000040F29031C2F2004164
:1057F0000A4609680029FBD110600021016070474A
:10580000B0B590F800E04FF0010C7246D1B202F052
:105810001F0501320CFA05F5C1F342137E2900EB96
:10582000830353F8044F88BF0222254205D08E45DA
:10583000ECD102704FF0FF30B0BD027045EA0400B9
:1058400018600846B0BD0000B0B540F218600024F2
:10585000C2F200400168CA070DD140F2182541F09C
:105860000101C2F2004501604FF4BC712846FAF70D
:1058700079FD6C732C462046B0BD0000000000008E
:1058800080B5417B1F290AD840F218630122C2F279
:10589000004302FA01F11A6822EA010119604FF48B
:1058A000BC71FAF75FFD80BD2DE9F04730B3D0F849
:1058B00000908246B9F1000F20D09AF817000D46EB
:1058C000D9F8588AF0B19AF817600AF11C04FF273A
:1058D000012E98BF012600BF54F8041C2846FAF791
:1058E0004CFD002808BF2778013E04F17404F3D171
:1058F000FF2F0AD16FF00200BDE8F0876FF00100C2
:10590000BDE8F087FF27FF2FF4D040F60130C8F83C
:105910000000F8B2A8F804000022484641460024DE
:10592000A8F8064000F068FE0646002823D44BF293
:105930004230C0F6000004F0DFFC15A0294604F058
:10594000DBFC4AF61010C0F6000004F0D5FCDAF8D3
:1059500000004FF4A27107FB01008AF8124090F991
:105960007000B0F1FF3F09DDDAF8080000281CBF25
:105970000020CAF808003046BDE8F087DAF80400D5
:105980000028F8D00020CAF804003046BDE8F087AF
:10599000436C6F736520617564696F207374726501
:1059A000616D203A25730D0A000000000000000020
:1059B0002DE9F04F99B00C460646FFF745FF002849
:1059C00000F0CF8005464FF4A27014FB00600194F4
:1059D0002E602C73D6F8547A0096C5633A780295F7
:1059E000002A00F0D38000240DF10C0C4FF01D0EA6
:1059F00000264FF000094FF0000B4FF000084FF069
:105A0000000A05E038783A5C0744002A00F0C580B7
:105A1000787804382128F5D8DFE800F01211111148
:105A20001111111611111111111111111111111161
:105A3000111111111111111111111111182EE1E78C
:105A4000BC7897F80390DDE7FE78DBE7287B84429B
:105A500027D1B8780138052800F2F181DFE810F08D
:105A600006003B004B00EF01EF015800B7F80300C0
:105A7000A882F879A875C5E7287B84427FF6C2AF73
:105A80008119A1427FF6BEAFB97801297FF4BAAF80
:105A9000C0437421204400FB0150F97880F82010A5
:105AA000B0E77FF6AFAF8119A1427FF6ABAFB9780F
:105AB00002293DD001297FF4A5AFC04374212044C1
:105AC00000FB015004773968D7F80320C0F82B1089
:105AD000C0F82E2096E75FFA8BF03A6800FB0EF1D3
