:020000040800F2
:10000000A81C0024AD020008E925000861240008AE
:10001000E125000819040008E13A0008000000008A
:100020000000000000000000000000007928000827
:10003000210400080000000031260008B128000853
:10004000C7020008C7020008C7020008C70200086C
:10005000C7020008C7020008C7020008C70200085C
:10006000C7020008C7020008C7020008C70200084C
:10007000C7020008C7020008C7020008C70200083C
:10008000C7020008C7020008C7020008C70200082C
:10009000C7020008C7020008C7020008C70200081C
:1000A000C7020008C7020008C7020008C70200080C
:1000B000C7020008C7020008C7020008C7020008FC
:1000C000C7020008C7020008C7020008C7020008EC
:1000D000C7020008C7020008C7020008C7020008DC
:1000E000C7020008C702000800000000C70200089D
:1000F000C7020008C7020008C7020008C7020008BC
:10010000C7020008C7020008C7020008C7020008AB
:10011000C7020008C7020008C7020008C70200089B
:10012000C7020008C7020008C7020008C70200088B
:10013000C7020008C7020008C7020008C70200087B
:1001400000000000000000000000000000000000AF
:10015000C7020008C7020008C7020008C70200085B
:10016000C7020008C7020008C7020008C70200084B
:10017000C7020008C7020008C7020008C70200083B
:10018000C7020008C7020008C7020008C70200082B
:10019000C7020008C7020008C7020008C70200081B
:1001A000C7020008C7020008C7020008C70200080B
:1001B000C7020008C7020008C7020008C7020008FB
:1001C000C7020008C7020008C7020008C7020008EB
:1001D000C702000821260008C7020008C70200085D
:1001E000C7020008C7020008C7020008C7020008CB
:1001F000C7020008C7020008C7020008C7020008BB
:10020000C7020008C7020008C7020008C7020008AA
:10021000C7020008C7020008C7020008C70200089A
:10022000C7020008C7020008C7020008000000005B
:10023000C7020008C702000800000000C70200084B
:10024000C7020008C7020008C7020008C70200086A
:10025000C7020008C7020008C7020008C70200085A
:10026000C7020008C7020008C7020008C70200084A
:10027000C7020008C7020008C7020008000000000B
:10028000C7020008C7020008C702000800000000FB
:1002900000000000C7020008DFF80CD000F08CF866
:1002A0000048004741440008A81C00240648804735
:1002B00006480047FEE7FEE7FEE7FEE7FEE7FEE74B
:1002C000FEE7FEE7FEE7FEE7C929000899020008FD
:1002D0002DE9F05F0546002092469B46884606467B
:1002E000814640241BE0284641464746224600F00E
:1002F00053F853465A46C01A914110D31146184636
:10030000224600F03AF82D1A67EB01084F462246C4
:100310000120002100F031F817EB00094E41201EAA
:10032000A4F10104DFDC484631462A464346BDE8D5
:10033000F09F40EA01039B0703D009E008C9121FA0
:1003400008C0042AFAD203E011F8013B00F8013B8F
:10035000521EF9D27047D2B201E000F8012B491EBB
:10036000FBD270470022F6E710B513460A46044652
:100370001946FFF7F0FF204610BD202A04DB203A83
:1003800000FA02F1002070479140C2F1200320FAE8
:1003900003F3194390407047202A04DB203A21FAE6
:1003A00002F00021704721FA02F3D040C2F120028E
:1003B0009140084319467047064C074D06E0E06837
:1003C00040F0010394E8070098471034AC42F6D39C
:1003D000FFF766FF786600089866000830B58C184D
:1003E00010F8012B12F00F0301D110F8013B120994
:1003F00006D110F8012B03E010F8015B01F8015B56
:100400005B1EF9D101E001F8013B521EFBD1A14274
:10041000E6D3002030BD0000FEE700000000000031
:100420007047000000000000EFF3108072B600BFBC
:10043000FEE7000000000000B0B5044600F0F0F850
:1004400040F21C010546C2F20041621C097818BF47
:100450000C4400BF00F0E4F8401BA042FAD3B0BD4A
:100460002DE9F04F83B00C68002C00F0C68000F13D
:10047000264242F2004702F1FF72C5F602074FEA38
:10048000B22201920A22B84208BF092200250027A1
:100490004FF0010A009209E00C68043734FA0AF2BE
:1004A0000AF1010A05F1020500F0A780AAF101098D
:1004B000012202FA09FE14EA0E08EDD0D1F804B0C8
:1004C0000BF00304A4F1010CBCF1010F11D80322BD
:1004D0008668AA40CB6826EA0202AB401A438260D3
:1004E000CBF30013426822EA0E0203FA09F31A431F
:1004F0004260032C1ED00323C268AB40022C22EAC8
:1005000003028B6803FA05F342EA0302C26011D1C9
:100510006FF0030207F01C0602EA59020F2302449F
:1005200003FA06F4D2F820C00B692CEA0404B340A5
:100530002343136203230268AB404E689A4306F0DC
:100540000303AB4016F4403F42EA03020260A3D02B
:1005500044F2F44340F2084EC5F60203C5F6000E1D
:100560001A6842F002021A601A6807F00C0302F0DF
:1005700002020292029A29F00302019C009E092CB9
:1005800038BF26460F2452F80EC09C402CEA0404C3
:1005900006FA03F34FF0B04C234342F80E30DCF878
:1005A00000204B6842EA0806DC0258BF22EA08062F
:1005B0009C02CCF8006040F2040CC5F6000CDCF89C
:1005C000002042EA080658BF22EA08069C03CCF83D
:1005D0000060DCF8802042EA080658BF22EA0806DC
:1005E000DB03CCF88060DCF87C2042EA080658BFC8
:1005F00022EA0806CCF87C604EE703B0BDE8F08F35
:10060000002A08BF09048161704700000000000053
:1006100041F20000C5F600400068000C7047000081
:1006200041F6A400C2F200400068704700000000DC
:1006300040F21C0041F6A401C2F20040C2F20041A7
:1006400000780A681044086070470000000000004D
:1006500080B5032000F0D0F801F0CEF944F2184143
:1006600046F2C833C5F60201C0F600030A680968FD
:1006700001F00F01C2F30322595C9A5C01F01F01E3
:1006800002F01F02D04040F20802C2F2004220FAFB
:1006900001F1116040F20401C2F2004108600F2034
:1006A00000F00AF800281CBF012080BD00F080F88F
:1006B000002080BD00000000B0B540F21C01C2F275
:1006C0000041097801B3044640F20400C2F2004040
:1006D0004FF47A72B2FBF1F10068B0FBF1F001F077
:1006E00053FD0F2C4FF001050CD858B94FF0FF30D7
:1006F00000222146002500F06FF840F22000C2F2EF
:10070000004004602846B0BD0120B0BD00000000DC
:10071000B0B502784EF69C5CCEF2000C43784CF8F3
:10072000043CF2B14368CCF80030037BC17A90F806
:100730000AE0457B447A42EA0372837B42EA016124
:10074000C27B41EACE41007A41EA854141EA434118
:1007500041EA024141EA042141EA4000CCF80400A8
:10076000B0BD0020CCF80000CCF80400B0BD000003
:100770004EF62450CEF20000BFF35F8F016821F4E3
:100780008031016000210167704700000000000017
:100790004EF6245140F00100CEF2000108670868CF
:1007A00040F480300860BFF34F8FBFF36F8F704706
:1007B00081B044F2F440C5F60200016841F0020144
:1007C0000160006800F002000090009801B07047DE
:1007D00080B503F089F980BD70B514460D46064614
:1007E00003F092F92946224601F002FF0146304605
:1007F00003F092F970BD000080B503F0A1F980BD4F
:1008000001680122C0F80025002280F8F4248869DC
:1008100040F000608861486D40F08052002042F056
:1008200003024A65704700002DE9F04F8BB00028A5
:1008300000F087800446056890F8BD0428B90020C0
:1008400084F8BC04204600F093F8032084F8BD042B
:10085000E86BC00501D40020E060206803F0A8F830
:1008600020680A9004F1040E04F11C0AD4E90C502B
:100870009EE80E589AE8C007CDE9085003A88DE815
:10088000005880E8C0070A9802F062FF002855D19E
:1008900020680021002503F0E7F86168C1B16168B4
:1008A00001200023002200BF03EBC30304EB8307F6
:1008B000D3B287F83C200132A7F85630D3B287F87C
:1008C0003D00994287F840507D64BD64FD64EBD8DB
:1008D000B1B100200023002203EBC30304EB830724
:1008E00087F87C220132D3B287F87D02994287F8DB
:1008F0008002C7F88402C7F88802C7F88C02EBD8D8
:1009000004F1140E04F1240A2268A0680A90D4E9C4
:1009100003379EE840589AE80007D4E90C50CDE927
:10092000085002A8CDE9007680E8005805A880E8C4
:10093000000710460A9A02F08BFF30B1022084F8BB
:10094000BD0401200BB0BDE8F08F002084F8380012
:10095000012084F8BD04606A012802D12046FFF717
:100960004FFF206802F064FF00200BB0BDE8F08F5D
:10097000B0B5B8B0044602A8C0210025CDE936556F
:10098000CDE934553395FFF7EDFC00212068C4F222
:100990000801884201D038B0B0BD4FF480200290E9
:1009A0004FF44010249002A8039500F0A1F908B17B
:1009B000FFF73AFD00F054F844F2D84433A9C5F6E5
:1009C0000204A06840F00100A060A06800F00100EF
:1009D000019001984FF4C0503390022034900020D1
:1009E000CDE935000A2037900020C5F60200FFF758
:1009F00037FD2068002140F0006020602068002260
:100A000000F00060019001986520FFF7E5FE652089
:100A1000FFF7DEFE38B0B0BDB0B544F60C05C5F644
:100A2000020529684907296805D401F00701081A59
:100A300018BF0120B0BD21F0070108432860FFF76F
:100A4000EFFD044655F8080C800407D4FFF7E8FDD5
:100A5000001BB0F57A7FF5D90120B0BD0020B0BDF4
:100A600044F60C00C5F60200016841F08071016097
:100A7000704700000000000080B500F06DFF44F2F8
:100A8000204146F2C832C5F60201C0F600020968EC
:100A9000C1F30211515C01F01F01C84080BD00008C
:100AA00080B544F2384EC5F6020E5EF8103C5EF892
:100AB000101CC1F3053C5EF80C1CBCF1000FDEF805
:100AC000042014D0C1F30011C2F3CC02514300EE54
:100AD000101A03F003010229B8EE400A0CD071B9D4
:100AE0005EF8381C89060DD49FED341A18E00021F9
:100AF0008160C0E9001180BD9FED2F1A10E09FEDCD
:100B00002D1A0DE05EF8381C49F20002C0F2D03216
:100B1000C1F3C10122FA01F101EE101AB8EE411A37
:100B2000DEF800109FED263A6FF35F2102EE101AF7
:100B3000DEF80010C1F34621B8EE422A00EE032A87
:100B400000EE10CAB7EE003AB8EE400A81EE000A95
:100B500032EE031A02EE101AB8EE422A20EE010A13
:100B600032EE031A80EE011ABCEEC11A80ED001AB3
:100B7000DEF80010C1F3064101EE101AB8EE411A7A
:100B800031EE031A80EE011ABCEEC11A80ED011A93
:100B9000DEF80010C1F3066101EE101AB8EE411A3A
:100BA00031EE031A80EE010ABCEEC00A10EE101AF4
:100BB000816080BD0024744A20BCBE4B0024744C6C
:100BC000000000390000000080B544F2404EC5F638
:100BD000020E5EF8183C5EF8181CC1F3055C5EF866
:100BE000141CBCF1000FDEF8042014D0C1F3002166
:100BF000C2F3CC02514300EE101A03F003010229A4
:100C0000B8EE400A0CD071B95EF8401C89060DD4CC
:100C10009FED341A18E000218160C0E9001180BD09
:100C20009FED2F1A10E09FED2D1A0DE05EF8401C8D
:100C300049F20002C0F2D032C1F3C10122FA01F13F
:100C400001EE101AB8EE411ADEF800109FED263AB8
:100C50006FF35F2102EE101ADEF80010C1F3462197
:100C6000B8EE422A00EE032A00EE10CAB7EE003AB0
:100C7000B8EE400A81EE000A32EE031A02EE101AB4
:100C8000B8EE422A20EE010A32EE031A80EE011A73
:100C9000BCEEC11A80ED001ADEF80010C1F3064167
:100CA00001EE101AB8EE411A31EE031A80EE011A65
:100CB000BCEEC11A80ED011ADEF80010C1F3066126
:100CC00001EE101AB8EE411A31EE031A80EE010A55
:100CD000BCEEC00A10EE101A816080BD0024744A78
:100CE00020BCBE4B0024744C000000390000000002
:100CF0002DE9F04381B00446C07844F22C49000746
:100D0000C5F6020901D400252EE0A06E4FEA30504E
:100D100003280DD80025DFE800F0020E1714D9F8DB
:100D20000000002540F40030C9F8000055B913E078
:100D300001253DB910E004F10800022101F07CFC1E
:100D400005464DB1A84611E004F12800022101F04A
:100D500003FD0546002DF5D1D9F82400A16E20F43D
:100D600040100843C9F824004FF000086078C0071D
:100D700030D0A06D042807D8DFE800F00A131C0368
:100D80000300FDB1A84625E00125002DFAD119E0A8
:100D9000D9F8000040F40030C9F80000002DF1D16E
:100DA00010E004F10800002101F046FC0546002D8A
:100DB000E8D107E004F12800002101F0CDFC054650
:100DC000002DDFD1D9F82400A16D20F007000843E1
:100DD000C9F824006078800732D5E06D4FEAB01082
:100DE000042807D8DFE800F00A131C030300FDB154
:100DF000A84625E00125002DFAD119E0D9F8000018
:100E000040F40030C9F80000002DF1D110E004F1E9
:100E10000800002101F010FC0546002DE8D107E094
:100E200004F12800002101F097FC0546002DDFD1D8
:100E3000D9F82400E16D20F4E0700843C9F82400DB
:100E40006078400734D5D4F8A8004FEA70500428E1
:100E500007D8DFE800F00A131C030300FDB1A84621
:100E600026E00125002DFAD119E0D9F8000040F460
:100E70000030C9F80000002DF1D110E004F10800A5
:100E8000002101F0D9FB0546002DE8D107E004F16F
:100E90002800002101F060FC0546002DDFD1D9F8C3
:100EA0002C00D4F8A81020F460000843C9F82C00E6
:100EB0006078000734D5D4F8AC004FEA30600428DD
:100EC00007D8DFE800F00A131C030300FDB1A846B1
:100ED00026E00125002DFAD119E0D9F8000040F4F0
:100EE0000030C9F80000002DF1D110E004F1080035
:100EF000002101F0A1FB0546002DE8D107E004F137
:100F00002800002101F028FC0546002DDFD1D9F88A
:100F10002C00D4F8AC1020F0E0600843C9F82C0095
:100F2000E078800728D5E06C4FEA3010032806D817
:100F3000DFE800F002091202B5B1A8461CE0012565
:100F4000002DFAD110E0D9F8000040F40030C9F8C3
:100F50000000002DF1D107E004F10800022101F0AA
:100F60006BFB0546002DE8D1D9F82000E16C20F09C
:100F700030000843C9F820006078C00632D5206EE2
:100F80004FEA3030042807D8DFE800F00A131C03CA
:100F90000300FDB1A84625E00125002DFAD119E096
:100FA000D9F8000040F40030C9F80000002DF1D15C
:100FB00010E004F10800002101F03EFB0546002D81
:100FC000E8D107E004F12800002101F0C5FB054647
:100FD000002DDFD1D9F82400216E20F4E040084331
:100FE000C9F824006078800626D5606E4FEA30404C
:100FF000052807D8DFE800F0030A100303039DB1BA
:10100000A84619E00125002DFAD10DE004F10800F1
:10101000012101F011FB04E004F12800012101F09D
:101020009BFB0546002DEBD1D9F82400616E20F41E
:10103000E0200843C9F824006078400628D5D4F899
:10104000B0004FEA3070052807D8DFE800F0030A47
:10105000100303039DB1A8461AE00125002DFAD123
:101060000DE004F10800012101F0E6FA04E004F1CA
:101070002800012101F070FB0546002DEBD1D9F8C5
:101080002C00D4F8B01020F0E0400843C9F82C0040
:101090006078000620D5206FD8B1B0F1005F12D083
:1010A000B0F1805F25D1D9F8000040F40030C9F8D4
:1010B000000085B9D9F82400216F20F04050084382
:1010C000C9F8240008E004F10800012101F0B4FA95
:1010D0000546002DEED0A846E078C0072AD0A06CC7
:1010E00003280AD8DFE800F0020D1602D5B1A846A1
:1010F00020E00125002DEED1DCE70125002DF6D101
:1011000010E0D9F8000040F40030C9F80000002DCC
:10111000EDD107E004F10800022101F08DFA054647
:10112000002DE4D1D9F82000A16C20F00300084381
:10113000C9F82000A078400642D5D9F8D40340F47D
:101140008070C9F8D403FFF76BFA0646D9F8D403C8
:10115000C00505D4FFF764FA801B6528F6D3032584
:101160006DBBD9F84410D4F8B400414011F4407F6D
:1011700011D0D9F84410D9F8442042F48032C9F88B
:101180004420D9F8442021F4407122F48032C9F877
:101190004420C9F84410B0F5807F0FD1FFF740FA22
:1011A000064641F2893700BFD9F84400800705D4CC
:1011B000FFF736FA801BB842F6D3032585B1A8465F
:1011C0002078C00742D0E06F4FEAF000052823D80E
:1011D000DFE800F003262C0303037DB3A84635E0C7
:1011E0004FF6CF73D4F8B40059F81C2CC0F2FF03AB
:1011F00000F4407122F47C5203EA1013B1F5407FF1
:1012000008BF1A436FF31F3049F81C2CD9F844105B
:101210000843C9F84400D3E70125002DDED10DE0D5
:1012200004F10800012101F007FA04E004F12800AC
:10123000012101F091FA0546002DCFD1D9F82800FF
:10124000E16F20F038000843C9F8280020788007B3
:1012500024D5A06F052807D8DFE800F0030A1003A3
:1012600003039DB1A84619E00125002DFAD10DE038
:1012700004F10800012101F0DFF904E004F1280085
:10128000012101F069FA0546002DEBD1D9F82800BB
:10129000A16F20F007000843C9F828002078400714
:1012A00026D5D4F89400052807D8DFE800F0030A13
:1012B000100303039DB1A8461AE00125002DFAD1C1
:1012C0000DE004F10800012101F0B6F904E004F199
:1012D0002800012101F040FA0546002DEBD1D9F894
:1012E0002C00D4F8941020F007000843C9F82C0013
:1012F0002078800628D5D4F890004FEA3070052871
:1013000007D8DFE800F0030A100303039DB1A846E5
:101310001AE00125002DFAD10DE004F108000021AA
:1013200001F08AF904E004F12800022101F014FA26
:101330000546002DEBD1D9F82800D4F8901020F004
:10134000E0400843C9F828002078400628D5D4F8A2
:101350009C004FEAB020052807D8DFE800F0030A18
:10136000100303039DB1A8461AE00125002DFAD110
:101370000DE004F10800002101F05EF904E004F141
:101380002800022101F0E8F90546002DEBD1D9F83B
:101390002C00D4F89C1020F4E0500843C9F82C002D
:1013A0002078000628D5D4F8A0004FEA7030052830
:1013B00007D8DFE800F0030A100303039DB1A84635
:1013C0001AE00125002DFAD10DE004F108000021FA
:1013D00001F032F904E004F12800022101F0BCF927
:1013E0000546002DEBD1D9F82C00D4F8A01020F43C
:1013F00060400843C9F82C002078000716D5D4F8BF
:101400008400B0F5805F08D104F12800022101F0CA
:10141000A3F9002818BF4FF00108D9F82800D4F824
:10142000841020F440500843C9F828002078C006F2
:1014300016D5D4F89800B0F5807F08D104F12800C3
:10144000022101F089F9002818BF4FF00108D9F8EE
:101450002C00D4F8981020F440700843C9F82C00F0
:10146000A078000722D5D4F8A400B0F5003F1AD028
:10147000B0F5803F11D0C8BB04F10800002101F095
:10148000DBF805468DB9D9F82C00D4F8A41020F467
:1014900040300843C9F82C0008E004F1280002217C
:1014A00001F05AF90546002DEDD0A846A078400776
:1014B00029D5D4F88800B0F5401F21D0B0F5001F21
:1014C00018D0B0F5801F40F0BF80D9F8000040F47C
:1014D0000030C9F80000ADB9D9F82800D4F8881058
:1014E00020F440100843C9F828000CE00125002D25
:1014F000DBD1C8E704F12800012101F02DF90546F0
:10150000002DE9D0A846A078C00720D0206DB0F506
:10151000803F10D0B8B9D9F8000040F40030C9F8C5
:1015200000009DB9D9F82000216D20F480300843D7
:10153000C9F820000BE004F10800022101F07CF85A
:1015400005461DB9EEE70125002DEBD0A846E07851
:10155000800608D504F12800022101F0FDF80028DA
:1015600018BF4FF00108D4E900108A037BD5D4F8E6
:1015700080206FF0010303EB3223022B0AD34FEAE2
:1015800032233BB1012B64D1D9F8003043F400334E
:10159000C9F80030002D5FD0CA0267D4CA006FD4EA
:1015A0008A0279D44A0000F18280B1F1FF3F40F312
:1015B0008F80090200F19780C00707D004F108006E
:1015C000002101F039F8002818BF0546207980076E
:1015D00007D504F10800012101F02EF8002818BFFA
:1015E00005462079400707D504F10800022101F0E3
:1015F00023F8002818BF05462079000707D504F115
:101600002800002101F0A8F8002818BF054620791D
:10161000C00607D504F12800012101F09DF800283B
:1016200018BF05462079800607D504F1280002215D
:1016300001F092F8002818BF0125002D18BF0125E0
:10164000284601B0BDE8F0830125002D7FF45AAF94
:1016500042E70125002D9FD1D9F8283023F44073AB
:101660001A43C9F828204546CA0297D5D9F824203C
:10167000636F22F000421A43C9F82420CA008FD5B4
:1016800059F81C2CD4F8B83022F480421A4349F897
:101690001C2C8A027FF586AFD9F82420E36E22F055
:1016A00080721A43C9F824204A007FF57EAF59F8AA
:1016B0001C2C22F4004249F81C2CD4F8BC2059F808
:1016C0001C3C1A4349F81C2CB1F1FF3F3FF771AFA6
:1016D000D9F82020636D22F040521A43C9F8202027
:1016E00009027FF569AFD9F82810D4F88C2021F4CD
:1016F00040011143C9F82810C0077FF45FAF65E7C8
:101700002DE9F04381B0002800F0F48042F2000897
:101710000446C5F200288946D8F8000000F00F0002
:1017200088420ED2D8F8000020F00F0040EA0900ED
:10173000C8F80000D8F8000000F00F00484540F05D
:10174000D980206844F218474107C5F602070AD538
:1017500021693A6802F07002914204D93A6822F095
:1017600070021143396001070AD561697A6802F095
:101770007002914204D97A6822F0700211437960B4
:10178000C1060AD5A1697A6802F4E062914204D9DF
:101790007A6822F4E0621143796081060AD5E16932
:1017A000BA6802F07002914204D9BA6822F070025D
:1017B0001143B96081070AD5E1683A6802F00F0267
:1017C000914204D93A6822F00F0211433960C007F0
:1017D0007ED1206881070AD5E1683A6802F00F02DD
:1017E000914204D23A6822F00F0211433960D8F8CE
:1017F000001001F00F0149450DD9D8F8001021F073
:101800000F0141EA0901C8F80010D8F8001001F0F2
:101810000F0149456ED141070AD521693A6802F0A6
:101820007002914204D23A6822F07002114339608A
:1018300001070AD561697A6802F07002914204D208
:101840007A6822F0700211437960C1060AD5A16955
:101850007A6802F4E062914204D27A6822F4E0628B
:101860001143796080060AD5E069B96801F070011A
:10187000884204D2B96821F070010843B86000F0D2
:10188000BBF8396846F2C832C0F600023B68C1F3C3
:10189000032103F00F03515CD25C01F01F01C8402B
:1018A00002F01F0140F2080220FA01F1C2F20042E8
:1018B000116040F2040140F22002C2F20041C2F283
:1018C000004208601068FEF7F7FE01B0BDE8F08343
:1018D000386820F47061D4E90102012841EA02016C
:1018E00039600BD003282BD002282ED157F8181CB2
:1018F000890307D4012001B0BDE8F08357F8181C14
:10190000C905F7D557F8081C21F00701084347F827
:10191000080CFEF785FE064641F2883557F8080C9C
:10192000616800F03800B0EBC10F3FF452AFFEF732
:1019300077FE801BA842F1D9032001B0BDE8F083F7
:1019400057F8181C8901D5D5DCE757F8181C49074A
:10195000D0D5D7E70000000080B500F04DF844F284
:10196000184146F2C833C5F60201C0F600030A6802
:10197000096801F00F01C2F30322595C9A5C02F07E
:101980001F0220FA02F201F01F0040F2080122FAC1
:1019900000F0C2F20041086040F20401C2F20041CE
:1019A0000A6080BD0000000080B5FFF7D5FF44F25B
:1019B0001C4146F2C832C5F60201C0F600020968B1
:1019C000C1F30211515C01F01F01C84080BD00004D
:1019D00080B5FFF7C1FF44F21C4146F2C832C5F69C
:1019E0000201C0F600020968C1F30221515C01F056
:1019F0001F01C84080BD000044F20041C5F602014D
:101A00000869C0F3C20003280FD002282AD070BB97
:101A10000868800649F20000C0F2D03058BF704715
:101A20000968C1F3C101C84070478A6A886AC0F377
:101A3000051CC86ABCF1000F4B6B1DD0C3F3CC036F
:101A400000F00100584302F00302022A00EE100ADF
:101A5000B8EE400A12D0A2B90868800614D49FEDEF
:101A6000261A1EE047F64000C0F27D10704740F68F
:101A70000010C0F23D007047002070479FED1D1A16
:101A80000FE09FED1B1A0CE0086849F20002C0F25B
:101A9000D032C0F3C10022FA00F001EE100AB8EE15
:101AA000411A086B9FED153A6FF35F2002EE100AA2
:101AB000086BC0F34620B8EE422A013000EE032A3C
:101AC00000EE10CAB7EE003AB8EE400A81EE000A06
:101AD00032EE031A20EE010A01EE100AB8EE411AA6
:101AE00080EE010ABCEEC00A10EE100A704700BF7B
:101AF0000024744A20BCBE4B0024744C0000003902
:101B00002DE9F04381B0F8B18046007844F20049F5
:101B1000C007C5F602095AD0D9F8100000F0380104
:101B2000D9F82800102905D018290FD100F003009A
:101B300002280BD1D9F80000800344D5D8F804005E
:101B4000002840D101272FE0012718E3D8F80440EE
:101B50002CB1B4F5A02F0DD0B4F5803F10D0D9F83A
:101B6000000020F48030C9F80000D9F8000020F40B
:101B7000802009E0D9F8000040F48020C9F8000076
:101B8000D9F8000040F48030C9F80000FEF748FDA5
:101B90000546A4B1D9F80000800314D4FEF740FD37
:101BA000401B6428F6D903270020002800F0E782B4
:101BB0000DE000BFFEF734FD401B6428F3D8D9F8D0
:101BC00000008003F6D40120002800F0D88298F8A5
:101BD0000000800740F18480D9F8100010F038012F
:101BE000D9F828001CD0182908BF5FEA807017D0E8
:101BF000D8F80C00D9F80010002847D021F01901BE
:101C00000843C9F80000FEF70BFD0546D9F80000AF
:101C100040072AD4FEF704FD401B0228F6D91EE037
:101C2000D9F80000400704D5D8F80C00002800F0CF
:101C30009681D9F80000D8F80C1020F0190008435C
:101C4000C9F80000FEF7ECFC054600BFD9F800001B
:101C500040070AD4FEF7E4FC401B0228F6D903270C
:101C60000024002C00F08B823AE0FEF7D1FC41F218
:101C70000301884223D8D8F81000D9F8041040286E
:101C800021F47C3124D141F4003023E021F0010023
:101C9000C9F80000FEF7C4FC05460126D9F800008B
:101CA00010F0040086EA900417D0FEF7B9FC401B40
:101CB0000328F3D30327002C00F0618210E0D9F849
:101CC0000400D8F8101020F0FE4040EA016001E066
:101CD00041EA0030C9F804000124002C00F04F82D2
:101CE00098F80000C00674D5D9F8100000F038014B
:101CF000D9F82800082905D018291CD100F00300C4
:101D0000012818D1D9F80000C00503D5D8F81C0067
:101D1000802859D1FEF77CFC41F20301884222D889
:101D2000D8F82000D9F80410202821F0F84142D139
:101D300041F0804041E0D8F81C000028D9F80000AC
:101D400020D040F08000C9F80000FEF769FC05468D
:101D5000D9F80000C005DDD4FEF762FC401B022864
:101D6000F6D9032731E0D9F80C00D8F8201020F07C
:101D70007C50012440EA0160C9F80C00002C00F0FE
:101D8000FE8126E020F08000C9F80000FEF748FC44
:101D900005460126D9F8000010F4807086EA102468
:101DA0000ED0FEF73DFC401B0328F3D30327002C85
:101DB00000F0E5810DE041EA8060C9F804000124EB
:101DC000002C00F0DC8104E001270024002C00F04E
:101DD000D68198F8000000071CD498F8000080060F
:101DE00031D498F80000400745D4D8F82440002C9E
:101DF00000F09180D9F8100000F03800182840F069
:101E00008C80012CD9F82810D9F8300040F0A98036
:101E10000127B4E1D8F814000028D9F874003ED0A6
:101E200040F00100C9F87400FEF7FAFB054600BF58
:101E3000D9F874008007D0D4FEF7F2FB401B0228CB
:101E4000F6D903279BE1D8F818000028D9F800003C
:101E50004DD040F48050C9F80000FEF7E1FB054684
:101E6000D9F800008004BCD4FEF7DAFB401B02283E
:101E7000F6D9032783E1D9F8000440F48070C9F84B
:101E80000004FEF7CDFB0546D9F80004C0051AD4BE
:101E9000FEF7C6FB401B6428F6D903276FE120F04C
:101EA0000100C9F87400FEF7BBFB0546032700BF1D
:101EB000D9F8740080077FF590AFFEF7B1FB401BA7
:101EC0000228F5D95BE1D8F808402CB1052C00F0C8
:101ED0008280012C00F08580D9F8700020F001008C
:101EE000C9F87000D9F8700020F004007DE020F4FB
:101EF0008050C9F80000FEF793FB0546032700BF9A
:101F0000D9F8000080047FF56CAFFEF789FB401B19
:101F10000228F5D933E1002731E1D9F8000020F09B
:101F20008070C9F80000FEF77BFB022C05464FF0DD
:101F3000030709D1D9F80000800178D5FEF770FBBE
:101F4000401B0228F6D91AE1D9F80000800140F1BF
:101F5000E780FEF765FB401B0228F5D90FE101275A
:101F60007EE601F00302D8F828309A4240F0DA8089
:101F7000C1F30511D8F82C20914240F0D7800146DA
:101F8000D8F830206FF35F21013A914240F0D080C1
:101F9000C0F34622D8F8341001398A4240F0CA8092
:101FA000C0F30642D8F8381001398A4240F0C480A4
:101FB000C0F30660D8F83C100139884240F0BE807A
:101FC000D9F83400D8F84810C0F3CC00814240F072
:101FD000B7800027D3E0D9F8700040F00400C9F8BA
:101FE0007000D9F8700040F00100C9F87000FEF7E9
:101FF00017FB002C054641F288344FF0030711D03F
:10200000D9F8700080073FF5F0AEFEF709FB401BE2
:10201000A042F5D9B3E000BFFEF702FB401BA0428F
:1020200000F2AD80D9F870008007F5D4DDE608F144
:102030002807D9F8280040F2F33188438ECF0843AF
:10204000591E40EA02104FF47E426FF35F21C9F837
:10205000280002EB47204FF4FE0280B2D8F83C3053
:102060000844D8F8381002EB01414FF0FE4201F469
:10207000FE0102EB0362084402F0FE410844C9F885
:102080003000D9F82C004FF6F87120F00100C9F8A3
:102090002C00D9F83400D8F84820884340EAC20020
:1020A000C9F83400D9F82C00D8F8401020F00C0002
:1020B0000843C9F82C00D9F82C00D8F8441020F0B7
:1020C00002000843C9F82C00D9F82C0040F48030F5
:1020D000C9F82C00D9F82C0040F40030C9F82C00C5
:1020E000D9F82C0040F48020C9F82C00D9F82C0035
:1020F00040F00100C9F82C00D9F8000040F08070D1
:10210000C9F80000FEF78CFA04460327D9F800004E
:10211000800109D4FEF784FA001B0228F6D92EE0CC
:1021200000272CE001272AE0002728E0012726E0ED
:10213000012724E0012722E0012720E001271EE0FB
:10214000D9F82C0020F00100C9F82C00FEF768FA3D
:102150000546FEF765FAA842FBD0D9F834004FF6E1
:10216000F871D8F848208843002740EAC200C9F82F
:102170003400D9F82C0040F00100C9F82C00F8B266
:1021800001B0BDE8F083000080B500F079FB80BDB0
:1021900090F88410012901D1022070472421C0F851
:1021A000881002681368116823F0005321F00101C0
:1021B00011600021416613602022C0F8882080F859
:1021C0008410084670470000B0B5044690F88400BB
:1021D000012801D10220B0BD012084F88400242010
:1021E000C4F8880020680568026822F001020260D5
:1021F000826822F0606211438160204600F04CFC4E
:10220000206805602020C4F88800002084F884003D
:10221000B0BD000000000000B0B5044690F8840096
:10222000012801D10220B0BD012084F884002420BF
:10223000C4F8880020680568026822F00102026084
:10224000826822F0604211438160204600F024FC45
:10225000206805602020C4F88800002084F88400ED
:10226000B0BD00000000000010B5B0B10446D0F8C9
:10227000880028B9002084F88400204600F028F85F
:102280002420C4F888002068016821F00101016061
:10229000204600F029FD012801D1012010BDA06ACF
:1022A00010B1204600F024FC2068416821F49041E0
:1022B0004160816821F02A018160016841F00101DB
:1022C0000160204600F084FC10BD0000000000000A
:1022D0002DE9F041B8B0044602A8C0210025CDE99F
:1022E0003655CDE934553395FEF73CF841F20001FF
:1022F0002068C4F20101884202D038B0BDE8F08104
:102300000120029002A803952195FEF7F1FC08B187
:10231000FEF78AF844F2E0400024C5F60200C5F654
:10232000020433AD4FF002080169002741F01001AB
:1023300001610169072601F010010191019901680D
:1023400041F002010160016801F00201019101996F
:10235000016841F0010101600068294600F00100B8
:10236000019001988020339004F58060CDF8D080F2
:10237000CDE935773796FEF773F84FF400702946AC
:10238000CDE9330820463796CDE93577FEF768F872
:1023900038B0BDE8F08100002DE9F04182B004467C
:1023A000D0F8880020283FD10E4600294FF00100C8
:1023B0004BD01746002A48D01D464FF00008C4F8FD
:1023C00090802120C4F88800FEF72AF9A4F8547000
:1023D000A4F856700746A168B1F5805F0FD1206957
:1023E000002814BF3046B046064608E0206816F8BC
:1023F000011B8162B4F856000138A4F85600B4F805
:102400005600A8B18021002220463B46009500F0EE
:102410002FFFE8B9002EE9D138F8020B2168002619
:102420006FF35F208862E5E7022002B0BDE8F0812B
:102430004021002220463B46009500F019FF202154
:102440000028C4F8881018BF032002B0BDE8F0814E
:102450002020C4F88800032002B0BDE8F08100000D
:10246000FEE700000000000010B584B00024CDE9B4
:102470000244CDE90044FEF77BF90120ADF80000ED
:1024800048F21F70029040F20110039068460194D8
:10249000FEF73EF90420FEF77BF904B010BD000002
:1024A00070B586B044F2E0400025C5F602000595FF
:1024B000CDE90355CDE90155016840F6000441F02E
:1024C000010101600168C5F6020401F001010091FB
:1024D0000099016841F0020101600168002201F0E9
:1024E000020100910099016841F004010160016856
:1024F0004FF4005601F0040100910099016841F089
:102500008001016000684FF4005100F080000090ED
:1025100000982046FEF774F8012001A9CDE90205D4
:10252000204601960495FDF79BFF06B070BD0000A4
:1025300080B541F2D87041F20001C2F20040C4F20D
:102540000101082201604FF4E13141600021C0E93E
:1025500002110161C0E90521C0E90711C0E90911B3
:10256000FFF782FEC0B941F2D8700021C2F20040EC
:10257000FFF752FE80B941F2D8700021C2F200404C
:10258000FFF722FE40B941F2D870C2F20040FFF7D7
:10259000FFFD002808BF80BDFDF746FF00000000DA
:1025A00080B541F2CC200021C2F20040C4F2080103
:1025B00002220160092141600021C1600261C0E97D
:1025C0000621C0E90811C0E90A110163FEF72CF9E0
:1025D000002808BF80BDFDF727FF000000000000B5
:1025E000FEE7000000000000FEE700000000000021
:1025F00000F007004FF0FF3C80F00703042B28BFDA
:102600000423033838BF00200CFA03F399430CFA73
:1026100000F301FA00F022EA0301084370470000CA
:1026200080B5002000F084FE80BD000000000000A6
:102630007047000000000000F0B581B044F22C4764
:10264000C5F6020757F8042C02F00302032A02D150
:10265000012001B0F0BD054657F82C0C0C4620F0C7
:10266000806047F82C0CFDF7DBFF064657F82C0C72
:10267000000105D5FDF7D4FF801B0228F6D964E0E0
:1026800057F8040CEE6895E80E0020F47C30012C1D
:1026900040EA0130A2F101016FF35F214FF47E4265
:1026A00002EB432247F8040C92B24FF0FE4302EBD8
:1026B00001004FF4FE012A6901EB064101F4FE011D
:1026C00003EB0262084402F0FE410844F8603868F7
:1026D000696920F0C00040EA010038603868A969E3
:1026E00020F0200040EA0100386038684FF6F871A9
:1026F00020F0100038603869EA6920EA01004FF4E0
:10270000001140EAC2003861386808BF4FF48011F8
:1027100040F01000002C386008BF4FF400213868EA
:102720000843386057F82C0C40F0806047F82C0CB8
:10273000FDF776FF044600BF57F82C0C000107D4C4
:10274000FDF76EFF001B0328F6D3032001B0F0BD98
:10275000002001B0F0BD0000F0B581B044F22C477C
:10276000C5F6020757F8042C02F00302032A02D12F
:10277000012001B0F0BD054657F82C0C0C4620F0A6
:10278000805047F82C0CFDF74BFF064657F82C0CF1
:10279000800005D5FDF744FF801B0228F6D964E0D0
:1027A00057F8040CEE6895E80E0020F07C70012CC0
:1027B00040EA0150A2F101016FF35F214FF47E4224
:1027C00002EB432247F8040C92B24FF0FE4302EBB7
:1027D00001004FF4FE012A6901EB064101F4FE01FC
:1027E00003EB0262084402F0FE4108447861386855
:1027F000696920F4406040EA010038603868A969DE
:1028000020F4007040EA0100386038684FF6F87133
:1028100020F480703860B869EA6920EA01004FF05E
:10282000807140EAC200B861386808BF4FF4000107
:1028300040F48070002C386008BF4FF48001386885
:102840000843386057F82C0C40F0805047F82C0CA7
:10285000FDF7E6FE044600BF57F82C0C800007D4B5
:10286000FDF7DEFE001B0328F6D3032001B0F0BD08
:10287000002001B0F0BD0000704700000000000023
:10288000B0B501380024B4EB106F01D00120B0BD09
:102890004EF210050F21CEF2000568604FF0FF30B8
:1028A00001F03AF9AC60072028602046B0BD000076
:1028B00080B5FDF7BDFE80BD70B59CB044F6180430
:1028C00040F22C4509A84C21C5F60204C5F60005C6
:1028D000FDF748FD02200026CDE90766CDE9056633
:1028E000CDE90366CDE90166FEF796F80096286803
:1028F00020F001002860286800F0010000902068A6
:1029000040F440402060206800F44040009000986F
:1029100020688004FCD54FF6DC40CFF6FF702158CC
:1029200041F002012150205800F002000090009870
:1029300000200090206840F440402060206800F4AF
:1029400040400090286840F001002860286800F0AE
:1029500001000090009800BF20688004FCD5212071
:1029600009904FF480300A9001200F900220052139
:10297000CDE912001491C021CDE9151004210824DD
:10298000CDE9171009A819940025CDE91A55FFF7CC
:10299000B7F8A0B93F20019003204FF48061CDE942
:1029A000020540200494CDE90500CDE9071001A8F7
:1029B0000421FEF7A5FE002804BF1CB070BDFDF782
:1029C00033FD0000000000004EF6885042F2000C7B
:1029D000CEF20000C5F2002C016841F470010160E4
:1029E000DCF8000000F00F00062806D8DCF8000034
:1029F000072161F30300CCF8000044F200404EF6DA
:102A00007F52C5F60200CEF6F622016841F00101C0
:102A100001600021016103681A400260DCF80020B7
:102A2000120706D5DCF80020072363F30302CCF875
:102A3000002040F200228161C161C0F202220162E5
:102A400082620022C0F2FF12C26240F28022C0F213
:102A50000112026341638263C163026441640268DC
:102A600022F480220260016641F20000C5F60040B7
:102A70000068B1EB507F05D148F208100121C5F282
:102A80000010016044F2000043F2D201C5F20020C0
:102A9000016070470000000010B5416E01B301688D
:102AA00046F2A24CC0F6000C46F2AA4E8A68C0F666
:102AB000000E8968C2F342624C0F1CF802301EF807
:102AC00002101A011EF80430B2FBF1F11CF80420C8
:102AD000A0F868101201B2FBF3F2A0F86A2010BD52
:102AE0000121A0F86A10A0F8681010BD00000000D5
:102AF000816ACA070CD18A0715D44A071ED40A076F
:102B000027D4CA0630D48A0639D44A0655D541E0BE
:102B10000268D0F82CC0536823F4003343EA0C0356
:102B200053608A07E9D50268D0F830C0536823F4AF
:102B3000803343EA0C0353604A07E0D50268D0F8BB
:102B400034C0536823F4802343EA0C0353600A071C
:102B5000D7D50268D0F838C0536823F4004343EA5D
:102B60000C035360CA06CED50268D0F83CC0936807
:102B700023F4805343EA0C0393608A06C5D50268A8
:102B8000D0F840C0936823F4005343EA0C039360E9
:102B90004A0612D50268D0F844C0BCF5801F5368BD
:102BA00023F4801343EA0C03536006D1536823F4E3
:102BB000C00C836C43EA0C035360090658BF70478E
:102BC0000168C06C4A6822F40022104348607047D4
:102BD000B0B582B004460020C4F89000FDF720FD97
:102BE000216805460968090719D54FF4001100222C
:102BF0006FF07E40009020462B4600F039FB70B10C
:102C0000206850E8000F216820F0800041E80002B1
:102C1000002AF5D12020C4F8880003202FE0206886
:102C20000068400723D54FF4800100226FF07E40FA
:102C3000009020462B4600F01BFBC0B1206850E8F6
:102C4000000F216820F4907041E80002002AF5D1BD
:102C5000206850E8020F216820F0010041E80202DC
:102C6000002AF5D12020C4F88C00032007E02020A2
:102C7000C4F88800C4F88C000020E06620670021BA
:102C800084F8841002B0B0BD016851E8001F0268EA
:102C900021F4907142E80013002BF5D14FF6FE7C31
:102CA000CEF6FF7C026852E8022F036802EA0C02AB
:102CB00043E802210029F5D1C16E01290AD100BFE4
:102CC000016851E8001F026821F0100142E800137A
:102CD000002BF5D12021C0F88C100021C16641677E
:102CE0007047000000000000F0B583B004460368A0
:102CF000806846F6F316D4E9031210436269104364
:102D0000E2691F68CCF6FF76104307EA060210431B
:102D1000186058684FF2FF4720F4405240F60040D8
:102D200011435960C5F60000A1698342C1F2FF1743
:102D30001CBF226A11439A6847F2FF763A40C4F2F8
:102D4000000611439960DA6A44F2544122F00F02FE
:102D5000676AC5F602013A43B342DA624FF0800275
:102D600025DD40F6FF77C4F20107BB423FDD834219
:102D700000F0718041F20047C4F20107BB4200F04D
:102D8000758041F20007C4F20107BB4240F0A58004
:102D90000A68C2F3C203052B00F296800122DFE825
:102DA00013F09C0091009500970099009B0044F659
:102DB000FF37C4F20007BB4233DC44F20047C4F2E1
:102DC0000007BB4200F05D8044F60007C4F2000734
:102DD000BB4240F082800A6802F00703052B00F234
:102DE00073800022DFE803F0796E7274767847F61C
:102DF0000007C4F20007BB4200F04E8047F60047D0
:102E0000C4F20007BB4240F068800A6802F0070382
:102E1000052B00F259800022DFE803F05F54585A76
:102E20005C5E44F60047C4F20007BB4200F03F80FE
:102E300045F20007C4F20007BB4240F04E800A682A
:102E400002F00703052B00F23F800022DFE803F0C9
:102E5000453A3E4042444A6802F00703052B33D806
:102E60000222DFE803F03A2F333537390A68C2F31C
:102E7000C203052B28D80122DFE803F02F24282ADB
:102E80002C2E0A6802F00703052B1DD80022DFE86C
:102E900003F024191D1F21230A6802F00703052BE4
:102EA00012D80022DFE803F0190E121416180A686F
:102EB00002F00703052B07D80022DFE803F00E031A
:102EC00007090B0D042208E0802206E0082204E036
:102ED000102202E0202200E040222368834240F6D4
:102EE0000010C0F23D0000F05380E369B3F5004FDD
:102EF00040F07880402A00F21A810025DFE812F0C5
:102F000041001201170117011B01170117011701D9
:102F10001F011701170117011701170117011701E9
:102F200026011701170117011701170117011701D2
:102F300017011701170117011701170117011701D1
:102F400034011701170117011701170117011701A4
:102F500017011701170117011701170117011701B1
:102F600017011701170117011701170117011701A1
:102F70001701170117011701170117011701170191
:102F800031010025FEF710FD002840F0EF8049E1F7
:102F9000931E1E2B00F274800027DFE813F01F0041
:102FA00077007A007700770077007E00770077005F
:102FB00077007700770077007700B8007700770018
:102FC0007700770077007700770077007700770049
:102FD0007700770077007700770083000027FDF700
:102FE0004BFD5FE0402A00F2E6800025DFE812F0AA
:102FF0004100DE00E300E300E700E300E300E3005C
:10300000EB00E300E300E300E300E300E300E300A0
:10301000F200E300E300E300E300E300E300E30089
:10302000E300E300E300E300E300E300E300E30088
:103030000001E300E300E300E300E300E300E3005A
:10304000E300E300E300E300E300E300E300E30068
:10305000E300E300E300E300E300E300E300E30058
:10306000E300E300E300E300E300E300E300E30048
:10307000FD000025FEF798FC002840F0BA80D1E062
:10308000402A03D14FF4004000270BE00020012725
:1030900008E06846FDF704FD02E06846FDF794FD90
:1030A0000027019878B3616A46F2D832C0F6000270
:1030B0006668012532F8112006EB4603B0FBF2F1F9
:1030C0009942C0F0AF803303994200F2AB800021F7
:1030D0000023FDF7FDF80902002341EA10613246A2
:1030E000000210EB560041F10001FDF7F1F84FF638
:1030F000FF42A0F54071C0F20F02914205D821684D
:103100003D46C8608EE03D468CE001258AE051F8DE
:10311000540C800649F20000C0F2D03000F18B80E0
:103120000027BFE70025FEF753FCF8B97AE000203E
:103130000125D8B976E06846FDF7B2FC02E06846A2
:10314000FDF742FD0025019880B96BE051F8540C61
:10315000800649F20000C0F2D03073D4002528B9AF
:1031600060E04FF40040002500285BD0616A46F221
:10317000D832C0F6000232F811106268B0FBF1F0EC
:10318000510801EB4000B0FBF2F0A0F110014FF646
:10319000EF72914208D84FF6F07122680140C0F3F7
:1031A00042000844D0603DE001253BE00025FEF7E9
:1031B0000FFCF0B936E000200125D0B932E06846B6
:1031C000FDF76EFC02E06846FDF7FEFC0025019865
:1031D00078B927E051F8540C800649F20000C0F29B
:1031E000D03039D4002520B91CE04FF40040002530
:1031F000C0B1616A46F2D832C0F6000232F811104E
:103200006268B0FBF1F000EB5200B0FBF2F0A0F10D
:1032100010014FF6EF72914203D880B22168C86066
:1032200000E001254FF00110A0660020C4E91D0058
:10323000284603B0F0BD51F8541C0027C1F3C1016A
:10324000C8402FE751F8541C0025C1F3C101C84004
:1032500000287FF48BAFE5E751F8541C0025C1F33B
:10326000C101C8400028C4D1DCE700000000000014
:103270002DE9F04381B004460068C0690840401A57
:10328000B0FA80F04009904239D1DDF820800D4637
:103290001646994608F1010709E000BF2068C06999
:1032A0002840401BB0FA80F04009B0422BD1002FDB
:1032B000F4D0FDF7B5F9B8F1000F01464FF0030067
:1032C00022D0A1EB090141451ED8206801684907B9
:1032D000E4D5C16909071AD4C1690905DED54FF4DF
:1032E000006101622046FFF7CFFC2020C4F8900067
:1032F000002084F88400032001B0BDE8F0830020A2
:1033000001B0BDE8F083002001B0BDE8F0830825DE
:1033100005622046FFF7B8FCC4F89050002084F8FE
:103320008400012001B0BDE8F0830000000000002F
:103330002DE9F04F87B0044600F04AFE41F2C42167
:103340000746C2F20041002801EBC40656F8041FEC
:10335000486900F04D8110F0010040F04981F80605
:1033600037D5886920F010008861086AC0F34341AE
:1033700006291CD0022927D1C0F30A1525B304EB76
:10338000840140F2202200F00F00C2F2004202EB62
:1033900041112A4601EB00182046D8F84C1000F0E5
:1033A0006FFDD8F84C002844C8F84C000CE004EB42
:1033B000840140F22022C2F2004202EB4111C0F32C
:1033C0000A12204600F05CFD3068816941F010016E
:1033D00081613803CDE9057668D5204600F044FECA
:1033E000002863D0064604EB840040F220214FF40D
:1033F000306BC2F200414FF0000801EB4010049026
:1034000000F1500A5430D14603900BE0002008F13F
:103410000108B0EB560F0BF1200B4FEA560609F1ED
:10342000100943D0F007F1D05FFA88F720463946FB
:1034300000F006FE0546C0072BD0B8F1000F11D0F2
:1034400006984FF6FF72D9F80010C0F20702006824
:103450005844006910400A1A0020C9E900022046B9
:10346000394614E0DAF80000D0B106994FF6FF7241
:10347000C0F2070253460968D1F8101B1140421AE6
:103480000398002102600020CAF80000204601F0E5
:1034900077FF2807BAD52046049901F045FFB5E724
:1034A000204600F0CDFC2807B0D5F4E70598A246E9
:1034B000400377D5504600F0B3FD002872D0064691
:1034C0000AEB8A0040F220214FF41069C2F2004159
:1034D0004FF0000B01EB4010019000F1100800F1DB
:1034E0001401039106300290CDF810800CE000BF6B
:1034F00000200BF1010BB0EB560F09F120094FEA48
:10350000560608F110084DD0F007F1D05FFA8BF79E
:103510005046394600F068FD0546C00738D0BBF17B
:10352000000F15D006984FF6FF72D8F80010C0F2C1
:10353000070200684844006910400A1A0020C8E9E0
:1035400000024BF08000C1B2504601F001FF1FE0C5
:1035500006984FF6FF72049BC0F2070200681968D4
:10356000D0F8100910400A1A039880210260002048
:103570001860504601F0ECFE0298008820B10199D5
:1035800091F9001000290AD4504600F059FC00BF00
:103590002806ADD55046394600F096FEA8E700282B
:1035A000F6D1F1E7DDF81480069F5FEAC84022D427
:1035B0005FEA884000F181805FEA882000F199800D
:1035C0005FEAC82000F19D805FEA087000F1A180E9
:1035D0005FEA085000F1A480B8F1FF3F40F3AB80F0
:1035E0005FEA487004D53868416842681143416019
:1035F00007B0BDE8F08F38684FF480514161D0F8D2
:10360000041821F00101C0F804181021504600F000
:10361000A3FC504600F074FC386800214FF0006CA9
:103620004FF6FF334FF0904200260FE0C5F800C977
:10363000C5F800CB85192036802EC5F81019C5F8BD
:103640000839C5F8101BC5F8083B14D0002E3D689A
:10365000ECD03544D5F8004902EAE474C5F80049D5
:10366000D5F8004BB4F1FF3F02DDC5F8001BE1E7E0
:10367000C5F8002BDEE7386840F22023C2F2004391
:103680000122D0F81C1841F00111C0F81C180921C2
:10369000C0F814180AEB8A01C0F8102803EB411097
:1036A000A021FCF75FFE504601F09AFE504600F064
:1036B000C7FB5FEA88407FF57FAF38684FF4005161
:1036C000416140F20400C2F200400568504600F03B
:1036D0006BFC02465046294600F016FD3868D0F8CB
:1036E000041841F48071C0F804185FEA88207FF55F
:1036F00067AF38684FF4001141615FEAC8207FF579
:1037000063AF38684FF4801141615FEA08707FF55C
:103710005FAF3868082141615FEA08507FF55CAF10
:1037200038684FF400614161504601F0A1FEB8F1E4
:10373000FF3F3FF755AF38684FF0004141615046B9
:1037400001F082FE5FEA48707FF552AF4BE7000060
:1037500070B506991D460129044619D1A16B4FF693
:10376000BF7221F48031A163E168CFF6BD720D987C
:103770001140E1600128E16821F44010E06003D1CC
:10378000E06840F48010E060204600F029F80FE087
:10379000E0680A9E40F04000E060204600F020F81B
:1037A000A16B16B121F4803101E041F48031A163B5
:1037B000012D18BF70BDE16D89B2E165E16D41F089
:1037C000007141F0F771E165A16841F00601A16067
:1037D000A16841F02001A16070BD00000000000060
:1037E00081B040F640510022C0F20301009200BFB8
:1037F000009A01320092009A8A4215D80269B2F109
:10380000FF3FF5DC00220092026942F001020261F2
:10381000009A01320092009A8A4205D80269D207C2
:10382000F6D1002001B07047032001B070470000BE
:103830000146D0F8000E20F00300C1F8000E002071
:10384000D1F8042842F00202C1F8042870470000B1
:103850002DE9F04F81B09A460E460446DDF84480CB
:103860000C9841220A99002344F822300132502A50
:10387000FAD1B8F1000F04D004F138024FF400136C
:103880000FE0D4F80428802342F00202C4F8042890
:10389000A26B22F40012A263226842F0400222606E
:1038A000224617684FF000093B431360C4F8009E9E
:1038B0000029D4F8002818BF012101282046C4F8A7
:1038C000002818BF032100F003F91021204600F062
:1038D0009FF88346204600F073F8C4F81098C4F8A7
:1038E0001498C4F81C988EB304F510614FF67F321B
:1038F000002300BF4FF09047002B08BF4FF0006738
:103900000D68013307EAE5770F60C1F810909E4219
:103910008A6001F12001EDD104F530614FF0000C17
:103920004FF67F33002700BF4FF09045002F08BFB0
:103930004FF000650A68013705EAE2720A60C1F8D3
:1039400010C0BE428B6001F12001EDD1D4F81018F7
:10395000BAF1000F21F48071C4F81018C4F818905F
:103960006FF08041616103D1A16941F01001A16153
:1039700043F600020D9BA169C8F23C0241EA020134
:10398000A1611BB1A16941F00801A161B8F1010F6A
:1039900005D1A16941F0804141F00401A16150EAE3
:1039A0000B0018BF012001B0BDE8F08F000000003F
:1039B00001468268002022F001028A607047000000
:1039C00081B040F640510022C0F20301009200BFD6
:1039D000009A01320092009A8A4213D80269B2F129
:1039E000FF3FF5DC0022009210220261009A0132B2
:1039F0000092009A8A4205D80269D206F6D40020C5
:103A000001B07047032001B07047000000000000C3
:103A100081B040F640520023C0F20302009300BF81
:103A2000009B01330093009B934215D80369B3F1C7
:103A3000FF3FF5DC8901002300932031016100BFC5
:103A40000099013100910099914205D801698906D8
:103A5000F6D4002001B07047032001B07047000089
:103A6000406900F00100704770B50446C06820F05E
:103A7000C040E06099B1012928D1E068002540F0FC
:103A80000050E06001202E46FCF7D6FC20460135B0
:103A9000FFF7E6FF302E13D80128F3D110E0E068DD
:103AA000002540F08040E06001202E46FCF7C4FC79
:103AB00020460135FFF7D4FF302E01D80028F3D17E
:103AC000A5F13200B0FA80F0400970BD012070BD50
:103AD0000246D0F8003800201943C2F80018704799
:103AE000FEE7000000000000002848BF704700F01B
:103AF0001F01012202FA01F14EF200124009CEF23A
:103B0000000242F8201070474EF60C50CEF2000032
:103B10000068C0F3022070474EF6145300F00F0205
:103B2000CEF20003B0F1FF3F1A4400F16043C8BF7A
:103B300003F56442080110707047000000000000A7
:103B40004EF60C514FF6FF03CEF200010A681A4000
:103B500060F30A2242F0806040F0FD700860704718
:103B60002DE9F04381B0CB880D468046B3F5807FC8
:103B700003D995F90000002833D540F224004FF412
:103B8000F671C2F2004018FB01064FF0000006F18A
:103B90002C02009246F8082F37463446B14647F8C3
:103BA000043F44F8083F09F80C0F53B195F90000A1
:103BB000002806D40021404601F00AFA01B0BDE811
:103BC000F0836A4640462946234601F085FEB8B197
:103BD000EA882068904238BF0246B2F5807F3A609A
:103BE00015D946F20F50C0F6000002F089F914A072
:103BF00002F0D8FB46F22350C0F6000002F080F934
:103C00008021404601F0B4F901B0BDE8F08300998D
:103C10003068814201D000F0DFFD32683B688021CE
:103C2000404601F069FAE9882068884205D210F020
:103C30003F0004BF012089F8000001B0BDE8F08317
:103C4000526571756573742062756666657220745D
:103C50006F6F20736D616C6C0D0000000000000040
:103C60002DE9F04182B00E4649782039032912D857
:103C70000446B5881746DFE801F0021D2E3EF288A3
:103C80006E4639683046FCF754FBE9B220463246AE
:103C900000F0DEFE33E01CA002F032F971781EA0C5
:103CA00002F02EF926A002F02BF94FF0FF3002B0FF
:103CB000BDE8F081E9B26A462046984600F0A4FECD
:103CC00038680099DDF80320C0F803200160072060
:103CD000C8F8000013E07088EEB200F0010231462F
:103CE000C0F34007204600F0ABFE204631463A467E
:103CF00000F0B2FE03E0E9B2204600F09DFE002095
:103D000002B0BDE8F08100BF1B5B33336D5B572F02
:103D10005553425D20000000556E68616E646C650D
:103D2000642043444320436C617373206252657185
:103D300075657374203078253032780D0A000000E4
:103D40001B5B306D0000000010B541F2C021C2F2D3
:103D500000410978002908BF10BD41F2C12440F696
:103D6000C022C2F200440121C2F200424FF40063BB
:103D70002170812101F0C0F920780028FCD110BD0C
:103D8000B0B540F6C02243F23903C2F200420C46FD
:103D9000054602F10A00138143F23123C3F2334393
:103DA000136043F2356340F2F671C3F63703536094
:103DB0006122FCF7D0FA46F2F0312846C0F6000145
:103DC00000F00AFF41F66C012846C2F2004100F003
:103DD00027FE0146284600F0BBFD41F68801284633
:103DE000C2F2004100F01CFE0146284600F0B0FD82
:103DF00040F214012846C2F2004100F089FD40F271
:103E00000C012846C2F2004100F082FD45F2B132B9
:103E10002846C0F60002214601F01AFCB0BD0000A1
:103E200080B541F2C421C2F2004101EBC0014968F2
:103E3000CA6842F04002CA6000F026F980BD000066
:103E400041F2C421C2F2004101EBC00000214068F0
:103E5000C0F8101BD0F8101B41F40021C0F8101B53
:103E6000D0F8101B41F01801C0F8101BD0F8101B3F
:103E700041F0C041C0F8101B704700000000000076
:103E800003320023B3EB920F08BF704741F2C42303
:103E90000439C2F200434FF4805C03EBC003900886
:103EA0005A6800BF013852F80C3041F8043FF9D18C
:103EB000704700000000000080B503F1030C0023F0
:103EC000B3EB9C0F08BF80BD41F2C4234FEA9C0CAA
:103ED000C2F20043043A03EBC0004FF4805300F1F8
:103EE000040E03EB013100BFDEF80030BCF1010C21
:103EF00052F8040FC850F7D180BD00000000000048
:103F000081B041F2C42240F64051C2F20042C0F2F8
:103F1000030102EBC0000023021D00930098013052
:103F20000090884213D810680369B3F1FF3FF5DCB5
:103F30000022009210220261009A013200928A420D
:103F400005D80269D206F7D4002001B070474FF0BF
:103F5000FF3001B07047000081B041F2C42340F649
:103F6000405CC2F20043C0F2030C03EBC00000232C
:103F70000093031D009801300090604512D8186826
:103F80000269B2F1FF3FF5DC890100220092203185
:103F9000016100BF009901310091614502D80169BA
:103FA0008906F7D401B0704741F2C421C2F2004142
:103FB00001EBC0004068D0F8080810F0060F05D0EB
:103FC00080074FF0030058BF0F2070470020704754
:103FD00041F2C421C2F2004101EBC00040684169D6
:103FE000806908407047000041F2C422C2F20042DA
:103FF00002EBC00001F00F024068D0F810C8D0F802
:10400000343823FA02F2D20100EB4111D0B240EA77
:104010000C00D1F808291040C1F8082970470000A9
:1040200041F2C421C2F2004101EBC0004068D0F867
:104030001818D0F81C08084080B270470000000033
:1040400041F2C422C2F2004202EBC000406800EB21
:104050004111D1F8082BC1F8082BD0F814081040F2
:10406000704700000000000041F2C421C2F200418C
:1040700001EBC0004068D0F81818D0F81C080840C0
:10408000000C70470000000081B041F2C42240F6ED
:104090004051C2F20042C0F2030102EBC000002313
:1040A000021D0093009801300090884216D81068D5
:1040B0000369B3F1FF3FF5DC00220092026942F090
:1040C00001020261009A013200928A4202D802691A
:1040D000D207F7D1016921F00101016101B07047F8
:1040E00080B541F2C421C2F2004101EBC00040683A
:1040F000C16821F0C041C160C16841F08041C16028
:10410000322000F091FD80BD032A0DD145F24032EE
:1041100043F20053CFF62772C0F20C030A449A42CE
:1041200017D24FF4705101E04FF4105141F2C42204
:10413000C2F2004202EBC0004068C26842F00702CF
:10414000C260C26822F47052C260C2681143C1608A
:10415000704741F6406244F24023CFF61B72C0F232
:104160000F030A449A4202D24FF46051DEE7A1F5F0
:10417000740244F68073A2F51052C0F212039A4200
:1041800002D24FF45051D1E7A1F183724DF2206376
:10419000A2F5E742C0F213039A4202D24FF4405113
:1041A000C4E74BF260624EF26033CFF6E562C0F2D4
:1041B00016030A449A4202D24FF43051B6E74DF248
:1041C000003247F24073CFF6CE62C0F21B030A44BE
:1041D0009A4202D24FF42051A8E745F6C03249F284
:1041E000C013CFF6B362C0F221030A449A4202D24E
:1041F0004FF410519AE7A1F1B77247F22053A2F59C
:104200005852C0F238039A4202D24FF400518DE75F
:1042100045F2E04249F6E043CFF65962C0F241036D
:104220000A444FF4C0519A4238BF4FF4E0517DE741
:10423000F0B581B041F2C4230C46C2F2004303EB57
:10424000C00017464068456AB9B1826A611E05EB35
:1042500012450BD00023002200EB83030132D3F878
:104260000461D3B2994205EB1645F5D800EB810005
:1042700045EA0741C0F8041102E045EA07418162BE
:1042800046F26860C0F6000001F03AFE06A0214642
:104290003A462B4601F034FE46F22350C0F60000A9
:1042A00001F02EFE01B0F0BD6669666F25642073D3
:1042B000697A653A253034782C206F6666736574A8
:1042C0003A253034780D0A002DE9F04F85B00446C8
:1042D00000EB800040F2202241F2C425C2F20042ED
:1042E000C2F2004502EB40104FF4106C00EB011ECF
:1042F0000391764605EBC40A0CEB411836F8082FFB
:104300003346374653F8080F049357F80C3FC31A47
:104310005AF8040F934208EB000188BF13468A69DC
:1043200092B20333B2EB930F13D204993A6809683F
:1043300091420BD80399012201F00F0102FA01F119
:10434000D0F8342822EA0101C0F8341805B0BDE8DD
:10435000F08F0EF10C0B9A0802920EF10A020192F4
:104360001AE000BF1FFA89F3DBF800202846039902
:104370002C46FFF7A1FDDBF800003A684844CBF873
:104380000000DAF800004A4408EB00013A608A694C
:10439000029B92B29A42C8D3049B3A681B6893422C
:1043A000C3D9A3EB0209019A254634881278A145A6
:1043B00088BFA146012AD5D1D0F808084FF0805215
:1043C00010F480706FF0005008BF6FF080500B68E1
:1043D00008BF4FF00052184008600868104308609A
:1043E000086920F0C0400861086940F00050086189
:1043F000B8E7000000000000016070470000000006
:1044000080B582B0019041F2D870C2F2004001A99B
:104410000122FF23FDF7C0FF019802B080BD00001C
:1044200040F224014FF4F672C2F2004110FB021078
:1044300090F82C01002818BF0120704700000000F0
:10444000FEF712F8FCF704F9FEF736FAFEF728F843
:10445000FEF76EF800210020C4F20801FFF790FC7F
:104460000020FFF771FC4FF4FA70FBF7E5FFF7E768
:104470002DE9F04F81B0044600EB800040F220218E
:10448000C2F2004101EB4010A021FBF76BFF204678
:1044900000F09EF941F2C42046F26866C2F2004084
:1044A000C0F6000600EBC40555F8040F816CC1F39B
:1044B0000129816C826CC1F3811A806CC2F3C10B3B
:1044C000C0F3832808F101000090304601F018FD88
:1044D00046F2A050C0F6000001F064FF46F22357F8
:1044E000C0F60007384601F00BFD304601F008FD2C
:1044F0002868C16B91A001F003FD384601F000FD72
:10450000304601F0FDFC2868016C46F29150C0F67F
:10451000000001F0F5FC384601F0F2FC304601F0F5
:10452000EFFC2868416C46F28250C0F6000001F0B2
:10453000E7FC384601F0E4FC304601F0E1FC286875
:10454000816C81A001F0DCFC384601F0D9FC3046DA
:1045500001F0D6FC2868C16C7FA001F0D1FC384680
:1045600001F0CEFC304601F0CBFC2868016D7EA046
:1045700001F0C6FC384601F0C3FC304601F0C0FC37
:104580007DA0494652465B4601F0BAFC384601F030
:10459000B7FC304601F0B4FC28680423C06C0099D5
:1045A000020C46F22850C0F6000001F0A9FC384683
:1045B00001F0A6FC304601F0A3FC7CA001F0F2FE65
:1045C000384601F09DFCB8F1020F12D846F25A604D
:1045D000C0F6000001F094FC46F2FB50C0F600006B
:1045E00001F0E0FE46F22350C0F6000001F088FC26
:1045F000FEE72868D0F8041841F00201C0F804185A
:10460000816821F00101816000F0FEFF2968886364
:104610002046FFF705FC2046FFF762FD4FF480704F
:10462000002100BF2A6802440430B0F59E7F51602B
:10463000F8D1286800210123BAF1000FC0F8001E4C
:104640002868D0F8002822F00302C0F8002808BF2C
:104650000323D0F800281A43C0F80028C0F8101827
:104660001022C0F81418C0F81C1881616FF0804146
:10467000416143F60001C8F20C018161816941F09A
:10468000100181614FF48071416200212046FFF7E3
:10469000CFFD01214FF480722046FFF7C9FD0221B2
:1046A00010222046FFF7C4FD032110222046FFF709
:1046B000BFFD2868C06CB0F10C7F12D246F25A6080
:1046C000C0F6000001F01CFC46F22E60C0F60000AF
:1046D00001F068FE46F22350C0F6000001F010FC25
:1046E000FEE7BAF1000F14D010212046FFF734FC8A
:1046F0002046FFF705FC29688A6842F001028A60BB
:10470000D1F8042822F00202C1F8042801B0BDE863
:10471000F08F46F25A60C0F6000001F0F1FB46F25D
:10472000C750C0F6000001F03DFE46F22350C0F62F
:10473000000001F0E5FB00BFFEE700BF4349443A3B
:10474000253038780D0A0000474857434647323A2B
:10475000253038780D0A0000474857434647333A1A
:10476000253038780D0A0000474857434647343A09
:10477000253038780D0A0000647763322066737044
:10478000687920747970653A25642C2068737068A4
:104790007920747970653A25642C20646D612073EA
:1047A0007570706F72743A25640D0A003D3D3D3D91
:1047B0003D3D3D3D3D3D3D3D3D3D3D3D3D3D3D3D29
:1047C0003D3D3D3D3D3D3D3D3D3D3D3D3D0D0000C3
:1047D00080B5FDF7E5FE80BD70B5054648400E4644
:1047E000800714461BD0002C18BF16F0030032D1EE
:1047F000102C43D2042C08D356F8041B2846FFF78C
:10480000FBFD043C0435032CF6D81CB3701E691E56
:1048100010F8012F013C01F8012FF9D11AE0002C0A
:1048200018BF15F0030046D1102C57D2042C06D324
:10483000043C56F8040B032C45F8040BF8D8002C64
:1048400008BF70BD701E691E10F8012F013C01F8F1
:10485000012FF9D170BD701C611E0022B35C914222
:10486000AB5402F1010304D0024412F003021A46D1
:10487000F4D11E441D44E41A102CBBD3103E00BFDB
:1048800056F8101F2846FFF7B7FD7168281DFFF77F
:10489000B3FDB16805F10800FFF7AEFDF16805F161
:1048A0000C00FFF7A9FD103C10350F2CE8D810368E
:1048B000042CA1D2A9E7681C611E0022B35C9142BE
:1048C000AB5402F1010304D0024412F003021A4671
:1048D000F4D11E441D44E41A102CA7D3A6F11001F4
:1048E000A5F1100051F8102F40F8102F4A684260CF
:1048F000103C8A6882600F2CCA68C260F2D801F14D
:10490000100600F11005042C99D391E70000000077
:1049100080B50A7840F2240CC2F2004C130602F073
:104920007F0E4FF4F67310FB03C00EEB4E0302D460
:1049300000F5DC7001E000F5C47000EB830C00F8BA
:1049400023204868CCF8080080BD0000000000006B
:1049500040F224024FF4F673C2F2004210FB03202F
:1049600090F884210A7600EB8203C3F83411511CBD
:1049700080F884117047000070B50E4604460EA002
:104980001146154601F0BCFA2046314600F048FEBB
:104990005DB1B5FBF0F101FB105030B9812100226F
:1049A0000023204600F0A8FB70BD41F2C120002189
:1049B000C2F20040017070BD61637475616C206962
:1049C0006E206C656E3A25640D0A00000000000040
:1049D00010B51146044607A001F092FA40F2C02239
:1049E0000221C2F200424FF40063204600F0F0FAC8
:1049F00010BD00BF61637475616C206F7574206CAD
:104A0000656E3A25640D0A0048F28040C0F21E002F
:104A10001060082090710020908070470000000016
:104A2000084643F66142C0F600020A600021C160F8
:104A3000C0E901117047000070470000000000004D
:104A400041F2C020C2F20040027070470000000036
:104A500070470000000000007047000000000000E8
:104A60002DE9F04381B040F224034FF4F677C2F20F
:104A70000043814610FB073090F8843133B315466C
:104A8000884600F5C27700F59A76002407E00022F8
:104A900048464146984738780134844216D256F841
:104AA00024006DB10028F6D0C368002BF3D0A9789C
:104AB000007E8142EFD1484641462A46EAE700BFE0
:104AC0000028E8D0C368002BE1D1E4E701B0BDE8DD
:104AD000F0830000000000002DE9F04F81B08B460C
:104AE00009789146824601F003010093012932D0F2
:104AF000022962D140F224004FF4F671C2F2004064
:104B00001AFB010292F88451002D18BF012559D0DB
:104B10001AFB010002F5C278002700F59A760AE038
:104B2000012100294FD098F80010013700258F424D
:104B300038BF012547D256F827100029F0D04C681D
:104B4000002CEDD0504659464A46009BA047002114
:104B50000029E8D137E040F224004FF4F671C2F2A8
:104B600000401AFB010292F88451002D18BF012564
:104B700029D01AFB010002F5C278002400F59A77CB
:104B800057F8241071B10E6866B1097E9BF80420B5
:104B9000914207D1504659464A46009BB0470021F2
:104BA00001E000BF012171B198F800100134002527
:104BB0008C4238BF0125E3D305E04FF0FF3001B050
:104BC000BDE8F08FFFE7E90708BF4FF0FF3001B005
:104BD000BDE8F08F00000000B0B540F224024FF4B1
:104BE000F673C2F2004210FB03240D464FF4F67137
:104BF0002046FBF7B7FB002084F88401802184F86D
:104C0000881145F2512184F8B80145F2B920A56117
:104C1000C0F60001C4F89011C0F60000C4F8C0014D
:104C2000B0BD00000000000080B5FBF705FC80BDB2
:104C30004BB241F2C422C2F2004201F07F0102EB0A
:104C4000C002002B4FEA4113526800EB800C19D4CC
:104C500003F5306040F22023C2F2004303EB4C1C0A
:104C600083580CEB011123F40013835091F84A1080
:104C700001F0FE0102291CD1115841F08051115060
:104C80000020704703F5106040F22023C2F2004379
:104C900003EB4C1C83580CEB011123F400138350DD
:104CA000897A01F0FE01022903D1115841F08051A7
:104CB000115000207047000081B04BB200220092DA
:104CC00041F2C422C2F2004201F07F0C02EBC000AC
:104CD000002B4FEA4C1240680AD40244D2F8003B41
:104CE00002F53062B3F1FF3F0CDD4FF480333AE060
:104CF0001118D1F80029B2F1FF3F01F510621ADD59
:104D0000012330E0136843F000631360136843F03D
:104D100080431360002300934CF25033009901311B
:104D20000091994202D891688907F7D502219160D4
:104D30004FF4803317E011684CF2503341F00061BA
:104D40001160116841F0804111600021009100BFA5
:104D5000009901310091994202D891688907F7D5ED
:104D60000123022191600CF0070103FA01F1D0F850
:104D70003C388B43C0F83C38D0F81C3823EA01019A
:104D8000C0F81C1800200021116001B0704700001D
:104D900080B541F2C42C01F07F0349B2C2F2004C4D
:104DA0000CEBC00E4FF4106C0CEB4310B1F1FF3F55
:104DB0004FF43061C8BF01EB4310DEF8041009580E
:104DC0000020C1F34051117080BD000000000000C0
:104DD000F0B581B08A780C4602F07F01042913D324
:104DE00046F25A60C0F6000001F08AF8A1785AA095
:104DF00001F086F846F22350C0F6000001F080F87A
:104E00004FF0FF3001B0F0BD52B2002A33D400EBB6
:104E1000800340F2202641F2C425C2F20046C2F2CD
:104E2000004506EB431305EBC000A28803EB011617
:104E3000E3786FF3DF224068A6F8482003F003030D
:104E400086F84A304FF480364FF430658E4005EBDB
:104E50004111D0F81C582E43C0F81C680E58360477
:104E600034D4465842EA8342324342F0805242F4FC
:104E7000004242502AE041F2C4220029C2F200421C
:104E800002EBC002536803EB810606F5807608BF8B
:104E900003F128063368A5886FF0030606EA933706
:104EA0006FF3DF25AF4214D246F25A60C0F600001D
:104EB00001F026F8A17820A001F022F846F2235054
:104EC000C0F6000001F01CF8AF4231D3002001B061
:104ED000F0BD00EB800340F22026C2F2004652688B
:104EE00006EB431303EB0116E3784FF410643581AE
:104EF00003F0030C86F80AC001268E40D2F81C3855
:104F0000B6B204EB41143343C2F81C38A3581B0457
:104F10000AD445EA8153165943EA8C43334343F09C
:104F2000805343F400431351FFF716F8AF42CDD23C
:104F30006FF0010001B0F0BD457020616464722023
:104F400025303278206669666F206F766572666CF0
:104F50006F770D0A000000004570206164647220C4
:104F600025303278206F766572666C6F770D0A0097
:104F70004BB241F2C422C2F20042002B02EBC0024B
:104F800001F07F0051684FEA40120A440CD4002817
:104F900002F53061D2F8000B12D0002810D4086856
:104FA00020F0804008600BE0002802F51061D2F884
:104FB000000905D000285EBF086820F08040086026
:104FC0000A68002042F400120A60704700000000E6
:104FD000F0B522B9002B1CBF4FF0FF30F0BD11F02F
:104FE0007F010CD041F2C425C2F2004505EBC0059B
:104FF0006D6805EB4115D5F8005B6D0549D0950747
:105000001CBF6FF00300F0BD00EB800540F2202CC8
:1050100041F2C424C2F2004CC2F200440CEB451E23
:1050200004EBC0050EEB0114D5F804E044F8503F42
:10503000A4F108050EEB411644F8042C4FF00002D1
:105040006260D6F8107B06F530626FF3DC47C6F875
:10505000107BD6F8107B6FF31207C6F8107B7BB17C
:105060002D88C9B15C196FF3DF43013CB4FBF5F443
:105070000025C1F6F87505EAC44415692C4312E011
:10508000106940F4002010612888116908431061FC
:105090002CE06FF00200F0BD9D4238BF2B4623602C
:1050A000146944F40024146100EB800017690CEBD0
:1050B000401000EB011047EA0301116190F84A002B
:1050C000012813D1DEF808084FF0805110F48070E9
:1050D0006FF0005008BF6FF08050136808BF4FF0AA
:1050E000005118401060106808431060106840F0CC
:1050F000044010600020F0BD70B522B9002B1CBF29
:105100004FF0FF3070BD11F07F040CD041F2C4218C
:10511000C2F2004101EBC001496801EB4411D1F832
:105120000019490550D091071CBF6FF0030070BDF6
:1051300041F2C42500EB800140F2202EC2F200456E
:10514000C2F2004E05EBC0050EEB411101EB04115C
:10515000D5F804C041F8103F0CEB441541F8042C7D
:105160004FF000024A6005F51062D5F810696FF340
:10517000DC46C5F81069D5F810696FF31206C5F85A
:105180001069BBB100EB80000EEB401000EB041582
:105190002889E4B119184FF0010E6FF3DF4301398C
:1051A000B1FBF0F00021C1F6F87101EAC0401169CD
:1051B000084314E0106940F400201061106840F0CA
:1051C00004401060002070BD6FF0020070BD984276
:1051D00038BF03460B609E46106940F40020106102
:1051E000106918431061A87A01281BD1DCF808085F
:1051F0004FF0805110F480706FF0005008BF6FF0D6
:105200008050136808BF4FF00051184010601068BC
:1052100008431060106920F0C0401061106940F030
:10522000005010611068BEF1000F40F004401060A3
:10523000C8D004F00F00012101FA00F0DCF83418A6
:105240000843CCF83408002070BD000000000000C6
:1052500080B540F2240C4FF4F671C2F2004C10FB02
:1052600001C11346D1E9022E1A44BEEB0303C1E982
:10527000022303D08021FFF73FFF80BD11F8142FD8
:105280003AB100220A70802100220023FFF734FF88
:1052900080BD4FF4F67110FB01C2D2885AB1414370
:1052A0001CF90110B1F1FF3FC8BF80BD00210022F1
:1052B0000023FFF78DFE80BDB0B5002A08BFB0BD4A
:1052C00040F2240C4FF4F671C2F2004C10FB01C105
:1052D000134605460A4652F8084F50681C44C31A44
:1052E0001460536005D0002128462246FFF770FE67
:1052F000B0BD4FF4F67015FB00C000F12C03136035
:1053000000F11003284600F0E7FA802128B10022BE
:1053100000232846FFF7F0FEB0BD2846FFF728FE21
:10532000B0BD00000000000080B54FF4F67240F2FE
:10533000240CC2F2004C00FB02FE10FB02C20B6800
:1053400049684CF80E3051601146FEF709FC80BDEB
:1053500080B501F07F0E40F2240C4FF4F673C2F2D8
:10536000004C10FB03CC0EEB4E030CEB8303D3F885
:105370009031002B08BF80BD984780BD0000000021
:1053800080B501F07F0E40F2240C4FF4F673C2F2A8
:10539000004C10FB03CC0EEB4E030CEB8303D3F855
:1053A000C031002B08BF80BD984780BD00000000C1
:1053B000072918BF704780B541F2C1210022C2F20F
:1053C00000414FF400630A7040F2C022C2F2004272
:1053D0000221FFF7FDFDBDE880407047000000009E
:1053E000F0B583B000210446002600F0A1F940F298
:1053F00024004FF4F671C2F2004014FB010740F2A2
:105400000750ADF80400802001ADC0F24000CDF897
:10541000060020462946A7F82C618DF80A60FFF7A0
:10542000D7FC204629468DF80660FFF7D1FC012104
:1054300000222046FFF714FBD7F8E821012120467F
:10544000904703B0F0BD000080B540F224014FF456
:10545000F672C2F2004110FB0211002281F83121E4
:10546000D1F8E8210621904780BD0000000000002F
:1054700080B540F224014FF4F672C2F2004110FBF5
:10548000021191F82D21002A08BF80BD012281F868
:105490003121D1F8E8210521904780BD00000000AE
:1054A0002DE9F04381B05FFA81F80327B7EB112FA4
:1054B00008BFB8F1EE0F07D04FEA1129A9F1040790
:1054C000022F14D200267EE040F224014FF4F6773A
:1054D000C2F2004110FB071050F81C1F09B3096805
:1054E0001160006801260068007818606BE0B9F16F
:1054F0000F0F11D140F224014FF4F677C2F20041B0
:1055000010FB071050F8241F69B309681160006888
:1055100001264068186056E0490A022903D900268E
:1055200051E000264FE040F2240C4FF4F671C2F235
:10553000004C10FB01C18C692178B1FA81F74FEA68
:10554000571691B1002507E06718615C3C46B1FA37
:1055500081F64FEA561649B16778B945F4D1454509
:1055600003D00135F0E700262DE02746F50786F049
:10557000010611D046F20F50C0F6000000F0C0FC4A
:1055800013A04946424600F0BBFC46F22350C0F649
:10559000000000F0B5FC16E0B9F1020F11D17988D6
:1055A0004FF4F675196010FB05C0F979C1F380114D
:1055B00080F82E11F9791760C1F3401180F82F118E
:1055C00001E01960176006F0010001B0BDE8F0834A
:1055D00064657363726970746F72203C747970656E
:1055E0003A3078253032782C696E6465783A3078B4
:1055F000253032783E206E6F7420666F756E6421A0
:105600000D0A0000000000000146006840F0400064
:1056100008604FF480300A6842F080020A607047E8
:1056200001F07F0240F2240C4FF4F673C2F2004CFA
:1056300010FB03C002EB4202090600EB820000F5FA
:10564000C57258BF00F5DD72108870470000000079
:1056500070B580B146F20F50C0F6000000F050FC6B
:1056600016A000F09FFE46F22350C0F6000000F0A6
:1056700047FC00BFFEE7044640F224004FF4F673F7
:1056800041F2C425C2F20040C2F2004514FB0306F9
:1056900005EBC40041602046C6F8E821FEF7E8FEAD
:1056A00005460B2100222046FFF7DAF9D6F8E8215B
:1056B0000B2120469047284670BD00BF62757320BD
:1056C0006F766572666C6F770D0000000000000059
:1056D00010B582B004460CA000F012FCA08821781E
:1056E00062786388E488009046F2B240C0F6000019
:1056F000019400F005FC46F22350C0F6000000F0D3
:10570000FFFB02B010BD00BF1B5B33326D5B492F46
:10571000757362645F636F72655D20000000000056
:1057200080B58978FFF7C8FAB0FA80F0400980BDEB
:1057300041F2C42201F07F01C2F2004202EBC0003C
:105740004268D2F8000820F4FE60C2F80008D2F8DF
:105750000038002043EA0111C2F800187047000029
:105760002DE9F04740F224024FF4F673C2F20042F2
:10577000804610FB032089464FF0FF0AFF240025D6
:1057800000278669002000BF317809B371780529A8
:105790000AD0042912D0022912D174794C450FD1B4
:1057A0007588002701200BE0BAF1000F08BF4C45B7
:1057B00006D14046314600F00FF801E096F803A00C
:1057C0003178002D725C0E441744DDD0AF42DBD33C
:1057D00000F00100BDE8F08710B58A78B1F804E068
:1057E000130602F07F0C40F224024FF4F673744665
:1057F000C2F200426FF3DF2410FB03220CEB4C03D8
:1058000008D402F5DC7202EB8302CEF3C12354808C
:10581000537007E002F5C47202EB8302CEF3C1239A
:1058200054805370FFF7D4FAB0FA80F0400910BDED
:105830002DE9F04F81B040F224034FF4F677C2F225
:10584000004310FB073392468B464FF00009FF26BA
:10585000FF2700259C694FF0000800BF217871B335
:105860006178052908D0042918D002291FD165883C
:105870004FF000081BE000BF5F4518D1BAF1000FE0
:1058800024D0564513D12146CDF800908146FFF72C
:10589000A3FF4846DDF8009009E000BFA778E6784E
:1058A00087EA0B0386EA0A01194308BFA146237859
:1058B000002DE15C1C448844D0D0A845CED30821FB
:1058C0004A46FFF7CDF801B0BDE8F08F2146044607
:1058D000FFF726FF2046F2E710B50C46097801F0E5
:1058E0006001402913D020291FD071B9214600F052
:1058F00067F8B0F1FF3FC4BF012010BD60780628F3
:105900001BD16088B0F5C06F17D1002010BD2146B3
:1059100000F04AFAB0F1FF3F0DDC46F20F50C0F63E
:10592000000000F0EDFA13A016E02146FFF7D4F8CE
:10593000B0F1FF3F09DD012010BD46F20F50C0F667
:10594000000000F0DDFA17A006E046F20F50C0F6A6
:10595000000000F0D5FA0DA000F024FD46F223501F
:10596000C0F6000000F0CCFA2046FFF7B1FE0020A0
:1059700010BD00BF76656E646F72207265717565CB
:105980007374206572726F720D000000636C617336
:10599000732072657175657374206572726F720D14
:1059A000000000007374616E64617264207265713E
:1059B00075657374206572726F720D0000000000CF
:1059C00080B591F800C00CF0030CBCF1020F09D0B7
:1059D000BCF1010F0AD0BCF1000F0BD100F010F8A0
:1059E000013880BD00F0BCF8013880BD00F038F906
:1059F000013880BD4FF0FF3080BD00000000000086
:105A0000F0B581B04C7805460020092C00F2A58045
:105A10004E880FF208011F46DFE804F01C059F05C1
:105A20009F3E4D9F5464012E40F0848040F224003C
:105A30004FF4F671C2F2004015FB010215FB0100A4
:105A4000032C02F598726ED101211170D0F8E82173
:105A500009216DE040F224004FF4F671C2F20040DB
:105A600015FB010316680024347093F82E3123B11E
:105A700013681E7846F001061E7015FB010090F8B1
:105A8000300120B11068017841F002010170106806
:105A90000021417002204EE040F224004FF4F671E4
:105AA000C2F2004015FB0100F1B280F82D612846DA
:105AB000FFF73EFE3EE0284631463B46FFF7F0FC4E
:105AC00001B0F0BD40F224004FF4F671C2F2004084
:105AD00015FB0100116890F82C0108700120386056
