:020000040800F2
:10000000800600209D01000861120008C10100085F
:100010005D120008CD0200087D17000800000000F6
:100020000000000000000000000000009512000821
:10003000D10200080000000091120008C912000857
:10004000B7010008B7010008B7010008B7010008B0
:10005000B7010008B7010008B7010008B7010008A0
:10006000B7010008B7010008B7010008B701000890
:10007000B7010008B7010008B7010008B701000880
:10008000B7010008B7010008B7010008B701000870
:10009000B7010008B7010008B7010008B701000860
:1000A000B7010008B7010008B7010008B701000850
:1000B000B701000889130008B7010008B70100085C
:1000C000B7010008B7010008B7010008B701000830
:1000D000B7010008B7010008B7010008B701000820
:1000E000B7010008B7010008B7010008B701000810
:1000F000B7010008B7010008B7010008B701000800
:10010000B7010008B7010008B7010008B7010008EF
:10011000B7010008B7010008B7010008B7010008DF
:10012000B7010008B7010008B7010008B7010008CF
:10013000B7010008B7010008B7010008B7010008BF
:10014000B7010008B7010008B7010008B7010008AF
:10015000B7010008B7010008B7010008B70100089F
:10016000B7010008B7010008B7010008B70100088F
:10017000B7010008B7010008B7010008000000003F
:10018000B7010008B7010008DFF80CD000F08CF8C8
:1001900000480047ED2100088006002006488047FF
:1001A00006480047FEE7FEE7FEE7FEE7FEE7FEE75C
:1001B000FEE7FEE7FEE7FEE7751300088901000889
:1001C0007046694601F0E8FBFFF7FEFF2DE9F05F9E
:1001D0000546002092469B468846064681464024B6
:1001E0001BE0284641464746224600F04DF853465C
:1001F0005A46C01A914110D311461846224600F0C3
:1002000034F82D1A67EB01084F46224601200021E1
:1002100000F02BF817EB00094E41201EA4F1010459
:10022000DFDC484631462A464346BDE8F09FD2B25D
:1002300001E000F8012B491EFBD270470022F6E7CF
:1002400010B513460A4604461946FFF7F0FF20464C
:1002500010BD10B5044604E00B7800F8013B03B173
:10026000491C521EF8D2204610BD202A04DB203A39
:1002700000FA02F1002070479140C2F1200320FAF9
:1002800003F3194390407047202A04DB203A21FAF7
:1002900002F00021704721FA02F3D040C2F120029F
:1002A0009140084319467047064C074D06E0E06848
:1002B00040F0010394E8070098471034AC42F6D3AD
:1002C000FFF766FF4830000868300008FEE70000CE
:1002D000704700007047000072B600BFFEE70000E4
:1002E0002DE9F04F83B000F13E4202F1FF724FEA78
:1002F000B22241F600470192C4F2020708224FF0F1
:10030000010E00254FF0000A4FF00008B84208BF68
:10031000072200920AE000BF08F101080AF1040A6E
:10032000B8F1100F05F1020500F0A4800C680EFA78
:1003300008FB14EA0B09EFD04C6804F0030CACF195
:10034000010EBEF1010F11D80322876802FA05F6EB
:10035000CA68B743AA403A4382604268C4F30017B0
:1003600022EA0B0207FA08F73A434260BCF1030F96
:100370001CD0C26803238E6803FA05F7BA4306FA55
:1003800005F73A43BCF1020FC2600FD16FF00302D0
:1003900002EA580202440AF01C060F23176A03FA05
:1003A00006F40B69A743B3403B431362026803237F
:1003B0004F68AB409A4307F00303AB401A4317F46E
:1003C000403F4FF0010E0260A6D0002243F64403E6
:1003D0000292C4F202031A6843F6004442F48042D7
:1003E0001A601A68C4F2010402F480420292029A6E
:1003F00028F003024FF6084B2244CFF6FF7B52F859
:100400000B300AF00C070F26BE4023EA060C019BB6
:10041000009E072B38BF1E4606FA07F747EA0C0373
:1004200042F80B30A2684B6842EA090743F60C4CCD
:10043000DE0258BF22EA0907A760C4F2010CDCF80B
:1004400000209E0242EA090758BF22EA0907CCF8B9
:10045000007062689E0342EA090758BF22EA090752
:1004600067602268DB0342EA090358BF22EA0903F6
:10047000236051E703B0BDE8F08F000040F27C201C
:10048000C2F200000068704740F2080040F27C2190
:10049000C2F20000C2F2000100780A68104408604D
:1004A0007047000080B543F60040C4F202000168C6
:1004B00041F400710160016841F4806101600168EC
:1004C00041F480710160032000F060F80F2000F01B
:1004D00005F800F02BF8002080BD0000B0B540F218
:1004E0000802C2F2000240F204011278C2F20001D6
:1004F0004FF47A730968B3FBF2F20446B1FBF2F1F0
:10050000084600F0CFFA0F2C4FF001050CD858B96F
:100510004FF0FF3021460022002500F027F840F27E
:100520000C00C2F2000004602846B0BD82B000207A
:1005300043F640010190C4F202014A6842F480424D
:100540004A604A6802F480420192019A0090086869
:1005500040F080500860086800F0805000900098DB
:1005600002B0704780B501F00BF980BD70B514463C
:100570000D46064601F014F92946224600F072FEA7
:100580000146304601F014F970BD000080B501F05D
:1005900021F980BD2DE9F041002800F08B8043F661
:1005A0000808C4F202080446D8F8F8030D4600F023
:1005B0000700884207D288F8F853D8F8F80300F00B
:1005C0000700A84276D12068810717D5410705D5D5
:1005D000D8F8001041F4E051C8F80010010705D523
:1005E000D8F8001041F46041C8F80010D8F80010A5
:1005F000A26821F0F0011143C8F80010C0073FD1F4
:10060000D8F8F80300F00700A84207D988F8F85393
:10061000D8F8F80300F00700A8424BD12068410742
:1006200007D5D8F80010E26821F4E0511143C8F86A
:100630000010000708D5D8F80000216920F46040B8
:1006400040EAC100C8F8000000F054F8D8F80010E3
:1006500042F69C02C1F30311C0F60002515C40F265
:10066000040220FA01F140F20C00C2F2000000681E
:10067000C2F200021160FFF731FF0020BDE8F081F7
:100680006068811E022907D258F8081C89015CBFE6
:100690000120BDE8F08110E0012807D158F8081CBE
:1006A00089035CBF0120BDE8F08106E058F8081C12
:1006B000890702D40120BDE8F081D8F8001021F0AC
:1006C00003010843C8F80000FFF7D8FE064641F2D0
:1006D000883700BFD8F80000616800F00C00B0EB6C
:1006E000810F8DD0FFF7CAFE801BB842F2D90320DC
:1006F000BDE8F08110B543F60404C4F2020460685A
:1007000000F00C0008280AD0042819BF42F200406B
:10071000C0F2F40047F64000C0F27D1010BD206822
:1007200021682368490247F64001C0F27D1100F0BC
:100730003F02C3F388105CBF42F20041C0F2F401F3
:10074000A1FB00010023FFF741FD21680222C1F354
:10075000014102EB4101B0FBF1F010BD2DE9F04188
:1007600082B0002800F0A2800446007843F600061C
:10077000C007C4F2020643D0B06800F00C000428A1
:1007800005D1306880033BD56068C8BB8EE0B06897
:1007900000F00C00082802D170684002F1D46568AE
:1007A000B5F5A02F0AD0B5F5803F0BD0306820F406
:1007B00080303060306820F4802006E0306840F4FB
:1007C00080203060306840F480303060FFF756FEA3
:1007D000002D054611D000BF3068800310D4FFF70C
:1007E0004DFE401B6428F7D922E100BFFFF746FE0B
:1007F000401B64284FF0030055D830688003F5D4BF
:10080000207880071AD5B06810F00C0F09D0B068B6
:1008100000F00C00082840F08A807068400200F167
:1008200086803068800702D5E06801283ED13068B4
:10083000216920F0F80040EAC1003060207800070C
:1008400038D4207840074CD4A5695DB3B06800F077
:100850000C00082840F09E80012D27D07068E169C7
:1008600000F480028A4221D1216A00F03F028A42CC
:100870001CD147F6C071626A0140B1EB821F15D1ED
:10088000A26A0023CFF6FF7303EBC23200F44031BB
:100890006FF30F02914209D1E16A00F07060B0EB92
:1008A000016F03D1002002B0BDE8F081012002B049
:1008B000BDE8F0816069002840F20000C4F24720E2
:1008C00057D00121C0F8801EFFF7D8FD054600BFB4
:1008D000706F8007B5D4FFF7D1FD401B0228F7D910
:1008E000A6E0306C10F080580AD100200190306CE6
:1008F00040F080503064306C00F0805001900198DE
:1009000047F20007C4F200073868C00524D43868ED
:1009100040F480703860FFF7B1FD05463868C005C7
:100920001AD4FFF7ABFD401B0228F7D980E0E0683E
:10093000002851D00020C4F2472001210160FFF7B8
:100940009DFD0546306880073FF571AFFFF796FDC6
:10095000401B0228F6D96BE0A568052D50D0012D6B
:1009600052D0306F20F001003067306F20F004006B
:100970004DE00021C0F8801EFFF780FD054600BF56
:10098000706F80077FF55DAFFFF778FD401B022891
:10099000F6D94DE00027C4F2472700203866FFF75C
:1009A0006DFD022D05460BD13068800158D5FFF74B
:1009B00065FD401B02284FF00300F5D973E700BF27
:1009C000306880017FF56EAFFFF758FD401B0228AD
:1009D0004FF00300F4D966E70020C4F2472000215D
:1009E0000160FFF74BFD0546306880077FF526AFB5
:1009F000FFF744FD401B02284FF00300F4D952E7F3
:100A0000306F40F004003067306F40F00100306715
:100A1000FFF734FD002D054641F2883714D000BFA2
:100A2000306F800713D4FFF729FD401BB842F7D978
:100A3000032002B0BDE8F081FFF720FD401BB84263
:100A40004FF003003FF62FAF306F8007F4D4B8F1BA
:100A5000000F7FF4F9AE306C20F080503064F3E684
:100A600004F11C052FCD08430021CFF6FF7140EAA9
:100A7000821001EBC3316FF30F0140EA05600843B8
:100A8000706001203866FFF7F9FC04463068800189
:100A90003FF508AFFFF7F2FC001B02284FF0030000
:100AA000F4D900E780B500F0F7FB80BD7047000087
:100AB0007047000010B590F83C20012A4FF0020268
:100AC00052D0012380F83C3080F83D200268D2F8F3
:100AD00004E0D2F808C00C682EF07003234341F202
:100AE000FF74C4F20004A24253600DDC40F2FF73B5
:100AF000C4F200039A4215DCB2F1804F29D040F2D3
:100B00000043C4F2000322E040F2FF33C4F20103C9
:100B10009A4212DC41F60003C4F200039A4218D054
:100B2000002312E040F60003C4F200039A4210D002
:100B300040F60043C4F2000309E044F20003C4F2AB
:100B400001039A4205D040F20043C4F201039A42E5
:100B500004D149682CF080031943916001210022DF
:100B600080F83D1080F83C20104610BD002804BFDE
:100B70000120704710B5044690F83D0028B90020C8
:100B800084F83C00204600F01FF8022084F83D0065
:100B90002068211D00F0FEFB012084F8460084F847
:100BA0003E0084F83F0084F8400084F8410084F857
:100BB000420084F8430084F8440084F8450084F837
:100BC0003D00002010BD000080B582B0006840F2FA
:100BD0000041C4F20001884213D0B0F1804F0ED121
:100BE0000020019043F64000C4F20200016841F089
:100BF00001010160006800F001000190019802B05D
:100C000080BD0020009043F64000C4F2020001685D
:100C1000002241F0020101600068002100F00200A2
:100C2000009000981D20FFF7A1FC1D2002B0BDE838
:100C30008040FFF797BC00000146006841F21113A5
:100C4000C26822F00102C260026A1A4208D1026A36
:100C500040F244431A4203D1026822F001020260CA
:100C60000122002081F83D207047000010B50446A5
:100C700090F83C0001284FF0020008BF10BD01228F
:100C800084F83C2084F83D0020684FF67773826832
:100C90009A4382600A684F2A0FDC1F2A22DD202A2D
:100CA00023D0302A21D0402A4DD14B68CA6819463A
:100CB00000F040FD206840213BE06F2A17DDB2F5CF
:100CC000005F20D0B2F5805F2AD0702A3BD1D1E9F5
:100CD000012CCB68614600F009FC2068816841F076
:100CE00077011AE00AB1102A2DD1114621E0502ACD
:100CF00018D0602A27D14B68CA68194600F02CFD2D
:100D00002068602115E0D1E9012CCB68614600F034
:100D1000EDFB2068816841F48041816000200BE098
:100D2000002009E04B68CA68194600F003FD2068FE
:100D3000502100F0E7FB0020012184F83D10002144
:100D400084F83C1010BD0120F6E700007047000059
:100D5000B0B504460068C168026902EA0105A90746
:100D60001DD4680731D4280747D4E8065CD4E807C7
:100D700073D128067BD4680606D520686FF0400141
:100D80000161204600F08AF9A80658BFB0BD20686E
:100D90006FF0200101612046FFF78AFEB0BD6FF0C1
:100DA00002010161012121778069800703D020467B
:100DB000FFF7CCFF05E0204600F064F8204600F085
:100DC000DFF8002020776807CDD520686FF0040198
:100DD000016102212177806910F4407F03D0204611
:100DE000FFF7B4FF05E0204600F04CF8204600F085
:100DF000C7F8002020772807B7D520686FF00801D2
:100E0000016104212177C069800703D02046FFF7E4
:100E10009DFF05E0204600F035F8204600F0B0F8D0
:100E200000202077E806A2D520686FF0100101614C
:100E300008212177C06910F4407F03D02046FFF7D6
:100E400085FF05E0204600F01DF8204600F098F8E8
:100E500000202077E8073FF48CAF20686FF0010195
:100E60000161204600F0D0F828067FF584AF2068A5
:100E70006FF0800101612046FFF718FE68067FF5DC
:100E800083AF7AE770470000B0B5044690F83C00A5
:100E9000012804BF0220B0BD0D464FEAB201012077
:100EA000032984F83C0037D8DFE801F0020A122257
:100EB0002068294600F02EFB206850F8181F0EE02D
:100EC0002068294600F058FB206850F8181F16E0EB
:100ED0002068294600F086FB206850F81C1F41F06E
:100EE00008010160016821F00401016029690FE037
:100EF0002068294600F0AAFB206850F81C1F41F426
:100F000000610160016821F48061016029690902C2
:100F10000268114301600020002184F83C10B0BD3C
:100F2000002804BF0120704710B5044690F83D002A
:100F300028B9002084F83C00204600F01FF8022069
:100F400084F83D002068211D00F024FA012084F877
:100F5000460084F83E0084F83F0084F8400084F89E
:100F6000410084F8420084F8430084F8440084F887
:100F7000450084F83D00002010BD000070470000CF
:100F800070470000B0B50446006800220D4600F02E
:100F90009BFA206840F2004240F48061C4F20102F2
:100FA00091420DD1016A41F21112114208D1016A38
:100FB00040F24442114203D1416C21F400414164AA
:100FC000016A41F21112114208D1016A40F2444211
:100FD000114203D1016821F0010101600120082DB7
:100FE00009D0042D0BD0002D14BF84F8410084F8E3
:100FF0003E000020B0BD84F840000020B0BD84F861
:101000003F000020B0BD000080B5006840F2004104
:10101000C4F20001884218BF80BD40F2A010C2F2A5
:10102000000000680169890700D480BD6FF00201EB
:10103000016140F25810C2F200000C21FFF7A2FF3C
:1010400040F2A010C2F20000BDE88040FFF7F4BDFE
:10105000B0B5044690F83C0001284FF0020008BFEC
:10106000B0BD012584F83C5084F83D00204600F0D6
:1010700015FB00284FF0010009D12068C16821F05C
:101080004001C160C16821F48041C160002000219D
:1010900084F83D5084F83C10B0BD0000704700005B
:1010A00082B0002043F630010190C4F202010A68C8
:1010B00042F080020A600A6802F080020192019AFE
:1010C0000090086840F001000860086800F0010026
:1010D0000090009802B0704710B594B040F25810DC
:1010E0000021C2F200004FF08042532363240E918E
:1010F000CDE90C110991CDE90711CDE90511CDE933
:101100000311CDE90111C0E90023C0E90214016116
:101110008161FFF72BFD002818BFFFF7DDF84FF4C2
:1011200080500B9040F25810C2F200000BA9FFF75C
:101130009DFD002818BFFFF7CFF840F25810C2F20B
:101140000000FFF7EDFE002818BFFFF7C5F82020CC
:1011500008908020099040F25810C2F2000008A9BF
:10116000FFF7A8FC002818BFFFF7B6F86020019031
:10117000322040F2581402900020C2F20004039082
:10118000059001A920460C22FFF77EFE002818BF1B
:10119000FFF7A2F82068B0F1804F01D014B010BD65
:1011A000002043F630010F90C4F202010A6842F0B9
:1011B00001020A60096801F001010F910F990821ED
:1011C0000F910221CDE91010129001201390002000
:1011D000C4F202000FA9FFF783F814B010BD00009D
:1011E00080B588B040F2A01040F200420021C2F267
:1011F0000000C4F2000240F2FF330791CDE905116F
:10120000CDE90011C0E90021C0E90213016181614B
:10121000FFF7ACFC002818BFFFF75EF8072003902B
:101220001020049040F2A010C2F2000003A9FFF7C2
:101230000FFF002818BFFFF74FF840200090002054
:10124000019040F2A010C2F200006946FFF732FCA4
:10125000002818BFFFF740F808B080BDFEE7000087
:10126000FEE7000000F0070080F00703042B28BF12
:1012700004234FF0FF3C03380CFA03F338BF00207F
:10128000994381400CFA00F022EA000008437047BD
:101290007047000070470000B0B501380024B4EB7F
:1012A000106F1CBF0120B0BD4EF21005CEF200053C
:1012B00068604FF0FF300F2100F07AFA0720AC6031
:1012C00028602046B0BD0000FFF7DEB8B0B592B090
:1012D000002443F640000B94CDE90944CDE90744CE
:1012E0000594CDE90344CDE901440094C4F2020021
:1012F0000168022541F080510160006800F08050D3
:101300000090009847F200000094C4F200000168C9
:1013100041F480410160006800F480400090009832
:101320000120099010200A9008200E90A820CDE9F5
:101330000F050420119006A80695CDE90C54FFF77F
:101340000DFA10B172B600BFFEE70F20CDE901051E
:101350004FF4A05004904FF48050059001A805214F
:101360000394FFF717F910B172B600BFFEE712B091
:10137000B0BD00004EF68850CEF20000016841F486
:10138000700101607047000040F2A010C2F200003E
:10139000FFF7DEBC10B540F6FF3E0368C4F2000E56
:1013A00040F2004C7045C4F2010C0FDCB0F1804FEC
:1013B00019D040F20042C4F20002904213D040F62D
:1013C0000002C4F2000290420DD010E040F600424C
:1013D000C4F20002904206D0604504D00022C4F25C
:1013E0000102904203D14A6823F07003134341F68F
:1013F000FF72C4F2000290420DDC70451FDCB0F1B8
:10140000804F41D040F20042C4F2000290423BD0F3
:1014100040F6000221E043F6FF72C4F2010290425E
:1014200020DC42F20002C4F2000290422CD00022E2
:10143000C4F20102904227D0604525D028E040F652
:101440000042C4F2000290421ED041F60002C4F2F3
:101450000002904218D041F60042C4F200029042CD
:1014600012D015E044F20002C4F2010290420BD007
:1014700044F60002C4F20102904205D044F2004258
:10148000C4F20102904203D1CA6823F440731343AB
:1014900023F080024B69D1F800E08C681A430260A7
:1014A000C46240F48062C0F828E0624504BF096964
:1014B0000163012141610169C90708BF10BD0169CC
:1014C00021F00101016110BD80B501F01F014FF055
:1014D000010CD0F820E00CFA01F32EEA03030362BA
:1014E000036A02FA01F11943016280BDD0F808C015
:1014F00011432CF47F4C41EA032141EA0C01816045
:1015000070470000826822F07002114341F0070129
:1015100081607047B0B5026A036A40F2004523F06B
:1015200001030362D0F804E0D0F818C08C6822F000
:10153000020240F48063C4F20105AB4242EA0402B5
:1015400005D1CC6822F00C0224F0040422430C687C
:10155000AB4207D1D1E905532EF4407E45EA0E0592
:1015600045EA030E2CF073032343C0F804E08361C3
:10157000496841630262B0BD70B5026A036A40F215
:10158000004423F010030362D0F804E0D0F818C040
:101590008D6822F0200240F48063C4F20104A3426B
:1015A00042EA051207D1CD686FF0400622F0C00272
:1015B00006EA05152A430D68A34207D1D1E905645F
:1015C0002EF4406343EA860343EA840E2CF4E64398
:1015D00043EA0523C0F804E083614968816302623D
:1015E00070BD000070B5026A036A40F2004423F443
:1015F00080730362D0F804E0D0F81CC08D6822F438
:10160000007240F48063C4F20104A34242EA05225E
:1016100007D1CD6840F2FF462D0222F44062B54367
:101620002A430D68A34207D1D1E905642EF4405343
:1016300043EA061343EA041E2CF073032B43C0F85D
:1016400004E0C3614968C163026270BD70B5D0F83F
:1016500020C0026A40F2004622F4805202624268D0
:10166000C3690C68D1F808E040F48065C4F2010653
:10167000B54204D14D6922F4804242EA851223F436
:10168000E64343EA04234260C3612CF400564968F0
:1016900046EA0E320164026270BD000080B5006847
:1016A0008268D1E900E322F0770C23F0070242EAD6
:1016B0000C0242EA0E0C4FEA3312072AC0F808C0A7
:1016C00009D84FF0000CDFE802F0040404040A1EFD
:1016D000252C604680BD4FF0010C604680BDBEF1F8
:1016E000050F04BF012080BD026A036A23F00103D5
:1016F00003628369096923F0F00343EA0111816100
:101700000262002080BD8B680A69194600F012F859
:10171000002080BD8B680A69194600F01DF8002082
:1017200080BDD1E9022C0B696146FFF7DFFE002086
:1017300080BD0000D0F820C0036A23F001030362DB
:10174000836923F0F00343EA02122CF00A031943E1
:101750008261016270470000D0F820C0036A23F064
:1017600010030362836923F4704343EA02322CF0CE
:10177000A00343EA0111826101627047FEE70000A5
:10178000002848BF704700F01F01012202FA01F152
:101790004EF200124009CEF2000242F820107047CB
:1017A0004EF60C50CEF200000068C0F302207047E5
:1017B0004EF6145300F00F02CEF2000309011A4452
:1017C00000F16043B0F1FF3FC8BF03F56442117000
:1017D000704700004EF60C51CEF200010A684FF639
:1017E000FF031A4060F30A2242F0806040F0FD706F
:1017F000086070472DE9F04340F21023C2F2000365
:101800001B7840F20C2640F28027C2F20006C2F29A
:101810000007002B18BF3B46347840F28066C2F2C6
:101820000006002C18BFF41B40F21127C2F200077B
:101830003E7840F25827C2F200073F783EB1002FB1
:101840006DD04FF0010C4FF0000E1A4606E0002F4D
:1018500018BF1A464FF0010C4FF0000E23449A4275
:101860005AD240F23414C2F2000494F8008040F2DC
:10187000301640F20004C2F20006C0F60004B8F1CF
:10188000000F18BFA046367843F2680708F1040934
:10189000C0F600073C1B002E18BFA04407E040F82C
:1018A0002E600EF1010E00BF04329A4234D2176846
:1018B000FC07F9D07E1E4E45F6D3BEF11F0F98BF30
:1018C0004645F1D837F8034C04F47845B5F5784F20
:1018D0000AD137F8055C05F47845B5F5704F03D1AA
:1018E00001278E4509D3DFE724F0FF04A4F58E44D9
:1018F000B4FA84F467098E45D6D2002FD4D0BEF155
:10190000020418BF012454EA0C04C8D14468A6425A
:10191000C5D14FF0020EC7E77046BDE8F08340F234
:101920001427C2F20007BE6940F2000C06607F690E
:10193000C0F6000C7E1E40F23417C2F200073F785A
:10194000002F18BF6746BE4204D24FF0010E4FF081
:10195000010C83E740F23015C2F2000595F800E073
:1019600043F26805C0F60005BEF1000FA5EB0C05BB
:1019700018BF2F4402294FF0010E09D3BE428FBF7A
:101980004FF0010C46604FF0000C4FF0020E65E77F
:101990004FF0010C62E700002DE9F04385B00D46E1
:1019A00040F21021C2F200010E7840F20C2240F207
:1019B0008021C2F2000240F20923C2F20001002E8F
:1019C00018BF0E461778C2F200031B7840F28062FF
:1019D000002FC2F2000218BF571AD3B1044640F2DA
:1019E0001120C2F200000178012928D142F67C10B2
:1019F00042F66572C0F600000FF23861C0F60002D0
:101A000000F0C6FC42F6AC00C0F6000000F034FF67
:101A1000FEE742F67C1042F6D43142F66572C0F61B
:101A20000000C0F60001C0F6000200F0B1FC42F672
:101A3000AC00C0F6000000F01FFF00BFFEE742F65A
:101A4000AC084FF00109C0F6000880F8009040464D
:101A500000F012FF42F6277040F2351140F2E81212
:101A600040F25923C0F60000C2F20001C2F20002A7
:101A7000C2F2000300F08CFC404600F0FDFE0FF2C5
:101A8000405000F085FC404600F0F6FEE0064FF0C6
:101A9000200058BF682000EB0508B04507EB06039F
:101AA00001D3984513D942F6FD70C0F600004146B7
:101AB000324600F06DFC42F6AC00C0F6000000F0CB
:101AC000DBFE40F25820C2F2000080F80090304661
:101AD0003946424600F002FB42F69E10C0F6000076
:101AE00000F056FC42F6AC06C0F60006304600F0A8
:101AF000C3FE40F214292B69C2F20009D5E9002087
:101B0000D5E90214C9F810306B69C9E90020C9F899
:101B10001430D5E90635C9F80810C9E9063542F68A
:101B2000B60542F6BA03C0F60005C9F80C40C0F687
:101B30000003CDE9000542F67875CDE90213C0F641
:101B4000000542F6AE0142F6B203C0F60001C0F64F
:101B500000032846049400F01BFC304600F08CFE85
:101B6000D9E9061442F63223D9E90420C0F600036D
:101B700042F6BE07C0F60007CDE9021342F69A11FD
:101B800042F6C203CDE90007C0F60001C0F600032B
:101B90002846049400F0FCFB304600F06DFE0FF286
:101BA000544000F0F5FB304600F066FE4EF624513E
:101BB000CEF200010868C9F82000087989F82400ED
:101BC0000869C9F82800487989F82C004869C9F8DB
:101BD0003000C888A9F834008868C9F838008A89B4
:101BE000C9F83C20098B8207C9F840100DD542F690
:101BF0004630C0F6000000F0CBFB42F6AC00C0F669
:101C0000000000F039FED9F83800400040F1A28011
:101C100099F8240080B3C10740F00281810700F1E8
:101C20001081010700F11E81C10600F12C8181069F
:101C30000DD542F63750C0F6000000F0A9FB42F681
:101C4000AC00C0F6000000F017FE99F8240041B285
:101C5000B1F1FF3F10DC10F003000DD0D9F82810CF
:101C600042F6C870C0F6000000F092FB42F6AC00ED
:101C7000C0F6000000F000FE99F82C0080B3C10708
:101C800040F01381810700F12181410700F12F818C
:101C9000010700F13D81C10600F14B8181060DD5A0
:101CA00042F6F940C0F6000000F072FB42F6AC00CC
:101CB000C0F6000000F0E0FD99F82C0000F0820072
:101CC00082280DD1D9F8301042F6A170C0F600007C
:101CD00000F05EFB42F6AC00C0F6000000F0CCFD68
:101CE000B9F83400B0B3C10740F03581810700F185
:101CF0004381410700F1518100070BD542F6C950DD
:101D0000C0F6000000F044FB42F6AC00C0F6000054
:101D100000F0B2FD99F83500C1070DD042F6F4206D
:101D2000C0F6000000F034FB42F6AC00C0F6000044
:101D300000F0A2FD99F8350080070BD542F612108D
:101D4000C0F6000000F024FB42F6AC00C0F6000034
:101D500000F092FDD9F83800B0F1FF3F19DCD9F856
:101D60003C00B0B1C0B2C10719D1810727D44107E7
:101D700035D4010743D4C0060BD542F69120C0F6F6
:101D8000000000F005FB42F6AC00C0F6000000F0D9
:101D900073FD404605B0BDE8F04300F07FBA42F65F
:101DA0000220C0F6000000F0F3FA42F6AC00C0F6E4
:101DB000000000F061FD99F83C008107D7D542F69C
:101DC000C120C0F6000000F0E3FA42F6AC00C0F615
:101DD000000000F051FD99F83C004107C9D542F6DA
:101DE0003620C0F6000000F0D3FA42F6AC00C0F690
:101DF000000000F041FD99F83C000107BBD542F618
:101E00006220C0F6000000F0C3FA42F6AC00C0F653
:101E1000000000F031FD99F83C00C006B9D5ACE7F0
:101E200042F6B740C0F6000000F0B2FA42F6AC004D
:101E3000C0F6000000F020FD99F8240081077FF52E
:101E4000F0AE42F64840C0F6000000F0A1FA42F6BB
:101E5000AC00C0F6000000F00FFD99F82400010767
:101E60007FF5E2AE42F6F160C0F6000000F090FAB5
:101E700042F6AC00C0F6000000F0FEFC99F8240029
:101E8000C1067FF5D4AE42F69560C0F6000000F0C2
:101E90007FFA42F6AC00C0F6000000F0EDFC99F8C5
:101EA000240081063FF5C5AED1E642F68340C0F678
:101EB000000000F06DFA42F6AC00C0F6000000F041
:101EC000DBFC99F82C0081077FF5DFAE42F6DC30B1
:101ED000C0F6000000F05CFA42F6AC00C0F600006C
:101EE00000F0CAFC99F82C0041077FF5D1AE42F60C
:101EF0001140C0F6000000F04BFA42F6AC00C0F60C
:101F0000000000F0B9FC99F82C0001077FF5C3AE82
:101F100042F6C960C0F6000000F03AFA42F6AC00A2
:101F2000C0F6000000F0A8FC99F82C00C1067FF56F
:101F3000B5AE42F66F60C0F6000000F029FA42F636
:101F4000AC00C0F6000000F097FC99F82C00810668
:101F50003FF5A6AEB2E642F68350C0F6000000F0B0
:101F600017FA42F6AC00C0F6000000F085FC99F8C4
:101F7000340081077FF5BDAE42F6C600C0F6000012
:101F800000F006FA42F6AC00C0F6000000F074FC67
:101F900099F8340041077FF5AFAE42F61060C0F605
:101FA000000000F0F5F942F6AC00C0F6000000F0C9
:101FB00063FC99F8340000073FF5A0AEAAE600BF25
:101FC0004661756C74206F6E20696E7465727275EF
:101FD0007074206F722062617265206D6574616C2F
:101FE000286E6F204F532920656E7669726F6E6D73
:101FF000656E74003D3D3D3D3D3D3D3D3D3D3D3DBE
:102000003D3D3D3D3D3D3D3D3D3D3D3D3D3D3D3D00
:102010003D3D3D3D3D3D3D3D3D3D3D3D3D3D3D3DF0
:102020003D3D3D3D3D3D3D3D3D3D3D3D3D3D3D3DE0
:102030003D3D0000216F6E5F6661756C74000000AD
:10204000B0B50D46014640F235101446C2F200000C
:102050002022FEF7FEF840F2E810C2F20000294606
:102060002022FEF7F6F840F25920C2F20000214685
:102070002022FEF7EEF840F21021C2F2000101200A
:10208000087040F20C21C2F20001087040F23411D5
:10209000C2F20001087040F2802140F28062C2F278
:1020A0000001C2F20002511A40F23011C2F20001E6
:1020B00008700DD142F67230C0F6000000F068F9E9
:1020C00042F6AC00C0F60000BDE8B04000F0D4BB62
:1020D00040F20921C2F200010870B0BD2DE9F043C1
:1020E00081B0144640F25822C2F2000212780D4626
:1020F000012A064611D122A0214600F049F942F6F4
:10210000AC00C0F6000000F0B7FBB44201D2344688
:1021100003E0A819A04238BF044623A000F038F914
:1021200042F6AC00C0F6000000F0A6FBAF19A742D3
:1021300017D942F6AC09251D00260FF29408C0F607
:10214000000900BFA259A119404600F021F94846F4
:1021500000F092FBA819874203D93C2E06F1040631
:10216000F0D142F6DD10C0F6000000F011F942F6A1
:10217000AC00C0F6000001B0BDE8F04300F07CBB4D
:102180004572726F723A204D61696E20737461639B
:102190006B28253038782920776173206F76657237
:1021A000666C6F77000000003D3D3D3D3D2054686A
:1021B0007265616420737461636B20696E666F720F
:1021C0006D6174696F6E203D3D3D3D3D0000000036
:1021D0002020616464723A20253038782020202045
:1021E000646174613A2025303878000082B025A0FF
:1021F00026A128A2FFF724FFFEF754F9FFF766F89F
:10220000002143F630000191C4F20200026842F05E
:1022100001020260026802F001020192019A01913A
:10222000026842F002020260026802F002020192B9
:10223000019A0191026842F004020260026802F011
:1022400004020192019A0191026842F008020260C0
:10225000026802F008020192019A0191016841F0BE
:1022600010010160006800F0100001900198FEF775
:1022700017FFFEF731FFFEF7B3FFFEF72BF800BFA5
:10228000FEE700BF64656D6F0000000073746D337E
:102290003200000056302E30310000002DE9F047AA
:1022A000A2B002AD044628468021FDF7C7FF2846AC
:1022B000202122464FF0200AFFF79CFA20B340F27B
:1022C0001008C2F2000881462C1F15A54646074695
:1022D00054F8042F3046294600F06AF886F808A022
:1022E000013F06F10906F3D1B9F1000F0CD040F21D
:1022F000351109EBC9030CA0C2F200011AA2CDF8F6
:10230000008000F045F802E019A000F041F842F624
:10231000AC00C0F6000022B0BDE8F04700F0ACBA57
:102320002530386C7800000053686F77206D6F722D
:10233000652063616C6C20737461636B20696E66E9
:102340006F2062792072756E3A2061646472326C1B
:10235000696E65202D652025732573202D616670BB
:10236000694320252E2A73002E6178660000000044
:1023700044756D702063616C6C20737461636B20B5
:1023800068617320616E206572726F7200000000D8
:102390000FB4054B10B503A9044A029800F02CF8BD
:1023A00010BC5DF814FB0000652800080000002048
:1023B0000FB4084B10B504A902AA039800F01CF84A
:1023C000044602A9002000F048FA204610BC5DF83F
:1023D00014FB00005B28000802E008C8121F08C1B7
:1023E000002AFAD170477047002001E001C1121F96
:1023F000002AFBD1704700002DE9FF4F8DB00F463A
:102400000546002606E025280BD0DDE90F1290478F
:102410006D1C761C28780028F5D111B03046BDE837
:10242000F08F0024A246A1460122EC4900E00443BB
:1024300015F8013F203B02FA03F00842F7D1287853
:102440002A2810D06FF02F022878A0F13001092936
:1024500014D80AEB8A0102EB410144F0020400EBBC
:10246000010A6D1CF0E701CF5FEA000A03D544F4CE
:102470000054CAF1000A44F002046D1C28782E288A
:1024800017D115F8010F44F004042A280ED06FF07C
:102490002F022878A0F1300109290AD809EB890117
:1024A00002EB410100EB01096D1CF2E757F8049BB8
:1024B0006D1C28786C280FD006DC4C2817D06828B3
:1024C0000DD06A2814D104E0742810D07A280FD1D6
:1024D0000DE044F400140AE044F4801401E044F4F4
:1024E00040146978814202D104F580146D1C6D1C82
:1024F0002A786E2A1FD00CDC632A31D004DC002A33
:102500008BD0582A11D1A3E0642A68D0692A0CD153
:1025100065E0732A2ED004DC6F2A73D0702A04D1B0
:102520009BE0752A6FD0782A6ED01046DDE90F1235
:102530009047761C50E1C4F30250022806D00328CD
:1025400009D0042801CF09D0066045E101CFF11779
:10255000C0E9006140E101CF06803DE106703BE14A
:1025600017F8040B8DF8000000208DF80100EB46F1
:10257000012003E057F804BB4FF0FF3061074FF034
:10258000000102D40DE008F10101884649450FDA47
:102590008045F8DB1BF808100029F4D108E008F1A9
:1025A000010188468142FADB1BF808100029F6D1A8
:1025B000DDE90F23AAEB08008146214600F036F939
:1025C000304400EB080604E0DDE90F121BF8010BB4
:1025D0009047B8F10108F7D221464846F7E00A21B2
:1025E000C4F302534FF0000B0891022B04D001CF2B
:1025F000C117032B09D00AE0FF1D27F00707F7E8F2
:10260000020108E032E01FE020E000B2C117042B15
:1026100001D140B2C117031E71F1000307DA4FF078
:10262000000CD0EB0C006CEB01012D2302E0230524
:1026300004D52B238DF82430012303E0E30701D0D8
:102640002023F7E7984658E00A2110E010210EE019
:1026500010204FF0000B08900CE010214FF0000B01
:1026600044F004044FF00809089103E008214FF0FA
:10267000000B0891C4F30253022B04D001CF0021B8
:10268000032B06D006E0FF1D27F00707F7E802013D
:1026900003E080B2042B00D1C0B24FF00008230742
:1026A0002BD5702A07D0DDF820C08CF0100C5CEA26
:1026B0000B0C05D00EE040238DF82430012308E0F8
:1026C00050EA010306D030238DF824308DF8252000
:1026D00002239846DDF820C08CF0080C5CEA0B0C55
:1026E0000BD150EA010301D1630706D530238DF8E1
:1026F00024304FF00108A9F10109582A04D038A26A
:102700000B9208AA0A920BE03AA2F9E75B46089AF4
:10271000FDF75CFD0B9B9B5C0A9A521E0A9213709C
:1027200050EA0102F2D10A98ADEB000000F1200B53
:10273000600702D524F4803401E04FF00109D94547
:1027400002DDA9EB0B0000E0002000EB0B0141448F
:102750000890AAEB010AE00306D4DDE90F23214625
:10276000504600F063F806444FF0000908E009A95C
:1027700011F80900DDE90F12904709F10109761CF3
:10278000C145F4DBE0030CD5DDE90F2321465046BB
:1027900000F04CF8064404E0DDE90F1230209047C9
:1027A000761C0899481E08900029F5DC08E00A9874
:1027B0000A990078491C0A91DDE90F129047761CAE
:1027C000BBF10001ABF1010BF1DC21465046DDE924
:1027D0000F2300F019F806446D1C1BE609280100C0
:1027E0003031323334353637383961626364656687
:1027F0000000000030313233343536373839414249
:1028000043444546000000002DE9F0410446002500
:102810001E461746880404D405E039462020B047F8
:102820006D1C641EF9D52846BDE8F0812DE9F04104
:10283000044600251E469046C80301D5302700E017
:102840002027880404D505E041463846B0476D1C72
:10285000641EF9D52846BDE8F0810A68531C0B6058
:102860001070704738B504468DF8000069460320A3
:10287000ABBE204638BD000010B5044601E0FFF7AE
:10288000F1FF14F8010B04490028F8D1BDE810400D
:102890000A20FFF7E7BF0000000000200000000052
:1028A0000000000001020304060708090D00523071
:1028B0002000523120005232200052332000504379
:1028C00020004C5220005573616765206661756C6D
:1028D0007420697320636175736564206279206177
:1028E0007474656D70747320746F2073776974638A
:1028F0006820746F20616E20696E76616C69642057
:1029000073746174652028652E672E2C2041524D0A
:1029100029005573616765206661756C7420697361
:102920002063617573656420627920496E64696310
:1029300061746573206120646976696465206279D9
:10294000207A65726F206861732074616B656E20F8
:10295000706C616365202863616E20626520736519
:1029600074206F6E6C79206966204449565F305F31
:1029700054525020697320736574290028257329E7
:102980002068617320617373657274206661696C7D
:1029900065642061742025732E00523132003D3D64
:1029A0003D3D3D3D3D3D3D3D3D3D3D3D3D3D3D3D57
:1029B0003D2052656769737465727320696E666F36
:1029C000726D6174696F6E203D3D3D3D3D3D3D3D05
:1029D0003D3D3D3D3D3D3D3D3D3D3D3D003D3D3D64
:1029E0003D3D3D3D3D3D3D3D3D3D3D3D3D3D3D3D17
:1029F0003D3D3D3D3D3D3D3D3D3D3D3D3D3D3D3D07
:102A00003D004465627567206661756C742069736A
:102A1000206361757365642062792068616C74203D
:102A200072657175657374656420696E204E5649D0
:102A30004300505352004465627567206661756CAF
:102A40007420697320636175736564206279204422
:102A50005754206D61746368206F6363757272658B
:102A600064004465627567206661756C74206973E3
:102A70002063617573656420627920566563746FA5
:102A800072206665746368206F6363757272656433
:102A9000004465627567206661756C7420697320F7
:102AA00063617573656420627920454442475251E1
:102AB000207369676E616C206173736572746564FD
:102AC000004465627567206661756C7420697320C7
:102AD00063617573656420627920424B50542069AC
:102AE0006E737472756374696F6E20657865637553
:102AF000746564005573616765206661756C742048
:102B000069732063617573656420627920696E64FE
:102B1000696361746573207468617420616E2075E7
:102B20006E616C69676E65642061636365737320B1
:102B30006661756C74206861732074616B656E20CA
:102B4000706C6163650048617264206661756C74C5
:102B50002069732063617573656420627920666102
:102B6000696C656420766563746F72206665746352
:102B700068004552524F523A20556E61626C652092
:102B8000746F2067657420746865206D61696E20BC
:102B9000737461636B20696E666F726D6174696FC7
:102BA0006E2C20706C6561736520636865636B20B3
:102BB00074686520636F6E66696775726174696FAA
:102BC0006E206F6620746865206D61696E20737475
:102BD00061636B00696E69745F6F6B00427573208F
:102BE0006661756C74206973206361757365642018
:102BF0006279207072656369736520646174612015
:102C00006163636573732076696F6C6174696F6E5D
:102C100000427573206661756C742069732063616E
:102C20007573656420627920696D7072656369737C
:102C300065206461746120616363657373207669E4
:102C40006F6C6174696F6E004D656D6F7279206D88
:102C5000616E6167656D656E74206661756C742068
:102C6000697320636175736564206279206461749F
:102C700061206163636573732076696F6C61746949
:102C80006F6E00427573206661756C7420697320E5
:102C900063617573656420627920696E73747275FF
:102CA0006374696F6E206163636573732076696F07
:102CB0006C6174696F6E004D656D6F7279206D6126
:102CC0006E6167656D656E74206661756C742069F0
:102CD000732063617573656420627920696E737413
:102CE00072756374696F6E206163636573732076B8
:102CF000696F6C6174696F6E0042757320666175EF
:102D00006C74206973206361757365642062792037
:102D1000666C6F6174696E672D706F696E74206C7C
:102D2000617A79207374617465207072657365725D
:102D3000766174696F6E004D656D6F7279206D619B
:102D40006E6167656D656E74206661756C7420696F
:102D5000732063617573656420627920666C6F61AE
:102D600074696E672D706F696E74206C617A79205A
:102D700073746174652070726573657276617469CD
:102D80006F6E005573616765206661756C742069AC
:102D90007320636175736564206279206174746562
:102DA0006D70747320746F20657865637574652029
:102DB000616E20756E646566696E656420696E7308
:102DC0007472756374696F6E005573616765206610
:102DD00061756C742069732063617573656420622A
:102DE0007920617474656D70747320746F206578D8
:102DF0006563757465206120636F70726F636573BE
:102E0000736F7220696E737472756374696F6E008C
:102E10005573616765206661756C74206973206302
:102E2000617573656420627920617474656D707476
:102E30007320746F20646F20616E20657863657005
:102E400074696F6E20776974682061206261642004
:102E500076616C756520696E2074686520455843FD
:102E60005F52455455524E206E756D626572004238
:102E70007573206661756C74206973206361757366
:102E8000656420627920737461636B696E67206585
:102E900072726F72004D656D6F7279206D616E6137
:102EA00067656D656E74206661756C74206973204A
:102EB00063617573656420627920737461636B6903
:102EC0006E67206572726F7200427573206661755D
:102ED0006C74206973206361757365642062792066
:102EE000756E737461636B696E67206572726F7261
:102EF000004D656D6F7279206D616E6167656D65FE
:102F00006E74206661756C742069732063617573DB
:102F1000656420627920756E737461636B696E6796
:102F2000206572726F72004669726D7761726520FA
:102F30006E616D653A2025732C206861726477613B
:102F400072652076657273696F6E3A2025732C2046
:102F5000736F6674776172652076657273696F6EE0
:102F60003A20257300636D5F6261636B7472616305
:102F7000655F6661756C7400202025733A202530EA
:102F80003878202025733A20253038782020257382
:102F90003A2025303878202025733A20253038789B
:102FA0000054686520627573206661756C74206FCB
:102FB0006363757272656420616464726573732003
:102FC0006973202530387800546865206D656D6F11
:102FD0007279206D616E6167656D656E74206661E2
:102FE000756C74206F6363757272656420616464CC
:102FF00072657373206973202530387800737461AB
:10300000636B5F706F696E7465723A20307825303B
:1030100038782C20737461636B5F73746172745FB2
:10302000616464723A203078253038782C207374CB
:1030300061636B5F656E645F616464723A203078CF
:1030400025303878000000006830000800000020BB
:1030500010000000D823000878300008100000207D
:1030600070060000E8230008000000000024F400BF
:08307000010000001000000047
:040000050800018965
:00000001FF
