S3250800000000000120C1940208E3240208D1240208E5240208F52402080525020800000000D8
S32508000020000000000000000000000000152502081725020800000000B1320208F932020806
S32508000040A793020805260208112602081926020891860208A7930208992502089F25020894
S32508000060A5250208AB250208B1250208E9510208F9510208095202081952020829520208ED
S325080000803952020849520208A7930208A7930208A7930208A7930208A7930208B7250208DE
S325080000A02D26020833260208452602084B26020851260208572602085D260208A7930208A9
S325080000C0A7930208A7930208A7930208A7930208A79302087D2602088326020889260208A5
S325080000E0DB2502080B26020825250208A7930208A7930208A7930208A79302085952020894
S32508000100A7930208A793020865260208A79302088F26020895260208A7930208A793020864
S3250800012069520208795202088952020899520208A9520208A7930208A7930208A79302086C
S32508000140A7930208A7930208A793020819250208B9520208C9520208D95202089B26020843
S32508000160A7930208A7930208A7930208A7930208A7930208A7930208A79302080000000095
S32508000180A7930208A7930208A7930208A7930208034B1B685B681A69026018610020704778
S325080001A06C1E0020034B1B685B681A6912681A61704700BF6C1E0020C46005614661876142
S325080001C0C0F81C80C0F82090C0F824A0C0F828B0C0F82CD0C0F808E0FFF7DABF08B50E4B50
S325080001E01B685A6813690BB921F004FF1968586011611846C468056946698769D0F81C80B2
S32508000200D0F82090D0F824A0D0F828B0D0F82CD0D0F808E0012070476C1E002010B5002150
S32508000220044600F009FB18B914B1204608F0D0FD10BD002100F000BB10B50121044600F0F7
S32508000240FBFA18B914B1204608F0C2FD10BDFFF7E5BF10B501220C4600F032FC18B914B193
S32508000260204608F0B5FD10BD00F02ABC00F0BABB2DE9F0432A4C00254FF00309D4F8F471F8
S325080002800021013143189A0803F00303BA5C5B0042FA03F303F00303022BF2D0D4F800327E
S325080002A009018A0803EB001081B300EB820103681A0728D1D4F800229A4224D89A1AD4F829
S325080002C004624FEA921C120902F003079E424FEA470718D9D4F8F4E11EF80C8048FA07F3D5
S325080002E003F00303012B0ED109FA07F747EA080704EB45083F2D0EF80C709ABF0135A8F852
S325080003000C22C4F8083204308842D0D12DB1013D04EB4503B3F80C02B0E7BDE8F08300BF92
S32508000320CC170020F0B4194ED6E97F53C01AC10904096B5C04F007070122BA4023EA020367
S325080003406B54D6F89832D6F8F4518009984238BFC6F89802295C04F00303A00803275B00C7
S3250800036007FA03F321EA03032B540134D6F8F451A00804F00303295C5A0041FA02F202F0FE
S325080003800302022AEBD0F0BC704700BFCC17002021F00F0370B5164A164D1C1AE400A2FB7C
S325080003A00424640A0219A3EB8416C5F8FC2100212246C5E98063C5E97D041AF013FEA20076
S325080003C00732D208D5F8FC0100211AF00BFE00234FF480314FF0FF3205F52770C5F88C128B
S325080003E0C5E9A432C5F89832BDE8704023F07CBAF32C23FACC170020034AB2F88C3201331E
S32508000400A2F88C32704700BFCC170020034AB2F88C32013BA2F88C32704700BFCC1700203B
S32508000420034BB3F88C02003018BF0120704700BFCC170020F8B51C4CB4F88C3200220133B1
S32508000440A4F88C32C4F89022C4F80822251D04F5E876032755F8042F130719D1D4F80002CB
S32508000460824215D3101AD4F804124FEA901C000900F003038A424FEA430309D2D4F8F411DB
S3250800048011F80CE04EFA03F202F00302012A02D0AE42DFD1F8BD07FA03F343EA0E0301F8A5
S325080004A00C30FFF7E5FEF3E7CC17002079B3F8B5041F174E04EB8105032754F8043F1A078C
S325080004C019D1D6F80002984215D8181AD6F804124FEA901C000900F0030299424FEA42023C
S325080004E009D9D6F8F41111F80CE04EFA02F303F00303012B02D0A542DFD1F8BD07FA02F2CF
S3250800050042EA0E0201F80C20FFF7B2FEF3E77047CC1700202DE9F04F824CD4F8F831D4F84E
S32508000520082285B09B00002A00F0868000264FF0030BC4F80862002B68D0002002E0013064
S32508000540984274D2D4F8F471810800F00302795C520041FA02F202F00302032AEFD18446BA
S3250800056000230022013202EB0C014FEA910E01F0030117F80EE049004EFA01F101F00301B9
S325080005800229EFD0D4F8001212014FEA920E01EB0C1C92B30CEB8E0EDCF800703A0728D12F
S325080005A0D4F80022974224D3BA1AD4F804524FEA9218120902F00301AF424FEA410118D22F
S325080005C0D4F8F49119F808A04AFA01F707F00307012F0ED10BFA01F141EA0A0104EB430A4E
S325080005E03F2B09F808109ABF0133AAF80C22C4F808720CF1040CF445CED193B1013B04EB83
S325080006004302D4F8F471B2F80CC2AAE7B4F88C320022013BA4F88C32C4F8982205B0BDE85B
S32508000620F08FD4F8F83101309B0098428AD3D4F80822002A7FF47DAF002BE7D04FF0000E47
S3250800064076464FF003094FF00108022704E0012930D001369E42D9D24FEA960AD4F8F401AA
S3250800066006F0030510F80A206D0042FA05F101F00301022900EB0A0C0DD00329E7D107FABA
S3250800068005F522EA050500F80A50D4F8F8314FF0000E9B00DDE7BEF1000FDAD009FA05F5E4
S325080006A022EA05058CF80050D4F8F8314FF0010E9B00CEE7F308D4F8FC11019311F803E05B
S325080006C006F0070B4EFA0BF01944C307E6D53001D4F8002252F800C01044BCF1000F14D0C2
S325080006E002AAB02107F0C2FEDDE9013242B108F081FDDDE9020108F063FD08F091FD019B13
S32508000700D4F8FC1111F803E0194408FA0BFB2EEA0B0E81F800E0D4F8F43103EB0A0C13F817
S325080007200A20BBE7CC170020054BB3F88C2200210132A3F88C22C3F80812FFF7EBBE00BF63
S32508000740CC1700203B4BD3E980122DE9F047D3E97D760023C0E90133C0E90333C0E90533F8
S32508000760521A02601D46B6009E469C461C461A4699461946984617F8093049000B4103F010
S325080007800303012B47D0002B3DD0022B02D1013545600134013296420ED04FEA920902F00B
S325080007A0030117F809304FEA410A43FA0AF313F0030301D0012BDED1012C11D0022C02D15D
S325080007C04169013141618169A14238BF846196420FD0012B23D04FEA920902F00301CAE793
S325080007E00169013101618169A14238BF84619642EFD1C44516D99642C0F80CC012D0E04650
S325080008004FF0000CE7E70EF1010EC0F808E00CF1010C1C46BEE7013545601C46BAE7E045EF
S32508000820EED2E8E72D014FEA0E13C0E90153BDE8F08700BFCC1700200F302DE9F04706091D
S3250800084051D0674DB5F88C32002B4CD1B5F88E32002B0C460CBF4FF0010E4FF0000E47D19A
S32508000860D5F89802D5F8F871874239D9D5F8F4C1411E614400221AE00132964253D913F016
S325080008800C0F1ED10132964240F2A08013F0300F1CD10132964240F29C8013F0C00F1AD19E
S325080008A00132964240F298800130B84218D211F8013F13F0030FDFD013F00C0F4FF0000254
S325080008C0E0D013F0300F4FF00002E2D013F0C00F4FF00002E4D00130B8424FF00002E6D339
S325080008E0BEF1000F14D04FF000084046BDE8F087D5E9A4239A42B3D326F02AF9D5F89802D8
S32508000900D5F8F871874288BF4FF0010EAED8EAE726F01EF9D5F89802D5F8F87187424FF00C
S32508000920010EA3D8DFE78000811A012A01F1010703D1431C9B08C5F898324FEA970E07F0E7
S3250800094003034FEA43081CF80E90012303FA08F3023143EA090388420CF80E3013D34FF094
S3250800096002084FEA910CD5F8F4E101F003031EF80C905B0008FA03F3013143EA09038842B6
S325080009800EF80C30EDD2D5F800A2D5F890324FEA07190AEB09081E44120140460021C5F812
S325080009A090621AF01FFBE3079FD50023D5F8FC114AF80930FA080123885C07F0070703FA31
S325080009C007F707438F544046BDE8F08780000130AAE780000230A7E780000330A4E700BFBD
S325080009E0CC170020F0B41B4EB6F88C327BBB70B3D6E97F53C01AC10904096B5C04F0070709
S32508000A000122BA4023EA02036B54D6F8982283099342D6F8F40138BFC6F89832C15CA508E5
S32508000A2004F0030303275B0007FA03F321EA030343550134D6F8F401A50804F00303415D4C
S32508000A405A0041FA02F202F00302022AEBD0F0BC704700BFCC17002010F00F030DD11749AC
S32508000A60D1F80022824208D810B4D1F80442844205D818465DF8044B704700207047801A39
S32508000A80D1F8F44181090209615C02F003004000014101F0030101291846EBD101301318EC
S32508000AA0990803F00303615C5B0041FA03F303F00303022BF2D00001DCE700BFCC170020D7
S32508000AC02DE9F84F0B460746002800F0A680574DB5F88C42002971D0002C71D1D5F8000209
S32508000AE0D5F8F831381A4FEA101C0CF1010E4FEA830901F10F06F1454FEA161640F2938083
S32508000B00D5F8F4A14FF001084FEA9E0B0EF003031AF80BB05B004BFA03F303F00303022BAE
S32508000B2052D023B9013408EB0403B3424ED3464540D021D34444B4424DD2002A40D0C00935
S32508000B40D5F8FC311B5C0CF0070C43FA0CFC08460CF00101FFF770FE044688B34FEA08123A
S32508000B6039461AF0FBF9B5F88C3223BB3846FFF7D9FB2046BDE8F88F66443046C4444FF060
S32508000B8003094FEA900ED5F8F41100F0030311F80E405B0009FA03F3013024EA0303604507
S32508000BA001F80E30EDD1D5F89832B6089E4238BFC5F898623C462046BDE8F88F002CD6D069
S32508000BC000242046BDE8F88F08F101080EF1010EF14599D1ABE70CEB0802B444944510D954
S32508000BE002219008D5F8F44102F0030314F800E05B0001FA03F3013243EA0E039445235439
S32508000C00EFD1A6EB0802120107EB081000213C461AF0E8F92046BDE8F88F01461846BDE8E4
S32508000C20F84FFFF709BE4FF0010880E7CC17002010B58AB003A80B4CFFF784FD059B009345
S32508000C402046DDE90323084900F0C6FE069A099B019200932046DDE90723044900F0BCFE78
S32508000C600AB010BD882D0308B4EB0208D8EB02082DE9F047DFF864A14949DAF80022494869
S32508000C8000F0AAFEDAF8F811890074D0DFF85091DFF85081434F00250CE0012E46D02E226E
S32508000CA04149384600F098FEDAF8F81101358900A94260D905F00306AA064FEA4606DAF8D5
S32508000CC0F4010BD0AB08C35C43FA06F606F00306022E29D0032EE0D16D22E1E72C46A208AE
S32508000CE004F00303825C5B0042FA03F39B0702D101348C42F3D3621B7F2A0CD992092B4929
S32508000D00384600F069FEDAF8F83124F03F05B5EB830F30D2002609EA05124146384600F044
S32508000D205BFEDAF8F401CDE73D22B9E7DAF800121F4B2A018A589A4223D01E4B9A4222D071
S32508000D401D4B9A4225D01D4B9A421ED01C4B9A421BD01C4B9A421AD01B4B9A4217D01B4B30
S32508000D609A4218D01A4B9A4217D01A4B9A420CBF4D22682294E718490A48BDE8F04700F07A
S32508000D80DEBA54228CE74C228AE7532288E7412286E7442284E7462282E7422280E700BF05
S32508000DA06CEB0208882D0308B0EB02088CEB020810640308945203082C4503084061030846
S32508000DC0645E030838410308FC400308D44C0308284D0308AC54030888EB0208CC17002037
S32508000DE0F0FF0F00A8EB0208054B5B695A68824204D8801A043053F8200070471B68F5E785
S32508000E00CC170020014441F20553884204D398B2002808BF0120704710F8012B03EB4313C7
S32508000E205340F2E70448054B43610023C0F8D43100F5F07022F058BDCC17002004ED02089E
S32508000E402DE9F84F82468946FFF7DCFF134B5C6983460CB920461EE0E66804F1100808EB5C
S32508000E6086064546B5422F4601D32468F1E755F8040B03885B45F5D183784B45F2D14A467E
S32508000E80514603301AF0D4F80028EBD16068A7EB080700EBA700BDE8F88F00BFCC170020D7
S32508000EA02DE9F04780460E46FFF7CAFF024600286ED13C4CD4F8D401351D90B1D4E976134D
S32508000EC02B448B422BD92944FFF7CEF90746E8B90246D4F8DC11D4F8D401FFF7C5F9C4F89A
S32508000EE0D471802D2F4638BF80273846FFF7A1F9C4F8D40100284FD12846FFF79AF9C4F845
S32508000F00D401002847D1284607F062FFD4F8D8312B44C4F8D831D4F8D431002BE1D0D4F866
S32508000F20DC91D4F8D4A131464D444046C4F8DC51FFF768FF0AEB09070AF80900000A78701F
S32508000F40BE7032464146F81C1AF008F8BB190026DE706369D3E90253AB420FD36D00281D92
S32508000F608000FFF766F90028CDD0626902605368D268C6601344C0E9013560616369D9687D
S32508000F805A68481C0431D860013A43F8217002441046BDE8F0872F460023C4F8D871C4F898
S32508000FA0DC31BCE7CC17002010B504461AF062F801462046BDE81040FFF772BF08B5FFF781
S32508000FC013FF008808BD08B5FFF70EFF807808BD08B5FFF709FF033008BD08B5FFF704FFBE
S32508000FE083780B60033008BD2DE9F8431D46002303600B6013602B60174BDFF860905C69F4
S325080010000746884616460CB14C4505D12B68326813442B60BDE8F8833B6801333B60E2683C
S32508001020D8F800301344C8F80030E26804F1100303EB8202934207D32046FFF70DFD2B68EF
S32508001040246818442860DEE753F8041B88783168043101443160EDE7CC17002004ED02086D
S325080010602DE9F8430E4B0F4F5C69DFF83C80DFF83C900CB1BC4201D1BDE8F883E36804F172
S32508001080100505EB8306B54201D32468F1E755F8042B41460332484600F09EFCF3E700BF9C
S325080010A0CC17002004ED020890FE0208882D030838B5446803680C449C42054610D9037BE8
S325080010C0DB0703D50021074807F078FE103424F00704083421468068FFF7BBF82C60A86040
S325080010E038BD00BF6C4A030870B504460E4611461546FFF7DDFFD4E901302A4631461844F5
S3250800110019F058FF62682A44626070BD70B5466804468E42354628BF0D460121FFF7C8FFB9
S32508001120A368681C5919721B184419F043FF6368A06801336360284470BD38B50446081EAC
S3250800114008BF0120002520606560FFF767F8237BA06065F30003237338BD38B505460C46CC
S325080011600131FFF7EAFF6C6038BD0023C0E90132037B016043F001030373704738B5144606
S325080011800546FFF7DAFF024B2560636038BD00BFE9100008037BDB0710B5044602D48068B0
S325080011A0FFF764F80023A36010BD38B505461020FFF734F829460446FFF7BFFF204638BD8A
S325080011C010B5044650B1037BDB0702D48068FFF74DF82046BDE81040FFF748B810BD00007A
S325080011E038B5037BDB0704460D4603D50021074807F0E4FD016880682944FFF72AF8236876
S32508001200A0601D442560184438BD00BF6C4A030838B504460D46FFF74BFFD4E901301D44F0
S325080012206560184438BDD0E900239A4210B5044602D10121FFF7D4FFD4E901320021D154CF
S32508001240A06810BD10B50C460121FFF7E1FF047010BD7F29F8B50C46CEB204D80121FFF740
S32508001260D7FF0670F8BD06F03F06B1F5006FC1F3871546F0800607D20221FFF7C9FF65F0F4
S325080012803F0505704670EDE705F03F05B1F5803FC1F3073745F0800508D20321FFF7B8FF08
S325080012A067F01F03037045708670DBE70421FFF7AFFFA40C07F03F0364F00F0463F07F03D9
S325080012C0047043708570C670CCE738B5054608460C4619F0CFFE214602462846BDE8384013
S325080012E0FFF702BF10B51446FFF710FF047010BD10B51446FFF70AFF047010BD43688B42ED
S325080013002CBF5B1A00234360704738B5154642688A4204460B4603D929448A4201D84360F8
S3250800132038BD8068521A0144184419F043FE6268521B6260F4E70846114621F04FBE70B5AF
S32508001340054608460E4619F095FE044620B102466B68286831469847204670BD2DE9F74FEB
S3250800136001919DF8301091460D9A11F0DF0F0646A2EB09023DD030290CA9244F0EBF4FF00D
S3250800138010080F464FF0010813F0800435D002EBD2746410151B002C36DDA246D045C346E2
S325080013A0A8BFD346736830685A463946AAEB0B0A9847BAF1000FF1DCB9F1000F05D0736894
S325080013C0019930684A4698474C44002D0DDD2C44A845C146A8BFA946736830684A4639467B
S325080013E0A5EB09059847002DF2DC204603B0BDE8F08F074F4FF01008C6E713F0010501D1F5
S325080014001446C8E71546D7E70024D5E7AC2D03089B2D03082DE9F04389B007460020119D68
S325080014209DF84880139E8DF80F0002B3814219DA2D228DF80F204942109A08ACA2F10A0008
S325080014400DF1100EB1FBF3FC03FB1C12092A8CBF1218303204F8012D74450FD08B420DD81D
S325080014606146EFE7A80727D52B228DF80F200029E2D130238DF81F300DF11F0415F04009C3
S325080014809DF80F301CD023B30122CDE900822B460DF10F013846FFF761FF013E814608AA42
S325080014A0CDE900862B46121B21463846FFF756FF484409B0BDE8F0836A07D8D52022D4E79C
S325080014C0002BECD004AA9442E9D904F8013C013CE5E79946E3E700002DE9F04F93B0804688
S325080014E01E46C8079DF874301C9D06930C469146DDE91E7A0BD4A10703D12268794B9A4214
S3250800150005D0204608F02AFB400040F0010415F0810306D1069A302A03D15745B8BF574612
S325080015209A4620460AF0C5FF00280DF1280B18DBAA0712D52B238DF828300DF12903E80672
S32508001540F6B21DD5B9F1020F0DD11A46302102F8021B711C5970134612E06B0701D5202356
S32508001560E9E75B46EBE7B9F1080F60D1A9054FF030021A7045BF06F10E025A700133023341
S32508001580002215F0200F1A70A3EB0B0305930EA90CBF13462C23BAF1010F0B91C8BF45F0EC
S325080015A040051021CDE90C1215F040018DF827200791CDE9026344D0CDE9009223460DAA92
S325080015C00CA90BA80AF044FE03782D2B814606D18DF827300D9B013B00F101090D93BAF1E2
S325080015E0010F3CDD0D9C079B5445B8BF54462BB19DF8273003B10134059B1C44A7422BDD1D
S3250800160015F00103A7EB040427D126461C4625F001054EB120230093002301961A463249CE
S325080016204046FFF79BFE06463023069319E0B9F1100FA5D11A46302102F8021B06F1170140
S3250800164088E70AABCDE900930DAA23460CA90BA80AF0FEFD8146C2E700240026D7E70024F6
S325080016602646079BDBB19DF8273053B100230122CDE900320DF127014046FFF76FFE013F55
S325080016800644059B5BB100230122CDE900325946059A4046FFF762FE059B0644FF1A069B5A
S325080016A00093BAF1010FC8BF574601972B460D9A49464046FFF752FE06444CB12023009382
S325080016C0002301941A4608494046FFF747FE06440B980EAB984201D0FEF7C8FD304613B08E
S325080016E0BDE8F08FFC500308A39C03082DE9F04316468BB0B20780469946129F3CD416F012
S32508001700040F0CBF0023202300930A46139B202102A805F053FEF30504460DD5431C1F2BE8
S325080017200AD80AAA1444252204F8202C0AAA1A44002102F8201C1C4616F040051ED09DF885
S3250800174008302F2B4FF000031AD8012202A9CDE900324046FFF702FE013F0546013C0DF1BD
S325080017600901CDE90097334622464046FFF7F6FD28440BB0BDE8F0832B23C5E702A9F0E7F9
S3250800178002A91D46EDE700002DE9F04F824689B0144600260B461D4613F8012B0AB1252A8E
S325080017A0F9D1A94208D26F1ADAF80430DAF800003A4698473E4429460B78002B00F00381B9
S325080017C0013120234FF000080A4612F8015B15B94FF00A0C1DE02D2D03D148F001081146A3
S325080017E0F2E72B2D02D148F00208F8E7202D02D148F00408F3E7212D02D148F00808EEE73A
S32508001800302D22D148F040082B46E8E70CFB0525303D0F4611F8012BA2F130000928F5D9C0
S325080018202E2A3AD17A782A2A11D04FF0000B4FF00A0C0F4611F8012BA2F1300009280BD810
S325080018400CFB0B2BABF1300BF3E70025C0E754F8042B023722EAE27B3A786C2A08BF01375C
S3250800186097F80090B9F1000F00F0AD80B9F1640F00F0888026D8B9F1500F2DD010D8A9F1CA
S325080018804502022A40F28C80DAF80430DAF8000001223946984701364AE04FF0FF3BDBE794
S325080018A0B9F1620F38D048D8B9F1580FECD1A9F11709CDE90235CDF804805FFA89F30093B1
S325080018C010235DE0B9F1710F41D00BD8B9F1670F66D9B9F1700FD7D1CDE90235CDF8048006
S325080018E06123ECE7B9F1750F43D0B9F1780FDED0B9F1730FC8D1BBF1FF3F54F8049B05D1F3
S325080019004846059319F0B6FB059B8346CDE900355A464346494607E054F8042BCDE9003580
S3250800192043463AB12A4904225046FFF717FD0644791C2FE705222749F6E754F8042B8DF883
S325080019401C20CDE900350122434607A9ECE707A954F8040B0593FFF740FBBBF1FF3F059BC5
S3250800196008BFDDF81CB0CDE90035014643465A46DAE7CDE9023561230093CDF804800A235B
S32508001980002207E0CDE9023561230093CDF804800A23012254F8041B5046FFF73BFDC6E7B7
S325080019A0073424F00704F4E8020105932CF00CFFCDE9005B00EE100A059B424649465046BB
S325080019C0FFF794FEB3E7304609B0BDE8F08F00BF902D0308952D03080EB403B503AA52F8BF
S325080019E0041B0192FFF7D0FE02B05DF804EB03B0704703781A060AD503F07F03402213425D
S32508001A0007D110F8012F02F0C001802905D01846704723EA02035208F1E702F03F0242EABF
S32508001A208313EEE7421C10460132037803F0C003802BF8D070470023814201D81846704717
S32508001A4011F8012D02F0C002802A18BF0133F3E701440346002099421A4600D870471278FC
S32508001A6002F0C002802A03F1010318BF0130F2E77F289DBF024B185CC0F340000020704793
S32508001A80BD2D03087F289DBF024B185CC0F3C00000207047BD2D03087F289DBF024B185C7C
S32508001AA0C0F3800000207047BD2D03087F289DBF024B185CC0F3801000207047BD2D030846
S32508001AC07F2809D8064B1B5C13F00C0F06D1A0F15F03584258417047002070470120704727
S32508001AE0BD2D03087F289DBF024B185CC0F3001000207047BD2D03087F289DBF024B185CCC
S32508001B00C0F3401000207047BD2D030808B50246FFF7E8FF00B12032104608BD08B50246E3
S32508001B20FFF7EAFF00B1203A104608BD3038092884BF20F020000738704710B5014402463E
S32508001B40E5240020914203D8B0FA80F0400917E012F8013B30B103F0C003802B11D10138A3
S32508001B60C0B2EFE7BF2B09D9F72B09D8DB0803F0060344FA03F303F00300E3E71B06E1D596
S32508001B8010BD0020FCE7023981420B4603D31A880239002AF8D002331B1A5810704770B5C5
S32508001BA01C09944215D2121B01EB4401154603F00F030E46012D31F8024B18BF3468DC40F0
S32508001BC0A4B2013D20F8024BF3D104B9013A104670BD0022FBE7F0B5059D0024521B274676
S32508001BE0A5420FD16D00441900230D449A4214D104EB42031FB1012124F812100233181A46
S32508001C004010F0BD31F8146033F814C066443E4420F81460370C0134E2E735F813603E4402
S32508001C2024F81360370C0133E0E7F0B4049E0025921B2C46AE420AD17600851900230E44EB
S32508001C409A420FD105EB4201F0BCFFF79CBF31F815703C4433F81570E41B20F81540241408
S32508001C600135E7E736F813100C4425F8134024140133E5E72DE9F043079CDDF828E0DDE97A
S32508001C8008760239154684464FF6FF78A4EB020955B900EB42011FB1012320F81230023145
S32508001CA0BDE8F043FFF76FBF31F8024F013D4444264405EB0904AC4296BF33F8024B4FF673
S32508001CC0FF744444744486EA040E17FA8EF72CF8027B4FEA144E360C3F0CD9E738B502298A
S32508001CE00446806838BF02210D4618B12368B1EB930F07D96900FEF7ACFA2368A06065F3DE
S32508001D009F03236038BD38B505460C20FEF786FA2A78037862F300036FF3410304460370EA
S32508001D2028682368C0F39D0060F39F0323606B6863604000FEF772FAA0602A68A968C2F323
S32508001D409D02520019F00AF9204638BD10B54B0018441A4409B9084610BD30F8023D32F8E5
S32508001D60024D1B1B002B02DB04D10139F2E74FF0FF30F1E70120EFE710B5044638B18068C3
S32508001D80FEF774FA2046BDE81040FEF76FBA10BD38B505460C460221FFF7A0FF002C2B787B
S32508001DA0B4BF0122002262F300032B704FF00003B8BF64426B6004B938BDD5E90132581C29
S32508001DC0686022F81340240CF5E70023C0E900338360704728B103789B0702D48068FEF772
S32508001DE045BA704738B505460C464968FFF776FF22782B78A86862F300032B7063686B60A3
S32508001E006268A1685200BDE8384019F0A7B8034609B959607047FFF7BBBF08B5FFF7D5FF98
S32508001E20BDE80840FFF7F3BF30B4046862F39F04046004F0FC0444F0020400220470C0E9E6
S32508001E40012130BC1946FFF7E2BFF8B59DF818700421064614461D46FFF740FF8FB1002CD7
S32508001E6075F100030DDA624265EB45030120317860F3000131700021716052EA030104D102
S32508001E80F8BD22462B460020F1E7D6E901104C1C746020F81120110C41EA0341180C0A4659
S32508001EA00346EAE72DE9F04110EE106A0378F20F62F300030370C6F30F4313F4FF43074653
S32508001EC003D100237B60BDE8F081B3F5FF4FF8D0C6F3C753A3F17F04002CF2DB04D1012174
S32508001EE0BDE8F041FFF754BFB3F16F0848BFA3F16008C6F31606162C4FEA281846F4000607
S32508001F0021DCC4F11704E6400024254641463846FFF7E4FEC7F8048025B16A000021B86890
S32508001F2019F060F844B1BB6806FA04F223F81520C4F11004E6400135A845C4D0BB6823F8F0
S32508001F401560360CF7E7B3F1960504F1090448BFA3F1870504F00F042D11D7E72DE9F84322
S32508001F6004468F18C2F35B020D46511C9846089EFFF7B4FE2278002368F3000222706360F5
S32508001F8029461FFA86FCB942084602D3401BBDE8F8830278A2F13003092B01F1010105D94A
S32508001FA0A2F14103192B14D8A2F13703B342EDD2D4E901E0F0468146B8F1000F10D100EB6C
S32508001FC04E0213B120F81E300232121A52106260D9E7A2F16103192BD8D8A2F15703E5E791
S32508001FE0B9F8002002FB0C3329F8023B08F1FF381B0CE1E7F8B5044615461E46C1B1531EB0
S325080020001E444FF0FF37E9000F3109092046FFF765FE237800216FF30003237061604DB966
S32508002020D4E9011000EB4101FFF7ADFD6060F8BD0127E8E700230F2908DC32788A40134382
S32508002040013D9BB201F108013E44F4D16268501C6060A068103920F81230E0E70A46416844
S3250800206038B5044609B9506890B11378257803F0010305F00100181A0AD15368994208D3CD
S325080020800AD89268A068FFF761FEEB0748BF404238BD4FF0FF30F8E70120F6E7884210B5AF
S325080020A0044601D0FFF79EFE23786FF30003237010BD884210B5044601D0FFF793FE237839
S325080020C0C3F30002C2F1010262F30003237010BD88421FB5044601D0FFF784FE626862B9B6
S325080020E001212046FFF7FAFDA268012313806360237843F00103237010E02378D9070FD525
S325080021006FF30003A16823700123ADF80E30009308460DF10E03FFF788FD606004B010BDFD
S32508002120511C2046FFF7DAFDD4E901210123ADF80E30009308460DF10E03FFF74CFD60601C
S32508002140D6E72DE9F0470E4649680546174601B12AB931462846BDE8F047FFF743BE02F17A
S325080021600F0424092144FFF7B9FD7068A968B36817F00F0E04EB000707F1004808F1FF3872
S325080021804FEA480801EB080C08BF4FF0100E03EB40090146E2460022CEF1100E11BB6FF0B4
S325080021A0010358430CEB000922FA0EF22CF8002003FB049304F100420233013A1846520026
S325080021C018F010FF08F102080346434417B133F8022D8AB16F6032782B7862F300032B709B
S325080021E0BDE8F08739F8023D1A4322FA0EF32AF8023912040139D1E7013FE7E7F0B50E465F
S32508002200496885B00546144601B12AB931462846FFF7E8FD05B0F0BDFFF760FDD6E901213A
S325080022202346A868FFF7BBFC686031782B7861F300032B70DB070246ECD500237768ADF8D2
S325080022400E3021099F4201D08B420FD18F42E1D9B36804F00F0433F81110012303FA04F497
S32508002260013C214213D0ADF80E3008E0B06830F8130050B101238F42ADF80E30E8D8A96805
S3250800228001234AB90B806B60C4E70133DAE7BDF80E30002BBED0F2E7009308460DF10E039E
S325080022A0FFF799FC6860B5E773B553680C46496899420646154606D308D89268A068FFF708
S325080022C045FD002802DA23462C461D4623782A7861685340DB0713D401313046FFF7FEFC72
S325080022E06B680093AB68B068D4E90121FFF773FC70602278337862F30003337002B070BD0C
S325080023003046FFF7EBFC6B680093AB68B068D4E90121FFF78AFCEBE7F7B553680C46496834
S3250800232099420646154606D328D89268A068FFF70DFD002822DA234601272C461D4623780D
S325080023402A7861685340DB071AD501313046FFF7C5FC6B680093AB68B068D4E90121FFF7DB
S325080023603AFC7060237803F001030FB183F00103327863F30002327003B0F0BD0027DEE790
S325080023803046FFF7ABFC6B680093AB68B068D4E90121FFF74AFCE4E72DE9F04F15464A6843
S325080023A06B689A420E463EBF2E460B461D4633787168DB0785B0044621D42B7813F001075F
S325080023C01DD1FFF78BFCD5E9011CA068B6683B4699420BD100EB4101FFF7D5FB23786060FD
S325080023E06FF30003237005B0BDE8F08F36F813203CF813502A4020F813200133E8E701311C
S325080024002046FFF76BFC32782F78AB68009382EA0703DB4303F00103C3F1000C02F00102B4
S325080024201FFA8CF1C2F1000C02911FFA8CF10191B168D6F804E0A068A1F1020A696807F045
S325080024400107C7F10008A1EB0E011FFA88F8F44681460391BCF1000F15D100EB4E011BB135
S32508002460012320F81E300231FFF78DFB606033782A78C3F30003C2F300021340227863F353
S3250800248000022270AFE73AF802BF019981EA0B0B03990CF1FF3C5A4401EB0C0BE3459FBFFB
S325080024A0009931F802BB009188EA0B0B88BFC3465F44029902EA070B8BEA010B13FA8BF3DE
S325080024C029F8023B3F0C120C1B0CC3E72DE9F84F16464A6873689A420D463EBF35460B4618
S325080024E01E462B786968DB0704462ED4327812F001082AD1FFF7F2FBD6E9013CA9686D6853
S32508002500A768ED1A4246934210D15B00194400223B44954213D103EB4503DB1B5B106360EB
S3250800252023786FF300032370BDE8F88F31F812003CF81260304327F812000132E3E731F823
S32508002540120023F812000132E3E701312046FFF7C5FBD6E901232F7836786968A068AD68BD
S3250800256007F0010706F00106C7F10008C6F1000CA5F1020E1FFA88F81FFA8CFC0D468246D3
S325080025804FF00109A2EB010B45B900EB4101FFF7FAFA2378606043F00103C4E73EF8022F92
S325080025A0013D88EA020217440BEB0502AA4296BF33F8022B62468CEA0202164447EA0602B3
S325080025C0D24319FA82F22AF8022B360C3F0C4FEA1249D9E7F0B516464A6873689A4238BFC0
S325080025E00B460C463CBF34461E462778337861685F4017F0010785B005463AD1FFF76EFBA6
S32508002600237813F0010328D1D6E90117A2686468A868641A994210D149000A44002301441B
S32508002620A34214D101EB4301FFF7ADFA2B7868606FF300032B7005B0F0BD32F8136037F85C
S3250800264013C086EA0C0620F813600133E2E732F8136021F813600133E2E7CDE902770197A2
S3250800266073680093B368A868D4E90121FFF702FBDCE70131FFF732FB3378A868DB4303F0FD
S32508002680010303932378DB4303F0010302930123019373680093B368D4E90121FFF7EAFA53
S325080026A02B78686043F00103C4E72DE9F04F4B6885B004460E4615460BB1536823B9002313
S325080026C0636005B0BDE8F08F814234D1FFF71BFBA5420646074600D105466B6871682046CE
S325080026E01944FFF7FBFA2268A068C2F39D025200002118F077FCB368A1680193AB68D6F817
S3250800270004A002936B68039300228B1E009301EB4A0C13460398904239D163602A78337889
S3250800272053402278384663F30002227005B0BDE8F04FFFF721BB824204D1FFF7E4FA0546D3
S325080027400746CAE70027C8E738F8029F0298994430F812003BF8023B00FB0393A8F8003044
S325080027600EF1FF3E1B0CBEF1000FEDD1E6460CF1020813B1ACF80030C6460098AEEB010E55
S3250800278002304FEA6E030132C4460090C2E7DDE9008BD6460023E6E74B6870B506461446FE
S325080027A013B11378DA0702D50023736070BD636823B90121BDE87040FFF7EABA0846FFF7E5
S325080027C0A2FA05462046FFF79EFA012104463046FFF7DEFA636883B1A3681B88DB0704D5F8
S325080027E02A4631463046FFF760FFD4E9012101230846FFF7D4F9606038B92846FFF7BCFA3A
S325080028002046BDE87040FFF7B7BA2A4629462846FFF74BFFDEE72DE9F04F0C4651688FB097
S325080028209146013105460293FFF758FAD9F80420A86801325200002118F0D4FB00236B60E9
S32508002840D9F8041020460131FFF748FA49462046FFF7C8FA029B67685B680193BB4232D83E
S32508002860029BD4F808B09E68AB6803932DD3324639465846FFF76AFA002823D1039A606012
S32508002880012313806B60029A99F8003012785340DB0714D52B7843F001032B70636873B1FF
S325080028A04FF0FF310BA8FFF7B8FA0BAA29462846FFF7FAFC029A21462046FFF7F5FC0FB0B3
S325080028C0BDE8F08F01DA0023DCE7019B03F1004001384FEA400A36F81020002312F4004FA3
S325080028E003F1010152D07A009BB24FF0000E791C02F102080592C3F110022BF817E0D84479
S325080029006160DC4677460492C44543D336F8100000FA03F20492019A012A09D906EB0A00EE
S32508002920C3F1100730F8020CF840049F074304970198059A091A6960039801F1004101399C
S3250800294000EB410105910AF102010991B11E5A440891D4F804A00199514527D30AF1004A29
S325080029600AF1FF3A0BEB4A0A0020C3F11006D3457BD96FF000416B682BB15A18039830F8F1
S325080029801220002A7BD06FF000417DE0520092B20B46A3E7BCF800E00EFA03F21743049A8B
S325080029A02CF8027B2EFA02F7BFB2ADE7118832F8027C47EA01470499B7FBF1F70999511A44
S325080029C0069108990791DDF818C000218E4662450CD81088091A002941D1059921F80279C4
S325080029E005910AF1FF31023A6160B2E7079EBCF8008036F8020F0796984040EA1E4E1FFA36
S32508002A008EF07843404503D2A8EB00068E420FD80144A1EB08081FFA88F10031C8F1000662
S32508002A2018BF0121B6B201EB18412CF8026BCEE7761AB6B20021F8E738F802CF0CFA03FC9E
S32508002A404CEA1E4EB6F800C010FA8EF0604426F8020B000CB242EFD8091A013FBBE7002015
S32508002A60DDF82080069E8646F4E7BAF8002042FA03F10143B2402AF8021990B277E7013B37
S32508002A806B6078E7013B63606368002B3FF4FBAE5A183BF81220002AF4D0F4E6F0B51F4684
S32508002AA04B6885B006460C4615464BB11378DA0706D47B68012B07D1BB681B88012B03D138
S32508002AC00023736005B0F0BD01213046FFF760F96B68002BF6D02046FFF715F904462846C3
S32508002AE0FFF711F9054601A8FFF76FF96B68B3B1AB681B88DB070AD5224631463046FFF77D
S32508002B00D4FD3B463246314601A8FFF784FED5E9012101230846FFF742F8686048B901A851
S32508002B20FFF758F92046FFF727F92846FFF724F9C8E7224621462046FFF7B7FD3B462246CC
S32508002B40214601A8FFF767FED0E710B5D0E90121002301EB4202914205D30278D20748BF4D
S32508002B605B42184610BD32F8024D44EA0343F2E730B5D0E90124002304EB4202944206D3F1
S32508002B800278D20748BF5B420B60012030BDB3F5004F04D232F8025D45EA0343EEE70020F7
S32508002BA0F4E72DE9F043884661B19F18D0E901140025A4F1020E4FF00109AC461A4419B949
S32508002BC0BDE8F0831F46F1E73EF8024F0CF1100C44EA0545BCF1070F01DC0139EFE706784C
S32508002BE0ACB2F60741BFE44359FA84F4A4B24FEA1429E4B2B8F1000F09D07E1E07F8014C9F
S32508002C00B342DDD0ACF1080C2D0A3746E2E73E4606F8014B9642F4E7D0E901329FED0C0AC7
S32508002C209FED0C7A02EB43039A4205D30378DB0748BFB1EE400A704733F8021D07EE901AA0
S32508002C40F8EEE77AE0EE077AB0EE670AECE700BF00000000000080472DE9F84F44689DF8CA
S32508002C6028A00B9D8046894616469B469CB982B1561E2B4616F8012F18463AB93023037042
S32508002C80002300F8013F401BBDE8F88F03F8012BF0E72846F2E764002046FDF7BFFA224620
S32508002CA00746D8F8081018F059F9ABF13A0B28462A4607EB040CACF1020300219F421C46B0
S32508002CC033D930313929144688BF594404F8011B3B469C45194632D8BAF1000F08D0012340
S32508002CE0211A032902BF941C82F801A02046D3B13846FDF7BBFA3EB1304618F0BBF9234638
S32508002D003044B0421C4623D898F80030DB0744BF2D2304F8013B2B46621E9A421DD80023D0
S32508002D202370601BB0E72246C5E7248844EA0141B1FBF9F423F8024909FB1411BEE7098852
S32508002D4002330029C5D0BAF1000FECD00023C7E710F8012D03F8012BD3E71978107803F800
S32508002D60010B02F80119D8E7D0E9023293423DBF5A1C826018784FF0FF307047036810B56B
S32508002D80044613B14068FDF771FA2046BDE81040FDF76CBAF8B5054610200C461F46164660
S32508002DA0FDF73CFA054B8460C0E900743444C4606B60034B2860AB60F8BD00BF692D000830
S32508002DC07D2D00080369272B1DD0222B1BD0752B03D023F01002622A10D14269272A12D06D
S32508002DE0222A10D0722B09D1622A0ED18069272809D0A0F12203584258417047622B04D1A4
S32508002E004369722BF1E7012070470020704702690A2A10B5044622D1C3690133C36101238B
S32508002E20236263692361A3696361D4E9010398476369A0610D2B07D10A239842636103D1C3
S32508002E40D4E901039847A061A369013306D163695A1C03D00A2B1CBF0A23A36110BD036A1C
S32508002E60092A04BF073323F007030133D8E770B504460E4600252069431C01D1284670BDC7
S32508002E800A2808D116B1A36A002BF7D02046FFF7BEFF0125EFE7FEF7EBFD18B12046FFF73C
S32508002EA0B6FFE8E72369232B08D12046FFF7AFFF23695A1CDFD00A2BF7D1DCE75C2BDDD11D
S32508002EC063690A2BDAD12046FFF7A1FFE6E700002DE9F74F044600218164FFF7C8FFE369BA
S32508002EE0A363636A256AE563002B04DA062284F84020013304E007D0052284F84020013BDF
S32508002F00636203B0BDE8F08F90B3A36A83BBD4E90C20042384F840306FF00043D118013DB4
S32508002F2030F811108D42ECD017D9E16A8A4207D308314900FDF78DF9E36A60630833E36242
S32508002F40D4E90C32591C216322F81350636AD0E7013A2263626A013A6262226BD11830F845
S32508002F6011108D42F4D3CCD0022384F84030C8E72169481C01D10023F7E72046FFF722FFF2
S32508002F808146002800F03C81002384F840302369752B5BD0622B4ED16369722B0DBF4F46AB
S32508002FA00027012502250B2394F84020002A55D184F840303DB12046FFF729FF022D02D1C5
S32508002FC02046FFF724FF23692046222B14BF4FF027084FF02208FFF71AFF2369434540D147
S32508002FE0636998453DD12046FFF711FF2046FFF70EFF03264FF0000A04F14405D4F810B0FB
S32508003000BBF1FF3F00F0F680012E03D1BBF10A0F00F0F080B24526D3514604F14400FEF775
S325080030206DF901212046FFF722FF2046FFF7CAFE0028ACD165E7722B0CD16369622B4F4600
S3250800304015BF012502250A230B23ADE701250A230027A9E700250A232F46A5E79A42A9D0A0
S325080030604FE70126C6E7D84509D1414628460AF1010AFEF7EEF82046FFF7C9FEBEE7BBF1F7
S325080030805C0F40F0AC802046FFF7C1FED4F810A02FB15C212846FEF7DCF8D34665E0BAF127
S325080030A0620F00F0858027D8BAF14E0F6ED010D8BAF1220F1ED0BAF1270F1BD0BAF10A0F15
S325080030C061D0AAF1300BBBF1070FE2D84FF0030A66E0BAF15C0F0DD0BAF1610F6BD0BAF1D9
S325080030E0550FEED194F840200B2A1FD15C212846FEF7AFF8D3463EE0BAF1740F5ED00BD891
S32508003100BAF16E0F5DD0BAF1720F5DD0BAF1660FD7D14FF00C0B2EE0BAF1760F57D0E1D3BC
S32508003120BAF1780FCDD14FF0020A06E0BAF1750F0CBF4FF0040A4FF0080A4FF0000B11E0AD
S325080031402046FFF764FE226901921046FEF7AEFC002800F06281019A1046FEF7E7FC4FEA93
S325080031600B1B83441AF1FF3AEAD2BBF1FF3F0AD0AD4B9B4539D894F840300A2B2AD15946DC
S325080031802846FEF766F84FF0000A74E7A74806F005F82046FFF73BFE2269303A02EBCB0B8D
S325080031A06269303A072AE0D8BAF1010AF1D1DCE74FF0080BDFE74FF0070BDCE74FF0090B29
S325080031C0D9E74FF00A0BD6E74FF00D0BD3E74FF00B0BD0E7BBF1FF0F07D80B2B05D15FFAF5
S325080031E08BF12846FEF72EF8CDE74FF0010384F84030C8E7B2453CBF032284F840200BE745
S325080032000846FEF73FFC054620691DB95F2801D07F283ED9072384F8403004F14405C1B29B
S325080032202846FEF70FF82046FFF7F1FD2069421C1BD12846FDF7F7FF7D4E0746002556F816
S32508003240041B384617F024FF00281CD10D35EDB2102D84F840507FF454AE764BD3F8E43144
S32508003260002B0CBF0F230D237FE6FEF70BFC40B920695F2805D07F2803D8FEF70DFC002801
S32508003280D7D0217CCCE7FFF63CAE0135242DD6D137E6FEF701FC68B321692E2935D10923DF
S325080032A084F8403004F144063046FDF7D2FF2046FFF7ADFD09272069431C3FF422AE002D4C
S325080032C035D120F02003452B31D16521304684F84070FDF7BEFF2046FFF799FD21692B298C
S325080032E001D02D29E7D13046FDF7B3FF2046FFF78EFDE0E723692E2B04D16069FEF7CCFBD8
S325080033000028C9D100264C4D31E00823302984F84030C7D1656945F02005A5F16203162BA1
S325080033209DBF464DDD4005F001050025BAE7FEF7A9FB28B121692E290DD184F84070D2E79C
S325080033402069FEF7A9FB0028F4D123692E2BF1D05F2BCBD0D5E521F020034A2BC3D1ECE7BB
S32508003360652F01D0632F00D10135013601352F7817B12369BB42F3D12046FFF748FD0FB9AF
S325080033800123F2E5212F07D123693D2BF8D12046FFF73DFD4323E8E52E2F0FD123692E2B54
S325080033A002D163692E2B01D04C23DEE52046FFF72EFD2046FFF72BFD0C23D6E5033533465E
S325080033C015F8027C632F0FD0652F0DD01C4AD35C84F8403003F0FD02442A01D0482B14D168
S325080033E0A36A0133A3628CE515F8012C2169914206F1010607D12046FFF709FD3346652F2C
S32508003400E4D00235DCE7632FFAE7452A02D0492B7FF477ADA36A013BE4E74FF0010384F85E
S3250800342040308346A7E600BFFFFF10007E2E0308442F0308CC1700203D2E030801204000DC
S32508003440192F03087FB5064601AD542085E80E00FCF7E4FE0446034695E8070043F8046B58
S3250800346083E8070001236FF00102C4E9073200250A22C4E90B23C4E909551420FCF7CEFE36
S325080034802021606304F14400FDF757FE636B20461D80C4E905552561FFF7B9FC2046FFF733
S325080034A0B6FC2046FFF7B3FC2046FFF711FDE36B012B18BF0523204618BF84F8403004B081
S325080034C070BD30B585B001AC05462046FFF762FC94E80E002846FFF7B5FF05B030BD30B5BC
S325080034E085B001AC01460546204616F015FF2846FDF75AFD94E80E00FFF7A4FF05B030BD4C
S3250800350010B5044670B1C3684068984704F14400FDF740FE606BFCF7A9FE2046BDE8104090
S32508003520FCF7A4BE10BDD0E90432013B036152F823007047C1F17F5101F57F11036901F53E
S325080035407F513F311944436953F821007047F8B5446A06460D46B4B1D4E900030B448342BE
S3250800356022D90831002201442046FCF77DFE0246B8B9616820460831FCF776FE63682360F8
S32508003580336A63603462802D2F4638BF802707F10800FCF743FE00230760436004467062EA
S325080035A002E023682B44236060680544656008342044F8BD38B50D46D0E903138B4204464D
S325080035C008D3103189004069FCF743FEE36860611033E360D4E90432591C216142F8235032
S325080035E038BDF8B50D461F46D0E900138B420446164608D31031C9008068FCF72AFE2168B3
S32508003600A06010312160D4E901104B1C636050F8312065F3170200EBC10340F83120DE7052
S325080036205F60F8BD10B48469CAB20023A16B5DF8044BFFF7D6BF0000F7B586690F4696F8FF
S325080036404010072905461FD1D6E91210FDF728FC8E2F04460ED18100002241F0020105F1F5
S32508003660280005F075FF28B14468E30720D544F0010002E0200140F002000146284603B075
S32508003680BDE8F040FFF796BF082907D133460022D6E9121004F0FEF80446E6E7092912D161
S325080036A0009600230122D6E9121004F071F904460C212846B66BFFF74AFF40F239130660B8
S325080036C0C0E90134D9E7A1F10A03012B1CD8D6E912100A290BD8FDF7E3FB96F8403048B1BF
S325080036E00A2B0CBF06210A2141EA0010C5E7FDF7A7FBF2E7064C0748D6E912210A2B08BF85
S3250800370020460AF0E5FED2E7090141F00E00B4E740610308645E0308DE2807D010F0010361
S3250800372006D043080CBF0120002070470120704718467047FE2807D010F0010306D0430888
S3250800374014BF012000207047012070471846704710F0010204D040F001000860012070475B
S32508003760A8B110F003030FD10279392A0ED183680B6013F001000AD19A0708D11868044BC1
S32508003780C31A5842584170471046704718467047FC5003082DE9F04F2C2A85B004468846E3
S325080037A016461D460BD10021FFF7C4FE88B3810702D10379902B2CD005B0BDE8F08FA2F152
S325080037C01D03012B54D82F462A460AE01D2E42D1FFF7B0FFB0B90846FFF79EFF002808BF58
S325080037E04A4602F1FF396FB1013F39462046FFF7A1FE2369A3EB020C6369014643F82C0084
S32508003800002FE3D1002189452DD1A5EB0905012DD2D0A6F12203022B55D8691E2046FFF763
S3250800382089FE01A9FFF794FF002879D0222E37D0232E0CBF4FF016094FF01709AF1E002F23
S3250800384031DA002D40F05A81019EF30740F15B8146F001011EE0FFF75FFF0028D2D10846CE
S32508003860FFF768FFBAE72046FFF75DFE0131CAE71F2ACED10021FFF75DFE0246FFF74CFFBF
S3250800388060B91046FFF756FF0028C2D0DE212046FFF749FE2046FFF78DFE8DE7FE21F6E7AD
S325080038A04FF01509CAE739462046FFF743FE02A9FFF74EFFA0B3DDE90112484605F0A6FA93
S325080038C0013F0190BBE7A6F12503022B4BD8691E2046FFF72FFE01A9FFF73AFF00B3DFF8E5
S325080038E04CA2AF1E002FACDD791E2046FFF722FE02A9FFF72DFF98B139462046FFF71AFE2B
S32508003900C0F30710504410F8319CB9F1FF0F07D0029808F0CEFDB9F1190F17D800281ADA9D
S32508003920A91C89002046FFF712FE46EA052646600146C0F8008000F10806002DAAD0204633
S32508003940FFF7F1FD013D46F82500F6E7B9F11C0F01D90028E4D0DDE90112484605F056FAC0
S32508003960023F0190BEE7282E1BD100212046FFF7E1FD01A9FFF7ECFE0028D1D0012120464A
S32508003980FFF7D8FDC0F30710312808D032280CBF01200220019904F03BFC019051E700203D
S325080039A0F8E7052E68D100212046FFF7C3FD07460028B5D010F0030A04D1436803F0FE03F6
S325080039C0562BADD001212046FFF7B4FD00F00F03022BA5D1BAF1000FA2D13B792B2B9FD160
S325080039E0BB6803F00F02022A9AD11B09482B97D1FB68002B94D09A0792D11A792F2A8FD1BA
S32508003A00D3F808B04FEA101902A95846FFF7A0FE68B94249424807F0F7FCA1693A68096899
S32508003A200546534607F0B8FD2846FCF7D7FB4FEA8901012241F0020104F1280005F088FD04
S32508003A40029B43604846FDF7C3FA03785F2B20460BD1FFF768FD2046FFF765FD002308222C
S32508003A6019462046FFF796FEA6E6FFF75CFD59462046FFF79FFD53E72B2E7FF451AF01214F
S32508003A802046FFF757FD00F00F03022B07467FF447AF00212046FFF74DFD00283FF440AF72
S32508003AA010F003027FF43CAF0379312B7FF438AF39098900D0F808901A4841F0020105F0AD
S32508003AC047FD00283FF42CAF02AA4FEA1911406804F0CCFC029B002B3FF422AFD90707D464
S32508003AE09A077FF41DAF19680F4A91427FF418AF039A002A7FF414AF0193A2E62046FFF77C
S32508003B0012FD013D9DE60C212046FFF720FD40F2391301460560C0E90136BBE65F300308DC
S32508003B20204B0308D42F0308FC50030853350308036830B513B91360184630BD9C0702D0BA
S32508003B4010600120F9E75C68E5B28D42F8D108331360200AF1E700002DE9F04F93B0002487
S32508003B60402302904FF400700F460192CDE90534FCF754FB202307908020CDE90834FCF717
S32508003B804DFB2146CDE90A070FA8CDE90D4405F0A5FC019B002B4CD0022B0CBF3C222246AC
S32508003BA00023B96BDFF8CCB205A8FFF71AFD4FF00008069C002C00F05F81013C079BA84DE8
S32508003BC0069403EBC40253F83430D6785268C3F3170AA44B9B5D0093A34B9B5D652E88BFC1
S32508003BE043F4807305EB4305009B03F00F0903F03003102B1FD0202B51D0B8F1000F00F04B
S32508003C000481B9F1020F40F0F380012A18D000210098C00702F1FF3306D568880BEA00003B
S32508003C20B0F5805F08BF5308012B40F0DF8069B1DCE03A22B4E732B905EB4205914508D870
S32508003C404FF00108B5E7B8F1000FF5D14FF00008AFE7A84635F8023B03EA0B01B1F5805F41
S32508003C600DD197F84010C3F30B03994215D105A83146FFF7E1FC3846FFF72AF9E6E7531C2A
S32508003C804B4504D23246514605A8FFF7AAFCB8F8001005A8FFF7C6FCD8E70132CEE7B8F1E3
S32508003CA0000F0FD002F10043013B35F813300BEA0303B3F5405F1BD1002105A80392FFF79F
S32508003CC079FC039A05EB4204914525D8019B0BB1052E43D0002405EB490922464D455BD191
S32508003CE0012A7AD1009B5B0677D5002529466EE0012AA5D997F84030052B40F0EC805B49FE
S32508003D005B4807F081FB00230446BA6B396807F043FC2046FCF762FAA04634F8023B03EA25
S32508003D200B01B1F5805F17D197F84010DBB299420ED1072905D1314605A80392FFF77CFCA9
S32508003D40039A03923846FFF7C3F8039A0132BBE7002A3FF475AFCDE7531C93E7002105A896
S32508003D60FFF7E8FB0028B5D1012105A8FFF7E2FB820700F0B78000F00F000228AAD005A80C
S32508003D80FFF7D1FB05A8FFF7CEFB00230822514605A8FFF7FFFC59E739F8023D03EA0B01BC
S32508003DA0B1F5805F05D1DBB2072B97D10134013294E7214605A8FFF7BDFB00B101320134B5
S32508003DC08CE7FFF7B0FB0135002818BF0146A54205A8F6D1FFF7EEFB38E7009B1D0604D555
S32508003DE0002105A8FFF7E6FB013423463246CEE7012A3FF425AF12F001013FF409AFB9F17A
S32508003E00030F7FF477AF012102E709EA020303F0010335F8134004EA0B01B1F5805F13D10C
S32508003E2097F84010C4F30B04A14202F1010409D11BB9314605A8FFF7FFFB3846FFF748F87E
S32508003E402246E2E72246DCE6531C514605A83246FFF7C7FB214605A8FFF7E4FBA9E600BFDF
S32508003E602A3103087B300308A4340308103003081448030800F0FFFF0FA805F048FB0E9800
S32508003E8050B1416822460831FCF7EEF90E9B5A681A600D9A5A600D9397F84030002B7FF46C
S32508003EA029AF099B002B3FF425AF0A9B07981B680C93FCF7DBF90A98FCF7D8F93846FFF73F
S32508003EC01FFB0CAB93E80300029B83E80300184613B0BDE8F08F022B01D1064910E70649A1
S32508003EE006480EE700283FF4F5AE0379392B3FF446AFEFE62230030850300308204B030838
S32508003F0010B5406800B910BD4468FCF7AFF92046F8E700002DE9F041054630200E46904608
S32508003F201F46FCF794F9072D04460570C660A0F8148001D0012D10D1B368C3F30F13E38211
S32508003F4003F070FE04232061678323852020FCF765F9E0622046BDE8F081014B5B5DEEE790
S32508003F605E35030810B50446C06AFCF77FF92046BDE81040FCF77AB930B5448D00229442C2
S32508003F8002D80023184630BDC36A03EBC2035D688D42F7D00132F2E770B504460D46164666
S32508003FA0FFF7EAFFC0B9218D638D8B4208D30631C900E06AFCF74DF9238DE06206332385FF
S32508003FC0638DE26A591C02EBC300618502F83360002343704380456070BD43680BB9FFF72F
S32508003FE0CBBF1846F9E7F8B544680F462CB9F8BD032BFCD104230370F9E723465D68002DD3
S32508004000F5D07E6818463146FFF7B6FF2B460028F4D00378033B022BE9D805233B701D462D
S32508004020002231462046FFF7B7FF0378002BDFD105706468F4E72DE9F04180461F4659B1D9
S3250800404011F0030510D14E68F3B293420CD1360A01F10804B54201DBBDE8F08154F8041BC9
S325080040604046B8470135F5E740463B46BDE8F04118470000024B89689B22FFF7DCBF00BF14
S32508004080F14B0008024B89686A22FFF7D4BF00BF1366000810B50446084611462268FFF707
S325080040A039FF636A436000238360236A13B9206210BD13469A68002AFBD19860F8E7896883
S325080040C0806A0022090902F086BF8968806A02F030BF2DE9F74F06460C4691469A461BB144
S325080040E00B8B43F008030B83736AA4F820901B78002B3DD1B06A53464A46214603B0BDE859
S32508004100F04F03F0E2B8DB6A03EBC50B13F83530043B012B19D8002714E0E36A03EBC702D7
S3250800412013F83730052B0CD1DBF804105368994207D10023BBF80220B06A02F093FD08F110
S3250800414001080137638DBB42E7DC0135736A5A8DAA42D8DCB8F1000FCCD0CDF800A04B467C
S3250800416042462146B06A03F0C6F803B0BDE8F08F0025A846EAE70000F8B504460F46114619
S325080041801A46002385794669837143610D4BFFF752FFA368A3B9E18A39B1A28A2AB9A06AD5
S325080041A003F045F8A06A02F0CEFEA38AE28A39462046FFF78EFF003518BF0125A5716661E9
S325080041C0F8BD00BFCD52000870B54379012B05460C4606D1436A0A465B8B0221FFF75AFF60
S325080041E02061A268216928464B23BDE87040FFF7C3BF70B513464279012A06460C4604D11C
S325080042000A460721FFF746FFA061A569E268304643232946FFF7B0FFE88A70BD10B50446E6
S32508004220806A02F078FFA38B626A0133D18C9BB29942A38338BFD38410BD838B013B8383D9
S32508004240806A02F092BF31B1026801F00303134304BF0B680360704738B5836804460D46C5
S325080042605BB91146054807F0CFF82946A06004F10C00BDE83840FFF7E6BF38BD204B030827
S32508004280014AFFF7E9BF00BF5238030838B50B79092B0BBF058B458B084A094A4FF6FF73A8
S325080042A09D42044601D1FFF7D7FFA28BE38BA06AD21A2946BDE8384002F0FDBE3F360308DF
S325080042C05436030870B50646406A048B0D46A10706D5214A29463046BDE87040FFF7BCBFA5
S325080042E005F00F01022912D12909B3791BB1C38B0133C38302E0838B01338383012449B360
S325080043000022FFF749FE03780BB3144AE2E72979914202D1A9680909E7E7994210D1B379AF
S32508004320002BD6D10123B371A96899B11C4301F00F03022B18BF8968048309090324DEE71E
S32508004340A96844F00204048309090524D7E703230370447070BD00BF503003083D38030840
S325080043604E234D22FFF7AEBF46234522FFF7AABF10B504460021006802F001FF20680E217C
S3250800438002F068FD20680121BDE8104002F0FEBF10B504460022806A02F0DEFD002354F813
S325080043A0280F1A46194602F0CDFF2046BDE81040FFF7DEBF10B44279446A012A0B4604D1CF
S325080043C020465DF8044BFFF7E7BD22460249806A5DF8044B02F080BA3C39030810B44479BD
S325080043E0426A012C0B4604D110465DF8044B02F065BA0349806A5DF8044B02F06DBA00BFF3
S3250800440044390308436A10B55A8B0446FFF7F1FE01462046BDE81040FFF7E0BF10B44479C8
S32508004420426A012C0B4604D110465DF8044B02F045BA0349806A5DF8044B02F04DBA00BFF2
S325080044403439030837B505460C4629B1CA0705D54910806A02F01CFD03B030BD8B072CD04C
S3250800446001F00F04062C4FEA111307D00A2C0AD0022C1BD11946FFF79DFFEDE71946806A8C
S3250800448002F04CFDE8E74279042A04D01149806A02F04FFDE0E701A91846FCF79EFD0199CE
S325080044A0AC6A0AF09FFA01462046F1E7042BD3D0D9B2806A02F0CEFCCEE70968806A02F0BB
S325080044C04DFC2279044B214653F8223028469847C2E700BF54560308B83603082DE9F14FDE
S325080044E00D46A9070446164612D005F00F03022B17D129090AB1022A05D1204601B0BDE85C
S32508004500F04FFFF76BBF01B0BDE8F04FFFF752BF6968CBB22C2B72D00BD8062B0DD02B2B64
S3250800452012D0504A2946204601B0BDE8F04FFFF793BE2D2B74D09B2BF3D1002EF1D105F134
S3250800454008030A0A00217EE0022A02D0A968FFF779FFEF68002FE4D017F00309E1D17B6850
S32508004560DAB28C2AB8460DD1022E4FEA132805D007F1080A08F1FF3BD9450EDB08F1010850
S3250800458057F8288098F80430302B1FD1022E0CD1A06A02F03DFD012112E05AF8041B2046D9
S325080045A0FFF750FF09F10109E6E7D8F808102046FFF748FF012EEED1A06A02F0F0FC002155
S325080045C0A06A01B0BDE8F04F02F02BBD312BA8D1012EA06A0BD102F0D9FCD8F80810002299
S325080045E0A06A090901B0BDE8F04F02F0F4BC022E01D102F0E7FCD8F808100122F0E7A86891
S3250800460000288ED0002A8CD1C16839B311F0030324D14A68D6B2932E17D11A46816812E050
S32508004620002A7FF47EAFA96829B90B4601B0BDE8F04F00F019B88B0703D10B79902B084615
S32508004640E2D000231A462046F0E7942E03D101F10803120AE2E7AB2E3FF463AF00F1080348
S3250800466002226FE7853503082DE9F84F0F1E054690461E4614BF4FF001094FF000091DD08D
S3250800468017F003041AD13B79212B17D12146806A02F00EFE4FF0000A08F1FF3BC24510D178
S325080046A0631C29D109EB0801A86A02F0F6FD67BB06EB880846452BD1BDE8F88F4FF0FF34B7
S325080046C0E8E756F82A1071B18A070CD10B79212B09D101340AD10AEB0904ABEB0A02214620
S325080046E0A86A02F0E5FD0AF1010AD7E728460F4ABDE8F84FFFF7B0BD002FD9D02CB9B9680E
S3250800470022462846FFF7EAFED2E700223946F8E756F8041BA1454FF0000208BF89682846E4
S32508004720FFF7DCFE09F10109C4E700BFA03503082DE9F74F06460C4615461F462046FEF738
S32508004740EBFF08B1E5B904E02046FEF7F3FF38B1B5B1B06A394603B0BDE8F04F02F07CBC30
S32508004760002C54D0A30752D163684FEA132ADBB21D2B1AD1EDB1083404EB8A0A54450CD13A
S3250800478003B0BDE8F08F5B46019A59F8041B3046FFF7CEFF08F101081AE03B462A4654F816
S325080047A0041B3046FFF7C4FFE8E71E2B23D1002DE1D0D6F810B00BF1010333610AF1FF3364
S325080047C0009385F0010304F108094FF000080193009B4345D7DC0AF10101304654F8211018
S325080047E03B462A46FFF7A4FFB06A594603B0BDE8F04F02F003BB1F2B03D185F00105A4687C
S325080048009CE72C2B03D1A368002BA1D19AE721463046FFF717FEB06A3A46294603B0BDE86A
S32508004820F04F02F024BC2DE9F843066904461F46B31C03610D46806A314606F1010891462C
S3250800484002F0DCFA4146A06A02F0A8FCA96800222046FFF743FE2D690DBB49462046FFF742
S32508004860F1FD636A1978062913D1A06A294602F08DFDA06A02F09CFB3146A06A02F0ECFBE9
S32508004880A06A414602F0BAFAA06ABDE8F84302F090BCBA000532A06A02F0E5FCECE72B7966
S325080048A0AC2B07D1A968334600222046FFF740FFED68D1E7E9682046FFF7C4FDA06A01214D
S325080048C002F05DFC7B1C4A4629462046FFF7ABFFD2E700002DE9F04104460E46627100254D
S325080048E00561114646623246806A02F0F1F86779012F08BF7562F56865B1AA070AD12B79B7
S325080049003C2B07D1A9682046FFF79CFDA06A02F025FD1FE0337843B929462046FFF792FD26
S325080049200E21A06A02F096FAF0E7072B17D1012F07D10023A37143224A4BE9682046FFF7D7
S325080049407AFB20466969FFF77DFDA06A02F077F90028E5D0A06ABDE8F04102F043B9022BE8
S3250800496014D1012F07D10023A3714B223E4BA9682046FFF760FBE9682046FFF763FD338B7C
S325080049805B07C3D5A06A02F013FBC9E7033B032B3CD8012FD5F80C8005D103223946606A08
S325080049A0FFF7FAFAB7833378032B1ED101220021A06A02F03CFC3378062B1ED1A06A02F0BE
S325080049C0C2FA01212046FFF7F5FCA06A02F0BBFAA06A02F0B8FA0023AA6841462046FFF727
S325080049E022FF3378062B91D19AE7042B01D10322DDE7052BDFD10622D9E720460121FFF799
S32508004A00D9FC0121A06A02F0BAFBE4E7012F04D103220A213046FFF7BFFA17212046FFF707
S32508004A20C9FC16212046FFF7D9FCA968A06A090902F074FA1A212046FFF7D0FC2969204653
S32508004A40FFF700FD0A213046FFF796FA0378032B3FF466AF4288A06A00230A2102F002F92E
S32508004A6054E700BF694300086143000838B50C460546C968FFF7E6FCA1682846BDE83840A7
S32508004A80FFF7E0BC38B50B79332B04460D460CD18968FFF7D7FCED68AD685DB90E21A06ABA
S32508004AA002F0D8F90822022115E00E21806A02F0D1F9F1E7AB071CD12B79982B10D10E2120
S32508004AC0A06A02F0C7F9A9680029EBD02046FFF7B9FC08220321A06ABDE8384002F0A7BB3D
S32508004AE0992B06D1A9682046FFF7ACFCEB689968EAE729462046FFF7A5FCD3E710B504469E
S32508004B008968FFF79FFCA06A0021BDE8104002F088BA2DE9F041804615460C4611B1FFF73F
S32508004B2091FC012435B16E680027360A0835B74208DB34442146D8F828000022BDE8F041AA
S32508004B4002F075BB55F8041B4046FFF77BFC0137EDE70A460021FFF7DCBF2DE9F0470669FC
S32508004B60D0F818A0B0F81E900683B31C036106F10108838BA0F81A800446C38388680D4682
S32508004B80FEF7CAFDE0B927697B1C2361A868FEF7D1FD18B94146A06A02F05EFA3946A06AFF
S32508004BA002F02CF9E9682046FFF74CFC4146A06A02F024F93B460122A9682046FFF7B8FD75
S32508004BC02969C4F818A02046A4F81E90FFF73AFC3146A06ABDE8F04702F010B910B50446BE
S32508004BE08968FFF72FFCA06ABDE8104002F0E0B92DE9F04705460C4604F00F03022B05D118
S32508004C0021092846BDE8F047FFF708BC002C66D0A20764D123792B2B37D1A1682846FFF7B1
S32508004C2011FCE668002E5AD016F0030857D17768FAB28C2A334609D13F0A06F1080907F19D
S32508004C40FF3AC2450FDC013756F827301A79302A11D128469968FFF7F5FBA86A0221BDE840
S32508004C60F04702F0DEB959F8041B2846FFF7EAFB08F10108E5E7312A31D19968A86A02224B
S32508004C800909BDE8F04702F0A6B92C2B27D1A4682CB3E668EEB1B3071BD17768FAB2932AB2
S32508004CA001D1A468A8E7942A11D1A1682846FFF79FFF3F0A08360024BC4201DBBDE8F0872D
S32508004CC056F8041B2846FFF793FF0134F4E7AB2A05D0A1682846FFF78BFFE4688CE721468C
S32508004CE02846024ABDE8F047FFF7B6BABA3503084B682DE9F04106460F461D0A01F10808EC
S32508004D000024AC4201DBBDE8F08158F8041B3046FFF798FBB36843B1023406F10C0057F87C
S32508004D202410BDE8F041FFF78EBA0134E9E710B50446FFF7DDFFA06A2021BDE8104002F005
S32508004D4053BA2DE9F3470669731C0361044688680D46FEF7E1FC0246F8B927697B1C236183
S32508004D60A9683B462046FFF7E3FC2046E968FFF769FBA868FEF7DEFCE8B92B690BB96B699B
S32508004D803BB1A06A01F05BFF18B93146A06A02F063F93946A06A02F031F801AA702105F14E
S32508004DA01000FEF7C5FE0027824657450ADB69692046FFF747FB3146A06A02F01FF802B001
S32508004DC0BDE8F087019B53F82780D8F80800FEF7A3FC024608BBD4F8109009F101032361B6
S32508004DE0D8F808104B462046FFF7A2FC2046D8F80C10FFF727FBD8F80800FEF79BFC00283C
S32508004E00D9D1A06A01F01BFF18B93146A06A02F023F94946A06A01F0F1FF0137C5E770B5E2
S32508004E204379CD68012B0446164606D1436A0A465B8B3146FFF72EF9686100231A46696935
S32508004E402046FFF746F9E9682046FFF7FBFA062E03D10021A06A02F092F90023A06A1A46CA
S32508004E600121BDE8704002F062BA70B58C68054634B901222146A86ABDE8704002F0D7B9DB
S32508004E80A20730D12379902B2DD1E66806B3B3071ED13379932B05D1A168FFF7D3FA012226
S32508004EA01146E8E7942B0BD1A168FFF7CBFA31462846FFF71DFF71680122090A1144DAE743
S32508004EC0AB2B05D121460322BDE87040FFF7A7BFA1682846FFF7B6FAE1682846FFF7B2FA65
S32508004EE001220221C7E721462846D6E72DE9F04F87B0CDE90221054605AAA32103A81F46EB
S32508004F00FEF716FE4FF0000B0190D946DA465E46D846019B9B4516DB5EB1BAF1000F67D130
S32508004F20A86A02F010F8B9F1000F67D1A86A02F00AF8029BA86A002B66D0334642463946D0
S32508004F4002F000FA10E0059A52F82B40002C40D0A0073ED12279A52A0FD1F10707D52D4A8C
S32508004F6021462846FFF778F907B0BDE8F08F46F00106A2460BF1010BCBE7A62A07D1B207CC
S32508004F8001D5254AECE746F00206A146F2E7A72A1FD1E26822B1930702D11279AB2A11D061
S32508004FA0A16801F00F02022A01D01C4AD8E70909A86A01F0B3FFE1682846FFF743FA08F10C
S32508004FC00108D7E7062221462846FFF728FF0137D0E70EB1124AC3E7B8F1000F01D0114A4A
S32508004FE0BEE721462846FFF72DFA01374646C1E7DAF808102846FFF725FA94E7D9F80810CF
S325080050002846FFF71FFA94E733464246394602F08EF9A9E76F380308863803089E380308A5
S32508005020BF380308DA38030870B50D46417901290446134603D12A46FFF72CF86861A06A13
S3250800504001F09BFF6E6900231A4631462046FFF740F8F18AA06A01F061FFE96829B18B07BF
S3250800506003D10B79A22B08BF0021204602230022FFF73CFFF08A70BD436A10B55A8B0446EF
S32508005080FFF7D2FF01462046BDE81040FFF7A6B900231A468968FFF729BF00002DE9F04F9D
S325080050A0044685B0894602AA3F2109F10800FEF73FFD636A00255F8B0646A846B5420ADB63
S325080050C0D9F80C100B79032B3DD13A462046FFF790F8054647E0029B53F825A003AA6B2159
S325080050E00AF10800FEF724FD039B19680A09732A83460CD02046FFF7A5F901235B4516DB66
S32508005100DAF80C1059B12046FFF79CF907E0022807D0214A2046FFF79FF808F1010801351A
S32508005120CCE759680B09412BF3D10127F5E7039AA06A52F8231001930022090901F04BFF7E
S32508005140019B0133DAE7412B19D1D1F808903A4649462046FFF74DF8D9F81820138B43F06F
S325080051600403054613830027A6EB0806BE420BDC29462046FFF732F905B0BDE8F08F3A463D
S325080051802046FFF751FFA4E700231A460121A06A02F0CDF80137E9E76C3603082DE9F7435F
S325080051A08D680446164635B9BAB103222946A06A02F03DF811E0AB0778D12B79362B0FD157
S325080051C022B103220121806A02F031F820462946FFF738F9A06A02F03CF803B0BDE8F083AB
S325080051E09D2B63D1EB681A79A02A4FD1A12101AA03F10800FEF79CFCA9688046E9B18F07D8
S325080052001BD10B79362B18D126B1411C0322A06A02F00DF8A9682046FFF714F9A06A02F0F6
S3250800522018F84FF00109002747450CDBB9F1000FD3D1062208F10101B9E72046FFF702F9F6
S325080052404FF00009EFE7019B53F8271099B18E0711D10E79A6F13600464246412046FFF784
S32508005260F1F8B9F1000F0DD03EB9144A29462046FEF7F2FFB1E70026F0E7A06A01F0E9FF19
S325080052800137D1E7002EFBD00D4AEFE7AB684BB19A0707D11B79362B04D104222946FFF70D
S325080052A0BEFD9AE7052229462046F8E729462046FFF7C8F80622012179E700BFD2350308C3
S325080052C0EF3503080122FFF769BF000001F00F03022B70B504460ED04B6803F0F702462AC4
S325080052E002D10123837170BD472AFCD0DBB2452B0DD10D696DB9A379002BF4D1E38A002B30
S32508005300F1D02046194ABDE87040FEF7A5BFCD68F0E7A3790BB3A38A8E6801339BB2012B91
S32508005320A3820AD1E18AA06AA1B1002201F07FFF03220021A06A01F07AFF29462046FFF782
S3250800534081F8A06A310901F0E9FDA06ABDE8704001F07FBF01F0F7FDEAE7E38A0133E38261
S3250800536029462046BDE87040FFF76CB88A3603082DE9F8430C4689680646FFF763F8E56892
S32508005380002D55D06F68716AFBB209788C2BA36819BF04F10C0501273F0A0835072903F05C
S325080053A00F0249D1022A45D11A099A2A46D12A6811792F2942D19268002A3FD10A21304618
S325080053C0FEF7F8FF726AD36A528D32B929683E4A3046BDE8F843FEF73FBF5978C9070DD50B
S325080053E059683046FEF7E6FF022F0AD800231A460221B06A01F09BFF012417E0013A08339E
S32508005400E3E76B681A79312AF0D1AC6822792F2AECD19968B06A0122090901F09DFDA16889
S32508005420002301223046FFF761FD0324A74224D8BDE8F8830024F9E7022AFBD140F267226B
S32508005440B2EB131FF6D12B681A792F2AF2D19B68002BEFD013F00304ECD11B792E2BE5D10F
S32508005460234622462146B06A01F061FF2B68224699683046FFF792FEBEE704F10108B845E3
S325080054804FEA840355F8241019D20A79312A16D12B44D3F8049099F804302F2B0FD189684F
S325080054A0B06A0022090901F057FD00230122D9F808103046FFF71AFD08F10104B6E7304688
S325080054C0FEF7C0FFA046F7E727360308436A1B78072B10B50A46044606D0022B04D0074AE5
S325080054E0BDE81040FEF7B8BE20461146FFF740FF04F12800BDE81040FEF73ABF0E360308FD
S325080055002DE9F0414E68DFF840800C4689680746FEF798FF360A0225AE4201DCBDE8F08183
S3250800552021693846FEF78EFFE368B86AC3F30713313B082B94BF18F80310192101F054FE04
S3250800554002350834E8E700BF653503082DE9F0414D680C4689688046FEF774FFA5F10D0780
S32508005560FFB22D0A0C340126AE4201DBBDE8F08154F8041B4046FEF765FF3946D8F828002B
S3250800558001F032FE0136EFE72DE9F041CD6804460F461DBB0379A3B1436A1D788DB9C9219A
S325080055A0FEF708FFB9682046FEF74CFF2B462A460121A06A01F0BBFEA06ABDE8F04101F092
S325080055C0F7BCB968880700F0A78001F00F03022B40F0A9802046FEF735FFEDE7A90740F077
S325080055E095806B68DAB2562A15D10122B968FEF775FFE9682046FEF725FFAB68A06A1B0905
S32508005600503B0A2B96BF494A1421D15C01F0ECFD0222B96875E0572A23D11B0A03F1FF3839
S32508005620013355F82310FEF70DFFB8F1000F02DDA06A01F0ABFC0022B9682046FEF74EFF83
S325080056400835002646456EDA0136464502DAA06A01F09CFC002255F8041B2046FEF73EFFAF
S32508005660F0E7062A52D1BE68002E4FD0B2074DD17268D1B2062949D14FEA1228B8EB132FAA
S3250800568044D1A8F10203012B40D8B36823B1980702D11B79212B39D0F36823B1990702D119
S325080056A01B79212B32D0B8F1020F06D0336923B19A0702D11B79212B28D0A9682046FEF742
S325080056C0C1FEE9682046FEF7BDFEB8F1030F06D120462969FEF7B6FEA06A01F099FCA06AC9
S325080056E001F070FC0022B1682046FEF7F7FE0022F1682046FEF7F2FEB8F1030F13D13169B5
S3250800570000222046BDE8F041FEF7E8BE29462046FEF798FE00227CE700293FF45BAF0B79B3
S32508005720392B7FF457AFBDE8F08100BF6E35030838B50C46C9680546FEF784FEA368C3F308
S325080057400713312B08D0322B0CBF01210221A86ABDE8384001F03CBD0021F8E710B5044658
S325080057608968FEF76FFEA06A0321BDE8104001F02FBD2DE9F8434D68D0F810805FFA85F993
S32508005780A9F11D03D3F1000949EB030908F10103044603612D0A01F108060027AF4205DB5A
S325080057A04146A06ABDE8F84301F028BB56F8041B20460137FEF746FEAF42EFDA4246494681
S325080057C0A06A01F066FCE9E72DE9F8434E68DFF8C89004460D46360A8968FEF733FE032E33
S325080057E083BFD4F8108008F1010323614FF0000801277B1CB3421CDB032E4ADD2569A06A9A
S325080058006B1C2361294601F027FC4146A06A01F0F5FA0121A06A01F017FAA06A01F0D2FB85
S32508005820A06A01F0C5FB2946A06ABDE8F84301F0E5BA296920460237FEF704FEB74205DAB6
S32508005840A06A01F0A3FBA06A01F0E2FBEB68A06A03F00F020E2A11D11B09383B0B2B94BF2E
S3250800586019F80310062101F0BFFCB74204DA42460021A06A01F00DFC0835BAE71A79832A81
S3250800588001D12421EFE79B680BB90721EBE72521E9E7BDE8F88300BF793503082DE9F04157
S325080058A00569CF68AB1C0361884604462B460022B968FEF73DFF6E1CD8F808102046FEF740
S325080058C0C1FD3146A06A01F0C7FB2946A06A01F095FAA06A4FF0FF3101F0B6F9F9682046EF
S325080058E0FEF7B0FD3146A06ABDE8F04101F086BA2DE9F04F8B6803F00F03022B89B0044673
S325080059000F4640F0E980CB68002B00F0E5809D0740F0E2801A792B2A40F0DE809A6802F038
S325080059200F01022940F0D88012097C2A40F0D480DB681A792F2A40F0CF809B68069307AA56
S32508005940A32106A8FEF7F4F8431E022B00F2C480079A0128136800F0B2800228556800F0E4
S32508005960FF809668F00740F1B780720800F0B48033B1990704D11A79A53A022A40F2AC804A
S3250800598035B1AA0704D12A79A53A022A40F2A480BA6801923A69D7F8148002922769A2699F
S325080059A00492E28B03927A1C05926283A28BE28315F0010907F1040207F1020A278307F1EA
S325080059C0030B226105D1294620460593FEF73AFD059B19462046FEF735FD5946A06A01F093
S325080059E03BFB5146A06A01F009FAA06A01F0CEFA002201992046FEF771FD02992046FEF790
S32508005A0021FD791CA06A01F0F9F931462046FEF719FD0E21A06A01F0E7FBA06A594601F04A
S32508005A20EDF9A06AB9F1000F4DD101F0B8FAA06A01F0C8FA002EACBF00210121A06A01F05A
S32508005A40D3FB52460121A06A01F011FB049BA361039BE383B8F1000F3CD0A06A01F0A8FAA1
S32508005A60B9F1000F02D1A06A01F0A2FA41462046FEF7E8FC2669A06A731C3146236101F01B
S32508005A80EBFAE94301F001010131A06A01F0DCF8A06A394601F0B2F9A06A01F089FAB9F1A6
S32508005AA0000F02D1A06A01F083FAB8F1000F03D03146A06A01F0A2F909B0BDE8F08F1D46A6
S32508005AC0032603465CE701F061FA29462046FEF7B9FCAFE74646DBE72569A38BB4F81E903E
S32508005AE0E3836FEA45436FEA5343D4F818A02383EB1C23616E1CF96866832046FEF7A2FCE0
S32508005B000121A06A01F03BFB05F102083146A06A01F074F94146A06A01F040FB0022B96845
S32508005B202046FEF7DBFC20463969FEF78BFCA06A01F085F818B93146A06A01F08DFA4146D8
S32508005B40A06A01F05BF9A06A01F033FB7969C4F818A0A4F81E902046FEF774FC2946A8E756
S32508005B60032605E72DE9F0470446904699460F4621B91946BDE8F047FEF764BC0669731C39
S32508005B800361156815B315F0030A1FD12B797A2B1CD1A968FEF756FC524631462046FEF754
S32508005BA03DFB5246E9682046FEF798FC4B4608F10402791E2046FFF7D5FFA06A314601F0FE
S32508005BC0BDFA2046BDE8F047FEF737BB29462046FEF738FC204600223146FEF71FFBA06AC1
S32508005BE001F0E6F9E2E737B50C46054601AA792104F10800FDF79CFFE368019A0146284609
S32508005C00FFF7B0FF03B030BD2DE9F04F85B006691D460E9B0393731C0293B31C04460361F5
S32508005C200F46934631460222FEF7F8FA39462046FEF708FC0022711CA06A01F0BEFA3146EF
S32508005C40A06A01F0DBF8A06A01F0B1FBD4F8108008F10103236100265E4514DB2046FEF7D1
S32508005C60ECFAA06A01F0A6FB0299A06A01F0C6F803992046FEF7E6FBA06A414605B0BDE87D
S32508005C80F04F01F0BBB82B46D4F810901A68019209F101022261019A976804350136002FA8
S32508005CA03FD15E4532D1A06A01F082F94FF0000A5746019B2046D968FEF7C4FBBAF1000F13
S32508005CC016D00E21A06A01F0C5F83946A06A01F095F80E21A06A01F0BDF851462046FEF711
S32508005CE07DFB20465146FEF799FB2046FEF7A5FA01224146A06A01F060FA4946A06A01F015
S32508005D007DF80121A06A00F09FFFA5E720461D4A1968FEF7A1FA204605B0BDE8F04FFEF7E8
S32508005D208CBA17F0030327D1397975293A4626D1D368BF684FEA131AA06A01F027F93946E1
S32508005D402046FEF77FFB0821A06A01F04DFA4A460021A06A01F08BF9BAF1000FA3D0514601
S32508005D602046FEF73BFB27697A1C2261394603222046FEF753FA9CE74FF0000ADCE79A4620
S32508005D80DAE700BFFC3803082DE9F347056999466B1C17460E460361032229460446DDE959
S32508005DA00AA8FEF73BFAF7B90321A06A00F04CFF31462046FEF746FB6FF00201A06A00F071
S32508005DC043FFA06A0E2101F045F82946A06A01F015F820464146FEF735FB204602B0BDE8C6
S32508005DE0F047FEF72ABACDF800A04B463A4631462046FFF709FFE4E77FB5CD682B79772BBA
S32508005E0006460C4609D1AB6801930023009389681A46FFF7B9FF04B070BD732B03AA4FF035
S32508005E20760116D105F10800FDF782FE2B6902463BB9EB680093039BA1683046FFF7E4FED9
S32508005E40E9E79B680193EB680093A168039B3046DFE704F10C00FDF76BFE002300930246A8
S32508005E60039BE9E72DE9F74F044692469B46894629B9194603B0BDE8F04FFEF7E3BA0569A0
S32508005E802B1D036113686F1C05F10208EE1C002B00F0CA8013F0030240F0C68019797A2920
S32508005EA040F0C280996801920093FEF7CBFAA06A01F06CF8A8212046FEF76AFADDE90032A2
S32508005EC02046D968FEF70AFB032229462046FEF7A5F9A06A032100F0B7FE5B460AF1040211
S32508005EE009F1FF312046FFF7BDFFA06A6FF0020100F0AAFE0E21A06A00F0ACFFA06A01F07F
S32508005F0061F83946A06A01F0A7F82946A06A00F075FFA06A01F03AF80122A06A212100F098
S32508005F20BBFEA06A082101F05FF942460021A06A01F09DF8A06A01F029F8A06A01F068F86E
S32508005F40A06A01F03FF80022A921A06A01F004F8A06A01F05DF8A06A01F05AF8A06A01F086
S32508005F6015F800220A21A06A01F035F82546A06A01F028F8A06A0E2100F06CFF002355F807
S32508005F80280F1A46032101F0DDF92846FEF7F0F932460021A06A01F06AF8A06A01F008F834
S32508005FA0A06A0E2100F056FF3146A06A01F054F8A06A022100F048FE4146A06A00F01EFF96
S32508005FC0A06A01F025F8A06A01F022F83946A06A00F014FF0022A06AA92100F0BDFF0E2129
S32508005FE0A06A00F037FFA06A00F0D0FFA06A00F0CDFF00231A460321A06A01F0A3F9284628
S32508006000FEF7B6F9A06A00F0D3FFA06A4FF0FF3100F01AFEA06A314600F0F0FE204603B009
S32508006020BDE8F04FFEF709B919462046FEF70AFAA06A00F0ABFF2046A821FEF7A9F9A06A85
S3250800604000F0B6FF40E72DE9F04F8D682B79032B87B004460AD12946FEF7D4F9AA69138B0C
S3250800606043F00403138307B0BDE8F08F162B40F08C800669EB684FEA1318331D0361E968BF
S32508006080FEF7E0F92046AA21FEF782F941462046FEF7A4F92769A3690293BA1CE38B0193FB
S325080060A022617B1CA28B6383194606F1010BE283A06A2783039300F0A1FE022259462046DC
S325080060C0FEF7ACF841462046FEF774F92046AC21FEF75EF906F10209A96820460022FEF7BB
S325080060E0FDF900224946A06A01F067F85946A06A00F084FEA06A01F05AF9A06A00F046FFE9
S325080061000122A06A40F2812100F0C6FD06F1030AA06A082101F068F852460021A06A00F082
S32508006120A6FFA06A00F044FF01223146A06A01F044F85146A06A00F061FE0121A06A00F092
S3250800614083FD2046FEF779F8A06A01F033F94946A06A00F053FE29692046FEF773F9039BED
S32508006160A06A194600F078FF029BA361019BE3833146A06A00F042FE69692046FEF762F965
S325080061803946A06A00F03AFE6DE705AA792105F10800FDF7CDFCEB68059A01462046FFF753
S325080061A061FE60E738B5436A1B78072B04460A4606D0022B04D0124ABDE83840FEF74CB8E9
S325080061C095684DB90E21A06A00F044FEA06A0021BDE8384001F0DAB8AB070CD12B79AE2B6C
S325080061E009D12046A968FEF72DF904F12800BDE83840FEF7BDB829462046FEF723F9E5E7CF
S325080062001A390308426A1278072AF8B5044604D0174ABDE8F840FEF71FB88D6845B90E21B4
S32508006220806A00F017FEA06ABDE8F84001F096B815F003021AD12B791A2B17D10669EF68AF
S32508006240731C0361B9683346FEF772FAA9682046FEF7F8F8A06A01F081F83146A06A00F001
S32508006260CDFDF9682046FEF7EDF8DCE72946F9E723380308896830B4054619B90A4630BCFF
S32508006280FEF747BCCB688BB113F003020ED11C79932C01D18968F2E7942C01D11A46F9E7E0
S325080062A0AB2C03D1062230BCFEF7B9BD0A4628460021E4E7F8B5144BD3F8E46104460F4641
S325080062C00EBB05696B1C036101222B468968FEF72FFA1F210122A06A00F0DEFCF96841B161
S325080062E02046FEF7AFF8334632460121A06A01F01EF8A06A012101F03DF82946A06ABDE8FA
S32508006300F84000F07BBDF8BDCC17002038B58C6805462CB92146A86ABDE8384001F02AB8DD
S32508006320A3070BD123795D2B08D1A168FEF78AF8E1682846FEF786F80221ECE72146284657
S32508006340FEF780F80121E6E72DE9F74F4379012B04460D4608D10F79102F08D0436A1B783A
S325080063602BB9224AFDF778FF03B0BDE8F08F01AA6C2105F10800FDF7DBFBDFF87CB08046B4
S325080063800026B045F0DD019B606A53F8261000220909FDF701FE102F8146027815D112F091
S325080063A0FD0F05D05A4629462046FDF755FF0AE04FF0020A80F800A04168606AFDF70DFE72
S325080063C008B180F800A00136DBE75AB9012202700146606AFDF707FE99F80030012BF2D183
S325080063E0034AE0E7052AEED0024ADCE7A0370308E437030802380308C53703082DE9F04FD6
S3250800640087B0814600AF0C4611B90121116013E011F0030619D10B79672B06D1CB681B09E7
S3250800642013608C68002CF0D0012604F00F03022B0DD12109002EE9D00022D9F8000000F0CF
S32508006440ECFC1C37BD46BDE8F08F0026EDE716B9A3681B09136063684FEA132804F1080322
S3250800646008F1FF3AFB609B460025A84526DC0AF1070323F00703ADEB030DC7F808D06D4678
S325080064804FF0000BD84521DC5146B868FAF708FD00220146D9F8000000F0BFFC002ED0D02A
S325080064A00C340125A845CCDD54F8041BD9F800000022090900F08FFD0135F3E75BF8040B74
S325080064C00009FAF780FD01358244CEE7BBF1000F03D04FF02E0305F8013BFB6853F8040B92
S325080064E0FB6007F114010009FAF777FD7B697B601A460146284614F031FD7B680BF1010BC7
S325080065001D44BFE72DE9F3418C6804F00F030E2B05460F4606D0002C40D0A3073ED12379E2
S32508006520642B2DD10094002401AA64216846FDF7FFFA0023019A194640F2CE4C834225DB0F
