:020000040800F2
:1000000000500020899100085D8800086188000880
:100010007D880008818800089D8800080000000095
:10002000000000000000000000000000B988000887
:10003000BD88000800000000C1880008C5880008CD
:10004000D1910008D1910008D1910008D191000808
:10005000D1910008D1910008D1910008D1910008F8
:10006000D1910008D1910008D1910008C9880008F9
:10007000D1910008D1910008D1910008D1910008D8
:10008000D1910008D1910008D1910008D1910008C8
:10009000D5880008D1910008D1910008D1910008BD
:1000A000D1910008D1910008D1910008D1910008A8
:1000B000D1910008E1880008D1910008D191000891
:1000C000D1910008D1910008D1910008D191000888
:1000D000D1910008ED880008D1910008D191000865
:1000E000D1910008D1910008D191000800000000D2
:1000F0000000000000000000000000000000000000
:0C01000000000000000000005FF808F1A3
:10010C000348044B834202D0034B03B1184770479A
:10011C00F0010020F0010020000000000548064915
:10012C000B1AD90F01EBA301491002D0034B03B1F9
:10013C0018477047F0010020F0010020000000007B
:10014C0010B5064C237843B9FFF7DAFF044B13B113
:10015C000448AFF300800123237010BDF001002090
:10016C000000000044B2000808B5044B1BB1044960
:10017C000448AFF30080BDE80840CFE70000000062
:10018C00F401002044B20008F8B504460D4600F016
:10019C0029F8134B064693F900300F4601330DD066
:1001AC0022462B462046294600F030FD30B9204629
:1001BC0029460022002300F001FD10B930463946D3
:1001CC00F8BD01F0B7FC002200232121016010468C
:1001DC00194600F0ABFB06460F4630463946F8BDD3
:1001EC00040000202DE9F0415C4E0C468E43054680
:1001FC0000F09C8000290B46024652DD5FEA215E2E
:10020C0000F0A580C3F31303AEF2FF3E43F480135A
:10021C00D10F1EF0010F01EB43034FEA420403D050
:10022C00E40F04EB430394004FF0000C16256646D4
:10023C004FF400124FEA6E0EB118994202DC5B1AB1
:10024C008E1894445B00013D03EBD4734FEA5202C9
:10025C004FEA4404F0D12F4620204FF0004209E031
:10026C0041D0E10F01384FEA520201EB43034FEA50
:10027C00440441D0B34202EB0501F1DD002901EB4E
:10028C00020509DBB0469B1BA14288BF03F1FF337B
:10029C004646641A1744E4E7002DF3DB06F1010827
:1002AC00F1E721F00046064337D0002948D1D40AA3
:1002BC00153B52052146002CF9D0E50249D400200B
:1002CC0000E028464900CC0200F10105F9D50C46A6
:1002DC001146AA40C5F1200521FA05F5A3EB000E45
:1002EC0045EA04038EE7A142BBD8002901EB0205C5
:1002FC00D2DB98460023CBE7234310D178084FEA92
:10030C006C0303F17F5303F5001303EB0E573946CF
:10031C001CF0010F18BF40F00040BDE8F0817B1CC1
:10032C0016BF781C0CF1010C4008E8E702460B469E
:10033C0000F0D2F92A46234600F018F8BDE8F08107
:10034C0000F012F802460B4600F0F0FAE5E77346AF
:10035C00B5E7114620254FF0FF30BDE70000F07FD8
:10036C0081F0004102E000BF83F0004330B54FEA5A
:10037C0041044FEA430594EA050F08BF90EA020FC7
:10038C001FBF54EA000C55EA020C7FEA645C7FEA5A
:10039C00655C00F0E2804FEA5454D4EB5555B8BF7D
:1003AC006D420CDD2C4480EA020281EA030382EAEE
:1003BC00000083EA010180EA020281EA0303362D80
:1003CC0088BF30BD11F0004F4FEA01314FF4801C53
:1003DC004CEA113102D0404261EB410113F0004F65
:1003EC004FEA03334CEA133302D0524263EB43031C
:1003FC0094EA050F00F0A780A4F10104D5F1200EBA
:10040C000DDB02FA0EFC22FA05F2801841F1000114
:10041C0003FA0EF2801843FA05F359410EE0A5F1E8
:10042C0020050EF1200E012A03FA0EFC28BF4CF019
:10043C00020C43FA05F3C01851EBE37101F00045CF
:10044C0007D54FF0000EDCF1000C7EEB00006EEBDC
:10045C000101B1F5801F1BD3B1F5001F0CD3490866
:10046C005FEA30004FEA3C0C04F101044FEA4452BD
:10047C0012F5800F80F09A80BCF1004F08BF5FEA44
:10048C00500C50F1000041EB045141EA050130BD24
:10049C005FEA4C0C404141EB0101013C28BFB1F536
:1004AC00801FE9D291F0000F04BF01460020B1FA81
:1004BC0081F308BF2033A3F10B03B3F120020CDA54
:1004CC000C3208DD02F1140CC2F10C0201FA0CF032
:1004DC0021FA02F10CE002F11402D8BFC2F1200C97
:1004EC0001FA02F120FA0CFCDCBF41EA0C0190404D
:1004FC00E41AA2BF01EB0451294330BD6FEA040496
:10050C001F3C1CDA0C340EDC04F11404C4F1200280
:10051C0020FA04F001FA02F340EA030021FA04F392
:10052C0045EA030130BDC4F10C04C4F1200220FAE9
:10053C0002F001FA04F340EA0300294630BD21FA27
:10054C0004F0294630BD94F0000F83F4801306BFED
:10055C0081F480110134013D4EE77FEA645C18BFE1
:10056C007FEA655C29D094EA050F08BF90EA020F78
:10057C0005D054EA000C04BF1946104630BD91EA70
:10058C00030F1EBF0021002030BD5FEA545C05D173
:10059C004000494128BF41F0004130BD14F58004B2
:1005AC003CBF01F5801130BD01F0004545F0FE4126
:1005BC0041F470014FF0000030BD7FEA645C1ABF5B
:1005CC00194610467FEA655C1CBF0B46024650EA92
:1005DC00013406BF52EA033591EA030F41F40021BE
:1005EC0030BD00BF90F0000F04BF0021704730B544
:1005FC004FF4806404F132044FF000054FF0000119
:10060C0050E700BF90F0000F04BF0021704730B5D9
:10061C004FF4806404F1320410F0004548BF4042AE
:10062C004FF000013EE700BF42004FEAE2014FEA03
:10063C0031014FEA02701FBF12F07F4393F07F4FDE
:10064C0081F06051704732F07F4208BF704793F0E1
:10065C007F4F04BF41F40021704730B54FF46074F4
:10066C0001F0004521F000411CE700BF50EA0102F7
:10067C0008BF704730B54FF000050AE050EA0102A0
:10068C0008BF704730B511F0004502D5404261EB10
:10069C0041014FF4806404F132045FEA915C3FF451
:1006AC00D8AE4FF003025FEADC0C18BF03325FEAEE
:1006BC00DC0C18BF033202EBDC02C2F1200300FA9F
:1006CC0003FC20FA02F001FA03FE40EA0E0021FAC4
:1006DC0002F11444BDE600BF70B54FF0FF0C4CF4B2
:1006EC00E06C1CEA11541DBF1CEA135594EA0C0F64
:1006FC0095EA0C0F00F0DEF82C4481EA030621EA9F
:10070C004C5123EA4C5350EA013518BF52EA0335D9
:10071C0041F4801143F4801338D0A0FB02CE4FF08B
:10072C000005E1FB02E506F00042E0FB03E54FF0BB
:10073C000006E1FB03569CF0000F18BF4EF0010EB3
:10074C00A4F1FF04B6F5007F64F5407404D25FEAAF
:10075C004E0E6D4146EB060642EAC62141EA555162
:10076C004FEAC52040EA5E504FEACE2EB4F1FD0CA4
:10077C0088BFBCF5E06F1ED8BEF1004F08BF5FEA22
:10078C00500E50F1000041EB045170BD06F00046D4
:10079C0046EA010140EA020081EA0301B4EB5C0481
:1007AC00C2BFD4EB0C0541EA045170BD41F4801179
:1007BC004FF0000E013C00F3AB8014F1360FDEBF9E
:1007CC00002001F0004170BDC4F10004203C35DA7A
:1007DC000C341BDC04F11404C4F1200500FA05F3FD
:1007EC0020FA04F001FA05F240EA020001F000429E
:1007FC0021F0004110EBD37021FA04F642EB060114
:10080C005EEA430E08BF20EAD37070BDC4F10C043D
:10081C00C4F1200500FA04F320FA05F001FA04F201
:10082C0040EA020001F0004110EBD37041F10001ED
:10083C005EEA430E08BF20EAD37070BDC4F12005F8
:10084C0000FA05F24EEA020E20FA04F301FA05F260
:10085C0043EA020321FA04F001F0004121FA04F208
:10086C0020EA020000EBD3705EEA430E08BF20EAD8
:10087C00D37070BD94F0000F0FD101F00046400012
:10088C0041EB010111F4801F08BF013CF7D041EA94
:10089C00060195F0000F18BF704703F00046520098
:1008AC0043EB030313F4801F08BF013DF7D043EA69
:1008BC000603704794EA0C0F0CEA135518BF95EA1F
:1008CC000C0F0CD050EA410618BF52EA4306D1D1A6
:1008DC0081EA030101F000414FF0000070BD50EAC5
:1008EC00410606BF1046194652EA430619D094EA4F
:1008FC000C0F02D150EA013613D195EA0C0F05D139
:10090C0052EA03361CBF104619460AD181EA03018C
:10091C0001F0004141F0FE4141F470014FF0000044
:10092C0070BD41F0FE4141F4780170BD70B54FF0DF
:10093C00FF0C4CF4E06C1CEA11541DBF1CEA13555F
:10094C0094EA0C0F95EA0C0F00F0A7F8A4EB050441
:10095C0081EA030E52EA03354FEA013100F0888038
:10096C004FEA03334FF0805545EA131343EA126301
:10097C004FEA022245EA111545EA10654FEA0026B6
:10098C000EF000419D4208BF964244F1FD0404F56F
:10099C00407402D25B084FEA3202B61A65EB0305CB
:1009AC005B084FEA32024FF480104FF4002CB6EB88
:1009BC00020E75EB030E22BFB61A754640EA0C0008
:1009CC005B084FEA3202B6EB020E75EB030E22BF48
:1009DC00B61A754640EA5C005B084FEA3202B6EB89
:1009EC00020E75EB030E22BFB61A754640EA9C0048
:1009FC005B084FEA3202B6EB020E75EB030E22BF18
:100A0C00B61A754640EADC0055EA060E18D04FEAD5
:100A1C00051545EA16754FEA06164FEAC30343EA75
:100A2C0052734FEAC2025FEA1C1CC0D111F4801F42
:100A3C000BD141EA00014FF000004FF0004CB6E73B
:100A4C0011F4801F04BF01430020B4F1FD0C88BFDA
:100A5C00BCF5E06F3FF6AFAEB5EB030C04BFB6EBE5
:100A6C00020C5FEA500C50F1000041EB045170BDD8
:100A7C000EF0004E4EEA113114EB5C04C2BFD4EB05
:100A8C000C0541EA045170BD41F480114FF0000E89
:100A9C00013C90E645EA060E8DE60CEA135594EA05
:100AAC000C0F08BF95EA0C0F3FF43BAF94EA0C0F08
:100ABC000AD150EA01347FF434AF95EA0C0F7FF47D
:100ACC0025AF104619462CE795EA0C0F06D152EAD1
:100ADC0003353FF4FDAE1046194622E750EA4106B5
:100AEC0018BF52EA43067FF4C5AE50EA41047FF4C6
:100AFC000DAF52EA43057FF4EBAE12E74FF0FF3C2B
:100B0C0006E000BF4FF0010C02E000BF4FF0010CFB
:100B1C004DF804CD4FEA410C7FEA6C5C4FEA430C74
:100B2C0018BF7FEA6C5C1BD001B050EA410C0CBFC3
:100B3C0052EA430C91EA030F02BF90EA020F002025
:100B4C00704710F1000F91EA030F58BF994208BF8C
:100B5C0090422CBFD8176FEAE37040F00100704749
:100B6C004FEA410C7FEA6C5C02D150EA013C07D1A0
:100B7C004FEA430C7FEA6C5CD6D152EA033CD3D0EB
:100B8C005DF8040B704700BF8446104662468C46E5
:100B9C001946634600E000BF01B5FFF7B7FF002818
:100BAC0048BF10F1000F01BD4DF808EDFFF7F4FF41
:100BBC000CBF012000205DF808FB00BF4DF808EDCC
:100BCC00FFF7EAFF34BF012000205DF808FB00BFEF
:100BDC004DF808EDFFF7E0FF94BF012000205DF811
:100BEC0008FB00BF4DF808EDFFF7CEFF94BF0120C6
:100BFC0000205DF808FB00BF4DF808EDFFF7C4FFBF
:100C0C0034BF012000205DF808FB00BF4FEA410C07
:100C1C007FEA6C5C02D150EA013C0AD14FEA430CEA
:100C2C007FEA6C5C02D152EA033C02D14FF0000027
:100C3C0070474FF0010070474A0011D212F50012B4
:100C4C0011D20DD56FF47873B3EB62520ED44FEA18
:100C5C00C12343F0004343EA505323FA02F0704798
:100C6C004FF00000704750EA013002D14FF0FF30D6
:100C7C0070474FF00000704703685A004CBF43F0B8
:100C8C00004323F000431844704700BF2DE9F8439C
:100C9C0029B34F1E044615463E464FF0000808EB9C
:100CAC00060101EBD171491004EBC1094846FFF76D
:100CBC00E3FF0346C80008308F42204409D0AB4202
:100CCC0009D8FFF7D9FF0138A8420AD201F101086F
:100CDC00E5E7AB4205D9884501D04E1EDFE74FF062
:100CEC0000094846BDE8F883012807D0022807D040
:100CFC00044B00280CBF1846002070470248704770
:100D0C0002487047B9130008BD130008C11300084E
:100D1C0030B5244B044683B08D1E3BB3284601A945
:100D2C00AFF30080E8B101992A46FFF7AFFF014607
:100D3C00B8B1FFF7A1FF4B68A064012B2DD0002B9D
:100D4C0026DB081DFFF798FF0023C4E91303036893
:100D5C00002B12DBFFF790FF03460020236103B04A
:100D6C0030BD00230920236103B030BD0E4B0F4969
:100D7C001846C91AC9100191D6E7C3F30360FFF7EF
:100D8C00B3FF0028206114BF0020092003B030BD40
:100D9C000123081DC4E91303D9E7002305202361AF
:100DAC00DDE700BF00000000C8BE0008B0C00008AE
:100DBC00036810B5DA07044606D49B0700F1480017
:100DCC0009D500F041FC2368590709D51A070ED53F
:100DDC00DB0613D510BD00F02FFC23685907F5D4A2
:100DEC0004F1D00000F038FC23681A07F0D404F5A5
:100DFC00A87000F039FC2368DB06EBD404F5E8702E
:100E0C00BDE8104000F074BC0346006800B1184403
:100E1C00704700BF09207047704700BF70B504468B
:100E2C000E462046316CFFF773FF054688B9326CCD
:100E3C002146626101203246236998470828F0D088
:100E4C00072806D12846316CFFF7E6FF301D00F06D
:100E5C00E7FB00F059FE00BF2DE9F04706464FF0C6
:100E6C00000CADF5727D03AD0C1D91460FCC0FC57A
:100E7C000FCC0FC50FCC0FC594E80F00F768D6F850
:100E8C00188085E80F0002ADC5F800C021E02B6C7E
:100E9C004FF4F072736129467AA800F0CBFE31460C
:100EAC0034697AAA5046A047889BCDE9005804467D
:100EBC006B644946334632460120B8470346F0B9C5
:100ECC004FF4F07228467AA9994600F0B3FE082C2C
:100EDC001BD13046296CFFF71BFF09F109090446A9
:100EEC005FFA89FA0028D2D0AB6B3246CDE90058B4
:100EFC0001206B644AF010013346B84700B1092455
:100F0C0020460DF5727DBDE8F087072CF7D14846D9
:100F1C00296CFFF781FF03A800F082FB406C70473F
:100F2C004FF0FF3CF0B5CB6BF9B00B640E1D01AC70
:100F3C000F4605460FCE0FC40FCE0FC40FCE0FC4F5
:100F4C0096E80F0084E80F00CDF800C006E06A4672
:100F5C0029462B6998470828044608D12846109939
:100F6C00FFF7D6FE0028F2D0092079B0F0BD684614
:100F7C00FFF71EFF062CF7D139462846FFF74EFF28
:100F8C0030B4DD6BC160826119461D64002230BC37
:100F9C0062E700BF70B54369C6680B64AEB90A4618
:100FAC00036904460D46014602209847072805D0E0
:100FBC0008280FD129462046FFF730FF3046296C10
:100FCC00FFF72AFF281D00F02BFB0122FFF744FF3F
:100FDC0000F09AFD00F098FDC2682AB110B4CC6BF9
:100FEC0000220C6410BC37E79AE700BF704700BFC3
:100FFC00836801460BB1012018477047012912D0B4
:10100C0009D873B90F2A0CD800EB82004268184635
:10101C00009B1A6070470339012994BF01200220FC
:10102C007047022070470846704700BF002310B578
:10103C0084B003AC0A4600941946FFF7DFFF03980F
:10104C0004B010BD012912D009D873B90F2A0CD8DD
:10105C00009900EB82020968184651607047033909
:10106C00012994BF012002207047022070470846D6
:10107C00704700BF30B500230D4685B003AC03921A
:10108C0019462A460094FFF7DDFF05B030BD00BFBE
:10109C004FF0FF3CF0B5D36BADF50F7D1364151D10
:1010AC0017AC07460E460FCD0FC40FCD0FC40FCD96
:1010BC000FC495E80F0084E80F00CDF858C012E07B
:1010CC000C2116A86A46FFF7D5FF314616A8B8477B
:1010DC0078B969460820049B16AA98470528044647
:1010EC0008D0092805D068462699FFF711FE00287C
:1010FC00E6D0092416A8FFF75BFE20460DF50F7D00
:10110C00F0BD00BF2DE9F04FCC6C174654F8042B02
:10111C0089B00D461E4600F003080694002B79D0CA
:10112C000221130C8DF81D301204DBB204EB830486
:10113C0005928DF81C102B6DB8F1020F08BFAC6B2B
:10114C0013F001030CD0384605A900F06BFB18B95D
:10115C00082009B0BDE8F08F092009B0BDE8F08F78
:10116C00D4F800A0BAF1000FEDD0019300F0080301
:10117C000293022E4AD0B4F800A0B4F802900434C2
:10118C00AA6C0F21384629F0010B9344FFF74EFF50
:10119C00834539D82AF001025A44824294BF002078
:1011AC0001204FEA490303F002030AF0010A43EA63
:1011BC000A03012B49D0022B32D0002BCCD1B8F131
:1011CC00000F02D0002840F0CD800434D4F800A0E9
:1011DC00BAF1000FCDD1384605A900F023FB002849
:1011EC00BAD1019B002BB3D00F213846FFF71EFF5D
:1011FC000E2102463846FFF73DFF38460F216A4A5A
:10120C00FFF738FF0720A8E70020CAE7D4F80490BE
:10121C000834B5E7032312020592ADF81C308AE7B7
:10122C00236823F0004BB8F1000F45D128B1029A86
:10123C00002A5CD0BBF1000F74D0002B00DA043410
:10124C000BF1010B04EB8B04C0E7B8F1000F19D1C3
:10125C00B0B1D4E90023991C4FEAD2723FF47CAFB1
:10126C0005F158010133049100F09080201DFFF727
:10127C00CBFD04AB0146284609F04AFB00285BD1A4
:10128C000834A3E70D213846D5F82090FFF7CEFEA1
:10129C008145F5D1AB6A9C42F2D12046FFF7ECFCBC
:1012AC000F2102463846FFF7E5FE38462A46002154
:1012BC00FFF7E0FE072050E70D213846D5F82090C7
:1012CC00FFF7B4FE814501D02368B6E7AB6A9C42B8
:1012DC00FAD104220021C5E90B12A318C5F828B0D5
:1012EC006B6323688B4259DB01230193A8E705F15B
:1012FC005803CDF80C809146B04604F1040A1E4602
:10130C000EE050460496FFF77FFD0022014604AB29
:10131C00284609F0FDFA09F101090AF1040AE0B9BD
:10132C00D945EED138460D21FFF780FE049B28628B
:10133C00C5E90934062010E781460D213846FFF730
:10134C0075FEB9F1020F286225D12B46049A43F899
:10135C002C2F6B620620AC62FFE646462368DDF854
:10136C000C806AE72046FFF787FC02460434AC6326
:10137C002846144609F02AFB00283FF4EDAE384607
:10138C0022460F21FFF776FE0720E6E638460D21B0
:10139C00FFF74CFE2862049B6B62DBE70BF101004C
:1013AC0004EB80007AE700BF85B100080023A9E6B2
:1013BC000123A7E60223A5E62DE9F04306461546D0
:1013CC001C46C3B0042900F2B280DFE801F096504D
:1013DC00B0270300002C40F0AA80102A00F2A7804E
:1013EC000368D80600F1EB8020AF384600F08AF98C
:1013FC0000230120B26B00FA03F129421CBF52F802
:10140C00041B47F823100133042BF4D13846B26384
:10141C0000F06EF9002043B0BDE8F083032C40F0DF
:10142C00868094B204EB1243102B4FEA12457ED8FF
:10143C0003681F0700F1CB8020AF384600F036F967
:10144C0007EBC501B56B54B10B4601EBC401E81AAF
:10145C00E4001A5843F8042B8B42FAD12544384641
:10146C00B56300F001F9002043B0BDE8F083012C16
:10147C004FEA124895B256D0052C58D108EB050905
:10148C00B9F1200F53D8B8F10F0F73D9A946002D1D
:10149C0040F08480B36B65B320AF4FF0000907EBCD
:1014AC00C807043F03EBC50553F8041BAB4247F8D0
:1014BC00041FF9D1B9F1000F0FD06F464146102926
:1014CC0038BF102107EBC101843903EBC90553F870
:1014DC00040BAB4241F8040FF9D1012C7FD0B8F1C9
:1014EC000F0FB56342D9B9F1000F02D0684600F076
:1014FC00B3F8002043B0BDE8F083C4B923460124FF
:10150C00826B371DA8B204FA03F101421CBF52F8DA
:10151C00041B47F823100133102BF4D115F40050A1
:10152C00E7D1B26304E008EB0503102B03D90220CA
:10153C0043B0BDE8F083B8F10F0FF8D83368DA0781
:10154C0006D5304623F0030340F8483B00F078F80A
:10155C0020AF384600F074F8B36B002D9DD11D46BA
:10156C0004353846B56300F067F8C2E720A800F0F0
:10157C006BF8B8E7B9F1100F3FD9A9F1100933682E
:10158C00D90708D5304623F0010343F0020340F895
:10159C00483B00F05DF8B9F1000F31D033685A07C1
:1015AC001FD4B8F10F0F24D96F46C8F11005384677
:1015BC0000F056F8002DB36B80DD20AF6FE723F001
:1015CC001003336006F5E87000F09CF80CE723F08C
:1015DC000803036000F5A87000F068F82CE720AF52
:1015EC00BEE7304623F0040340F8D03B00F038F857
:1015FC00D7E720A800F02CF8D6E74FF00009BEE79B
:10160C00B8F10F0F3FF646AF20AF384600F020F888
:10161C00B36B002D7FF441AF384600F015F868E746
:10162C0000F1340191E838009C46A6464CF8045D64
:10163C0090E8FF0FE54600BD90EC210B704700BF12
:10164C0080EC210B704700BF90EC200B704700BF63
:10165C0080EC200B704700BFD0EC200B704700BF14
:10166C00C0EC200B704700BFF0EC0201F0EC021153
:10167C00F0EC0221F0EC0231F0EC0241F0EC025102
:10168C00F0EC0261F0EC0271F0EC0281F0EC0291F2
:10169C00F0EC02A1F0EC02B1F0EC02C1F0EC02D1E2
:1016AC00F0EC02E1F0EC02F1704700BFE0EC02015B
:1016BC00E0EC0211E0EC0221E0EC0231E0EC024142
:1016CC00E0EC0251E0EC0261E0EC0271E0EC028132
:1016DC00E0EC0291E0EC02A1E0EC02B1E0EC02C122
:1016EC00E0EC02D1E0EC02E1E0EC02F1704700BF6B
:1016FC00B0FC0181B0FC0191B0FC01A1B0FC01B1C6
:10170C00704700BFA0FC0181A0FC0191A0FC01A1CD
:10171C00A0FC01B1704700BFEC4600B52DE90050AC
:10172C002DE9FF1F4FF000032DE90C0001A9FFF775
:10173C00F7FBDDF840E012B0704700BFEC4600B597
:10174C002DE900502DE9FF1F4FF000032DE90C008F
:10175C0001A9FFF71FFCDDF840E012B0704700BF95
:10176C00EC4600B52DE900502DE9FF1F4FF00003AA
:10177C002DE90C0001A9FFF72FFCDDF840E012B0B9
:10178C00704700BFEC4600B52DE900502DE9FF1F56
:10179C004FF000032DE90C0001ABFFF7F1FBDDF876
:1017AC0040E012B0704700BFEC4600B52DE9005088
:1017BC002DE9FF1F4FF000032DE90C0001AAFFF7E4
:1017CC0067FCDDF840E012B0704700BF027A7AB9CE
:1017DC00437AA3B103214268013B10B443721368EE
:1017EC00141D01721A024460026010BC180E70477E
:1017FC000368013A02721A020260180E7047B02098
:10180C00704700BF002300B585B003AA00921946AB
:10181C000C22FFF7F3FB039805B05DF804FB00BF47
:10182C00F0E700BF2DE9F04305460E464FF00008E7
:10183C0085B03046FFF7CAFFB028044600F0B180EF
:10184C00070620D500F0F003802B4DD0902B36D01E
:10185C00A02B60D0B02B73D0C02B00F08A8000F08E
:10186C00F803D02B0BD100F00702013242F4002216
:10187C00052301212846FFF79FFD0028D9D0092018
:10188C0005B0BDE8F08300230DF10C0919460D22BB
:10189C008700CDF800902846FFF7B0FBFFB2039B02
:1018AC00043760064CBFDF1BFF1800230D221946BE
:1018BC002846CDF800900397FFF7C4FBB9E700F07A
:1018CC000D030D2BDBD0002303AF194600F00F02E4
:1018DC0000972846FFF792FB00230D221946284655
:1018EC000097FFF7AFFBA4E73046FFF76FFF24022A
:1018FC002043B0F5004FC2D00023040119462846FE
:10190C00A2B2FFF759FD0028B9D114F4004F18BF4B
:10191C004FF001088DE7C3434FF47F6203F00703D8
:10192C001A410023010702F47F6248BF42F480424F
:10193C0019462846FFF740FD00283FF47AAF9EE792
:10194C00B12833D0B22800F08B80B32839D000F006
:10195C00FC03B42B93D0012300F007021A4442F489
:10196C00002219462846FFF727FD00283FF461AFF7
:10197C0085E7C62842D0C7284CD000F0F803C02B0E
:10198C005BD0C82860D0C9287FF479AF3046FFF708
:10199C001DFF020300F00F0002F47022013002431D
:1019AC0066E7B8F1000F18D0002069E73046FFF762
:1019BC000DFF024600283FF462AF10F0F003D0D0C8
:1019CC005DE73046FFF702FF0123010300F00F0033
:1019DC0001F47021C2180A43C3E703AC43460E223C
:1019EC00414628460094FFF709FB284643460F2240
:1019FC0041460094FFF726FB404641E73046FFF78F
:101A0C00E5FE010300F00F0001F47021421C0323DA
:101A1C000A43A6E73046FFF7D9FE024600283FF4FA
:101A2C002EAF10F0F0037FF42AAF04212846FFF705
:101A3C00C3FC00283FF4FDAE21E700F00F02013299
:101A4C00032342F420228CE73046FFF7BFFE00F060
:101A5C00F00200F00F031032013343EA023207E7C1
:101A6C0000230DF10C090D2219462846CDF80090E3
:101A7C00FFF7C4FA3046FFF7A9FE02064FF0020446
:101A8C000CD5039B00F07F00A04003443046039329
:101A9C00FFF79CFE030604F10704F2D40023039A1B
:101AAC0000F07F0000FA04F402F5017214441946A8
:101ABC000D222846CDF800900394FFF7C3FAB8E640
:101ACC0010B50324C36C84B05A688DF80C40DC79D3
:101ADC0012020833084601A901928DF80D400293B9
:101AEC00FFF7A0FE04B010BD08B5FFF799FE806C9F
:101AFC0008BD00BF08B5FFF793FEC06CC379023375
:101B0C0000EB830008BD00BF08B5062000F042FBC7
:101B1C00012006F0F7FE00BF10B5054C34B113469A
:101B2C000A460146022000F04BFC10BD204610BDB9
:101B3C00CD230008014B1868704700BF0800002037
:101B4C0070B50D4E0D4D761BB61006D00024013429
:101B5C0055F8043B9847A642F9D1094E094D09F0B6
:101B6C006BFB761BB61006D00024013455F8043BF1
:101B7C009847A642F9D170BDB0C00008B0C00008AB
:101B8C00B8C00008B0C00008024B0146186800F04D
:101B9C00D1B900BF08000020024B0146186800F0C4
:101BAC0075B900BF08000020830770B4CDB23DD0DA
:101BBC00541E0AB30378AB421FD0431C05E014F14A
:101BCC00FF3419D30278AA4217D013F0030F18462A
:101BDC0003F10103F3D1032C11D84CB30378AB42BE
:101BEC000BD00444431C02E00278AA4205D09C426C
:101BFC00184603F10103F7D1002070BC7047024670
:101C0C000E02B6B22E4346EA0646136810467340DF
:101C1C00A3F1013121EA030313F0803F02F1040226
:101C2C00DCD1043C032C1046EFD8D6E71446D2E79F
:101C3C002046E2E7844641EA000313F0030349D14E
:101C4C00403A23D30B6803604B6843608B68836016
:101C5C00CB68C3600B6903614B6943618B6983611A
:101C6C00CB69C3610B6A03624B6A43628B6A836202
:101C7C00CB6AC3620B6B03634B6B43638B6B8363EA
:101C8C00CB6BC36340304031403ADBD230320BD3A4
:101C9C000B6803604B6843608B688360CB68C360E0
:101CAC0010301031103AF3D20C3205D351F8043BFA
:101CBC0040F8043B043AF9D2043208D0D2071CBFD6
:101CCC0011F8013B00F8013B01D30B8803806046FF
:101CDC00704700BF082A13D38B07B1D010F0030351
:101CEC00AED0C3F10403D21ADB071CBF11F8013BC1
:101CFC0000F8013BA4D331F8023B20F8023B9FE7EC
:101D0C00043AD9D3013A11F8013B00F8013BF9D25E
:101D1C000B7803704B7843708B78837060467047F8
:101D2C008842F0B40DD98B1883420AD9841832B189
:101D3C00224613F8014D994202F8014DF9D1F0BC3D
:101D4C0070470F2A0ED80346541E002AF7D00134D0
:101D5C000C44013B11F8012BA14203F8012FF9D1DE
:101D6C00F0BC704740EA01039B073AD1A2F110077F
:101D7C003F0901F1200606EB071601F1100300F1F3
:101D8C00100453F8105C103344F8105C53F81C5CCE
:101D9C00103444F81C5C53F8185C44F8185C53F885
:101DAC00145CB34244F8145CEBD17B1C1B0112F0A5
:101DBC000C0F194402F00F05034415D00E46043DD8
:101DCC00AD0803EB850C1C1F56F8047B44F8047F0C
:101DDC006445F9D10135AD002B44294402F00302CE
:101DEC00B2E7541E0346B2E72A46ADE7F0B48607C5
:101DFC0046D0541E002A3CD0CAB2034602E014F16D
:101E0C00FF3436D303F8012B9D07F8D1032C29D9C5
:101E1C00CDB245EA05250F2C45EA054533D9A4F189
:101E2C001006360903F1200707EB061703F1100221
:101E3C0042E9045542E902551032BA42F8D1721CFB
:101E4C0014F00C0F03EB021204F00F0613D0331F27
:101E5C0023F003030433134442F8045B9342FBD195
:101E6C0006F003042CB1C9B21C4403F8011B9C42BC
:101E7C00FBD1F0BC704734461346002CF3D1F8E785
:101E8C0014460346C2E71A462646E0E700293AD034
:101E9C0038B551F8043C0C1F002BB8BFE4180546AC
:101EAC0000F03AFC224B1A682AB1A2420DD92168E3
:101EBC006018824221D0626028461C60BDE8384020
:101ECC0000F02CBCA34203D81A465368002BF9D15E
:101EDC0011685018A04217D022D82168601883428C
:101EEC0003BFD3E900030918C4E90013636054600D
:101EFC002846BDE8384000F011BCD2E9000201448C
:101F0C00C4E90012D8E77047206801445018834296
:101F1C001160EDD1D3E900030144C2E90013E7E7F6
:101F2C000C2328462B60BDE8384000F0F7BB00BFFF
:101F3C000C020020F8B5CD1C25F0030508350C2D3E
:101F4C0038BF0C25002D064633DBA94231D82A4F69
:101F5C0000F0E2FB3A6852B113685B1B04D43FE01B
:101F6C0023685B1B29D522465468002CF8D179686C
:101F7C0000293BD02946304600F074F8431C28D089
:101F8C00C41C24F00304A04205D0211A304600F0F2
:101F9C0069F801301DD02560304600F0BFFB04F11C
:101FAC000B0020F00700231DC21A01D01B1AA350EE
:101FBC00F8BD0C2200203260F8BD0B2B05D8A242D4
:101FCC00636811D05360E7E7144623601C44256016
:101FDC00E2E70C233046336000F0A0FB0020F8BD94
:101FEC000B2BF1D8144653683B60D5E7304600F014
:101FFC0039F87860BEE700BF0C0200200EB430B593
:10200C00044682B008B1836963B106AD2B46059ACC
:10201C00A1682046019500F0C5FB02B0BDE8304038
:10202C0003B0704700F00CFBEFE700BF0FB430B506
:10203C000B4B83B01C680CB1A36963B107AD2B4685
:10204C00069AA1682046019500F0ACFB03B0BDE8F0
:10205C00304004B07047204600F0F2FAEEE700BFC3
:10206C000800002038B50023064C054608462360BE
:10207C0006F05CFC431C00D038BD2368002BFBD061
:10208C002B6038BDE038002010B580210446FFF7E6
:10209C0051FF606440B10022031F7C3043F8042FD1
:1020AC008342FBD1002010BD4FF0FF3010BD00BFAC
:1020BC00436C0BB100207047E6E700BF1F2970B5D9
:1020CC00054608D8436C16460C464BB153F8240011
:1020DC0043F8246070BD16224FF0FF302A6070BDAB
:1020EC00FFF7D2FF08B96B6CF0E74FF0FF3070BD13
:1020FC001F2938B5054620D8426C0C466AB152F8F7
:10210C00213053B1012B16D0591C10D0002520467C
:10211C0042F824509847284638BD284600F070F8FD
:10212C00224601462846BDE8384000F055B8162333
:10213C0001202B6038BD002038BD16234FF0FF3036
:10214C002B6038BD1F2921D838B5436C05460C4689
:10215C0083B153F8242003EB84034AB1511C10D0F3
:10216C00012A0CD0002520461D609047284638BD1A
:10217C00012038BDFFF788FF28B96B6CE9E7032015
:10218C0038BD022038BD4FF0FF3038BD4FF0FF3066
:10219C00704700BF024B01461868FFF7A9BF00BF8C
:1021AC0008000020024B0A4601461868FFF786BF5C
:1021BC0008000020034B1868436C0BB100207047DB
:1021CC0062E700BF08000020024B01461868FFF7C9
:1021DC00B9BF00BF0800002070B50D460023074CA6
:1021EC00064611462846236006F082FB431C00D0AD
:1021FC0070BD2368002BFBD0336070BDE03800202D
:10220C0006F074BB80EA010C1CF0030F37D110F000
:10221C00030C20F0030021F0030150F8042B08BF3D
:10222C0051F8043B0ED08CF0030C6FF07F434FEA57
:10223C00CC0C23FA0CFC51F8043B42EA0C0243EAA6
:10224C000C0300BFA2F1013C9A4201BF2CEA020C24
:10225C001CF0803F50F8042B51F8043BF2D04FEAAD
:10226C0002604FEA1222012828BFB0EB036F08BFAF
:10227C001B0AF4D003F0FF03000EC01A704710F0D5
:10228C00030F0AD010F8012B11F8013B012A28BFCB
:10229C009A42F4D0A2EB030070474DF8045D50F85D
:1022AC00042B01F0030521F0030151F8043B022D2E
:1022BC0026D04DD822F07F45B5EB132FA2F1013C6F
:1022CC002CEA020C0DD11CF0803C08BF51F8043BE9
:1022DC000AD185EA0205B5EB036F0CD150F8042B3B
:1022EC00E8E74FEA13235BE03CF07F4C54D10B78CA
:1022FC004FEA126554E04FEA126503F0FF034FE01A
:10230C004FEA0245A2F1013C4FEA15452CEA020CBA
:10231C00B5EB134F18D11CF0803C08BF51F8043BAF
:10232C0007D185EA0205B5EB034F09D150F8042B10
:10233C00E6E75FEA0C4C2FD10B884FEA12452FE0F1
:10234C004FEA03434FEA12454FEA134328E000BF1C
:10235C0002F0FF05B5EB136FA2F1013C2CEA020C65
:10236C000DD11CF0803C08BF51F8043B0AD185EA22
:10237C000205B5EB032F0AD150F8042BE8E74FEA1E
:10238C0013630DE012F0FF0F06D051F8043B4FEA37
:10239C00122523F07F4303E04FF0000020BC704770
:1023AC0005F0FF0203F0FF00012828BF904204BF94
:1023BC002D0A1B0AF4D0A2EB000020BC704700BF12
:1023CC002DE9F041264C82B025680DB36C681F2CAA
:1023DC0042DC9846064690B1D5F8880038B3D0F860
:1023EC0000310127A74047EA030C022E00EB8403BF
:1023FC0040F82420C0F800C1C3F8808011D0002020
:10240C00631C02346B6045F8241002B0BDE8F08107
:10241C00144E154D2660EDB12C683546C6F8884033
:10242C00D4E7D0F804311F43C0F80471E7E70F4B31
:10243C00CDE9001283B14FF48470FFF7A5FB58B1BE
:10244C00DDE9001200276C683B46C0E94077C5F80F
:10245C008800C6E73546B9E74FF0FF30D5E700BF37
:10246C00A80300201C03002060B20008951B000884
:10247C0000207047014900F027B900BF193200084D
:10248C000020704770B568254A1E05FB02F50E4604
:10249C0005F17401FFF74EFD044640B100210C30EC
:1024AC00666005F168022160A060FFF79FFC204682
:1024BC0070BD00BF1E4B70B51D680646AB6943B3BB
:1024CC004835D5E90134013B05D51EE0013B5A1CCA
:1024DC0004F1680419D0B4F90C20002AF6D10025B7
:1024EC00144B6566C4E90055A560C4E90455A561A3
:1024FC002946E360082204F15C00FFF777FCC4E98D
:10250C000D55C4E91255204670BD2C682CB12546DA
:10251C00D7E7284600F010F8D2E704213046FFF741
:10252C00B1FF044628600028F1D10C233360EAE7A0
:10253C005CB200080100FFFF2DE9F84F0023334A7D
:10254C00C0E9123312680365904208BF0123304979
:10255C0008BF836181620546FFF7ACFF68602846BF
:10256C00FFF7A8FFA86028460024FFF7A3FF042369
:10257C006E68E8602146F3607466C6E90044B46096
:10258C00C6E90444B46106F15C000822FFF72EFC96
:10259C00DFF888B0AF68DFF888A0DFF88890DFF844
:1025AC0088801C4BC6E9086BC6E90AA9C6F83080BE
:1025BC002146FB6008227C66C7E90044BC60C7E981
:1025CC000444BC6107F15C00FFF710FCEE68124B91
:1025DC00C7E9087BC7E90AA9C7F830802146F36030
:1025EC007466C6E90044B460C6E90444B46106F1FB
:1025FC005C000822FFF7FAFB0123C6E9086BC6E969
:10260C000AA9C6F83080AB61BDE8F88F5CB200084F
:10261C008124000809000100120002004D2E000860
:10262C00752E0008B52E0008D52E0008024B034964
:10263C00186800F049B800BF5CB2000819320008F5
:10264C00836903B978E77047704700BF704700BFD4
:10265C00704700BF704700BF024B0349186800F079
:10266C000FB800BF080000207D240008024B03496E
:10267C00186800F005B800BF080000208D24000881
:10268C002DE9F04110F148071AD088460026D7E909
:10269C000154013D0ED4A389013D012B06D9B4F997
:1026AC000E30013302D02046C04706436B1C04F1A8
:1026BC006804F0D13F68002FE9D13046BDE8F081C5
:1026CC003E463046BDE8F0812DE9F84310F148064E
:1026DC001ED0884607464FF00009D6E90154013D4B
:1026EC0010D4A389013D012B08D9B4F90E30013364
:1026FC0004D021463846C04749EA00096B1C04F156
:10270C006804EED13668002EE7D14846BDE8F88360
:10271C00B1464846BDE8F883704700BF704700BF1C
:10272C009368013B002B93600FDA10B49469A342B9
:10273C0008DB0A2906D01368581C1060197008466B
:10274C0010BC704710BC00F0C3BB1368581C106061
:10275C0019700846704700BF9BB1F8B513440F467B
:10276C0006465D1E541E01E0AC4208D03A4614F8F1
:10277C00011F3046FFF7D4FF431CF5D1F8BD0020F4
:10278C00F8BD0020704700BF936810B5144613B90C
:10279C005360184610BD00F07BFD0023C4E90133E3
:1027AC0010BD00BF2DE9F04F9FB08B4690461C46E4
:1027BC00039018B18369002B00F0B980A34B9B45A3
:1027CC0000F0BB80A24B9B4500F0C980A14B9B4500
:1027DC0004BF039BD3F80CB0BBF80C30180740F1C6
:1027EC00B480DBF81030002B00F0AF8030230021D8
:1027FC0020228DF8323098F8003005940B918DF82A
:10280C003120954E0127002B00F08980252B00F0FC
:10281C001781454603E0252B00F0A58025466B78F3
:10282C006C1C002BF7D1B4EB080A78D04246534607
:10283C0059460398FFF790FF013070D00B9B6A78D4
:10284C0053440B93002A6AD000234FF0FF3201341B
:10285C000693CDE908338DF85B301C93079206E0A4
:10286C002C46069B801B07FA00F018430690254661
:10287C00052215F8011B3046FFF796F9AA460028E9
:10288C00EED1069BD90644BF20228DF85B201A0797
:10289C0048BF2B22217848BF8DF85B202A2967D1AD
:1028AC00059A1168043200290592C0F29E800991A4
:1028BC006178A51C2E2974D0684C03222046FFF7A2
:1028CC0073F9002800F087804022069B001B02FA57
:1028DC0000F00343069305F101082B7806221946F4
:1028EC005F488DF83030FFF75FF9002800F08380E7
:1028FC005C4B002B72D005AB00935A465A4B06A981
:10290C000398AFF300808146B9F1FF3F07D00B9BD2
:10291C004B440B9398F80030002B7FF477AFBBF847
:10292C000C305B0618D40B981FB0BDE8F08FFFF786
:10293C0087FE464B9B457FF445AF039BD3F804B011
:10294C00BBF80C3018073FF54CAF5946039800F014
:10295C0035FB00283FF44AAF4FF0FF30E4E7039B10
:10296C00D3F808B038E7B4EB080A3FF46DAF5DE775
:10297C00A1F13002092A88BFA2469BD8099B01E02D
:10298C002C460135297803EB830302EB4303A1F1B9
:10299C003002092AAA46F3D92E2904F1020509931B
:1029AC008AD19AF801102A292FD1059B0AF102002D
:1029BC001A680433002A079205939AF802100AF158
:1029CC00030538DB254C824603222046FFF7ECF842
:1029DC0000287FF479AFA84655467EE7059B073360
:1029EC0023F007030833059391E7494243F00203B0
:1029FC00099106935CE705AB00935A461A4B06A95E
:102A0C00039800F0D3F881467EE70023A1F1300251
:102A1C00092A079301D915E05546697803EB83031E
:102A2C0002EB4303A1F13002092A05F1010AF3D9A3
:102A3C000235079340E74FF0FF33824607933BE79D
:102A4C00444601E7AA46013536E700BFA4B20008A8
:102A5C0084B2000864B2000890BD000898BD00085C
:102A6C009CBD0008000000006527000810B4044C51
:102A7C0013460A460146206810BCFFF793BE00BF00
:102A8C00080000202DE9F0470C460969A56891461D
:102A9C008D42B8BF0D46156094F8431006461F468C
:102AAC00DDF8208011B16A1CC9F800202368990652
:102ABC005CD5D9F800200232C9F80020236813F045
:102ACC00060F19461DD1E1688A1A002AD8BF19468B
:102ADC0017DD002504F1190A05E0E368D9F8002098
:102AEC009B1AAB420CDD0123524639463046C04797
:102AFC00013005F10105F0D14FF0FF30BDE8F08752
:102B0C00216894F84330003318BF01238A060AD594
:102B1C003021E21882F8431094F845105A1C2244D4
:102B2C0082F84310023304F1430239463046C04761
:102B3C000130E1D02368A26803F00603042B21695D
:102B4C001DD08A4226DD4FF00009521A914400250F
:102B5C001A3401E04D451DDA012322463946304630
:102B6C00C047013005F10105F4D1C5E713F0060F9C
:102B7C0013D094F84330003318BF0123D3E7D9F8AE
:102B8C000000E3688A42A3EB000323EAE379DCDC70
:102B9C00002BDCDC0020BDE8F087E168D9F80020D0
:102BAC008A1A002AD8BF194693DCAAE72DE9F0430C
:102BBC000C46097E85B06E2906461746984604F1E8
:102BCC00430C0C986DD039D9732900F0F48044D99A
:102BDC00752900F00281782940F00F817823226852
:102BEC00DFF854E284F845300168150651F8043BCF
:102BFC00016040F1A180D10744BF42F02002226065
:102C0C00002B00F093801022002184F843106068A0
:102C1C000028A060C0F2C680216821F00401216068
:102C2C00002B40F0A280002840F0BE806546082AA8
:102C3C0000F0AB80ACEB0503236141E0632900F0AD
:102C4C00E3801AD8002938D0582940F0D68084F86F
:102C5C0045102268DFF8E4E1C6E76F2900F0BD807B
:102C6C00702940F0CA8078232268DFF8CCE142F06A
:102C7C002002226084F84530B6E7642902D0692925
:102C8C0040F0BB8022680368110603F1040557D598
:102C9C00196805600B46002959DB0A22DFF89CE114
:102CAC00B5E7036822681D1D6169056015061B6880
:102CBC0002D4500600F1BB801960002365462361E5
:102CCC00CDF800803B4603AA21463046FFF7DAFEDA
:102CDC00013020D02A46236939463046C04701309E
:102CEC0019D0226803989207E36819D51A1A002A9A
:102CFC0016DD002504F1190904E0E36803981A1A9B
:102D0C00AA420DDD01234A4639463046C047013000
:102D1C0005F10105F1D14FF0FF3005B0BDE8F083AE
:102D2C009842B8BF184605B0BDE8F0832168102260
:102D3C0021F02001216067E7500648BF9BB25AE79B
:102D4C005106A5D5B3F9003005601946A3E72D202F
:102D5C0061685B42002984F84300A16002DB22F029
:102D6C00040222600A22DFF8D4E0654600E00B463C
:102D7C00B3FBF2F102FB11301EF80000934205F890
:102D8C00010DF4D2082A7FF455AF2368DB077FF5D9
:102D9C0051AF626823699A423FF74CAF3023013D33
:102DAC002B7047E7002BE0D19EF8003004F1420570
:102DBC0084F842303BE703686268191D01601D68A6
:102DCC0000212846FEF7F0FE002832D0401B606040
:102DDC002061002384F8433072E72268036812F004
:102DEC00800F03F104051AD01B6805606F290CBF16
:102DFC0008220A22DFF844E006E7012384F8421097
:102E0C00236104F14205E4E70122036804F1420561
:102E1C00191D1B68016084F842302261D9E712F059
:102E2C00400F0DBF1B6805601B880560DEE719802D
:102E3C0043E76068CCE700BFB8BD0008A4BD00083C
:102E4C0010B50C46B1F90E1000F056FC002803DB4F
:102E5C00636D0344636510BDA38923F48053A38180
:102E6C0010BD00BF002070472DE9F041B1F90C40B6
:102E7C009846E3050D461746B1F90E10064609D4DF
:102E8C0024F48054AC8143463A463046BDE8F041C8
:102E9C0000F07EB80223002200F07AFBB5F90C405A
:102EAC00B5F90E10ECE700BF10B50C46B1F90E10D9
:102EBC0000F06EFBA389421C0EBF23F4805343F435
:102ECC0080536065A38110BDB1F90E1000F0F6B807
:102EDC00F8B50D461446064608B1836943B3254B35
:102EEC009C422AD0244B9C4229D0244B9C4208BFA4
:102EFC00F468A269A389A2601A0722D5236903B3D7
:102F0C0022686169D31AEDB299422F4629DD01334B
:102F1C00A168501C0139A1602060157062699A4249
:102F2C0016D0A389DB0701D50A2D11D03846F8BD80
:102F3C00FFF786FB0F4B9C42D4D17468D9E7B46879
:102F4C00D7E72146304600F039F838B92369D7E77E
:102F5C002146304600F05AF90028E7D04FF0FF37F1
:102F6C00E4E72146304600F051F90028F6D1012360
:102F7C002268CDE7A4B2000884B2000864B200084D
:102F8C00024B0A4601461868FFF7A2BF0800002052
:102F9C00F8B50E460025084C114607461A46304631
:102FAC00256000F0EDFB431C00D0F8BD2368002B1E
:102FBC00FBD03B60F8BD00BFE03800203B4B70B548
:102FCC001D6806460C460DB1AB69DBB1384B9C4213
:102FDC001ED0384B9C424AD0374B9C4208BFEC6801
:102FEC00B4F90C2093B2190718D5206908B313F063
:102FFC0001022CD000226369A2605B42A36160B322
:10300C00002070BD2846FFF71BFB294B9C42E0D1EA
:10301C006C68B4F90C2093B21907E6D4DD063CD5E4
:10302C00580726D4206942F00803A3819BB20028DC
:10303C00DDD103F42072B2F5007FD8D030462146A2
:10304C0000F0EAFAA389206913F00102D2D19907A2
:10305C0058BF6269A2600028D2D1B4F90C301A06AC
:10306C00CFD543F04003A3814FF0FF3070BDAC6867
:10307C00B6E7616B51B104F14403994204D0304678
:10308C00FEF704FFB4F90C200023636300232069CE
:10309C0022F02402C4E90003C5E7092342F04002F0
:1030AC0033604FF0FF30A28170BD00BF08000020DC
:1030BC00A4B2000884B2000864B2000838B500233A
:1030CC00064C05460846236005F04EFC431C00D018
:1030DC0038BD2368002BFBD02B6038BDE0380020B6
:1030EC002DE9F0418F890C463A07804641D44B6854
:1030FC00002B59DDE66A002E53D0002317F48052C2
:10310C00D8F80050216AC8F8003051D1012340464C
:10311C00B047431C5FD0A789E66A216A7F0705D5B3
:10312C006268636B801A0BB1236CC01A02460023D1
:10313C004046B047461C45D1D8F80030B4F90C20B5
:10314C00002B55D01D2B01D0162B5AD100222369F0
:10315C00C4E90032616BC8F8005011B304F14403A8
:10316C00994202D04046FEF791FE00206063BDE814
:10317C00F0810E69AEB10D680E60B90714BF002363
:10318C006369AD1BA3600AE02B463246A76A216A2D
:10319C004046B8470028A5EB000506440ADD002D83
:1031AC00F2DC0020BDE8F0810B6C002BA2DCF8E710
:1031BC00606DB3E7A3894FF0FF3043F04003A38168
:1031CC00BDE8F081002322696360A3892260DA04E0
:1031DC00C0D56065BEE7D8F80030002B9BD01D2B06
:1031EC000CD0162B0AD0A38943F04003A381D9E756
:1031FC002169C4E90013D304ACD5EAE7C8F8005040
:10320C00CFE742F04002A281CCE700BF0B6923B3A9
:10321C0010B5044682B008B18369BBB1104B99421A
:10322C0012D0104B994216D00F4B994208BFE1684F
:10323C00B1F90C302BB1204602B0BDE81040FFF7BD
:10324C004FBF002002B010BD6168F1E70191FFF79C
:10325C00F7F90199E2E7A168EAE70020704700BF9F
:10326C00A4B2000884B2000864B2000820B1054B77
:10327C0001461868FFF7CABF034B04491868FFF7EB
:10328C0023BA00BF080000205CB200081932000805
:10329C009368002B00F0FC802DE9F04FB1F90C3055
:1032AC000C469BB2190783B0824690462BD52269F7
:1032BC004AB313F00202D8F8006033D000273D4621
:1032CC00D4F828B0216ADFF8C492C5B14D452B461D
:1032DC003A4628BF4B465046D847002840F3CE808C
:1032EC00D8F8083007441B1A2D1AC8F80830002BE0
:1032FC0000F0B380D4F828B0216A002DE6D1D6E9CD
:10330C0000750836E1E721465046FFF757FE0028C6
:10331C0040F03781B4F90C30D8F800609BB213F050
:10332C000202CBD113F0010940F0B4804D46A768DE
:10333C002068002D55D09A0540F1C080AF42BB46A5
:10334C0000F2EE8013F4906F2FD0D4E9041707EB42
:10335C004707A0EB010B07EBD777681C7F1058448D
:10336C00B8423A4684BF07463A465B0540F1F080C6
:10337C0011465046FEF7DEFD002800F0FC805A4650
:10338C0021690190FEF756FCA289019B22F4906200
:10339C0042F08002A281A7EB0B0203EB0B006761EA
:1033AC00AB462F4623612060A2605A464946FEF781
:1033BC00B7FC2368A2685B44AB460025D71BA7600B
:1033CC002360D8F80870D944A7EB0B07C8F808702D
:1033DC00002F42D0B4F90C30A7689BB22068002DA6
:1033EC00A9D1D6E900950836A3E70BF1080353F8E9
:1033FC00047C9B4653F8086C0833002FF7D03A46F0
:10340C000A213046FEF7D0FB002854D00130A0EB47
:10341C0006094B4620682169BB4228BF3B468842BF
:10342C00626903D9A5681544AB421ADC9A4200F3D1
:10343C0081801346A56A3246216A5046A847051E6C
:10344C001CDDB9EB05096ED00120D8F808302E44EC
:10345C005B1B7F1BC8F8083013BB002003B0BDE812
:10346C00F08F31462A46FEF75BFC236821462B443D
:10347C0023605046FFF7CAFE0028E2D0B4F90C30A6
:10348C004FF0FF3043F04003A38103B0BDE8F08F51
:10349C000020704733469146104617464E469B46D1
:1034AC00002FA2D00028B4D13A460A213046FEF7AC
:1034BC007BFB0028AAD17B1C9946ABE7236983428E
:1034CC0017D36269AA4214D82F4BA76A9D4294BFA6
:1034DC002B466FF0004393FBF2F3216A02FB03F3DC
:1034EC0050464A46B847B0F1000BC7DDA5EB0B05BB
:1034FC0067E7AF4228BF2F4649463A46FEF710FC15
:10350C00A3682268DB1B3A44BB46A3602260002BF5
:10351C00ECD121465046FFF779FE0028E6D0ADE706
:10352C002F46AB4641E721465046FFF76FFE002879
:10353C008BD0A3E71A4631461D460193FEF7F0FBEC
:10354C00A1682268019BC91A1344A160236078E723
:10355C00504600F0ABF8034600287FF41CAF2169FD
:10356C005046FEF793FC0C22B4F90C30CAF800203C
:10357C0023F0800384E70C22B4F90C30CAF8002045
:10358C007EE74FF0FF3069E7FEFFFF7F00FCFF7F17
:10359C00F8B50E460025084C114607461A4630462B
:1035AC00256005F0EDF9431C00D0F8BD2368002B15
:1035BC00FBD03B60F8BD00BFE038002070B50C4676
:1035CC00B1F90E1096B0002916461D4613DB6A465B
:1035DC0000F0A8F800280EDB019A4FF4806302F487
:1035EC007042A2F50052B2FA82F2002052092A600F
:1035FC00336016B070BD0022A3892A601B0604D567
:10360C0040230020336016B070BD4FF4806300205F
:10361C00336016B070BD00BF8A890B46920706D581
:10362C00012103F1470259611A601A61704770B5A4
:10363C0082B001AB6A460C460646FFF7BFFF009905
:10364C0005463046FEF776FCB4F90C3070B1164ADC
:10365C000099B262019A43F08003A3812060C4E90F
:10366C0004018AB92B43A38102B070BD9A05FBD427
:10367C00012123F0030304F1470243F00203A38169
:10368C00616122602261EFE73046B4F90E1000F060
:10369C005DF810B9B4F90C30E4E7A38923F0030307
:1036AC0043F001031BB2DDE78124000809B3F8B530
:1036BC001446CAB106460D4600F05AF8A04202D391
:1036CC002F463846F8BD21463046FEF733FC0746F8
:1036DC000028F6D022462946FEF7ACFA3046294699
:1036EC00FEF7D4FB3846F8BD2746FEF7CFFB38462D
:1036FC00F8BD1146FEF71EBCF8B50E460025084C69
:10370C00114607461A463046256005F001F9431C60
:10371C0000D0F8BD2368002BFBD03B60F8BD00BF88
:10372C00E038002070B50D460023074C06461146C4
:10373C002846236005F01CF9431C00D070BD23689B
:10374C00002BFBD0336070BDE038002038B500236F
:10375C00064C05460846236005F010F9431C00D0C2
:10376C0038BD2368002BFBD02B6038BDE03800201F
:10377C0051F8043C181F002BBCBF0B58C0187047E5
:10378C0010B514464FF6FF7392B2024803F07AFA62
:10379C00204610BDAC04002038B54FF47A730D4AA6
:1037AC00054611780C4AB3FBF1F31268B2FBF3F047
:1037BC0000F056FC08B90F2D01D9012038BD044684
:1037CC00024629464FF0FF3000F0ECFB034B20463D
:1037DC001D6038BD6C0000208401002070000020AA
:1037EC00074A08B51368032043F01003136000F078
:1037FC00BBFB0020FFF7D0FF05F008F8002008BD48
:10380C0000200240034A044B11681B780B441360E0
:10381C00704700BFAC0300206C000020014B1868FF
:10382C00704700BFAC03002038B50446FFF7F6FF25
:10383C00631C054602D0044B1B781C44FFF7EEFFBB
:10384C00401BA042FAD338BD6C000020002800F0C9
:10385C00DD80F8B5874A03680446934208D002F528
:10386C008062934204D040F2B311834804F0BCFF51
:10387C00636833F4006304D04FF4DA717E4804F0CB
:10388C00B3FFA36833F4807304D040F2B5117A48C7
:10389C0004F0AAFF237B012B00F28E80E36933F442
:1038AC0020220CD023F40022B2F5C02F07D0B3F5A0
:1038BC00402F04D040F2B7116F4804F095FFA36875
:1038CC00002B66D1A36A002B00F0818023689A68D4
:1038DC00D0073FD4A26AD20655D4A26AE0696168C7
:1038EC0022F488520143A068267B22F0020242F0A7
:1038FC000202B0F5807FA26241EA4602217D74D0BB
:10390C0001280CBF4FF480770027012900F090802C
:10391C005D685A4925F469453D435D609D682940C1
:10392C001143996001286DD00020D96A544D21F4BF
:10393C0070010143D9629B681D40AA426ED00120E0
:10394C00A36A23F0120343F01003A362E36A034358
:10395C00E362F8BD9A6822F001029A60FFF75EFFFD
:10396C00054623689A68D107B4D5FFF757FF431B68
:10397C00022BF6D9A36A43F01003A362E36A43F067
:10398C000103E362A36AA36A012043F01003A3625C
:10399C00F8BD2369013B0F2B3AD8237D012B1DD891
:1039AC00002B8FD0A369013B072B8BD940F2BF11A1
:1039BC00314804F019FF85E74FF4DB712E4804F011
:1039CC0013FFE36933F420223FF479AF6AE7204612
:1039DC00E36284F8243004F0CDFD77E74FF4DE7118
:1039EC00254804F001FF237DDAE701291FD0586830
:1039FC00224920F4694040F4807058609868014076
:103A0C00114399602169013908058EE7012070473F
:103A1C0040F2BB11184804F0E7FEBEE70020E0625C
:103A2C00A36A23F0030343F00103A362F8BD074626
:103A3C00C6B1A16A41F02001A162E16A41F0010125
:103A4C00E1625D680D4925F469453D435D609D6803
:103A5C00B0F5807F01EA050141EA020199607FF42B
:103A6C0061AFCFE7A1694D1E47EA453545F40067C4
:103A7C00E7E700BF00240140C4B20008FDF7E1FFF6
:103A8C00FE0E1FFF436A9A6A12F0500F0FD19A6A0A
:103A9C00196842F4007210B59A628A6802F46022C6
:103AAC00B2F5602F06D0184605F00CFD10BD1B6A50
:103ABC001B6B18471A7B002AF5D19A6A22F4807284
:103ACC009A629A6AD204EED49A6A42F001029A621D
:103ADC00E9E700BF704700BF08B5406AFFF7FAFF7F
:103AEC0008BD00BF704700BF406A08B5836A43F049
:103AFC0040038362C36A43F00403C362FFF7F2FF1F
:103B0C0008BD00BF70B5054600202B68574A82B02F
:103B1C0093420C46019008D002F58062934204D087
:103B2C0040F2CE71524804F05FFE2368112B6FD81F
:103B3C006368013B0F2B65D8A368072B56D895F803
:103B4C002430012B5BD0012385F8243063681F26B9
:103B5C00062B29682DD90C2B03EB83035ED8086B3D
:103B6C002268233B9E4020EA060002FA03F303433B
:103B7C000B63092A4FF007062BD902EB4203C868E6
:103B8C001E3BA4689E409C4020EA0603A2F1100054
:103B9C0023430128CB6027D8344B994249D00120CC
:103BAC00AB6A43F02003AB62002385F8243002B0EB
:103BBC0070BD03EB83032268486B053B9E4020EAF3
:103BCC00060002FA03F30343092A4FF007064B637E
:103BDC00D3D8A06802EB42020B6906FA02F49040BB
:103BEC0023EA040202430A610020DDE740F2D171AE
:103BFC001F4804F0F9FD95F82430012BA3D10220C5
:103C0C0002B070BD4FF4FA61194804F0EDFD93E772
:103C1C0040F2CF71164804F0E7FD89E7C86A2268C4
:103C2C00413B9E4020EA060002FA03F30343CB62B9
:103C3C009FE78B681B02D7D48B68102A43F40003D0
:103C4C008B60D1D10B4B0C4A1B68A2FB03239B0C42
:103C5C0003EB83035B000193019B002BC4D0019BFE
:103C6C00013B0193019B002BF9D1BDE700240140DE
:103C7C00C4B200088401002083DE1B43002370B50E
:103C8C00026882B001939368DB0721D4184B054678
:103C9C001B6818489168A0FB030341F001019B0CC1
:103CAC0091600193019B2BB1019B013B0193019B03
:103CBC00002BF9D1FFF7B2FD064604E0FFF7AEFD8D
:103CCC00831B022B07D82B689C6814F00104F5D0D9
:103CDC00002002B070BD0120AB6A85F8244043F08F
:103CEC001003AB62EB6A0343EB6202B070BD00BF22
:103CFC008401002083DE1B43F8B50368434D044662
:103D0C00AB420E46174664D040F21461404804F0B2
:103D1C006BFD2368AB425CD03E4A934259D094F879
:103D2C002430012B62D00123204684F82430FFF785
:103D3C00A5FF0546002854D1A36A2168354A23F40F
:103D4C00706323F0010343F480739142A36250D05B
:103D5C00A36A23F48013A3624B685A0505D5A36AA2
:103D6C0023F4405343F48053A362A36A6FF002021E
:103D7C0013F4805318BFE36A206A18BF23F00603BC
:103D8C00E3620023DFF894C084F82430224B4C31DA
:103D9C00C0E90AC3DFF888C03B46C0F830C041F820
:103DAC004C2C51F8447C324647F4807741F8447CE3
:103DBC0000F014FA236828469A6802F46022B2F5DF
:103DCC00602F9A680CBF42F4A00242F480129A60F1
:103DDC00F8BD0E4B5B6813F4702FA0D0012528465C
:103DEC00F8BD002384F824302846F8BD0225284667
:103DFC00F8BD064B5A6812F4702FA9D0A26A42F48F
:103E0C008012A2625B685B05AFD5A8E70024014075
:103E1C00C4B2000800280140E53A0008913A0008B5
:103E2C00F53A000838B503689A68D20701D4002027
:103E3C0038BD9A68044622F001029A60FFF7EEFC46
:103E4C00054623689B68DB07F1D5FFF7E7FC431BAE
:103E5C00022BF6D90120A36A43F01003A362E36A94
:103E6C000343E36238BD00BF002170B503683B4AD1
:103E7C0082B093420446019107D002F580629342CE
:103E8C0003D08521364804F0AFFC94F82430012B84
:103E9C0053D00123204684F82430FFF7C3FF054696
:103EAC0028B10023284684F8243002B070BDA36AE0
:103EBC002C4A23F4885323F0020343F00203A36239
:103ECC000220166801F0B0FDB6FBF0F67600019604
:103EDC00019B2BB1019B013B0193019B002BF9D161
:103EEC002046FFF7CBFE2268936843F008039360EB
:103EFC00FFF794FC064604E0FFF790FC831B0A2BAB
:103F0C001FD823689A681207F6D49A6842F0040204
:103F1C009A60FFF783FC064604E0FFF77FFC801BEA
:103F2C000A280ED823689B685B07F6D4A36A23F093
:103F3C00030343F00103A362B3E70225284602B052
:103F4C0070BD012500222846A36A84F8242023F0A2
:103F5C00120343F01003A36202B070BD00240140B1
:103F6C0020B3000884010020C31E042B10B50446A6
:103F7C000ED84FF6FF01094A2302D46803F4E0631C
:103F8C000C40234343F0BF6343F40033D36010BDB4
:103F9C009221034804F028FCEBE700BF00ED00E0A1
:103FAC007CB300080F2A70B5164605460C4637D868
:103FBC000F2C30D81D4BDB68C3F30223C3F1070071
:103FCC00042803F1040228BF0420062A18D94FF054
:103FDC00FF32033B9A4026EA02064FF0FF31814044
:103FEC0024EA01049C40002D44EA06040BDB240166
:103FFC0005F16045E4B205F5614585F8004370BDF7
:10400C0000263346E9E70A4B05F00F052401E4B21C
:10401C002B441C7670BDAB21064804F0E5FBC9E7C8
:10402C00AA21044804F0E0FBC2E700BF00ED00E069
:10403C00FCEC00E07CB30008002808DB012300F056
:10404C001F01054A8B40400942F820307047BE21C1
:10405C00024804F0C9BB00BF00E100E07CB30008DB
:10406C000138B0F1807F0DD230B4F0250022072149
:10407C00054B064C586084F82350104630BC9A60AF
:10408C00196070470120704710E000E000ED00E07F
:10409C00002800F09780F8B54B4A03680446934219
:1040AC0015D01432934212D0143293420FD01432E2
:1040BC0093420CD01432934209D01432934206D05E
:1040CC001432934203D09A21404804F08DFB63686C
:1040DC0033F010024CD1A36833F0400353D1E368A2
:1040EC0033F0800357D1236933F4807202D0B3F5D7
:1040FC00007F55D1636933F4806202D0B3F5006F51
:10410C0057D1A36933F0200303D0A0212F4804F02A
:10411C006BFBE06930F4405304D02C48A12104F02F
:10412C0063FBE0694FF4807CD4E901320025E76839
:10413C0013433B4327692168254A66693B43254F56
:10414C000A443343A7FB0262A76912093B430F6879
:10415C00920027F47F5727F0300722643B431E4A16
:10416C000343E2630B60A4F820C02846A563F8BDA6
:10417C00B3F5804FAFD09B21144804F035FBA368F6
:10418C0033F04003ABD09C21104804F02DFBE368C6
:10419C0033F08003A7D09D210C4804F025FBA2E747
:1041AC009E210A4804F020FB636933F48062A8D096
:1041BC00A4E79F21054804F017FBA36933F0200303
:1041CC00A7D0A2E70120704708000240D8B300082E
:1041DC00F8FFFDBFCDCCCCCC000002402DE9F04166
:1041EC001E464FF6FE73751E9D4204460F469046C2
:1041FC0035D894F82030012B3AD0012294F8213094
:10420C0084F82020934205D0002384F8203002202B
:10421C00BDE8F08102210022256884F82110A263F8
:10422C00216C2A688B4022F00102E16B2A606268E3
:10423C004B60E36A102A6E600BBFC5F80880AF6054
:10424C00EF60C5F80C80B3B12B6843F00E032B6004
:10425C002B68002043F001032B60BDE8F08140F295
:10426C006F11094804F0C0FA94F82030012BC4D126
:10427C000220BDE8F0812B6823F004032B602B682F
:10428C0043F00A032B60E3E7D8B3000890F8212031
:10429C000346022A03D0042201209A637047026865
:1042AC0010B511681B4821F00E0111601168824293
:1042BC0021F00101116021D017498A421AD0143122
:1042CC008A421DD014318A421DD014318A421DD02D
:1042DC0014318A420CBF4FF480124FF080724FF4AD
:1042EC0080700E4C596B6260188429B1184688474F
:1042FC00002010BD1022F2E7084610BD0122EEE7A7
:10430C004FF48072EBE74FF48052E8E74FF48032C1
:10431C00E5E700BF080002401C000240000002401C
:10432C00042270B4D0E90F61346803688A402242D9
:10433C001D681FD06A071DD51A68910603D41A6828
:10434C0022F004021A603E4A93425AD0143293422D
:10435C005FD01432934266D01432934269D0143237
:10436C0093425BD0143293420CBF4FF480034FF056
:10437C00806347E002228A40224222D0AA0720D53D
:10438C001A68910606D401211A6822F00A021A60F2
:10439C0080F821102A4A934229D01432934240D0FB
:1043AC001432934242D01432934234D0143293429A
:1043BC0042D0143293420CBF4FF400134FF00073F1
:1043CC0016E008228A40224219D02A0717D5012468
:1043DC004FF480751A6804FA01F122F00E021A608B
:1043EC00036B7160846305844BB170BC1847022366
:1043FC000021144C826A636080F820103AB970BCBA
:10440C00704704230F49C26A4B60002AF7D070BC76
:10441C0010474023F6E74FF40053E9E74FF48023AD
:10442C00F0E72023E4E74FF48063EBE74FF40073ED
:10443C00DEE74FF48043E5E74FF40033D8E700BFE5
:10444C0008000240000002402DE9F04FBB4B07462C
:10445C009842884685B013D003F5806398420FD0FC
:10446C0003F5806398420BD003F58063984207D024
:10447C0003F58063984203D0BD21B14804F0B4F930
:10448C00D8F800108BB223B10B0C1B04002B00F0DE
:10449C004A81BE21AA4804F0A7F9D8F80430012BB0
:1044AC001AD9A3F11102012A16D99A1E012A13D97D
:1044BC00A44923F400128A420ED001F580118B42DC
:1044CC000AD0A1F570218A4206D09F4A934203D0AC
:1044DC00BF219B4804F088F9D8F80010002900F09F
:1044EC00B9800026954B3546DFF870B2DFF870A224
:1044FC00964A04E0013531FA05F000F0AB80012456
:10450C00AC4034EA010004EA0109F3D19F4212D015
:10451C00974210D08E498F420DD001F580618F42A9
:10452C0009D001F580618F4205D0CD21844804F07B
:10453C005BF9864A814BD8F80410122900F28D8061
:10454C0012290CD8DFE801F095E0D90A0B0B0B0B04
:10455C000B0B0B0B0B0B0B0B0BD2CB000026B9F17F
:10456C00FF0F00F293803C464FEA850C0F20216828
:10457C0000FA0CFE21EA0E0106FA0CFC41EA0C01D1
:10458C002160D8F80440E10040F1A680DBF818C0A7
:10459C0025F003014CF0010CCBF818C0DBF818C067
:1045AC0001F180410CF0010CCDF80CC001F580310B
:1045BC0005F0030CDDF80CE04FEA8C0CD1F808E0A8
:1045CC0000FA0CF02EEA00009F42019013D09742A3
:1045DC0000F0D1805E48874200F0C4805D4887427D
:1045EC000CBF4FF0030E4FF0040E01980EFA0CFCAA
:1045FC0040EA0C00019001988860DAF80010E003A2
:10460C004CBF41EA090121EA0901CAF80010DAF8A5
:10461C000410A0034CBF41EA090121EA0901CAF8C0
:10462C000410DAF80810E0024CBF41EA090121EA53
:10463C000901CAF80810A002DAF80C1048D541EAB2
:10464C000901CAF80C10D8F80010013531FA05F040
:10465C007FF455AF05B0BDE8F08F3B48814208D0E0
:10466C001AD93D48814204D000F5803081427FF454
:10467C0076AFD8F8081002291FD8002940F08380A3
:10468C00B9F1FF0F4FF004067FF66DAF4FEA850CC2
:10469C00ACF1200C3C1D69E7A0F580108142E8D0FC
:1046AC0000F570208142E4D0A0F5801081427FF4A7
:1046BC0056AFD8F808100229DFD9F721204804F0AA
:1046CC0093F8D8F80810214A1C4B0029D8D05AE08E
:1046DC0021EA0901CAF80C10D8F800100AE7D8F83A
:1046EC000C60711E022955D80C3638E7D8F80C60CE
:1046FC00711E022960D8043631E7D8F80C60711E9F
:10470C00022950D808362AE7D8F80C60711E022905
:10471C007FF625AFD5210A4804F066F8D8F80C606E
:10472C00064B0A4A1BE7D8F80430012B7FF6D9AEAA
:10473C00A3F11102012A3FF6B8AECDE60008014004
:10474C0034B400080000111000002210000C0140CD
:10475C000010014000140140000031100010024014
:10476C00000401404FF0020E01980EFA0CFC40EAD6
:10477C000C0001903FE74FF0010E0EFA0CFC40EAE2
:10478C000C00019037E701294FF008060CBF3C6183
:10479C007C61E4E6EA210D4804F026F8D8F80C60B8
:1047AC000B4A0C4BA0E7E321084804F01DF8D8F89D
:1047BC000C60074A074BA5E7DC21044804F014F809
:1047CC00D8F80C60024A034B95E700BF34B40008DC
:1047DC00000C01400008014070B5064615460C4619
:1047EC0061B1012D03D805B92404346170BD40F2C8
:1047FC00D511054803F0F8FF346170BD4FF4EA7130
:10480C00014803F0F1FFECE734B4000838B5054675
:10481C000C4621B1C3680B4207D0696138BD4FF417
:10482C00F571034803F0E0FFEB682C6138BD00BF65
:10483C0034B400082DE9F04186B000287DD0414BFE
:10484C00026804469A4203D08C213F4803F0CCFF07
:10485C0094F8293203F0FF02002B68D0032326467C
:10486C0084F82932206802F0C7FB56F810CB6D464D
:10487C0037460FCF0FC53B68271D2B60604697E866
:10488C000E0002F0A7FB054638B10125022328468D
:10489C0084F8293206B0BDE8F0810146206802F0A8
:1048AC00B5FB606850B32B464FF00108294604EB6A
:1048BC00431203F1010E82F82830D3865FFA8EF38F
:1048CC008342C2E90E1182F8298082F82B10116400
:1048DC00EDD3002204EB451305F1010C05F10A019F
:1048EC0083F828515FFA8CF549018542C3E94E22C1
:1048FC0083F8292183F82B216250EBD30FCE6D4620
:10490C000FC53668206897E80E002E6002F080FB19
:10491C0005460028B9D1012384F82400206884F8C6
:10492C00293203F005F8284606B0BDE8F081204690
:10493C0084F8282204F026FA90E70125284606B0D0
:10494C00BDE8F081005C004090B4000890F828327B
:10495C00012B10D0012110B5044680F8281204F068
:10496C0041FB206802F0E2FF206802F03BFB0020D4
:10497C0084F8280210BD0220704700BF2DE9F04FCB
:10498C00044683B0006802F0D5FF10F4004F206895
:10499C0043D102F0CFFF460500F15C81206802F0A4
:1049AC00C9FF10F4804F206807D0B0F8443023F4CE
:1049BC0080431B041B0CA0F8443002F0BBFF10F426
:1049CC00005F206807D0B0F8443023F400531B0478
:1049DC001B0CA0F8443002F0ADFFC50400F11C81A3
:1049EC00206802F0A7FF000500F1EE80206802F0BD
:1049FC00A1FF820500F1DB80206802F09BFFC3055C
:104A0C0008D52268B2F8443023F480731B041B0CC5
:104A1C00A2F8443003B0BDE8F08FB0F844301B046A
:104A2C00B7D5DFF83094DFF830B4DFF830A40FE0FE
:104A3C0011F010017CD0018811F400658BB240F0AC
:104A4C0027811F0400F16881B0F844301F04A0D501
:104A5C00B0F84450A9B215F00F05E9D030F8253064
:104A6C001FFA83F81B0428D418F0800FECD030F810
:104A7C00253004EB45129BB203EA090343F40043CF
:104A8C0020F82530B0F8503092F828109BB203EB88
:104A9C00C10300EB4303B3F80434D16BC3F3090334
:104AAC00156C19445364D163002D6BD1204692F8D8
:104ABC00281004F095F92068C6E740F68F7330F89B
:104ACC00252004EB4517134043F0800320F82530D4
:104ADC0097F834316E01002B40F0FC80B0F8503068
:104AEC0097F828219BB2063303EBC20300EB430378
:104AFC00B3F80034C3F30903002B40F07C81A219F6
:104B0C00D2F84401D2E94F1718441944C2F84401B1
:104B1C00C2F83C1127B1D2F83801834280F074817D
:104B2C002644204696F8281104F052F920689BE799
:104B3C0003889BB203EA090343F400430380B0F8F3
:104B4C00503094F828209BB203EBC20300EB4300D7
:104B5C00B0F80434E26BC3F309031A4463642046CF
:104B6C00E26304F03DF994F82430F3B1236CE3B91B
:104B7C0094F82420206842F08002A0F84C2084F89D
:104B8C00243061E792F82820002702F0070204EB9A
:104B9C0042130126C3E90F15194683F82820283142
:104BAC005F6483F8296002F0E3FC20684CE722681C
:104BBC002046B2F8443023F400731B041B0CA2F8FB
:104BCC00443004F015F917E72068B0F840309BB278
:104BDC0043F00803A0F84030B0F8443023F40063ED
:104BEC001B041B0CA0F84430B0F840309BB243F0CF
:104BFC000403A0F8403002F09DFEC10408D52268E1
:104C0C00B2F8443023F480531B041B0CA2F844303C
:104C1C00204604F003F9E9E622682046B2F8403059
:104C2C0023F004031B041B0CA2F84030B2F84030F4
:104C3C0023F008031B041B0CA2F8403004F0FEF810
:104C4C002068B0F8443023F480531B041B0CA0F8EC
:104C5C004430C6E622682046B2F8443023F4806320
:104C6C001B041B0CA2F8443004F0C6F894F828324C
:104C7C00012B3FF493AE002501232946206884F8CC
:104C8C00283284F8245002F04BFE84F8285285E632
:104C9C00B0F8503094F828219BB203EBC20300EB20
:104CAC004303B3F80C34B4F82E21C3F30903C4F84E
:104CBC00443104F50C7102F043FE40F68F73226808
:104CCC00204611880B4043F08003138004F07AF8DF
:104CDC002068B9E697F8282130F8223000EB8201E1
:104CEC0013F4804FB0F850309BB261D1063303EB14
:104CFC00C20300EB4303B3F80034C3F30903002BE6
:104D0C0040F0A4800A8892B202EA0A0242F40042FD
:104D1C0042F0C0020A80F2E640F68F73028813401C
:104D2C0043F080030380B0F8503094F828219BB2F4
:104D3C0003EBC20300EB4303B3F80C34C3F30903D6
:104D4C00C4F8443193B1D4F83C1179B1B4F82E21A4
:104D5C0002F0F6FDD4F83C31D4F84421204613443B
:104D6C002946C4F83C3104F033F82068B0F85030D0
:104D7C00D4F838219BB200F20C4192BBCA5A22F4EF
:104D8C00F8421204120CCA52CA5A92B242F40042AD
:104D9C00CA52038823F4804323F070031B041B0CBA
:104DAC0083F4405343F4004343F0800303804BE609
:104DBC00023303EBC20300EB4303B3F80034C3F339
:104DCC000903002B9ED0B7F830210193D7F83C1182
:104DDC0002F0B6FD97F828112068019B00EB8101C9
:104DEC0090E73E2A28D85508D60748BF0135AD02B2
:104DFC00ADB2CD52CDE7B7F82E21D7F83C110193C7
:104E0C0002F09EFD019B7AE6002092F8282102F028
:104E1C00070204EB4213C3F83C11C3F8440183F8B6
:104E2C002901C3F84071206883F8282103F5947197
:104E3C0002F09EFB206817E65509D20608BF05F163
:104E4C00FF354BEA8525ADB2CD52A2E7B7F832213A
:104E5C000193BBE70F8FFFFF0080FFFF8F8FFFFFDA
:104E6C0090F82822012A0DD0012210B5044680F8B2
:104E7C00241080F82822006802F052FD002084F8EB
:104E8C00280210BD02207047F8B50646080621D44A
:104E9C00002401F00705680100F594713044314499
:104EAC0080F8294148780D700A61CB7000B1CD8132
:104EBC00022B04BF00230B7196F82832012B14D05F
:104ECC000123306886F8283202F0BCF8002086F8FE
:104EDC002802F8BD012701F007056901701801F1DE
:104EEC002804311980F82970DCE70220F8BD00BFD6
:104EFC000B0610B5044618D4002001F007035A0124
:104F0C0002F594712144224482F829010B7094F823
:104F1C002832012B18D00123206884F8283202F0A3
:104F2C0031FA002084F8280210BD012001F007039B
:104F3C005A0102F128012144224482F829000B7005
:104F4C0094F82832012BE6D1022010BD70B5002652
:104F5C0001F0070500EB4514C4F83C210068C4F8C7
:104F6C00403184F8285104F59471C4F8446184F8F4
:104F7C00296102F0FDFA304670BD00BF01F0070157
:104F8C0000EB4110D0F84401704700BFF8B501F0B8
:104F9C00070500EB45140026012721460068C4E9EB
:104FAC000F2384F82850283184F82970666402F0A5
:104FBC00DFFA3046F8BD00BF38B5436801F007058D
:104FCC009D422CD80B06044618D4002049016318C6
:104FDC0083F82901012301F59472A1180D708B70CF
:104FEC0094F828229A4218D0206884F8283202F0CB
:104FFC0017FCB5B1002084F8280238BD01226B01E2
:10500C0003F12801034483F82920012301440D7086
:10501C008B7094F828229A42E6D1022038BD0120E8
:10502C0038BD206804F50C7102F088FCE2E700BF83
:10503C0038B5436801F00F029A4230D80B0604468B
:10504C001AD40020002501F007035A0102F59471CF
:10505C002144224482F829010B708D7094F8283277
:10506C00012B1AD00123206884F8283202F000FCAE
:10507C0084F82852284638BD0120002501F007038A
:10508C005A0102F128012144224482F829000B70B4
:10509C008D7094F82832012BE4D1022038BD012008
:1050AC0038BD00BF11F0800F09D001F0070100EBF3
:1050BC00411028304AB9C38002730020704700EBBE
:1050CC00411000F59470002AF5D001228360027320
:1050DC0000207047002800F062822DE9F04103683F
:1050EC00044682B0002B6DD01E0700F0E181DD0775
:1050FC0040F1A080636833F4803203D0B3F5A02F65
:10510C0040F0B181AC4A536803F00C03042B00F05F
:10511C008880536803F00C03082B7ED06368B3F5CA
:10512C00803F00F08D81002B00F0C981B3F5A02FDA
:10513C0000F00F82A04B1A6822F480321A601A68B1
:10514C0022F480221A6080E19C4A9B4E1360FEF789
:10515C0065FB054605E0FEF761FB401B022800F2EB
:10516C00A38133689907F6D423681A072AD5A36953
:10517C00012B05D94FF4F171914803F035FBA3696C
:10518C00002B00F0388101228E4B8B4E1A60FEF7FB
:10519C0045FB054605E0FEF741FB401B022800F2EB
:1051AC008381736A9B07F6D5874B884A1B68A2FBE1
:1051BC0003235B0A019300BF019B5A1E0192002B33
:1051CC00F9D123685D0740F18480E368012B06D98F
:1051DC00052B04D040F21121794803F005FB764BE6
:1051EC00DA69D00040F117810025794B1A68D10596
:1051FC0040F14981E368012B50D0002B00F07981FC
:10520C00052B6D4B1A6A00F0B18122F001021A6273
:10521C001A6A22F004021A6245E05368D8037FF53B
:10522C007DAF654B1B68990303D56368002B00F0B9
:10523C00BE8023689F0798D52369012B00F2CC8090
:10524C0063691F2B00F2D1805B4B5A6812F00C0F74
:10525C0000F0A6805A6802F00C02082A00F09C802C
:10526C002369002B3FF470AF0122544B524E1A604D
:10527C00FEF7D4FA054605E0FEF7D0FA401B0228EB
:10528C0000F2128133689807F6D53368626923F00F
:10529C00F80343EAC2033360236866E7464A136A9D
:1052AC0043F001031362FEF7B9FA41F2883806465F
:1052BC00414F05E0FEF7B2FA801B404500F2F48046
:1052CC003B6A9B07F6D525B13B4AD36923F0805343
:1052DC00D361E069022800F2A980002858D0364B2F
:1052EC005A6802F00C02082A00F02281022840F0D1
:1052FC004581236A33F4803304D04FF42E71304847
:10530C0003F072FA636A33F4402223F4802110D044
:10531C00B2F5801F0DD0B2F5001F0AD0B1F5401FB9
:10532C0007D0B3F5601F04D040F2B921244803F034
:10533C005BFA0022274B204E1A60FEF76FFA0546E7
:10534C0005E0FEF76BFA401B022800F2AD803368D3
:10535C009901F6D4226AB2F5803F00F02281012037
:10536C00154D646A6B681B4923F474132343134370
:10537C006B600860FEF752FA2C46054605E0FEF716
:10538C004DFA401B022800F28F8023689A01F6D553
:10539C00002002B0BDE8F0815B68DE033FF560AF32
:1053AC00054B1B689D0764D52369012B61D0012037
:1053BC0002B0BDE8F08100BF001002400000424284
:1053CC00ECB400088004424284010020D34D6210EA
:1053DC00007000406000424240F2A1117A4803F094
:1053EC0003FA63691F2B7FF62FAF4FF4D171764808
:1053FC0003F0FAF928E7754A754E1360FEF70EFABA
:10540C00054604E0FEF70AFA401B02284CD8736AE2
:10541C009F07F7D4D5E6DA69012542F08052DA61AC
:10542C00DB6903F080530093009BDEE6664840F294
:10543C00AF2103F0D9F9E06900287FF450AFA7E75A
:10544C00634A136843F480331360FEF7E7F9604E48
:10545C00054604E0FEF7E2F9401B642824D83368C3
:10546C009A03F7D5E5E640F26D11574803F0BCF905
:10547C0048E6574A6169136823F0F80343EAC1030D
:10548C001360236871E61A681F4642F480721A6032
:10549C00FEF7C4F906463B68DA053FF5ABAEFEF7FE
:1054AC00BDF9801B6428F6D9032002B0BDE8F08159
:1054BC0040F26711444803F097F9236817E603F1AB
:1054CC00804303F504331A681E4622F480321A60B6
:1054DC001A6822F480221A60FEF7A0F9054604E04F
:1054EC00FEF79CF9401B6428DED833689B03F7D485
:1054FC009FE603F1804303F504331A6A1F4622F03A
:10550C0001021A621A6A41F2883822F004021A6205
:10551C00FEF784F9064604E0FEF780F9801B40454F
:10552C00C2D83B6A9807F7D4002D3FF4D2AECBE635
:10553C0001283FF42EAF5B68226A03F4803191425C
:10554C007FF435AF606A03F47013181A18BF01208A
:10555C001FE703F18043A3F53C331A6842F4802221
:10556C001A601A6842F480321A606EE742F0040244
:10557C001A621A6A42F001021A6294E60021154A74
:10558C001C461160FEF74AF9054604E0FEF746F9A1
:10559C00401B022888D823689B01F7D4F8E6012029
:1055AC007047A16831F4003306D040F2CF21064891
:1055BC0003F01AF9A168226A0548436823F4003302
:1055CC000B434360CBE600BFECB4000880044242BE
:1055DC000010024060004242002800F004812DE9D6
:1055EC00F041036804461E070D4686B000F0DE80CD
:1055FC00022D00F2D580854A136803F00703AB42F5
:10560C000DD2136823F007032B431360136803F0C8
:10561C000703AB4203D0012006B0BDE8F08123683C
:10562C0098072CD5590704D579494A6842F4E062A9
:10563C004A601A0704D576494A6842F460524A60B7
:10564C00A16831F0800214D021F02002902A10D0F1
:10565C0021F04002A02A0CD021F01002C02A08D060
:10566C00F02906D040F25F316A4803F0BDF8A1681A
:10567C0023686748426822F0F0020A434260DB0765
:10568C0026D56368022B00F2B480614A012B1268A4
:10569C0000F0AB80022B00F0A2809007BBD55C4ED3
:1056AC0041F28838726822F0030213437360FEF7EC
:1056BC00B5F8074605E0FEF7B1F8C01B404500F20F
:1056CC009F807368626803F00C03B3EB820FF2D116
:1056DC004E4A136803F00703AB4209D9136823F051
:1056EC0007032B431360136803F00703AB4292D1FB
:1056FC002368590718D5E16831F480620ED021F483
:10570C000072B2F5A06F09D0B1F5C06F06D04FF49E
:10571C006971404803F068F8E16823683C484268C6
:10572C0022F4E0620A4342601A0718D5226932F467
:10573C0080630DD022F40073B3F5A06F08D0B2F5DE
:10574C00C06F05D040F2AB31324803F04DF82269FE
:10575C002F494B6823F4605343EAC2034B6040F279
:10576C0001222D4B06ACADF804200FCB04E90F0041
:10577C0027494A6802F00C03082B1DD0274B244AFA
:10578C00274852682749C2F30312805C264AC3405B
:10579C0008681360FEF700F8002006B0BDE8F08141
:1057AC0040F239311B4803F01FF824E74FF44E71D7
:1057BC00184803F019F81BE7C2F38343234413F88A
:1057CC00100CD3031ED54A68144BC2F3404203FBA2
:1057DC0000F3224412F8142CB3FBF2F3CFE796013A
:1057EC003FF55DAF17E70120704797033FF557AFC3
:1057FC0011E740F26631074802F0F6FF636844E7B0
:10580C00032009E7094B03FB00F3B8E70020024033
:10581C0000100240ECB4000848B5000800127A00F1
:10582C00E0B70008700000208401002000093D0052
:10583C0040F2012286B0154B0DF1180CADF8042086
:10584C000FCB0CE90F00124A536803F00C01082926
:10585C0002D0104806B07047C3F383416144DB03A8
:10586C0011F8101C0CD553680A48C3F3404300FBD5
:10587C0001F0634413F8143CB0FBF3F006B070472E
:10588C00054800FB01F006B0704700BF48B50008A2
:10589C000010024000127A0000093D00044B05493B
:1058AC005B68054AC3F30223CB5C1068D840704791
:1058BC0000100240F0B7000884010020044B054999
:1058CC005B68054AC3F3C223CB5C1068D8407047B1
:1058DC0000100240F0B70008840100202DE9F041CF
:1058EC000368044613F0130F82B079D0D80732D571
:1058FC00636833F4407303D07221474802F074FF9D
:10590C00464BDA69D10049D5454B00251A68D205BA
:10591C0052D5424E336A13F440730FD0616801F4D0
:10592C0040729A420BD000200127336A3D4A23F47F
:10593C00407117601060D80731625ED46168374AD5
:10594C00136A23F440730B4313621DB1D36923F024
:10595C008053D36123689A070FD5A16831F4404274
:10596C0005D0B9212C4802F03FFFA16823682B48D1
:10597C00426822F440420A43426013F010000AD0FD
:10598C00E26832F4800331D1002024494B6823F4BF
:10599C00800313434B6002B0BDE8F081DA69012546
:1059AC0042F08052DA61DB6903F080530193019B72
:1059BC001B4B1A68D205ACD41A681F4642F480728D
:1059CC001A60FDF72BFF06463B68DB05A1D4FDF7FB
:1059DC0025FF801B6428F7D9032002B0BDE8F081B5
:1059EC006C210D4802F000FF23687FE740F215118F
:1059FC00094802F0F9FEE268C6E7FDF70FFF41F235
:105A0C008838074604E0FDF709FFC01B4045E3D882
:105A1C00336A9907F7D591E75CB50008001002408E
:105A2C00007000404004424210B5044640F201228E
:105A3C0086B0394B0DF1180C14F0130FADF804208F
:105A4C000FCB0CE90F0008D0022C0DD0102C2FD04E
:105A5C00012C15D0002006B010BD4FF4CB712F488F
:105A6C0002F0C2FE022CF1D1FFF728FF2C4B5B6831
:105A7C00C3F3813301335B00B0FBF3F006B010BD10
:105A8C0040F2023226490B6A1A40B2F5817F33D0BC
:105A9C0003F44073B3F5007F31D0B3F5407FD9D117
:105AAC004FF22443086810F4003018BF1846D2E7B0
:105ABC001B4B5A68186810F08070CCD0C2F383412D
:105ACC0006A80144D20311F8100C20D55B6806A976
