:040000006F00101D60
:10000400000000000000000090000020AE0400206A
:10001400A9BDF9F3900000200000000000000000DA
:10002400900000209000002000000000000000006C
:10003400900000200000000090000020000000005C
:1000440092000020900000209000002090000020EA
:1000540090000020900000209000002090000020DC
:1000640090000020900000209000002090000020CC
:1000740090000020900000209000002090000020BC
:1000840090000020900000209000002090000020AC
:1000940001A03727004083476700858B99CB93875E
:1000A40081809C439387470623A4F18085472303DB
:1000B400F7007300203073270080218B9387018120
:1000C40009CB7327008023A8E18098435D9B7310BC
:1000D40007800100010037170040930670052300D4
:1000E400D704930680FA2300D70401000100834655
:1000F400B70493F6F60DA305D7042300070473266B
:1001040000809443A18AD18E7390068023A8018035
:100114000100010093760502638406180347A700D3
:10012400118B25E773270080218B09CB732700806F
:1001340023A8E18098435D9B7310078001000100B0
:1001440037170040930670052300D704930680FAFE
:100154002300D704010001008346A70093E646006C
:100164002305D70023000704F32600809843218B3E
:10017400558F7310078023A8018001000100130725
:10018400004B010001007D176DFF73270080218B58
:1001940009CB7327008023A8E18098435D9B7310EB
:1001A4000780010001003717004093067005230003
:1001B400D704930680FA2300D704010001007D8947
:1001C4002314A7000100010001000100230007041B
:1001D400F32600809843218B558F7310078023A842
:1001E40001800100010073270080218B09CB732754
:1001F400008023A8E18098435D9B73100780010071
:10020400010037170040930670052300D7049306B6
:1002140080FA2300D7040100010001000100B72681
:10022400004013061005A383C68023000704F326A9
:1002340000809843218B558F7310078023A8018079
:100244000100010073270080218B09CB73270080F4
:1002540023A8E18098435D9B73100780010001008F
:1002640037170040930670052300D704930680FADD
:100274002300D704010001008346B70493E606086F
:10028400A305D70423000704732700809C43A18B94
:10029400D98F7390078023A8018001000100828018
:1002A40093760504638B06140347A700418B25E767
:1002B40073270080218B09CB7327008023A8E1805A
:1002C40098435D9B731007800100010037170040BD
:1002D400930670052300D704930680FA2300D704FD
:1002E400010001008346A70093E606012305D70019
:1002F40023000704F32600809843218B558F731045
:10030400078023A80180010001001307007D01007C
:1003140001007D176DFF73270080218B09CB7327A4
:10032400008023A8E18098435D9B7310078001003F
:10033400010037170040930670052300D704930685
:1003440080FA2300D704010001009376F50193E6B7
:1003540006042314D700010001000100010023005A
:100364000704F32600809843218B558F7310078070
:1003740023A8018001000100130760046310E50451
:1003840073270080218B09CB7327008023A8E18089
:1003940098435D9B731007800100010037170040EC
:1003A400930670052300D704930680FA2300D7042C
:1003B40001000100B72600400946B5B57327008047
:1003C400218B09CB7327008023A8E18098435D9B90
:1003D4007310078001000100371700409306700571
:1003E4002300D704930680FA2300D70401000100F8
:1003F400B7260040130620053DB573270080218BE6
:1004040009CB7327008023A8E18098435D9B731078
:100414000780010001003717004093067005230090
:10042400D704930680FA2300D70401000100835601
:10043400870093E6060C2314D700C5BB41118146FF
:1004440001468145114506C6192CF3270080A18B6E
:100454009386018189CBF327008023A8F1809C42F5
:10046400DD9B7390078001000100B717004013075C
:1004740070052380E704130780FA2380E704010052
:10048400010003C76704136717002383E70423806D
:100494000704732700809C42A18BD98F7390078037
:1004A40023A8018001000100B240410182808146FD
:1004B4000146814511456522F3270080A18B1387EE
:1004C400018189CBF327008023A8F1801C43DD9BA5
:1004D4007390078001000100B71700409306700570
:1004E4002380D704930680FA2380D70401000100F7
:1004F400FD562396D70223800704F32600801C436D
:10050400A18BD58F7390078023A80180010001007F
:10051400F3270080A18B89CBF327008023A8F180E7
:100524001C43DD9B7390078001000100B717004056
:10053400930670052380D704930680FA2380D7049A
:100544000100010083C6670493E616002383D704E1
:1005540023800704F32600801C43A18BD58F73905E
:10056400078023A801800100010001A0BD473305D5
:10057400F50201007D1575FD8280411122C426C259
:1005840006C6AA84014463179400B24022449244EC
:100594004101828005041305803E4204C13F41802D
:1005A400DDB72303048015472303E48001002302FD
:1005B400A480828083076480E3CE07FE2303048043
:1005C400828083076480E3CE07FE034544808280F3
:1005D40083076480E3CE07FE2302A4808280411156
:1005E40026C44AC24EC006C61377F50BAD47AA8986
:1005F4002E8995446306F70019456537653F8D4498
:100604004E854537FD59FD1463983401B240A24428
:100614001249824941018280135509011375F50F6E
:10062400453F2209CDB7011126CC06CEB7040800F8
:1006340051371545BD37713769372AC6A53F32454D
:100644009377150089EB136515001375F50FF240C8
:10065400E24405618280FD14E9FC0145CDBF397196
:1006640026DC4ADA4ED852D656D45AD25ED006DEAA
:1006740062CE66CCB7E700E07D5783AA070022C6A6
:1006840003AA470023A0E71823A2E718B7170040DE
:10069400130770052380E704130780FA2380E70417
:1006A40083C74704930B75FFB684E20793FBFB0FE4
:1006B4008546AA892E8B328937240040E187015769
:1006C40063FA76016308D5008946130700026313B1
:1006D400D5000157D98F93F7F70FB71C0040238239
:1006E400FC0411472303E4801305F00F5D3D094C1E
:1006F400D135636D7C11B7050700DA95378707009C
:10070400795563F2E504B3879500636EF702370BFE
:100714000800A94733EB65016399F90689E481442C
:10072400513D26850DA0DA850945553D050903454A
:10073400F9FFFD14050B693D81C49377FB0FFDF7A9
:10074400DD3569FD7D55B71700401307700523801B
:10075400E704130780FA2380E70403C74704418BA7
:100764002382E704F250B7E700E023A0571123A245
:100774004711E25432445259C259325AA25A125BB6
:10078400825B724CE24C21618280A5476395F90635
:1007940085691309F00FB3069900B3742B01B6945D
:1007A4001349F9FFB3749900856B33796901416B7F
:1007B4009387F9FFB3F7270199E363FC340193D9D5
:1007C4004900C147E3E637FF99BF0569C1697D194F
:1007D400D9B71305800D638869011305000263848A
:1007E400790113051008CA85DD3B353D21DD4E999D
:1007F400B3843441D9B7DA852D45D533CA94E3009F
:1008040099F205097D3BA30FA9FED5BF9387F9FF94
:1008140093F7F70F6361FC0C83C71C0413073008BC
:10082400631FF70437070800636BEB04B3079B00EF
:10083400B706100063F5D704334BEB008947639385
:10084400F9068980D549E38C04ECDA850945413BF6
:1008540011090327C9FF91472320E480030764801B
:10086400E34E07FE23033481FD17EDFBFD14110B4A
:1008740081C49377FB0FE9FF7D3371F5E1B5B717B9
:10088400004003C75704B70708001377070219E3AA
:10089400B78707007955E378FBEA33079B00E3FF4A
:1008A400E7F855B58547E382F9F2DA852D45053B2E
:1008B4009389F4FFE38504E6293393F7390091EB38
:1008C400832604800327090093074900E39AE6E49A
:1008D4003E89CE84F1BFB5476396F9001305900BAA
:1008E400C93135BDB1471305B00AE38BF9FE994709
:1008F4006391F904B7050800B365BB002D45C53104
:1009040081448D4BA1497539639674018327048012
:100914002320F9008504E39834FF83270480131708
:100924002B01635507002312F900D5BB2322F900DC
:10093400FDB39D476399F90281451305B004453120
:10094400BD442320090023220900FD599D3993F752
:100954007400CA9703C70700FD14398D2380A700CC
:10096400E39634FF6DBBA1476392F9046D3981446A
:10097400630D0B008D479304C0036308FB009304CD
:10098400000563048B01930440041375C507E30851
:1009940095D81945393139390545213126850D391F
:1009A40009453D314931E31C05D669BB914763993B
:1009B400F90013056006F536F53E130590090DB7E9
:0809C400E38F09D4F154A9BB33
:1009D00097110020938101D01771002013018162CB
:1009E0001305400097F5FF1F9385C561170600208A
:1009F0001306C6FD63FAC5008322050023A0550037
:100A000011059105E3EAC5FE17B50000130505B011
:100A100097050020938585FB1386818063FAC500C6
:100A20008322050023A0550011059105E3EAC5FEC8
:100A30001385818097250020938585BE6377B50057
:100A4000232005001105E36DB5FEFD42739002BC45
:100A50008D4273904280930280087390023097F227
:100A6000FF1F9382225A93E2320073905230970212
:100A700000009382C20E73901234730020303D4305
:100A80002A876373C3029377F700BDEFADE59376D2
:100A900006FF3D8ABA960CC34CC30CC74CC741072E
:100AA000E36BD7FE11E28280B306C3408A06970249
:100AB000000096966780A6002307B700A306B7003C
:100AC0002306B700A305B7002305B700A304B700AA
:100AD0002304B700A303B7002303B700A302B700A2
:100AE0002302B700A301B7002301B700A300B7009A
:100AF0002300B700828093F5F50F93968500D58D7E
:100B000093960501D58D61B7939627009702000053
:100B100096968682E78086FA9680C1171D8F3E964C
:100B2000E374C3F8A5B701458280371700408327D7
:100B3000870A411106C693E707202324F70A854553
:100B400013050010EF3000418D4513050020EF30F4
:100B50006040B24041016F3060581D711305800440
:100B600086CEA2CCA6CACAC8CEC6D2C4D6C2DAC065
:100B700097F0FF1FE78060544D3F0565130505772B
:100B8000EF3080513727004083472700179500003A
:100B90001305C54D1384818093E717002301F700E7
:100BA000B7E700E0416723A0E710EF60E0771C4063
:100BB000179500001305054DEF60007781449709F4
:100BC0000020938929E3179B0000130B6B4C714A9B
:100BD000ED4A13090031B387990083C507005A8590
:100BE000EF60405FB3E74403639557012945EF6029
:100BF000C0628504E39124FF3146979500009385F8
:100C000025454800EF50901A31469795000093858E
:100C1000E5440808EF50901917950000130585501A
:100C2000EF20F071979500009385C54F180897063F
:100C30000000938686EF1386C1812810EF20D038FC
:100C4000AA8501C91795000013050545EF60805876
:100C500001A01408500089452810EF2010427008A8
:100C60000C08281003290400EF20B04CAA84084087
:100C700033052541EF50205C979700009387C73ECE
:100C80008C43EF40302EEF50E0672A86AE861795F2
:100C90000000130565429795000093856541EF605C
:100CA00060531C40B5E892547D59930900000144FB
:100CB000179B0000130B8B41A94A8840EF508064BA
:100CC0002A86AE865A85A285EF60C05003AA04002A
:100CD000CE855285EF4030546354A0002289D289DA
:100CE00005049104E31B54FD4E85EF50A06193175A
:100CF000290097060020938666CDBE9690422A87EB
:100D0000AE87179500001305253DCA85EF60804C1E
:100D10002810EF20F0332DBFA6851795000013058E
:100D2000253FEF60204BEDB71571A2CD6E535E5499
:100D30004E5E0E5F336364003E543363C301CEC71F
:100D400066DB86CFA6CBCAC9D2C5D6C3DAC15EDF01
:100D500062DD6AD96ED7054E9E5EFE59832C011066
:100D6000336383006304CF016F20A0671D4E639837
:100D7000EE0B2E54154F0D4E63438F0AB304F7024A
:100D8000654F254E634D9F086399D401333360004E
:100D900033E369000D4E631403083ED097A70000AB
:100DA000938787D02EC42AC68325C11088433A84EE
:100DB00046D442D236CC32CEEF40D01AEF50C02FBC
:100DC000A2472ACA23A6A18083D76700014B971B9D
:100DD0000020938BAB6B3EC817A90000130909CD07
:100DE000C247634EFB04B24703D967008547639D42
:100DF000F43AA247014A814903A3870093171900D7
:100E00003EC883270111854A0D4B930B006013FCEC
:100E1000F70FA24783D7270063C5F938014EFE407C
:100E20006E44DE444E49BE492E4A9E4A0E4BFA5B42
:100E30006A5CDA5C4A5DBA5D72852D6182809317C7
:100E40002B00338CFB00E6978843050BEF50804B5B
:100E50002A86AE860325090083254900EF30202B22
:100E60002A8A03254110AE8AEF50C0492A86AE86F1
:100E70005285D685EF30A029EF4000442320AC00F6
:100E800085B7B2473247E24303D8470083D76700AC
:100E9000971200209382825F33084803014E269800
:100EA000B307F802032887003E98F247B38F270163
:100EB000BE889D47B38707413ED0A24783D76700CE
:100EC000FD176346FE029D47B38E0741A24783D7B5
:100ED00067006345FE1C92570504BE94A24783D762
:100EE0004700E340F4FAA25785093E9A1DB7937E66
:100EF00089FFC6857E8542868147814602573297A3
:100F00006364D70763E02E1503A70300BA9603A70F
:100F10000200A206B3C6E6022E5763095715630BFB
:100F200067155247B306D702C186E2962300D30065
:100F300003A74300BA9703A74200A207B3C7E7027B
:100F40002E5763015715630367155247090E0903AE
:100F5000A103A102B307F702C187E297A30FF3FE33
:100F6000C247BE98BE9F91BF030F0600038D0500C8
:100F7000830C050003872500330DED03830D350039
:100F80002106A1052105B38CEC03EA96030F96FF19
:100F9000038D95FFE697830C95FF330DED03338F9B
:100FA000EC03EA96B30CFF008307A6FF030FA5FF2F
:100FB0003307F702B307FF02330DD7008386B5FF6F
:100FC000338F97018307B6FF830CC5FFB386F60204
:100FD000B387FD023387A601038DC5FFFA97030F80
:100FE000C6FF330DED03B38CEC03B306ED00030F26
:100FF000D5FF0387D5FFB38DFC008307D6FF3307EA
:10100000F702330FFF02330DD7008307E6FF838615
:10101000E5FFB30CBF01030FE5FFB386F602B3078C
:10102000FF023387A6018386F5FF338F970183077D
:10103000F6FFB386F602BA960307F5FFB307F70289
:10104000FA976DBD3307D801030607003387D8012F
:10105000030707003307C702BA963387DF01030788
:101060000700850E3307C702BA9769BDE3DB06EABE
:10107000814645BD63D306008146E3D4DBEA93068F
:10108000006045B5E3D307EC8147C1B563D30700E2
:101090008147E3DCFBEA9307006045BD937589FF58
:1010A0004686C28681473387DE006365B70463E105
:1010B000250DE24613172E00BA969442B69797165E
:1010C00000209386A63C369714432E57A207B3C739
:1010D000D702630C570B630E670B52470503CA9880
:1010E000050EB307F70203270111C187BA97A30FB3
:1010F000F3FEE9BB0307060003850600030F460065
:10110000A1063305E502038796FF2106AA9703058A
:1011100096FF3305A7020387A6FFAA970305A6FF3C
:101120003305A7020387B6FF3E958307B6FFB307D3
:10113000F7020387C6FF330FE703AA970387D6FF9B
:101140000305D6FFB30FFF003305A7028307E6FFB1
:101150000387E6FFB307F702330FF5010387F6FFB6
:101160003385E7018307F6FFB307F702AA9725BF88
:101170003307B800B386B80003070700838606006C
:1011800085053307D702BA971DB7E3D807F481471F
:10119000A9B763D307008147E3D1FBF4930700604D
:1011A0002DBF814401441DBB6391094EA247A28516
:1011B00083A98700635304008145338825030146D2
:1011C00081468147138541450257635AE6021397CA
:1011D00026002A970143BE8831A02320170105036A
:1011E000CA981107E34B83FE3247C297AE96035766
:1011F00047000506018F33072703BA97F1B7338AF3
:10120000240302C8171E0020130E4E9893171A00CD
:10121000BEC2BE57937D8AFFB30AF0403ED89317F3
:1012200024003EDEA247424783D72700E358F7BE9B
:10123000425793D7FA4102D6F98F3EDCDE577257F8
:101240003EDA330BF040E257B3878702F297BEC411
:10125000E257B387E70213874145BA97BEC6832793
:10126000011193F7F70FBEC0A247325783D747004B
:10127000634CF700C247225785073EC8A257BE9A63
:10128000C257998F3ED879BFB2471357FB01B24678
:1012900083DB470003DC270093D7FA01BA97025794
:1012A00083DC660056973327EC00BA9733078B0030
:1012B00033A7EB00BA9733877A035A97330797031C
:1012C00083AC8600BA9CB9EB971600209386068CF7
:1012D00001473386EC0063412705624F971E0020CB
:1012E000938ECE1A72468148854F8D4293030060DB
:1012F0002DA29395270013854145AA958C41B2955F
:1013000003850500B385F60085072380A500E3C2A9
:1013100097FE0507A69675BF8147D5BFD257135DC7
:10132000FB41330C5C41337DFD00825763D3870161
:101330003E8CB38B6B4163537401A28B8325811068
:1013400072855286EFF0AFF3A6462A8E01473388A6
:10135000EC00E35427F9B6853645625625A09398EC
:101360002700AA9883A80800C29803830800B388BE
:10137000F500850723806800E3C377FFF257050671
:10138000A2953E95634586010507A696C9B7EA87EB
:10139000E5B73305CA001D47AA8B170800201308BC
:1013A000E87EB28581478146330CC7403307BC00D5
:1013B0006362B70B6E87636B471703270F00BA96FC
:1013C00003A70E00A206B3C6E6022E576304F71960
:1013D000630657185247B306D7020647C186BA9626
:1013E0002380D90003274F00BA9703A74E00A20716
:1013F000B3C7E7022E57630BF717630D5716524713
:1014000089088909210FA10EB307F7020647C18792
:10141000BA97A38FF9FE96473E96A24783D76700F7
:10142000FD17E3C8F8F61D43971E0020938E0E06A5
:10143000054F8D4F93020060A24783D7670063DD9D
:10144000F8221707002013076774B2878146330814
:10145000C34075A203030800038D0500830C05003B
:1014600003872500330D6D022108A1052105B38CEA
:101470006C02EA96030398FF038D95FFE697830CB1
:1014800095FF330D6D0233836C02EA96B30CF300C3
:101490008307A8FF0303A5FF3307F702B307F3028F
:1014A000330DD7008386B5FF338397018307B8FFD9
:1014B000830CC5FFB386F6023387A6018306B5FF0A
:1014C000038DC5FFB387F6029A970303C8FF330D58
:1014D0006D02B38C6C02B306ED000303D5FF0387E6
:1014E000D5FFBE9C8307D8FF3307F7023303F3020F
:1014F000330DD7008307E8FF8386E5FF9A9C03033B
:10150000E5FFB386F602B307F3023387A6018386AD
:10151000F5FF338397018307F8FFB386F602BA9687
:101520000307F5FFB307F7029A9749B5B305C7015B
:1015300003850500B305E60083850500B385A50294
:10154000AE96B385EB00838505000507B385A5023C
:10155000AE9795B5E3D006E88146ADBD63D30600EE
:101560008146E3D9D3E693060060ADB5E3D907E839
:10157000814771B563D307008147E3D2F3E893074E
:101580000060B5BD8385070003050700838347001E
:1015900021073305B502830597FFA107AA960385A6
:1015A00097FF3385A5028305A7FFAA960385A7FFAA
:1015B0003385A5028305B7FF36958386B7FFB386CB
:1015C000D5028305C7FFB3837502AA968305D7FFAB
:1015D0000385D7FFB38BD3003385A5028386E7FF4E
:1015E0008305E7FFB386D502B30375018305F7FFD3
:1015F000338576008386F7FFB386D502AA96B305B6
:10160000F800E3E1B5F9EE8763EF4703E24713978C
:101610002800BA979C437697BE961C43A206B3C691
:10162000F602AE57638EE7036380F705D24785095C
:1016300052968508B386D70283270111C186BE96CC
:10164000A38FD9FED5BB3387C701B305F6000307C7
:1016500007008385050085073307B702BA966DB783
:10166000E3D606FC8146D9B763D306008146E3DFA3
:10167000D2FA930600605DBFB257125785073ED677
:10168000D2573A9B998F3EDAC5B66384F9006F1042
:10169000D02402578D476304F7006F10203A63048B
:1016A000E4006F10A039B247125783D74700F517EF
:1016B0003386270393171900630437016F00707A8C
:1016C000225792566304D7006F00B07923AEF144DD
:1016D00023AA014423AC214533872701329723A055
:1016E000E1464A9723A2E1464A9723A4E1464A9756
:1016F000329723A6E1464A9723A8E1464A9723AAB0
:10170000E146B307264113162900B29701478145E8
:10171000138841DDC148AE86130547001316270024
:10172000429614C20507CA96E31AA7FEBE95E314B3
:1017300017FFC24792073EC5BE57B307F0403ED0E1
:10174000BE8ABE5785073ECB8327011193F7F70F5B
:101750003ED4BE575A47D697BEC0A247569783D7A6
:101760002700634BF714224703574700D98F8D8B0F
:10177000638607EAB2470259970D0020938D0D4109
:1017800003D66700A2479384414503DA6700944774
:10179000B24783D74700F5173387C70223AA01440E
:1017A00023ACC1449317160023AEF144B297BA9705
:1017B00023A0F146B29723A2F146B29723A4F146A3
:1017C000B297BA9723A6F146B29723A8F146B297EB
:1017D00023AAF146A547B307FA023ED2BE57CA97DD
:1017E0003EC8A247424783D72700E34CF700B247E1
:1017F00017080020130888399384414503D66700F1
:10180000A247854D83D967009447B24783D74700E5
:10181000F5173387C70223AA014423ACC1449317A9
:10182000160023AEF144B297BA9723A0F146B297BF
:1018300023A2F146B29723A4F146B297BA9723A602
:10184000F146B29723A8F146B29723AAF146A547DD
:10185000B387F9023ED20257BE57BA973EC8A24795
:10186000424783D72700635BF7DA82578D4A13DA42
:10187000F741B307F04033FA4701DE573309F04030
:101880008D47B307FA02C2973ED4B147B307FA02B5
:10189000A6973ED68257FD833ED882578D073EDA03
:1018A000DE57B38C2701A24783D74700E3C5FC2A44
:1018B000825785073ED045B73307504193D7FA4149
:1018C000F98F3EDADE57138741E102D6B307F040C5
:1018D0003ED2D2578A07BA973EC7D257138741DD07
:1018E0009207BA973EC993D7FA013ECD93873A0043
:1018F0003ECFA24783D64700B257850763C4D700BF
:10190000890A81BDB24783D4470003D92700925783
:1019100013D7F701EA473386E700FA4733A72701D1
:10192000934717003307F60092578D07B3A7970028
:1019300093C71700B30FF700B3879A021257BA97ED
:10194000324703546700B387870200473E94639190
:101950000F368647B386F602B257BE96C247B386A5
:10196000F602A2479C47BE96938741DD98433ADE34
:10197000D843BAC29847BAC4984BBAC6D84BBAC86B
:10198000984FBACA9853BACCD853BACE9857BAD04F
:10199000D847BAD2D84FBAD4D857BAD6985BBADAA1
:1019A000D85BBADC985FDC5F6246BADE72473EC342
:1019B000C24763C9FF00B25789073ED692578907CD
:1019C0003ED205BF964783088700030D0700A29704
:1019D000038C0700A64746D8A658A297038B07009A
:1019E000B647A298838E0800A29783870700B6584F
:1019F000830C17003EDCC647A298038E0800A2970E
:101A000003880700D64733038D03830B2700A29773
:101A100003850700E647030A370083094700A297BA
:101A200083830700F647B3886C0303095700A29726
:101A30008385070086578304670083027700A29797
:101A40008387070046939658B38D0C03A29883882A
:101A50000800625FB38878039A9833030A03330F50
:101A6000ED039A983383A902FA9D338FAB029A98BB
:101A70003303D9036E9FB30D7A024693B388B40241
:101A8000FA9D338FB9024693B388F2026E9FB30D6D
:101A9000F9029A9842533303C303FA9D565F229F7B
:101AA000030F0F00330F9F029A98C6D8E658A298EA
:101AB00003830800F6586E9FB38D6202A298838854
:101AC00008006E9FC25DB38EDB03B38D1D036E9F56
:101AD0007AC1B30D0D03338FAC026E9FB30DBA0202
:101AE000769F6E9FB38DF902330EC9036E9F3383C9
:101AF0006402729FB38812031A9F469F9A48330C60
:101B00009C03A29803830800C258330313039398DD
:101B10002F00330E6F0017130020130323979A989A
:101B200083AE0800F258330B7B03A2988388080029
:101B3000338DA803E258338A4803629D5A9D3308C7
:101B40003803529D33052503429DB38393022A9D9A
:101B5000B38555021E9D2E9DC255B387B7020C4218
:101B60003E9DAE572E9D220D8545334DDD03638985
:101B7000B70C8D45638AB70CD2478545338DA703D3
:101B8000A257135D0D413E9D2380A601C657032336
:101B900006003E93AE5722033343D3036380B70C52
:101BA0008D456381B70CD245C2470545B69733834F
:101BB0006502A255135303412E9323806700A24769
:101BC000C245832D060083D74700B387B7028A45F5
:101BD000AE9DAE55A20DB697B3CDDD03638EA508BD
:101BE0000D45638FA508D2450545B38DB503A255B4
:101BF00093DD0D41AE9D2380B701A247C24503236B
:101C0000060083D7470072938507B387B702AE55A6
:101C10002203B6973343D303638EA5060D45638F26
:101C2000A506D24585060504850F110625073383D1
:101C30006502A255135303412E93238067008DBB89
:101C4000E35C0DF2014D0DBF63530D00014D930791
:101C50000060E3D3A7F3130D006039BFE35503F42D
:101C6000014391B763530300014393070060E3DC32
:101C700067F21303006005BFE3D70DF6814DA5B7EA
:101C800063D30D00814D93050060E3DEB5F5930D40
:101C9000006091BFE35703F8014361B7635303004A
:101CA000014393050060E3DE65F61303006095BF12
:101CB00092573309594193D9F741B307F040B3F92B
:101CC0003701914763D32701114992579D8C914762
:101CD00063D3970091442A4683258110138541E1FF
:101CE000EFE0FFD9BA460147C2473308E400634E2C
:101CF000F728A2470647E24583D74700F246B38755
:101D0000E7023257BA974247B387E702224718479C
:101D1000BA973EDC625697070020938727773ED814
:101D2000138741E1A24703D56700E257B307F640A6
:101D3000E3D3A7C8038D0600838C1600030C17009D
:101D4000030B2700838B2600330E8D038307470088
:101D5000038A3600830857003EDEF25F838946001F
:101D600003086700038956000304870033836C036C
:101D7000030F770083846600030597008383760052
:101D80008307A70083828600830EB7001A9E030391
:101D90003700B30FFD0333037303B38D1C0372933A
:101DA000330E1A03FE9D7293B38F0B03338E090318
:101DB000EE9F7293B30D8A02330EE903FE9D1A9EC5
:101DC000B38FA9023383A402EE9F1A9EB30DF902CA
:101DD0003383F302FE9D830FC7007293338ED203C9
:101DE000B38F9F027293030ED7009AC20303E700DA
:101DF000EE9FB38DC303EE9FB38D6202EE9FFEC4D0
:101E0000B30D1D03B38F0C03338FEB03EE9FB30DA4
:101E1000AA02FA9FEE9FB38DF902B30ED903EE9F8B
:101E2000338EC403F69F33836302F29F030EF700E1
:101E30009A9F4253330C9C03032F030003030700B4
:101E4000330DA3037253330B7B03629D330A4303A9
:101E50005A9DB3883803529D33082803469D3304A6
:101E60009402429D33057502229DB38757022A9D35
:101E70008841330E5E023E9DAE572A9D220D0545D8
:101E80007E9E334DED036386A7100D456387A71033
:101E9000D24716450544338DA703A257135D0D4164
:101EA0003E9D2300A6019C41AA972E55A207B3C7C9
:101EB000E703630E850E0D44630F850E52444245C1
:101EC0003295B307F4022254C187A2972300F5008C
:101ED000A247424583AD050083D747000544B38739
:101EE000A7022645AA9D2E55A20DB297B3CDED03AC
:101EF000630D850C0D44630E850C52450544B30DEE
:101F0000B503225593DD0D41AA9D2380B701A24759
:101F1000424583AF050083D747007E9E8507B38780
:101F2000A7022E55220EB297334EEE03630D850A9B
:101F30000D44630E850A5245410705069105A50625
:101F4000330EC5032255135E0E412A9E2380C7011E
:101F5000C25791073ED8F9B393982700AA9883A84F
:101F60000800C29803830800B388F5008507238022
:101F70006800E3C397FE0506410591056345260108
:101F80000507C10695B3CE87EDB7B6854A455256CB
:101F9000F5B7E35F0DEE014DE5BD63530D00014D57
:101FA00093070060E3D6A7EF130D0060D5B5E3D724
:101FB00007F0814721B763D307008147130500600D
:101FC000E35EF5EE93070060D5BDE3D80DF2814DD9
:101FD0002DB763D30D00814D13050060E35FB5F1AC
:101FE000930D006019BFE3580EF4014EA9B7635377
:101FF0000E00014E13050060E35FC5F3130E006091
:102000001DBFB3072041935AF941B3FA5701DE5778
:102010000D4BB309F0408D47B387FA02EE973ED4DB
:10202000B147B387FA02A6973ED69357F9013ED837
:10203000930739003EDADE57338D3701B24783DB31
:10204000470003D66700A24783D747006345FD00DA
:1020500005096FF0AFF833047903B247425703DC48
:10206000270093D7F901BA9752573327EC00BA9754
:102070001387390033A7EB004E94BA973307C40295
:10208000324600463A946393071403A8040083A8D9
:10209000440003A3840003AEC40083AE040103AF75
:1020A000440183AF840183A2C40183A30402724765
:1020B000170500201305853D930B006063C547019C
:1020C000D29685098DBF33060401830C06000306F2
:1020D0000700030C170083052700338DCC0233065D
:1020E000140103060600330C86033306640003065E
:1020F0000600B305B6023306C401B30C8D01030616
:102100000600030D3700330DA6033306D401338CCC
:10211000BC0003060600830C4700B30C960333068D
:10212000E401B305AC0103060600030C5700330CB1
:1021300086033306F401338D9501030606008305FB
:102140006700B305B602B30C8D01330654000306D5
:102150000600338CBC0083057700B305B602330656
:10216000740003060600E295030C8700330686031D
:10217000624CB2951396270062961042054CB295B8
:10218000139685000C41B345B6022E5663048603B0
:1021900063066603524C3386F6000504850725075F
:1021A0001105B305BC02032C0111C185E295230082
:1021B000B60029B7E3D005FE8145E9BF63D305002A
:1021C0008145E3D9BBFC93050060E9B793DCF94195
:1021D000B3073041330C2C41B3FC970163538B019F
:1021E0000D4CB38B3B4163537B018D4B12568325C2
:1021F00081106E85EFE0BF88A25601473308E400E6
:10220000634B4713A247724717080020130808289A
:1022100083D64700C247814593080060B386F60223
:10222000A247369D330D4D039447970700209387AF
:10223000E795EA96E3D645E9038E07000306070013
:102240000303170003052700B30ECE020386170011
:10225000624433036602038627003305A602338EE9
:102260006E0003863700830E37003303AE00B30ED3
:10227000D603030E470003864700330EC60333051B
:10228000D3010386570003035700B30EC501330380
:10229000660203056700038667003305A602338ED6
:1022A0006E00038677003303AE0003057700330525
:1022B000A602038687001A95030387003306660289
:1022C0003295139625002296104205443295131636
:1022D0008500032508003345A6022E5663018606B5
:1022E0006303660752443386B600A50785052507B4
:1022F00011083305A402032401114185229523000E
:10230000A6000DBF93982700AA9883A80800C2983A
:1023100003830800B388F500850723806800E3C3C2
:1023200077FF050631058D05634586010507A5067E
:10233000F1B5E687EDB7B68532555686F5B7E35366
:1023400005FA014545B7635305000145E3DCA8F8EC
:102350001305006041BFB2474257324603DB4700D6
:1023600083DB27009357F901BA975257035466004D
:1023700033A7EB00BA97130739003327EB00BA975E
:102380000257330767034A973307870200463A9498
:102390006393071483A8040003A3440003AE8400DE
:1023A00083AEC40003AF040183AF440183A2840160
:1023B00083A3C40103AB0402724717050020130571
:1023C000E50C930B006063C63701CE9605096FF0EC
:1023D0002FCD33061401830C060003060700030CFF
:1023E000170083052700338DCC02330664000306F3
:1023F0000600330C86033306C40103060600B3054A
:10240000B6023306D401B30C8D0103060600030D9A
:102410003700330DA6033306E401338CBC000306FA
:102420000600830C4700B30C96033306F401B30592
:10243000AC0103060600030C5700330C8603330679
:102440005400338D95010306060083056700B3052C
:10245000B602B30C8D013306740003060600338CFC
:10246000BC0083057700B305B6023306640103069A
:102470000600E295030C870033068603624CB29592
:102480001396270062961042B295139685000C4170
:10249000B345B6022E566304B60363065603524C88
:1024A0003386F6000504850725071105B305BC0230
:1024B000032C0111C185E2952300B60029B7E3D0B2
:1024C00005FE8145E9BF63D305008145E3D9BBFC27
:1024D00093050060E9B7B3072041135CF94133FC71
:1024E00087018257B38BFB4063D37A018D4B330B4B
:1024F0002B4163D36A010D4B12568325811042850F
:10250000EFE0EFD7A2562A880147B308E400634AF8
:102510003713A247724797080020938828F783D67D
:102520004700C247814513030060B386F602A24705
:10253000B69CB38C3C03944797F7FF1F93870765BE
:10254000E696E3D435E9838E070003060700030E01
:10255000170003052700338FCE020386170062445D
:10256000330EC603038627003305A602B30ECF0140
:1025700003863700030F3700338EAE00330FE603B8
:10258000830E470003864700B30ED6033305EE01E2
:1025900003865700030E5700330FD501330EC603D1
:1025A00003056700038667003305A602B30ECF015B
:1025B00003867700338EAE00030577003305A6024D
:1025C000038687007295030E87003306C603329593
:1025D000139625002296104232951316850003A506
:1025E00008003345A6022E566301B607630356075B
:1025F00052443386B600A5078505250791083305A3
:10260000A40203240111418522952300A60015BFD1
:10261000139327002A93032303004693030E03001A
:102620003383F50085072300C301E3C367FF050675
:1026300031058D05634576010507A506F9B5E287E5
:10264000EDB7B68532555286F5B7E35305FA014525
:1026500045B7635305000145E35CA3F8130500602B
:1026600041BF2247014A93844145144723AEF144B8
:10267000CA97B29723A0F146CA9723A2F146CA97F8
:1026800023A4F146CA97B29723A6F146CA9723A876
:10269000F14623AC214523AA01443E99424723AA8F
:1026A0002147A547B307F70297FFFF1F938F0F4EF0
:1026B0003EDABE573309F0403ED0A24783D7270009
:1026C0006344FA006FE08FF58257935DF941014D45
:1026D000B3FDFD00DE573ED6B309F040B147B387E6
:1026E000FD02A6973ED88D47B387FD02FE973EDEDA
:1026F0009357F901BEC093073900BEC2A24783D7E2
:102700004700634AFD00A2572257050A3E998257A7
:10271000998F3ED05DB7B2470647324683DA47000D
:1027200003DB270093D7F901BA97164703546600D5
:102730003327EB00BA971387390033A7EA00BA971B
:10274000330759034E973307870200463A94639B39
:102750000714984C03A8040083A844003ADC03A3A0
:10276000840003AEC40083AE040103AF440183A21E
:10277000C40183A3040272478D4A130B00604246D2
:1027800063CAC700B2571257B296050D998F3ED64D
:10279000BA99ADB733060401030C0600030607001F
:1027A000830B170083052700B30CCC0233061401FA
:1027B0000306060013952700B30B76033306640067
:1027C00003060600B305B6023306C401338C7C0150
:1027D00003060600830C3700B30C96033306D401BE
:1027E000B30BBC0003060600030C4700330C860342
:1027F0003306E401B3859B0103060600830B5700F3
:10280000B30B76036256B38C85018305670022966D
:1028100003060600B305B602338C7C013306540070
:1028200003060600B30BBC0083057700B305B602B0
:102830003306740003060600DE95830B870033061B
:102840007603B29562462A96832B0600170600206F
:102850001306C6C33295DE952E56832B0500A205BE
:102860000545B3C575036303A602630556035245C8
:102870003386F600050485072507B305B502032551
:102880000111C185AA952300B600D5BDE3D105FE8F
:102890008145F1BF63D305008145E35ABBFC930535
:1028A0000060F1B7B25793DBF941330B2B41B3FB17
:1028B000FB008D4763D367010D4BB38A3A418D47C7
:1028C00063D357018D4A5256832581107E85EFE0F0
:1028D0000F9BAA8F01472545C2473308E400635187
:1028E000F704B307A702F256C2556E86B6971DA02D
:1028F00093982600AE9883A80800C2980383080026
:10290000B388D700850623806800E3C356FF050619
:10291000B1058D076344660105077DBFDE86F5B707
:10292000A247814517F7FF1F1307472683D64700A5
:10293000C2478D48B386460313030060EA96B38608
:10294000F602A2479C47BE96F2474246E3DCC5E248
:10295000830E070003860700038E170003852700F8
:10296000338FCE0203061700139825000544330E5B
:10297000C603030627003305A602B30ECF010306E4
:102980003700038F3700338EAE00330FE603838E9C
:10299000470003064700B30ED6033305EE010306D6
:1029A0005700038E5700330FD501330EC60303853E
:1029B0006700030667003305A602B30ECF010306C6
:1029C0007700338EAE00038577003305A602030639
:1029D00087007295038E87003306C60332956246E0
:1029E0004296032E060017060020130626AA3298E8
:1029F00072952E56032E080022053345C503630346
:102A000086026305160352443386B6002507850502
:102A1000A5073305A4020324011141852295230053
:102A2000A60025B7E35105FE0145F1BF635305003C
:102A30000145E35AA3FC13050060F1B7A247A28544
:102A400003AA8700635304008145338825030146A8
:102A500081468147138541450257635AE602139721
:102A600026002A973E83814831A0232067008508ED
:102A70004A931107E3CB88FE3247C297AE960357BD
:102A800047000506018F33072703BA97F1B7C247FE
:102A900002D693894145B3879702BEC2BE57B30D94
:102AA000F0403EDC93172400BEC0A247325783D7C4
:102AB00027006344F7006FE06FB6625793D7FD417C
:102AC00002D8F98F3EDEDE5717F7FF1F1307070CFA
:102AD0003EDA330DF040F257B307F402BA97BEC6A0
:102AE00072578647B387E702CE97BEC493D7FD01DE
:102AF000BEC88257EE97BECAA247425783D7470047
:102B0000634CF700B257225785073ED6A257BE9DA9
:102B1000E257998F3EDC51BFB2474647B24683DA4F
:102B2000470003DB27009357FD01BA97564703D9A7
:102B300066003327EB00BA973307A40133A7EA00F6
:102B4000BA9733875D036A973307270303A9860083
:102B50003A996398072C25476387E40417F6FF1F0B
:102B60001306C60281464247B305D90063C2E61A7E
:102B7000724317F8FF1F130868011D4E854E0D4F55
:102B8000930F0060A2463307FA0083D6660063C342
:102B9000D718C25792563A8A85073ED8D257369DE3
:102BA000958F3EDA91BF03A5090003A8490083A8C9
:102BB000890003A3C90003AE090183AE490103AF35
:102BC000890183AFC90183A20902724785438D4AF7
:102BD000130B0060C24663C5D7003307DA0055BF48
:102BE000B306A900038C060083060700830B1700B9
:102BF00003062700B30CDC02B30609018386060036
:102C000093952700B38B7603B306190183860600DC
:102C10003386C602B3066900338C7C0183860600C6
:102C2000830C3700B38C9603B306C901B30BCC00F9
:102C300083860600030C4700338C8603B306D90154
:102C400033869B0183860600830B5700B38B760384
:102C5000B306E901B30C860183860600030667000C
:102C60003386C602338C7C01B306F90183860600E5
:102C7000B30BCC00030677003386C602B3065900B7
:102C8000838606005E96830B8700B38676033696AE
:102C9000E246AE9683AB060097F6FF1F9386067F4B
:102CA000B6955E96AE5683AB050022063346760394
:102CB0006383760263855603D245B306FA0005099D
:102CC000850725073386C5028325011141862E9687
:102CD0002380C60001B7E35106FE0146F1BF6353EE
:102CE00006000146E35ACBFC13060060F1B713154A
:102CF00027004E9508412E95030805003305E60090
:102D0000050723000501E34497FE85062696A1BD2D
:102D10000147D5BF13F584FF9A8542860147B30268
:102D20000E41B386C20063E7A6046363950C624656
:102D30009396270036961042329717F6FF1F130618
:102D4000E674B2969042AE5622073347C702638EAE
:102D5000D60B6380E60D5246B306FA002698850727
:102D600026933307E6020326011141873297238019
:102D7000E60009BD838605008308060083834500BD
:102D80002106B388D802830696FFA105469783885B
:102D900095FFB38816038306A6FF46978388A5FF91
:102DA000B38816038306B6FFBA980387B5FF338747
:102DB000E6028306C6FFB383760246978306D6FFF4
:102DC0008388D5FF3389E300B38816030387E5FFC3
:102DD0008306E6FF3387E602B38328018306F6FF06
:102DE000B30877000387F5FF3387E602469715BFE0
:102DF000B306A8003306A300838606000306060078
:102E00000505B386C60236970DB7E35607F40147AA
:102E100099B7635307000147E3DFEFF21307006040
:102E20001DBFD257935BFD41330BBB41B3FBFB008E
:102E3000825763D367013E8BB38AAA41635354011F
:102E4000A28A16468325811017F5FF1F130505D4A6
:102E5000EFD0FFC2B6460147C2473308E9006341DD
:102E6000F70CA5476382F40C7243814517F8FF1FE6
:102E70001308C8D11D4E854E0D4F930F0060A24719
:102E80003307BA0083D76700E3D5F5D013F584FF85
:102E90001A86C2868147B3020E413387D200636728
:102EA000A71863639520E24613972500BA969442CB
:102EB000B69797F6FF1F9386665D369714432E5795
:102EC000A207B3C7D702630ED71F6300E721D2461C
:102ED0003307BA00269885052693B387F602832622
:102EE0000111C187B6972300F70051BF93982700BF
:102EF000AE9883A80800C29803830800B308F500C1
:102F0000850723806800E3C357FF8647050622959F
:102F1000BE95634566010507A6963DBFDE87E5B70A
:102F20003685A6457256F5B7F247014617F7FF1FDB
:102F30001307C7C505488D4813030060C246E35E0A
:102F4000D6C8830E070083860700038E170083858B
:102F50002700338FDE028306170013152600338EF9
:102F6000C60383062700B385B602B30ECF018306DE
:102F70003700038F3700338EBE00338FE603838E16
:102F8000470083064700B38ED603B305EE018306E0
:102F90005700038E5700338FD501338EC6038385C8
:102FA000670083066700B385B602B30ECF018306C0
:102FB0007700338EBE0083857700B385B602830623
:102FC0008700F295038E8700B386C603B695E24666
:102FD000AA9603AE060097F6FF1F9386264B3695FA
:102FE000F295AE56032E0500A205B3C5C503638353
:102FF0000603638516035245B306CA002507050676
:10300000A507B305B50203250111C185AA95238043
:10301000B6002DB7E3D105FE8145F1BF63D30500AE
:103020008145E35AB3FC93050060F1B7030706003E
:103030008388060083034600A106B388E80203875D
:1030400096FF2106C697830896FFB30817030387E8
:10305000A6FFC6978308A6FFB30817030387B6FF2A
:10306000BE988307B6FFB307F7020387C6FFB30313
:103070007702C6970387D6FF8308D6FF3389F3000C
:10308000B30817038307E6FF0387E6FFB307F702DA
:10309000B38328010387F6FFB38877008307F6FF21
:1030A000B307F702C697D5BB3307A800B306A30042
:1030B000030707008386060005053307D702BA9782
:1030C000CDB3E3D607E0814719B563D30700814745
:1030D000E3DFFFDE93070060DDBBA24722889C4749
:1030E0003ED863530400014833032803014581455A
:1030F00081479388414502576359E502139725009C
:1031000046973E86814629A010C385064A96110738
:10311000E3CC86FE32479A97C295035747000505D0
:10312000018F33072703BA97F9B7C24702D617FEB4
:10313000FF1F130EAEA5B38797023EDCBE573309BF
:10314000F0403E8D931724003EDAA247325783D7D2
:1031500027006344F7006FD07FCC935AF941B3FA4C
:10316000AA01B307540313874145DE5B014B330AC1
:103170007041F297BEC0D257B3875703BA973EDE6D
:103180009357F901BEC28257CA97BEC4A24783D7DC
:103190004700634AFB00B25785073ED6A2573E99C7
:1031A000330DFD405DB7B2471647B24603DC47001A
:1031B00083DC27009357FA01BA97264783DD660020
:1031C00033A7EC00BA97330744013327EC00BA97D2
:1031D0003307890352973307B70383AD8600BA9D3F
:1031E000B1EF17F6FF1F1306669A0147EE86C24736
:1031F0006344F7047243814517F8FF1F13080899C9
:103200009D4E054F8D4F9302006039A29395270084
:1032100013854145AA958C41B69503850500B305F4
:10322000F60085072380A500E3C297FE0507B34695
:1032300037032696EE9665BF8147FDB78257135830
:10324000FA41B38C2C413378780163D39701BE8C5B
:10325000330C4C4163538401228C625683258110C8
:103260007285C2C6EFD0BF81064636482A8EEE86EA
:103270000147C247E350F7F8B2887255D68525A0BA
:10328000139327002A93032303003693830E03002E
:103290003383F80085072300D301E3C387FFD257A8
:1032A0008505A2983E9563C895010507B346370387
:1032B0002696EE967DBFC287CDB713F584FF1A869A
:1032C000C2868147B3830E413387D3006364A70668
:1032D0006360950EE24613972500BA969442B6971E
:1032E00097F6FF1F9386861A369714432E57A20728
:1032F000B3C7D702630BE70D630DF70DD2464257F4
:10330000269826932E978505B387F602832601110A
:10331000C187B6972300F7002247C25703576700BB
:10332000AE97E3CCE5F81257050B3ED8B38BEB40D4
:103330003A9AA9BD0307060083880600030C4600DD
:10334000A106B388E802038796FF2106C697830883
:1033500096FFB30817030387A6FFC6978308A6FF47
:10336000B30817030387B6FFBE988307B6FFB307FA
:10337000F7020387C6FF330C8703C6970387D6FF80
:103380008308D6FFB30CFC00B30817038307E6FFDE
:103390000387E6FFB307F702338C98010387F6FF34
:1033A000B38887018307F6FFB307F702C69729BFE3
:1033B0003307A800B306A3000307070083860600AF
:1033C00005053307D702BA9721B7E3D907F281473A
:1033D00035B763D307008147E3D2F2F29307006069
:1033E00031BF1D4E6FD0BFA3397156D2BE8A97E749
:1033F000FF1F9387A7AE9C4322DC26DA4ED652D419
:103400005AD006DE4AD85ECEAA842E8BB2893A8A7A
:10341000014483586B00634E1401F2506254D2543D
:103420004259B259225A925A025BF24B014521612C
:10343000828083D744008C4403D82400338E170342
:10344000A29501470145634C070536C603298B0049
:1034500022993308F802050433450503158DEF2042
:103460003051CE85EF208063D285EF20A02FAA8B2C
:103470005685EF20F04FAA855E85EF101078EF207B
:10348000B0432300A900B24669B7830E03000506C6
:1034900046937695E34BF6FEF29505076DB72E83BE
:1034A0000146CDBF39714AD85AD03E89032B8500D9
:1034B00097E7FF1F938787A29C435ECE9D4B22DC3C
:1034C00026DA4ED652D456D206DE62CC66CAAA8A14
:1034D0002E8ABA84C6890144B38B6B4183576A0034
:1034E0006340F402F2506254D2544259B259225A03
:1034F000925A025BF24B624CD24C014521618280B0
:1035000003D76A00DA850143B3078702137E87FF7A
:10351000B2973E883385BB006369C5056362EE0CD4
:1035200093172400B697884332C636C41A95EF2005
:103530003044CA85EF2080568C40032C8A00EF204F
:10354000E055CE85EF200022AA8C0645229C05047A
:10355000EF201042AA856685EF10306AEF20D03543
:103560002300AC003246A24695BF830808000385BD
:1035700005002108A10533051503830898FF1A9556
:10358000038395FF330313038308A8FF2A9303855E
:10359000A5FF330515038308B8FF1A950383B5FF0C
:1035A000330313038308C8FF2A930385C5FF33053C
:1035B00015038308D8FF1A950383D5FF330313033C
:1035C0008308E8FF2A930385E5FF33051503830885
:1035D000F8FF1A950383F5FF330313032A931DBFE6
:1035E000B305CB013385C7018385050003050500BD
:1035F000050EB385A5022E9315B71D713EC697E73C
:10360000FF1F9387A78D9C43CAC8977700009387B5
:10361000674ACEC6D6C25EDE03A98500832B85002D
:10362000835A650083A90700A2CCA6CAD2C462DC73
:1036300086CEDAC066DA6AD86ED62A842E8A328CB2
:103640003AC4814463C15407CA8701479304000008
:10365000977B0000938BCB46177C0000130C8C46A5
:10366000977C0000938C4C46177D0000130D0D468F
:10367000977D0000938D0D4663405707814983571E
:10368000640063C6F910F6406644D6444649B6491C
:10369000264A964A064BF25B625CD25C425DB25DA2
:1036A000014525618280B3879B000385070036C8EA
:1036B000158DEF20F02BE285EF20403E93972400FC
:1036C000CA9788C3CE852A8BEF20E034C246635365
:1036D000A000DA898504BDB78843CE853ACE3ECCBA
:1036E000EF200065977700009387073D8C43EF201C
:1036F000E03A2A8BEF20501CEF209027AA855A85AC
:10370000EF20006393050000EF10304F9777000023
:103710009387C73AAA852ACA8843EF206061AA85A1
:1037200003A50B00EF20000483250C002AC85A854E
:10373000EF10B04C4246AA853285EF10104CD246AD
:1037400083A50C002A8B3685EF204035AA855A8543
:10375000EF20005E83250D00EF204034EF20F01BAA
:10376000AA852A8B2685EF105049AA845A85EF2016
:10377000703903A60D0083A64D00EF100040EF2026
:103780003043E247724788C305079107F5B5939721
:103790002900CA978843A685832A8A00EF10907C67
:1037A000A245CE9A8509EF10F07B2A8B3245EF2097
:1037B000301CAA855A85EF105044EF20F00F23806B
:1037C000AA0075BD01458280411122C42A84884126
:1037D000B747495806C626C24AC09387D71463170D
:1037E000F50683C74500214581EF0CC054C03A89D6
:1037F000AE8431E6C845EF20B05908C401E911454F
:10380000B2402244924402494101828085472318F4
:10381000F40088480DC9EF20B05748C46DD1938794
:1038200004045CC8231904003146938544014A8589
:10383000EF20D0571C4401452324F900D1B710C410
:1038400023180400F9B723260400D1BF09454DBF52
:1038500083570501411122C406C62A8481C7084541
:10386000EF20F053484411C52244B24041016F207B
:103870001053B2402244410182807971835746003F
:1038800026D28354260006D622D4B384F40283576A
:1038900066004AD04ECE52CC56CA5AC85EC6B384D1
:1038A000F40285476388F50089476382F5081C4662
:1038B0009CC619A81C413689328483AA070603AB2B
:1038C00047068149639E9900B2502254925402598E
:1038D000F249624AD24A424BB24B0145456182806D
:1038E0001C4413972900D685BA978843032A890078
:1038F000EF105067AA8B5A85EF209007AA855E8546
:10390000EF10B02F4E9AEF20207B2300AA008509EC
:1039100055BF0C469846BE9583C505003E97850762
:10392000938505F82300B700E39597FE71BF8147A3
:10393000E5BF717126D356CBAA84B28AA808314656
:103940004ECF52CD5AC95EC706D722D54AD162C5DD
:1039500066C36AC1EEDEEF2070459C4023990400E7
:10396000814993870704DCC8154B177A0000130AB6
:10397000EA16B14B984083D724010357A70063E2AE
:10398000E7020145BA502A549A540A59FA496A4A38
:10399000DA4A4A4BBA4B2A4C9A4C0A4DF65D4D61B5
:1039A0008280C04803A9840091CB1C442146930522
:1039B0000401CA97A808BED0EF20503F5C442146BE
:1039C000C8103E99CAD613098401CA85EF20103E5B
:1039D000835704006363FB168A07D29798435C54AD
:1039E00052970287034514037444304483483403D8
:1039F00003482403034704033ED81C54A29622968E
:103A00003ED65C503ED41C503ED26C40A2952ED087
:103A10005C5CCC103ECE8347B4033ECC8347A4030A
:103A20003ECA834794033EC8834784033EC68357F8
:103A300064033EC4834754033EC2834744033EC0ED
:103A4000AA87A808EFD04FAE15FDDC4081C7A2853C
:103A5000268582978357240085C7B38C7903214636
:103A6000CA85D69C6685EF2070349C4083AD840067
:103A700003C757005C4435E7BE9D23A4BC018509FC
:103A80005840DC48BA97DCC883D7240185072399BE
:103A9000F400CDB5185454501050CC10A808EFF0D5
:103AA000BF945DB70C501858145C5058832884029A
:103AB0000328440222973EC0A296AE872296CC10DD
:103AC000A808CD3251B7185454501050CC10A80843
:103AD0002D369DBF185454501050CC10A808DD311D
:103AE000A5B70357C401035CA401014D330CEC02DC
:103AF0000357E401330CEC023309FC006E991D09F5
:103B0000137989FF63158D0123A42C018DBFB38622
:103B1000A701EE9603850600545413172D004A970B
:103B2000158DBAC6BEC4EF20A0640C54050DEF106D
:103B3000F0763647A64708C3F1B71545A1B53571EC
:103B400022CD2A84177500001305450506CF4AC902
:103B50004EC752C556C35AC1DEDEE2DCEAD8EED605
:103B600026CBE6DAEF30407C8345440097770000AF
:103B70009387C7F9177500001305450713972500AC
:103B8000BA979043130C0404014AEF30A0648345B4
:103B90005400177500001305A506814AEF308063B5
:103BA0008356A400035684008355640017750000F3
:103BB000130505060149EF30E0610357A401835660
:103BC00084010356640183554401177500001305F1
:103BD000E506977900009389E916EF30A05F035757
:103BE0002402835604020356E4018355C401177569
:103BF000000013056506154DEF30C05D10484C44BC
:103C00001775000013054507177B0000130B4B3693
:103C1000EF30405C1775000013054508EF30C070A9
:103C2000177500001305450BEF30007083556401D4
:103C3000035684018356A401177500001305850DF2
:103C40003387C502977B0000938BCBEA977D0000FA
:103C5000938D8D333307D702EF30C0578357A400BD
:103C60006340FA081C48484417740000130404F227
:103C70003E95EF10007210405440EF009024AAC40B
:103C80005685AEC6EF10C06997770000938787F01E
:103C90009043D443AD29AAC04A85AEC2EF10406814
:103CA00010405440EF00F0212648B648064796479A
:103CB0002A86AE86177500001305C527EF308051A0
:103CC0000145FA406A44DA444A49BA492A4A9A4ABA
:103CD0000A4BF65B665CD65C465DB65D0D61828024
:103CE000930550044E85EF30E04EB3058C401775B8
:103CF00000001305E505EF30E04D9305A0044E8567
:103D0000EF30404D8325CC0283582C0103580C0121
:103D10008327CC0003278C0083264C0003562C00FD
:103D200083540C002ED803258C02C6CEC2CCBECA4A
:103D3000BAC8B6C4B2C0EF20E05C2AD42ED6832520
:103D40004C022ED003250C02EF20C05B2ACC2ECED5
:103D50008355EC01D647F6482ECA8355CC016648F8
:103D600046472EC88355AC01A646177500001305BB
:103D700025FF2EC683558C012EC483556C012EC29F
:103D800083554C012EC00646A685EF30A0448357CC
:103D90000C00636FFD1A0357CC018354AC018A07F2
:103DA000035EEC01B384E40203274C003A99330725
:103DB000FB00DE979C431843DE97B384C4033309AA
:103DC000E9408287034E0C0383471C03930560057B
:103DD000330E9E024E85330EFE0283576C01B30CE8
:103DE000FE02EF30203F8327CC0417750000130537
:103DF00025003ECE83278C043ECC83274C043ECA4C
:103E00008327CC033EC88347BC033EC68347AC032D
:103E10003EC483479C033EC283478C033EC0835805
:103E20006C0303485C0383474C0303473C0383460E
:103E30002C0303461C0383450C03EF30A03989A0F3
:103E400083574C01035E2C01330EFE0283576C0135
:103E5000B30CFE0235A083576C019305F0054E8527
:103E6000B38CC703EF30003783268C0303264C0343
:103E700083250C0317750000130505FFEF3080350F
:103E800083570C0026C203274C008A073386FD00A7
:103E9000DA979C431042D285B307F7403EC0835760
:103EA000EC018328CC0003288C000357CC018356F7
:103EB000AC01177500001305E504E69AEF30803178
:103EC000E6851775000013056506EF30A0308327DF
:103ED0004C00050A3E9C59B399479DBF034E0C0305
:103EE00083471C039305A006330E9E024E85B30C38
:103EF000FE02EF30202E8327CC0417750000130537
:103F0000E5F83ECE83278C043ECC83274C043ECA82
:103F10008327CC033EC88347BC033EC68347AC031C
:103F20003EC483479C033EC283478C033EC08358F4
:103F30006C0303485C0383474C0303473C038346FD
:103F40002C0303461C0383450C03C5BD814C0DBFE8
:103F5000154585BB914763EEB7021777000013073D
:103F600027048A05BA959C41BA978287B717004003
:103F700003A7470B1345F5FF698F23AAE70A03A799
:103F8000070B698F23A8E70A03A7070A798D23A0E7
:103F9000A70A8280B717004083A6470B1347F5FF97
:103FA000F98E23AAD70A83A6070B558D23A8A70A43
:103FB00083A6070A758F23A0E70A8280B7170040FF
:103FC00003A7470B498F23AAE70A03A7070B13454B
:103FD000F5FF45BFB717004083A6470B1347F5FF12
:103FE000758F23AAE70A03A7070A598D4DB7B7179C
:103FF000004003A7470B498FEDB7B717004003D523
:104000008700420541819377050491EB9377F50191
:104010003755E801130505803345F5028280937713
:10402000050C130700046397E7009377F501374504
:104030009C1CCDB72165130505D082808147373799
:104040000040A14663C4C700328582800345B74063
:10405000E38EA6FE3385F50003450500850723049E
:10406000A740CDB797D7FF1F9387C7E69C4317E7B5
:10407000FF1F1307E75A3E95636EE50017470020C0
:10408000130747D86368A70017D7FF1F2324A7E4A7
:104090003E858280FD57EDBFB7270040C8C709475E
:1040A0002380E70011472380E7008280411122C46A
:1040B00006C62A8499372947B307E502B2408D83A3
:1040C000B3D7870222449507B3D7E70237370040BA
:1040D000C207C1832316F7404101828071654111F7
:1040E0001305052006C6D937B7370040130770F807
:1040F0002381E7400D47A381E74013070004A38015
:10410000E74005472387E740B2404101828039718B
:1041100093D7450122DC4AD856D22A891394C50088
:1041200006DE26DA4ED652D45AD05ECE13F5F77F8D
:10413000318093DAF501630B05109307F07F630B71
:10414000F514135AD9010E0433648A00370A80002B
:10415000336A4401131B3900930415C00144814B99
:1041600013D846011399C6001378F87FB288135903
:10417000C90093D9F601630E08089307F07F630026
:10418000F8041357D6010E0933692701130818C024
:10419000B70780003367F90093183600B3840441F1
:1041A0008145BD4733C83A0163E4871A9777000019
:1041B000938747E00A043E9410403E960286336798
:1041C000C90093841480631207101364240081488B
:1041D0008945C1BF1306F07F81470147B207F250FE
:1041E00062545206B1837E08D18FB3E70701D254DF
:1041F0004259B259225A925A025BF24B3A85BE8515
:104200002161828001481306F07FB707080001474B
:10421000F1B73367C9004DC7630809304A8532C416
:10422000EF20A02F2246130755FFF547930685FF81
:10423000998F3319D900B357F60033E72701B31824
:10424000D60026959304353F8145A1BF336A2401EA
:1042500063030A0636C632C46306042A2285EF20A9
:10426000C02B2246B246AA84130755FF754A138B0A
:1042700084FF330AEA4033146401335A4901336A34
:104280008A00331B69011305D0C0B3049540014473
:10429000814BF9B5336A240163180A002144014BAC
:1042A0009304F07F894B6DBD228A4A8B314493047D
:1042B000F07F8D4B75B51144014B8144854B4DB555
:1042C0001364140081488545E9BD136434004A87AE
:1042D0008D45C1BD630A052E8547898F93068003EE
:1042E00063DDF632014681470147CDBDCE86894761
:1042F000638DF53A8D47E387F5F085473688E3838C
:10430000F5FE1385F43FE357A0FC93F7780063961E
:10431000072893D638009317770063D80700B707AC
:1043200000FFFD177D8F138504409307E07FE3C3F3
:10433000A7EA1316D70193179700B1833367D60006
:104340001376F57F61BDD6865287DA88DE8545B75C
:1043500063614723630DEA20DA86FD145284014B22
:104360009317870013D388013363F300935E03012F
:10437000B357D403131F0301135F0F0193D5060135
:10438000139E88003374D4033307FF024204C18DA7
:1043900063FBE5009A951386F7FF63EE652663FCE1
:1043A000E526F9179A95998D33D7D503C206C182B0
:1043B000B3F5D5033306EF02C205D58D63FBC50007
:1043C0009A959306F7FF63E6652463F4C52479178D
:1043D0009A95C20741645D8F9307F4FF3375F70028
:1043E00093580701935F0E01B377FE00B302F50205
:1043F000B386C540B383F80293D502013386AF027A
:104400001E962E963385F803637376002295C16855
:10441000FD1893550601337616014206B3F81201D2
:10442000AA95469663E6B6126382B6123306CB406F
:104430008D8E333BCB00338B66411385F43F630C89
:104440006317B358DB0393550601337BDB03B306D5
:104450001F03420B33EB6501637BDB001A9B9385E3
:10446000F8FF636D6B20637BDB20F9181A9B330B1D
:10447000DB40B356DB0342064182337BDB03330F61
:10448000DF02420B33666601637BE6011A96938571
:10449000F6FF6367661E6375E61FF9161A96C20873
:1044A000B3E8D8009395080193D20801C181B38E77
:1044B000F5023306E641B385BF0293D60E01B387FA
:1044C000F202BE95AE96B38F5F0263F4F600C16749
:1044D000BE9FC165FD1593D70601ED8EC206B3FEE2
:1044E000BE00BE9FF696637FF6091A969387F8FF83
:1044F0006369661A6368F619630FF61BBE8893E852
:10450000180011B54A85EF20400113075501F14508
:10451000930405022246B246E3DAE5D4130485FF8C
:10452000331A8900014B85B3328532C4EF10F07E17
:1045300013075501F146AA87224613050502E3D663
:10454000E6CEE1173317F6008148E5B9E370CBEE0C
:10455000729B3335CB011A95AA961305F7FF637842
:10456000D30263E6B6106382D5102A87C1B5E3652E
:104570001BDF93551B009316FA0113541A00CD8EBE
:104580007E0BF9BBE31DF6F7E38F06D6B9BFE31E3A
:10459000D3FCE378CBFD2A8751BD93F7F800914611
:1045A000E389D7D693B7C8FF9386480093C717000F
:1045B0008D823E978DB381468547E34CA0FEFD5822
:1045C000E31C05D0930410C085471385E441B3165E
:1045D000A70033D6F8003395A800D18E3335A0005C
:1045E000C98E13F676003357F70001CE93F7F60025
:1045F00011466388C70093874600B3B6D700369745
:10460000BE869317870063D8070405468147014794
:10461000F1B636877DBBB28779B3FD46E3D7F6FAAC
:104620000556098E930600023356C7006388D700EB
:104630009387E443B317F700B3E8F800B3361001EB
:10464000D18E13F67600814701CE93F7F60011461E
:104650000147E392C7FA931797001316D701B18366
:1046600013D73600518F014695BEE370CBF0729B95
:104670003335CB011A957917AA964DBBAE88C5BBC9
:10468000AE8631BD93171E0033BEC70172931A96D2
:10469000F9183E8EE315F6E7E307DEC693E8180047
:1046A0009DB1BE88E30AF6FF99BD36881306F07FF8
:1046B0008147014725B6E367DEFCBE88E310DEFED6
:1046C00099B139714AD813D945014ED652D456D230
:1046D0009399C50006DE22DC26DA5AD05ECE137925
:1046E000F97F2A8A93D9C90093DAF501630D090E7F
:1046F0009307F07F6306F9181354D5018E09B36947
:1047000034013704800033E4890093143500130921
:1047100019C08149814B13D74601139AC6001377FC
:10472000F77FB285135ACA0013DBF601630B07103B
:104730009307F07F6303F7049357D6010E0A33EA19
:104740004701130717C0B7078000B367FA00931536
:1047500036003A99814833C76A01BD463A85130845
:10476000190063E83617177600001306A6888A0931
:10477000B29983A60900B2968286B367CA0013096C
:10478000F97F6399071293E9290081458948E1B7C8
:1047900001479307F07F3704080081443204D207B1
:1047A00031807E075D8C598CA285F250625426853B
:1047B0004259D254B259225A925A025BF24B2161A9
:1047C00082805A853E84AE84C68B8947638DFB0EFA
:1047D0008D47E38FFBFA85472A87639EFB38814725
:1047E0000144814465BF33E4A90061C036C632C4C8
:1047F000638C092A4E85EF1050522246B246AA8792
:10480000130755FF7544938487FF198CB39999005A
:1048100033548A0033643401B3149A0013D7460129
:104820001309D0C0139AC6001377F77F3309F940F4
:104830008149814BB285135ACA0013DBF601E31993
:1048400007EEB367CA00B1C7630F0A22528532C4AC
:10485000EF10B04C22462A87930655FFF547930583
:1048600087FF958F331ABA00B357F600B3E74701B5
:10487000B315B6003309E9401309D9C08148E1BD39
:1048800033E4A90001ECA14981441309F07F894B6D
:1048900059B593E919008145854875BD4E84AA84B0
:1048A000B1491309F07F8D4BBDB591498144014950
:1048B000854B95B593E93900D2878D4869BD894705
:1048C0005685E397FBF02A879307F07F01448144E4
:1048D000F1B5C16E1386FEFF93D6040113DE050108
:1048E000F18CF18D338695023383B602935806011D
:1048F00033059E021A95AA98B382C60363F3680033
:10490000F692C16F1383FFFF33F5670093D307015E
:10491000B3F76800C207337366003E93330695020F
:1049200093D80801B387A602135F0601B3849302EC
:10493000BE94FA94B38E760263F3F400FE9E416A4D
:104940009307FAFF935F0401B376F400B3F9F40020
:104950007D8EC1803384D502C209338FD401B299D0
:10496000CE98B307DE02935E0401B385BF02AE9713
:10497000BE9E330EFE0363F3BE00529EC167938555
:10498000F7FF33F6BE006D8C4206229693DE0E01D1
:10499000B305D502769E3385AF0213D40501B386E5
:1049A000D302AA96A296B38FF30363F3A600BE9F29
:1049B00041657D15B3F7A600C2076D8DAA97B38533
:1049C0005800B3B93501FA97B2953384370133B63D
:1049D000C500B30EC4013385CE0033343401B3B700
:1049E000E701C18F33BECE0113D406013336C500B3
:1049F0003E943366CE009394950032947E94B3E453
:104A00006400260493567501B3349000DD8193173A
:104A10009500CD8C558CDD8C9317740063DB0700FB
:104A200093D7140085889316F401DD8CD58C05800E
:104A300042899307F93F6359F00893F6740081CED9
:104A400093F6F40011466388C60093864400B3B41D
:104A500096002694B6849316740063D80600B707B0
:104A600000FFFD177D8C930709409306E07F63CF1D
:104A7000F60E93D634009314D4012604D58C3180DD
:104A800093F7F77F21BB328532C4EF1010299306CC
:104A90005501F147130705022246E3D1D7DC611522
:104AA000B317A6008145F9B3EF103027130755015E
:104AB000F145930705022246B246E3D5E5D46115D8
:104AC0003314AA00814499BB85469D8EB1E7130932
:104AD000E941B3972401B3D4D40033192401B33787
:104AE000F000B3649900DD8C93F77400B356D400E2
:104AF00081CF93F7F40011466388C7009387440081
:104B0000B3B49700A696BE849397860063D8070433
:104B100085470144814459B113068003E341D6CC53
:104B20007D46E356D6FA0556B307F64093050002D4
:104B30003356F4006387B6001309E943B317240121
:104B4000DD8CB3349000D18C93F67400014499CA83
:104B500093F7F40011468146E392C7FA1394960046
:104B60003180F6068D80D58C81470DB99307F07F93
:104B70000144814425B142896DBD370710007D177E
:104B800001113373B70093D84601758F935ED60138
:104B900022CC26CA0E0393D445019357D5010E07A4
:104BA00006CE4AC84EC693F8F87F130EF07F33E75F
:104BB000EE0093F4F47F13D4F50133E36700131F81
:104BC0003500FD82931E36006380C81993C6160017
:104BD000B38514416305D4126351B018638B081A6E
:104BE000B70780005D8F6381C4599307800363C456
:104BF000B734FD4763C5B748930700028D8FB3D91B
:104C0000BE003318F700B39EFE00336838013357F7
:104C1000B700B339D001336838013303E340B30937
:104C20000F41B3373F013306F3409317860063D338
:104C30000724370980007D1933792601630F092C79
:104C40004A85EF10900D130785FF93070002998F97
:104C5000B3D7F9003316E900D18FB399E900634463
:104C6000972A058F13061700FD4663C5C63A13073A
:104C70000002118FB3D6C9003398E9003397E700DB
:104C8000558F33380001B369070133D6C70081441B
:104C900093F7790081CF93F6F90091476388F60086
:104CA0009386490033B836014296B6899317860039
:104CB00063D6071C138714009307F07F05886306EB
:104CC000F720B70780FFFD17F18F1398D70193D90D
:104CD0003900A60733683801B1831377F77F9396BD
:104CE000C7005207B1827E04D98EC18EF240624461
:104CF000D2444249B2494285B685056182806356F5
:104D0000B00A638A0812B70780005D8F6387C42DDD
:104D10009307800363C7B718FD4763D2B73C138876
:104D200005FE93070002B3590701638AF500930754
:104D30000004B385B7403317B700B3EEEE00333845
:104D4000D0013368380195A2B367D70193851480E9
:104D500099E393C61600630AD404D1E19387140043
:104D600093F7E77F6399071EB367E3013368D701C1
:104D7000639204166382073C6316084213183500D9
:104D80009316D3011358380033E8060193573300C4
:104D900019A2B367D7016385071A9387F5FF638B61
:104DA000073A638CC523BE8589B56399051C938634
:104DB000140093F7E67FC1EFB367E3016390043615
:104DC000638D0744B367D701639407460E05131834
:104DD000D3010D813368A800935733006DA8B385C4
:104DE000984063970420B367E301638D073093878E
:104DF000F5FF638907401305F07F6383A520BE8517
:104E00009307800363C2B72AFD4763C8B73C930783
:104E100000028D8F3318F3003356BF00B317FF0025
:104E20003368C800B339F0003353B3003368380136
:104E300033076740B5ACB367D70163830710938727
:104E4000F5FF638F071E6380C52FBE85D1B593071D
:104E5000F07F638BF606FA9E33B6EE01B307E300EC
:104E6000B2971398F70193DE1E00B369D80113D6E9
:104E70001700B68493F77900E39F07E09317D601F4
:104E800013D839003368F800A68593573600130706
:104E9000F07F6380E506B207B18313F7F57F0588DD
:104EA0003DBD3367D7013338E000B309E801B3B73C
:104EB000E9013386670093178600E3DD07FA85046E
:104EC0009307F07F639CF41805881307F07F8147F0
:104ED000014831B5639107106301083C131836008F
:104EE0009317D701135838003368F8003684935766
:104EF0003700B367F800E9DB01441307F07FB70719
:104F000008000148E9BB370680FF7D167D8E93F7C8
:104F10007900998CE39107D895B74E85EF10E05F43
:104F200013078501FD47E3D2E7D2130685FFB39748
:104F3000C90081492DB33368D70133380001C5B1A9
:104F4000131835009317D301135838003368F8004D
:104F5000935733002DBFB309DF413309E3403336A4
:104F60003F013309C9409317890063CA072033E81A
:104F70002901E31508CC8147014431BFB38598402E
:104F800063810414B70680009307F07F3363D30076
:104F90006381F8209307800363CCB722FD4763C980
:104FA000B72C930700028D8F3318F300B356BF0060
:104FB000B317FF003368D800B339F0003353B300A0
:104FC000336838011A97B309D801B3B7D9013386CA
:104FD000E700C684CDB5E31108F213183500931726
:104FE000D301135838003368F8009357330011B7D2
:104FF000370580009307F07F3363A300E392F8E066
:105000000E061318D7010D823368C8009357370076
:105010003684C5B505179306000233D7E700630A47
:10502000D600930600043386C6403396C700B3E922
:10503000C90033383001B369E800014681441DBD21
:10504000B309DF01B307E30033BFE9013386E701AA
:10505000931786008544E3DF07E08944B70780FFA4
:10506000FD17F18F13D7190013F8190033680701E2
:105070009399F701B3E9090113D6170011B9138801
:1050800005FE93070002B3590701638AF5009307F1
:105090000004B385B7403317B700B3EEEE003338E2
:1050A000D00133683801A5BE3363E30133386000B3
:1050B000B3890E41B3B73E013306F740C684368448
:1050C000ADB6B367E301638707189387F5FF638C79
:1050D000071C9306F07F638ED50ABE8565BD9307D6
:1050E00000028D8FB3D9BE003318F700B39EFE00C7
:1050F000336838013357B700B339D001336838010A
:105100003A9365B3131836009317D7011358380034
:1051100033E8070136849357370095BBBDCB33671F
:10512000D701E31B07DC0E051318D3010D8133688B
:10513000A8009357330075BBE30F08E2131836003D
:105140009317D701135838003368F8003684935703
:10515000370091B3B309DF41B307E340333F3F0169
:105160003386E7418544D1B4131835009316D30133
:105170001358380033E80601935733009DBBB389B9
:10518000EE413306674033B93E0133092641368488
:1051900075B40E061318D7010D823368C8009357F3
:1051A000370081BBB309DF41B307E34033363F012A
:1051B0003386C7409317860063D7070AB389EE4149
:1051C000B3076740B3BE3E013386D7413684C9B4C6
:1051D0003363E30133386000FDB3138805FE9307A2
:1051E0000002B3590301638AF50093070004B385F5
:1051F000B7403313B300336F6F003338E0013368C7
:1052000038017DB5B389EE41B3076740B3BE3E01B7
:105210003386D7413684854409BC1318360093176A
:10522000D701135838003368F80093573700A5B1F9
:10523000B309DF01B307E30033BFE9013386E701B8
:1052400093178600E3D807C2B70780FFFD177D8E4E
:1052500085440DB10E061318D7010D823368C800BE
:10526000935737002DB133E8C900E30608D019B1D0
:10527000138805FE93070002B3590301638AF50002
:1052800093070004B385B7403313B300336F6F0047
:105290003338E001336838013DB301441307F07F30
:1052A000B70708002DBCB309DF01B307E300B3BEA5
:1052B000D9013386D70169BB93D74501B7061000E2
:1052C0001387F6FF93F7F77F1306E03F6D8FFD819D
:1052D000635CF6001306D041635AF6003705008080
:1052E0001345F5FF2E9582800145828013063043D9
:1052F0001D8E7D48558F635DC80093063041B3878E
:10530000F640B357F7003305F040E5F13E85828063
:105310009387D7BEB317F7003355C500C98FE5B7DC
:10532000411106C622C426C20DCD9357F541B3C420
:10533000A7009D8C2A842685EF10201E9306E0414D
:10534000898EA9477D8093F6F67F63CDA7022D470E
:10535000098FB3D7E4005505B207B394A400B18315
:1053600029A00144814681478144B207D206B18316
:105370007E04D58FC18FB24022442685BE859244DB
:10538000410182805515B397A400B207B1838144CF
:10539000E9BF1DCD411122C406C62A84EF10E017D3
:1053A0009306E041898EA94793F6F67F63DCA70256
:1053B0005515B317A400B207B1830147B240224488
:1053C000B207D206B183D58F3A85BE85410182806E
:1053D00081478146B207D206B1830147D58F3A850E
:1053E000BE8582802D47098FB357E400B2071307AB
:1053F00055013317E400B183D1B74111370780005D
:105400007D1713D8750126C2935475013373A70015
:1054100093F4F40FB376B7004AC01378F80F13591A
:10542000F50106C622C4FD819A8726854A86131E89
:105430003300939E3600B3880441630AB90E63506B
:10544000100D630408149307F00F638BF414B7076F
:105450000004B3EEFE00ED4763C117299307000275
:10546000B3871741B397FE00B3D81E01B337F000DE
:10547000B3E7F800B307FE4013975700635E0718C1
:10548000370400047D147D8C2285EF1000096D1512
:10549000B317A4006348951A058D1304150013076C
:1054A0000002018F3397E7003337E000B3D787005E
:1054B000D98F814413F7770019C713F7F700914686
:1054C0006303D700910713975700635B07148504A4
:1054D0001307F00F4A866383E4169A07A58313F532
:1054E000F40FB2402244A6079314750113D5970018
:1054F000458D7E0692440249518D41018280639917
:10550000080A138714001377E70F631707146390D3
:105510000422630D0E1EE3860EFCB307DE411397D3
:10552000570063500722B387CE412E8961B7635C71
:10553000100B630E08089307F00F6383F406B70798
:105540000004B3EEFE00ED4763C9171F9307000286
:10555000B3871741B397FE00B3D81E01B337F000ED
:10556000B3E7F800F297139757006357070A8504CB
:105570001307F00F6384E40CB706007E13D71700FF
:10558000FD16858B758FD98F35B7638D0E08FD1885
:10559000B307DE41E38208EE9307F00FE39DF4EAE0
:1055A000630D030801461305F00FB707400015BF50
:1055B00033079840EDE863020E147D17630807185F
:1055C0009307F00F6319F80E2E893683D1BF638BD2
:1055D0000E04FD18B307DE01E38708F89307F00F08
:1055E000E393F4F675BF63950808850413F7E40F99
:1055F0006313071263170510630F0E14E3830EEE97
:10560000B307DE011397570081446357070037073C
:1056100000FC7D17F98F854413F77700E31F07E837
:1056200013D337009307F00FE38CF4F6931793002E
:10563000A58313F5F40F4A866DB54A861305F00F5E
:10564000814745B5370700FC7D17F98F13F77700C1
:10565000898CE31407E6E9B73304DE41931754005D
:1056600063C3070CE31204E201460145814795BD7F
:1056700033079840ADC49307F00FE308F8F4B70779
:105680000004336EFE00ED4763CCE70C9307000285
:10569000998FB317FE003357EE00B337F000D98F60
:1056A000F697C284C9B59307F00FE30FF8F0B70778
:1056B0000004336EFE00ED4763C3E7089306000263
:1056C000998EB316DE00B357EE003337D000D98F72
:1056D000B387FE40C2842E8945B3854761BB630E04
:1056E0000E067D17B307DE01C284E30E07E69307BB
:1056F000F00FE31AF8F8368365B53683C2842E8935
:1057000015B7E3040EECE38D0EE869BD638D0E0260
:105710002E86B687F9B39307F00FE381F4F2B3074F
:10572000DE018583D5BD3384CE412E89B1BBE31C18
:105730000EFCE3890EE62E8949BD854725B58547D0
:1057400041BFE39B07EC0146814761BBB387CE4174
:10575000C2842E8915B3B68769B33683C284D9B59E
:1057600085473DBF3971935775014AD856D25ECEF1
:10577000931A95001359F50106DE22DC26DA4ED67F
:1057800052D45AD093F7F70F93DA9A00CA8B6382F8
:1057900007121307F00F6384E7128E0A370700041D
:1057A000B3EAEA00138A17F80144014B93D7750155
:1057B0009394950093F7F70FA58093D9F501FDC752
:1057C0001307F00F6387E7028E04938717F83707F4
:1057D0000004D98C330AFA408146558C17670000C3
:1057E000130747850A043A941C4033493901BA9794
:1057F0008287130A1AF0F9E88946558C176700006A
:10580000130747870A043A941C4033493901BA9771
:10581000828701491307F00FB707400013959700DF
:10582000F25062549317770125817E095D8D3365AF
:105830002501D2544259B259225A925A025BF24B74
:10584000216182801307F00F8147C9BFA68ACE8BE2
:10585000368B8947630BFB1A8D47E30CFBFA8547B0
:10586000630AFB0A1307FA0713F91B006357E012D8
:1058700093F77A0099C793F7FA0091466383D700AC
:10588000910A93974A0063D90700B70700F8FD17FC
:10589000B3FAFA0013070A089307E00FE3C4E7FA24
:1058A00093976A00A5831377F70F8DBFB9E48546F8
:1058B000A9B763940A021144014A054BC5BD639917
:1058C0000A002144130AF00F094BCDB58D4631B7BC
:1058D0003144130AF00F0D4BD1BD56852EC6EF0093
:1058E000D0439307B5FFB39AFA009307A0F8338A21
:1058F000A7400144014BB24555BD2685EF00F0415C
:105900001307B5FFB307AA00B394E400138A67072F
:105910008146E1B513F91B000147814701B7416694
:10592000139554007D1693570501698E63FA9A0A00
:10593000B3D5FA027D1AD68601473388C502B3F67D
:10594000F602C206558F637B07012A979386F5FFFF
:105950006368A70A6376070BF9152A97330707418F
:10596000B356F7023377F702B38AC60293170701DB
:1059700063FB5701AA971387F6FF63E1A70863FF4C
:105980005707F916AA97C205B38A5741D58DB33A7E
:105990005001B3EA5501CA8BF1B58546998E11C7FE
:1059A0006D4601478147E34BD6E6130AEA09339A6D
:1059B0004A01B3D7DA00B33A4001B3E7570113F70E
:1059C000770019C713F7F70091466303D7009107D3
:1059D00013975700634807029A07A58301473DBD07
:1059E00093D61A00B3D5F6021397FA014183338890
:1059F000C502B1B7CE8B368B814AA1BDBA8661B7DD
:105A0000B685A9BF0547814711BD13F91B001307D0
:105A1000F00F814721B593567501B7078000FD1738
:105A200013D6750193F6F60F1308F00FB3F8A7001D
:105A30001357F501ED8F1376F60FFD816381060391
:105A4000630C06018DE211E2B1C3638E08026305A7
:105A5000B70405451DE78280F5D779558280E39E1E
:105A600008FE6309D60211E2EDD7E314B7FEE34264
:105A7000D6FE63C7C600E3EE17FD0145E3FDF8FC63
:105A800001E77D558280F5DD054582800145E39281
:105A900008FC8280F9DBD1B78146E1BF797122D45D
:105AA000135475014ECE52CC9319950006D626D2CA
:105AB0004AD056CA5AC81374F40F93D99900135A8E
:105AC000F50169C49307F00F6308F40E939739004A
:105AD00037070004B3E9E700130414F88144014BCD
