:020000040800F2
:1000000058180020A101000867360008E5300008F4
:1000100065360008B5080008D97300080000000024
:10002000000000000000000000000000F75200087F
:10003000830900080000000047380008F952000852
:10004000BB010008BB010008BB010008BB010008A0
:10005000BB010008BB010008BB010008BB01000890
:10006000BB010008BB010008BB010008BB01000880
:10007000BB010008BB010008BB010008BB01000870
:10008000BB010008BB010008BB010008BB01000860
:10009000BB010008BB010008BB010008BB01000850
:1000A000BB010008BB010008BB010008BB01000840
:1000B000BB010008BB010008BB010008BB01000830
:1000C000BB010008BB010008BB010008BB01000820
:1000D000BB010008D1560008BB010008BB010008A5
:1000E000BB010008BB010008BB010008BB01000800
:1000F000BB010008BB010008BB010008BB010008F0
:10010000BB010008BB010008BB010008BB010008DF
:10011000BB010008BB010008BB010008BB010008CF
:10012000BB010008BB010008BB010008BB010008BF
:10013000BB010008BB010008BB010008BB010008AF
:10014000BB010008BB010008BB01000869360008BC
:10015000B9080008BB010008C5080008BB01000879
:10016000BB010008BB010008BB010008BB0100087F
:10017000BB010008BB010008BB0100080000000033
:10018000BB010008BB010008DFF810D000F0F0FA56
:1001900000480047FD900008AFF300805818002089
:1001A0000648804706480047FEE7FEE7FEE7FEE711
:1001B000FEE7FEE7FEE7FEE7FEE7FEE795530008F1
:1001C000890100082DE9F05F0546002092469B4614
:1001D00088460646814640241BE02846414647465D
:1001E000224600F02FF853465A46C01A914110D3C8
:1001F00011461846224600F016F82D1A67EB010842
:100200004F4622460120002100F00DF817EB0009AF
:100210004E41201EA4F10104DFDC484631462A4647
:100220004346BDE8F09F202A04DB203A00FA02F1A1
:10023000002070479140C2F1200320FA03F31943D4
:1002400090407047202A04DB203A21FA02F0002176
:10025000704721FA02F3D040C2F1200291400843D6
:1002600019467047D2B201E000F8012B491EFBD2BB
:1002700070470022F6E710B513460A4604461946B1
:10028000FFF7F0FF204610BD421C10F8011B0029AB
:10029000FBD1801A7047034611F8012B00F8012B9F
:1002A000002AF9D1184670472DE9FE4F81EA030470
:1002B00004F0004421F0004100944FF0000B23F0C3
:1002C000004350EA01045ED052EA03045BD0C3F35A
:1002D0000A54C1F30A552C44A4F2F3340194A0FB50
:1002E0000254C1F3130141F48011C3F3130343F427
:1002F000801301FB024400FB034E840A970A44EA80
:10030000815447EA8357A4FB076802958D0A05FBD1
:1003100007854FEA932C04FB0C542705029D4FEAF6
:10032000065847EA1637B5EB08056EEB070C870E43
:10033000920E47EA811742EA8312A7FB0201B6EB4D
:100340000B0164EB00042B0D43EA0C335E1844EB05
:100350001C50DA465146E7FB0201C5F313044FEA8D
:100360000B3343EA14534FEA0432019C43EA060379
:10037000A4F10C040294009CCDE900B400F064F8F0
:1003800003B0BDE8F08F00200146F9E70EB540F25A
:10039000334102910021CDE900110A460B4600F0DD
:1003A00053F803B000BDC1F30A5210B5C1F31301F5
:1003B00040F2FF3341F480119A4201DA002010BD6F
:1003C00040F233439A42A2F2334203DC5242FFF737
:1003D00039FF10BD904010BD00F0004230F00040E9
:1003E0000AD0C10D01F56071C0F3160042EA015157
:1003F000C20840071143704700200146704730B5DE
:100400000B46014600202022012409E021FA02F5D2
:100410009D4205D303FA02F5491B04FA02F528446C
:10042000151EA2F10102F1DC30BD10B5141E73F1EE
:10043000000408DA401C41F1000192185B411A43A4
:1004400001D120F0010010BD2DE9F04D92469B46F0
:1004500011B1B1FA81F202E0B0FA80F22032904696
:10046000FFF7E1FE04460F4640EA0A0041EA0B01AD
:1004700053465A46084313D0114653EA010019D097
:10048000C8F140025046FFF7DDFE05460E465046D5
:1004900059464246FFF7C7FE084305D0012004E055
:1004A00020463946BDE8F08D0020054346EAE07657
:1004B0002C4337430A986305E40AA0EB08000022A6
:1004C000FD0A44EA47540A3002D500200146E9E714
:1004D000010510196941DDE9084500196941BDE8C8
:1004E000F04DA2E72DE9FE4F804681EA0300C00FE0
:1004F0000C46009021F0004123F00045B8EB0200CB
:10050000A94105D24046214690461C460B4602466C
:1005100023F00040104347D0270DC7F30A00C3F370
:100520000A510290401A019040286BDAC3F313007D
:1005300040F4801B0098924620B10023D2EB030ABE
:1005400063EB0B0B01985946C0F140025046FFF790
:100550006AFE06460D4650465946019A00F01AF9C1
:1005600010EB08006141002487EA115284EAE77326
:100570001A4340D0009A62B3019A012A4FEA075207
:1005800015DC001B61EB02014FF0004202EA07524A
:10059000CDE90042001C41F5801132462B46FFF7A1
:1005A00053FF03B0BDE8F08F40462146F9E7001B3A
:1005B00061EB0201001C41F5801300185B4120181B
:1005C000A2F5001747EB030140EAD570B6196D415B
:1005D00011E06D084FEA360645EAC0754FEA07524A
:1005E000001B61EB0201001C41F5801149084FEA34
:1005F00030000019514132462B4603B0BDE8F04FA0
:10060000FFF713BF0098012240000023D0EB020245
:1006100063EBE073009821464FEAE074B8EB00000A
:1006200061EB0401E9E783F000435BE781F00041FF
:1006300058E72DE9F04D81EA030404F0004B21F066
:10064000004514464FF0000A23F0004150EA05022D
:1006500020D054EA01021DD0C5F30A570246C5F363
:100660001303C1F31300C1F30A5640F4801543F499
:100670008013A7EB0608101BD64608F2FD3873EB73
:10068000050002D308F1010801E092185B41B8F1BE
:10069000000F03DA00200146BDE8F08D00204FF482
:1006A0008011064684460EE0171B73EB050705D341
:1006B000121B63EB050306434CEA010C49084FEAA1
:1006C000300092185B4150EA0107EDD152EA030075
:1006D00012D082EA040083EA0501084305D0101B0A
:1006E000AB4106D20122002306E000224FF0004376
:1006F00002E06FF0010253101AEB06004CEB0851B8
:1007000010EB0A0041EB0B01BDE8F04DFFF78DBE89
:10071000C1F30A52C1F3130140F2FF3341F48011D7
:100720009A4202DA00200146704740F233439A426F
:10073000A2F2334202DC5242FFF784BDFFF773BDE1
:1007400030B5041E71F1000404DB4FF00044404258
:1007500064EB0101141E73F1000405DB1C464FF02D
:100760000043524263EB0403994208BF904230BDFC
:10077000064C074D06E0E06840F0010394E80700EE
:1007800098471034AC42F6D3FFF702FDE09500081D
:1007900000960008202A06DBCB17203A41FA02F027
:1007A00043EAE07306E041FA02F3D040C2F12002CE
:1007B000914008431946704770B58C1810F8015BDA
:1007C00015F0070301D110F8013B2A1106D110F8EA
:1007D000012B03E010F8016B01F8016B5B1EF9D1EE
:1007E0002B0705D40023521E0DD401F8013BFAE774
:1007F00010F8013BCB1A921C03E013F8015B01F8DF
:10080000015B521EF9D5A142D8D3002070BD000073
:100810000146014801F0E0BE8806002010B50448FA
:1008200001F0ECFE042801D0012010BD002010BD15
:100830008806002010B500F015F8012801D001202D
:1008400010BD074801F0EAFE044634B94FF40061D8
:10085000034801F079FD00B10124204610BD0000DD
:100860008806002081B0012000909DF8000001B0B2
:100870007047000038B50024009313460A4601462D
:10088000034801F083FF00B10124204638BD000079
:100890008806002038B50024009313460A46014616
:1008A000034802F0B1F800B10124204638BD000031
:1008B00088060020FEE70000014800F04BB9000068
:1008C00054070020014800F045B90000B40700209B
:1008D00001680A4BCAB2103AA3FB02321209084B54
:1008E0009B5CC365032A04D96FF30901091D816567
:1008F00002E06FF309018165806D7047ABAAAAAA77
:1009000026950008014600208A6A8B69002B0FD0CB
:10091000B3F5005F1DD08AB3012A30D0022A2ED051
:10092000032A04D1C96A11F0807F00D001207047EA
:100930001AB1012A07D0022AF9D1C96A11F0807FC1
:10094000F5D001207047C96AB1F1C07FFAD101200A
:1009500070475AB1012A0BD0022A07D0032AF7D1D7
:10096000C96AB1F1C07FF3D10120704701207047FF
:10097000C96A11F0807FFAD001207047FFE701209B
:10098000704770472DE9F047254D8CB089462A788D
:100990001AB901462348FFF77EFC2249684607F052
:1009A00092FE04002DD11F4FA7F1180808F1090A83
:1009B0001C496846183907F099FF04001ED198F8C1
:1009C00009104046D1B1017AC90621D51548FFF773
:1009D0005BFC0646B819524613A106F00FFD2878B5
:1009E0004946484511D2401C287010A0FFF7CAFFA5
:1009F00004002878A0F10100287006D0684607F0AE
:100A0000A7FC0CB02046BDE8F0870020B855CFE722
:100A10005246044906A0D8F8003006F0DFFCC7E7CC
:100A200000000020440100202F257300000000007A
:100A300025732F25732025750D0A000072B6FEE779
:100A4000002200F001B8000010B4844601200E4BD3
:100A50005C7A002C16D1587A1C54587A03EB80002B
:100A6000C0F804C0587A03F1080C00F80C20587A3A
:100A7000421C5A72303008703A2048702F2088701B
:100A8000CC70002010BC70474C1400202DE9F041C0
:100A90000446A66D00F0FCFA054694F835000027E0
:100AA000022806D08020606584F834700120BDE8FB
:100AB000F0812068016821F0160101602068416919
:100AC00021F080014161206C08B9A06C20B1206840
:100AD000016821F0080101602068016821F001012E
:100AE00001602068006810F0010F12D000F0D0FA09
:100AF000401B052808D920206065032084F83500B4
:100B000084F83470BDE8F0812068006810F0010FAF
:100B1000ECD194F85C003F2101FA00F0B0600120B4
:100B200084F8350084F834700020BDE8F08190F836
:100B30003510022903D0802141650120704705212D
:100B400080F835100068016821F001010160002083
:100B5000704700002DE9F84304464FF00008CDF837
:100B6000008076484FF416510068B0FBF1F7A56D90
:100B70002E6894F85C00082101FA00F0304211D090
:100B80002068026812F0040F0CD0026822F0040200
:100B9000026094F85C0001FA00F0A860606D40F01B
:100BA0000100606594F85C004FF0010909FA00F05B
:100BB000304209D02168496911F0800F04D0A86043
:100BC000606D40F00200606594F85C10042088407D
:100BD000304209D02168096811F0020F04D0A860E2
:100BE000606D40F00400606594F85C10102088404F
:100BF000304224D02168096811F0080F1FD0A86086
:100C00002068016811F4802F0DD0006810F4002FC7
:100C100004D0A16C99B12046884710E0216C71B1D5
:100C2000204688470BE0016811F4807F03D10168FA
:100C300021F008010160216C09B12046884794F831
:100C40005C1020208840304251D02168096811F0A2
:100C5000100F4CD0A86094F8350005280DD02068FE
:100C6000016811F4802F32D0006810F4002F29D0D1
:100C7000E16B59B32046884739E02068016821F0CC
:100C8000160101602068416921F080014161206CFA
:100C900008B9A06C20B12068016821F0080101604A
:100CA00094F85C003F2101FA00F0A86084F83590C8
:100CB00084F83480216D00293ED001B02046BDE883
:100CC000F0430847616C09B1204688470FE001688E
:100CD00011F4807F07D1016821F01001016084F8D0
:100CE000359084F83480E16B09B120468847606D07
:100CF000002821D0606D10F0010F15D0052084F878
:100D000035002068016821F0010101600098401C55
:100D10000090B84204D82068006810F0010FF5D1A7
:100D200084F8359084F83480E16C002904D001B057
:100D30002046BDE8F0430847BDE8F8838400002062
:100D40002DE9F041044600F0A3F90546DCB102208C
:100D500084F83500002684F834602068016821F0AA
:100D6000010101602068006810F0010F13D000F04D
:100D70008FF9401B052809D920206065032084F8DD
:100D80003500BDE8F0810120BDE8F08120680068F1
:100D900010F0010FEBD121680868234A1040A368C6
:100DA0006268D4F810C01A43E36843EA0C031A439C
:100DB00063691A43A3691A43E3691A43236A1A430E
:100DC0001043626A042A03D1236BE26A1A43104378
:100DD00008602068406920F00701606A40EA010568
:100DE000012704280ED1A06A0543E06A50B12046CD
:100DF000FFF788FD30B14020606584F83570012030
:100E0000BDE8F081206845612046FFF761FD94F858
:100E10005C103F2202FA01F18160666584F835704A
:100E20000020BDE8F08100003F8010F070B504465E
:100E300000F02EF90546B4F1FF3F02D004480078D7
:100E4000044400F025F9401BA042FAD370BD000015
:100E5000880000202DE9F84F0022DFF818A2DFF803
:100E600010924FF0010E03274FF00F08AAF1040B68
:100E70000EFA02FC0B6803EA0C0363457DD10C7982
:100E800004F00304012C01D0022C14D18568540015
:100E900007FA04F6B543CE6806FA04F42C438460DE
:100EA000446824EA0C0C0C79C4F30014944044EA1E
:100EB0000C0CC0F804C0D1F804C037EA0C0C0CD0FC
:100EC000C4684FEA420C07FA0CF5AC438D6805FA8A
:100ED0000CFC4CEA040CC0F80CC091F804C00CF0F7
:100EE000030CBCF1020F12D14FEAD20C00EB8C04C0
:100EF000256A4FEA427C4FEADC6C08FA0CF6B543EF
:100F00000E6906FA0CFC4CEA050CC4F820C0046813
:100F10004FEA420C07FA0CF5AC430D7905F00305D6
:100F200005FA0CFC4CEA040CC0F800C0D1F804C06F
:100F30001CF4403F7DD0D9F800C04CF4804CC9F877
:100F400000C0D9F800C00CF4804CCDF800C022F0ED
:100F5000030C0CF1804505F59835D5F808C89407C1
:100F6000240F08FA04F62CEA0606A0F1804CBCF522
:100F7000003C64D0A0F1804C00E05AE0BCF5013C9C
:100F800060D0A0F1804CBCF5023C5ED0A0F1804C5A
:100F9000BCF5033C5CD0A0F1804CBCF5043C5AD0BD
:100FA000A0F1804CBCF5053C58D0A0F1804CBCF5BC
:100FB000063C56D0A0F1804CBCF5073C54D04FF015
:100FC000080C0CFA04FC4CEA060CC5F808C8DAF860
:100FD00000C02CEA030C4C6814F4801F01D04CEACA
:100FE000030CCAF800C0244CD4F800C02CEA030C4F
:100FF0004D6815F4001F01D04CEA030CC4F800C082
:10100000DBF800C02CEA030C4C6814F4003F01D05C
:101010004CEA030CCBF800C0184CD4F800C02CEA02
:10102000030C4D6815F4803F01D04CEA030CC4F862
:1010300000C0521C102AFFF41BAFBDE8F88F4FF020
:10104000000CBEE74FF0010CBBE74FF0020CB8E715
:101050004FF0030CB5E74FF0040CB2E74FF0050C6E
:10106000AFE74FF0060CACE74FF0070CA9E7000024
:1010700044380240083C01400C3C0140003C014027
:10108000002A01D081617047090481617047000026
:10109000014880687047000088000020024881688D
:1010A00002781144816070478800002010B50B4819
:1010B000016841F400710160016841F480610160E0
:1010C000016841F480710160032000F085F80F2071
:1010D00000F006F800F026F8002010BD003C0240A9
:1010E00070B504460D4D4FF47A712878B1FBF0F0DD
:1010F0000B490968B1FBF0F001F0A4FD08B1012033
:1011000070BD102C07D200222146501E00F030F88E
:101110006C60002070BD012070BD000088000020C0
:10112000840000200A4808B5016841F4804101604C
:10113000006800F4804000900548001F016841F0FD
:1011400080510160006800F08050009008BD0000F0
:101150004438024000280ADB00F01F01012202FA95
:1011600001F14009800000F1E020C0F80011704753
:1011700010B4184B1B68C3F30223C3F1070CBCF176
:10118000040F01D94FF0040C1C1D072C01D20023C1
:1011900000E0DB1E012404FA0CFCACF1010C0CEAAB
:1011A0000101994004FA03F35B1E1A401143002821
:1011B00006DB00F1E020090180F8001410BC704744
:1011C00000F00F0000F1E020090180F8141D10BCB0
:1011D000704700000CED00E000F00700064A1168BF
:1011E0004FF6FF03194041EA002040F0FD7040F047
:1011F00080601060704700000CED00E070470068F0
:1012000041620020704730B40368586A00291BD03F
:10121000D3F828C000EB1C4C00200129A1F10101EA
:101220004FF4827408D004EB80055D590CEB154C2B
:10123000401CC0B28842F6D304EB81014CEA024064
:10124000585030BC0020704740EA02409862F8E7EE
:10125000D0F8E00404F07EBD01EBC10200EB820295
:10126000D0F8E004126A04F09FBC01EBC10200EB6D
:101270008202D0F8E004D2F8602204F003BDD0F876
:10128000E00404F069BD11F0800F01F00F0101EBE3
:10129000C10100EB810101D0143101E001F51571AC
:1012A000006805F0ACBE70B5044611F0800F01F087
:1012B0000F0000EBC00104EB81014FF001024FF081
:1012C000000502D014314A7002E001F515714D702D
:1012D000087094F89404012808D084F894242068B5
:1012E00005F072FB84F89454002070BD022070BD9C
:1012F00070B5044601F00F022079824201D9012025
:1013000070BD01F00F0000EBC00011F0800F04EB86
:1013100080004FF001034FF0000503D000F11401ED
:101320004B7002E000F515714D708D700A7094F8E5
:101330009404012808D084F89434206805F0C0FC97
:1013400084F89454002070BD022070BD10B504468E
:1013500094F8940401280BD0012084F8940411F02F
:10136000800F07D001F00F01206805F0CDFE04E0EA
:10137000022010BD206805F0A2FE002084F894042D
:1013800010BD01F00F0101EBC10100EB8100D0F8AD
:101390006802704770B5044611F0800F01F00F002D
:1013A00000EBC00104EB81014FF0010C4FF0000590
:1013B00003D0143181F801C002E001F515714D70C0
:1013C00008708A600B714A7802B14883022B00D101
:1013D0004D7194F89404012808D084F894C42068CE
:1013E00005F02CFA284684F8945470BD022070BD94
:1013F00010B501F00F0C0CEBCC0100EB810101F5F5
:101400001571CA600B6100234B614B7081F800C0FD
:101410008379012B00D1CA618279006805F0ABFCA9
:10142000002010BD70B504460D46217905F00F006F
:10143000884201D9012070BD15F0800F4FF00006E1
:101440004FF0010206D000EBC00104EB8101143122
:101450004A7006E005EBC50104EB810101F5157149
:101460004E708A70087094F89404012808D084F8AB
:101470009424206805F050FC15F00F0F02D007E00F
:10148000022070BDA17904F29C42206805F0E8FBBF
:1014900084F89464002070BD10B501F00F0C0CEBC3
:1014A000CC0100EB81010A624B6200238B620123B5
:1014B0004B7501F814CF8379012B00D1CA61827971
:1014C000006805F058FC002010BD2DE9F05F0446CF
:1014D0002568284605F04FFE00287ED1206805F0DB
:1014E00076FE002879D0D5F80808C0F30D20C4F89E
:1014F000D404206805F06BFE10F0020F04D02068C1
:10150000416901F002014161206805F060FE10F0C0
:10151000100F36D02068816921F0100181612F6A97
:1015200007F00F0000EBC00004EB800000F515761B
:10153000C7F34340022802D0062812D01CE047F629
:10154000F070074218D0C7F30A1217462846F16810
:1015500005F041FEF0683844F0607069384470610D
:101560000AE0082204F29C41284605F034FE706926
:10157000C7F30A11084470612068816941F01001C5
:101580008161206805F023FE10F4002F4FF0100B4E
:101590004FF0000A4FF0010967D00026206805F0DF
:1015A000F5FD80465FEA08005FD018F0010F56D0C5
:1015B000F1B2206805F003FE074617F0010F07D0CF
:1015C00005EB4610C0F8089B3146204602F076F83D
:1015D00017F0080F0AD0082000E01EE205EB4611C4
:1015E000C1F8080B3146204602F044F817F0100FFE
:1015F00003D005EB4610C0F808BB17F0020F1DD052
:10160000686910F0800F05D0D5F8040840F48061B7
:10161000C5F8041806EBC60004EB800000F5157051
:10162000C178012905D180F803A0F1B2204600F06D
:1016300001FA05EB46110220C1F8080B17F0200F44
:1016400004D005EB46112020C1F8080B17F4005F09
:1016500005D005EB46104FF40051C0F8081B761C6E
:101660004FEA5808B8F1000F9FD1206805F0AFFD90
:1016700010F4802F74D0206805F081FD0746002605
:10168000002F6DD04FF0020B17F0010F64D0F1B2B4
:10169000206805F082FD804618F0010F24D006F086
:1016A0000F0009FA00F0D5F834188143C5F8341852
:1016B00005EB4610C0F80899A079012810D106EB77
:1016C000C60004EB8000C269016A114401623EB9A0
:1016D000606A28B904F29C420121206805F0C0FA32
:1016E000F1B22046FFF7B8FD18F0080F04D005EB63
:1016F00046110820C1F8080918F0100F04D005EBB6
:1017000046111020C1F8080918F0400F04D005EB6D
:1017100046114020C1F8080918F0020F15D03146D3
:10172000284605F0F1FC06EBC60004EB80001430FF
:10173000C178012905D180F803A0F1B2204600F05C
:1017400075F905EB4610C0F808B918F0800F03D002
:101750003146204602F026F8761C7F08002F93D1F0
:10176000206805F034FD10F0004F11D0D5F80408C2
:1017700020F00101C5F8041894F8CC04012861D0C8
:10178000204600F027FA2068416901F000414161DC
:10179000206805F01CFD10F4006F0CD0D5F8080887
:1017A00010F0010F02D0204600F058FA206841697D
:1017B00001F400614161206805F009FD10F4805FCB
:1017C00065D0D5F8040820F00101C5F804181021EF
:1017D000206805F099FC0021207900281DD94FF6DA
:1017E0007F3205EB4110C0F80829D0F8003923F406
:1017F0000013C0F80039C0F8082BD0F8003B23F4E0
:101800000013C0F8003BD0F8003B43F00063C0F881
:10181000003B491C20798842E3D8D5F81C0840F0E9
:101820000111C5F81C18E07B98B1D5F8840840F088
:101830000B01C5F88418D5F8440840F00B01C5F831
:10184000441813E084F8CCA400212046FFF7D6FC0E
:1018500099E7D5F8140842F22B010143C5F8141892
:10186000D5F8100840F00B01C5F81018D5F800089D
:1018700020F4FE61C5F80018A17904F29C422068AA
:1018800005F0EEF92068416901F48051416120685A
:1018900005F09DFC10F4005F16D0206805F01CF8E0
:1018A000206805F058FCE07100F0AEFA23680146AC
:1018B000E279184605F0FCFC204600F075F9206836
:1018C000416901F400514161206805F080FC10F08D
:1018D000080F07D0204600F081F92068416901F027
:1018E00008014161206805F072FC10F0800F17D0EC
:1018F000A86920F08001A9610126207901280FD96B
:1019000006EBC60004EB800090F85702012803D1D3
:10191000F1B22046FFF7B7FC761C2079B042EFD831
:10192000206805F054FC10F4801F22D00126207995
:10193000012819D905EB4610D0F8001906EBC600AE
:1019400004EB8000027E012A0AD111F0004F07D07B
:1019500080F81790F0B240F080012046FFF793FC2A
:10196000761C2079B042E5D82068416901F48011E5
:101970004161206805F02BFC10F4001F2DD00120E0
:101980002179012924D905EB4011D1F8001B00EB86
:10199000C00204EB820292F85832012B14D111F0EC
:1019A000004F11D094F8D43401F4803103F00103D6
:1019B000994209D182F85792A96941F08002AA613F
:1019C000696911F0800F2AD0401C21798142DAD850
:1019D0002068416901F400114161206805F0F7FBBE
:1019E00010F0804F07D02046FFF732FC2068416995
:1019F00001F080414161206805F0E9FB10F0040F1F
:101A00000BD02068456815F0040F02D02046FFF780
:101A100036FC2068416829434160BDE8F09FD5F855
:101A2000040840F40070C5F80408D1E7D0F8E004D9
:101A300004F0EFB9D0F8E00404F000BAF8B50446B9
:101A4000002C05D0266894F89504002510B106E016
:101A50000120F8BD84F89454204600F063F8032078
:101A600084F89504B6F1A04F00D1A571206805F067
:101A7000F1F8207C8DF8000094E80F0004F03AFFA4
:101A8000022618B184F895640120F8BD0021206871
:101A900005F0C5FB18B184F895640120F8BD00215C
:101AA0002079012700280FD901EBC10004EB800049
:101AB00047750175C1850576C56105624562481C9B
:101AC000C1B220798842EFD800212079002814D9AA
:101AD00001EBC10004EB800080F8555280F85412ED
:101AE00080F85852C0F85C52C0F86052C0F8645296
:101AF000481CC1B220798842EAD8207C8DF80000C9
:101B000094E80F0004F0EAFF18B184F8956401200E
:101B1000F8BD657484F89574206804F0D1FF002046
:101B2000F8BD000010B586B0044614216846FEF7E3
:101B3000A0FB2068B0F1A04F2FD119480021026806
:101B400042F001020260006800F0010005904FF4CD
:101B5000C05000900220CDE90101032003900A202B
:101B6000049069460F48FFF775F90D48001D01689C
:101B700041F0800101600A481430016841F480415D
:101B800001600068002200F4804005901146432067
:101B9000FFF7EEFA4320FFF7DDFA06B010BD0000B4
:101BA000303802400000024070B50446C07901257B
:101BB00070B1022801D0FEF741FF2946D4F8E004B5
:101BC00004F0ADF9D4F8E004BDE8704004F060B969
:101BD0000025F2E7D0F8E00404F08AB9D0F8E00478
:101BE00004F090B910B5044694F8940401280AD082
:101BF000012084F894046174206805F040FB002003
:101C000084F8940410BD022010BDD0F8E02400F246
:101C10009C41104604F08FB910B50446206894F832
:101C2000941401290AD0012184F89414C16811F098
:101C3000400F09D0617B012902D005E0022010BDD0
:101C4000816B41F480318163206805F032FA2068AD
:101C500004F028FF002084F8940410BD10B5044659
:101C6000D0F8E00404F0ABF92068D0F8001E41F091
:101C70000101C0F8001EE07A002804D00248016883
:101C800041F00601016010BD10ED00E02DE9F047C4
:101C900004460D46002C13D0DFF85491D9F800000B
:101CA000EFB200F00700A8420DD289F80070D9F811
:101CB000000000F00700A84205D00120BDE8F08731
:101CC0000120BDE8F08720684A4E10F0020F14D0C2
:101CD00010F0040F03D0306840F4E05030602078FA
:101CE00010F0080F03D0306840F460403060306876
:101CF000A16820F0F00008433060207810F0010F58
:101D00003ED060683C49012808D002280DD0032845
:101D10000BD0096811F0020F28D00AE0096811F40D
:101D2000003F06D10120BDE8F087096811F0007F6F
:101D300019D0316821F0030108433060FFF7A8F99A
:101D400080463068616800F00C00B0EB810F17D05E
:101D500041F2883AFFF79CF9A0EB0800504508D9FA
:101D60000320BDE8F0870120BDE8F0870120BDE831
:101D7000F0873068616800F00C00B0EB810FE9D1AA
:101D8000D9F8000000F00700A8420AD989F80070CD
:101D9000D9F8000000F00700A84202D00120BDE8F9
:101DA000F087207810F0040F05D03068E16820F447
:101DB000E05008433060207810F0080F06D03068FB
:101DC000216920F4604040EAC100306000F042F830
:101DD00031680A4AC1F30311515CC84008490860E0
:101DE00008480068FFF77CF90020BDE8F087000094
:101DF000003C024008380240003802400E950008BE
:101E0000840000208C00002001480068704700001A
:101E10008400002000B5FFF7F7FF04490968044A71
:101E2000C1F38221515CC84000BD00000838024067
:101E30001E95000800B5FFF7E7FF04490968044A4A
:101E4000C1F34231515CC84000BD00000838024077
:101E50001E95000810B51748006810F00C011648D0
:101E600016D0164B042912D0082911D1144C216820
:101E700001F03F02216811F4800F0AD02068C0F3FE
:101E80008810A0FB03010023FEF79CF909E0184627
:101E900010BD21680023C1F38811A1FB0001FEF7EA
:101EA00091F92168C1F30141491C4900B0FBF1F0EF
:101EB00010BD0000083802400024F40040787D0185
:101EC000043802402DE9F84F0446002C12D0207847
:101ED000FB4E10F0010FA6F1040563D0301D016820
:101EE00001F00C0104290CD0006800F00C00082857
:101EF00003D010E00120BDE8F88F306810F4800FA7
:101F000009D0286810F4003F4CD06068002849D1FF
:101F10000120BDE8F88F6068B0F5803F14D0B0F5BF
:101F2000A02F16D0286820F480302860286820F47C
:101F300080202860606810B3FFF7AAF80746286879
:101F400010F4003F0ED02DE0286840F48030286067
:101F5000F0E7286840F480202860286840F480304A
:101F60002860E7E7FFF794F8C01B642802D9032034
:101F7000BDE8F88F286810F4003FF3D012E0FFF7B7
:101F800087F80746286810F4003F0BD0FFF780F869
:101F9000C01B642802D90320BDE8F88F286810F41C
:101FA000003FF3D12078C74F10F0020F4FF0000927
:101FB00057D0C548016811F00C0F14D0006800F02C
:101FC0000C00082803D1306810F4800F0BD0E068B3
:101FD00080B301203860FFF75BF88046286810F076
:101FE000020F12D01EE0286810F0020F05D0E06842
:101FF000012802D00120BDE8F88F2868216920F06F
:10200000F80040EAC10028602BE0FFF741F8A0EBA0
:102010000800022802D90320BDE8F88F286810F0D4
:10202000020FF2D02868216920F0F80040EAC100D0
:10203000286016E0FFE7C7F80090FFF729F8804610
:10204000286810F0020F0CD0FFF722F8A0EB080070
:10205000022802D90320BDE8F88F286810F0020F8B
:10206000F2D1207810F0080F35D09848DFF860A240
:102070006169C1B101210160FFF70AF88046DAF811
:10208000000010F0020F26D1FFF702F8A0EB0800C5
:10209000022802D90320BDE8F88FDAF8000010F01A
:1020A000020FF1D017E0C0F80090FEF7F1FF804674
:1020B000DAF8000010F0020F0DD0FEF7E9FFA0EBF8
:1020C0000800022802D90320BDE8F88FDAF80000E2
:1020D00010F0020FF1D1207810F0040F71D04FF002
:1020E00000087C48006810F0805F0AD179480168D8
:1020F00041F080510160006800F0805000904FF086
:102100000108DFF8D4B1DBF8000010F4807F1BD1A8
:10211000DBF8000040F48070CBF80000FEF7B8FF59
:102120008246DBF8000010F4807F0DD1FEF7B0FF8F
:10213000A0EB0A00022802D90320BDE8F88FDBF8E3
:10214000000010F4807FF1D0A068DFF890B1012882
:1021500018D005281DD0DBF8000020F00100CBF8D6
:102160000000DBF8000020F00400CBF80000A068BD
:1021700040B3FEF78DFF8246DBF8000010F0020F3F
:1021800014D03EE0DBF8000040F00100CBF8000086
:10219000EDE7DBF8000040F00400CBF80000DBF8CE
:1021A000000040F00100CBF80000E0E7FEF770FF10
:1021B000A0EB0A0141F28830814204D90320BDE836
:1021C000F88F26E005E0DBF8000010F0020FEDD0FC
:1021D00017E0FEF75DFF8246DBF8000010F0020F0B
:1021E0000FD0FEF755FFA0EB0A0141F28830814283
:1021F00002D90320BDE8F88FDBF8000010F0020FD1
:10220000EFD1B8F1010F04D13248016821F08051BB
:102210000160A069F0B32C4909684FF0FF3801F064
:102220000C01082966D0022810D0C7F86090FEF78C
:102230002FFF0446286810F0007F2BD0FEF728FF00
:10224000001B022851D90320BDE8F88FC7F8609021
:10225000FEF71EFF8146286810F0007F0CD0FEF7C5
:1022600017FFA0EB0900022802D90320BDE8F88F70
:10227000286810F0007FF2D1216AE069A26A084361
:10228000616A08EB5202890141EA0241084394F86D
:102290002C1000E055E040EA016030600120386613
:1022A000FEF7F6FE0446286810F0007F49D1FEF7DD
:1022B000EFFE001B022813D90320BDE8F88F0000B1
:1022C000043802400000474208380240800E47426E
:1022D00074380240403802400070004070380240BC
:1022E000286810F0007FE2D02BE0286810F0007F13
:1022F000A4D126E0012822D03068E26900F48001F0
:1023000091421AD1226A00F03F01914215D147F65D
:10231000C071626A0140B1EB821F0ED1A26A00F463
:10232000403108EB5202B1EB024F06D194F82C1069
:1023300000F07060B0EB016F03D00120BDE7012019
:10234000BBE70020B9E700002DE9F0418AB0044660
:102350000D460026032084F83400606C03281ED04C
:10236000B5F5805F08D0B5F5006F0AD085B1A06BD8
:1023700040F00060A06316E0A06B40F08050A063C6
:1023800011E0204602F00EFFA16B0843A0630AE0B3
:10239000204602F0D8FEA16B0843A06303E0A06BC7
:1023A00040F08050A063A06B194F4FF0010828B196
:1023B0002068876384F83480012616E06068049002
:1023C000A0680590E0680690079560690890A0698C
:1023D000099008990798099A019102920090206843
:1023E000069B059A049902F099F84FF40071206851
:1023F00002F0F9F828B121688F63A16B0843A0634C
:10240000012684F834800AB03046BDE8F08100002F
:10241000FF05400030B4426E920F0A70426EC2F364
:1024200083624A70426EC2F301628A70426E120C7D
:10243000CA70B0F86420120A0A7190F864204A71D8
:10244000826E120DCA80826EC2F303420A72B0F825
:102450006820C2F3C0324A72B0F86820C2F38032FA
:102460008A72B0F86820C2F34032CA72B0F86820AD
:10247000C2F300320A7300254D73426C4FF40074AE
:102480004FF0010C002A0DD0012A3BD002685149BF
:102490009163816B41F08051816380F834C030BC1E
:1024A00001207047B0F86820C36E9205120D42EA11
:1024B00093720A61C26EC2F3C2620A75C26EC2F33F
:1024C00002624A75C26EC2F342528A75C26EC2F38C
:1024D0008242CA75C26EC2F3C2320A760A69521CBF
:1024E00042650B7E03F007039B1C9A4042650B7A02
:1024F00003F00F030CFA03F383655B0A5A43C265CA
:1025000004660EE090F86820C36E9206920A42EAD2
:1025100013420A610A69521C92024265C2658465CF
:102520000466B0F86C20C2F380324A76B0F86C20B2
:10253000C2F3C6128A7690F86C2002F07F02CA7647
:10254000026FD20F0A77026FC2F341724A77026FAD
:10255000C2F382628A77026FC2F38352CA77026F34
:10256000C2F3405281F8202081F82150026FC2F35B
:10257000004281F82220B0F87020C2F3C03281F806
:102580002320B0F87020C2F3803281F82420B0F804
:102590007020C2F3403281F82520B0F87020C2F3D9
:1025A000003281F82620B0F87020C2F3812281F831
:1025B0002720B0F87020C2F3012281F8282090F87B
:1025C0007000C0F3460081F8290081F82AC030BCB1
:1025D00000207047FF054000426C0A60826C4A6030
:1025E000C26C8A60026DCA60426D0A61826D4A6186
:1025F000C26D8A61006EC8610020704738B504461C
:10260000002000906946204602F086FD10B1A16BC3
:102610000843A0630098C0F3432038BD70B504465A
:10262000002C04D094F83400002510B105E00120FE
:1026300070BD2577204600F063F8032084F834004D
:10264000204600F00BF808B1012070BDA56325639A
:10265000012084F83400002070BD000070B58AB0FD
:102660000446002529460495059106910791089195
:10267000762009900091019102900B460A4620684D
:1026800001F04CFF10B10AB0012070BD1A4E356048
:10269000206801F059FF012535600220FEF7C6FBD6
:1026A000204602F0DDFC38B184F83450A16B0843B9
:1026B000A0630AB0012070BD204602F059FC38B179
:1026C00084F83450A16B0843A0630AB0012070BDA8
:1026D0004FF40071206801F086FF50B1226807496D
:1026E0009163A16B0843A06384F834500AB00120C1
:1026F00070BD0AB0002070BDA0802542FF054000DB
:10270000F0B587B0044614216846FDF7B2FD1B49B9
:10271000206888422FD11A48016841F400610160A5
:10272000006800F40060059015481438016841F015
:1027300004010160016801F004010591016841F0A4
:102740000801016000680C2400F0080005904FF4B7
:10275000F85002250126032704948DE8E10069461C
:102760000848FEF777FB042004948DE8E1006946F1
:102770000548FEF76FFB07B0F0BD0000002C0140DC
:102780004438024000080240000C02402DE9F04F9E
:1027900087B004460D4616469946DDF84080FEF7A0
:1027A00077FC83465DB194F8340001280FD0A06B0C
:1027B00040F00050A06307B00120BDE8F08FA06B8F
:1027C00040F00060A06307B00120BDE8F08F00205A
:1027D000A063E26D06EB0901914207D9A06B40F0BE
:1027E0000070A06307B00120BDE8F08F032184F8DA
:1027F00034102168C862616C012900D076024FF064
:10280000FF3100914FEA4921019190210291022765
:102810000397002004904FF0010ACDF814A06946F8
:10282000206801F05FFEB9F1010F05D92763314639
:10283000206801F036FF05E0C4F830A0314620687A
:1028400001F048FF68B122686E499163A16B0843AB
:10285000A06384F834A00020206307B00120BDE805
:10286000F08F019E2068416B40F22A30014229D14D
:102870002068406B10F4004F15D0A6B100272068E7
:1028800001F066FE2870691C721E030A0B70491C59
:10289000030C0B70491C921E000E08704D1C561E36
:1028A0007F1C082FEBD3FEF7F3FBA0EB0B0040459A
:1028B00024D2B8F1000F21D02068416B40F22A30B9
:1028C0000142D5D02068416B11F4807F25D0B9F149
:1028D000010F22D9616C03291FD001F0A7FFE0B1DD
:1028E000226848499163A16B0843A06384F834A02F
:1028F0000020206307B00120BDE8F08F2168414827
:102900008863A06B40F00040A06384F834A00020EE
:10291000206307B00320BDE8F08F2068416B11F001
:10292000080F03D1416B11F4007F0DD0354981634D
:10293000A06B40F00800A06384F834A0002020635E
:1029400007B00120BDE8F08F416B11F0020F0DD0F0
:102950002C498163A06B40F00200A06384F834A08E
:102960000020206307B00120BDE8F08F416B11F01B
:10297000200F26D023498163A06B40F02000A06384
:1029800084F834A00020206307B00120BDE8F08F58
:1029900001F0DEFD2870691C721E030A0B70491CD1
:1029A000030C0B70491C921E000E08704D1C561E25
:1029B000FEF76EFBA0EB0B00404513D2B8F1000F01
:1029C00010D02068416B11F4001F01D0002EDFD120
:1029D000216840F23A50886384F834A007B00020A0
:1029E000BDE8F08F216807488863A06B40F0004085
:1029F000A06384F834A00020206307B00120BDE864
:102A0000F08F0000FF0540002DE9F04F8BB0044629
:102A10000E4615469946DDF85080FEF739FB0290C8
:102A20005EB194F8340001280FD0A06B40F0005044
:102A3000A0630BB00120BDE8F08FA06B40F00060F8
:102A4000A0630BB00120BDE8F08F4FF0000BC4F87D
:102A500038B0E16D05EB0900884207D9A06B40F062
:102A60000070A0630BB00120BDE8F08F032084F854
:102A700034002068C0F82CB0606C012800D06D02D2
:102A80004FF0FF3004904FEA4920059090200690C7
:102A9000CDF81CB0CDF820B04FF0010ACDF824A03D
:102AA00004A9206801F01EFDB9F1010F07D920200B
:102AB00020632946206801F0D3FE039006E0102031
:102AC00020632946206801F0E4FE0390039870B16A
:102AD00021685B488863A16B03980843A06384F86E
:102AE00034A0C4F830B00BB00120BDE8F08F059FD2
:102AF0002068416B40F21A30014231D12068406BAE
:102B000010F4804F1DD0E7B1002531780191701C81
:102B10007A1E037841EA03210191401C037841EABF
:102B200003410191401C921E037841EA0361019127
:102B3000461C571E01A9206801F01DFD6D1C082DC3
:102B4000E3D3FEF7A5FA0299401A404524D2B8F122
:102B5000000F21D02068416B40F21A300142CDD0E5
:102B60002068416B11F4807F25D0B9F1010F22D983
:102B7000616C03291FD001F059FEE0B12268304991
:102B80009163A16B0843A06384F834A0C4F830B00B
:102B90000BB00120BDE8F08F216829488863A16B44
:102BA00003980843A06384F834A0C4F830B00BB095
:102BB0000320BDE8F08F2068416B11F0080F03D1AE
:102BC000416B11F4007F0DD01D498163A06B40F073
:102BD0000800A06384F834A0C4F830B00BB0012022
:102BE000BDE8F08F416B11F0020F0DD014498163E5
:102BF000A06B40F00200A06384F834A0C4F830B0A9
:102C00000BB00120BDE8F08F416B11F0100F0DD01B
:102C10000B498163A06B40F01000A06384F834A0DE
:102C2000C4F830B00BB00120BDE8F08F40F23A514B
:102C3000816384F834A00BB00020BDE8F08F000061
:102C4000FF054000401EB0F1807F01D30120704796
:102C50004FF0E0214861044AF020107000208861A4
:102C6000072008610020704723ED00E0704770479F
:102C7000F8B5044622681068D168536900F00F0C5B
:102C8000BCF1000F0AD110F0200F07D011F0200F77
:102C900004D02046BDE8F84002F0C0BB0025BCF1DE
:102CA000000F75D003F0010C01F490765CEA060683
:102CB0006ED010F0010F06D011F4807F03D0626C4B
:102CC00042F00102626410F0040F06D013F0010F0D
:102CD00003D0626C42F00202626410F0020F06D070
:102CE00013F0010F03D0626C42F00402626410F032
:102CF000080F08D001F0200252EA0C0203D0626CE7
:102D000042F008026264626C002A35D010F0200F95
:102D100005D011F0200F02D0204602F07FFB206882
:102D20004069C0F38010616C11F0080F00D148B306
:102D3000204602F03FFB2068406910F0400F1CD095
:102D40002068143050E8001F21F0400140E80012D4
:102D5000002AF5D1E06B60B15E490165E06BFDF7DB
:102D6000E6FE002808D0E06B016D01B0BDE8F04040
:102D700008472046FFF77BFFF8BD2046FFF777FFA7
:102D8000F8BD05E0FFE72046FFF771FF6564F8BD79
:102D9000236B012B7ED110F0100F7BD011F0100FA0
:102DA00078D010685068009050694FF0200310F000
:102DB000400F4FF0020644D0E16B0868406880B2D3
:102DC0000028E4D0A28D8242E1D9E085C869B0F53F
:102DD000807F2DD020680C3050E8001F21F48071D6
:102DE00040E80012002AF5D12068143050E8001F96
:102DF00021F0010140E80012002AF5D120681430CA
:102E000050E8001F21F0400140E80012002AF5D1EF
:102E100084F84230256320680C3050E8001F21F010
:102E2000100140E80012002AF5D1E06BFDF72EFEFC
:102E30006663A08DE18D401A81B22046FFF716FF30
:102E4000F8BDA08DE18D401A81B2E08D0028F7D049
:102E50000029F5D020680C3050E8002F22F4907241
:102E600040E8002CBCF1000FF4D12068143050E889
:102E7000002F22F0010240E8002CBCF1000FF4D139
:102E800084F84230256320680C3050E8002F22F08F
:102E9000100200E008E040E80023002BF3D1666355
:102EA0002046FFF7E3FEF8BD10F0800F07D011F0C9
:102EB000800F04D02046BDE8F84002F093BB10F02C
:102EC000400FF0D011F0400FEDD02046BDE8F840A3
:102ED00002F097BAA553000870B50446002C04D040
:102EE00094F84100002510B106E0012070BD84F87F
:102EF0004050204600F024F8242084F84100206847
:102F0000C16821F40051C160204602F0EDFA20684A
:102F1000016921F4904101612068416921F02A0191
:102F200041612068C16841F40051C160656420209E
:102F300084F8410084F842006563002070BD000001
:102F40002DE9F04186B0044614216846FDF791F959
:102F50003049206888425AD12F480025016841F045
:102F600010010160006800F0100005902A48143834
:102F7000016841F0010101600068694600F001004C
:102F800005904FF4C06000900220CDE901050320B8
:102F90000390072004902148FDF75CFF214E204854
:102FA0004FF000673060C6E901754FF48068C6E9EC
:102FB000035880157561C6E9065035623046756262
:102FC000FDF7BEFE08B1FDF739FDE663B463154EAB
:102FD000134860363030E6E802074020A6E82101B9
:102FE000104846F814596030B561F5613562756274
:102FF000FDF7A6FE08B1FDF721FDA66300221146EC
:103000002520B463FEF7B4F82520FEF7A3F806B038
:10301000BDE8F08100100140443802400000024049
:10302000886402405407002070472DE9F8430446A5
:103030000E4615461F4694F84100202802D0022073
:10304000BDE8F8837EB175B100206064212084F86A
:103050004100FEF71DF88146A584E584A068B0F51F
:10306000805F03D004E00120BDE8F883206990B1BF
:1030700035460026E08C4FF02008C8B14B460022B0
:1030800080212046009702F0DCFA30B184F84180BC
:103090000320BDE8F8830025ECE7B5B12168287866
:1030A00048606D1CE08C401EE084E08C0028E5D177
:1030B0004B46002240212046009702F0C2FA58B148
:1030C00084F841800320BDE8F88330882168C0F38C
:1030D00008004860B61CE5E784F841800020BDE8A0
:1030E000F8837047FEE7F0B500230A243025372621
:1030F0001F4610E0B4EB107F02D905EB107C01E015
:1031000006EB107C01F813C001EB430C00015B1CC3
:103110008CF80170DBB29342ECD3F0BD2DE9F041A5
:103120000546D5F8D40205EB8000D0F8C042002C4B
:103130001ED094F81C020F4E40B9D4F8180228B1E2
:10314000607A18B93178284602F027FF0A4F2846DE
:10315000397802F022FF607A022809D139782846AE
:1031600002F01BFF31782846BDE8F04102F015BFA0
:10317000BDE8F081E1000020E000002070B50546C8
:10318000D5F8D40205EB8000D0F8C042002C55D011
:10319000D4F81402C4F83402D4F81802C4F838027F
:1031A00027480178284602F0F0FD1F280DD1254957
:1031B000D4F81002884208D194F81D12012904D8CD
:1031C00094F81E220AB1102A0DD994F81D1220235A
:1031D0000522284600F05FFF022060722846BDE805
:1031E0007040FFF79BBF04F21F22284600F0F6FB59
:1031F00000280DDA207A052804D02846BDE8704062
:10320000FFF78CBF2846BDE87040012100F0F6B8FA
:10321000217A022912D0012910D003290ED0E268A8
:1032200032B104F110012846BDE8704000F010B939
:103230002846BDE87040002100F0E0B870BD0000F5
:10324000E10000205553424310B50446D4F8D4029F
:1032500004EB8000D0F8C022002A19D0527A022A4A
:103260000AD011F0800F13D0012A11D02046BDE8FA
:103270001040012100F0C2B806480178204602F053
:103280008CFE054801782046BDE8104002F085BE5E
:1032900010BD0000E0000020E100002010B5044651
:1032A000D4F8D40204EB8000D0F8C022002A1BD04E
:1032B000117A022909D0032901D0042914D120460A
:1032C000BDE81040002100F099B892F81D1202F2FA
:1032D0001F22204600F082FB002805DA2046BDE8C8
:1032E0001040012100F08AB810BD10B50446D4F892
:1032F000D40204EB8000D0F8C022002A17D0117A43
:1033000081B1012913D192F81D1202F21F22204629
:1033100000F064FB00280ADA2046BDE810400121D5
:1033200000F06CB82046BDE81040FFF727BF10BD85
:10333000D0F8D41200EB8100D0F8C002002801D0F0
:10334000002101727047000070B50546D5F8D4021F
:1033500005EB8000D0F8C042002C24D00020207261
:10336000607284F8610284F8600284F86202D5F821
:10337000D40205EB8000D0F8C40201680020884721
:10338000094E2846317802F0F7FC084801782846B3
:1033900002F0F2FC04F5047231782846BDE8704072
:1033A0001F2302F06CBD70BDE1000020E000002092
:1033B00070B50546D5F8D40205EB8000D0F8C042C0
:1033C000002C16D00020207201206072094801787C
:1033D000284602F0D7FB084E2846317802F0D2FB8F
:1033E00004F5047231782846BDE870401F2302F0CE
:1033F00046BD70BDE0000020E100002070B505462C
:10340000D5F8D40205EB8000D0F8C042002C18D0CB
:103410000C48C4F8300284F83C12002020720A489C
:103420000D2304F50C720178284602F0D5FD0748FB
:1034300004F504721F2301782846BDE8704002F0AD
:103440001EBD70BD55534253E0000020E100002036
:1034500030B49446D0F8D42200EB8202D2F8C022D5
:10346000002A18D0D2F81832634500D36346D2F848
:103470003842A4EB0C0CC2F838C24FF0000C82F8B2
:103480003CC24FF0040C82F808C00A460349097890
:1034900030BC02F0A1BD30BC70470000E00000204D
:1034A0000D4808B5016841F4800101600068002200
:1034B00000F48000009011464420FDF759FE44209E
:1034C000FDF748FE002211464620FDF751FEBDE8FB
:1034D00008404620FDF73EBE3038024010B5034993
:1034E0000348FDF7ADFA0349087010BD96000020AF
:1034F00030950008950000202DE9F04186B0142198
:103500006846FCF7B6FE28484FF00008016841F015
:1035100080010160016801F080010591016841F0BE
:1035200010010160016801F010010591016841F08E
:1035300004010160016801F004010591016841F096
:1035400001010160016801F001010591016841F08C
:10355000080101600068154F00F008004FF4604654
:103560000590012231463846FDF78AFDF0104FF4F0
:103570008815CDE900050124694602943846FDF717
:1035800069FC0220CDE90240CDE900646946384675
:10359000FDF760FC08208DE8210169460448FDF72D
:1035A00059FC06B0BDE8F0813038024000100240FE
:1035B000000C0240074806494FF4006201600021F8
:1035C00041608160C0E9031241615421816170470B
:1035D000002C0140880600200C4810B50A49016003
:1035E0004FF4E1314160002181600C22C160C0E9EB
:1035F00004128161C161FFF76FFC002803D0BDE8B0
:103600001040FDF71BBA10BD001001400C07002050
:1036100010B500220F49104802F0A0FA08B1FDF7DA
:103620000DFA0E490C4802F093FE08B1FDF706FAB8
:103630000B49094802F0CAFD08B1FDF7FFF9064839
:1036400002F05CFF002803D0BDE81040FDF7F6B99A
:1036500010BD00001400002014080020A800002065
:1036600064000020FEE7FEE70148FDF72EBF0000E2
:10367000680F002070B504462068056C00EB41100F
:10368000D0F8081B0C4EB54206D911F4004F03D0F8
:103690004FF40041C0F8081B2046FEF7B6FAB542C9
:1036A00008D9A079012805D104F29C4201212068A3
:1036B00003F0D6FA002070BD0A30544F2DE9F041D6
:1036C00004460D462368196C03EB4510D0F8082B0F
:1036D000A77920264FF4004C012F08D02F4FB94274
:1036E0004BD112F4004F3ED0C0F808CB53E02C4B26
:1036F00012F0080F07D099424DD912F4004F4AD06A
:10370000C0F808CB47E012F0200F02D0C0F8086BD9
:1037100041E012F0280F3ED1994205D912F4004F32
:1037200002D0C0F808CB36E005EBC50104EB8101FF
:1037300001F51571D0F8100B0A6AC0F31200101AC7
:10374000486125B90A693AB1CA681044C860E9B24B
:103750002046FDF78AFD1EE004F29C42012120680C
:1037600003F07EFAF3E712F0200F01D0C0F8086BE7
:10377000E9B22046FDF779FD0DE045B9D4F86402C1
:1037800028B904F29C420021184603F069FAE9B214
:103790002046FDF76AFD0020BDE8F0810A31544F54
:1037A0000A30544F2DE9F84F07460E46D7F80080EF
:1037B00006EBC60007EB800000F114042169606984
:1037C000884202D90120BDE8F88F081AA168814219
:1037D00000D20846C01C4FEA900A08EB461915E0D3
:1037E000151AA268AA4200D21546E81C4FEA900AB0
:1037F000B8790090ABB2F2B24046E16803F0D2FD76
:10380000E0682844E060606928446061D9F81809DC
:1038100080B2504505D322696069904201D2002AE6
:10382000DED16169206988420AD806F00F000121C3
:1038300001FA00F0D8F8341821EA0000C8F834087A
:103840000020BDE8F88F7047D0F8D41200EB81005B
:10385000D0F8C002002808D01279002142B101221C
:1038600080F86222C160002070474FF0FF3070473F
:1038700080F86212F6E700B5D0F8D4C200EB8C0CE9
:10388000DCF8C0C2BCF1000F0BD01A44DCF868327F
:103890009A4209D92123052200F0FDFB4FF0FF30A9
:1038A00000BD4FF0FF3000BD002000BD10B58446C4
:1038B000DCF8D4020CEB8003D3F8C002002814D04B
:1038C000D0F81842A4B1547814F0010F24D09178A4
:1038D000C1B180291BD090F81D1224230522604617
:1038E00000F0D9FB4FF0FF3010BD4FF0FF3010BD9E
:1038F00090F81D1220230522604600F0CCFB4FF00B
:10390000FF3010BD06220D4900F066FC14E00822CD
:103910000B4900F061FC0FE0D3F8C43201EBC101A8
:10392000DB6903EB81010B795B1D12799A4200D8A8
:1039300013461A4600F050FC002010BD0E01002076
:103940001401002070B51446D0F8D42200EB820098
:10395000D0F8C0620825002E15D0D0F8C402C26885
:103960000846904720B10948C17841F08001C170F4
:10397000247A082C00D825462A460449304600F00F
:103980002BFC002070BD4FF0FF3070BD20010020E7
:1039900070B51446D0F8D42200EB8200D0F8C06293
:1039A0000425002E15D0D0F8C402C26808469047FE
:1039B00020B10948817841F0800181702479042C7C
:1039C00000D825462A460449304600F005FC002070
:1039D00070BD4FF0FF3070BD1C01002010B5D0F855
:1039E000D43200EB8303D3F8C042002C0CD0137800
:1039F000252B4BD012DC1A2B3CD008DC33B3032B25
:103A000028D0122B1AD129E04FF0FF3010BD1B2B0C
:103A100028D01E2B2AD0232B10D133E05A2B2DD0A7
:103A200006DC282B3AD02A2B40D02F2B06D145E09C
:103A30009E2B2FD0A82B35D0AA2B3BD0202305229C
:103A400000F029FB02206072C01E10BDBDE81040CE
:103A500000F080BBBDE8104000F0D4BABDE81040D3
:103A6000FFF724BFBDE8104000F03BBBBDE81040AD
:103A7000FFF7EABEBDE81040FFF78ABFBDE810407F
:103A8000FFF760BFBDE8104000F075BABDE8104018
:103A900000F0D7B9BDE8104000F00EBABDE8104004
:103AA00000F0CCB8BDE8104000F046B9BDE81040C9
:103AB00000F0CABBBDE8104000F066BCBDE8104095
:103AC00000F09CBB2DE9F04106460F46D6F8D40223
:103AD00006EB8000D0F8C042002C23D0B4F864225A
:103AE000D4F8701201FB02F5B5F5007F01D34FF455
:103AF0000075B5FBF2F1D0F8C4028BB2D4F86C2299
:103B0000D0F810C004F110013846E04700280DDA63
:103B1000112304223946304600F0BDFA4FF0FF3041
:103B2000BDE8F0814FF0FF30BDE8F08111482B4631
:103B300004F110020178304602F04EFAB4F8640243
:103B4000D4F86C22B5FBF0F11144C4F86C12B5FB4B
:103B5000F0F0D4F87012081AC4F87002D4F83812D1
:103B6000491BC4F8381208B9032020720020BDE8B0
:103B7000F0810000E00000202DE9F04106460F46EC
:103B8000D6F8D40206EB8000D0F8C042002C23D037
:103B9000B4F86422D4F8701201FB02F5B5F5007F89
:103BA00001D34FF40075B5FBF2F1D0F8C4028BB22B
:103BB000D4F86C22D0F814C004F110013846E04764
:103BC00000280DDA032304223946304600F063FA58
:103BD0004FF0FF30BDE8F0814FF0FF30BDE8F081DD
:103BE000B4F86402D4F86C22B5FBF0F11144C4F8C7
:103BF0006C12B5FBF0F1D4F87022511AC4F87012AF
:103C0000D4F83822521BC4F8382281B101FB00F3EA
:103C1000B3F5007F01D34FF40073074804F110029D
:103C20000178304602F02BF90020BDE8F081002138
:103C30003046FFF7E3FBF7E7E10000202DE9F04114
:103C400006460F461546D6F8D40206EB8000D0F89B
:103C5000C042002C02D0217A21B164E04FF0FF3045
:103C6000BDE8F08194F81C1211F0800F13D094F885
:103C7000621202291AD0D0F8C402826838469047EE
:103C8000F0B13A2302223946304600F004FA4FF0F0
:103C9000FF30BDE8F08194F81D1220230522304644
:103CA00000F0F9F94FF0FF30BDE8F0813A2302222D
:103CB0003946304600F0EFF94FF0FF30BDE8F081B3
:103CC0006879A9782A7940EA0160E978090441EA2B
:103CD000022140EA0102C4F86C22287AE97940EA1C
:103CE0000123C4F8703239463046FFF7C4FD00287E
:103CF00003DA4FF0FF30BDE8F081B4F86412D4F875
:103D000070024843D4F8181288420AD094F81D1261
:103D100020230522304600F0BEF94FF0FF30BDE809
:103D2000F081022020724FF40070E0603946304686
:103D3000BDE8F041FFF7C6BE2DE9F04106460F464B
:103D40001546D6F8D40206EB8000D0F8C042002C0D
:103D500002D0217A21B16BE04FF0FF30BDE8F08155
:103D600094F81C1211F0800F13D094F862120229FB
:103D70001AD0D0F8C402826838469047F0B13A238E
:103D800002223946304600F086F94FF0FF30BDE898
:103D9000F08194F81D1220230522304600F07BF9B3
:103DA0004FF0FF30BDE8F0813A2302223946304619
:103DB00000F071F94FF0FF30BDE8F0816879A97823
:103DC0002A7940EA0160E978090441EA022140EADF
:103DD0000102C4F86C22687AA9792B7A40EA016062
:103DE000E979090441EA032140EA0103C4F8703289
:103DF00039463046FFF73FFD002803DA4FF0FF3029
:103E0000BDE8F081B4F86412D4F870024843D4F8E5
:103E1000181288420AD094F81D1220230522304639
:103E200000F039F94FF0FF30BDE8F0810220207238
:103E30004FF40070E06039463046BDE8F041FFF7CE
:103E400041BE70B505460E46D5F8D40205EB80009C
:103E5000D0F8C042002C09D0D0F8C40204F5197281
:103E6000111D436830469847E8B902E04FF0FF3033
:103E700070BD94F86202022815D0D4F86802401E82
:103E8000010E2174010C6174010AA174E074002018
:103E900020756075B4F86402010AA175E075082008
:103EA000E060002070BD3A2302223146284600F02F
:103EB000F2F84FF0FF3070BD2DE9F04106460F4695
:103EC0001546D6F8D40206EB8000D0F8C042002C8C
:103ED0000AD0D0F8C40204F51972111D436838469F
:103EE000984700283DD103E04FF0FF30BDE8F08156
:103EF00094F86202022834D0687BA97A2A7B40EACF
:103F00000160E97A090441EA022140EA0102E26023
:103F100000200021002A05D922181174401CE268F3
:103F20008242F9D8D4F86802401E020E2275020CB3
:103F30006275020AA275E07521766176B4F86402B2
:103F4000010AA176E076687BA97A2A7B40EA0160C3
:103F5000E97A090441EA02210843E0600020BDE853
:103F6000F0813A2302223946304600F094F84FF0AF
:103F7000FF30BDE8F08170B582B005460E46D5F839
:103F8000D40205EB8000D0F8C042002C08D0D0F855
:103F9000C40201AA694643683046984740BB03E023
:103FA00002B04FF0FF3070BD94F8620202281FD0BB
:103FB0000020002122181174401C80B20C28F9D373
:103FC0000820E0740098401E020E2275020C6275F3
:103FD000020AA275E075022020766176BDF8040021
:103FE000010AA176E0760C20E06002B0002070BDEE
:103FF0003A2302223146284600F04DF802B04FF035
:10400000FF3070BD10B5D0F8D41200EB8101D1F8AB
:10401000C012002929D0D1F818324BB30020002358
:1040200001EB000C8CF81030401CC0B21228F7D302
:10403000702008740C20C87591F8600291F861C274
:10404000604520D001EBC00C9CF840428C749CF879
:1040500044420C779CF845C281F81DC0401CC0B298
:1040600081F8600204280CD00DE04FF0FF3010BD45
:1040700091F81D122023052200F00DF84FF0FF30BB
:1040800010BD81F860321220C8601079122800D863
:10409000C860002010BDD0F8D41200EB8100D0F829
:1040A000C00200281CD090F8611200EBC10181F819
:1040B000402290F8611200EBC10181F8443290F87F
:1040C0006112002200EBC10181F8452290F86112D3
:1040D000491CC9B280F86112042901D180F861221B
:1040E000704700B5D0F8D43200EB8303D3F8C03268
:1040F000002B05D093F862C2BCF1010F03D009E098
:104100004FF0FF3000BD92F804C00CF0030CBCF17E
:10411000020F0CD01079002200F0030101290DD00C
:1041200002290ED0032131EA00000ED00FE0242333
:104130000522FFF7B0FF4FF0FF3000BD83F8622289
:1041400005E0022083F8620201E083F86222DA606F
:10415000002000BD2DE9F04105460E46D5F8D402F9
:1041600005EB8000D0F8C042002C0DD0D4F8181216
:1041700071B194F81D12202305222846FFF78BFF0A
:104180004FF0FF30BDE8F0814FF0FF30BDE8F08127
:1041900094F86212052702290FD0D0F8C402826871
:1041A00030469047A0B13A23022231462846FFF715
:1041B00072FF2772B81FBDE8F0813A230222314610
:1041C0002846FFF768FF27724FF0FF30BDE8F08107
:1041D0000020E060BDE8F08100280CD0C26042B150
:1041E000521E92B200EB020C8B5C8CF81030002A4D
:1041F000F6D1002070474FF0FF30704710B5D0F86F
:10420000D43200EB8303D3F8C042002C0AD052789A
:1042100012F0020F09D024230522FFF73CFF4FF0D4
:10422000FF3010BD4FF0FF3010BDD4F87032D4F81D
:104230006C22FFF720FB002802DA4FF0FF3010BDA0
:104240000020E06010BD00002DE9F04106460F4659
:104250001546D6F8D40206EB8000D0F8C042002CF8
:1042600007D0217A49B139463046BDE8F041FFF721
:1042700083BC4FF0FF30BDE8F081D4F8181279B15B
:1042800094F81C1211F0800F15D094F81D12202301
:1042900005223046FFF7FFFE4FF0FF30BDE8F0810A
:1042A00094F81D12202305223046FFF7F4FE4FF04C
:1042B000FF30BDE8F081D0F8C402816838468847F5
:1042C00048B13A23022239463046FFF7E4FE4FF068
:1042D000FF30BDE8F081D6F8D40206EB8000D0F8BC
:1042E000C402C1683846884748B1272302223946AC
:1042F0003046FFF7D0FE4FF0FF30BDE8F08168791F
:10430000A9782A7940EA0160E978090441EA0221A2
:1043100040EA0102C4F86C22287AE97940EA0123D4
:10432000C4F8703239463046FFF7A5FA002803DAA0
:104330004FF0FF30BDE8F081B4F86412D4F8700299
:1043400000FB01F3D4F8180298420AD094F81D1229
:10435000202305223046FFF79EFE4FF0FF30BDE8D8
:10436000F081B3F5007F01D34FF400730120207278
:10437000044804F110020178304601F080FD00206D
:10438000BDE8F081E10000202DE9F04106460F462E
:104390001546D6F8D40206EB8000D0F8C042002CB7
:1043A00007D0217A49B139463046BDE8F041FFF7E0
:1043B000E3BB4FF0FF30BDE8F081D4F8181279B1BB
:1043C00094F81C1211F0800F15D094F81D122023C0
:1043D00005223046FFF75FFE4FF0FF30BDE8F08169
:1043E00094F81D12202305223046FFF754FE4FF0AB
:1043F000FF30BDE8F081D0F8C402826838469047AB
:104400004FF0050858B13A23022239463046FFF7EB
:1044100042FE84F808804FF0FF30BDE8F081D6F806
:10442000D40206EB8000D0F8C402C1683846884741
:1044300058B12723022239463046FFF72CFE84F874
:1044400008804FF0FF30BDE8F0816879A9782A79BB
:1044500040EA0160E978090441EA022140EA0102E8
:10446000C4F86C22687AA9792B7A40EA0160E9796C
:10447000090441EA032140EA0103C4F870323946D5
:104480003046FFF7F8F9002803DA4FF0FF30BDE8B7
:10449000F081B4F86412D4F8700200FB01F3D4F890
:1044A000180298420AD094F81D12202305223046A3
:1044B000FFF7F1FD4FF0FF30BDE8F081B3F5007F6D
:1044C00001D34FF4007301202072054804F110025B
:1044D0000178304601F0D3FC0020BDE8F0810000F7
:1044E000E10000200A6842624A688262CB688A68FA
:1044F0001A430B69496919431143C26A22F0F70252
:104500001143C162002070470069C0B27047006863
:1045100000F0030070470844406970470FB4029AE6
:104520000199049B1143039A1A431143059A1143BD
:10453000069A1143426822F0FF0222F4FC42114322
:104540004160002004B070470321016000207047E3
:10455000D0F8800070470A6882608B684A681A4306
:10456000CB68096919431143C2686FF30B02114309
:10457000C160002070470968C0F8801000207047B3
:1045800010B585B004460091372101914021029178
:10459000002103914FF48061049169462046FFF7A2
:1045A000DAFF41F288323721204600F0A3F905B046
:1045B00010BD10B585B0044641F4801141F00041B2
:1045C00000912921019140210291002103914FF492
:1045D0008061049169462046FFF7BDFF204600F048
:1045E0005BFA05B010BD10B585B0044600911021EE
:1045F000019140210291002103914FF480610491C7
:1046000069462046FFF7A7FF41F288321021204675
:1046100000F070F905B010BD10B585B004460091EA
:104620000621019140210291002103914FF4806104
:10463000049169462046FFF78EFF41F28832062139
:10464000204600F057F905B010BD10B586B00446FD
:10465000002101910291039104914FF48061059131
:1046600001A92046FFF777FF204600F02BF906B09E
:1046700010BD10B585B004464FF4D57100910821E6
:10468000019140210291002103914FF48061049136
:1046900069462046FFF75FFF204600F06DFA05B03F
:1046A00010BD10B585B00446009112210191402142
:1046B0000291002103914FF48061049169462046E4
:1046C000FFF749FF41F288321221204600F012F92B
:1046D00005B010BD10B585B00446009111210191BF
:1046E00040210291002103914FF4806104916946B9
:1046F0002046FFF730FF41F288321121204600F0BA
:10470000F9F805B010BD10B585B004460092072138
:10471000019140210291002103914FF480600490A7
:1047200069462046FFF717FF41F2883207212046ED
:1047300000F0E0F805B010BD10B585B004460021CA
:10474000009102220192C022029203914FF48061F3
:10475000049169462046FFF7FEFE204600F070F9FE
:1047600005B010BD10B585B0044600910921019136
:10477000C0210291002103914FF4806104916946A8
:104780002046FFF7E8FE204600F05AF905B010BDBC
:1047900010B585B0044600210091332201924022D9
:1047A000029203911101049169462046FFF7D3FE5E
:1047B00041F288323321204600F09CF805B010BD4C
:1047C00010B585B0044600910D2101914021029160
:1047D000002103914FF48061049169462046FFF760
:1047E000BAFE41F288320D21204600F083F805B070
:1047F00010BD30B585B005460C46002300934FF040
:10480000030CCDF804C04FF0400CCDF808C0039362
:104810004FF48063049369462846FFF79CFE2246C6
:104820000321284600F05CF905B030BD10B585B015
:104830000446002100910C22019240220292039131
:104840001101049169462046FFF785FE034A0C21B9
:10485000204600F04FF805B010BD000000E1F5055E
:1048600010B585B0044600911921019140210291B3
:10487000002103914FF48061049169462046FFF7BF
:104880006AFE41F288321921204600F033F805B063
:1048900010BD10B585B0044600911821019140214A
:1048A0000291002103914FF48061049169462046F2
:1048B000FFF751FE41F288321821204600F01AF825
:1048C00005B010BD0A494FF4FA520968B1FBF2F184
:1048D00041F288325143491E02D24FF000407047E6
:1048E000426B12F0800FF6D0C52181630020704723
:1048F0008400002000B503464F484FF4FA5C00687E
:10490000B0FBFCF04243521E02D24FF0004000BD0B
:10491000586B10F0450FF6D010F4006FF3D1586BC0
:1049200010F0040F02D00420986300BD586B10F003
:10493000010F02D00120986300BDC520986318467E
:10494000FFF7E2FD884201D0012000BD002118469A
:10495000FFF7E1FD3949084201D1002000BD10F008
:10496000004F02D04FF0007000BD10F0804F01D01A
:10497000402000BD10F0005F01D0802000BD10F08D
:10498000805F02D04FF4807000BD10F0006F02D045
:104990004FF4007000BD10F0806F02D04FF48060C3
:1049A00000BD10F0807F02D04FF4006000BD10F415
:1049B000000F02D04FF4805000BD10F4800F02D0E1
:1049C0004FF4005000BD10F4001F02D04FF480409F
:1049D00000BD10F4801F02D04FF4004000BD10F461
:1049E000802F02D04FF4003000BD10F4003F02D001
:1049F0004FF4802000BD10F4803F02D04FF400201F
:104A000000BD10F4004F02D04FF4801000BD10F430
:104A1000804F02D04FF4001000BD10F4005F02D0B0
:104A20004FF4800000BD10F0080F02D04FF40000DA
:104A300000BD4FF4803000BD8400002008E0FFFD81
:104A400014494FF4FA520968B1FBF2F141F288328D
:104A50004A43521E02D24FF000407047416B11F0A2
:104A6000450FF6D011F4006FF3D1416B11F0040F34
:104A700003D00421816304207047416B11F0010FC2
:104A800003D00121816301207047C521816300208B
:104A9000704700008400002010494FF4FA52096862
:104AA000B1FBF2F141F288324A43521E02D24FF07A
:104AB00000407047416B11F0450FF6D011F4006FC4
:104AC000F3D1416B11F0040F03D004218163042062
:104AD0007047C521816300207047000084000020DA
:104AE00010B5034623484FF4FA5C0068B0FBFCF0B5
:104AF00041F2883C00FB0CFCBCF1010C02D24FF0EF
:104B0000004010BD586B10F0450FF5D010F4006F49
:104B1000F2D1586B10F0040F02D00420986310BD3E
:104B2000586B10F0010F02D00120986310BD184699
:104B3000FFF7EAFC884201D0012010BDC520986330
:104B400000211846FFF7E7FC10F4604F05D010F481
:104B5000804F06D04FF4005010BD000C1080002094
:104B600010BD10F4004F02D04FF4805010BD4FF430
:104B7000803010BD8400002016494FF4FA520968B5
:104B8000B1FBF2F141F288324A43521E02D24FF099
:104B900000407047416B11F0450FF6D011F4006FE3
:104BA000F3D1416B11F0040F03D004218163042081
:104BB0007047416B11F0010F03D001218163012087
:104BC0007047416B11F0400F01D0402181630020FC
:104BD000704700008400002070B52DED028B00228C
:104BE00053A1544803F05AFC08B1C0217DE0524A59
:104BF0004FA0111D03F0B7FB08B1C62175E04E4C64
:104C0000241F616888694D89801E6843FBF7BEFBDD
:104C10009FED4A8B53EC182BFBF746FBFBF7C3FBCE
:104C2000E060A0686843FBF7B1FB53EC182BFBF77F
:104C30003BFBFBF7B8FB00EE100AB8EE400A9FED15
:104C4000418A206120EE080A10EE100AFBF7C4FB2F
:104C500041EC100B3CA053EC102B02F0BFFB94ED89
:104C6000030AB8EE400A20EE080A10EE100AFBF71D
:104C7000B3FB41EC100B3AA053EC102B02F0AEFB4F
:104C8000206938B113223CA13E4803F02FFC18B133
:104C9000DB212AE0D22128E03A493BA003F04DFD78
:104CA000384942A003F049FD364803F041FB08B102
:104CB000E5211AE0012230A1324803F017FC40B18F
:104CC000EB2112E03C493DA002F088FB3C4800206B
:104CD00000BF2C4A6421384803F0B6FB0028F1D10C
:104CE000284803F025FB18B1F82136A000F090F811
:104CF00039A002F073FB03213AA0FBF743FE36A074
:104D000002F06CFB022137A0FBF73CFE32A002F060
:104D100065FB032133A0FBF735FE2FA002F05EFBFD
:104D2000BDEC028B0121BDE870402FA0FBF72ABE2D
:104D300000000000C401002004000020000000006A
:104D40000000E03F0000803A667265652073706184
:104D500063653A20252E3266204D420D0A00000080
:104D6000746F74616C2073706163653A20252E3214
:104D700066204D420D0A000066697273742E7478C5
:104D800074000000F803002053544D333220534484
:104D9000204361726420492F4F204578616D706C0B
:104DA0006520766961205344494F0A005361766556
:104DB000204F4B21212100002406002025730000F4
:104DC000280100202E2E2F436F72652F5372632F00
:104DD0006D61696E2E6300000D0A5B7363616E5D29
:104DE0003A0D0A00303A0000303A2F646972000030
:104DF00010B5064C01202070FBF710FD18B9207883
:104E000020F001002070207810BD000094000020E8
:104E10000A46014601A002F0E1FAFEE725733A25B1
:104E2000640D0A002DE9F04788B004460E46FCF7F1
:104E30002FF907460025AA46CDF800A0CDF804A01A
:104E400008212068FFF7CFFB002848D1B4F85000B4
:104E500001042068FFF794FB002840D1401E029017
:104E60004FF00808CDF80C80302004904FF0020974
:104E7000CDF81490CDF818A00120079002A9206861
:104E8000FFF730FB2068FFF783FC002827D120685C
:104E9000406B10F02A0F1AD1EA462068416B11F4DA
:104EA000001F05D0FFF754FB4AF825006D1C03E0F6
:104EB000406B10F4005F0AD0FCF7EAF8C01BB0F1B9
:104EC000FF3F0AD02068406B10F02A0FE5D0206821
:104ED000416B11F0080F09D104E04FF0004008B019
:104EE000BDE8F087416B11F4007F05D0C0F8388031
:104EF00008B00820BDE8F087416B11F0020F05D023
:104F0000C0F8389008B00220BDE8F087416B11F07E
:104F1000200F05D02021816308B02020BDE8F08754
:104F200040F23A51816301980199000601F47F41F2
:104F300040EA0120019901F47F0140EA1120019922
:104F400040EA11603060301D0099009A090602F4B1
:104F50007F4241EA0221009A02F47F0241EA1221D3
:104F6000009A41EA1261016008B00020BDE8F087B4
:104F700010B590B00446012004902068FFF7C7FAEE
:104F8000002854D0606C032819D02068FFF7D4FBA8
:104F900000284AD100212068FFF7BDFA606704218C
:104FA0002068FFF7B8FAA06708212068FFF7B3FA76
:104FB000E0670C212068FFF7AEFAC4F88000606C4F
:104FC000032805D004A92068FFF713FC00282CD182
:104FD000606C03281CD0BDF8100020650104206817
:104FE000FFF7C0FB002820D100212068FFF793FACB
:104FF000606604212068FFF78EFAA0660821206809
:10500000FFF789FAE0660C212068FFF784FA206731
:1050100004212068FFF77FFA000DE06405A920460F
:10502000FDF7F8F938B14FF0805010B010BD4FF0D7
:10503000806010B010BDB4F8500000230204206856
:10504000FFF761FB0028F4D1A2696169206902922F
:10505000019100900FCCFFF761FA10B0002010BD55
:105060002DE9F84F04460027009700260025206808
:10507000FFF7EBFA002818D12068FFF7FAFA4FF093
:10508000010930B1A7642068FFF7DFFA00280CD1CE
:1050900001E0C4F84890A06C012808D100212068E4
:1050A000FFF76EFA18B14FF08050BDE8F88F4FF659
:1050B000FF78DFF860A017E000212068FFF760FAB2
:1050C0000028F2D151462068FFF773FA18B14FF06B
:1050D0008050BDE8F88F00212068FFF71CFA0646D3
:1050E000F50F0098401C00900098404501D2002D1B
:1050F000E2D00098404503D34FF08070BDE8F88FB0
:1051000016F0804F02D0C4F8449000E0676400209D
:10511000BDE8F88F000010C170B504460D46002DA3
:105120000ED0B4F8500001042068FFF749FB0028B6
:1051300005D100212068FFF7EEF92860002070BD3E
:105140004FF0006070BD10B582B0044600200090A2
:10515000019000212068FFF7DEF910F0007F03D0F6
:105160004FF4006002B010BD69462046FFF75AFEBA
:105170000028F7D1019810F4803F0FD0B4F8500008
:1051800001042068FFF7FCF90028EBD1002120681A
:10519000FFF742FA0028E5D102B010BD02B04FF08F
:1051A000806010BD10B582B00446002000900190D0
:1051B00000212068FFF7AFF910F0007F03D04FF413
:1051C000006002B010BD69462046FFF72BFE0028A4
:1051D000F7D1019810F4802F0FD0B4F850000104DB
:1051E0002068FFF7CDF90028EBD102212068FFF7F6
:1051F00013FA0028E5D102B010BD02B04FF0806074
:1052000010BD000070B50546054C01202070FBF76D
:1052100011FB18B92846FFF7EBFD2070207870BD10
:105220009400002010B588B014461748007810F09C
:10523000010F02D008B0032010BD41B1012909D0EF
:1052400002290FD0032915D0042008B010BD00207A
:1052500008B010BD6846FBF7DBFA06982060002016
:1052600008B010BD6846FBF7D3FA079820800020ED
:1052700008B010BD6846FBF7CBFA0798400A2060DB
:10528000002008B010BD000094000020084610B5B2
:1052900011461A460124A31EFBF7ECFA20B9FBF7CE
:1052A000BDFA0028FBD10024204610BDFFF7A0BDA9
:1052B000084610B511461A460124A31EFBF7EAFA68
:1052C00020B9FBF7ABFA0028FBD10024204610BD23
:1052D0004FF480300860C01110800020704700201B
:1052E0007047002070470020704700207047002062
:1052F0007047002070477047FBF7D0BE30B593B0C1
:1053000030216846FAF7B5FF14210CA8FAF7B1FF6F
:105310001E480025016841F080510160006800F0DE
:10532000805011901A48016841F480410160006882
:10533000022400F4804011900120009000040190AC
:105340008001CDE90640192008904FF4A870CDE9FE
:10535000090407200B906846FCF7B4FD08B172B64B
:10536000FEE70CA90F2081E831004FF4A0500F9008
:105370004FF48050109005210CA8FCF787FC002802
:1053800001D072B6FEE713B030BD000040380240D5
:10539000007000400248016841F4700101607047EC
:1053A00088ED00E010B5806B0021C185C184FDF758
:1053B0005EFC10BD01680C3151E8002F22F49072A0
:1053C00041E80023002BF5D10168143151E8002F8A
:1053D00022F0010241E80023002BF5D1016B0129E5
:1053E00009D101680C3151E8002F22F0100241E888
:1053F0000023002BF5D1202180F842100021016309
:10540000704710B50168CA6822F04002CA602021C6
:1054100080F84110FDF765FE002010BD08B590F83A
:105420004210222901D0022008BD8268B2F5805FB7
:1054300001D1016929B1816AB2F5805F1DD052B1F5
:105440000BE0816A02685268C2F308020A80816A2E
:10545000891C816209E002697AB10268526802F02F
:105460007F020A70816A491C8162C18D491E09044C
:10547000090CC18505D0002008BD026852680A7079
:10548000F0E70168CA6822F02002CA600168CA68B1
:1054900022F48072CA6001684A6922F001024A61FE
:1054A000202180F8421000214163026B012A03D0C1
:1054B000FDF7BAFD002008BD016301680C3151E819
:1054C000002F22F0100241E80023002BF5D10168E3
:1054D0000A6812F0100F02D00A6849680091818DA5
:1054E000FDF7C4FBE6E700002DE9F0410446206823
:1054F0000169E26821F44051114301612169A0680A
:10550000E26908436169114301432068C26822F4DB
:10551000037222F414421143C16020684169A269F8
:1055200021F44071114341612068A0F18041B1F53F
:1055300088312ED0A0F18041B1F58A3129D0FCF715
:1055400069FC8446E16900201927254D3226B1F512
:10555000004F22D06068830F8200ACFB0701FAF78E
:1055600031FE0146A5FB002040097A42424301EB8F
:10557000820106EB0111A5FB0121490901F0F002AE
:1055800002EB001001F00F01084421688860BDE8BB
:10559000F081FCF74FFC8446D4E761684A1840EB81
:1055A0000003ACFB0701FAF70DFE0346A5FB001054
:1055B000410918460A016FF01803594300EB8100B6
:1055C00006EBC000A5FB0010400900F0F80102EB5B
:1055D000410100F00700084421688860BDE8F081BF
:1055E0001F85EB5190F84110212901D0022070470E
:1055F0008168B1F5805F01D1016961B1016A4A1C1E
:105600000262026809785160C18C491E0904090CC4
:10561000C1840AD013E0016A02680988C1F3080155
:105620005160016A891C0162EEE70168CA6822F0D4
:105630008002CA600068C16841F04001C16000207A
:1056400070472DE9F8430446089E0D4617469846D4
:105650002068006835EA000028D00020B84232D126
:10566000B6F1FF3F27D0FBF713FDA0EB0800B042D7
:105670001ED8EEB12068C16811F0040F1BD0802D38
:1056800019D0402D17D0016811F0080F13D0002554
:1056900021680968406800902046FFF78BFE0820CB
:1056A000606484F840500120BDE8F8830120D5E70C
:1056B0000320BDE8F8832068006835EA000005D0C3
:1056C0000020B842CCD00020BDE8F8830120F8E7E4
:1056D0000148FDF7CDBA00000C07002010B50024EA
:1056E000D0F8B8225268904700B10324204610BD7C
:1056F00090F89C22012A05D0022A03D0032A01D067
:1057000000F01DB84988012904D10021C0F8A41275
:1057100000F039B87047002070470020704710B57E
:1057200013460A46002100F0AAFB002010BD10B568
:1057300013460A46002100F04FFC002010BD10B5B2
:1057400004468021204600F028FC2046BDE8104099
:10575000002100F022BC10B50521C0F894120023EE
:105760001A46194600F08BFB002010BD10B502232D
:10577000C0F894328261C26113460A46002100F0EB
:105780002BFC002010BD10B50421C0F8941200239A
:105790001A46194600F020FC002010BD10B50A463C
:1057A000024903A000F0ACF9004810BDF00A002047
:1057B0004D534320436F6E666967000012200880D6
:1057C000004870473400002010B50A46024903A083
:1057D00000F096F9004810BDF00A00204D53432018
:1057E000496E74657266616365000000042008807C
:1057F000004870473000002010B50A46024903A057
:1058000000F07EF9004810BDF00A002053544D69A5
:1058100063726F656C656374726F6E6963730000A9
:1058200010B50A46024903A000F06AF9004810BD0D
:10583000F00A002053544D3332204D6173732053CE
:10584000746F72616765000010B51A2008800A48FD
:105850000168001D0468001D0068081809D00822AE
:105860000649FDF740FC0549042210312046FDF7AA
:105870003AFC0248801E10BD107AFF1F4A0000202B
:10588000CA88012A01D0FFF75ABF90F89C22012A4A
:1058900005D0022A03D0032A08D0FFF750BF002109
:1058A0008160012200F10801FFF760BF0122011DA4
:1058B000FFF75CBF2DE9F84304460F460020009037
:1058C000002600257888010A082970D2DFE801F057
:1058D000AB040C22ABAB8B9AD4F8B412207C0A68D0
:1058E000694690470646A3E0207C4FF0020840B18D
:1058F000D4F8B802C16A68468847064686F801802F
:1059000096E0D4F8B802816A68468847064686F869
:1059100001808DE0C0B206285FD2DFE800F00312FC
:1059200021303F4FD4F8B402426822B1207C69464E
:10593000904706467CE039462046FFF700FF0125E8
:1059400076E0D4F8B402826822B1207C69469047A0
:1059500006466DE039462046FFF7F1FE012567E077
:10596000D4F8B402C26822B1207C6946904706464A
:105970005EE039462046FFF7E2FE012558E0D4F804
:10598000B402026922B1207C6946904706464FE086
:1059900039462046FFF7D3FE012549E0D4F8B4028A
:1059A00042692AB1207C69469047064640E03AE0C9
:1059B00039462046FFF7C3FE012539E0D4F8B4028A
:1059C000826922B1207C69469047064630E039461C
:1059D0002046FFF7B4FE01252AE039462046FFF7AE
:1059E000AEFE012524E0207C28B139462046FFF791
:1059F000A6FE01251CE0D4F8B802416B6846884732
:105A0000064615E0207C28B139462046FFF797FE70
:105A100001250DE0D4F8B802016B684688470646B8
:105A20000721717004E039462046FFF788FE012502
:105A3000002D0CD1FA8892B1BDF8000048B1824225
:105A400000D90246009231462046FFF78FFEBDE89E
:105A5000F88339462046FFF772FEBDE8F8832046FA
:105A6000FFF791FEBDE8F88378B50E4605460024A1
:105A70006A88297828468A4212D900918A420FD929
:105A8000694600F01BF84178052904D10446A17845
:105A9000B14205D000246988BDF800209142EFD8BA
:105AA000204678BD00210278002A05D0491CC9B2E1
:105AB000401C0278002AF9D1084670470A8803780A
:105AC0001A440A8001780844704790F89C22012A01
:105AD00005D0022A03D0032A01D0FFF730BECA88BE
