:040000006F10401C21
:100004000000000000000000900000208C0400208C
:10001400A9BDF9F3900000200000000000000000DA
:10002400900000209000002000000000000000006C
:10003400900000200000000090000020000000005C
:1000440090000020900000209000002090000020EC
:1000540090000020900000208205002090000020E5
:100064009000002090000020640D002090000020EB
:1000740090000020900000209000002090000020BC
:1000840090000020900000209000002090000020AC
:1000940001A073270080218B9387C1B409CB7327F8
:1000A400008023A6E1B498435D9B73100780010090
:1000B400010037170040930670052300D704930608
:1000C40080FA2300D704010001008346B70493F6A5
:1000D400F60DA305D7042300070473260080944378
:1000E400A18AD18E7390068023A601B40100010079
:1000F40093760502638406180347A700118B25E74E
:1001040073270080218B09CB7327008023A6E1B4D9
:1001140098435D9B7310078001000100371700406E
:10012400930670052300D704930680FA2300D704AE
:10013400010001008346A70093E646002305D7008B
:1001440023000704F32600809843218B558F7310F6
:10015400078023A601B4010001001307004B01002E
:1001640001007D176DFF73270080218B09CB732756
:10017400008023A6E1B498435D9B731007800100BF
:10018400010037170040930670052300D704930637
:1001940080FA2300D704010001007D892314A700FD
:1001A400010001000100010023000704F326008080
:1001B4009843218B558F7310078023A601B4010047
:1001C400010073270080218B09CB7327008023A6AD
:1001D400E1B498435D9B7310078001000100371759
:1001E4000040930670052300D704930680FA230089
:1001F400D7040100010001000100B72600401306E6
:100204001005A383C68023000704F32600809843C7
:10021400218B558F7310078023A601B401000100C0
:1002240073270080218B09CB7327008023A6E1B4B8
:1002340098435D9B7310078001000100371700404D
:10024400930670052300D704930680FA2300D7048D
:10025400010001008346B70493E60608A305D7040A
:1002640023000704732700809C43A18BD98F7390CC
:10027400078023A601B4010001008280937605045F
:10028400638B06140347A700418B25E7732700807F
:10029400218B09CB7327008023A6E1B498435D9B8F
:1002A40073100780010001003717004093067005A2
:1002B4002300D704930680FA2300D7040100010029
:1002C4008346A70093E606012305D700230007040D
:1002D400F32600809843218B558F7310078023A643
:1002E40001B4010001001307007D010001007D1726
:1002F4006DFF73270080218B09CB7327008023A611
:10030400E1B498435D9B7310078001000100371727
:100314000040930670052300D704930680FA230057
:10032400D704010001009376F50193E60604231433
:10033400D700010001000100010023000704F32697
:1003440000809843218B558F7310078023A601B436
:1003540001000100130760046310E50473270080A3
:10036400218B09CB7327008023A6E1B498435D9BBE
:1003740073100780010001003717004093067005D1
:100384002300D704930680FA2300D7040100010058
:10039400B72600400946B5B573270080218B09CBE9
:1003A4007327008023A6E1B498435D9B73100780F4
:1003B4000100010037170040930670052300D7049D
:1003C400930680FA2300D70401000100B7260040F9
:1003D400130620053DB573270080218B09CB7327B5
:1003E400008023A6E1B498435D9B7310078001004D
:1003F400010037170040930670052300D7049306C5
:1004040080FA2300D704010001008356870093E695
:10041400060C2314D700C5BB411181460146814512
:10042400114506C6EF001023F3270080A18B9386A5
:10043400C1B489CBF327008023A6F1B49C42DD9B91
:100444007390078001000100B7170040130770057F
:100454002380E704130780FA2380E70401000100E6
:1004640003C76704136717002383E7042380070483
:10047400732700809C42A18BD98F7390078023A699
:1004840001B401000100B24041018280814601466D
:1004940081451145EF00101CF3270080A18B1387C1
:1004A400C1B489CBF327008023A6F1B41C43DD9BA0
:1004B4007390078001000100B71700409306700590
:1004C4002380D704930680FA2380D7040100010017
:1004D400FD562396D70223800704F32600801C438D
:1004E400A18BD58F7390078023A601B4010001006E
:1004F400F3270080A18B89CBF327008023A6F1B4D6
:100504001C43DD9B7390078001000100B717004076
:10051400930670052380D704930680FA2380D704BA
:100524000100010083C6670493E616002383D70401
:1005340023800704F32600801C43A18BD58F73907E
:10054400078023A601B40100010001A0BD473305C3
:10055400F50201007D1575FD8280411122C426C279
:1005640006C6AA84014463179400B240224492440C
:100574004101828005041305803E4204C13F41804D
:10058400DDB70111A307010022CE26CC4ACA4EC80A
:10059400378400408347640093F7F70FA307F10003
:1005A4008347F100898B6382073283477400130702
:1005B400000393F70703638FE706834474008347BC
:1005C4007400BD8893F707036382071E13070002B4
:1005D400639DE704138941F26391041283C7810A7E
:1005E4009D83F9CF8347240293C707042301F402B0
:1005F4008347240293F7C70F93E727002301F402EC
:100604008327490103C681F26374F60A918F23ACF0
:10061400F1F2832789013E9623AEC1F293050008C7
:100624000145972000E0E780C0ECB7870040094708
:100634002383E7003784004083477400E207E1879F
:1006440063D10706930720FC2301F402938441F24B
:1006540083A5840C21461385810A975000E0E78026
:10066400A0178387441863CA070023000402834742
:10067400240293F7C70F2301F40237840040834711
:1006840024029385810A014593F7370F93E7870086
:100694002301F402972000E0E780E0D38947230395
:1006A400F4007244E2445249C249056173002030A7
:1006B400032689013E9623AEC1F223AC01F2B9BFF1
:1006C40003C7910A9547631BF70083473400034728
:1006D400090093F70708D98FA301F4008347240284
:1006E40093F7C70F93E727002301F40283472402FB
:1006F40093F7370F2301F4020DBF91476398F40079
:100704008347240393C707042309F402154433D40D
:100714008402930700033304F402939724003E9465
:10072400B7870040938727023E948347040093F7DA
:10073400C70F93E727002300F400E147B387F402CF
:10074400CA97D84B03C64700944F6379E6048C4B91
:10075400118FB296B2958CCBD8CB94CF8847637661
:10076400E602975000E0E7802007E147B384F402F3
:100774008547CA9403C75400630BF70083470400FA
:1007840093F7C70F2300F4004DB53A86D9BF8347CA
:10079400040093F7C70F93E71700EDB73306D700AC
:1007A40090CF23AA070093E504089DBD154933D9CA
:1007B4002403939724003309E9023E999307240202
:1007C4003E998347090093F7370F93E78700230087
:1007D400F900A9E883472402138941F293C7070863
:1007E4002301F402834484008325890C0325090D25
:1007F40093F4F40F2686975000E0E780E0FD03268B
:10080400890D81450145269623AEC1FE8327490DF6
:10081400858F23ACF1FE972000E0E780E0CFE396DC
:1008240004E0E9B58347740093F70704E38F07DE18
:1008340091476398F4008347240393C70708230967
:10084400F402B7870040614483C98700B3878402F8
:10085400138441F293F9F90F4E863E948325840C58
:100864000325040D975000E0E78000F78327040D6B
:100874000326840D0347440CCE972328F40C8327C6
:10088400440D4E96232CC40CB3873741232AF40C11
:1008940063E3E90081EBA6850145972000E0E7804A
:1008A400A0C761B30347540C85476309F700834726
:1008B400090093F7370F2300F90085BB834709002C
:1008C40093F7370F93E74700FDB78347F100858B14
:1008D40085C3A30104000145972000E0E78000A937
:1008E4008347240293F7370F2301F402854745BB5E
:1008F4008347F100918B89C783475400914745B3DF
:100904008347F10093F7F70F59BBB717004003A7CC
:10091400870AA16561761367470023A4E70A83A6C3
:10092400870A7D16CD8E23A4D70A83A6870A93E669
:10093400160023A4D70A83A6470BED9A23AAD70A45
:1009440083A6070A93E6460023A0D70A83A6470B8B
:10095400F18E23AAD70A03A7070A4D8F23A0E70A1B
:1009640003A7470B799B23AAE70A03A7070A136780
:10097400170023A0E70A8280B717004003A7870A5D
:10098400A16561761367470023A4E70A83A6870A53
:100994007D16CD8E23A4D70A83A6470BED9A23AAEE
:1009A400D70A83A6070A93E6460023A0D70A83A69C
:1009B400470BF18E23AAD70A03A7070A4D8F23A05A
:1009C400E70A8280B717004003A7470B21666D9B97
:1009D40023AAE70A03A7070B1367470023A8E70A1C
:1009E40003A7070A6D9B23A0E70A83A6470B617739
:1009F4007D17F98E23AAD70A83A6070BD18E23A8C5
:100A0400D70A83A6070A758F23A0E70A03A7470B13
:100A1400799B23AAE70A03A7070B1367170023A8E8
:100A2400E70A03A7070A799B23A0E70A8280B7177E
:100A3400004003A5470A3D8105898280371700409D
:100A44008327870AA166D58F2324F70A8280371764
:100A540000408327C70AA166D58F2326F70A828020
:100A6400B717004003A5470A098105898280371713
:100A740000408327870A93E747002324F70A8280EC
:100A8400371700408327C70A93E747002326F70A4E
:100A94008280B717004003A7870A1367470023A47F
:100AA400E70A03A7470B6D9B23AAE70A03A7070AD4
:100AB4001367470023A0E70A8280B717004003A703
:100AC400870A1367470023A4E70A03A7470B6D9B14
:100AD40023AAE70A03A7070B6D9B23A8E70A03A72A
:100AE400070A6D9B23A0E70A8280B717004003A57D
:100AF400470A0589828005893717004001C9832781
:100B0400870A93E717002324F70A82808327C70AFA
:100B140093E717002326F70A8280B717004003A53E
:100B2400470A05810589828001458280B717004004
:100B340003A5470A118105898280B71700401DE18A
:100B440003A7C70A1367070123A6E70A03A7470BEE
:100B54003D9B23AAE70A03A7070A1367070123A0FB
:100B6400E70A828003A7470B3D9B23AAE70A03A752
:100B7400070B1367070123A8E70A03A7070A3D9B8E
:100B8400F9BF3717004001E98327870A93E7072055
:100B94002324F70A82808327C70A93E707202326A2
:100BA400F70A8280856793870780B716004019E5A6
:100BB40003A7860AD98F23A4F60A828003A7C60A4C
:100BC400D98F23A6F60A82800145828041112AC664
:100BD400B247FD173EC6EDFF41018280171300E0C6
:100BE4006700E38A01458280371700408327870A1C
:100BF400A166D58F2324F70A828037170040832704
:100C0400C70AA166D58F2326F70A828037170040CA
:100C14008327870A93E747002324F70A828037173C
:100C240000408327C70A93E747002326F70A8280F8
:100C340005893717004001C98327870A93E71700FE
:100C44002324F70A82808327C70A93E71700232601
:100C5400F70A8280B717004003A5470A0581058972
:100C6400828041112AC6B247FD173EC6EDFF4101FD
:100C74008280171300E067008381371700408327C1
:100C8400870AA166D58F2324F70A8280371700408C
:100C94008327C70AA166D58F2326F70A82803717D0
:100CA40000408327870A93E747002324F70A8280BA
:100CB400371700408327C70A93E747002326F70A1C
:100CC4008280B717004003A5470A098105898280FD
:100CD40005893717004001C98327870A93E747002E
:100CE4002324F70A82808327C70A93E74700232631
:100CF400F70A8280B717004003A7870A13674700E3
:100D040023A4E70A03A7470B6D9B23AAE70A03A7BB
:100D1400070A1367470023A0E70A8280B717004039
:100D240003A7870A1367470023A4E70A03A7470B0F
:100D34006D9B23AAE70A03A7070B6D9B23A8E70A69
:100D440003A7070A6D9B23A0E70A828041112AC6E4
:100D5400B247FD173EC6EDFF41018280170300E054
:100D64006700E37237370040834747009146BD8BE5
:100D74006389D70099466394D7008347570073006B
:100D840020308345870013850127E205E1859750CC
:100D940000E0E780C089E5B72303048015472303F7
:100DA400E48001002302A480828083076480E3CE70
:100DB40007FE23030480828083076480E3CE07FE5A
:100DC40003454480828083076480E3CE07FE2302C8
:100DD400A4808280411126C44AC24EC006C613773D
:100DE400F50BAD47AA892E8995446306F70019458A
:100DF4006537653F8D444E854537FD59FD1463982D
:100E04003401B240A24412498249410182801355FF
:100E140009011375F50F453F2209CDB7011126CC01
:100E240006CEB704080051371545BD377137693709
:100E34002AC6A53F32459377150089EB1365150043
:100E44001375F50FF240E24405618280FD14E9FC5C
:100E54000145CDBF397126DC4ADA4ED852D656D474
:100E64005AD25ED006DE62CE66CCB7E700E07D578C
:100E740083AA070022C603AA470023A0E71823A2D7
:100E8400E718B7170040130770052380E70413071A
:100E940080FA2380E70483C74704930B75FFB68465
:100EA400E20793FBFB0F8546AA892E8B32893724F0
:100EB4000040E187015763FA76016308D50089464B
:100EC400130700026313D5000157D98F93F7F70F67
:100ED400B71C00402382FC0411472303E48013055C
:100EE400F00F5D3D094CD135636D7C11B7050700EA
:100EF400DA9537870700795563F2E504B3879500DF
:100F0400636EF702370B0800A94733EB6501639959
:100F1400F90689E48144513D26850DA0DA85094509
:100F2400553D05090345F9FFFD14050B693D81C4D1
:100F34009377FB0FFDF7DD3569FD7D55B71700404D
:100F4400130770052380E704130780FA2380E7045E
:100F540003C74704418B2382E704F250B7E700E05C
:100F640023A0571123A24711E25432445259C259C3
:100F7400325AA25A125B825B724CE24C216182802B
:100F8400A5476395F90685691309F00FB30699001F
:100F9400B3742B01B6941349F9FFB3749900856BAC
:100FA40033796901416B9387F9FFB3F7270199E31B
:100FB40063FC340193D94900C147E3E637FF99BF85
:100FC4000569C1697D19D9B71305800D6388690165
:100FD400130500026384790113051008CA85DD3BFB
:100FE400353D21DD4E99B3843441D9B7DA852D4599
:100FF400D533CA94E30099F205097D3BA30FA9FEFA
:10100400D5BF9387F9FF93F7F70F6361FC0C83C790
:101014001C0413073008631FF70437070800636BC9
:10102400EB04B3079B00B706100063F5D704334BFA
:10103400EB0089476393F9068980D549E38C04EC76
:10104400DA850945413B11090327C9FF914723204C
:10105400E48003076480E34E07FE23033481FD1715
:10106400EDFBFD14110B81C49377FB0FE9FF7D3376
:1010740071F5E1B5B717004003C75704B707080077
:101084001377070219E3B78707007955E378FBEA7A
:1010940033079B00E3FFE7F855B58547E382F9F290
:1010A400DA852D45053B9389F4FFE38504E629336E
:1010B40093F7390091EB83260480032709009307F3
:1010C4004900E39AE6E43E89CE84F1BFB5476396CE
:1010D400F9001305900BC93135BDB1471305B00AAA
:1010E400E38BF9FE99476391F904B7050800B365EA
:1010F400BB002D45C53181448D4BA149753963969B
:101104007401832704802320F9008504E39834FFC5
:101114008327048013172B01635507002312F9005A
:10112400D5BB2322F900FDB39D476399F90281459C
:101134001305B0044531BD442320090023220900CE
:10114400FD599D3993F77400CA9703C70700FD142E
:10115400398D2380A700E39634FF6DBBA1476392CA
:10116400F9046D398144630D0B008D479304C0036A
:101174006308FB009304000563048B01930440049B
:101184001375C507E30895D819453931393905452B
:10119400213126850D3909453D314931E31C05D6F8
:1011A40069BB91476399F90013056006F536F53E6E
:1011B400130590090DB7E38F09D4F154A9BB0000BE
:1011C400971100209381C18517710020130141E319
:1011D4001305400097F5FF1F938585E2170600204D
:1011E400130606FE63FAC5008322050023A05500FA
:1011F40011059105E3EAC5FE17650000130505E82E
:10120400970500209385C5FB1386818363FAC50087
:101214008322050023A0550011059105E3EAC5FECC
:101224001385C1B4938541396377B5002320050044
:101234001105E36DB5FEFD42739002BC8D427390BF
:101244004280930280087390023097F2FF1F9382CA
:1012540022DB93E2320073905230970200009382B3
:10126400421073901234730020303D432A87637315
:10127400C3029377F700BDEFADE5937606FF3D8A91
:10128400BA960CC34CC30CC74CC74107E36BD7FEDB
:1012940011E28280B306C3408A0697020000969644
:1012A4006780A6002307B700A306B7002306B7008C
:1012B400A305B7002305B700A304B7002304B700B0
:1012C400A303B7002303B700A302B7002302B700A8
:1012D400A301B7002301B700A300B7002300B700A0
:1012E400828093F5F50F93968500D58D939605012D
:1012F400D58D61B793962700970200009696868253
:10130400E78086FA9680C1171D8F3E96E374C3F872
:10131400A5B7371700408327870A411106C693E70C
:1013240007202324F70A8545130500108D288D45D1
:1013340013050020AD20B240410175A441111305ED
:10134400400606C697F0FF1FE7802021B240B7E7AA
:1013540000E03707400023A0E710410182804111DB
:101364001305600406C697F0FF1FE78080D2553747
:101374001755000013054574EF408062B7F700E08D
:10138400795690CBFD56D4CB37E700E08566232011
:10139400D7101307F00298C3EF40401B01A09147F8
:1013A40063EEB70217570000130707738A05BA954F
:1013B4009C41BA978287B717004003A7470B134590
:1013C400F5FF698F23AAE70A03A7070B698F23A8F0
:1013D400E70A03A7070A798D23A0A70A8280B71713
:1013E400004083A6470B1347F5FFF98E23AAD70ABB
:1013F40083A6070B558D23A8A70A83A6070A758F12
:1014040023A0E70A8280B717004003A7470B498F40
:1014140023AAE70A03A7070B1345F5FF45BFB71730
:10142400004083A6470B1347F5FF758F23AAE70AED
:1014340003A7070A598D4DB7B717004003A7470BF9
:10144400498FEDB7B717004003D5870042054181A6
:101454009377050491EB9377F5013755E80113056C
:1014640005803345F50282809377050C1307000449
:101474006397E7009377F50137459C1CCDB7216549
:10148400130505D08280B7F700E08847CC478280F7
:10149400814737370040A14663C4C7003285828044
:1014A4000345B740E38EA6FE3385F50003450500EA
:1014B40085072304A740CDB797070020938747D615
:1014C4009C43138741393E95636EE50017770020EE
:1014D400130707936368A700170700202322A7D4E4
:1014E4003E858280FD57EDBF411122C406C62A8481
:1014F400913F2947B307E502B2408D83B3D78702F2
:1015040022449507B3D7E70237370040C207C183A7
:101514002316F700410182807165411113050520EE
:1015240006C6D937B7370040130770F82381E700A0
:101534000D47A381E70013070004A380E7000547D4
:101544002387E700B2404101828037370040834758
:1015540027001A0593F7F703C98F93F7F70F2301B1
:10156400F7008280B737004003C7170019C9D98D27
:10157400A380B70003C70700136787002380E70031
:10158400828093C5F5FFF98DA380B7008280B737B9
:1015940000402147B736004091E1828003C6B7007E
:1015A400E30CC7FE05050346F5FFFD15C2052384BC
:1015B400C600C181D5B7411122C406C62A84593553
:1015C4002947B307E502B2408D83B3D7870222448B
:1015D4009507B3D7E70237370040C207C183231604
:1015E400F74041018280716541111305052006C64B
:1015F400D937B7370040130770F82381E7400D4708
:10160400A381E74013070004A380E740054723872D
:10161400E740B24041018280411106C6938741F2FE
:10162400938641C694D3938641CE94DF938641D664
:10163400B4CB938641BEB4D7938641BA23A4D712C0
:10164400938641DE23A0D708938641E6138741B6EB
:1016540023ACD708938841C2138841CA138541D269
:10166400938541DA138641E2938641EA138341EE7E
:1016740098C723A4E70C23A0170F23AC070F23A8B4
:10168400A71023A0B71423ACC71423A8670A23A860
:10169400D716B7870040238007001303C0FC2386B6
:1016A4006700A386670042071303F00323876700DC
:1016B4004183C2082398E70093D808014208239A7B
:1016C4001701135808014205239C07014181C205F3
:1016D400239EA700C1814206239AB7044182C20611
:1016E400239CC704C182239ED704A946694723814A
:1016F400D7022383E7022385E7022387E7022389AE
:10170400D7022383E7062385E7062387E706A38119
:101714000700130790022380E700B716004003D7A1
:10172400A6011367070C239DE6007D572383E7007A
:10173400130710F8A380E7001D472381E700FD3E4F
:10174400B24001454101828089E9378700408347DF
:10175400370093F70708A301F7002382B1F201458C
:10176400828083C7250093F6870795CE41111755CC
:1017740000001305A53706C622C42E84EF40A0102E
:10178400834524001755000013054537EF40A00F8B
:101794001755000013050538EF40E00EB24022440F
:1017A4007D554101828003C6350093968701E18609
:1017B40013F7F70703C545000D8A938741F263DFEA
:1017C4000600E1463307D702BA9705472386E700A8
:1017D4002382A700A382C70001458280E146330724
:1017E400D702BA9705472386E70C2382A70CA38266
:1017F400C70CDDB713F7F507E1463307D702E20557
:10180400938741F2E185BA9763D6050023860700E2
:10181400014582802386070CE5BF13F7F50795473A
:10182400B357F702930600030A07E205E185B3877D
:10183400D702BA973787004013072702BA9703C71E
:10184400070063C805001367C7002380E70001454C
:10185400828013673700D5BF13F7F5079547B35751
:10186400F702930600030A07E205E185B387D7026E
:10187400BA973787004013072702BA9703C70700B0
:1018840063C80500137737072380E700014582808A
:101894001377C70B13672700C5BF13F7F50719E2C2
:1018A4007D55CDEEE147B307F702011126CA9384B3
:1018B40041F206CE22CC4AC84EC67955A69783C5B6
:1018C400C700B1C9937536007555B1E51544335455
:1018D40087029305000390CBD4CB23AC07003304D9
:1018E400B402931527002E94B7850040938905020E
:1018F40093852502A2992E9495E62380090003C7B7
:10190400570085476305F7048347040093F7C70F1F
:101914002300F4000145F2406244D2444249B249F2
:101924000561828003C9470063F326013689E147D4
:101934003307F702B2854A861379F90FBA948844BB
:10194400EF3010692380290103C754005DBF83472A
:10195400040093F7C70F93E717005DBF828093F5E8
:10196400F50719E27D55B9EE6147B387E5021387A0
:1019740041F279553E978347C70CA9C79377360040
:101984007555A9E39547B3D7F502232AD70C9306D7
:1019940000038A052328C70C232C070C0347570C84
:1019A400B387D702AE97B785004093852502BE95CD
:1019B4008547630AF70083C7050093F7370F238031
:1019C400F5000145828083C7050093F7370F93E73D
:1019D4004700F5B7011126CA930440314EC6B3043B
:1019E40095029309500C56C2938A818322CC4AC82B
:1019F40052C45AC006CE2A89B30935032E8A328BC3
:101A04000144D69483C7C424636CF400F240624456
:101A1400D2444249B249224A924A024B0561828029
:101A2400B3878900938787088A07D697DC476303BF
:101A34000B0289CFD84719CB83462B0083C7870174
:101A44006396F6005A86D2854A8502970504137474
:101A5400F40F4DBFE5DFDC47F5DB0146D2854A854F
:101A64008297EDB7411126C2AA84175500001305C9
:101A7400251606C622C42E84EF30F0608346540037
:101A8400834744000346340083452400A206DD8EC8
:101A940093F6F67F0D8A1755000013056514EF3091
:101AA400905E175500001305E506EF30D05D03473F
:101AB4002400834754008346440093158701A207FA
:101AC400E18513868183D58F63D005049376F70768
:101AD4003147B386E602130740313387E402BA96EE
:101AE4003307D60093F6F77FAD878D8B2319D72460
:101AF400A308F724A2852685AD31B240224492443E
:101B04001335150041018280B1463307D70293068D
:101B14004031B386D402369793F6F77FAD87329778
:101B24008D8B2319D72AA308F72AE9B7411122C4B8
:101B34002A84175500001305A50906C6EF30B054D2
:101B4400835764000357440083562400034614005B
:101B5400834504001755000013058501EF30B0528A
:101B64002244B240175500001305C5FA41016F30F5
:101B74009051930740313307F50293878183BA97D5
:101B84009847D4473297918E98C7D4C73A8681EA4A
:101B940003C7470101CB238A070081460146930509
:101BA4000008E5B903D7670009CB8387070063D62C
:101BB40007008146014681455DB382805D71A2C400
:101BC400CAC04EDE52DC86C6A6C256DA5AD85ED6E3
:101BD40062D466D26AD06ECE83C70500B6899306F6
:101BE400000213F707062A842E89328A6303D74C2E
:101BF40093060004630FD754814455E303C71500CB
:101C04008D8B8545638CB728B1C78946638FD73ED2
:101C14000347190099476319F700035729009307ED
:101C240000608144630DF70617550000130505ECA9
:101C3400EF307045175500001305C506EF305056B8
:101C440017550000130505EDEF30F0434A85F93DC3
:101C54008144B1A0A54703562900E3EBE7FA975561
:101C640000009385A5EB93162700AE969C42AE9791
:101C7400828785476312F60293074031B306F50263
:101C840093878183A545B6978D4683A70731630360
:101C9400D700A9452285829723A009008544B64030
:101CA4002644268506499644F259625AD25A425B22
:101CB400B25B225C925C025DF24D6161828093753D
:101CC400F60F5934D1BF935586008D4713F5F50FA0
:101CD4001376F60F639AF5049307E00E631CF60877
:101CE400175500001305C5EEEF30F0391755000005
:101CF400130505F1EF30D04A17550000130585E1AF
:101D0400EF30703893074031B307F40213848183B2
:101D14003E945C4CE38E07EE9C432320FA0083C779
:101D2400070023A0F9009DBF3D476393E5041755C1
:101D340000001305E5E9EF301035175500001305D1
:101D440065EEEF30F045175500001305A5DCEF30C4
:101D5400903393074031B307F402138481833E9494
:101D64005C50E38707EA9843DC432320EA0055BF2D
:101D7400E3E0B7EA93074031B307F40213848183A5
:101D840081463E94184C8347070085EB17550000A5
:101D94001305C5D532C62EC4EF30F02E3246A24507
:101DA40017550000130585FAEF30F02D1755000084
:101DB400130545D6EF30302DA1BD03481700631538
:101DC400A8006308D65085063E9775BF9307403137
:101DD4003304F502938701A63E9423208A008547A5
:101DE40089B7130740313307E50293878183937AD8
:101DF400F60F014C814B8144930CF00F130DF00F3F
:101E04003E8B914D3E97032A8701894615478347A8
:101E14000A00A1C383471A006381B7076382E706F8
:101E2400639FD700834C5A00639B9A01834B3A000B
:101E340083472A00014CA20BB3EBFB008544834784
:101E44000A003E9A83470A003E9CE3627CFDE380DD
:101E54000BFCB1C0130940313309240301469D45ED
:101E640022855A9923045923B536832709319D4580
:101E74002285829723A009001DB5034D3A00C1B7FE
:101E8400E39F9AFBE31D0DFAD2852285E13EAA84E5
:101E9400894615476DB723A009009DBB93044031C3
:101EA400B306950293848183B69483C68422E38126
:101EB40006D6194683562900834A49006309C70890
:101EC400636EE600E31607D483270A002380070025
:101ED40083270A00A38007008947A1B52946630523
:101EE400C70CAD47E316F7D2844C13F9F60F014C37
:101EF400814C130BF00F930BF00F014A175D000098
:101F0400130D4DC1894D03C604000DCE03C6140044
:101F140091476300F60A95476307F60A631AB60108
:101F240083C7340003C72400014CA207B3ECE700C5
:101F340003C60400B29403C60400329CE3659CFD0E
:101F4400E3830CFC5286A14522856934B1B3A18296
:101F540093072002E39EF6CA17550000130545C7F0
:101F6400EF30701217550000130585CDEF30502364
:101F740017550000130505BAEF30F01083C6C424CA
:101F84008147E387D7C803A7C42211CB034687013F
:101F9400631756011C4B2320FA005C4B59B3850789
:101FA40093F7F70F9104F1BF03270A0023000700FA
:101FB4008DBB03CB240083CB3400E39B6AF7E31986
:101FC40079F7268AB5B7E3956AF7630C7903175551
:101FD40000001305E5BFEF30100B03C6340083C5C2
:101FE400240017550000130565C70D8AEF30B009AA
:101FF4006A85EF30500983C524002285EFF08FFFF6
:1020040005BFA6852285B93C25B793064031330622
:10201400D50293868183B29683C68622E38A06BE5E
:1020240083444900630BB70421C38D47E312F7BE11
:1020340083572900E39107E617550000130505AB04
:10204400EF307004A68517550000130565C4EF3002
:102054009003175500001305E5ABEF30D002A685B9
:102064002285EFF08FFB0DB903270A002300070038
:1020740003270A00A30007006DB183572900E39CDE
:1020840007E017550000130565A6EF30C07FA6854D
:1020940017550000130545BEEF30E07E17550000CC
:1020A400130545A7EF30207EA6852285EFF0CFFAF1
:1020B400F5B68D8B05476393E706930740313307E5
:1020C400F50293878183BA9703C6C7240147631D2A
:1020D400C70017550000130565A1EF30C07A1755E6
:1020E40000001305A5BD99BE83A6C7229DC203A8FF
:1020F40006006300080283C5860183464900639A8B
:10210400D500CE865286CA8522850298E35805B842
:10211400C9B705071377F70F910755BF0947E39A26
:10212400E7FA930740313307F50293878183BA971F
:1021340003C6C7240147E30EC7F883A6C72289C68E
:1021440003A84600E31F08FA05071377F70F910762
:10215400DDB793044031B3049502138B8183DA9481
:10216400DC4C638D070C03C7150083C74700814A05
:102174006317F71483D7450011476382E7041547B3
:102184006384E7081755000013054596EF30A06FE8
:10219400175500001305C5B6EF3090001755000021
:1021A40013054597EF30206E17550000130505946D
:1021B400EF30606D175500001305C5B741B41755CE
:1021C40000001305E5A0EF30006C1755000013055F
:1021D40065B0EF30E07C175500001305A593EF3090
:1021E400806ADC4C98472320EA0083471700834623
:1021F4000700A207B6978346270003473700C206A5
:10220400B6976207BA9731BE175500001305459C6F
:10221400EF306067175500001305C5ACEF30407808
:10222400175500001305058FEF30E065DC4C0357AC
:102234002900DC470A07BA97984375B79C50BDCF6D
:1022440003C7150083C76700814A631AF70603D7DB
:1022540045009D47E318F7F217550000130545970D
:10226400EF30606217550000130505ABEF30407383
:10227400175500001305058AEF30E0609C50984321
:1022840083D747002320EA0069BCB3875B019387A7
:1022940087088A07DA97DC4789EB850A93FAFA0FED
:1022A40083C7C424E3E3FAFE01B79C47FDD7CE8677
:1022B4005286CA85228582976DF1CDB2814A9304F4
:1022C4004031B3049402930B500CDA94B30B7403AF
:1022D400C1BF89466318D50083473700834627006A
:1022E400A207D58F23A0F9002320EA0045BA35CAF6
:1022F40093074031B307F50213888183411122C447
:1023040006C62A84B305F8009845D4453297918EC1
:1023140098C5D4C5A1E21387870293860701429723
:10232400A10798C5C2963306F800EFF03F8909E982
:1023340022852244B2409305000841016FF0EFCD9D
:1023440022852244B240814601469305000841019A
:102354006FF0AFD42244B2403A86814541016FF018
:102364000FE082800111814506CE22CC26CA2A8440
:1023740093044031EFF04FBDB307940293848183FB
:102384002C00228523070100BE94B70780009387A1
:1023940077503EC423840422930700042316F100DB
:1023A400EFF02FBC2C00228523050100EFF06FBB5A
:1023B400228501468545EFF0EFE183A704312285AC
:1023C40085458297F2406244D244056182800111BE
:1023D4004AC8130940313309250322CC138481836D
:1023E40026CA2146AA8406CE330724013A85EF3053
:1023F400203E83566500930700202A8763FED70298
:102404008307050063CA0702174500001305056E1C
:10241400EF306047174500001305C572EF30405890
:10242400174500001305056FEF30E04593050008DC
:102434002685EFF08FBE05A893074031B387F402D9
:1024440013068902229632C6A29790C7D4C794CBAA
:10245400238A070099CE8387070063CC0700814550
:102464002685EFF0CFCFF2406244D2444249056161
:10247400828093060901A2967000BA852685EFF042
:10248400EFF34DD593074031B387F402A297984BED
:1024940003D667006373C7003A8693074031B38756
:1024A400F40213070020A297D0C7E36FC7F488474C
:1024B400B2456304B500EF30A03193074031B387D0
:1024C400F4029305000826853E9454441044EFF02A
:1024D400CFBC1C4803576400E3F7E7F893F7F7030E
:1024E400D9F38547230AF400BDBF314793F7F507B5
:1024F400B387E702130740313307E502BA9713871E
:102504008183BA9703A38725630303000283828030
:10251400314793F7F507B387E702130740313307D1
:10252400E502BA9713878183BA9703A3872B6303C2
:10253400030002838280930740313305F5029387B9
:102544008183411122C4130640312E84814506C67D
:10255400AA973E85EFE07FD1130700F82308E5240E
:10256400230605242308052A00CD17F7FFFF1307C8
:102574008760B2402244232CE52417070000130788
:1025840047D7232CE52A4101828093074031330544
:10259400F50293878183AA978CD382809307403175
:1025A4003305F50293878183AA97CCD3828093075E
:1025B4004031B307F5021306500C9386818333052B
:1025C400C502B69703C7C724238CE5003A951305C3
:1025D40085080A05369505074CC52386E7248280BD
:1025E40003C70500D0419387818393168701E18651
:1025F40063D20602B1459376F707B386B602930514
:1026040040313305B5023695AA972388E72423ACD5
:10261400C7248280B14693054031B306D7023305FF
:10262400B5023695AA972388E72A23ACC72A828065
:10263400139785016187938781836350070231472C
:1026440093F5F507B385E502130740313305E50239
:10265400AA95BE9503D5252582803147B385E50229
:10266400130740313305E502AA95BE9503D5252B02
:102674008280930740313305F50293878183AA97BB
:1026840003C587223335A0008280411106C622C4C7
:1026940005C51745000013056545EF30C01E1745F5
:1026A40000001305E54BEF30A02F1745000013057C
:1026B4006546EF30401D01A023AAB1B423A4C1B4E0
:1026C400EFE09FF52A840146AD450145EFF08FB058
:1026D4009387818383A707310145AD45829722857E
:1026E400B240224441018280970700009387A704E7
:1026F4009CC123A2050023A4050023A605002E8562
:102704008280930700F82300F600930740F8A300A3
:10271400F600F9472301F600A147A30106002303AD
:10272400F600A302060023020600828082808280D3
:102734008280797122D406D626D24AD083C7150066
:1027440013071002328483C445006383E70A2A898D
:10275400636EF702130700026385E7041745000060
:10276400130505622EC6EF300012B245174500006E
:102774001305056283C51500EF30E010174500000E
:1027840013054539EF3020107D5525A81307200285
:10279400638FE70213073002E392E7FCA685493F03
:1027A40005A083C7750003C665000C40A2075D8EB3
:1027B4002808EF30E0013008A6854A85EF20B04CA8
:1027C4000145B2502254925402594561828003C497
:1027D400350003C62500A6852204518C1376140007
:1027E400B13713561400058AA6854A858937C9BFAF
:1027F4003008A68536C6313708401D462C08EF2020
:10280400307DB2469D479CC265BF597186D6A2D41D
:10281400A6D2CAD0CECED2CCD6CADAC8DEC6E2C4DC
:10282400E6C2EAC06EDE834705007D4793C607080B
:102834006363D702EF10E020B6502654965406592D
:10284400F649664AD64A464BB64B264C964C064D3C
:10285400F25D65618280138715003AC42380F50018
:102864007547AE846374F7006F10C01C17470000EF
:10287400130787548A07BA979C43AA8ABA97828710
:10288400834715001D47638AE70C636FF7020D4702
:102894006380E70A6360F70205476381E708094735
:1028A4006383E708014537040200A380A4000904F8
:1028B400229559B71547638DE7086370F70897E0C9
:1028C400FF1FE7802032C5B71307000F6381E70AB3
:1028D400636DF70021476387E7082547E394E7FC26
:1028E40097E0FF1FE78000307DBF1307E00F638E82
:1028F400E7086364F7081307100FE395E7FA9307F3
:1029040000042381F50093072004A381F500BD474B
:102914002382F500A3820500114571B797E0FF1FDC
:10292400E780402C49B797E0FF1FE780A02BA5BFA5
:1029340097E0FF1FE780002BBDB7194697450000BD
:102944009385057313852400EF2090681945A1BF72
:1029540097E0FF1FE7800029B9B797E0FF1FE780E2
:10296400602891B797E0FF1FE780C0272DBF93072A
:1029740030032381F40005453DB793070004238108
:10298400F500A3810500094539BF8547DDB78347B5
:10299400150089CF05476385E702FD57A380F5003D
:1029A4003704020005044165050519B703452500F0
:1029B400058997E0FF1FE780C01CA3800400CDB702
:1029C40003452500058997E0FF1FE780A01DF5B7A3
:1029D4008347150099CB05476389E7000947638F4F
:1029E400E7008147A380F40059AC85472388F10AA6
:1029F40097E0FF1FE78040F88547EDB72388F10A89
:102A040097E0FF1FE78060F08947E9BF2388010A48
:102A1400054497E0FF1FE780E0FAA380040061B754
:102A240083C72A0003451500A207C98F394533859A
:102A3400A70297E0FF1FE780601941B797E0FF1FE7
:102A4400E78080182381A400A38004000944A1BF67
:102A5400834745000344350083492500A207C18FFD
:102A64000344550013FA1900034915004204C18FA9
:102A74000344650062045D8C63090A0093771900BE
:102A8400D5C397E0FF1FE78060FB93FA29006389B1
:102A94000A0093772900C1CF97E0FF1FE78020FD4C
:102AA40013FB490063080B001355290097E0FF1F2F
:102AB400E7806004939B890193DB8B4163D80B000F
:102AC4001355790097E0FF1FE780200735E497E06E
:102AD400FF1FE780C0F52A8497E0FF1FE78040F8D6
:102AE4002A8997E0FF1FE78040000A050609336939
:102AF400A90097E0FF1FE78040020E0533648900B8
:102B0400498C97E0FF1FE78020021605498C97E067
:102B1400FF1FE780A0011E05418DA380A400370498
:102B2400060049B597E0FF1FE78060F2B9BF97E060
:102B3400FF1FE780E0F4ADB7B7C72D009387076C9C
:102B440063F387003E8497E0FF1FE78020099357D3
:102B540019002A8C3EC4935C2900135D5900935DCF
:102B6400790093F90902631E0A0263890A0097E057
:102B7400FF1FE780E0EEA247639BA70263080B00F8
:102B840097E0FF1FE78060F66393AC02639A090243
:102B9400E3DF0BF297E0FF1FE78040F9E389ADF232
:102BA40039A097E0FF1FE78080E8E300A9FC97E0E5
:102BB400FF1FE780A00233058541E36685FA01BF64
:102BC40097E0FF1FE78040F6E304ADFCCDB7034771
:102BD4002500834715002207D98F03473500420794
:102BE4005D8F83474500E2075D8F19E7FD57A3809A
:102BF400F500370404007DB3B73731019387F7CF6D
:102C040063FBE7008547A388F10A854723AAF10AF5
:102C1400A3800400F9BFA388010AB76762029387FF
:102C2400F79FBA97B3D7E702894605476386D7006B
:102C34008D07194733D7E70223AAE10AD1BF03441A
:102C440015009305250019E01304001022851D04C6
:102C5400EF1090550D80A380040005044204136412
:102C6400140091B38347150013F7370089830507D0
:102C7400858B2384E10CA384F10CA38005004164BB
:102C840015B3A38005008349150013842500930719
:102C94002500854A85447D5CFD1963978901139459
:102CA40004013364540101B303CB0700138A1700F2
:102CB4001379FB036314090013090004931B8B01AC
:102CC4001D0993DB8B411359390063D80B0297E03C
:102CD400FF1FE78080DE2286D2855A85EF103055AB
:102CE4006396090097E0FF1FE780A0DA850463DBA1
:102CF4000B004A94CA9AD28745B797E0FF1FE78032
:102D040040D9D1BF4A9ACA94FDB7A38005000344B1
:102D14001500138B250093072500054A8544FD5BA8
:102D24007D14631774011394040133644401A5B939
:102D340083C90700938A170013F9F9036314090080
:102D4400130900044E851D095A86D6851359390086
:102D5400EF001050E2091307190093D98941B38792
:102D64002A01BA94E3DE09FA4A9B4A9A55BF0344FE
:102D740015001387010B3A862385810CBA85814699
:102D840081478505090663EC86001386010B81469D
:102D94000507090663E08602A38004007DBD338530
:102DA400DA00034525008506A38DA5002311F6024C
:102DB400AA97C1BF8345B70185068D8F2319F602F3
:102DC400C1BF03C7010B89476311F704834715008B
:102DD400A385F10C03C7A10C63F9E7023945EF1091
:102DE4008014EF009053935785002381A400A3819E
:102DF400F4004164935705016181A3800400238298
:102E0400F400A382A400150479BEFD57E1BE8347F4
:102E14001500238EF10A8347350003472500A207D6
:102E2400D98F2390F10C8347550003474500A2072F
:102E3400D98F2391F10CA3800400370405009DB6BB
:102E4400930715003ECA83C7010B3EC63247854728
:102E5400138A010B6305F70289476306F7440347A6
:102E6400250013043500E3190702D247A3800400A8
:102E7400238104001D8C4204136424002DB6130D19
:102E84003500834B2500938D3500238C01B4814A92
:102E9400814C014502C8094B138981B58549639961
:102EA4000B0485466317D50263890C3C03D9010CD6
:102EB400094A938981B56C103945EF103045631B7D
:102EC40045396308090003C709007D191377F70F13
:102ED4007DD3C2472381A400A380F400D247B30763
:102EE400FD4013950701A2473384FD40498C65BC1E
:102EF40003440D0093071D003EC613762400630CA3
:102F0400062663800C0C1376140103DC010C631F8A
:102F140036036C102285EF10703F631A6505630851
:102F24000C00034609007D1C1376F60F7DD2324D4A
:102F340083460D0013F62600630C0630C18A63999C
:102F44000630050DFD1BE3950BFEA1BF6C10394542
:102F5400EF10D03B631C650163080C0003470900B4
:102F64007D1C1377F70F7DD3814CD1B7814CE310CF
:102F740035FD3256935586002380CD00A380BD00D5
:102F84009355060161822381BD00A381CD00938501
:102F94004D0063870C0813168401618666856351AE
:102FA400060803268A00A10D93558600238ECDFEC4
:102FB400A38EBDFE935506016182238FBDFEA38FB0
:102FC400CDFE9375040103D6010C93781400E1C17E
:102FD40083452D00034C1D0093075D00A205B3E556
:102FE4008501034C3D003EC6420CB365BC00034C56
:102FF4004D0003DD210C620C336CBC0063860802B7
:103004008145228532CCEF107030631D6501624624
:1030140019DE834709007D1693F7F70FF5D301BF37
:10302400AE8D45B7E31535F183D8010C6C102285BC
:1030340046CCEF10B02DAA8763166503E248638877
:10304400080003460900FD181376F60F65D283269F
:103054004A013256F18E6308DC0213E50701137549
:10306400F50FF1B503264A01B2556D8EE31135FF14
:10307400E30FCCFCE30D0DFC034609007D1D137624
:10308400F60F5DD2E9B7E39437EB814AB9A8638CB4
:103094000806E39C0CFE8145228532CCEF101027F4
:1030A400631C65016246E30106EC834709007D1653
:1030B40093F7F70FEDD3A5BDE31B35E79316840112
:1030C400E18663D4061883278A00814A854C13D786
:1030D40087002380FD00A380ED0013D70701E1835F
:1030E4002381ED00A381FD00910DC2479386FBFF70
:1030F40085073EC88347090093F7F70FE39907E272
:10310400B68B324D69BB6C10228532CCEF10102087
:10311400631C65016246E30C06E0834709007D16E3
:1031240093F7F70FEDD321B5E31335E1931684013B
:10313400E18663D2060283278A00910D93D6870025
:10314400238EFDFEA38EDDFE93D60701E183238F3C
:10315400DDFEA38FFDFEB257910D93D68700238E1B
:10316400FDFEA38EDDFE93D60701E183238FDDFEF2
:10317400A38FFDFE19BF63840C0403DC010C6C10E7
:103184003945EF10B018631B6501E3020CDA0346FE
:1031940009007D1C1376F60F7DD251BBE31935D996
:1031A4003257910D13568700238EEDFEA38ECDFE6C
:1031B400135607016183238FCDFEA38FEDFE0346D3
:1031C4002D0003471D0093075D002206598E034717
:1031D4003D003EC6937704024207598E03474D00D3
:1031E4006207518F3AD691C723A2E10C814C054561
:1031F400EDBD83DC010C6C102285EF103011631BD4
:103204006501E3860CD283470900FD1C93F7F70F91
:10321400FDD399BBE31A35D593168401E186854A1B
:1032240063D3060283278A00854A910D13D787004A
:10323400238EFDFEA38EEDFE13D70701E183238FBA
:10324400EDFEA38FFDFE814C4DB5814A854C71BDC9
:10325400150DCDB90547E31EE5C63257910D9356BA
:103264008700238EEDFEA38EDDFE93560701618356
:10327400238FDDFEA38FEDFEA9B9E38C0AC403D925
:10328400010C094A938981B581453945EF1010082D
:10329400E31145C5E30F09C203C709007D1913777C
:1032A400F70F7DD33DB103471500238C01B483C6CA
:1032B400A10CA385E10C938C3500637AD73C130DE4
:1032C4003500034C25000146814D01450144094B5D
:1032D400938A81B5854B631E0C0432890546631DB0
:1032E400C50229466305C9002945EF00D04303D927
:1032F400010C094A938981B5638C0D366C103945EC
:10330400EF00D07C631345356308090083C60900C8
:103314007D1993F6F60FFDD2D247A3808400238152
:10332400A4003307FD40A247131507013384FC4072
:1033340075BE83490D0093071D003EC813F919009B
:1033440093F5290029096388052263840D0C03D8A9
:10335400010C6319260393F509018DE56C104E8564
:1033640032CE42CCEF00907672466319650562480E
:103374006308080083C50A007D1893F5F50FF9DD8D
:103384003289FDA0A9476307F600294542CCEF0026
:1033940090396248C28D6C103945EF003073631D5B
:1033A400650163840D2003C60A00FD1D1376F60F24
:1033B4007DD22949814D6DA82946814DE31275FDC1
:1033C400B25513D885002380BC00A3800C0113D808
:1033D4000501E18123810C01A381BC0013884C0009
:1033E40063870D0A93958901E1856E8563D1050A8A
:1033F40083258A00A10C13D58500238EBCFEA38EE1
:10340400ACFE13D50501E181238FACFEA38FBCFE76
:103414006E8593F50901638F050E83452D000345E1
:103424001D00A2054D8D83453D00C205C98D034590
:103434004D006205B367B5003ECC93075D003EC8FE
:1034440003DD210C6305C9004A85EF00D02D03D6A6
:10345400010C81454E8532CEEF005067631B650336
:10346400724619C603C70A007D161377F70F75D382
:10347400424D03460D00937526006386051C418A60
:103484006313061C050D7D1CE3150CFE81BDC28C67
:1034940049B7E31F75FD03D6010C6C104E8532CE7F
:1034A400EF00D0622A87631C6501724619C603C700
:1034B4000A007D161377F70F6DD3324715A0032644
:1034C4004A01B2556D8E631D7501E247638AC700D8
:1034D40063080D0003C60A007D1D1376F60F45DE52
:1034E40003264A01B255E2476D8E6387C700136510
:1034F40007011375F50FADBFE31C75F703C70A0089
:1035040005049305FCFF1377F70F3DF34A862E8CD1
:10351400424DD1B363970D126305C9004A85EF008C
:10352400902003DD010C81454E85EF00305A631B6A
:103534006501E3010DE803C70A007D1D1377F70F4A
:103544007DD33DB7E31675F3E20993D98941854DDF
:10355400E3D609FA03278A00910C13568700238EB9
:10356400ECFEA38ECCFE135607016183238FCCFEA1
:10357400A38FECFE61B7638E0D04A9476305F600C3
:103584002945EF00501A03D8010C6C10394542CC80
:10359400EF00D053631D650162486308080003C649
:1035A4000A007D181376F60F6DD22949D1B5E31EB2
:1035B40075FFB256910C13D68600238EDCFEA38EC3
:1035C400CCFE13D60601E182238FCCFEA38FDCFE52
:1035D400294683452D0083461D0093075D00A205FF
:1035E400D58D83463D003EC813F70902C206D58D2A
:1035F40083464D00E206CD8E36D619C723A2D10CE0
:103604003289814D0545DDBD6305C9004A85EF005A
:10361400901183DD010C6C104E85EF00304B631B61
:103624006501E3870DE403C70A00FD1D1377F70F57
:103634007DD349B3E31075D9E20993D98941814D0A
:1036440001BF328965BD150D3DBD8546E316D5CC58
:10365400B256910C13D68600238EDCFEA38ECCFECC
:1036640013D60601E182238FCCFEA38FDCFE6DB15D
:1036740081453945EF009045E31045CBE30E09C879
:1036840083C609007D1993F6F60FFDD271B1130DAF
:1036940025000144014549B18347040093F62700FE
:1036A40099C6C18B89E705047D176FF0CFFB15041C
:1036B400E5BF83C7010B0547638DE7000947638FA7
:1036C400E716A380050023810500A38105000D44AE
:1036D40045A8238C01B48349350083472500138A08
:1036E4004500A209B3E9F900638D092A034B45009B
:1036F40093772B009DEF130C55000149894C138DD2
:1037040081B5854D83DB010C6397290F094B7D5CE3
:10371400938981B581453945EF10403F63176505AD
:10372400FD1B63848B0583C7090093F7F70FFDD353
:103734002DA893771B00D5CB03D9010C094C938B8F
:1037440081B581455A85EF10603C631C8501630E89
:10375400090083C70B007D1993F7F70FFDD30149C7
:1037640029A0854701496302F508A247A3802401E3
:103774001359890023812401A381A4003304FA404E
:1037840083C74A00898B63800722370504006FF0E2
:10379400EFF5FD19E31B85FDB257110A050913D78F
:1037A4008700A30EEAFE13D70701230EFAFE230FA8
:1037B400EAFEE183A30FFAFEE38909FA639689011D
:1037C40093771B0091C3394B83DB010C6C105A8532
:1037D400EF10C033E31FA5FBE3890BF883C70C008C
:1037E400FD1B93F7F70FFDD349B70149054C094D6C
:1037F400938C81B5E1B703471C0083470C00110C7F
:1038040022075D8F8347ECFFC2075D8F8347FCFF70
:10381400E207D98F3ED66C105A85EF10202F631B18
:103824009501E3840BF483470D00FD1B93F7F70F19
:10383400FDD325BFE31BB5F30509E9B5238C01B41A
:1038440083471500138A4500A385F10C03C7A10C17
:1038540063F9E7148349350083472500A209B3E9D6
:10386400F90063800914034C4500137B1C00290BE9
:103874005A85552D93772C00E28BA9EB938B5A0034
:103884000149094D938D81B503C71B0083C70B0004
:1038940083DC010C22075D8F83C72B00910BC207C9
:1038A4005D8F83C7FBFFE207D98F3ED66C1062851C
:1038B400EF00D02185466318A50BE3880CEA83C783
:1038C4000D00FD1C93F7F70FF5D345B503D9010C93
:1038D400094D938C81B581456285EF00301F631BD0
:1038E400A501E30409E883C70C007D1993F7F70FDA
:1038F400FDD3B5B585470149E319F5E6054CA94D56
:10390400894C138D81B563978901B94B6304BB015D
:103914002945112D03D7010C6C105E853AC6EF00C2
:10392400F01A631C95013247E30107E483470D0055
:103934007D1793F7F70FEDD30DBDFD19E31785E35D
:10394400B257110A050913D78700A30EEAFE13D74D
:103954000701230EFAFE230FEAFEE183A30FFAFE0A
:10396400E39309FA19B5E312D5E00509E39E29F1B9
:10397400A9476304FB0029457D2383D9010C894BA6
:10398400138B81B581453945EF005014E31F75DD74
:10399400E38D09DC83470B00FD1993F7F70FFDD383
:1039A400E9B301456DBB03C53A0083C72A0022056C
:1039B4005D8D05054A056FF06FD383C7010B05477D
:1039C400638AE7000947638CE702FD57A380F4008C
:1039D4006FF0AFC603473500834725006C102207FC
:1039E4005D8F83474500C2075D8F834755000145BE
:1039F400E207D98F3ED6EF1060116FF0CFC3834733
:103A04001500A385F10C03C7A10CE3F0E7FC2145E5
:103A1400192B03C53A0083C72A0022055D8D83C78D
:103A24004A00C207C98F03C55A0062055D8D41244F
:103A34006FF06FC0FD5741652380F40005056FE00A
:103A4400BFDF83470500416505052380F5008280BB
:103A5400797126D24AD052CC56CA06D622D44ECE3A
:103A64005AC85EC662C49374F5032A892E8AB28A40
:103A740099E09304000493770904D9CB97D0FF1FEE
:103A8400E780C018138C010B13790908050A034B4E
:103A9400FAFFA1490144A9C85A8597D0FF1FE780BE
:103AA400201997D0FF1FE780401503254C0005809F
:103AB400FD1997D0FF1FE780C01A97D0FF1FE7803A
:103AC4006019AA8B97D0FF1FE780001203254C00D2
:103AD4009E0B135B1B0097D0FF1FE780801833E415
:103AE4008B00FD14E39909FA630709003354340188
:103AF40023808A00850AD9F8B2502254925402597C
:103B0400F249624AD24A424BB24B224C456182800E
:103B140097D0FF1FE780A010B5B7011106CE22CCC5
:103B240026CA1384010B4AC84EC697D0FF1FE780EC
:103B3400E00D97D0FF1FE780400C484097D0FF1F4F
:103B4400E780201297D0FF1FE780000A484097D0F3
:103B5400FF1FE780001197D0FF1FE780400C97D02C
:103B6400FF1FE7808009484097D0FF1FE780600F60
:103B740097D0FF1FE7804007484097D0FF1FE7809A
:103B8400400E97D0FF1FE7804007484097D0FF1FA3
:103B9400E780200D97D0FF1FE7800005484097D0AD
:103BA400FF1FE780000C83C4B10CF1EC7D4997D072
:103BB400FF1FE780800448407D1997D0FF1FE780EE
:103BC400400A97D0FF1FE780E008AA8997D0FF1F1B
:103BD400E78080014840FE09B3E4990097D0FF1FB5
:103BE400E78020088580E31409FC97D0FF1FE78055
:103BF400E00197D0FF1FE7804000484097D0FF1FA7
:103C0400E780200697D0FF1FE780C0042A8997D059
:103C1400FF1FE78060FD48407E09B364990097D098
:103C2400FF1FE780000497D0FF1FE78000FD484096
:103C340097D0FF1FE780E00297D0FF1FE780C0FA0C
:103C4400484097D0FF1FE780C00197D0FF1FE7804F
:103C540000FD97D0FF1FE78040FA484097D0FF1F30
:103C6400E780200097D0FF1FE78000F8484097D0F6
:103C7400FF1FE78000FFF240624426854249D24498
:103C8400B2490561828097D0FF1FE78000F7484062
:103C9400FD1497D0FF1FE780C0FC97D0FF1FE7807B
:103CA400A0F4484097D0FF1FE780A0FBFDBD411161
:103CB40006C622C426C21384010B4AC02A8997D09F
:103CC400FF1FE780A0F497D0FF1FE78000F3484070
:103CD40097D0FF1FE780E0F897D0FF1FE780C0F080
:103CE400484097D0FF1FE780C0F797D0FF1FE780B9
:103CF40000F397D0FF1FE78040F0484097D0FF1FA4
:103D0400E78020F697D0FF1FE78000EE484097D069
:103D1400FF1FE78000F597D0FF1FE78000EE4840C3
:103D240097D0FF1FE780E0F397D0FF1FE780C0EB39
:103D3400484097D0FF1FE780C0F283C4B10C639260
:103D44000418014597D0FF1FE78080EE97D0FF1F2E
:103D5400E780A0EA4840FD4497D0FF1FE78060F069
:103D640097D0FF1FE78040E8484097D0FF1FE780C7
:103D740040EF97D0FF1FE78040E8484097D0FF1FEF
:103D8400E78020EE97D0FF1FE78000E6484097D0F9
:103D9400FF1FE78000ED97D0FF1FE78000E6484053
:103DA40097D0FF1FE780E0EB97D0FF1FE780C0E3C9
:103DB400484097D0FF1FE780C0EA4A8597D0FF1F8D
:103DC400E78000E797D0FF1FE78020E34840FD1419
:103DD4001359190097D0FF1FE780A0E897D0FF1F61
:103DE400E78080E0484097D0FF1FE78080E7F1F448
:103DF40083C7B10C83C4A10C9D8C8547638BF410DD
:103E04004A8597D0FF1FE780A0E297D0FF1FE78085
:103E1400C0DE4840F91497D0FF1FE78080E497D0B4
:103E2400FF1FE78060DC484097D0FF1FE78060E316
:103E3400CDEC97D0FF1FE78060DD97D0FF1FE780B0
:103E4400C0DB484097D0FF1FE780A0E197D0FF1F59
:103E5400E78080D9484097D0FF1FE78080E097D063
:103E6400FF1FE78080D9484097D0FF1FE78060DFBD
:103E740097D0FF1FE78040D7484097D0FF1FE780C7
:103E840040DE97D0FF1FE78080D997D0FF1FE780DF
:103E9400C0D6484097D0FF1FE780A0DC97D0FF1F13
:103EA400E78080D4484097D0FF1FE78080DB22441E
:103EB400B240924402490545410117D3FF1F6700F0
:103EC40023D797D0FF1FE78040D34840FD1497D0F5
:103ED400FF1FE78000D997D0FF1FE780E0D048405C
:103EE40097D0FF1FE780E0D799BD97D0FF1FE780E9
:103EF400C0D04840FD1497D0FF1FE78080D697D0EC
:103F0400FF1FE78060CE484097D0FF1FE78060D551
:103F140005B797D0FF1FE78060CF4A8597D0FF1F72
:103F2400E78000D119BF411122C426C206C64AC087
:103F340083C7110BAA841384010B6382071697D0DD
:103F4400FF1FE780A0CC97D0FF1FE78000CB97D05E
:103F5400FF1FE78060C997D0FF1FE78000CA97D092
:103F6400FF1FE78060C897D0FF1FE78040CB97D042
:103F7400FF1FE78080C897D0FF1FE780E0C697D077
:103F8400FF1FE78080C797D0FF1FE780E0C5054586
:103F940097D0FF1FE780C0C983C7B10CA10786076C
:103FA400A29703D947016310090A83C7B10CA297EA
:103FB40003C9C7017D196312090A83C7B10CC1077C
:103FC40086073E940354440169C0268597D0FF1F99
:103FD400E78000C697D0FF1FE78020C297D0FF1F5D
:103FE400E78080C0054597D0FF1FE78060C47D143B
:103FF40041E497D0FF1FE78060C197D0FF1FE7809F
:10400400C0BF97D0FF1FE78020BE97D0FF1FE78077
:10401400C0BE97D0FF1FE78020BD97D0FF1FE78069
:1040240000C097D0FF1FE78040BD97D0FF1FE780F7
:10403400A0BB2244B240924402490545410117D332
:10404400FF1F6700E3BE97D0FF1FE78000BB7D1909
:1040540097D0FF1FE78040B9B9B7268597D0FF1FD7
:10406400E78000BD858097D0FF1FE78000B997D017
:10407400FF1FE78060B73DBF97D0FF1FE780E0B721
:1040840097D0FF1FE78040B69DB797D0FF1FE7800A
:10409400E0B7268597D0FF1FE78080B9B9BF97D0D6
:1040A400FF1FE780A0B697D0FF1FE78000B5484008
:1040B40097D0FF1FE780E0BA97D0FF1FE780C0B218
:1040C400484097D0FF1FE780C0B997D0FF1FE78013
:1040D400C0B2484097D0FF1FE780A0B897D0FF1F19
:1040E400E78080B0484097D0FF1FE78080B797D023
:1040F400FF1FE780C0B297D0FF1FE78000B04840A1
:1041040097D0FF1FE780E0B597D0FF1FE780C0ADD1
:10411400484097D0FF1FE780C0B497D0FF1FE780C7
:10412400C0AD484097D0FF1FE780A0B397D0FF1FD2
:10413400E78080AB484097D0FF1FE78080B20545F9
:1041440097D0FF1FE780C0AE83C7B10CA1078607D5
:10415400A29703D947016311090E83C7B10CA29733
:1041640003C9C7017D19631D090E83C7B10CC107BB
:104174008607A29703D9470163000914268597D0BF
:10418400FF1FE780E0AA97D0FF1FE78000A7484001
:1041940097D0FF1FE780E0AC97D0FF1FE780C0A453
:1041A400484097D0FF1FE780C0AB054597D0FF1F5D
:1041B400E78000A87D19631E090C97D0FF1FE780D4
:1041C400E0A497D0FF1FE78040A3484097D0FF1F8B
:1041D400E78020A997D0FF1FE78000A1484097D02F
:1041E400FF1FE78000A897D0FF1FE78000A1484089
:1041F40097D0FF1FE780E0A697D0FF1FE780C09EFF
:10420400484097D0FF1FE780C0A597D0FF1FE780E5
:1042140000A197D0FF1FE780409E484097D0FF1F22
:10422400E78020A497D0FF1FE780009C484097D0E8
:10423400FF1FE78000A3F5BB97D0FF1FE780E09B3B
:1042440048407D1997D0FF1FE780A0A197D0FF1F9A
:10425400E7808099484097D0FF1FE78080A0E5BDA4
:10426400268597D0FF1FE780A09C97D0FF1FE7808B
:10427400C0984840858097D0FF1FE780809E97D0E4
:10428400FF1FE7806096484097D0FF1FE780609D3E
:10429400D1BD97D0FF1FE7804096484097D0FF1FBD
:1042A400E780209C97D0FF1FE7800094484097D078
:1042B400FF1FE780009BFDBD97D0FF1FE78000959F
:1042C400268597D0FF1FE780A096E5BD797126D299
:1042D40052CC06D622D44AD04ECE56CA5AC883C728
:1042E400110BAA842E8A6387072A97D0FF1FE780C1
:1042F400E09197D0FF1FE780409097D0FF1FE780A1
:10430400A08E97D0FF1FE780809197D0FF1FE78092
:10431400C08E97D0FF1FE780208D97D0FF1FE780C6
:10432400C08D97D0FF1FE780208C83CAB10C6391A6
:104334000A0A13D5140097D0FF1FE780608F97D027
:10434400FF1FE780808B97D0FF1FE780A0902A840F
:1043540097D0FF1FE780408913D5240097D0FF1F13
:10436400E780008D97D0FF1FE780208997D0FF1F3B
:10437400E780408E2A8997D0FF1FE780E08613D517
:10438400340097D0FF1FE780A08A97D0FF1FE780F3
:10439400C08697D0FF1FE780E08B2AC697D0FF1F07
:1043A400E78080843245060485470A05498C3369D1
:1043B40089006309F90297D0FF1FE780208597D011
:1043C400FF1FE780808397D0FF1FE780E08171A8FB
:1043D40097D0FF1FE7806082FD1A97D0FF1FE78008
:1043E400A080B1B793F72400638D07107D4497D064
:1043F400FF1FE780808097D0FF1FE780A085AA89F0
:10440400FE09B3E959017D1497C0FF1FE780C07D01
:1044140093DA190069FC83C7B10C03C4A10C1D8C89
:1044240085476302F40C97C0FF1FE780007D97D097
:10443400FF1FE7802082AA89791497C0FF1FE780B5
:10444400A07A41E897C0FF1FE780407C97C0FF1F18
:10445400E780A07A97C0FF1FE780007963070A000E
:10446400FE09B3E9590123203A0197C0FF1FE780F1
:10447400C07897C0FF1FE780207797C0FF1FE780B1
:10448400007A97C0FF1FE780407797C0FF1FE7803F
:10449400A075054593F4040897C0FF1FE780407991
:1044A40099C497C0FF1FE780C07C23ACA10A03C452
:1044B400C10BFD547D146316940CB2502254137531
:1044C400F90F92540259F249624AD24A424B456169
:1044D400828097C0FF1FE78040727D1497C0FF1F42
:1044E400E7808070B9BF97C0FF1FE780207297C034
:1044F400FF1FE780807097C0FF1FE780A075AA891F
:1045040091BF83290A007D444E857D1497C0FF1F07
:10451400E780007293D9190097C0FF1FE780E06D10
:1045240097C0FF1FE780406C65F083C7B10C03C4DC
:10453400A10C1D8C8547630CF4024E8597C0FF1FA8
:10454400E780006F791497C0FF1FE780006B97C066
:10455400FF1FE7806069E30004E697C0FF1FE78060
:10456400C0697D1497C0FF1FE7800068EDB797C04E
:10457400FF1FE780A0694E8597C0FF1FE780406B4F
:104584003DBD97C0FF1FE780406797C0FF1FE780CE
:10459400A0650DB71384010B97C0FF1FE780006768
:1045A40097C0FF1FE7806065484097C0FF1FE78002
:1045B400406B97C0FF1FE7802063484097C0FF1FF0
:1045C400E780206A97C0FF1FE780606597C0FF1FE0
:1045D400E780A062484097C0FF1FE780806897C0CB
:1045E400FF1FE7806060484097C0FF1FE780606757
:1045F40097C0FF1FE7806060484097C0FF1FE780B7
:10460400406697C0FF1FE780205E484097C0FF1FA9
:10461400E780206503CBB10C631A0B0E13D514008D
:1046240097C0FF1FE780C06097C0FF1FE780E05C72
:10463400484097C0FF1FE780C06297C0FF1FE78014
:104644006061AA8997C0FF1FE780005A4840860925
:1046540097C0FF1FE780E06013D5240097C0FF1FB9
:10466400E780005D97C0FF1FE7802059484097C04E
:10467400FF1FE780005F97C0FF1FE780A05D2A89C6
:1046840097C0FF1FE7804056484097C0FF1FE78050
:10469400405D13D5340097C0FF1FE780605997C071
:1046A400FF1FE7808055484097C0FF1FE780605B8D
:1046B40097C0FF1FE780005AAA8A97C0FF1FE780B0
:1046C400A052484097C0FF1FE780A05913952A00C5
:1046D40033E5A9003369A9008547630DF90497C040
:1046E400FF1FE780A05297C0FF1FE780005148409A
:1046F40097C0FF1FE780E05697C0FF1FE780C04EBA
:10470400484097C0FF1FE780C055CDA897C0FF1F42
:10471400E780A04E48407D1B97C0FF1FE780605490
:1047240097C0FF1FE780404C484097C0FF1FE780B9
:104734004053DDB593F724006388071AFD4997C0F9
:10474400FF1FE780804B4840FD1997C0FF1FE7809B
:10475400405197C0FF1FE780E04FAA8A97C0FF1F10
:10476400E78080484840FE0AB3EA6A0197C0FF1F09
:10477400E780204F13DB1A00E39309FC83C7B10CD5
:1047840083C9A10CB389F9408547638CF91297C09A
:10479400FF1FE78080464840F91997C0FF1FE78054
:1047A400404C97C0FF1FE780E04AAA8A97C0FF1FCA
:1047B400E7808043484097C0FF1FE780804A639E9C
:1047C400090C97C0FF1FE780604497C0FF1FE78074
:1047D400C042484097C0FF1FE780A04897C0FF1F12
:1047E400E7808040484097C0FF1FE7808047630709
:1047F4000A00FE0AB3EA6A0123205A0197C0FF1F88
:10480400E780A03F484093F4040897C0FF1FE78067
:10481400404597C0FF1FE780203D484097C0FF1FD9
:10482400E780204497C0FF1FE780603F97C0FF1FC9
:10483400E780A03C484097C0FF1FE780804297C0B4
:10484400FF1FE780603A484097C0FF1FE780604140
:10485400054597C0FF1FE780A03D99C497C0FF1F7F
:10486400E780204123ACA10A83C4C10BFD59FD1488
:10487400E38534C597C0FF1FE7802038484097C0C0
:10488400FF1FE780003E97C0FF1FE780E0354840E8
:1048940097C0FF1FE780E03CD9BF97C0FF1FE780A8
:1048A400C0354840FD1997C0FF1FE780803B97C083
:1048B400FF1FE7806033484097C0FF1FE780603ADE
:1048C400FDBD97C0FF1FE780603497C0FF1FE780DE
:1048D400C032484097C0FF1FE780A03897C0FF1F31
:1048E400E7804037AA8ADDBD032A0A00FD495285C4
:1048F40097C0FF1FE780C03397C0FF1FE780E02FFA
:104904004840FD19135A1A0097C0FF1FE78060350D
:1049140097C0FF1FE780402D484097C0FF1FE780E6
:104924004034E39609FC83C7B10C83C9A10CB38955
:10493400F94085476380F906528597C0FF1FE780D9
:10494400202F97C0FF1FE780402B4840F91997C0DC
:10495400FF1FE780003197C0FF1FE780E028484031
:1049640097C0FF1FE780E02FE38B09D697C0FF1F96
:10497400E780A0284840FD1997C0FF1FE780602EFC
:1049840097C0FF1FE7804026484097C0FF1FE7807D
:10499400402DD9BF97C0FF1FE7804027528597C09D
:1049A400FF1FE780E02881B3011122CC26CA4AC840
:1049B4004EC652C456C206CE2A89AE8981440144E9
:1049C400FD5A138A010B7D19631B5901F24062449D
:1049D400D2444249B249224A924A0561828089E41A
:1049E40003C40900A14485099377140085CF97C0B7
:1049F400FF1FE780C02A97C0FF1FE78020290325F7
:104A04004A000580FD1497C0FF1FE780203497C03B
:104A1400FF1FE780802603254A0097C0FF1FE78019
:104A2400E03255B797C0FF1FE7808028E9B7797156
:104A340022D406D626D24AD04ECE52CC1374F503D5
:104A440019E01304000413750508138A010B138974
:104A5400010B3DC521498144A1A032C697C0FF1F67
:104A6400E780C02203254A0085807D1997C0FF1F77
:104A7400E780C02D97C0FF1FE780A024AA8997C0B4
:104A8400FF1FE780801F03254A009E09B3E49900B5
:104A940097C0FF1FE780802B7D1432466303090013
:104AA4004DFC0506B3D42401A30F96FE45F4B25081
:104AB400225492540259F249624A4561828065D86F
:104AC40083C40500930984FF850526852EC697C0F7
:104AD400FF1FE780E01F97C0FF1FE780201B03250F
:104AE40049007D14858097C0FF1FE780202697C06A
:104AF400FF1FE78080180325490097C0FF1FE78048
:104B0400E024B245E30D34FB69F055B7397156D250
:104B14005AD0935A2500135B150026DAB3846A0130
:104B24004AD84ED652D493593500AA9406DE22DCD4
:104B34005ECE83C7110B2A892E8ACE94638C0734E8
:104B4400054597C0FF1FE780A01897C0FF1FE780A7
:104B5400E01397C0FF1FE78040124A8597C0FF1FEC
:104B6400E780001797C0FF1FE780401297C0FF1F20
:104B7400E780A0105A8597C0FF1FE780601597C093
:104B8400FF1FE780A01097C0FF1FE780000F568526
:104B940097C0FF1FE780C01397C0FF1FE780000F77
:104BA40097C0FF1FE780600D4E8597C0FF1FE78009
:104BB400201297C0FF1FE780600D97C0FF1FE7809A
:104BC400C00B268597C0FF1FE780801097C0FF1F8A
:104BD400E780C00B97C0FF1FE780200A014597C0FC
:104BE400FF1FE780E00E97C0FF1FE780200A97C0F1
:104BF400FF1FE7808008054597C0FF1FE780400D31
:104C040097C0FF1FE780800897C0FF1FE780E0067A
:104C140097C0FF1FE780801003C4810C631C04103D
:104C240097C0FF1FE780800697C0FF1FE7806009D9
:104C3400AA8497C0FF1FE780400497C0FF1FE78046
:104C4400E00497C0FF1FE780C007AA8997C0FF1F31
:104C5400E780A00297C0FF1FE780400397C0FF1FB3
:104C6400E78020062AC697C0FF1FE780000132456F
:104C7400860985470A05B3E9A900B3E49900639559
:104C8400F41693772900F9CB8149930A000297C05F
:104C9400FF1FE780A0FF97C0FF1FE78080022AC69E
:104CA40097C0FF1FE78060FD324593D91900FD1AB4
:104CB4002A947E05B3693501E39B0AFC97C0FF1F64
:104CC400E780C0FC97C0FF1FE780A0FF2AC697C0FB
:104CD400FF1FE78080FA3245298C058811C0A14462
:104CE40063040A0023203A0103C4810C31EC97C009
:104CF400FF1FE7802000137909086308090097C0A3
:104D0400FF1FE780A00523ACA10A03C4C10B4DEC2F
:104D1400054597C0FF1FE780A0FBF250625413F5CE
:104D2400F40F4259D254B259225A925A025BF24BAE
:104D34002161828097C0FF1FE78040F57D1497C0F2
:104D4400FF1FE78080F3D9BD97C0FF1FE78000F401
:104D54007D1497C0FF1FE78040F249BF03C4810C54
:104D640031E897C0FF1FE780E0F883290A00130A9F
:104D740000024E857D1A97C0FF1FE78060F54E94B0
:104D840097C0FF1FE78080F093D9190097C0FF1FD9
:104D9400E780A0EEE31F0AFC228597C0FF1FE7808F
:104DA40020F397C0FF1FE78060EE97C0FF1FE780E6
:104DB400C0EC91B797C0FF1FE78040ED7D1497C00A
:104DC400FF1FE78080EB69BF014597C0FF1FE780A5
:104DD40020F07D1497C0FF1FE78040EB97C0FF1FB2
:104DE400E780A0E97DF42DB79387E4FFF59BBDEF41
:104DF40083C7910CB1E303C4810C39EC97C0FF1F46
:104E0400E78040EF83C7910CE38407F0137929000E
:104E1400E31009F0014597C0FF1FE78060EB13041E
:104E240010027D1497C0FF1FE78040E697C0FF1F64
:104E3400E780A0E47DF4E9BD93772900CDDF130476
:104E440010027D1497C0FF1FE78040E497C0FF1F46
:104E5400E780A0E27DF445B797C0FF1FE78000E339
:104E64007D1497C0FF1FE78040E141BF03C4810C5C
:104E74001309F0FD7D1497C0FF1FE78020E197C060
:104E8400FF1FE78080DFE31724FF97C0FF1FE78041
:104E940060E6BDBD05451384010B97C0FF1FE78085
:104EA40020E397C0FF1FE78060DE484097C0FF1FE4
:104EB400E780C0E997C0FF1FE78020DC484097C027
:104EC400FF1FE780A0E84A8597C0FF1FE78040E006
:104ED40097C0FF1FE78080DB484097C0FF1FE78033
:104EE400E0E697C0FF1FE78040D9484097C0FF1F06
:104EF400E780C0E55A8597C0FF1FE78060DD97C053
:104F0400FF1FE780A0D8484097C0FF1FE78000E458
:104F140097C0FF1FE78060D6484097C0FF1FE78017
:104F2400E0E2568597C0FF1FE78080DA97C0FF1F35
:104F3400E780C0D5484097C0FF1FE78020E197C0B5
:104F4400FF1FE78080D3484097C0FF1FE78000E041
:104F54004E8597C0FF1FE780A0D797C0FF1FE7804B
:104F6400E0D2484097C0FF1FE78040DE97C0FF1F94
:104F7400E780A0D0484097C0FF1FE78020DD26854A
:104F840097C0FF1FE780C0D497C0FF1FE78000D001
:104F9400484097C0FF1FE78060DB97C0FF1FE78092
:104FA400C0CD484097C0FF1FE78040DA014597C055
:104FB400FF1FE780E0D197C0FF1FE78020CD484066
:104FC40097C0FF1FE78080D897C0FF1FE780E0CA23
:104FD400484097C0FF1FE78060D7054597C0FF1F73
:104FE400E78000CF97C0FF1FE78040CA484097C0C2
:104FF400FF1FE780A0D597C0FF1FE78000C8484087
:1050040097C0FF1FE78080D497C0FF1FE78000D1BF
:1050140083C9810C639A091897C0FF1FE78000C7F2
:10502400484097C0FF1FE78060D297C0FF1FE7800A
:1050340040C9AA8B97C0FF1FE78020C4484097C08F
:10504400FF1FE780A0D097C0FF1FE78020C448401F
:1050540097C0FF1FE78080CF97C0FF1FE78060C61F
:10506400AA8497C0FF1FE78040C14840860497C0C8
:10507400FF1FE780A0CD97C0FF1FE78020C14840F5
:1050840097C0FF1FE78080CC97C0FF1FE78060C3F5
:105094002A8B97C0FF1FE78040BE48400A0BB3E449
:1050A400640197C0FF1FE78060CAB3E474018547B9
:1050B4006399F41E9377290063800714814A930B44
:1050C400000297C0FF1FE78060BC484093DA1A00D3
:1050D400FD1B97C0FF1FE78060C797C0FF1FE780D5
:1050E40040BE2A8B97C0FF1FE78020B94840DA9959
:1050F4007E0B97C0FF1FE78060C5B36A5B01E39234
:105104000BFC97C0FF1FE78060B8484097C0FF1FA3
:10511400E780C0C397C0FF1FE780A0BA2A8B97C05F
:10512400FF1FE78080B54840B3C9690193F91900AE
:1051340097C0FF1FE78080C163830900A144630413
:105144000A0023205A0183C9810C6393090897C07C
:10515400FF1FE78020BA137909086308090097C084
:10516400FF1FE780A0BF23ACA10A03C9C10BE30161
:1051740009BA014597C0FF1FE78080B597C0FF1F9C
:10518400E780C0B048407D1997C0FF1FE78000BC8E
:1051940097C0FF1FE78060AE484097C0FF1FE780BD
:1051A400E0BAE31D09FCADB697C0FF1FE78000AE6F
:1051B4004840FD1997C0FF1FE78040B997C0FF1F03
:1051C400E780A0AB484097C0FF1FE78020B899B59F
:1051D40097C0FF1FE78080AB4840FD1997C0FF1FB1
:1051E400E780C0B697C0FF1FE78020A9484097C05A
:1051F400FF1FE780A0B591BF83C9810C639F090697
:1052040097C0FF1FE78000AF032A0A00930A000239
:10521400528597C0FF1FE780A0AB97C0FF1FE780B0
:10522400E0A64840FD1AD29997C0FF1FE78000B25C
:1052340097C0FF1FE78060A44840135A1A0097C024
:10524400FF1FE780A0B0E3950AFC4E8597C0FF1FBF
:10525400E78000A897C0FF1FE78040A3484097C09D
:10526400FF1FE780A0AE97C0FF1FE78000A1484062
:1052740097C0FF1FE78080ADF9BD97C0FF1FE7808F
:10528400E0A04840FD1997C0FF1FE78020AC97C0FD
:10529400FF1FE780809E484097C0FF1FE78000AB58
:1052A400B1BF9387E4FFF59BE1E383C7910CB1EFB2
:1052B40083C9810C6396090897C0FF1FE78080A308
:1052C40083C7910CE38607A413792900E31209A488
:1052D400014597C0FF1FE780A09F1309100297C0E4
:1052E400FF1FE780A09A48407D1997C0FF1FE78001
:1052F400E0A597C0FF1FE7804098484097C0FF1F74
:10530400E780C0A4E31D09FC21B493772900CDD321
:105314009309100297C0FF1FE78040974840FD198A
:1053240097C0FF1FE78080A297C0FF1FE780E0942B
:10533400484097C0FF1FE78060A1E39D09FC8DBF33
:1053440097C0FF1FE78080944840FD1997C0FF1F56
:10535400E780C09F97C0FF1FE7802092484097C016
:10536400FF1FE780A09EB9B703C9810C9309F0FD24
:1053740097C0FF1FE780809148407D1997C0FF1FA9
:10538400E780C09C97C0FF1FE780208F484097C0EC
:10539400FF1FE780A09BE31D39FDC5BC411122C45A
:1053A4001384410F26C2A285AA841376F60F1385AF
:1053B400411306C67D2422862244B24026859244A7
:1053C40093060004914541016FC06FD99D47639ACC
:1053D400F50241119306000413860131854522C468
:1053E40006C62A84A38C01B4EFC06FD72285224459
:1053F400B240930600041386410F914541016FC0EA
:105404000FD68280011122CC32C606CE2A84EFD078
:105414002FA232463375A60201ED19CA22856244D1
:10542400F240814601469305500805616FC0EFC6FE
:10543400F2406244A38C01B405618280828083C6F9
:10544400112F83C7012F638FD70203C791B51DEBBB
:105454009D8E93F6F607011136869385011F1385F9
:10546400012706CE36C6992CB2461386011F930532
:1054740050080145EFC06FC2F2408547A38CF1B4D8
:105484000561828082800345160003470600B287C7
:105494002205598D034726008346460083C56700CD
:1054A4004207498F03453600034656006205598D6D
:1054B40071B7411126C2AE8497250000938545A497
:1054C40006C622C42A84EFD00F87228593854180A3
:1054D400EFD0CF8C22859385C181EFD00F8B2285AD
:1054E4009385412FEFD0AF8C22859385C182EFD075
:1054F4002F8F228593854182EFD08F8E9385811BD8
:105504002285EFD06F9EAA852285EFD04F8A93859E
:10551400411D2285EFD04F9DAA852285EFD02F898A
:10552400228593854181EFD0AF8B22859385C180FD
:10553400EFD00F8B22852244B240A68592441706F1
:1055440000001306E6E841016FD02F94411106C60E
:105554005D2A81450145B13F0145EFD08F916DDD55
:10556400A928F13D312CEDBF03C701319D476311DB
:10557400F70241119306000413860131014506C662
:10558400EFC0EFBDB2408547238CF1B44101828066
:1055940083C7B1B599C793060004138601316FC060
:1055A4000FBC8547A38DF1B4FDB703C7A1B58547EB
:1055B4006314F700238D01B4828083C7B1B5A9C3F6
:1055C4004111938501351385013106C6EFD0EFA350
:1055D4009376F50F13860135930520080145EFC036
:1055E400CFAB8547238DF1B41387A1B5834707005B
:1055F40093F7F70FE5FFB240A38D01B44101828018
:10560400828083471508034505083385A740137531
:10561400F507130515F813351500828023000508D6
:10562400A30005088280011122CC2EC606CE2A844E
:10563400C93FB24501C983470408850793F7F707B3
:105644002300F408834714083307F4008507230074
:10565400B70093F7F707A300F408F240624405612A
:105664008280411122C426C24AC006C62A892E84D9
:10567400B384C50063189400B240224492440249A2
:1056840041018280830504004A850504693FDDB732
:1056940083470508034715086300F702AA97838721
:1056A40007002380F50083470508850793F7F7076C
:1056B4002300F5080545828001458280011152C40A
:1056C40006CE22CC26CA4AC84EC6034715088347CD
:1056D4000508014A6300F702B2892E89AA840144AD
:1056E400B3058900137AF40F6306340126854D3718
:1056F40005047DF5F24062445285D2444249B249E0
:10570400224A05618280B717004003A7870C411124
:1057140006C61367070823A4E70C03A7470D3D9BA0
:1057240023AAE70C03A7070D1367070123A8E70CB7
:1057340003A7070C3D9B23A0E70C03A7470D137792
:10574400F7F723AAE70C03A7070C1367070823A09E
:10575400E70CEFB07FDC0145EFB03FDF9545054531
:10576400EFB05FE0B7E700E03707000413850127D7
:1057740023A0E7106535B24013854113410179BD7B
:10578400411122C406C626C24AC0000883C4511B64
:1057940083C7411B638697029D8C93F4F407938718
:1057A400F40093F7070F0A893301F1408A852686AE
:1057B4001385411321370A85A685EFB05FDD4A8141
:1057C400130104FFB2402244924402494101828001
:1057D400B3C7A5008D8B3307C50081E78D4763EE02
:1057E400C700AA876370E50A83C605008507850597
:1057F400A38FD7FEE3EAE7FE828093763500AA877B
:1058040091CA83C6050085078505A38FD7FE93F645
:105814003700FDB79376C7FF138606FE63F0C7060D
:1058240083A3050083A2450083AF850003AFC500B1
:1058340083AE050103AE450103A3850183A8C50119
:105844009385450223A0770003A8C5FF23A2570030
:1058540023A4F70123A6E70123A8D70123AAC7019C
:1058640023AC670023AE17019387470223AE07FFDB
:1058740075B790419107910523AEC7FEE3EBD7FEC0
:10588400E3E4E7F6828039713EDA2ED232D436D69A
:105894003AD842DC46DE9387418322CC804326CA31
:1058A40006CEAA8409C41C4C99E3228515230C4412
:1058B40054102686228536C6EF00F016F240624464
:1058C400D24421618280011126CA4AC806CE22CC64
:1058D4004EC652C4AA842E8901C51C4D91E3CD291C
:1058E4009C4C804499E32685E52197170000938713
:1058F4006770631CF402C0408357C400A18BB1C716
:105904001C48A1C7FD59294A1C4483450900FD17B9
:10591400B1E91CC463DE07062286A94526857120E9
:10592400FD576308F502294535A0971700009387B2
:10593400676E6314F4008044C1B79717000093871F
:105944006769E31BF4FAC04445BFA2852685312A62
:1059540055D97D55F2406244D2444249B249224A63
:10596400056182801CC4050963D70700184C63CB0A
:10597400E700638945011C401387170018C0238082
:10598400B70059B7228626850D20E31F35F7D1B716
:105994001C401387170018C029472380E70061B70C
:1059A40093874183AA85884339BF011122CC26CA33
:1059B4004AC806CE4EC6AA842E89328401C51C4D1F
:1059C40091E33921971700009387C7626319F4069E
:1059D400C0401C4C1CC48357C400A18BC9C31C48C1
:1059E400BDCF1C4808409379F90F1379F90F1D8D29
:1059F4005C486346F500A2852685652C2DE51C448C
:105A04000505FD171CC41C401387170018C023800C
:105A140037015C486389A7008357C400858B81CB19
:105A2400A9476316F900A285268561240DEDF2408D
:105A340062444A85D2444249B2490561828097173B
:105A440000009387275D6314F400804459B79717C7
:105A5400000093872758E31EF4F6C0449DBFA28537
:105A6400268521203DDD7D59D9B741119387418396
:105A740026C2844322C44AC006C62A892E8489C405
:105A84009C4C99E32685A92697170000938787568F
:105A9400631CF402C0400317C40093170701C183B9
:105AA40093F68700B5EE93F607019DEEA5472320F4
:105AB400F900136707042316E4007D55B24022441D
:105AC40092440249410182809717000093878754CA
:105AD4006314F4008044C1B7971700009387874F7D
